{
  "_format": "hh-sol-artifact-1",
  "contractName": "OptimismSequencerProxy",
  "sourceName": "contracts/proxy/OptimismSequencerProxy.sol",
  "abi": [
    {
      "anonymous": false,
      "inputs": [
        {
          "indexed": true,
          "internalType": "bytes32",
          "name": "role",
          "type": "bytes32"
        },
        {
          "indexed": true,
          "internalType": "bytes32",
          "name": "previousAdminRole",
          "type": "bytes32"
        },
        {
          "indexed": true,
          "internalType": "bytes32",
          "name": "newAdminRole",
          "type": "bytes32"
        }
      ],
      "name": "RoleAdminChanged",
      "type": "event"
    },
    {
      "anonymous": false,
      "inputs": [
        {
          "indexed": true,
          "internalType": "bytes32",
          "name": "role",
          "type": "bytes32"
        },
        {
          "indexed": true,
          "internalType": "address",
          "name": "account",
          "type": "address"
        },
        {
          "indexed": true,
          "internalType": "address",
          "name": "sender",
          "type": "address"
        }
      ],
      "name": "RoleGranted",
      "type": "event"
    },
    {
      "anonymous": false,
      "inputs": [
        {
          "indexed": true,
          "internalType": "bytes32",
          "name": "role",
          "type": "bytes32"
        },
        {
          "indexed": true,
          "internalType": "address",
          "name": "account",
          "type": "address"
        },
        {
          "indexed": true,
          "internalType": "address",
          "name": "sender",
          "type": "address"
        }
      ],
      "name": "RoleRevoked",
      "type": "event"
    },
    {
      "anonymous": false,
      "inputs": [
        {
          "indexed": true,
          "internalType": "address",
          "name": "impl",
          "type": "address"
        },
        {
          "indexed": false,
          "internalType": "bool",
          "name": "alive",
          "type": "bool"
        }
      ],
      "name": "SetAliveImplementation",
      "type": "event"
    },
    {
      "anonymous": false,
      "inputs": [
        {
          "indexed": true,
          "internalType": "bytes4",
          "name": "selector",
          "type": "bytes4"
        },
        {
          "indexed": true,
          "internalType": "address",
          "name": "impl",
          "type": "address"
        }
      ],
      "name": "SetSelectorImplementation",
      "type": "event"
    },
    {
      "anonymous": false,
      "inputs": [
        {
          "indexed": true,
          "internalType": "address",
          "name": "implementation",
          "type": "address"
        }
      ],
      "name": "Upgraded",
      "type": "event"
    },
    {
      "stateMutability": "payable",
      "type": "fallback"
    },
    {
      "inputs": [],
      "name": "ADMIN_ROLE",
      "outputs": [
        {
          "internalType": "bytes32",
          "name": "",
          "type": "bytes32"
        }
      ],
      "stateMutability": "view",
      "type": "function"
    },
    {
      "inputs": [],
      "name": "BURNER_ROLE",
      "outputs": [
        {
          "internalType": "bytes32",
          "name": "",
          "type": "bytes32"
        }
      ],
      "stateMutability": "view",
      "type": "function"
    },
    {
      "inputs": [],
      "name": "DEFAULT_ADMIN_ROLE",
      "outputs": [
        {
          "internalType": "bytes32",
          "name": "",
          "type": "bytes32"
        }
      ],
      "stateMutability": "view",
      "type": "function"
    },
    {
      "inputs": [],
      "name": "MINTER_ROLE",
      "outputs": [
        {
          "internalType": "bytes32",
          "name": "",
          "type": "bytes32"
        }
      ],
      "stateMutability": "view",
      "type": "function"
    },
    {
      "inputs": [
        {
          "internalType": "address",
          "name": "account",
          "type": "address"
        }
      ],
      "name": "addAdmin",
      "outputs": [],
      "stateMutability": "nonpayable",
      "type": "function"
    },
    {
      "inputs": [
        {
          "internalType": "address",
          "name": "_owner",
          "type": "address"
        }
      ],
      "name": "addProxyAdmin",
      "outputs": [],
      "stateMutability": "nonpayable",
      "type": "function"
    },
    {
      "inputs": [
        {
          "internalType": "address",
          "name": "",
          "type": "address"
        }
      ],
      "name": "aliveImplementation",
      "outputs": [
        {
          "internalType": "bool",
          "name": "",
          "type": "bool"
        }
      ],
      "stateMutability": "view",
      "type": "function"
    },
    {
      "inputs": [],
      "name": "fwReceipt",
      "outputs": [
        {
          "internalType": "address",
          "name": "",
          "type": "address"
        }
      ],
      "stateMutability": "view",
      "type": "function"
    },
    {
      "inputs": [
        {
          "internalType": "bytes32",
          "name": "role",
          "type": "bytes32"
        }
      ],
      "name": "getRoleAdmin",
      "outputs": [
        {
          "internalType": "bytes32",
          "name": "",
          "type": "bytes32"
        }
      ],
      "stateMutability": "view",
      "type": "function"
    },
    {
      "inputs": [
        {
          "internalType": "bytes4",
          "name": "_selector",
          "type": "bytes4"
        }
      ],
      "name": "getSelectorImplementation2",
      "outputs": [
        {
          "internalType": "address",
          "name": "impl",
          "type": "address"
        }
      ],
      "stateMutability": "view",
      "type": "function"
    },
    {
      "inputs": [
        {
          "internalType": "bytes32",
          "name": "role",
          "type": "bytes32"
        },
        {
          "internalType": "address",
          "name": "account",
          "type": "address"
        }
      ],
      "name": "grantRole",
      "outputs": [],
      "stateMutability": "nonpayable",
      "type": "function"
    },
    {
      "inputs": [
        {
          "internalType": "bytes32",
          "name": "role",
          "type": "bytes32"
        },
        {
          "internalType": "address",
          "name": "account",
          "type": "address"
        }
      ],
      "name": "hasRole",
      "outputs": [
        {
          "internalType": "bool",
          "name": "",
          "type": "bool"
        }
      ],
      "stateMutability": "view",
      "type": "function"
    },
    {
      "inputs": [],
      "name": "implementation",
      "outputs": [
        {
          "internalType": "address",
          "name": "",
          "type": "address"
        }
      ],
      "stateMutability": "view",
      "type": "function"
    },
    {
      "inputs": [
        {
          "internalType": "uint256",
          "name": "_index",
          "type": "uint256"
        }
      ],
      "name": "implementation2",
      "outputs": [
        {
          "internalType": "address",
          "name": "",
          "type": "address"
        }
      ],
      "stateMutability": "view",
      "type": "function"
    },
    {
      "inputs": [
        {
          "internalType": "address",
          "name": "_ton",
          "type": "address"
        },
        {
          "internalType": "address",
          "name": "_seigManagerV2",
          "type": "address"
        },
        {
          "internalType": "address",
          "name": "_layer2Manager",
          "type": "address"
        },
        {
          "internalType": "address",
          "name": "_fwReceipt",
          "type": "address"
        }
      ],
      "name": "initialize",
      "outputs": [],
      "stateMutability": "nonpayable",
      "type": "function"
    },
    {
      "inputs": [
        {
          "internalType": "address",
          "name": "account",
          "type": "address"
        }
      ],
      "name": "isAdmin",
      "outputs": [
        {
          "internalType": "bool",
          "name": "",
          "type": "bool"
        }
      ],
      "stateMutability": "view",
      "type": "function"
    },
    {
      "inputs": [
        {
          "internalType": "address",
          "name": "account",
          "type": "address"
        }
      ],
      "name": "isProxyAdmin",
      "outputs": [
        {
          "internalType": "bool",
          "name": "",
          "type": "bool"
        }
      ],
      "stateMutability": "view",
      "type": "function"
    },
    {
      "inputs": [],
      "name": "layer2Manager",
      "outputs": [
        {
          "internalType": "address",
          "name": "",
          "type": "address"
        }
      ],
      "stateMutability": "view",
      "type": "function"
    },
    {
      "inputs": [
        {
          "internalType": "uint32",
          "name": "",
          "type": "uint32"
        }
      ],
      "name": "layerInfo",
      "outputs": [
        {
          "internalType": "bytes",
          "name": "",
          "type": "bytes"
        }
      ],
      "stateMutability": "view",
      "type": "function"
    },
    {
      "inputs": [
        {
          "internalType": "uint32",
          "name": "",
          "type": "uint32"
        }
      ],
      "name": "layerStakedLton",
      "outputs": [
        {
          "internalType": "uint256",
          "name": "",
          "type": "uint256"
        }
      ],
      "stateMutability": "view",
      "type": "function"
    },
    {
      "inputs": [
        {
          "internalType": "uint32",
          "name": "",
          "type": "uint32"
        },
        {
          "internalType": "address",
          "name": "",
          "type": "address"
        }
      ],
      "name": "layerStakes",
      "outputs": [
        {
          "internalType": "uint256",
          "name": "stakePrincipal",
          "type": "uint256"
        },
        {
          "internalType": "uint256",
          "name": "stakelton",
          "type": "uint256"
        },
        {
          "internalType": "bool",
          "name": "stake",
          "type": "bool"
        }
      ],
      "stateMutability": "view",
      "type": "function"
    },
    {
      "inputs": [],
      "name": "pauseProxy",
      "outputs": [
        {
          "internalType": "bool",
          "name": "",
          "type": "bool"
        }
      ],
      "stateMutability": "view",
      "type": "function"
    },
    {
      "inputs": [
        {
          "internalType": "uint32",
          "name": "",
          "type": "uint32"
        },
        {
          "internalType": "address",
          "name": "",
          "type": "address"
        }
      ],
      "name": "pendingUnstaked",
      "outputs": [
        {
          "internalType": "uint256",
          "name": "",
          "type": "uint256"
        }
      ],
      "stateMutability": "view",
      "type": "function"
    },
    {
      "inputs": [
        {
          "internalType": "address",
          "name": "",
          "type": "address"
        }
      ],
      "name": "pendingUnstakedAccount",
      "outputs": [
        {
          "internalType": "uint256",
          "name": "",
          "type": "uint256"
        }
      ],
      "stateMutability": "view",
      "type": "function"
    },
    {
      "inputs": [
        {
          "internalType": "uint32",
          "name": "",
          "type": "uint32"
        }
      ],
      "name": "pendingUnstakedLayer2",
      "outputs": [
        {
          "internalType": "uint256",
          "name": "",
          "type": "uint256"
        }
      ],
      "stateMutability": "view",
      "type": "function"
    },
    {
      "inputs": [
        {
          "internalType": "uint256",
          "name": "",
          "type": "uint256"
        }
      ],
      "name": "proxyImplementation",
      "outputs": [
        {
          "internalType": "address",
          "name": "",
          "type": "address"
        }
      ],
      "stateMutability": "view",
      "type": "function"
    },
    {
      "inputs": [],
      "name": "removeAdmin",
      "outputs": [],
      "stateMutability": "nonpayable",
      "type": "function"
    },
    {
      "inputs": [],
      "name": "removeProxyAdmin",
      "outputs": [],
      "stateMutability": "nonpayable",
      "type": "function"
    },
    {
      "inputs": [
        {
          "internalType": "bytes32",
          "name": "role",
          "type": "bytes32"
        },
        {
          "internalType": "address",
          "name": "account",
          "type": "address"
        }
      ],
      "name": "renounceRole",
      "outputs": [],
      "stateMutability": "nonpayable",
      "type": "function"
    },
    {
      "inputs": [
        {
          "internalType": "bytes32",
          "name": "role",
          "type": "bytes32"
        },
        {
          "internalType": "address",
          "name": "account",
          "type": "address"
        }
      ],
      "name": "revokeRole",
      "outputs": [],
      "stateMutability": "nonpayable",
      "type": "function"
    },
    {
      "inputs": [],
      "name": "seigManagerV2",
      "outputs": [
        {
          "internalType": "address",
          "name": "",
          "type": "address"
        }
      ],
      "stateMutability": "view",
      "type": "function"
    },
    {
      "inputs": [
        {
          "internalType": "bytes4",
          "name": "",
          "type": "bytes4"
        }
      ],
      "name": "selectorImplementation",
      "outputs": [
        {
          "internalType": "address",
          "name": "",
          "type": "address"
        }
      ],
      "stateMutability": "view",
      "type": "function"
    },
    {
      "inputs": [
        {
          "internalType": "address",
          "name": "newImplementation",
          "type": "address"
        },
        {
          "internalType": "bool",
          "name": "_alive",
          "type": "bool"
        }
      ],
      "name": "setAliveImplementation2",
      "outputs": [],
      "stateMutability": "nonpayable",
      "type": "function"
    },
    {
      "inputs": [
        {
          "internalType": "address",
          "name": "newImplementation",
          "type": "address"
        },
        {
          "internalType": "uint256",
          "name": "_index",
          "type": "uint256"
        },
        {
          "internalType": "bool",
          "name": "_alive",
          "type": "bool"
        }
      ],
      "name": "setImplementation2",
      "outputs": [],
      "stateMutability": "nonpayable",
      "type": "function"
    },
    {
      "inputs": [
        {
          "internalType": "bool",
          "name": "_pause",
          "type": "bool"
        }
      ],
      "name": "setProxyPause",
      "outputs": [],
      "stateMutability": "nonpayable",
      "type": "function"
    },
    {
      "inputs": [
        {
          "internalType": "bytes4[]",
          "name": "_selectors",
          "type": "bytes4[]"
        },
        {
          "internalType": "address",
          "name": "_imp",
          "type": "address"
        }
      ],
      "name": "setSelectorImplementations2",
      "outputs": [],
      "stateMutability": "nonpayable",
      "type": "function"
    },
    {
      "inputs": [
        {
          "internalType": "uint256",
          "name": "",
          "type": "uint256"
        }
      ],
      "name": "stakeAccountList",
      "outputs": [
        {
          "internalType": "address",
          "name": "",
          "type": "address"
        }
      ],
      "stateMutability": "view",
      "type": "function"
    },
    {
      "inputs": [
        {
          "internalType": "bytes4",
          "name": "interfaceId",
          "type": "bytes4"
        }
      ],
      "name": "supportsInterface",
      "outputs": [
        {
          "internalType": "bool",
          "name": "",
          "type": "bool"
        }
      ],
      "stateMutability": "view",
      "type": "function"
    },
    {
      "inputs": [],
      "name": "ton",
      "outputs": [
        {
          "internalType": "address",
          "name": "",
          "type": "address"
        }
      ],
      "stateMutability": "view",
      "type": "function"
    },
    {
      "inputs": [
        {
          "internalType": "address",
          "name": "newAdmin",
          "type": "address"
        }
      ],
      "name": "transferAdmin",
      "outputs": [],
      "stateMutability": "nonpayable",
      "type": "function"
    },
    {
      "inputs": [
        {
          "internalType": "address",
          "name": "newAdmin",
          "type": "address"
        }
      ],
      "name": "transferProxyAdmin",
      "outputs": [],
      "stateMutability": "nonpayable",
      "type": "function"
    },
    {
      "inputs": [
        {
          "internalType": "address",
          "name": "impl",
          "type": "address"
        }
      ],
      "name": "upgradeTo",
      "outputs": [],
      "stateMutability": "nonpayable",
      "type": "function"
    },
    {
      "inputs": [
        {
          "internalType": "uint32",
          "name": "",
          "type": "uint32"
        },
        {
          "internalType": "address",
          "name": "",
          "type": "address"
        }
      ],
      "name": "withdrawalRequestIndex",
      "outputs": [
        {
          "internalType": "uint256",
          "name": "",
          "type": "uint256"
        }
      ],
      "stateMutability": "view",
      "type": "function"
    },
    {
      "inputs": [
        {
          "internalType": "uint32",
          "name": "",
          "type": "uint32"
        },
        {
          "internalType": "address",
          "name": "",
          "type": "address"
        },
        {
          "internalType": "uint256",
          "name": "",
          "type": "uint256"
        }
      ],
      "name": "withdrawalRequests",
      "outputs": [
        {
          "internalType": "uint32",
          "name": "withdrawableBlockNumber",
          "type": "uint32"
        },
        {
          "internalType": "uint128",
          "name": "amount",
          "type": "uint128"
        },
        {
          "internalType": "bool",
          "name": "processed",
          "type": "bool"
        }
      ],
      "stateMutability": "view",
      "type": "function"
    },
    {
      "stateMutability": "payable",
      "type": "receive"
    }
  ],
  "bytecode": "0x60806040526006805460ff191660011790553480156200001e57600080fd5b506200003a6000805160206200216d8339815191528062000068565b620000556000805160206200216d83398151915233620000b3565b62000062600033620000b3565b62000163565b600082815260208190526040808220600101805490849055905190918391839186917fbd79b86ffe0ab8e8776151514217cd7cacd52c909f66475c3af44e129f0b00ff9190a4505050565b620000bf8282620000c3565b5050565b6000828152602081815260408083206001600160a01b038516845290915290205460ff16620000bf576000828152602081815260408083206001600160a01b03851684529091529020805460ff191660011790556200011f3390565b6001600160a01b0316816001600160a01b0316837f2f8788117e7eff1d82e926ec794901d17c78024a50270940304540a733656f0d60405160405180910390a45050565b611ffa80620001736000396000f3fe60806040526004361061026b5760003560e01c80637cb00d2511610144578063a217fddf116100b6578063d07918f11161007a578063d07918f114610883578063d5391393146108a3578063d547741f146108d7578063ec110d45146108f7578063f47f2f1d14610917578063f8c8765e1461093757610272565b8063a217fddf146107d1578063b911135f146107e6578063b9cab9711461081c578063be72f2d314610849578063cc48b9471461085e57610272565b80638d4fdb40116101085780638d4fdb40146106c857806391d14854146106e857806396f1557c146107085780639a202d47146107285780639c656e261461073d578063a0b2a913146107a457610272565b80637cb00d25146106105780637cd5f663146106305780637cf1587c146106505780638356ca4f146106885780638b8f4a65146106a857610272565b80635c60da1b116101dd5780636d1ef103116101a15780636d1ef10314610515578063704802751461056157806370619cf91461058157806373469a7a146105ae57806375829def146105ce57806375b238fc146105ee57610272565b80635c60da1b146104615780635cc797d8146104765780635e2cfe451461049657806363a8fd89146104ce578063659ab820146104e857610272565b80632f2ff15d1161022f5780632f2ff15d1461037b57806336568abe1461039b5780633659cfe6146103bb5780634a5df50f146103db57806350d2a276146103fb578063550d01a31461043157610272565b806301ffc9a71461027c57806316b5d5bd146102b1578063248a9ca3146102e957806324d7806c14610327578063282c51f31461034757610272565b3661027257005b61027a610957565b005b34801561028857600080fd5b5061029c610297366004611a5e565b610a05565b60405190151581526020015b60405180910390f35b3480156102bd57600080fd5b506008546102d1906001600160a01b031681565b6040516001600160a01b0390911681526020016102a8565b3480156102f557600080fd5b50610319610304366004611a88565b60009081526020819052604090206001015490565b6040519081526020016102a8565b34801561033357600080fd5b5061029c610342366004611ab8565b610a37565b34801561035357600080fd5b506103197f9667e80708b6eeeb0053fa0cca44e028ff548e2a9f029edfeac87c118b08b7c881565b34801561038757600080fd5b5061027a610396366004611ad3565b610a51565b3480156103a757600080fd5b5061027a6103b6366004611ad3565b610a76565b3480156103c757600080fd5b5061027a6103d6366004611ab8565b610af4565b3480156103e757600080fd5b5061027a6103f6366004611aff565b610c08565b34801561040757600080fd5b506102d1610416366004611a5e565b6004602052600090815260409020546001600160a01b031681565b34801561043d57600080fd5b5061029c61044c366004611ab8565b60036020526000908152604090205460ff1681565b34801561046d57600080fd5b506102d1610e74565b34801561048257600080fd5b5061027a610491366004611b93565b610e85565b3480156104a257600080fd5b506103196104b1366004611bd1565b601360209081526000928352604080842090915290825290205481565b3480156104da57600080fd5b5060015461029c9060ff1681565b3480156104f457600080fd5b50610508610503366004611bfb565b610ec3565b6040516102a89190611c66565b34801561052157600080fd5b50610535610530366004611c79565b610f5d565b6040805163ffffffff90941684526001600160801b0390921660208401521515908201526060016102a8565b34801561056d57600080fd5b5061027a61057c366004611ab8565b610fbc565b34801561058d57600080fd5b5061031961059c366004611bfb565b600d6020526000908152604090205481565b3480156105ba57600080fd5b506007546102d1906001600160a01b031681565b3480156105da57600080fd5b5061027a6105e9366004611ab8565b610ffc565b3480156105fa57600080fd5b50610319600080516020611fa583398151915281565b34801561061c57600080fd5b5061027a61062b366004611cb5565b6110ae565b34801561063c57600080fd5b5061027a61064b366004611cd0565b6110f5565b34801561065c57600080fd5b5061031961066b366004611bd1565b601260209081526000928352604080842090915290825290205481565b34801561069457600080fd5b5061027a6106a3366004611ab8565b611134565b3480156106b457600080fd5b506102d16106c3366004611a88565b6111bd565b3480156106d457600080fd5b506102d16106e3366004611a5e565b6111c8565b3480156106f457600080fd5b5061029c610703366004611ad3565b6112c4565b34801561071457600080fd5b5061027a610723366004611ab8565b6112ed565b34801561073457600080fd5b5061027a61131d565b34801561074957600080fd5b50610787610758366004611bd1565b600f60209081526000928352604080842090915290825290208054600182015460029092015490919060ff1683565b6040805193845260208401929092521515908201526060016102a8565b3480156107b057600080fd5b506103196107bf366004611ab8565b60156020526000908152604090205481565b3480156107dd57600080fd5b50610319600081565b3480156107f257600080fd5b506102d1610801366004611a88565b6002602052600090815260409020546001600160a01b031681565b34801561082857600080fd5b50610319610837366004611bfb565b60146020526000908152604090205481565b34801561085557600080fd5b5061027a61136b565b34801561086a57600080fd5b506006546102d19061010090046001600160a01b031681565b34801561088f57600080fd5b506009546102d1906001600160a01b031681565b3480156108af57600080fd5b506103197ff0887ba65ee2024ea881d91b74c2450ef19e1557f03bed3ea9f16b037cbe2dc981565b3480156108e357600080fd5b5061027a6108f2366004611ad3565b61139b565b34801561090357600080fd5b506102d1610912366004611a88565b6113c0565b34801561092357600080fd5b5061029c610932366004611ab8565b6113ea565b34801561094357600080fd5b5061027a610952366004611d03565b6113f6565b600061096e6000356001600160e01b0319166111c8565b90506001600160a01b0381161580159061098b575060015460ff16155b6109dc5760405162461bcd60e51b815260206004820152601d60248201527f50726f78793a20696d706c204f522070726f78792069732066616c736500000060448201526064015b60405180910390fd5b3660008037600080366000845af43d6000803e8080156109fb573d6000f35b3d6000fd5b505050565b6001600160e01b0319811660009081526005602052604081205460ff1680610a315750610a318261159a565b92915050565b6000610a31600080516020611fa5833981519152836112c4565b600082815260208190526040902060010154610a6c816115cf565b610a0083836115d9565b6001600160a01b0381163314610ae65760405162461bcd60e51b815260206004820152602f60248201527f416363657373436f6e74726f6c3a2063616e206f6e6c792072656e6f756e636560448201526e103937b632b9903337b91039b2b63360891b60648201526084016109d3565b610af0828261165d565b5050565b610afd33610a37565b80610b0c5750610b0c336113ea565b610b285760405162461bcd60e51b81526004016109d390611d57565b6001600160a01b038116610b6e5760405162461bcd60e51b815260206004820152600d60248201526c696e707574206973207a65726f60981b60448201526064016109d3565b806001600160a01b0316610b8260006116c2565b6001600160a01b031603610bc45760405162461bcd60e51b815260206004820152600960248201526839b0b6b29030b2323960b91b60448201526064016109d3565b610bd181600060016116dd565b6040516001600160a01b038216907fbc7cd75a20ee27fd9adebab32041f755214dbc6bffa90cc0225b39da2e5c2d3b90600090a250565b610c1133610a37565b80610c205750610c20336113ea565b610c3c5760405162461bcd60e51b81526004016109d390611d57565b81610c895760405162461bcd60e51b815260206004820181905260248201527f50726f78793a205f73656c6563746f727327732073697a65206973207a65726f60448201526064016109d3565b6001600160a01b03811660009081526003602052604090205460ff16610cec5760405162461bcd60e51b815260206004820152601860248201527750726f78793a205f696d70206973206e6f7420616c69766560401b60448201526064016109d3565b60005b82811015610e6e57816001600160a01b031660046000868685818110610d1757610d17611d99565b9050602002016020810190610d2c9190611a5e565b6001600160e01b03191681526020810191909152604001600020546001600160a01b031603610d9d5760405162461bcd60e51b815260206004820152601d60248201527f4c69717569646974795661756c7450726f78793a2073616d6520696d7000000060448201526064016109d3565b8160046000868685818110610db457610db4611d99565b9050602002016020810190610dc99190611a5e565b6001600160e01b0319168152602081019190915260400160002080546001600160a01b0319166001600160a01b039283161790558216848483818110610e1157610e11611d99565b9050602002016020810190610e269190611a5e565b6001600160e01b0319167f14ebc1c32aa68f4d766e89f3e546cee249f7df25183fc10ab1568d91c2ce9b7b60405160405180910390a380610e6681611dc5565b915050610cef565b50505050565b6000610e8060006116c2565b905090565b610e8e33610a37565b80610e9d5750610e9d336113ea565b610eb95760405162461bcd60e51b81526004016109d390611d57565b610af08282611768565b60166020526000908152604090208054610edc90611dde565b80601f0160208091040260200160405190810160405280929190818152602001828054610f0890611dde565b8015610f555780601f10610f2a57610100808354040283529160200191610f55565b820191906000526020600020905b815481529060010190602001808311610f3857829003601f168201915b505050505081565b60116020528260005260406000206020528160005260406000208181548110610f8557600080fd5b60009182526020909120015463ffffffff8116935064010000000081046001600160801b03169250600160a01b900460ff16905083565b610fc5336113ea565b610fe15760405162461bcd60e51b81526004016109d390611e18565b610ff9600080516020611fa583398151915282610a51565b50565b61100533610a37565b806110145750611014336113ea565b6110305760405162461bcd60e51b81526004016109d390611d57565b6001600160a01b0381166110565760405162461bcd60e51b81526004016109d390611e60565b6001600160a01b038116330361107e5760405162461bcd60e51b81526004016109d390611e92565b611096600080516020611fa583398151915282610a51565b610ff9600080516020611fa583398151915233610a76565b6110b733610a37565b806110c657506110c6336113ea565b6110e25760405162461bcd60e51b81526004016109d390611d57565b6001805460ff1916911515919091179055565b6110fe33610a37565b8061110d575061110d336113ea565b6111295760405162461bcd60e51b81526004016109d390611d57565b610a008383836116dd565b61113d336113ea565b6111595760405162461bcd60e51b81526004016109d390611e18565b6001600160a01b03811661117f5760405162461bcd60e51b81526004016109d390611e60565b6001600160a01b03811633036111a75760405162461bcd60e51b81526004016109d390611e92565b6111b2600082610a51565b610ff9600033610a76565b6000610a31826116c2565b6001600160e01b031981166000908152600460205260408120546001600160a01b03166112285750506000805260026020527fac33ff75c19e70fe83507db0d683fd3465c996598dc972688b7ace676c89077b546001600160a01b031690565b6001600160e01b031982166000908152600460209081526040808320546001600160a01b03168352600390915290205460ff161561128657506001600160e01b0319166000908152600460205260409020546001600160a01b031690565b50506000805260026020527fac33ff75c19e70fe83507db0d683fd3465c996598dc972688b7ace676c89077b546001600160a01b031690565b919050565b6000918252602082815260408084206001600160a01b0393909316845291905290205460ff1690565b6112f6336113ea565b6113125760405162461bcd60e51b81526004016109d390611e18565b610ff96000826117c7565b61132633610a37565b806113355750611335336113ea565b6113515760405162461bcd60e51b81526004016109d390611d57565b611369600080516020611fa583398151915233610a76565b565b611374336113ea565b6113905760405162461bcd60e51b81526004016109d390611e18565b611369600033610a76565b6000828152602081905260409020600101546113b6816115cf565b610a00838361165d565b601781815481106113d057600080fd5b6000918252602090912001546001600160a01b0316905081565b6000610a3181836112c4565b6113ff33610a37565b8061140e575061140e336113ea565b61142a5760405162461bcd60e51b81526004016109d390611d57565b836001600160a01b0381166114515760405162461bcd60e51b81526004016109d390611ec2565b836001600160a01b0381166114785760405162461bcd60e51b81526004016109d390611ec2565b836001600160a01b03811661149f5760405162461bcd60e51b81526004016109d390611ec2565b836001600160a01b0381166114c65760405162461bcd60e51b81526004016109d390611ec2565b60065461010090046001600160a01b0316156115195760405162461bcd60e51b8152602060048201526012602482015271616c726561647920696e697469616c697a6560701b60448201526064016109d3565b600780546001600160a01b03199081166001600160a01b038a81169190911790925560068054610100600160a81b0319166101008c85160217905560088054821689841617905560098054909116918716919091179055611580632139e50b60e11b6117d1565b6115906301ffc9a760e01b6117d1565b5050505050505050565b60006001600160e01b03198216637965db0b60e01b1480610a3157506301ffc9a760e01b6001600160e01b0319831614610a31565b610ff98133611850565b6115e382826112c4565b610af0576000828152602081815260408083206001600160a01b03851684529091529020805460ff191660011790556116193390565b6001600160a01b0316816001600160a01b0316837f2f8788117e7eff1d82e926ec794901d17c78024a50270940304540a733656f0d60405160405180910390a45050565b61166782826112c4565b15610af0576000828152602081815260408083206001600160a01b0385168085529252808320805460ff1916905551339285917ff6391f5c32d9c69d2a47ea670b442974b53935d1edc7fd64eb21e047a839171b9190a45050565b6000908152600260205260409020546001600160a01b031690565b6001600160a01b0383163b6117345760405162461bcd60e51b815260206004820152601b60248201527f50726f78793a206e6f7420636f6e74726163742061646472657373000000000060448201526064016109d3565b801561176257600082815260026020526040902080546001600160a01b0319166001600160a01b0385161790555b610a0083825b6001600160a01b038216600081815260036020908152604091829020805460ff191685151590811790915591519182527f72558d9bfba4210f9ef095c782589484151f6d90f7a81bb3cb9b33efc695d324910160405180910390a25050565b610af082826115d9565b6001600160e01b0319808216900361182b5760405162461bcd60e51b815260206004820152601c60248201527f4552433136353a20696e76616c696420696e746572666163652069640000000060448201526064016109d3565b6001600160e01b0319166000908152600560205260409020805460ff19166001179055565b61185a82826112c4565b610af057611867816118a9565b6118728360206118bb565b604051602001611883929190611ede565b60408051601f198184030181529082905262461bcd60e51b82526109d391600401611c66565b6060610a316001600160a01b03831660145b606060006118ca836002611f4d565b6118d5906002611f64565b67ffffffffffffffff8111156118ed576118ed611f77565b6040519080825280601f01601f191660200182016040528015611917576020820181803683370190505b509050600360fc1b8160008151811061193257611932611d99565b60200101906001600160f81b031916908160001a905350600f60fb1b8160018151811061196157611961611d99565b60200101906001600160f81b031916908160001a9053506000611985846002611f4d565b611990906001611f64565b90505b6001811115611a08576f181899199a1a9b1b9c1cb0b131b232b360811b85600f16601081106119c4576119c4611d99565b1a60f81b8282815181106119da576119da611d99565b60200101906001600160f81b031916908160001a90535060049490941c93611a0181611f8d565b9050611993565b508315611a575760405162461bcd60e51b815260206004820181905260248201527f537472696e67733a20686578206c656e67746820696e73756666696369656e7460448201526064016109d3565b9392505050565b600060208284031215611a7057600080fd5b81356001600160e01b031981168114611a5757600080fd5b600060208284031215611a9a57600080fd5b5035919050565b80356001600160a01b03811681146112bf57600080fd5b600060208284031215611aca57600080fd5b611a5782611aa1565b60008060408385031215611ae657600080fd5b82359150611af660208401611aa1565b90509250929050565b600080600060408486031215611b1457600080fd5b833567ffffffffffffffff80821115611b2c57600080fd5b818601915086601f830112611b4057600080fd5b813581811115611b4f57600080fd5b8760208260051b8501011115611b6457600080fd5b602092830195509350611b7a9186019050611aa1565b90509250925092565b803580151581146112bf57600080fd5b60008060408385031215611ba657600080fd5b611baf83611aa1565b9150611af660208401611b83565b803563ffffffff811681146112bf57600080fd5b60008060408385031215611be457600080fd5b611bed83611bbd565b9150611af660208401611aa1565b600060208284031215611c0d57600080fd5b611a5782611bbd565b60005b83811015611c31578181015183820152602001611c19565b50506000910152565b60008151808452611c52816020860160208601611c16565b601f01601f19169290920160200192915050565b602081526000611a576020830184611c3a565b600080600060608486031215611c8e57600080fd5b611c9784611bbd565b9250611ca560208501611aa1565b9150604084013590509250925092565b600060208284031215611cc757600080fd5b611a5782611b83565b600080600060608486031215611ce557600080fd5b611cee84611aa1565b925060208401359150611b7a60408501611b83565b60008060008060808587031215611d1957600080fd5b611d2285611aa1565b9350611d3060208601611aa1565b9250611d3e60408601611aa1565b9150611d4c60608601611aa1565b905092959194509250565b60208082526022908201527f41636365737369626c653a2043616c6c6572206973206e6f7420616e2061646d60408201526134b760f11b606082015260800190565b634e487b7160e01b600052603260045260246000fd5b634e487b7160e01b600052601160045260246000fd5b600060018201611dd757611dd7611daf565b5060010190565b600181811c90821680611df257607f821691505b602082108103611e1257634e487b7160e01b600052602260045260246000fd5b50919050565b60208082526028908201527f41636365737369626c653a2043616c6c6572206973206e6f7420616e2070726f6040820152673c3c9030b236b4b760c11b606082015260800190565b60208082526018908201527741636365737369626c653a207a65726f206164647265737360401b604082015260600190565b60208082526016908201527520b1b1b2b9b9b4b136329d1039b0b6b29030b236b4b760511b604082015260600190565b6020808252600290820152612d1960f11b604082015260600190565b76020b1b1b2b9b9a1b7b73a3937b61d1030b1b1b7bab73a1604d1b815260008351611f10816017850160208801611c16565b7001034b99036b4b9b9b4b733903937b6329607d1b6017918401918201528351611f41816028840160208801611c16565b01602801949350505050565b8082028115828204841417610a3157610a31611daf565b80820180821115610a3157610a31611daf565b634e487b7160e01b600052604160045260246000fd5b600081611f9c57611f9c611daf565b50600019019056fedf8b4c520ffe197c5343c6f5aec59570151ef9a492f2c624fd45ddde6135ec42a2646970667358221220043fbe31ec2c805d8ef519ddd454a7608cfccd73c8cc2eb64d7c7098c7e95f6f64736f6c63430008120033df8b4c520ffe197c5343c6f5aec59570151ef9a492f2c624fd45ddde6135ec42",
  "linkReferences": {},
  "deployedLinkReferences": {}
}