{
  "_format": "hh-sol-artifact-1",
  "contractName": "Layer2ManagerProxy",
  "sourceName": "contracts/proxy/Layer2ManagerProxy.sol",
  "abi": [
    {
      "anonymous": false,
      "inputs": [
        {
          "indexed": true,
          "internalType": "bytes32",
          "name": "role",
          "type": "bytes32"
        },
        {
          "indexed": true,
          "internalType": "bytes32",
          "name": "previousAdminRole",
          "type": "bytes32"
        },
        {
          "indexed": true,
          "internalType": "bytes32",
          "name": "newAdminRole",
          "type": "bytes32"
        }
      ],
      "name": "RoleAdminChanged",
      "type": "event"
    },
    {
      "anonymous": false,
      "inputs": [
        {
          "indexed": true,
          "internalType": "bytes32",
          "name": "role",
          "type": "bytes32"
        },
        {
          "indexed": true,
          "internalType": "address",
          "name": "account",
          "type": "address"
        },
        {
          "indexed": true,
          "internalType": "address",
          "name": "sender",
          "type": "address"
        }
      ],
      "name": "RoleGranted",
      "type": "event"
    },
    {
      "anonymous": false,
      "inputs": [
        {
          "indexed": true,
          "internalType": "bytes32",
          "name": "role",
          "type": "bytes32"
        },
        {
          "indexed": true,
          "internalType": "address",
          "name": "account",
          "type": "address"
        },
        {
          "indexed": true,
          "internalType": "address",
          "name": "sender",
          "type": "address"
        }
      ],
      "name": "RoleRevoked",
      "type": "event"
    },
    {
      "anonymous": false,
      "inputs": [
        {
          "indexed": true,
          "internalType": "address",
          "name": "impl",
          "type": "address"
        },
        {
          "indexed": false,
          "internalType": "bool",
          "name": "alive",
          "type": "bool"
        }
      ],
      "name": "SetAliveImplementation",
      "type": "event"
    },
    {
      "anonymous": false,
      "inputs": [
        {
          "indexed": true,
          "internalType": "bytes4",
          "name": "selector",
          "type": "bytes4"
        },
        {
          "indexed": true,
          "internalType": "address",
          "name": "impl",
          "type": "address"
        }
      ],
      "name": "SetSelectorImplementation",
      "type": "event"
    },
    {
      "anonymous": false,
      "inputs": [
        {
          "indexed": true,
          "internalType": "address",
          "name": "implementation",
          "type": "address"
        }
      ],
      "name": "Upgraded",
      "type": "event"
    },
    {
      "stateMutability": "payable",
      "type": "fallback"
    },
    {
      "inputs": [],
      "name": "ADMIN_ROLE",
      "outputs": [
        {
          "internalType": "bytes32",
          "name": "",
          "type": "bytes32"
        }
      ],
      "stateMutability": "view",
      "type": "function"
    },
    {
      "inputs": [],
      "name": "BURNER_ROLE",
      "outputs": [
        {
          "internalType": "bytes32",
          "name": "",
          "type": "bytes32"
        }
      ],
      "stateMutability": "view",
      "type": "function"
    },
    {
      "inputs": [],
      "name": "DAOCommittee",
      "outputs": [
        {
          "internalType": "address",
          "name": "",
          "type": "address"
        }
      ],
      "stateMutability": "view",
      "type": "function"
    },
    {
      "inputs": [],
      "name": "DEFAULT_ADMIN_ROLE",
      "outputs": [
        {
          "internalType": "bytes32",
          "name": "",
          "type": "bytes32"
        }
      ],
      "stateMutability": "view",
      "type": "function"
    },
    {
      "inputs": [],
      "name": "MINTER_ROLE",
      "outputs": [
        {
          "internalType": "bytes32",
          "name": "",
          "type": "bytes32"
        }
      ],
      "stateMutability": "view",
      "type": "function"
    },
    {
      "inputs": [
        {
          "internalType": "address",
          "name": "account",
          "type": "address"
        }
      ],
      "name": "addAdmin",
      "outputs": [],
      "stateMutability": "nonpayable",
      "type": "function"
    },
    {
      "inputs": [
        {
          "internalType": "address",
          "name": "_owner",
          "type": "address"
        }
      ],
      "name": "addProxyAdmin",
      "outputs": [],
      "stateMutability": "nonpayable",
      "type": "function"
    },
    {
      "inputs": [
        {
          "internalType": "address",
          "name": "",
          "type": "address"
        }
      ],
      "name": "aliveImplementation",
      "outputs": [
        {
          "internalType": "bool",
          "name": "",
          "type": "bool"
        }
      ],
      "stateMutability": "view",
      "type": "function"
    },
    {
      "inputs": [],
      "name": "candidate",
      "outputs": [
        {
          "internalType": "address",
          "name": "",
          "type": "address"
        }
      ],
      "stateMutability": "view",
      "type": "function"
    },
    {
      "inputs": [
        {
          "internalType": "uint32",
          "name": "",
          "type": "uint32"
        }
      ],
      "name": "candidateNames",
      "outputs": [
        {
          "internalType": "bytes32",
          "name": "",
          "type": "bytes32"
        }
      ],
      "stateMutability": "view",
      "type": "function"
    },
    {
      "inputs": [
        {
          "internalType": "uint256",
          "name": "",
          "type": "uint256"
        }
      ],
      "name": "candidatesIndexes",
      "outputs": [
        {
          "internalType": "uint32",
          "name": "",
          "type": "uint32"
        }
      ],
      "stateMutability": "view",
      "type": "function"
    },
    {
      "inputs": [],
      "name": "delayBlocksForWithdraw",
      "outputs": [
        {
          "internalType": "uint256",
          "name": "",
          "type": "uint256"
        }
      ],
      "stateMutability": "view",
      "type": "function"
    },
    {
      "inputs": [
        {
          "internalType": "bytes32",
          "name": "role",
          "type": "bytes32"
        }
      ],
      "name": "getRoleAdmin",
      "outputs": [
        {
          "internalType": "bytes32",
          "name": "",
          "type": "bytes32"
        }
      ],
      "stateMutability": "view",
      "type": "function"
    },
    {
      "inputs": [
        {
          "internalType": "bytes4",
          "name": "_selector",
          "type": "bytes4"
        }
      ],
      "name": "getSelectorImplementation2",
      "outputs": [
        {
          "internalType": "address",
          "name": "impl",
          "type": "address"
        }
      ],
      "stateMutability": "view",
      "type": "function"
    },
    {
      "inputs": [
        {
          "internalType": "bytes32",
          "name": "role",
          "type": "bytes32"
        },
        {
          "internalType": "address",
          "name": "account",
          "type": "address"
        }
      ],
      "name": "grantRole",
      "outputs": [],
      "stateMutability": "nonpayable",
      "type": "function"
    },
    {
      "inputs": [
        {
          "internalType": "bytes32",
          "name": "role",
          "type": "bytes32"
        },
        {
          "internalType": "address",
          "name": "account",
          "type": "address"
        }
      ],
      "name": "hasRole",
      "outputs": [
        {
          "internalType": "bool",
          "name": "",
          "type": "bool"
        }
      ],
      "stateMutability": "view",
      "type": "function"
    },
    {
      "inputs": [
        {
          "internalType": "uint32",
          "name": "",
          "type": "uint32"
        }
      ],
      "name": "holdings",
      "outputs": [
        {
          "internalType": "uint256",
          "name": "securityDeposit",
          "type": "uint256"
        },
        {
          "internalType": "uint256",
          "name": "seigs",
          "type": "uint256"
        }
      ],
      "stateMutability": "view",
      "type": "function"
    },
    {
      "inputs": [],
      "name": "implementation",
      "outputs": [
        {
          "internalType": "address",
          "name": "",
          "type": "address"
        }
      ],
      "stateMutability": "view",
      "type": "function"
    },
    {
      "inputs": [
        {
          "internalType": "uint256",
          "name": "_index",
          "type": "uint256"
        }
      ],
      "name": "implementation2",
      "outputs": [
        {
          "internalType": "address",
          "name": "",
          "type": "address"
        }
      ],
      "stateMutability": "view",
      "type": "function"
    },
    {
      "inputs": [],
      "name": "indexCandidates",
      "outputs": [
        {
          "internalType": "uint32",
          "name": "",
          "type": "uint32"
        }
      ],
      "stateMutability": "view",
      "type": "function"
    },
    {
      "inputs": [],
      "name": "indexSequencers",
      "outputs": [
        {
          "internalType": "uint32",
          "name": "",
          "type": "uint32"
        }
      ],
      "stateMutability": "view",
      "type": "function"
    },
    {
      "inputs": [
        {
          "internalType": "address",
          "name": "_ton",
          "type": "address"
        },
        {
          "internalType": "address",
          "name": "_seigManagerV2",
          "type": "address"
        },
        {
          "internalType": "address",
          "name": "_optimismSequencer",
          "type": "address"
        },
        {
          "internalType": "address",
          "name": "_candidate",
          "type": "address"
        },
        {
          "internalType": "uint256",
          "name": "_minimumDepositForSequencer",
          "type": "uint256"
        },
        {
          "internalType": "uint256",
          "name": "_minimumDepositForCandidate",
          "type": "uint256"
        },
        {
          "internalType": "uint32",
          "name": "_delayBlocksForWithdraw",
          "type": "uint32"
        }
      ],
      "name": "initialize",
      "outputs": [],
      "stateMutability": "nonpayable",
      "type": "function"
    },
    {
      "inputs": [
        {
          "internalType": "address",
          "name": "account",
          "type": "address"
        }
      ],
      "name": "isAdmin",
      "outputs": [
        {
          "internalType": "bool",
          "name": "",
          "type": "bool"
        }
      ],
      "stateMutability": "view",
      "type": "function"
    },
    {
      "inputs": [
        {
          "internalType": "address",
          "name": "account",
          "type": "address"
        }
      ],
      "name": "isProxyAdmin",
      "outputs": [
        {
          "internalType": "bool",
          "name": "",
          "type": "bool"
        }
      ],
      "stateMutability": "view",
      "type": "function"
    },
    {
      "inputs": [
        {
          "internalType": "bytes32",
          "name": "",
          "type": "bytes32"
        }
      ],
      "name": "layerKeys",
      "outputs": [
        {
          "internalType": "bool",
          "name": "",
          "type": "bool"
        }
      ],
      "stateMutability": "view",
      "type": "function"
    },
    {
      "inputs": [],
      "name": "maxLayer2Count",
      "outputs": [
        {
          "internalType": "uint256",
          "name": "",
          "type": "uint256"
        }
      ],
      "stateMutability": "view",
      "type": "function"
    },
    {
      "inputs": [],
      "name": "minimumDepositForCandidate",
      "outputs": [
        {
          "internalType": "uint256",
          "name": "",
          "type": "uint256"
        }
      ],
      "stateMutability": "view",
      "type": "function"
    },
    {
      "inputs": [],
      "name": "minimumDepositForSequencer",
      "outputs": [
        {
          "internalType": "uint256",
          "name": "",
          "type": "uint256"
        }
      ],
      "stateMutability": "view",
      "type": "function"
    },
    {
      "inputs": [],
      "name": "optimismSequencer",
      "outputs": [
        {
          "internalType": "address",
          "name": "",
          "type": "address"
        }
      ],
      "stateMutability": "view",
      "type": "function"
    },
    {
      "inputs": [
        {
          "internalType": "uint256",
          "name": "",
          "type": "uint256"
        }
      ],
      "name": "optimismSequencerIndexes",
      "outputs": [
        {
          "internalType": "uint32",
          "name": "",
          "type": "uint32"
        }
      ],
      "stateMutability": "view",
      "type": "function"
    },
    {
      "inputs": [
        {
          "internalType": "uint32",
          "name": "",
          "type": "uint32"
        }
      ],
      "name": "optimismSequencerNames",
      "outputs": [
        {
          "internalType": "bytes32",
          "name": "",
          "type": "bytes32"
        }
      ],
      "stateMutability": "view",
      "type": "function"
    },
    {
      "inputs": [],
      "name": "pauseProxy",
      "outputs": [
        {
          "internalType": "bool",
          "name": "",
          "type": "bool"
        }
      ],
      "stateMutability": "view",
      "type": "function"
    },
    {
      "inputs": [
        {
          "internalType": "uint256",
          "name": "",
          "type": "uint256"
        }
      ],
      "name": "proxyImplementation",
      "outputs": [
        {
          "internalType": "address",
          "name": "",
          "type": "address"
        }
      ],
      "stateMutability": "view",
      "type": "function"
    },
    {
      "inputs": [],
      "name": "ratioSecurityDepositOfTvl",
      "outputs": [
        {
          "internalType": "uint16",
          "name": "",
          "type": "uint16"
        }
      ],
      "stateMutability": "view",
      "type": "function"
    },
    {
      "inputs": [],
      "name": "removeAdmin",
      "outputs": [],
      "stateMutability": "nonpayable",
      "type": "function"
    },
    {
      "inputs": [],
      "name": "removeProxyAdmin",
      "outputs": [],
      "stateMutability": "nonpayable",
      "type": "function"
    },
    {
      "inputs": [
        {
          "internalType": "bytes32",
          "name": "role",
          "type": "bytes32"
        },
        {
          "internalType": "address",
          "name": "account",
          "type": "address"
        }
      ],
      "name": "renounceRole",
      "outputs": [],
      "stateMutability": "nonpayable",
      "type": "function"
    },
    {
      "inputs": [
        {
          "internalType": "bytes32",
          "name": "role",
          "type": "bytes32"
        },
        {
          "internalType": "address",
          "name": "account",
          "type": "address"
        }
      ],
      "name": "revokeRole",
      "outputs": [],
      "stateMutability": "nonpayable",
      "type": "function"
    },
    {
      "inputs": [],
      "name": "seigManagerV2",
      "outputs": [
        {
          "internalType": "address",
          "name": "",
          "type": "address"
        }
      ],
      "stateMutability": "view",
      "type": "function"
    },
    {
      "inputs": [
        {
          "internalType": "bytes4",
          "name": "",
          "type": "bytes4"
        }
      ],
      "name": "selectorImplementation",
      "outputs": [
        {
          "internalType": "address",
          "name": "",
          "type": "address"
        }
      ],
      "stateMutability": "view",
      "type": "function"
    },
    {
      "inputs": [
        {
          "internalType": "address",
          "name": "newImplementation",
          "type": "address"
        },
        {
          "internalType": "bool",
          "name": "_alive",
          "type": "bool"
        }
      ],
      "name": "setAliveImplementation2",
      "outputs": [],
      "stateMutability": "nonpayable",
      "type": "function"
    },
    {
      "inputs": [
        {
          "internalType": "address",
          "name": "newImplementation",
          "type": "address"
        },
        {
          "internalType": "uint256",
          "name": "_index",
          "type": "uint256"
        },
        {
          "internalType": "bool",
          "name": "_alive",
          "type": "bool"
        }
      ],
      "name": "setImplementation2",
      "outputs": [],
      "stateMutability": "nonpayable",
      "type": "function"
    },
    {
      "inputs": [
        {
          "internalType": "bool",
          "name": "_pause",
          "type": "bool"
        }
      ],
      "name": "setProxyPause",
      "outputs": [],
      "stateMutability": "nonpayable",
      "type": "function"
    },
    {
      "inputs": [
        {
          "internalType": "bytes4[]",
          "name": "_selectors",
          "type": "bytes4[]"
        },
        {
          "internalType": "address",
          "name": "_imp",
          "type": "address"
        }
      ],
      "name": "setSelectorImplementations2",
      "outputs": [],
      "stateMutability": "nonpayable",
      "type": "function"
    },
    {
      "inputs": [
        {
          "internalType": "bytes4",
          "name": "interfaceId",
          "type": "bytes4"
        }
      ],
      "name": "supportsInterface",
      "outputs": [
        {
          "internalType": "bool",
          "name": "",
          "type": "bool"
        }
      ],
      "stateMutability": "view",
      "type": "function"
    },
    {
      "inputs": [],
      "name": "ton",
      "outputs": [
        {
          "internalType": "contract IERC20",
          "name": "",
          "type": "address"
        }
      ],
      "stateMutability": "view",
      "type": "function"
    },
    {
      "inputs": [],
      "name": "totalSecurityDeposit",
      "outputs": [
        {
          "internalType": "uint256",
          "name": "",
          "type": "uint256"
        }
      ],
      "stateMutability": "view",
      "type": "function"
    },
    {
      "inputs": [],
      "name": "totalSeigs",
      "outputs": [
        {
          "internalType": "uint256",
          "name": "",
          "type": "uint256"
        }
      ],
      "stateMutability": "view",
      "type": "function"
    },
    {
      "inputs": [
        {
          "internalType": "address",
          "name": "newAdmin",
          "type": "address"
        }
      ],
      "name": "transferAdmin",
      "outputs": [],
      "stateMutability": "nonpayable",
      "type": "function"
    },
    {
      "inputs": [
        {
          "internalType": "address",
          "name": "newAdmin",
          "type": "address"
        }
      ],
      "name": "transferProxyAdmin",
      "outputs": [],
      "stateMutability": "nonpayable",
      "type": "function"
    },
    {
      "inputs": [
        {
          "internalType": "address",
          "name": "impl",
          "type": "address"
        }
      ],
      "name": "upgradeTo",
      "outputs": [],
      "stateMutability": "nonpayable",
      "type": "function"
    },
    {
      "stateMutability": "payable",
      "type": "receive"
    }
  ],
  "bytecode": "0x60806040526016805460ff60501b19166a01000000000000000000001790553480156200002b57600080fd5b5062000047600080516020620020228339815191528062000075565b620000626000805160206200202283398151915233620000c0565b6200006f600033620000c0565b62000170565b600082815260208190526040808220600101805490849055905190918391839186917fbd79b86ffe0ab8e8776151514217cd7cacd52c909f66475c3af44e129f0b00ff9190a4505050565b620000cc8282620000d0565b5050565b6000828152602081815260408083206001600160a01b038516845290915290205460ff16620000cc576000828152602081815260408083206001600160a01b03851684529091529020805460ff191660011790556200012c3390565b6001600160a01b0316816001600160a01b0316837f2f8788117e7eff1d82e926ec794901d17c78024a50270940304540a733656f0d60405160405180910390a45050565b611ea280620001806000396000f3fe6080604052600436106102b85760003560e01c806375829def11610170578063b911135f116100cc578063d48ddf0411610085578063d48ddf04146108e4578063d539139314610911578063d547741f14610945578063da0dc13514610965578063e0ef2a7f14610985578063f47f2f1d146109b5578063f71bf33a146109d5576102bf565b8063b911135f14610818578063be72f2d31461084e578063c14241b914610863578063caef64e614610898578063cc48b947146108ae578063d37c6d69146108ce576102bf565b80638d4fdb40116101295780638d4fdb401461075b5780638d5d8e551461077b57806391d148541461079857806396f1557c146107b85780639a202d47146107d8578063a217fddf146107ed578063a4dd8b7d14610802576102bf565b806375829def1461069957806375b238fc146106b95780637cb00d25146106db5780637cd5f663146106fb5780638356ca4f1461071b5780638b8f4a651461073b576102bf565b80634a5df50f1161021f5780635c60da1b116101d85780635c60da1b146105ca5780635cc797d8146105df57806363a8fd89146105ff5780636c8381f814610619578063704802751461063957806373469a7a14610659578063734b264114610679576102bf565b80634a5df50f146104d157806350d2a276146104f157806354e945f51461053f578063550d01a31461055f57806357bc1df01461058f5780635b1f335f146105b4576102bf565b806336568abe1161027157806336568abe146103f95780633659cfe6146104195780633bd0c19f146104395780634339da1c1461046e57806346551ece1461048e578063499ad9da146104bb576102bf565b806301ffc9a7146102c957806304196138146102fe578063248a9ca31461034757806324d7806c14610385578063282c51f3146103a55780632f2ff15d146103d9576102bf565b366102bf57005b6102c76109eb565b005b3480156102d557600080fd5b506102e96102e436600461198e565b610a99565b60405190151581526020015b60405180910390f35b34801561030a57600080fd5b506103326103193660046119cc565b6013602052600090815260409020805460019091015482565b604080519283526020830191909152016102f5565b34801561035357600080fd5b506103776103623660046119e7565b60009081526020819052604090206001015490565b6040519081526020016102f5565b34801561039157600080fd5b506102e96103a0366004611a17565b610ad0565b3480156103b157600080fd5b506103777f9667e80708b6eeeb0053fa0cca44e028ff548e2a9f029edfeac87c118b08b7c881565b3480156103e557600080fd5b506102c76103f4366004611a32565b610aea565b34801561040557600080fd5b506102c7610414366004611a32565b610b0f565b34801561042557600080fd5b506102c7610434366004611a17565b610b8d565b34801561044557600080fd5b506104596104543660046119e7565b610ca1565b60405163ffffffff90911681526020016102f5565b34801561047a57600080fd5b506104596104893660046119e7565b610cdb565b34801561049a57600080fd5b506103776104a93660046119cc565b60116020526000908152604090205481565b3480156104c757600080fd5b50610377600f5481565b3480156104dd57600080fd5b506102c76104ec366004611a5e565b610ceb565b3480156104fd57600080fd5b5061052761050c36600461198e565b6004602052600090815260409020546001600160a01b031681565b6040516001600160a01b0390911681526020016102f5565b34801561054b57600080fd5b50600954610527906001600160a01b031681565b34801561056b57600080fd5b506102e961057a366004611a17565b60036020526000908152604090205460ff1681565b34801561059b57600080fd5b5060165461045990640100000000900463ffffffff1681565b3480156105c057600080fd5b50610377600e5481565b3480156105d657600080fd5b50610527610f57565b3480156105eb57600080fd5b506102c76105fa366004611af2565b610f68565b34801561060b57600080fd5b506001546102e99060ff1681565b34801561062557600080fd5b50600854610527906001600160a01b031681565b34801561064557600080fd5b506102c7610654366004611a17565b610fa6565b34801561066557600080fd5b50600654610527906001600160a01b031681565b34801561068557600080fd5b506102c7610694366004611b1c565b610fe6565b3480156106a557600080fd5b506102c76106b4366004611a17565b6111ae565b3480156106c557600080fd5b50610377600080516020611e4d83398151915281565b3480156106e757600080fd5b506102c76106f6366004611b94565b611260565b34801561070757600080fd5b506102c7610716366004611baf565b6112a7565b34801561072757600080fd5b506102c7610736366004611a17565b6112e6565b34801561074757600080fd5b506105276107563660046119e7565b61136f565b34801561076757600080fd5b5061052761077636600461198e565b61137a565b34801561078757600080fd5b506016546104599063ffffffff1681565b3480156107a457600080fd5b506102e96107b3366004611a32565b611476565b3480156107c457600080fd5b506102c76107d3366004611a17565b61149f565b3480156107e457600080fd5b506102c76114cf565b3480156107f957600080fd5b50610377600081565b34801561080e57600080fd5b50610377600b5481565b34801561082457600080fd5b506105276108333660046119e7565b6002602052600090815260409020546001600160a01b031681565b34801561085a57600080fd5b506102c761151d565b34801561086f57600080fd5b5060165461088590600160401b900461ffff1681565b60405161ffff90911681526020016102f5565b3480156108a457600080fd5b50610377600c5481565b3480156108ba57600080fd5b50600554610527906001600160a01b031681565b3480156108da57600080fd5b50610377600d5481565b3480156108f057600080fd5b506103776108ff3660046119cc565b60126020526000908152604090205481565b34801561091d57600080fd5b506103777ff0887ba65ee2024ea881d91b74c2450ef19e1557f03bed3ea9f16b037cbe2dc981565b34801561095157600080fd5b506102c7610960366004611a32565b61154d565b34801561097157600080fd5b50600754610527906001600160a01b031681565b34801561099157600080fd5b506102e96109a03660046119e7565b60146020526000908152604090205460ff1681565b3480156109c157600080fd5b506102e96109d0366004611a17565b611572565b3480156109e157600080fd5b50610377600a5481565b6000610a026000356001600160e01b03191661137a565b90506001600160a01b03811615801590610a1f575060015460ff16155b610a705760405162461bcd60e51b815260206004820152601d60248201527f50726f78793a20696d706c204f522070726f78792069732066616c736500000060448201526064015b60405180910390fd5b3660008037600080366000845af43d6000803e808015610a8f573d6000f35b3d6000fd5b505050565b60006001600160e01b03198216637965db0b60e01b1480610aca57506301ffc9a760e01b6001600160e01b03198316145b92915050565b6000610aca600080516020611e4d83398151915283611476565b600082815260208190526040902060010154610b058161157e565b610a948383611588565b6001600160a01b0381163314610b7f5760405162461bcd60e51b815260206004820152602f60248201527f416363657373436f6e74726f6c3a2063616e206f6e6c792072656e6f756e636560448201526e103937b632b9903337b91039b2b63360891b6064820152608401610a67565b610b89828261160c565b5050565b610b9633610ad0565b80610ba55750610ba533611572565b610bc15760405162461bcd60e51b8152600401610a6790611be2565b6001600160a01b038116610c075760405162461bcd60e51b815260206004820152600d60248201526c696e707574206973207a65726f60981b6044820152606401610a67565b806001600160a01b0316610c1b6000611671565b6001600160a01b031603610c5d5760405162461bcd60e51b815260206004820152600960248201526839b0b6b29030b2323960b91b6044820152606401610a67565b610c6a816000600161168c565b6040516001600160a01b038216907fbc7cd75a20ee27fd9adebab32041f755214dbc6bffa90cc0225b39da2e5c2d3b90600090a250565b60158181548110610cb157600080fd5b9060005260206000209060089182820401919006600402915054906101000a900463ffffffff1681565b60108181548110610cb157600080fd5b610cf433610ad0565b80610d035750610d0333611572565b610d1f5760405162461bcd60e51b8152600401610a6790611be2565b81610d6c5760405162461bcd60e51b815260206004820181905260248201527f50726f78793a205f73656c6563746f727327732073697a65206973207a65726f6044820152606401610a67565b6001600160a01b03811660009081526003602052604090205460ff16610dcf5760405162461bcd60e51b815260206004820152601860248201527750726f78793a205f696d70206973206e6f7420616c69766560401b6044820152606401610a67565b60005b82811015610f5157816001600160a01b031660046000868685818110610dfa57610dfa611c24565b9050602002016020810190610e0f919061198e565b6001600160e01b03191681526020810191909152604001600020546001600160a01b031603610e805760405162461bcd60e51b815260206004820152601d60248201527f4c69717569646974795661756c7450726f78793a2073616d6520696d700000006044820152606401610a67565b8160046000868685818110610e9757610e97611c24565b9050602002016020810190610eac919061198e565b6001600160e01b0319168152602081019190915260400160002080546001600160a01b0319166001600160a01b039283161790558216848483818110610ef457610ef4611c24565b9050602002016020810190610f09919061198e565b6001600160e01b0319167f14ebc1c32aa68f4d766e89f3e546cee249f7df25183fc10ab1568d91c2ce9b7b60405160405180910390a380610f4981611c50565b915050610dd2565b50505050565b6000610f636000611671565b905090565b610f7133610ad0565b80610f805750610f8033611572565b610f9c5760405162461bcd60e51b8152600401610a6790611be2565b610b898282611717565b610faf33611572565b610fcb5760405162461bcd60e51b8152600401610a6790611c69565b610fe3600080516020611e4d83398151915282610aea565b50565b610fef33610ad0565b80610ffe5750610ffe33611572565b61101a5760405162461bcd60e51b8152600401610a6790611be2565b866001600160a01b0381166110415760405162461bcd60e51b8152600401610a6790611cb1565b866001600160a01b0381166110685760405162461bcd60e51b8152600401610a6790611cb1565b866001600160a01b03811661108f5760405162461bcd60e51b8152600401610a6790611cb1565b866001600160a01b0381166110b65760405162461bcd60e51b8152600401610a6790611cb1565b8463ffffffff16806000036110f25760405162461bcd60e51b81526020600482015260026024820152615a3160f01b6044820152606401610a67565b6005546001600160a01b0316156111405760405162461bcd60e51b8152602060048201526012602482015271616c726561647920696e697469616c697a6560701b6044820152606401610a67565b5050600580546001600160a01b03199081166001600160a01b039c8d161782556006805482169b8d169b909b17909a55600780548b16998c16999099179098555050600880549097169490971693909317909455600a55600b9290925563ffffffff909116600c55600d5550565b6111b733610ad0565b806111c657506111c633611572565b6111e25760405162461bcd60e51b8152600401610a6790611be2565b6001600160a01b0381166112085760405162461bcd60e51b8152600401610a6790611ccd565b6001600160a01b03811633036112305760405162461bcd60e51b8152600401610a6790611cff565b611248600080516020611e4d83398151915282610aea565b610fe3600080516020611e4d83398151915233610b0f565b61126933610ad0565b80611278575061127833611572565b6112945760405162461bcd60e51b8152600401610a6790611be2565b6001805460ff1916911515919091179055565b6112b033610ad0565b806112bf57506112bf33611572565b6112db5760405162461bcd60e51b8152600401610a6790611be2565b610a9483838361168c565b6112ef33611572565b61130b5760405162461bcd60e51b8152600401610a6790611c69565b6001600160a01b0381166113315760405162461bcd60e51b8152600401610a6790611ccd565b6001600160a01b03811633036113595760405162461bcd60e51b8152600401610a6790611cff565b611364600082610aea565b610fe3600033610b0f565b6000610aca82611671565b6001600160e01b031981166000908152600460205260408120546001600160a01b03166113da5750506000805260026020527fac33ff75c19e70fe83507db0d683fd3465c996598dc972688b7ace676c89077b546001600160a01b031690565b6001600160e01b031982166000908152600460209081526040808320546001600160a01b03168352600390915290205460ff161561143857506001600160e01b0319166000908152600460205260409020546001600160a01b031690565b50506000805260026020527fac33ff75c19e70fe83507db0d683fd3465c996598dc972688b7ace676c89077b546001600160a01b031690565b919050565b6000918252602082815260408084206001600160a01b0393909316845291905290205460ff1690565b6114a833611572565b6114c45760405162461bcd60e51b8152600401610a6790611c69565b610fe3600082611776565b6114d833610ad0565b806114e757506114e733611572565b6115035760405162461bcd60e51b8152600401610a6790611be2565b61151b600080516020611e4d83398151915233610b0f565b565b61152633611572565b6115425760405162461bcd60e51b8152600401610a6790611c69565b61151b600033610b0f565b6000828152602081905260409020600101546115688161157e565b610a94838361160c565b6000610aca8183611476565b610fe38133611780565b6115928282611476565b610b89576000828152602081815260408083206001600160a01b03851684529091529020805460ff191660011790556115c83390565b6001600160a01b0316816001600160a01b0316837f2f8788117e7eff1d82e926ec794901d17c78024a50270940304540a733656f0d60405160405180910390a45050565b6116168282611476565b15610b89576000828152602081815260408083206001600160a01b0385168085529252808320805460ff1916905551339285917ff6391f5c32d9c69d2a47ea670b442974b53935d1edc7fd64eb21e047a839171b9190a45050565b6000908152600260205260409020546001600160a01b031690565b6001600160a01b0383163b6116e35760405162461bcd60e51b815260206004820152601b60248201527f50726f78793a206e6f7420636f6e7472616374206164647265737300000000006044820152606401610a67565b801561171157600082815260026020526040902080546001600160a01b0319166001600160a01b0385161790555b610a9483825b6001600160a01b038216600081815260036020908152604091829020805460ff191685151590811790915591519182527f72558d9bfba4210f9ef095c782589484151f6d90f7a81bb3cb9b33efc695d324910160405180910390a25050565b610b898282611588565b61178a8282611476565b610b8957611797816117d9565b6117a28360206117eb565b6040516020016117b3929190611d53565b60408051601f198184030181529082905262461bcd60e51b8252610a6791600401611dc2565b6060610aca6001600160a01b03831660145b606060006117fa836002611df5565b611805906002611e0c565b67ffffffffffffffff81111561181d5761181d611e1f565b6040519080825280601f01601f191660200182016040528015611847576020820181803683370190505b509050600360fc1b8160008151811061186257611862611c24565b60200101906001600160f81b031916908160001a905350600f60fb1b8160018151811061189157611891611c24565b60200101906001600160f81b031916908160001a90535060006118b5846002611df5565b6118c0906001611e0c565b90505b6001811115611938576f181899199a1a9b1b9c1cb0b131b232b360811b85600f16601081106118f4576118f4611c24565b1a60f81b82828151811061190a5761190a611c24565b60200101906001600160f81b031916908160001a90535060049490941c9361193181611e35565b90506118c3565b5083156119875760405162461bcd60e51b815260206004820181905260248201527f537472696e67733a20686578206c656e67746820696e73756666696369656e746044820152606401610a67565b9392505050565b6000602082840312156119a057600080fd5b81356001600160e01b03198116811461198757600080fd5b803563ffffffff8116811461147157600080fd5b6000602082840312156119de57600080fd5b611987826119b8565b6000602082840312156119f957600080fd5b5035919050565b80356001600160a01b038116811461147157600080fd5b600060208284031215611a2957600080fd5b61198782611a00565b60008060408385031215611a4557600080fd5b82359150611a5560208401611a00565b90509250929050565b600080600060408486031215611a7357600080fd5b833567ffffffffffffffff80821115611a8b57600080fd5b818601915086601f830112611a9f57600080fd5b813581811115611aae57600080fd5b8760208260051b8501011115611ac357600080fd5b602092830195509350611ad99186019050611a00565b90509250925092565b8035801515811461147157600080fd5b60008060408385031215611b0557600080fd5b611b0e83611a00565b9150611a5560208401611ae2565b600080600080600080600060e0888a031215611b3757600080fd5b611b4088611a00565b9650611b4e60208901611a00565b9550611b5c60408901611a00565b9450611b6a60608901611a00565b93506080880135925060a08801359150611b8660c089016119b8565b905092959891949750929550565b600060208284031215611ba657600080fd5b61198782611ae2565b600080600060608486031215611bc457600080fd5b611bcd84611a00565b925060208401359150611ad960408501611ae2565b60208082526022908201527f41636365737369626c653a2043616c6c6572206973206e6f7420616e2061646d60408201526134b760f11b606082015260800190565b634e487b7160e01b600052603260045260246000fd5b634e487b7160e01b600052601160045260246000fd5b600060018201611c6257611c62611c3a565b5060010190565b60208082526028908201527f41636365737369626c653a2043616c6c6572206973206e6f7420616e2070726f6040820152673c3c9030b236b4b760c11b606082015260800190565b6020808252600290820152612d1960f11b604082015260600190565b60208082526018908201527741636365737369626c653a207a65726f206164647265737360401b604082015260600190565b60208082526016908201527520b1b1b2b9b9b4b136329d1039b0b6b29030b236b4b760511b604082015260600190565b60005b83811015611d4a578181015183820152602001611d32565b50506000910152565b76020b1b1b2b9b9a1b7b73a3937b61d1030b1b1b7bab73a1604d1b815260008351611d85816017850160208801611d2f565b7001034b99036b4b9b9b4b733903937b6329607d1b6017918401918201528351611db6816028840160208801611d2f565b01602801949350505050565b6020815260008251806020840152611de1816040850160208701611d2f565b601f01601f19169190910160400192915050565b8082028115828204841417610aca57610aca611c3a565b80820180821115610aca57610aca611c3a565b634e487b7160e01b600052604160045260246000fd5b600081611e4457611e44611c3a565b50600019019056fedf8b4c520ffe197c5343c6f5aec59570151ef9a492f2c624fd45ddde6135ec42a2646970667358221220d36ccfc2ad842b5f02e88a8b40816c7a706b9a81e9e745439393b099d9b3311564736f6c63430008120033df8b4c520ffe197c5343c6f5aec59570151ef9a492f2c624fd45ddde6135ec42",
  "linkReferences": {},
  "deployedLinkReferences": {}
}