{
  "_format": "hh-sol-artifact-1",
  "contractName": "LibOperator",
  "sourceName": "contracts/libraries/LibOperator.sol",
  "abi": [
    {
      "inputs": [
        {
          "internalType": "address",
          "name": "addressManager",
          "type": "address"
        },
        {
          "internalType": "address",
          "name": "l1Messenger",
          "type": "address"
        },
        {
          "internalType": "address",
          "name": "l1Bridge",
          "type": "address"
        },
        {
          "internalType": "address",
          "name": "l2ton",
          "type": "address"
        }
      ],
      "name": "getKey",
      "outputs": [
        {
          "internalType": "bytes32",
          "name": "key_",
          "type": "bytes32"
        }
      ],
      "stateMutability": "pure",
      "type": "function"
    },
    {
      "inputs": [
        {
          "internalType": "address",
          "name": "operator",
          "type": "address"
        },
        {
          "internalType": "uint32",
          "name": "sequencerIndex",
          "type": "uint32"
        }
      ],
      "name": "getKey",
      "outputs": [
        {
          "internalType": "bytes32",
          "name": "key_",
          "type": "bytes32"
        }
      ],
      "stateMutability": "pure",
      "type": "function"
    },
    {
      "inputs": [
        {
          "internalType": "bytes",
          "name": "data",
          "type": "bytes"
        }
      ],
      "name": "parseKey",
      "outputs": [
        {
          "components": [
            {
              "internalType": "address",
              "name": "operator",
              "type": "address"
            },
            {
              "internalType": "uint32",
              "name": "sequencerIndex",
              "type": "uint32"
            },
            {
              "internalType": "uint16",
              "name": "commission",
              "type": "uint16"
            }
          ],
          "internalType": "struct LibOperator.Info",
          "name": "info",
          "type": "tuple"
        }
      ],
      "stateMutability": "pure",
      "type": "function"
    }
  ],
  "bytecode": "0x61058b61003a600b82828239805160001a60731461002d57634e487b7160e01b600052600060045260246000fd5b30600052607381538281f3fe730000000000000000000000000000000000000000301460806040526004361061004b5760003560e01c806361b2a1bc14610050578063cd13ec871461009d578063ef8d7d7c14610114575b600080fd5b61006361005e36600461037f565b610171565b6040805182516001600160a01b0316815260208084015163ffffffff16908201529181015161ffff16908201526060015b60405180910390f35b6101066100ab366004610447565b6040516001600160601b0319606086811b8216602084015285811b8216603484015284811b8216604884015283901b16605c820152600090607001604051602081830303815290604052805190602001209050949350505050565b604051908152602001610094565b61010661012236600461049b565b6040516001600160601b0319606084901b1660208201526001600160e01b031960e083901b16603482015260009060380160405160208183030381529060405280519060200120905092915050565b60408051606081018252600080825260208201819052918101919091526019825111156101e5576040805160608101909152806101af8460006101ea565b6001600160a01b031681526020016101c88460146102a9565b61ffff1681526020016101dc846018610309565b61ffff16905290505b919050565b6000816101f88160146104db565b10156102405760405162461bcd60e51b8152602060048201526012602482015271746f416464726573735f6f766572666c6f7760701b60448201526064015b60405180910390fd5b61024b8260146104db565b835110156102935760405162461bcd60e51b8152602060048201526015602482015274746f416464726573735f6f75744f66426f756e647360581b6044820152606401610237565b5081810160200151600160601b90045b92915050565b6000816102b78160046104db565b10156102d55760405162461bcd60e51b8152600401610237906104fc565b6102e08260046104db565b835110156103005760405162461bcd60e51b815260040161023790610527565b50016004015190565b6000816103178160026104db565b10156103355760405162461bcd60e51b8152600401610237906104fc565b6103408260026104db565b835110156103605760405162461bcd60e51b815260040161023790610527565b50016002015190565b634e487b7160e01b600052604160045260246000fd5b60006020828403121561039157600080fd5b813567ffffffffffffffff808211156103a957600080fd5b818401915084601f8301126103bd57600080fd5b8135818111156103cf576103cf610369565b604051601f8201601f19908116603f011681019083821181831017156103f7576103f7610369565b8160405282815287602084870101111561041057600080fd5b826020860160208301376000928101602001929092525095945050505050565b80356001600160a01b03811681146101e557600080fd5b6000806000806080858703121561045d57600080fd5b61046685610430565b935061047460208601610430565b925061048260408601610430565b915061049060608601610430565b905092959194509250565b600080604083850312156104ae57600080fd5b6104b783610430565b9150602083013563ffffffff811681146104d057600080fd5b809150509250929050565b808201808211156102a357634e487b7160e01b600052601160045260246000fd5b602080825260119082015270746f55696e7431365f6f766572666c6f7760781b604082015260600190565b602080825260149082015273746f55696e7431365f6f75744f66426f756e647360601b60408201526060019056fea264697066735822122097b02d90f21406fff9e3f6286d0782e91533d92078829932216ae19da0dbe68764736f6c63430008120033",
  "linkReferences": {},
  "deployedLinkReferences": {}
}