{"contracts/test/DAOCommitteeProxy.sol":{"DAOCommitteeProxy":{"abi":[{"inputs":[{"internalType":"address","name":"_ton","type":"address"},{"internalType":"address","name":"_impl","type":"address"},{"internalType":"address","name":"_seigManager","type":"address"},{"internalType":"address","name":"_layer2Registry","type":"address"},{"internalType":"address","name":"_agendaManager","type":"address"},{"internalType":"address","name":"_candidateFactory","type":"address"},{"internalType":"address","name":"_daoVault","type":"address"}],"stateMutability":"nonpayable","type":"constructor"},{"anonymous":false,"inputs":[{"indexed":true,"internalType":"bytes32","name":"role","type":"bytes32"},{"indexed":true,"internalType":"bytes32","name":"previousAdminRole","type":"bytes32"},{"indexed":true,"internalType":"bytes32","name":"newAdminRole","type":"bytes32"}],"name":"RoleAdminChanged","type":"event"},{"anonymous":false,"inputs":[{"indexed":true,"internalType":"bytes32","name":"role","type":"bytes32"},{"indexed":true,"internalType":"address","name":"account","type":"address"},{"indexed":true,"internalType":"address","name":"sender","type":"address"}],"name":"RoleGranted","type":"event"},{"anonymous":false,"inputs":[{"indexed":true,"internalType":"bytes32","name":"role","type":"bytes32"},{"indexed":true,"internalType":"address","name":"account","type":"address"},{"indexed":true,"internalType":"address","name":"sender","type":"address"}],"name":"RoleRevoked","type":"event"},{"anonymous":false,"inputs":[{"indexed":true,"internalType":"address","name":"implementation","type":"address"}],"name":"Upgraded","type":"event"},{"stateMutability":"nonpayable","type":"fallback"},{"inputs":[],"name":"DEFAULT_ADMIN_ROLE","outputs":[{"internalType":"bytes32","name":"","type":"bytes32"}],"stateMutability":"view","type":"function"},{"inputs":[],"name":"activityRewardPerSecond","outputs":[{"internalType":"uint256","name":"","type":"uint256"}],"stateMutability":"view","type":"function"},{"inputs":[],"name":"agendaManager","outputs":[{"internalType":"contract IDAOAgendaManager","name":"","type":"address"}],"stateMutability":"view","type":"function"},{"inputs":[{"internalType":"address","name":"_candidate","type":"address"}],"name":"candidateContract","outputs":[{"internalType":"address","name":"","type":"address"}],"stateMutability":"view","type":"function"},{"inputs":[],"name":"candidateFactory","outputs":[{"internalType":"contract ICandidateFactory","name":"","type":"address"}],"stateMutability":"view","type":"function"},{"inputs":[{"internalType":"address","name":"_candidate","type":"address"}],"name":"candidateInfos","outputs":[{"components":[{"internalType":"address","name":"candidateContract","type":"address"},{"internalType":"uint256","name":"indexMembers","type":"uint256"},{"internalType":"uint128","name":"memberJoinedTime","type":"uint128"},{"internalType":"uint128","name":"rewardPeriod","type":"uint128"},{"internalType":"uint128","name":"claimedTimestamp","type":"uint128"}],"internalType":"struct IStorageStateCommittee.CandidateInfo","name":"","type":"tuple"}],"stateMutability":"nonpayable","type":"function"},{"inputs":[{"internalType":"uint256","name":"","type":"uint256"}],"name":"candidates","outputs":[{"internalType":"address","name":"","type":"address"}],"stateMutability":"view","type":"function"},{"inputs":[],"name":"daoVault","outputs":[{"internalType":"contract IDAOVault","name":"","type":"address"}],"stateMutability":"view","type":"function"},{"inputs":[{"internalType":"bytes32","name":"role","type":"bytes32"}],"name":"getRoleAdmin","outputs":[{"internalType":"bytes32","name":"","type":"bytes32"}],"stateMutability":"view","type":"function"},{"inputs":[{"internalType":"bytes32","name":"role","type":"bytes32"},{"internalType":"address","name":"account","type":"address"}],"name":"grantRole","outputs":[],"stateMutability":"nonpayable","type":"function"},{"inputs":[{"internalType":"bytes32","name":"role","type":"bytes32"},{"internalType":"address","name":"account","type":"address"}],"name":"hasRole","outputs":[{"internalType":"bool","name":"","type":"bool"}],"stateMutability":"view","type":"function"},{"inputs":[],"name":"implementation","outputs":[{"internalType":"address","name":"","type":"address"}],"stateMutability":"view","type":"function"},{"inputs":[{"internalType":"address","name":"_candidate","type":"address"}],"name":"isMember","outputs":[{"internalType":"bool","name":"","type":"bool"}],"stateMutability":"view","type":"function"},{"inputs":[],"name":"layer2Registry","outputs":[{"internalType":"contract ILayer2Registry","name":"","type":"address"}],"stateMutability":"view","type":"function"},{"inputs":[],"name":"maxMember","outputs":[{"internalType":"uint256","name":"","type":"uint256"}],"stateMutability":"view","type":"function"},{"inputs":[{"internalType":"uint256","name":"","type":"uint256"}],"name":"members","outputs":[{"internalType":"address","name":"","type":"address"}],"stateMutability":"view","type":"function"},{"inputs":[],"name":"pauseProxy","outputs":[{"internalType":"bool","name":"","type":"bool"}],"stateMutability":"view","type":"function"},{"inputs":[],"name":"quorum","outputs":[{"internalType":"uint256","name":"","type":"uint256"}],"stateMutability":"view","type":"function"},{"inputs":[{"internalType":"bytes32","name":"role","type":"bytes32"},{"internalType":"address","name":"account","type":"address"}],"name":"renounceRole","outputs":[],"stateMutability":"nonpayable","type":"function"},{"inputs":[{"internalType":"bytes32","name":"role","type":"bytes32"},{"internalType":"address","name":"account","type":"address"}],"name":"revokeRole","outputs":[],"stateMutability":"nonpayable","type":"function"},{"inputs":[],"name":"seigManager","outputs":[{"internalType":"contract ISeigManager","name":"","type":"address"}],"stateMutability":"view","type":"function"},{"inputs":[{"internalType":"bool","name":"_pause","type":"bool"}],"name":"setProxyPause","outputs":[],"stateMutability":"nonpayable","type":"function"},{"inputs":[{"internalType":"bytes4","name":"interfaceId","type":"bytes4"}],"name":"supportsInterface","outputs":[{"internalType":"bool","name":"","type":"bool"}],"stateMutability":"view","type":"function"},{"inputs":[],"name":"ton","outputs":[{"internalType":"address","name":"","type":"address"}],"stateMutability":"view","type":"function"},{"inputs":[{"internalType":"address","name":"impl","type":"address"}],"name":"upgradeTo","outputs":[],"stateMutability":"nonpayable","type":"function"}],"devdoc":{"events":{"RoleAdminChanged(bytes32,bytes32,bytes32)":{"details":"Emitted when `newAdminRole` is set as ``role``'s admin role, replacing `previousAdminRole` `DEFAULT_ADMIN_ROLE` is the starting admin for all roles, despite {RoleAdminChanged} not being emitted signaling this. _Available since v3.1._"},"RoleGranted(bytes32,address,address)":{"details":"Emitted when `account` is granted `role`. `sender` is the account that originated the contract call, an admin role bearer except when using {AccessControl-_setupRole}."},"RoleRevoked(bytes32,address,address)":{"details":"Emitted when `account` is revoked `role`. `sender` is the account that originated the contract call:   - if using `revokeRole`, it is the admin role bearer   - if using `renounceRole`, it is the role bearer (i.e. `account`)"}},"kind":"dev","methods":{"getRoleAdmin(bytes32)":{"details":"Returns the admin role that controls `role`. See {grantRole} and {revokeRole}. To change a role's admin, use {_setRoleAdmin}."},"grantRole(bytes32,address)":{"details":"Grants `role` to `account`. If `account` had not been already granted `role`, emits a {RoleGranted} event. Requirements: - the caller must have ``role``'s admin role. May emit a {RoleGranted} event."},"hasRole(bytes32,address)":{"details":"Returns `true` if `account` has been granted `role`."},"renounceRole(bytes32,address)":{"details":"Revokes `role` from the calling account. Roles are often managed via {grantRole} and {revokeRole}: this function's purpose is to provide a mechanism for accounts to lose their privileges if they are compromised (such as when a trusted device is misplaced). If the calling account had been revoked `role`, emits a {RoleRevoked} event. Requirements: - the caller must be `account`. May emit a {RoleRevoked} event."},"revokeRole(bytes32,address)":{"details":"Revokes `role` from `account`. If `account` had been granted `role`, emits a {RoleRevoked} event. Requirements: - the caller must have ``role``'s admin role. May emit a {RoleRevoked} event."},"setProxyPause(bool)":{"params":{"_pause":"true:pause or false:resume"}},"supportsInterface(bytes4)":{"details":"See {IERC165-supportsInterface}."},"upgradeTo(address)":{"params":{"impl":"New implementation contract address"}}},"version":1},"evm":{"bytecode":{"linkReferences":{},"object":"60806040523480156200001157600080fd5b50604051620011aa380380620011aa833981016040819052620000349162000328565b620000466301ffc9a760e01b620001d6565b6001600160a01b0387161515806200006657506001600160a01b03861615155b806200007a57506001600160a01b03851615155b806200008e57506001600160a01b03841615155b80620000a257506001600160a01b03831615155b80620000b657506001600160a01b03821615155b620001085760405162461bcd60e51b815260206004820181905260248201527f44414f436f6d6d697474656550726f78793a20696e707574206973207a65726f60448201526064015b60405180910390fd5b600080546001600160a01b03199081166001600160a01b038a811691909117909255600e8054821689841617905560058054821688841617905560048054821687841617905560028054821686841617815560038054831686851617905560018054909216928416929092179055600a55660b43fd20b59a0a600b55620001af7f4273ca16e32229270629d776700e1c07e4a1080fc9b26d21f6608efc2b31dc4d620001d6565b620001bc60003362000257565b620001c960003062000257565b50505050505050620003bd565b6001600160e01b03198082169003620002325760405162461bcd60e51b815260206004820152601c60248201527f4552433136353a20696e76616c696420696e74657266616365206964000000006044820152606401620000ff565b6001600160e01b0319166000908152600d60205260409020805460ff19166001179055565b62000263828262000267565b5050565b6000828152600c602090815260408083206001600160a01b038516845290915290205460ff1662000263576000828152600c602090815260408083206001600160a01b03851684529091529020805460ff19166001179055620002c73390565b6001600160a01b0316816001600160a01b0316837f2f8788117e7eff1d82e926ec794901d17c78024a50270940304540a733656f0d60405160405180910390a45050565b80516001600160a01b03811681146200032357600080fd5b919050565b600080600080600080600060e0888a0312156200034457600080fd5b6200034f886200030b565b96506200035f602089016200030b565b95506200036f604089016200030b565b94506200037f606089016200030b565b93506200038f608089016200030b565b92506200039f60a089016200030b565b9150620003af60c089016200030b565b905092959891949750929550565b610ddd80620003cd6000396000f3fe608060405234801561001057600080fd5b50600436106101635760003560e01c80635daf08ca116100ce57806391d148541161008757806391d14854146103e6578063a217fddf146103f9578063a230c52414610401578063b5dd115814610438578063cc48b9471461044b578063cf2a239c1461045e578063d547741f1461047157610163565b80635daf08ca1461036457806363a8fd8914610377578063651d08cd1461038b5780636fb7f558146103b75780637cb00d25146103ca5780637f331636146103dd57610163565b80632f2ff15d116101205780632f2ff15d146102f45780633477ee2e1461030757806336568abe1461031a5780633659cfe61461032d5780635903bd6c146103405780635c60da1b1461035357610163565b806301ffc9a71461016d57806303e3c9ac146101955780631703a018146101ac578063248a9ca3146101b557806327fd92fd146101d85780632e011c1e14610203575b61016b610484565b005b61018061017b366004610b49565b610550565b60405190151581526020015b60405180910390f35b61019e60085481565b60405190815260200161018c565b61019e600a5481565b61019e6101c3366004610b73565b6000908152600c602052604090206001015490565b6002546101eb906001600160a01b031681565b6040516001600160a01b03909116815260200161018c565b61029f610211366004610ba8565b6040805160a0808201835260008083526020808401829052838501829052606080850183905260809485018390526001600160a01b0396871683526009825291859020855193840186528054909616835260018601549083015260028501546001600160801b0380821695840195909552600160801b90048416908201526003909301549091169082015290565b6040805182516001600160a01b0316815260208084015190820152828201516001600160801b03908116928201929092526060808401518316908201526080928301519091169181019190915260a00161018c565b61016b610302366004610bc3565b610587565b6101eb610315366004610b73565b6105ac565b61016b610328366004610bc3565b6105d6565b61016b61033b366004610ba8565b610654565b6001546101eb906001600160a01b031681565b600e546001600160a01b03166101eb565b6101eb610372366004610b73565b61079c565b600e5461018090600160a01b900460ff1681565b6101eb610399366004610ba8565b6001600160a01b039081166000908152600960205260409020541690565b6005546101eb906001600160a01b031681565b61016b6103d8366004610bef565b6107ac565b61019e600b5481565b6101806103f4366004610bc3565b6107f1565b61019e600081565b61018061040f366004610ba8565b6001600160a01b03166000908152600960205260409020600201546001600160801b0316151590565b6003546101eb906001600160a01b031681565b6000546101eb906001600160a01b031681565b6004546101eb906001600160a01b031681565b61016b61047f366004610bc3565b61081c565b6000610498600e546001600160a01b031690565b90506001600160a01b038116158015906104bc5750600e54600160a01b900460ff16155b6105275760405162461bcd60e51b815260206004820152603160248201527f44414f436f6d6d697474656550726f78793a20696d706c206973207a65726f206044820152704f522070726f78792069732066616c736560781b60648201526084015b60405180910390fd5b3660008037600080366000845af43d6000803e808015610546573d6000f35b3d6000fd5b505050565b60006001600160e01b03198216637965db0b60e01b148061058157506301ffc9a760e01b6001600160e01b03198316145b92915050565b6000828152600c60205260409020600101546105a281610841565b61054b838361084e565b600681815481106105bc57600080fd5b6000918252602090912001546001600160a01b0316905081565b6001600160a01b03811633146106465760405162461bcd60e51b815260206004820152602f60248201527f416363657373436f6e74726f6c3a2063616e206f6e6c792072656e6f756e636560448201526e103937b632b9903337b91039b2b63360891b606482015260840161051e565b61065082826108d4565b5050565b61065f6000336107f1565b61067b5760405162461bcd60e51b815260040161051e90610c11565b600e546001600160a01b03166106d35760405162461bcd60e51b815260206004820181905260248201527f44414f436f6d6d697474656550726f78793a20696e707574206973207a65726f604482015260640161051e565b600e546001600160a01b038083169116036107525760405162461bcd60e51b815260206004820152603960248201527f44414f436f6d6d697474656550726f78793a2054686520696e70757420616464604482015278726573732069732073616d652061732074686520737461746560381b606482015260840161051e565b600e80546001600160a01b0319166001600160a01b0383169081179091556040517fbc7cd75a20ee27fd9adebab32041f755214dbc6bffa90cc0225b39da2e5c2d3b90600090a250565b600781815481106105bc57600080fd5b6107b76000336107f1565b6107d35760405162461bcd60e51b815260040161051e90610c11565b600e8054911515600160a01b0260ff60a01b19909216919091179055565b6000918252600c602090815260408084206001600160a01b0393909316845291905290205460ff1690565b6000828152600c602052604090206001015461083781610841565b61054b83836108d4565b61084b813361093b565b50565b61085882826107f1565b610650576000828152600c602090815260408083206001600160a01b03851684529091529020805460ff191660011790556108903390565b6001600160a01b0316816001600160a01b0316837f2f8788117e7eff1d82e926ec794901d17c78024a50270940304540a733656f0d60405160405180910390a45050565b6108de82826107f1565b15610650576000828152600c602090815260408083206001600160a01b0385168085529252808320805460ff1916905551339285917ff6391f5c32d9c69d2a47ea670b442974b53935d1edc7fd64eb21e047a839171b9190a45050565b61094582826107f1565b6106505761095281610994565b61095d8360206109a6565b60405160200161096e929190610c82565b60408051601f198184030181529082905262461bcd60e51b825261051e91600401610cf1565b60606105816001600160a01b03831660145b606060006109b5836002610d3a565b6109c0906002610d51565b67ffffffffffffffff8111156109d8576109d8610d64565b6040519080825280601f01601f191660200182016040528015610a02576020820181803683370190505b509050600360fc1b81600081518110610a1d57610a1d610d7a565b60200101906001600160f81b031916908160001a905350600f60fb1b81600181518110610a4c57610a4c610d7a565b60200101906001600160f81b031916908160001a9053506000610a70846002610d3a565b610a7b906001610d51565b90505b6001811115610af3576f181899199a1a9b1b9c1cb0b131b232b360811b85600f1660108110610aaf57610aaf610d7a565b1a60f81b828281518110610ac557610ac5610d7a565b60200101906001600160f81b031916908160001a90535060049490941c93610aec81610d90565b9050610a7e565b508315610b425760405162461bcd60e51b815260206004820181905260248201527f537472696e67733a20686578206c656e67746820696e73756666696369656e74604482015260640161051e565b9392505050565b600060208284031215610b5b57600080fd5b81356001600160e01b031981168114610b4257600080fd5b600060208284031215610b8557600080fd5b5035919050565b80356001600160a01b0381168114610ba357600080fd5b919050565b600060208284031215610bba57600080fd5b610b4282610b8c565b60008060408385031215610bd657600080fd5b82359150610be660208401610b8c565b90509250929050565b600060208284031215610c0157600080fd5b81358015158114610b4257600080fd5b6020808252602d908201527f44414f436f6d6d697474656550726f78793a206d73672e73656e64657220697360408201526c103737ba1030b71030b236b4b760991b606082015260800190565b60005b83811015610c79578181015183820152602001610c61565b50506000910152565b76020b1b1b2b9b9a1b7b73a3937b61d1030b1b1b7bab73a1604d1b815260008351610cb4816017850160208801610c5e565b7001034b99036b4b9b9b4b733903937b6329607d1b6017918401918201528351610ce5816028840160208801610c5e565b01602801949350505050565b6020815260008251806020840152610d10816040850160208701610c5e565b601f01601f19169190910160400192915050565b634e487b7160e01b600052601160045260246000fd5b808202811582820484141761058157610581610d24565b8082018082111561058157610581610d24565b634e487b7160e01b600052604160045260246000fd5b634e487b7160e01b600052603260045260246000fd5b600081610d9f57610d9f610d24565b50600019019056fea264697066735822122040cdc7e2cce6f60b2d522c0b9ed3ee65054ea9eed973e0225e32bcfe17e0a0af64736f6c63430008120033","opcodes":"PUSH1 0x80 PUSH1 0x40 MSTORE CALLVALUE DUP1 ISZERO PUSH3 0x11 JUMPI PUSH1 0x0 DUP1 REVERT JUMPDEST POP PUSH1 0x40 MLOAD PUSH3 0x11AA CODESIZE SUB DUP1 PUSH3 0x11AA DUP4 CODECOPY DUP2 ADD PUSH1 0x40 DUP2 SWAP1 MSTORE PUSH3 0x34 SWAP2 PUSH3 0x328 JUMP JUMPDEST PUSH3 0x46 PUSH4 0x1FFC9A7 PUSH1 0xE0 SHL PUSH3 0x1D6 JUMP JUMPDEST PUSH1 0x1 PUSH1 0x1 PUSH1 0xA0 SHL SUB DUP8 AND ISZERO ISZERO DUP1 PUSH3 0x66 JUMPI POP PUSH1 0x1 PUSH1 0x1 PUSH1 0xA0 SHL SUB DUP7 AND ISZERO ISZERO JUMPDEST DUP1 PUSH3 0x7A JUMPI POP PUSH1 0x1 PUSH1 0x1 PUSH1 0xA0 SHL SUB DUP6 AND ISZERO ISZERO JUMPDEST DUP1 PUSH3 0x8E JUMPI POP PUSH1 0x1 PUSH1 0x1 PUSH1 0xA0 SHL SUB DUP5 AND ISZERO ISZERO JUMPDEST DUP1 PUSH3 0xA2 JUMPI POP PUSH1 0x1 PUSH1 0x1 PUSH1 0xA0 SHL SUB DUP4 AND ISZERO ISZERO JUMPDEST DUP1 PUSH3 0xB6 JUMPI POP PUSH1 0x1 PUSH1 0x1 PUSH1 0xA0 SHL SUB DUP3 AND ISZERO ISZERO JUMPDEST PUSH3 0x108 JUMPI PUSH1 0x40 MLOAD PUSH3 0x461BCD PUSH1 0xE5 SHL DUP2 MSTORE PUSH1 0x20 PUSH1 0x4 DUP3 ADD DUP2 SWAP1 MSTORE PUSH1 0x24 DUP3 ADD MSTORE PUSH32 0x44414F436F6D6D697474656550726F78793A20696E707574206973207A65726F PUSH1 0x44 DUP3 ADD MSTORE PUSH1 0x64 ADD JUMPDEST PUSH1 0x40 MLOAD DUP1 SWAP2 SUB SWAP1 REVERT JUMPDEST PUSH1 0x0 DUP1 SLOAD PUSH1 0x1 PUSH1 0x1 PUSH1 0xA0 SHL SUB NOT SWAP1 DUP2 AND PUSH1 0x1 PUSH1 0x1 PUSH1 0xA0 SHL SUB DUP11 DUP2 AND SWAP2 SWAP1 SWAP2 OR SWAP1 SWAP3 SSTORE PUSH1 0xE DUP1 SLOAD DUP3 AND DUP10 DUP5 AND OR SWAP1 SSTORE PUSH1 0x5 DUP1 SLOAD DUP3 AND DUP9 DUP5 AND OR SWAP1 SSTORE PUSH1 0x4 DUP1 SLOAD DUP3 AND DUP8 DUP5 AND OR SWAP1 SSTORE PUSH1 0x2 DUP1 SLOAD DUP3 AND DUP7 DUP5 AND OR DUP2 SSTORE PUSH1 0x3 DUP1 SLOAD DUP4 AND DUP7 DUP6 AND OR SWAP1 SSTORE PUSH1 0x1 DUP1 SLOAD SWAP1 SWAP3 AND SWAP3 DUP5 AND SWAP3 SWAP1 SWAP3 OR SWAP1 SSTORE PUSH1 0xA SSTORE PUSH7 0xB43FD20B59A0A PUSH1 0xB SSTORE PUSH3 0x1AF PUSH32 0x4273CA16E32229270629D776700E1C07E4A1080FC9B26D21F6608EFC2B31DC4D PUSH3 0x1D6 JUMP JUMPDEST PUSH3 0x1BC PUSH1 0x0 CALLER PUSH3 0x257 JUMP JUMPDEST PUSH3 0x1C9 PUSH1 0x0 ADDRESS PUSH3 0x257 JUMP JUMPDEST POP POP POP POP POP POP POP PUSH3 0x3BD JUMP JUMPDEST PUSH1 0x1 PUSH1 0x1 PUSH1 0xE0 SHL SUB NOT DUP1 DUP3 AND SWAP1 SUB PUSH3 0x232 JUMPI PUSH1 0x40 MLOAD PUSH3 0x461BCD PUSH1 0xE5 SHL DUP2 MSTORE PUSH1 0x20 PUSH1 0x4 DUP3 ADD MSTORE PUSH1 0x1C PUSH1 0x24 DUP3 ADD MSTORE PUSH32 0x4552433136353A20696E76616C696420696E7465726661636520696400000000 PUSH1 0x44 DUP3 ADD MSTORE PUSH1 0x64 ADD PUSH3 0xFF JUMP JUMPDEST PUSH1 0x1 PUSH1 0x1 PUSH1 0xE0 SHL SUB NOT AND PUSH1 0x0 SWAP1 DUP2 MSTORE PUSH1 0xD PUSH1 0x20 MSTORE PUSH1 0x40 SWAP1 KECCAK256 DUP1 SLOAD PUSH1 0xFF NOT AND PUSH1 0x1 OR SWAP1 SSTORE JUMP JUMPDEST PUSH3 0x263 DUP3 DUP3 PUSH3 0x267 JUMP JUMPDEST POP POP JUMP JUMPDEST PUSH1 0x0 DUP3 DUP2 MSTORE PUSH1 0xC PUSH1 0x20 SWAP1 DUP2 MSTORE PUSH1 0x40 DUP1 DUP4 KECCAK256 PUSH1 0x1 PUSH1 0x1 PUSH1 0xA0 SHL SUB DUP6 AND DUP5 MSTORE SWAP1 SWAP2 MSTORE SWAP1 KECCAK256 SLOAD PUSH1 0xFF AND PUSH3 0x263 JUMPI PUSH1 0x0 DUP3 DUP2 MSTORE PUSH1 0xC PUSH1 0x20 SWAP1 DUP2 MSTORE PUSH1 0x40 DUP1 DUP4 KECCAK256 PUSH1 0x1 PUSH1 0x1 PUSH1 0xA0 SHL SUB DUP6 AND DUP5 MSTORE SWAP1 SWAP2 MSTORE SWAP1 KECCAK256 DUP1 SLOAD PUSH1 0xFF NOT AND PUSH1 0x1 OR SWAP1 SSTORE PUSH3 0x2C7 CALLER SWAP1 JUMP JUMPDEST PUSH1 0x1 PUSH1 0x1 PUSH1 0xA0 SHL SUB AND DUP2 PUSH1 0x1 PUSH1 0x1 PUSH1 0xA0 SHL SUB AND DUP4 PUSH32 0x2F8788117E7EFF1D82E926EC794901D17C78024A50270940304540A733656F0D PUSH1 0x40 MLOAD PUSH1 0x40 MLOAD DUP1 SWAP2 SUB SWAP1 LOG4 POP POP JUMP JUMPDEST DUP1 MLOAD PUSH1 0x1 PUSH1 0x1 PUSH1 0xA0 SHL SUB DUP2 AND DUP2 EQ PUSH3 0x323 JUMPI PUSH1 0x0 DUP1 REVERT JUMPDEST SWAP2 SWAP1 POP JUMP JUMPDEST PUSH1 0x0 DUP1 PUSH1 0x0 DUP1 PUSH1 0x0 DUP1 PUSH1 0x0 PUSH1 0xE0 DUP9 DUP11 SUB SLT ISZERO PUSH3 0x344 JUMPI PUSH1 0x0 DUP1 REVERT JUMPDEST PUSH3 0x34F DUP9 PUSH3 0x30B JUMP JUMPDEST SWAP7 POP PUSH3 0x35F PUSH1 0x20 DUP10 ADD PUSH3 0x30B JUMP JUMPDEST SWAP6 POP PUSH3 0x36F PUSH1 0x40 DUP10 ADD PUSH3 0x30B JUMP JUMPDEST SWAP5 POP PUSH3 0x37F PUSH1 0x60 DUP10 ADD PUSH3 0x30B JUMP JUMPDEST SWAP4 POP PUSH3 0x38F PUSH1 0x80 DUP10 ADD PUSH3 0x30B JUMP JUMPDEST SWAP3 POP PUSH3 0x39F PUSH1 0xA0 DUP10 ADD PUSH3 0x30B JUMP JUMPDEST SWAP2 POP PUSH3 0x3AF PUSH1 0xC0 DUP10 ADD PUSH3 0x30B JUMP JUMPDEST SWAP1 POP SWAP3 SWAP6 SWAP9 SWAP2 SWAP5 SWAP8 POP SWAP3 SWAP6 POP JUMP JUMPDEST PUSH2 0xDDD DUP1 PUSH3 0x3CD PUSH1 0x0 CODECOPY PUSH1 0x0 RETURN INVALID PUSH1 0x80 PUSH1 0x40 MSTORE CALLVALUE DUP1 ISZERO PUSH2 0x10 JUMPI PUSH1 0x0 DUP1 REVERT JUMPDEST POP PUSH1 0x4 CALLDATASIZE LT PUSH2 0x163 JUMPI PUSH1 0x0 CALLDATALOAD PUSH1 0xE0 SHR DUP1 PUSH4 0x5DAF08CA GT PUSH2 0xCE JUMPI DUP1 PUSH4 0x91D14854 GT PUSH2 0x87 JUMPI DUP1 PUSH4 0x91D14854 EQ PUSH2 0x3E6 JUMPI DUP1 PUSH4 0xA217FDDF EQ PUSH2 0x3F9 JUMPI DUP1 PUSH4 0xA230C524 EQ PUSH2 0x401 JUMPI DUP1 PUSH4 0xB5DD1158 EQ PUSH2 0x438 JUMPI DUP1 PUSH4 0xCC48B947 EQ PUSH2 0x44B JUMPI DUP1 PUSH4 0xCF2A239C EQ PUSH2 0x45E JUMPI DUP1 PUSH4 0xD547741F EQ PUSH2 0x471 JUMPI PUSH2 0x163 JUMP JUMPDEST DUP1 PUSH4 0x5DAF08CA EQ PUSH2 0x364 JUMPI DUP1 PUSH4 0x63A8FD89 EQ PUSH2 0x377 JUMPI DUP1 PUSH4 0x651D08CD EQ PUSH2 0x38B JUMPI DUP1 PUSH4 0x6FB7F558 EQ PUSH2 0x3B7 JUMPI DUP1 PUSH4 0x7CB00D25 EQ PUSH2 0x3CA JUMPI DUP1 PUSH4 0x7F331636 EQ PUSH2 0x3DD JUMPI PUSH2 0x163 JUMP JUMPDEST DUP1 PUSH4 0x2F2FF15D GT PUSH2 0x120 JUMPI DUP1 PUSH4 0x2F2FF15D EQ PUSH2 0x2F4 JUMPI DUP1 PUSH4 0x3477EE2E EQ PUSH2 0x307 JUMPI DUP1 PUSH4 0x36568ABE EQ PUSH2 0x31A JUMPI DUP1 PUSH4 0x3659CFE6 EQ PUSH2 0x32D JUMPI DUP1 PUSH4 0x5903BD6C EQ PUSH2 0x340 JUMPI DUP1 PUSH4 0x5C60DA1B EQ PUSH2 0x353 JUMPI PUSH2 0x163 JUMP JUMPDEST DUP1 PUSH4 0x1FFC9A7 EQ PUSH2 0x16D JUMPI DUP1 PUSH4 0x3E3C9AC EQ PUSH2 0x195 JUMPI DUP1 PUSH4 0x1703A018 EQ PUSH2 0x1AC JUMPI DUP1 PUSH4 0x248A9CA3 EQ PUSH2 0x1B5 JUMPI DUP1 PUSH4 0x27FD92FD EQ PUSH2 0x1D8 JUMPI DUP1 PUSH4 0x2E011C1E EQ PUSH2 0x203 JUMPI JUMPDEST PUSH2 0x16B PUSH2 0x484 JUMP JUMPDEST STOP JUMPDEST PUSH2 0x180 PUSH2 0x17B CALLDATASIZE PUSH1 0x4 PUSH2 0xB49 JUMP JUMPDEST PUSH2 0x550 JUMP JUMPDEST PUSH1 0x40 MLOAD SWAP1 ISZERO ISZERO DUP2 MSTORE PUSH1 0x20 ADD JUMPDEST PUSH1 0x40 MLOAD DUP1 SWAP2 SUB SWAP1 RETURN JUMPDEST PUSH2 0x19E PUSH1 0x8 SLOAD DUP2 JUMP JUMPDEST PUSH1 0x40 MLOAD SWAP1 DUP2 MSTORE PUSH1 0x20 ADD PUSH2 0x18C JUMP JUMPDEST PUSH2 0x19E PUSH1 0xA SLOAD DUP2 JUMP JUMPDEST PUSH2 0x19E PUSH2 0x1C3 CALLDATASIZE PUSH1 0x4 PUSH2 0xB73 JUMP JUMPDEST PUSH1 0x0 SWAP1 DUP2 MSTORE PUSH1 0xC PUSH1 0x20 MSTORE PUSH1 0x40 SWAP1 KECCAK256 PUSH1 0x1 ADD SLOAD SWAP1 JUMP JUMPDEST PUSH1 0x2 SLOAD PUSH2 0x1EB SWAP1 PUSH1 0x1 PUSH1 0x1 PUSH1 0xA0 SHL SUB AND DUP2 JUMP JUMPDEST PUSH1 0x40 MLOAD PUSH1 0x1 PUSH1 0x1 PUSH1 0xA0 SHL SUB SWAP1 SWAP2 AND DUP2 MSTORE PUSH1 0x20 ADD PUSH2 0x18C JUMP JUMPDEST PUSH2 0x29F PUSH2 0x211 CALLDATASIZE PUSH1 0x4 PUSH2 0xBA8 JUMP JUMPDEST PUSH1 0x40 DUP1 MLOAD PUSH1 0xA0 DUP1 DUP3 ADD DUP4 MSTORE PUSH1 0x0 DUP1 DUP4 MSTORE PUSH1 0x20 DUP1 DUP5 ADD DUP3 SWAP1 MSTORE DUP4 DUP6 ADD DUP3 SWAP1 MSTORE PUSH1 0x60 DUP1 DUP6 ADD DUP4 SWAP1 MSTORE PUSH1 0x80 SWAP5 DUP6 ADD DUP4 SWAP1 MSTORE PUSH1 0x1 PUSH1 0x1 PUSH1 0xA0 SHL SUB SWAP7 DUP8 AND DUP4 MSTORE PUSH1 0x9 DUP3 MSTORE SWAP2 DUP6 SWAP1 KECCAK256 DUP6 MLOAD SWAP4 DUP5 ADD DUP7 MSTORE DUP1 SLOAD SWAP1 SWAP7 AND DUP4 MSTORE PUSH1 0x1 DUP7 ADD SLOAD SWAP1 DUP4 ADD MSTORE PUSH1 0x2 DUP6 ADD SLOAD PUSH1 0x1 PUSH1 0x1 PUSH1 0x80 SHL SUB DUP1 DUP3 AND SWAP6 DUP5 ADD SWAP6 SWAP1 SWAP6 MSTORE PUSH1 0x1 PUSH1 0x80 SHL SWAP1 DIV DUP5 AND SWAP1 DUP3 ADD MSTORE PUSH1 0x3 SWAP1 SWAP4 ADD SLOAD SWAP1 SWAP2 AND SWAP1 DUP3 ADD MSTORE SWAP1 JUMP JUMPDEST PUSH1 0x40 DUP1 MLOAD DUP3 MLOAD PUSH1 0x1 PUSH1 0x1 PUSH1 0xA0 SHL SUB AND DUP2 MSTORE PUSH1 0x20 DUP1 DUP5 ADD MLOAD SWAP1 DUP3 ADD MSTORE DUP3 DUP3 ADD MLOAD PUSH1 0x1 PUSH1 0x1 PUSH1 0x80 SHL SUB SWAP1 DUP2 AND SWAP3 DUP3 ADD SWAP3 SWAP1 SWAP3 MSTORE PUSH1 0x60 DUP1 DUP5 ADD MLOAD DUP4 AND SWAP1 DUP3 ADD MSTORE PUSH1 0x80 SWAP3 DUP4 ADD MLOAD SWAP1 SWAP2 AND SWAP2 DUP2 ADD SWAP2 SWAP1 SWAP2 MSTORE PUSH1 0xA0 ADD PUSH2 0x18C JUMP JUMPDEST PUSH2 0x16B PUSH2 0x302 CALLDATASIZE PUSH1 0x4 PUSH2 0xBC3 JUMP JUMPDEST PUSH2 0x587 JUMP JUMPDEST PUSH2 0x1EB PUSH2 0x315 CALLDATASIZE PUSH1 0x4 PUSH2 0xB73 JUMP JUMPDEST PUSH2 0x5AC JUMP JUMPDEST PUSH2 0x16B PUSH2 0x328 CALLDATASIZE PUSH1 0x4 PUSH2 0xBC3 JUMP JUMPDEST PUSH2 0x5D6 JUMP JUMPDEST PUSH2 0x16B PUSH2 0x33B CALLDATASIZE PUSH1 0x4 PUSH2 0xBA8 JUMP JUMPDEST PUSH2 0x654 JUMP JUMPDEST PUSH1 0x1 SLOAD PUSH2 0x1EB SWAP1 PUSH1 0x1 PUSH1 0x1 PUSH1 0xA0 SHL SUB AND DUP2 JUMP JUMPDEST PUSH1 0xE SLOAD PUSH1 0x1 PUSH1 0x1 PUSH1 0xA0 SHL SUB AND PUSH2 0x1EB JUMP JUMPDEST PUSH2 0x1EB PUSH2 0x372 CALLDATASIZE PUSH1 0x4 PUSH2 0xB73 JUMP JUMPDEST PUSH2 0x79C JUMP JUMPDEST PUSH1 0xE SLOAD PUSH2 0x180 SWAP1 PUSH1 0x1 PUSH1 0xA0 SHL SWAP1 DIV PUSH1 0xFF AND DUP2 JUMP JUMPDEST PUSH2 0x1EB PUSH2 0x399 CALLDATASIZE PUSH1 0x4 PUSH2 0xBA8 JUMP JUMPDEST PUSH1 0x1 PUSH1 0x1 PUSH1 0xA0 SHL SUB SWAP1 DUP2 AND PUSH1 0x0 SWAP1 DUP2 MSTORE PUSH1 0x9 PUSH1 0x20 MSTORE PUSH1 0x40 SWAP1 KECCAK256 SLOAD AND SWAP1 JUMP JUMPDEST PUSH1 0x5 SLOAD PUSH2 0x1EB SWAP1 PUSH1 0x1 PUSH1 0x1 PUSH1 0xA0 SHL SUB AND DUP2 JUMP JUMPDEST PUSH2 0x16B PUSH2 0x3D8 CALLDATASIZE PUSH1 0x4 PUSH2 0xBEF JUMP JUMPDEST PUSH2 0x7AC JUMP JUMPDEST PUSH2 0x19E PUSH1 0xB SLOAD DUP2 JUMP JUMPDEST PUSH2 0x180 PUSH2 0x3F4 CALLDATASIZE PUSH1 0x4 PUSH2 0xBC3 JUMP JUMPDEST PUSH2 0x7F1 JUMP JUMPDEST PUSH2 0x19E PUSH1 0x0 DUP2 JUMP JUMPDEST PUSH2 0x180 PUSH2 0x40F CALLDATASIZE PUSH1 0x4 PUSH2 0xBA8 JUMP JUMPDEST PUSH1 0x1 PUSH1 0x1 PUSH1 0xA0 SHL SUB AND PUSH1 0x0 SWAP1 DUP2 MSTORE PUSH1 0x9 PUSH1 0x20 MSTORE PUSH1 0x40 SWAP1 KECCAK256 PUSH1 0x2 ADD SLOAD PUSH1 0x1 PUSH1 0x1 PUSH1 0x80 SHL SUB AND ISZERO ISZERO SWAP1 JUMP JUMPDEST PUSH1 0x3 SLOAD PUSH2 0x1EB SWAP1 PUSH1 0x1 PUSH1 0x1 PUSH1 0xA0 SHL SUB AND DUP2 JUMP JUMPDEST PUSH1 0x0 SLOAD PUSH2 0x1EB SWAP1 PUSH1 0x1 PUSH1 0x1 PUSH1 0xA0 SHL SUB AND DUP2 JUMP JUMPDEST PUSH1 0x4 SLOAD PUSH2 0x1EB SWAP1 PUSH1 0x1 PUSH1 0x1 PUSH1 0xA0 SHL SUB AND DUP2 JUMP JUMPDEST PUSH2 0x16B PUSH2 0x47F CALLDATASIZE PUSH1 0x4 PUSH2 0xBC3 JUMP JUMPDEST PUSH2 0x81C JUMP JUMPDEST PUSH1 0x0 PUSH2 0x498 PUSH1 0xE SLOAD PUSH1 0x1 PUSH1 0x1 PUSH1 0xA0 SHL SUB AND SWAP1 JUMP JUMPDEST SWAP1 POP PUSH1 0x1 PUSH1 0x1 PUSH1 0xA0 SHL SUB DUP2 AND ISZERO DUP1 ISZERO SWAP1 PUSH2 0x4BC JUMPI POP PUSH1 0xE SLOAD PUSH1 0x1 PUSH1 0xA0 SHL SWAP1 DIV PUSH1 0xFF AND ISZERO JUMPDEST PUSH2 0x527 JUMPI PUSH1 0x40 MLOAD PUSH3 0x461BCD PUSH1 0xE5 SHL DUP2 MSTORE PUSH1 0x20 PUSH1 0x4 DUP3 ADD MSTORE PUSH1 0x31 PUSH1 0x24 DUP3 ADD MSTORE PUSH32 0x44414F436F6D6D697474656550726F78793A20696D706C206973207A65726F20 PUSH1 0x44 DUP3 ADD MSTORE PUSH17 0x4F522070726F78792069732066616C7365 PUSH1 0x78 SHL PUSH1 0x64 DUP3 ADD MSTORE PUSH1 0x84 ADD JUMPDEST PUSH1 0x40 MLOAD DUP1 SWAP2 SUB SWAP1 REVERT JUMPDEST CALLDATASIZE PUSH1 0x0 DUP1 CALLDATACOPY PUSH1 0x0 DUP1 CALLDATASIZE PUSH1 0x0 DUP5 GAS DELEGATECALL RETURNDATASIZE PUSH1 0x0 DUP1 RETURNDATACOPY DUP1 DUP1 ISZERO PUSH2 0x546 JUMPI RETURNDATASIZE PUSH1 0x0 RETURN JUMPDEST RETURNDATASIZE PUSH1 0x0 REVERT JUMPDEST POP POP POP JUMP JUMPDEST PUSH1 0x0 PUSH1 0x1 PUSH1 0x1 PUSH1 0xE0 SHL SUB NOT DUP3 AND PUSH4 0x7965DB0B PUSH1 0xE0 SHL EQ DUP1 PUSH2 0x581 JUMPI POP PUSH4 0x1FFC9A7 PUSH1 0xE0 SHL PUSH1 0x1 PUSH1 0x1 PUSH1 0xE0 SHL SUB NOT DUP4 AND EQ JUMPDEST SWAP3 SWAP2 POP POP JUMP JUMPDEST PUSH1 0x0 DUP3 DUP2 MSTORE PUSH1 0xC PUSH1 0x20 MSTORE PUSH1 0x40 SWAP1 KECCAK256 PUSH1 0x1 ADD SLOAD PUSH2 0x5A2 DUP2 PUSH2 0x841 JUMP JUMPDEST PUSH2 0x54B DUP4 DUP4 PUSH2 0x84E JUMP JUMPDEST PUSH1 0x6 DUP2 DUP2 SLOAD DUP2 LT PUSH2 0x5BC JUMPI PUSH1 0x0 DUP1 REVERT JUMPDEST PUSH1 0x0 SWAP2 DUP3 MSTORE PUSH1 0x20 SWAP1 SWAP2 KECCAK256 ADD SLOAD PUSH1 0x1 PUSH1 0x1 PUSH1 0xA0 SHL SUB AND SWAP1 POP DUP2 JUMP JUMPDEST PUSH1 0x1 PUSH1 0x1 PUSH1 0xA0 SHL SUB DUP2 AND CALLER EQ PUSH2 0x646 JUMPI PUSH1 0x40 MLOAD PUSH3 0x461BCD PUSH1 0xE5 SHL DUP2 MSTORE PUSH1 0x20 PUSH1 0x4 DUP3 ADD MSTORE PUSH1 0x2F PUSH1 0x24 DUP3 ADD MSTORE PUSH32 0x416363657373436F6E74726F6C3A2063616E206F6E6C792072656E6F756E6365 PUSH1 0x44 DUP3 ADD MSTORE PUSH15 0x103937B632B9903337B91039B2B633 PUSH1 0x89 SHL PUSH1 0x64 DUP3 ADD MSTORE PUSH1 0x84 ADD PUSH2 0x51E JUMP JUMPDEST PUSH2 0x650 DUP3 DUP3 PUSH2 0x8D4 JUMP JUMPDEST POP POP JUMP JUMPDEST PUSH2 0x65F PUSH1 0x0 CALLER PUSH2 0x7F1 JUMP JUMPDEST PUSH2 0x67B JUMPI PUSH1 0x40 MLOAD PUSH3 0x461BCD PUSH1 0xE5 SHL DUP2 MSTORE PUSH1 0x4 ADD PUSH2 0x51E SWAP1 PUSH2 0xC11 JUMP JUMPDEST PUSH1 0xE SLOAD PUSH1 0x1 PUSH1 0x1 PUSH1 0xA0 SHL SUB AND PUSH2 0x6D3 JUMPI PUSH1 0x40 MLOAD PUSH3 0x461BCD PUSH1 0xE5 SHL DUP2 MSTORE PUSH1 0x20 PUSH1 0x4 DUP3 ADD DUP2 SWAP1 MSTORE PUSH1 0x24 DUP3 ADD MSTORE PUSH32 0x44414F436F6D6D697474656550726F78793A20696E707574206973207A65726F PUSH1 0x44 DUP3 ADD MSTORE PUSH1 0x64 ADD PUSH2 0x51E JUMP JUMPDEST PUSH1 0xE SLOAD PUSH1 0x1 PUSH1 0x1 PUSH1 0xA0 SHL SUB DUP1 DUP4 AND SWAP2 AND SUB PUSH2 0x752 JUMPI PUSH1 0x40 MLOAD PUSH3 0x461BCD PUSH1 0xE5 SHL DUP2 MSTORE PUSH1 0x20 PUSH1 0x4 DUP3 ADD MSTORE PUSH1 0x39 PUSH1 0x24 DUP3 ADD MSTORE PUSH32 0x44414F436F6D6D697474656550726F78793A2054686520696E70757420616464 PUSH1 0x44 DUP3 ADD MSTORE PUSH25 0x726573732069732073616D6520617320746865207374617465 PUSH1 0x38 SHL PUSH1 0x64 DUP3 ADD MSTORE PUSH1 0x84 ADD PUSH2 0x51E JUMP JUMPDEST PUSH1 0xE DUP1 SLOAD PUSH1 0x1 PUSH1 0x1 PUSH1 0xA0 SHL SUB NOT AND PUSH1 0x1 PUSH1 0x1 PUSH1 0xA0 SHL SUB DUP4 AND SWAP1 DUP2 OR SWAP1 SWAP2 SSTORE PUSH1 0x40 MLOAD PUSH32 0xBC7CD75A20EE27FD9ADEBAB32041F755214DBC6BFFA90CC0225B39DA2E5C2D3B SWAP1 PUSH1 0x0 SWAP1 LOG2 POP JUMP JUMPDEST PUSH1 0x7 DUP2 DUP2 SLOAD DUP2 LT PUSH2 0x5BC JUMPI PUSH1 0x0 DUP1 REVERT JUMPDEST PUSH2 0x7B7 PUSH1 0x0 CALLER PUSH2 0x7F1 JUMP JUMPDEST PUSH2 0x7D3 JUMPI PUSH1 0x40 MLOAD PUSH3 0x461BCD PUSH1 0xE5 SHL DUP2 MSTORE PUSH1 0x4 ADD PUSH2 0x51E SWAP1 PUSH2 0xC11 JUMP JUMPDEST PUSH1 0xE DUP1 SLOAD SWAP2 ISZERO ISZERO PUSH1 0x1 PUSH1 0xA0 SHL MUL PUSH1 0xFF PUSH1 0xA0 SHL NOT SWAP1 SWAP3 AND SWAP2 SWAP1 SWAP2 OR SWAP1 SSTORE JUMP JUMPDEST PUSH1 0x0 SWAP2 DUP3 MSTORE PUSH1 0xC PUSH1 0x20 SWAP1 DUP2 MSTORE PUSH1 0x40 DUP1 DUP5 KECCAK256 PUSH1 0x1 PUSH1 0x1 PUSH1 0xA0 SHL SUB SWAP4 SWAP1 SWAP4 AND DUP5 MSTORE SWAP2 SWAP1 MSTORE SWAP1 KECCAK256 SLOAD PUSH1 0xFF AND SWAP1 JUMP JUMPDEST PUSH1 0x0 DUP3 DUP2 MSTORE PUSH1 0xC PUSH1 0x20 MSTORE PUSH1 0x40 SWAP1 KECCAK256 PUSH1 0x1 ADD SLOAD PUSH2 0x837 DUP2 PUSH2 0x841 JUMP JUMPDEST PUSH2 0x54B DUP4 DUP4 PUSH2 0x8D4 JUMP JUMPDEST PUSH2 0x84B DUP2 CALLER PUSH2 0x93B JUMP JUMPDEST POP JUMP JUMPDEST PUSH2 0x858 DUP3 DUP3 PUSH2 0x7F1 JUMP JUMPDEST PUSH2 0x650 JUMPI PUSH1 0x0 DUP3 DUP2 MSTORE PUSH1 0xC PUSH1 0x20 SWAP1 DUP2 MSTORE PUSH1 0x40 DUP1 DUP4 KECCAK256 PUSH1 0x1 PUSH1 0x1 PUSH1 0xA0 SHL SUB DUP6 AND DUP5 MSTORE SWAP1 SWAP2 MSTORE SWAP1 KECCAK256 DUP1 SLOAD PUSH1 0xFF NOT AND PUSH1 0x1 OR SWAP1 SSTORE PUSH2 0x890 CALLER SWAP1 JUMP JUMPDEST PUSH1 0x1 PUSH1 0x1 PUSH1 0xA0 SHL SUB AND DUP2 PUSH1 0x1 PUSH1 0x1 PUSH1 0xA0 SHL SUB AND DUP4 PUSH32 0x2F8788117E7EFF1D82E926EC794901D17C78024A50270940304540A733656F0D PUSH1 0x40 MLOAD PUSH1 0x40 MLOAD DUP1 SWAP2 SUB SWAP1 LOG4 POP POP JUMP JUMPDEST PUSH2 0x8DE DUP3 DUP3 PUSH2 0x7F1 JUMP JUMPDEST ISZERO PUSH2 0x650 JUMPI PUSH1 0x0 DUP3 DUP2 MSTORE PUSH1 0xC PUSH1 0x20 SWAP1 DUP2 MSTORE PUSH1 0x40 DUP1 DUP4 KECCAK256 PUSH1 0x1 PUSH1 0x1 PUSH1 0xA0 SHL SUB DUP6 AND DUP1 DUP6 MSTORE SWAP3 MSTORE DUP1 DUP4 KECCAK256 DUP1 SLOAD PUSH1 0xFF NOT AND SWAP1 SSTORE MLOAD CALLER SWAP3 DUP6 SWAP2 PUSH32 0xF6391F5C32D9C69D2A47EA670B442974B53935D1EDC7FD64EB21E047A839171B SWAP2 SWAP1 LOG4 POP POP JUMP JUMPDEST PUSH2 0x945 DUP3 DUP3 PUSH2 0x7F1 JUMP JUMPDEST PUSH2 0x650 JUMPI PUSH2 0x952 DUP2 PUSH2 0x994 JUMP JUMPDEST PUSH2 0x95D DUP4 PUSH1 0x20 PUSH2 0x9A6 JUMP JUMPDEST PUSH1 0x40 MLOAD PUSH1 0x20 ADD PUSH2 0x96E SWAP3 SWAP2 SWAP1 PUSH2 0xC82 JUMP JUMPDEST PUSH1 0x40 DUP1 MLOAD PUSH1 0x1F NOT DUP2 DUP5 SUB ADD DUP2 MSTORE SWAP1 DUP3 SWAP1 MSTORE PUSH3 0x461BCD PUSH1 0xE5 SHL DUP3 MSTORE PUSH2 0x51E SWAP2 PUSH1 0x4 ADD PUSH2 0xCF1 JUMP JUMPDEST PUSH1 0x60 PUSH2 0x581 PUSH1 0x1 PUSH1 0x1 PUSH1 0xA0 SHL SUB DUP4 AND PUSH1 0x14 JUMPDEST PUSH1 0x60 PUSH1 0x0 PUSH2 0x9B5 DUP4 PUSH1 0x2 PUSH2 0xD3A JUMP JUMPDEST PUSH2 0x9C0 SWAP1 PUSH1 0x2 PUSH2 0xD51 JUMP JUMPDEST PUSH8 0xFFFFFFFFFFFFFFFF DUP2 GT ISZERO PUSH2 0x9D8 JUMPI PUSH2 0x9D8 PUSH2 0xD64 JUMP JUMPDEST PUSH1 0x40 MLOAD SWAP1 DUP1 DUP3 MSTORE DUP1 PUSH1 0x1F ADD PUSH1 0x1F NOT AND PUSH1 0x20 ADD DUP3 ADD PUSH1 0x40 MSTORE DUP1 ISZERO PUSH2 0xA02 JUMPI PUSH1 0x20 DUP3 ADD DUP2 DUP1 CALLDATASIZE DUP4 CALLDATACOPY ADD SWAP1 POP JUMPDEST POP SWAP1 POP PUSH1 0x3 PUSH1 0xFC SHL DUP2 PUSH1 0x0 DUP2 MLOAD DUP2 LT PUSH2 0xA1D JUMPI PUSH2 0xA1D PUSH2 0xD7A JUMP JUMPDEST PUSH1 0x20 ADD ADD SWAP1 PUSH1 0x1 PUSH1 0x1 PUSH1 0xF8 SHL SUB NOT AND SWAP1 DUP2 PUSH1 0x0 BYTE SWAP1 MSTORE8 POP PUSH1 0xF PUSH1 0xFB SHL DUP2 PUSH1 0x1 DUP2 MLOAD DUP2 LT PUSH2 0xA4C JUMPI PUSH2 0xA4C PUSH2 0xD7A JUMP JUMPDEST PUSH1 0x20 ADD ADD SWAP1 PUSH1 0x1 PUSH1 0x1 PUSH1 0xF8 SHL SUB NOT AND SWAP1 DUP2 PUSH1 0x0 BYTE SWAP1 MSTORE8 POP PUSH1 0x0 PUSH2 0xA70 DUP5 PUSH1 0x2 PUSH2 0xD3A JUMP JUMPDEST PUSH2 0xA7B SWAP1 PUSH1 0x1 PUSH2 0xD51 JUMP JUMPDEST SWAP1 POP JUMPDEST PUSH1 0x1 DUP2 GT ISZERO PUSH2 0xAF3 JUMPI PUSH16 0x181899199A1A9B1B9C1CB0B131B232B3 PUSH1 0x81 SHL DUP6 PUSH1 0xF AND PUSH1 0x10 DUP2 LT PUSH2 0xAAF JUMPI PUSH2 0xAAF PUSH2 0xD7A JUMP JUMPDEST BYTE PUSH1 0xF8 SHL DUP3 DUP3 DUP2 MLOAD DUP2 LT PUSH2 0xAC5 JUMPI PUSH2 0xAC5 PUSH2 0xD7A JUMP JUMPDEST PUSH1 0x20 ADD ADD SWAP1 PUSH1 0x1 PUSH1 0x1 PUSH1 0xF8 SHL SUB NOT AND SWAP1 DUP2 PUSH1 0x0 BYTE SWAP1 MSTORE8 POP PUSH1 0x4 SWAP5 SWAP1 SWAP5 SHR SWAP4 PUSH2 0xAEC DUP2 PUSH2 0xD90 JUMP JUMPDEST SWAP1 POP PUSH2 0xA7E JUMP JUMPDEST POP DUP4 ISZERO PUSH2 0xB42 JUMPI PUSH1 0x40 MLOAD PUSH3 0x461BCD PUSH1 0xE5 SHL DUP2 MSTORE PUSH1 0x20 PUSH1 0x4 DUP3 ADD DUP2 SWAP1 MSTORE PUSH1 0x24 DUP3 ADD MSTORE PUSH32 0x537472696E67733A20686578206C656E67746820696E73756666696369656E74 PUSH1 0x44 DUP3 ADD MSTORE PUSH1 0x64 ADD PUSH2 0x51E JUMP JUMPDEST SWAP4 SWAP3 POP POP POP JUMP JUMPDEST PUSH1 0x0 PUSH1 0x20 DUP3 DUP5 SUB SLT ISZERO PUSH2 0xB5B JUMPI PUSH1 0x0 DUP1 REVERT JUMPDEST DUP2 CALLDATALOAD PUSH1 0x1 PUSH1 0x1 PUSH1 0xE0 SHL SUB NOT DUP2 AND DUP2 EQ PUSH2 0xB42 JUMPI PUSH1 0x0 DUP1 REVERT JUMPDEST PUSH1 0x0 PUSH1 0x20 DUP3 DUP5 SUB SLT ISZERO PUSH2 0xB85 JUMPI PUSH1 0x0 DUP1 REVERT JUMPDEST POP CALLDATALOAD SWAP2 SWAP1 POP JUMP JUMPDEST DUP1 CALLDATALOAD PUSH1 0x1 PUSH1 0x1 PUSH1 0xA0 SHL SUB DUP2 AND DUP2 EQ PUSH2 0xBA3 JUMPI PUSH1 0x0 DUP1 REVERT JUMPDEST SWAP2 SWAP1 POP JUMP JUMPDEST PUSH1 0x0 PUSH1 0x20 DUP3 DUP5 SUB SLT ISZERO PUSH2 0xBBA JUMPI PUSH1 0x0 DUP1 REVERT JUMPDEST PUSH2 0xB42 DUP3 PUSH2 0xB8C JUMP JUMPDEST PUSH1 0x0 DUP1 PUSH1 0x40 DUP4 DUP6 SUB SLT ISZERO PUSH2 0xBD6 JUMPI PUSH1 0x0 DUP1 REVERT JUMPDEST DUP3 CALLDATALOAD SWAP2 POP PUSH2 0xBE6 PUSH1 0x20 DUP5 ADD PUSH2 0xB8C JUMP JUMPDEST SWAP1 POP SWAP3 POP SWAP3 SWAP1 POP JUMP JUMPDEST PUSH1 0x0 PUSH1 0x20 DUP3 DUP5 SUB SLT ISZERO PUSH2 0xC01 JUMPI PUSH1 0x0 DUP1 REVERT JUMPDEST DUP2 CALLDATALOAD DUP1 ISZERO ISZERO DUP2 EQ PUSH2 0xB42 JUMPI PUSH1 0x0 DUP1 REVERT JUMPDEST PUSH1 0x20 DUP1 DUP3 MSTORE PUSH1 0x2D SWAP1 DUP3 ADD MSTORE PUSH32 0x44414F436F6D6D697474656550726F78793A206D73672E73656E646572206973 PUSH1 0x40 DUP3 ADD MSTORE PUSH13 0x103737BA1030B71030B236B4B7 PUSH1 0x99 SHL PUSH1 0x60 DUP3 ADD MSTORE PUSH1 0x80 ADD SWAP1 JUMP JUMPDEST PUSH1 0x0 JUMPDEST DUP4 DUP2 LT ISZERO PUSH2 0xC79 JUMPI DUP2 DUP2 ADD MLOAD DUP4 DUP3 ADD MSTORE PUSH1 0x20 ADD PUSH2 0xC61 JUMP JUMPDEST POP POP PUSH1 0x0 SWAP2 ADD MSTORE JUMP JUMPDEST PUSH23 0x20B1B1B2B9B9A1B7B73A3937B61D1030B1B1B7BAB73A1 PUSH1 0x4D SHL DUP2 MSTORE PUSH1 0x0 DUP4 MLOAD PUSH2 0xCB4 DUP2 PUSH1 0x17 DUP6 ADD PUSH1 0x20 DUP9 ADD PUSH2 0xC5E JUMP JUMPDEST PUSH17 0x1034B99036B4B9B9B4B733903937B6329 PUSH1 0x7D SHL PUSH1 0x17 SWAP2 DUP5 ADD SWAP2 DUP3 ADD MSTORE DUP4 MLOAD PUSH2 0xCE5 DUP2 PUSH1 0x28 DUP5 ADD PUSH1 0x20 DUP9 ADD PUSH2 0xC5E JUMP JUMPDEST ADD PUSH1 0x28 ADD SWAP5 SWAP4 POP POP POP POP JUMP JUMPDEST PUSH1 0x20 DUP2 MSTORE PUSH1 0x0 DUP3 MLOAD DUP1 PUSH1 0x20 DUP5 ADD MSTORE PUSH2 0xD10 DUP2 PUSH1 0x40 DUP6 ADD PUSH1 0x20 DUP8 ADD PUSH2 0xC5E JUMP JUMPDEST PUSH1 0x1F ADD PUSH1 0x1F NOT AND SWAP2 SWAP1 SWAP2 ADD PUSH1 0x40 ADD SWAP3 SWAP2 POP POP JUMP JUMPDEST PUSH4 0x4E487B71 PUSH1 0xE0 SHL PUSH1 0x0 MSTORE PUSH1 0x11 PUSH1 0x4 MSTORE PUSH1 0x24 PUSH1 0x0 REVERT JUMPDEST DUP1 DUP3 MUL DUP2 ISZERO DUP3 DUP3 DIV DUP5 EQ OR PUSH2 0x581 JUMPI PUSH2 0x581 PUSH2 0xD24 JUMP JUMPDEST DUP1 DUP3 ADD DUP1 DUP3 GT ISZERO PUSH2 0x581 JUMPI PUSH2 0x581 PUSH2 0xD24 JUMP JUMPDEST PUSH4 0x4E487B71 PUSH1 0xE0 SHL PUSH1 0x0 MSTORE PUSH1 0x41 PUSH1 0x4 MSTORE PUSH1 0x24 PUSH1 0x0 REVERT JUMPDEST PUSH4 0x4E487B71 PUSH1 0xE0 SHL PUSH1 0x0 MSTORE PUSH1 0x32 PUSH1 0x4 MSTORE PUSH1 0x24 PUSH1 0x0 REVERT JUMPDEST PUSH1 0x0 DUP2 PUSH2 0xD9F JUMPI PUSH2 0xD9F PUSH2 0xD24 JUMP JUMPDEST POP PUSH1 0x0 NOT ADD SWAP1 JUMP INVALID LOG2 PUSH5 0x6970667358 0x22 SLT KECCAK256 BLOCKHASH 0xCD 0xC7 0xE2 0xCC 0xE6 0xF6 SIGNEXTEND 0x2D MSTORE 0x2C SIGNEXTEND SWAP15 0xD3 0xEE PUSH6 0x54EA9EED973 0xE0 0x22 0x5E ORIGIN 0xBC INVALID OR 0xE0 LOG0 0xAF PUSH5 0x736F6C6343 STOP ADDMOD SLT STOP CALLER "},"gasEstimates":{"creation":{"codeDepositCost":"709800","executionCost":"infinite","totalCost":"infinite"},"external":{"":"infinite","DEFAULT_ADMIN_ROLE()":"239","activityRewardPerSecond()":"2428","agendaManager()":"2449","candidateContract(address)":"2634","candidateFactory()":"2425","candidateInfos(address)":"9504","candidates(uint256)":"4659","daoVault()":"2448","getRoleAdmin(bytes32)":"2534","grantRole(bytes32,address)":"infinite","hasRole(bytes32,address)":"2676","implementation()":"2464","isMember(address)":"2628","layer2Registry()":"2469","maxMember()":"2341","members(uint256)":"4637","pauseProxy()":"2361","quorum()":"2363","renounceRole(bytes32,address)":"29068","revokeRole(bytes32,address)":"infinite","seigManager()":"2426","setProxyPause(bool)":"26948","supportsInterface(bytes4)":"450","ton()":"2447","upgradeTo(address)":"32401"},"internal":{"_fallback()":"infinite"}},"methodIdentifiers":{"DEFAULT_ADMIN_ROLE()":"a217fddf","activityRewardPerSecond()":"7f331636","agendaManager()":"27fd92fd","candidateContract(address)":"651d08cd","candidateFactory()":"b5dd1158","candidateInfos(address)":"2e011c1e","candidates(uint256)":"3477ee2e","daoVault()":"5903bd6c","getRoleAdmin(bytes32)":"248a9ca3","grantRole(bytes32,address)":"2f2ff15d","hasRole(bytes32,address)":"91d14854","implementation()":"5c60da1b","isMember(address)":"a230c524","layer2Registry()":"cf2a239c","maxMember()":"03e3c9ac","members(uint256)":"5daf08ca","pauseProxy()":"63a8fd89","quorum()":"1703a018","renounceRole(bytes32,address)":"36568abe","revokeRole(bytes32,address)":"d547741f","seigManager()":"6fb7f558","setProxyPause(bool)":"7cb00d25","supportsInterface(bytes4)":"01ffc9a7","ton()":"cc48b947","upgradeTo(address)":"3659cfe6"}},"storageLayout":{"storage":[{"astId":1630,"contract":"contracts/test/DAOCommitteeProxy.sol:DAOCommitteeProxy","label":"ton","offset":0,"slot":"0","type":"t_address"},{"astId":1634,"contract":"contracts/test/DAOCommitteeProxy.sol:DAOCommitteeProxy","label":"daoVault","offset":0,"slot":"1","type":"t_contract(IDAOVault)2534"},{"astId":1638,"contract":"contracts/test/DAOCommitteeProxy.sol:DAOCommitteeProxy","label":"agendaManager","offset":0,"slot":"2","type":"t_contract(IDAOAgendaManager)2211"},{"astId":1642,"contract":"contracts/test/DAOCommitteeProxy.sol:DAOCommitteeProxy","label":"candidateFactory","offset":0,"slot":"3","type":"t_contract(ICandidateFactory)1930"},{"astId":1646,"contract":"contracts/test/DAOCommitteeProxy.sol:DAOCommitteeProxy","label":"layer2Registry","offset":0,"slot":"4","type":"t_contract(ILayer2Registry)2588"},{"astId":1650,"contract":"contracts/test/DAOCommitteeProxy.sol:DAOCommitteeProxy","label":"seigManager","offset":0,"slot":"5","type":"t_contract(ISeigManager)2752"},{"astId":1654,"contract":"contracts/test/DAOCommitteeProxy.sol:DAOCommitteeProxy","label":"candidates","offset":0,"slot":"6","type":"t_array(t_address)dyn_storage"},{"astId":1658,"contract":"contracts/test/DAOCommitteeProxy.sol:DAOCommitteeProxy","label":"members","offset":0,"slot":"7","type":"t_array(t_address)dyn_storage"},{"astId":1661,"contract":"contracts/test/DAOCommitteeProxy.sol:DAOCommitteeProxy","label":"maxMember","offset":0,"slot":"8","type":"t_uint256"},{"astId":1666,"contract":"contracts/test/DAOCommitteeProxy.sol:DAOCommitteeProxy","label":"_candidateInfos","offset":0,"slot":"9","type":"t_mapping(t_address,t_struct(CandidateInfo)2776_storage)"},{"astId":1669,"contract":"contracts/test/DAOCommitteeProxy.sol:DAOCommitteeProxy","label":"quorum","offset":0,"slot":"10","type":"t_uint256"},{"astId":1672,"contract":"contracts/test/DAOCommitteeProxy.sol:DAOCommitteeProxy","label":"activityRewardPerSecond","offset":0,"slot":"11","type":"t_uint256"},{"astId":3205,"contract":"contracts/test/DAOCommitteeProxy.sol:DAOCommitteeProxy","label":"_roles","offset":0,"slot":"12","type":"t_mapping(t_bytes32,t_struct(RoleData)3200_storage)"},{"astId":1553,"contract":"contracts/test/DAOCommitteeProxy.sol:DAOCommitteeProxy","label":"_supportedInterfaces","offset":0,"slot":"13","type":"t_mapping(t_bytes4,t_bool)"},{"astId":2943,"contract":"contracts/test/DAOCommitteeProxy.sol:DAOCommitteeProxy","label":"_implementation","offset":0,"slot":"14","type":"t_address"},{"astId":2945,"contract":"contracts/test/DAOCommitteeProxy.sol:DAOCommitteeProxy","label":"pauseProxy","offset":20,"slot":"14","type":"t_bool"}],"types":{"t_address":{"encoding":"inplace","label":"address","numberOfBytes":"20"},"t_array(t_address)dyn_storage":{"base":"t_address","encoding":"dynamic_array","label":"address[]","numberOfBytes":"32"},"t_bool":{"encoding":"inplace","label":"bool","numberOfBytes":"1"},"t_bytes32":{"encoding":"inplace","label":"bytes32","numberOfBytes":"32"},"t_bytes4":{"encoding":"inplace","label":"bytes4","numberOfBytes":"4"},"t_contract(ICandidateFactory)1930":{"encoding":"inplace","label":"contract ICandidateFactory","numberOfBytes":"20"},"t_contract(IDAOAgendaManager)2211":{"encoding":"inplace","label":"contract IDAOAgendaManager","numberOfBytes":"20"},"t_contract(IDAOVault)2534":{"encoding":"inplace","label":"contract IDAOVault","numberOfBytes":"20"},"t_contract(ILayer2Registry)2588":{"encoding":"inplace","label":"contract ILayer2Registry","numberOfBytes":"20"},"t_contract(ISeigManager)2752":{"encoding":"inplace","label":"contract ISeigManager","numberOfBytes":"20"},"t_mapping(t_address,t_bool)":{"encoding":"mapping","key":"t_address","label":"mapping(address => bool)","numberOfBytes":"32","value":"t_bool"},"t_mapping(t_address,t_struct(CandidateInfo)2776_storage)":{"encoding":"mapping","key":"t_address","label":"mapping(address => struct IStorageStateCommittee.CandidateInfo)","numberOfBytes":"32","value":"t_struct(CandidateInfo)2776_storage"},"t_mapping(t_bytes32,t_struct(RoleData)3200_storage)":{"encoding":"mapping","key":"t_bytes32","label":"mapping(bytes32 => struct AccessControl.RoleData)","numberOfBytes":"32","value":"t_struct(RoleData)3200_storage"},"t_mapping(t_bytes4,t_bool)":{"encoding":"mapping","key":"t_bytes4","label":"mapping(bytes4 => bool)","numberOfBytes":"32","value":"t_bool"},"t_struct(CandidateInfo)2776_storage":{"encoding":"inplace","label":"struct IStorageStateCommittee.CandidateInfo","members":[{"astId":2767,"contract":"contracts/test/DAOCommitteeProxy.sol:DAOCommitteeProxy","label":"candidateContract","offset":0,"slot":"0","type":"t_address"},{"astId":2769,"contract":"contracts/test/DAOCommitteeProxy.sol:DAOCommitteeProxy","label":"indexMembers","offset":0,"slot":"1","type":"t_uint256"},{"astId":2771,"contract":"contracts/test/DAOCommitteeProxy.sol:DAOCommitteeProxy","label":"memberJoinedTime","offset":0,"slot":"2","type":"t_uint128"},{"astId":2773,"contract":"contracts/test/DAOCommitteeProxy.sol:DAOCommitteeProxy","label":"rewardPeriod","offset":16,"slot":"2","type":"t_uint128"},{"astId":2775,"contract":"contracts/test/DAOCommitteeProxy.sol:DAOCommitteeProxy","label":"claimedTimestamp","offset":0,"slot":"3","type":"t_uint128"}],"numberOfBytes":"128"},"t_struct(RoleData)3200_storage":{"encoding":"inplace","label":"struct AccessControl.RoleData","members":[{"astId":3197,"contract":"contracts/test/DAOCommitteeProxy.sol:DAOCommitteeProxy","label":"members","offset":0,"slot":"0","type":"t_mapping(t_address,t_bool)"},{"astId":3199,"contract":"contracts/test/DAOCommitteeProxy.sol:DAOCommitteeProxy","label":"adminRole","offset":0,"slot":"1","type":"t_bytes32"}],"numberOfBytes":"64"},"t_uint128":{"encoding":"inplace","label":"uint128","numberOfBytes":"16"},"t_uint256":{"encoding":"inplace","label":"uint256","numberOfBytes":"32"}}},"userdoc":{"kind":"user","methods":{"setProxyPause(bool)":{"notice":"Set pause state"},"upgradeTo(address)":{"notice":"Set implementation contract"}},"version":1}}}}