{"contracts/dao/DAOCommitteeProxyV2.sol":{"DAOCommitteeProxyV2":{"abi":[{"anonymous":false,"inputs":[{"indexed":true,"internalType":"bytes32","name":"role","type":"bytes32"},{"indexed":true,"internalType":"bytes32","name":"previousAdminRole","type":"bytes32"},{"indexed":true,"internalType":"bytes32","name":"newAdminRole","type":"bytes32"}],"name":"RoleAdminChanged","type":"event"},{"anonymous":false,"inputs":[{"indexed":true,"internalType":"bytes32","name":"role","type":"bytes32"},{"indexed":true,"internalType":"address","name":"account","type":"address"},{"indexed":true,"internalType":"address","name":"sender","type":"address"}],"name":"RoleGranted","type":"event"},{"anonymous":false,"inputs":[{"indexed":true,"internalType":"bytes32","name":"role","type":"bytes32"},{"indexed":true,"internalType":"address","name":"account","type":"address"},{"indexed":true,"internalType":"address","name":"sender","type":"address"}],"name":"RoleRevoked","type":"event"},{"anonymous":false,"inputs":[{"indexed":true,"internalType":"address","name":"impl","type":"address"},{"indexed":false,"internalType":"bool","name":"alive","type":"bool"}],"name":"SetAliveImplementation","type":"event"},{"anonymous":false,"inputs":[{"indexed":true,"internalType":"bytes4","name":"selector","type":"bytes4"},{"indexed":true,"internalType":"address","name":"impl","type":"address"}],"name":"SetSelectorImplementation","type":"event"},{"anonymous":false,"inputs":[{"indexed":true,"internalType":"address","name":"implementation","type":"address"}],"name":"Upgraded","type":"event"},{"stateMutability":"payable","type":"fallback"},{"inputs":[],"name":"DEFAULT_ADMIN_ROLE","outputs":[{"internalType":"bytes32","name":"","type":"bytes32"}],"stateMutability":"view","type":"function"},{"inputs":[],"name":"activityRewardPerSecond","outputs":[{"internalType":"uint256","name":"","type":"uint256"}],"stateMutability":"view","type":"function"},{"inputs":[],"name":"agendaManager","outputs":[{"internalType":"contract IDAOAgendaManager","name":"","type":"address"}],"stateMutability":"view","type":"function"},{"inputs":[{"internalType":"address","name":"","type":"address"}],"name":"aliveImplementation","outputs":[{"internalType":"bool","name":"","type":"bool"}],"stateMutability":"view","type":"function"},{"inputs":[{"internalType":"address","name":"_candidate","type":"address"}],"name":"candidateContract","outputs":[{"internalType":"address","name":"","type":"address"}],"stateMutability":"view","type":"function"},{"inputs":[],"name":"candidateFactory","outputs":[{"internalType":"contract ICandidateFactory","name":"","type":"address"}],"stateMutability":"view","type":"function"},{"inputs":[{"internalType":"address","name":"_candidate","type":"address"}],"name":"candidateInfos","outputs":[{"components":[{"internalType":"address","name":"candidateContract","type":"address"},{"internalType":"uint256","name":"indexMembers","type":"uint256"},{"internalType":"uint128","name":"memberJoinedTime","type":"uint128"},{"internalType":"uint128","name":"rewardPeriod","type":"uint128"},{"internalType":"uint128","name":"claimedTimestamp","type":"uint128"}],"internalType":"struct IStorageStateCommittee.CandidateInfo","name":"","type":"tuple"}],"stateMutability":"nonpayable","type":"function"},{"inputs":[{"internalType":"uint256","name":"","type":"uint256"}],"name":"candidates","outputs":[{"internalType":"address","name":"","type":"address"}],"stateMutability":"view","type":"function"},{"inputs":[],"name":"daoVault","outputs":[{"internalType":"contract IDAOVault","name":"","type":"address"}],"stateMutability":"view","type":"function"},{"inputs":[{"internalType":"bytes32","name":"role","type":"bytes32"}],"name":"getRoleAdmin","outputs":[{"internalType":"bytes32","name":"","type":"bytes32"}],"stateMutability":"view","type":"function"},{"inputs":[{"internalType":"bytes4","name":"_selector","type":"bytes4"}],"name":"getSelectorImplementation2","outputs":[{"internalType":"address","name":"impl","type":"address"}],"stateMutability":"view","type":"function"},{"inputs":[{"internalType":"bytes32","name":"role","type":"bytes32"},{"internalType":"address","name":"account","type":"address"}],"name":"grantRole","outputs":[],"stateMutability":"nonpayable","type":"function"},{"inputs":[{"internalType":"bytes32","name":"role","type":"bytes32"},{"internalType":"address","name":"account","type":"address"}],"name":"hasRole","outputs":[{"internalType":"bool","name":"","type":"bool"}],"stateMutability":"view","type":"function"},{"inputs":[{"internalType":"uint256","name":"_index","type":"uint256"}],"name":"implementation2","outputs":[{"internalType":"address","name":"","type":"address"}],"stateMutability":"view","type":"function"},{"inputs":[{"internalType":"address","name":"_candidate","type":"address"}],"name":"isMember","outputs":[{"internalType":"bool","name":"","type":"bool"}],"stateMutability":"view","type":"function"},{"inputs":[],"name":"layer2Registry","outputs":[{"internalType":"contract ILayer2Registry","name":"","type":"address"}],"stateMutability":"view","type":"function"},{"inputs":[],"name":"maxMember","outputs":[{"internalType":"uint256","name":"","type":"uint256"}],"stateMutability":"view","type":"function"},{"inputs":[{"internalType":"uint256","name":"","type":"uint256"}],"name":"members","outputs":[{"internalType":"address","name":"","type":"address"}],"stateMutability":"view","type":"function"},{"inputs":[],"name":"pauseProxy","outputs":[{"internalType":"bool","name":"","type":"bool"}],"stateMutability":"view","type":"function"},{"inputs":[{"internalType":"uint256","name":"","type":"uint256"}],"name":"proxyImplementation","outputs":[{"internalType":"address","name":"","type":"address"}],"stateMutability":"view","type":"function"},{"inputs":[],"name":"quorum","outputs":[{"internalType":"uint256","name":"","type":"uint256"}],"stateMutability":"view","type":"function"},{"inputs":[{"internalType":"bytes32","name":"role","type":"bytes32"},{"internalType":"address","name":"account","type":"address"}],"name":"renounceRole","outputs":[],"stateMutability":"nonpayable","type":"function"},{"inputs":[{"internalType":"bytes32","name":"role","type":"bytes32"},{"internalType":"address","name":"account","type":"address"}],"name":"revokeRole","outputs":[],"stateMutability":"nonpayable","type":"function"},{"inputs":[],"name":"seigManager","outputs":[{"internalType":"contract ISeigManager","name":"","type":"address"}],"stateMutability":"view","type":"function"},{"inputs":[{"internalType":"bytes4","name":"","type":"bytes4"}],"name":"selectorImplementation","outputs":[{"internalType":"address","name":"","type":"address"}],"stateMutability":"view","type":"function"},{"inputs":[{"internalType":"address","name":"newImplementation","type":"address"},{"internalType":"bool","name":"_alive","type":"bool"}],"name":"setAliveImplementation2","outputs":[],"stateMutability":"nonpayable","type":"function"},{"inputs":[{"internalType":"address","name":"newImplementation","type":"address"},{"internalType":"uint256","name":"_index","type":"uint256"},{"internalType":"bool","name":"_alive","type":"bool"}],"name":"setImplementation2","outputs":[],"stateMutability":"nonpayable","type":"function"},{"inputs":[{"internalType":"bytes4[]","name":"_selectors","type":"bytes4[]"},{"internalType":"address","name":"_imp","type":"address"}],"name":"setSelectorImplementations2","outputs":[],"stateMutability":"nonpayable","type":"function"},{"inputs":[{"internalType":"bytes4","name":"interfaceId","type":"bytes4"}],"name":"supportsInterface","outputs":[{"internalType":"bool","name":"","type":"bool"}],"stateMutability":"view","type":"function"},{"inputs":[],"name":"ton","outputs":[{"internalType":"address","name":"","type":"address"}],"stateMutability":"view","type":"function"},{"stateMutability":"payable","type":"receive"}],"devdoc":{"events":{"RoleAdminChanged(bytes32,bytes32,bytes32)":{"details":"Emitted when `newAdminRole` is set as ``role``'s admin role, replacing `previousAdminRole` `DEFAULT_ADMIN_ROLE` is the starting admin for all roles, despite {RoleAdminChanged} not being emitted signaling this. _Available since v3.1._"},"RoleGranted(bytes32,address,address)":{"details":"Emitted when `account` is granted `role`. `sender` is the account that originated the contract call, an admin role bearer except when using {AccessControl-_setupRole}."},"RoleRevoked(bytes32,address,address)":{"details":"Emitted when `account` is revoked `role`. `sender` is the account that originated the contract call:   - if using `revokeRole`, it is the admin role bearer   - if using `renounceRole`, it is the role bearer (i.e. `account`)"}},"kind":"dev","methods":{"getRoleAdmin(bytes32)":{"details":"Returns the admin role that controls `role`. See {grantRole} and {revokeRole}. To change a role's admin, use {_setRoleAdmin}."},"grantRole(bytes32,address)":{"details":"Grants `role` to `account`. If `account` had not been already granted `role`, emits a {RoleGranted} event. Requirements: - the caller must have ``role``'s admin role. May emit a {RoleGranted} event."},"hasRole(bytes32,address)":{"details":"Returns `true` if `account` has been granted `role`."},"renounceRole(bytes32,address)":{"details":"Revokes `role` from the calling account. Roles are often managed via {grantRole} and {revokeRole}: this function's purpose is to provide a mechanism for accounts to lose their privileges if they are compromised (such as when a trusted device is misplaced). If the calling account had been revoked `role`, emits a {RoleRevoked} event. Requirements: - the caller must be `account`. May emit a {RoleRevoked} event."},"revokeRole(bytes32,address)":{"details":"Revokes `role` from `account`. If `account` had been granted `role`, emits a {RoleRevoked} event. Requirements: - the caller must have ``role``'s admin role. May emit a {RoleRevoked} event."},"supportsInterface(bytes4)":{"details":"See {IERC165-supportsInterface}."}},"version":1},"evm":{"bytecode":{"linkReferences":{},"object":"608060405234801561001057600080fd5b506100216301ffc9a760e01b610026565b6100a9565b6001600160e01b031980821690036100845760405162461bcd60e51b815260206004820152601c60248201527f4552433136353a20696e76616c696420696e7465726661636520696400000000604482015260640160405180910390fd5b6001600160e01b0319166000908152600d60205260409020805460ff19166001179055565b61143d806100b86000396000f3fe6080604052600436106101915760003560e01c806363a8fd89116100d757806391d148541161008557806391d14854146105ad578063a217fddf146105cd578063a230c524146105e2578063b5dd115814610626578063b911135f14610646578063cc48b9471461067c578063cf2a239c1461069c578063d547741f146106bc57610198565b806363a8fd89146104bd578063651d08cd146104de5780636fb7f558146105175780637cd5f663146105375780637f331636146105575780638b8f4a651461056d5780638d4fdb401461058d57610198565b80633477ee2e1161013f5780633477ee2e1461039757806336568abe146103b75780634a5df50f146103d757806350d2a276146103f7578063550d01a31461042d5780635903bd6c1461045d5780635cc797d81461047d5780635daf08ca1461049d57610198565b806301ffc9a7146101a257806303e3c9ac146101d75780631703a018146101fb578063248a9ca31461021157806327fd92fd146102415780632e011c1e146102795780632f2ff15d1461037757610198565b3661019857005b6101a06106dc565b005b3480156101ae57600080fd5b506101c26101bd3660046110c6565b610791565b60405190151581526020015b60405180910390f35b3480156101e357600080fd5b506101ed60085481565b6040519081526020016101ce565b34801561020757600080fd5b506101ed600a5481565b34801561021d57600080fd5b506101ed61022c3660046110f0565b6000908152600c602052604090206001015490565b34801561024d57600080fd5b50600254610261906001600160a01b031681565b6040516001600160a01b0390911681526020016101ce565b34801561028557600080fd5b50610322610294366004611120565b6040805160a0808201835260008083526020808401829052838501829052606080850183905260809485018390526001600160a01b0396871683526009825291859020855193840186528054909616835260018601549083015260028501546001600160801b0380821695840195909552600160801b90048416908201526003909301549091169082015290565b6040805182516001600160a01b0316815260208084015190820152828201516001600160801b03908116928201929092526060808401518316908201526080928301519091169181019190915260a0016101ce565b34801561038357600080fd5b506101a061039236600461113b565b6107c8565b3480156103a357600080fd5b506102616103b23660046110f0565b6107ed565b3480156103c357600080fd5b506101a06103d236600461113b565b610817565b3480156103e357600080fd5b506101a06103f2366004611167565b610895565b34801561040357600080fd5b506102616104123660046110c6565b6010602052600090815260409020546001600160a01b031681565b34801561043957600080fd5b506101c2610448366004611120565b600f6020526000908152604090205460ff1681565b34801561046957600080fd5b50600154610261906001600160a01b031681565b34801561048957600080fd5b506101a06104983660046111fb565b610af4565b3480156104a957600080fd5b506102616104b83660046110f0565b610b25565b3480156104c957600080fd5b506011546101c290600160a01b900460ff1681565b3480156104ea57600080fd5b506102616104f9366004611120565b6001600160a01b039081166000908152600960205260409020541690565b34801561052357600080fd5b50600554610261906001600160a01b031681565b34801561054357600080fd5b506101a0610552366004611225565b610b35565b34801561056357600080fd5b506101ed600b5481565b34801561057957600080fd5b506102616105883660046110f0565b610b67565b34801561059957600080fd5b506102616105a83660046110c6565b610b84565b3480156105b957600080fd5b506101c26105c836600461113b565b610c80565b3480156105d957600080fd5b506101ed600081565b3480156105ee57600080fd5b506101c26105fd366004611120565b6001600160a01b03166000908152600960205260409020600201546001600160801b0316151590565b34801561063257600080fd5b50600354610261906001600160a01b031681565b34801561065257600080fd5b506102616106613660046110f0565b600e602052600090815260409020546001600160a01b031681565b34801561068857600080fd5b50600054610261906001600160a01b031681565b3480156106a857600080fd5b50600454610261906001600160a01b031681565b3480156106c857600080fd5b506101a06106d736600461113b565b610cab565b60006106f36000356001600160e01b031916610b84565b90506001600160a01b038116158015906107175750601154600160a01b900460ff16155b6107685760405162461bcd60e51b815260206004820152601d60248201527f50726f78793a20696d706c204f522070726f78792069732066616c736500000060448201526064015b60405180910390fd5b3660008037600080366000845af43d6000803e808015610787573d6000f35b3d6000fd5b505050565b60006001600160e01b03198216637965db0b60e01b14806107c257506301ffc9a760e01b6001600160e01b03198316145b92915050565b6000828152600c60205260409020600101546107e381610cd0565b61078c8383610cdd565b600681815481106107fd57600080fd5b6000918252602090912001546001600160a01b0316905081565b6001600160a01b03811633146108875760405162461bcd60e51b815260206004820152602f60248201527f416363657373436f6e74726f6c3a2063616e206f6e6c792072656e6f756e636560448201526e103937b632b9903337b91039b2b63360891b606482015260840161075f565b6108918282610d63565b5050565b6108a0600033610c80565b6108bc5760405162461bcd60e51b815260040161075f90611258565b816109095760405162461bcd60e51b815260206004820181905260248201527f50726f78793a205f73656c6563746f727327732073697a65206973207a65726f604482015260640161075f565b6001600160a01b0381166000908152600f602052604090205460ff1661096c5760405162461bcd60e51b815260206004820152601860248201527750726f78793a205f696d70206973206e6f7420616c69766560401b604482015260640161075f565b60005b82811015610aee57816001600160a01b031660106000868685818110610997576109976112a5565b90506020020160208101906109ac91906110c6565b6001600160e01b03191681526020810191909152604001600020546001600160a01b031603610a1d5760405162461bcd60e51b815260206004820152601d60248201527f4c69717569646974795661756c7450726f78793a2073616d6520696d70000000604482015260640161075f565b8160106000868685818110610a3457610a346112a5565b9050602002016020810190610a4991906110c6565b6001600160e01b0319168152602081019190915260400160002080546001600160a01b0319166001600160a01b039283161790558216848483818110610a9157610a916112a5565b9050602002016020810190610aa691906110c6565b6001600160e01b0319167f14ebc1c32aa68f4d766e89f3e546cee249f7df25183fc10ab1568d91c2ce9b7b60405160405180910390a380610ae6816112d1565b91505061096f565b50505050565b610aff600033610c80565b610b1b5760405162461bcd60e51b815260040161075f90611258565b6108918282610dca565b600781815481106107fd57600080fd5b610b40600033610c80565b610b5c5760405162461bcd60e51b815260040161075f90611258565b61078c838383610e29565b6000818152600e60205260408120546001600160a01b03166107c2565b6001600160e01b031981166000908152601060205260408120546001600160a01b0316610be457505060008052600e6020527fe710864318d4a32f37d6ce54cb3fadbef648dd12d8dbdf53973564d56b7f881c546001600160a01b031690565b6001600160e01b031982166000908152601060209081526040808320546001600160a01b03168352600f90915290205460ff1615610c4257506001600160e01b0319166000908152601060205260409020546001600160a01b031690565b505060008052600e6020527fe710864318d4a32f37d6ce54cb3fadbef648dd12d8dbdf53973564d56b7f881c546001600160a01b031690565b919050565b6000918252600c602090815260408084206001600160a01b0393909316845291905290205460ff1690565b6000828152600c6020526040902060010154610cc681610cd0565b61078c8383610d63565b610cda8133610eb8565b50565b610ce78282610c80565b610891576000828152600c602090815260408083206001600160a01b03851684529091529020805460ff19166001179055610d1f3390565b6001600160a01b0316816001600160a01b0316837f2f8788117e7eff1d82e926ec794901d17c78024a50270940304540a733656f0d60405160405180910390a45050565b610d6d8282610c80565b15610891576000828152600c602090815260408083206001600160a01b0385168085529252808320805460ff1916905551339285917ff6391f5c32d9c69d2a47ea670b442974b53935d1edc7fd64eb21e047a839171b9190a45050565b6001600160a01b0382166000818152600f6020908152604091829020805460ff191685151590811790915591519182527f72558d9bfba4210f9ef095c782589484151f6d90f7a81bb3cb9b33efc695d324910160405180910390a25050565b6001600160a01b0383163b610e805760405162461bcd60e51b815260206004820152601b60248201527f50726f78793a206e6f7420636f6e747261637420616464726573730000000000604482015260640161075f565b8015610eae576000828152600e6020526040902080546001600160a01b0319166001600160a01b0385161790555b61078c8382610dca565b610ec28282610c80565b61089157610ecf81610f11565b610eda836020610f23565b604051602001610eeb92919061130e565b60408051601f198184030181529082905262461bcd60e51b825261075f9160040161137d565b60606107c26001600160a01b03831660145b60606000610f328360026113b0565b610f3d9060026113c7565b67ffffffffffffffff811115610f5557610f556113da565b6040519080825280601f01601f191660200182016040528015610f7f576020820181803683370190505b509050600360fc1b81600081518110610f9a57610f9a6112a5565b60200101906001600160f81b031916908160001a905350600f60fb1b81600181518110610fc957610fc96112a5565b60200101906001600160f81b031916908160001a9053506000610fed8460026113b0565b610ff89060016113c7565b90505b6001811115611070576f181899199a1a9b1b9c1cb0b131b232b360811b85600f166010811061102c5761102c6112a5565b1a60f81b828281518110611042576110426112a5565b60200101906001600160f81b031916908160001a90535060049490941c93611069816113f0565b9050610ffb565b5083156110bf5760405162461bcd60e51b815260206004820181905260248201527f537472696e67733a20686578206c656e67746820696e73756666696369656e74604482015260640161075f565b9392505050565b6000602082840312156110d857600080fd5b81356001600160e01b0319811681146110bf57600080fd5b60006020828403121561110257600080fd5b5035919050565b80356001600160a01b0381168114610c7b57600080fd5b60006020828403121561113257600080fd5b6110bf82611109565b6000806040838503121561114e57600080fd5b8235915061115e60208401611109565b90509250929050565b60008060006040848603121561117c57600080fd5b833567ffffffffffffffff8082111561119457600080fd5b818601915086601f8301126111a857600080fd5b8135818111156111b757600080fd5b8760208260051b85010111156111cc57600080fd5b6020928301955093506111e29186019050611109565b90509250925092565b80358015158114610c7b57600080fd5b6000806040838503121561120e57600080fd5b61121783611109565b915061115e602084016111eb565b60008060006060848603121561123a57600080fd5b61124384611109565b9250602084013591506111e2604085016111eb565b6020808252602d908201527f44414f436f6d6d697474656550726f78793a206d73672e73656e64657220697360408201526c103737ba1030b71030b236b4b760991b606082015260800190565b634e487b7160e01b600052603260045260246000fd5b634e487b7160e01b600052601160045260246000fd5b6000600182016112e3576112e36112bb565b5060010190565b60005b838110156113055781810151838201526020016112ed565b50506000910152565b76020b1b1b2b9b9a1b7b73a3937b61d1030b1b1b7bab73a1604d1b8152600083516113408160178501602088016112ea565b7001034b99036b4b9b9b4b733903937b6329607d1b60179184019182015283516113718160288401602088016112ea565b01602801949350505050565b602081526000825180602084015261139c8160408501602087016112ea565b601f01601f19169190910160400192915050565b80820281158282048414176107c2576107c26112bb565b808201808211156107c2576107c26112bb565b634e487b7160e01b600052604160045260246000fd5b6000816113ff576113ff6112bb565b50600019019056fea2646970667358221220f02f4d5311e05cddae19a8344021b1be2b92eb57ca6ab2e437dcd50924fb172264736f6c63430008120033","opcodes":"PUSH1 0x80 PUSH1 0x40 MSTORE CALLVALUE DUP1 ISZERO PUSH2 0x10 JUMPI PUSH1 0x0 DUP1 REVERT JUMPDEST POP PUSH2 0x21 PUSH4 0x1FFC9A7 PUSH1 0xE0 SHL PUSH2 0x26 JUMP JUMPDEST PUSH2 0xA9 JUMP JUMPDEST PUSH1 0x1 PUSH1 0x1 PUSH1 0xE0 SHL SUB NOT DUP1 DUP3 AND SWAP1 SUB PUSH2 0x84 JUMPI PUSH1 0x40 MLOAD PUSH3 0x461BCD PUSH1 0xE5 SHL DUP2 MSTORE PUSH1 0x20 PUSH1 0x4 DUP3 ADD MSTORE PUSH1 0x1C PUSH1 0x24 DUP3 ADD MSTORE PUSH32 0x4552433136353A20696E76616C696420696E7465726661636520696400000000 PUSH1 0x44 DUP3 ADD MSTORE PUSH1 0x64 ADD PUSH1 0x40 MLOAD DUP1 SWAP2 SUB SWAP1 REVERT JUMPDEST PUSH1 0x1 PUSH1 0x1 PUSH1 0xE0 SHL SUB NOT AND PUSH1 0x0 SWAP1 DUP2 MSTORE PUSH1 0xD PUSH1 0x20 MSTORE PUSH1 0x40 SWAP1 KECCAK256 DUP1 SLOAD PUSH1 0xFF NOT AND PUSH1 0x1 OR SWAP1 SSTORE JUMP JUMPDEST PUSH2 0x143D DUP1 PUSH2 0xB8 PUSH1 0x0 CODECOPY PUSH1 0x0 RETURN INVALID PUSH1 0x80 PUSH1 0x40 MSTORE PUSH1 0x4 CALLDATASIZE LT PUSH2 0x191 JUMPI PUSH1 0x0 CALLDATALOAD PUSH1 0xE0 SHR DUP1 PUSH4 0x63A8FD89 GT PUSH2 0xD7 JUMPI DUP1 PUSH4 0x91D14854 GT PUSH2 0x85 JUMPI DUP1 PUSH4 0x91D14854 EQ PUSH2 0x5AD JUMPI DUP1 PUSH4 0xA217FDDF EQ PUSH2 0x5CD JUMPI DUP1 PUSH4 0xA230C524 EQ PUSH2 0x5E2 JUMPI DUP1 PUSH4 0xB5DD1158 EQ PUSH2 0x626 JUMPI DUP1 PUSH4 0xB911135F EQ PUSH2 0x646 JUMPI DUP1 PUSH4 0xCC48B947 EQ PUSH2 0x67C JUMPI DUP1 PUSH4 0xCF2A239C EQ PUSH2 0x69C JUMPI DUP1 PUSH4 0xD547741F EQ PUSH2 0x6BC JUMPI PUSH2 0x198 JUMP JUMPDEST DUP1 PUSH4 0x63A8FD89 EQ PUSH2 0x4BD JUMPI DUP1 PUSH4 0x651D08CD EQ PUSH2 0x4DE JUMPI DUP1 PUSH4 0x6FB7F558 EQ PUSH2 0x517 JUMPI DUP1 PUSH4 0x7CD5F663 EQ PUSH2 0x537 JUMPI DUP1 PUSH4 0x7F331636 EQ PUSH2 0x557 JUMPI DUP1 PUSH4 0x8B8F4A65 EQ PUSH2 0x56D JUMPI DUP1 PUSH4 0x8D4FDB40 EQ PUSH2 0x58D JUMPI PUSH2 0x198 JUMP JUMPDEST DUP1 PUSH4 0x3477EE2E GT PUSH2 0x13F JUMPI DUP1 PUSH4 0x3477EE2E EQ PUSH2 0x397 JUMPI DUP1 PUSH4 0x36568ABE EQ PUSH2 0x3B7 JUMPI DUP1 PUSH4 0x4A5DF50F EQ PUSH2 0x3D7 JUMPI DUP1 PUSH4 0x50D2A276 EQ PUSH2 0x3F7 JUMPI DUP1 PUSH4 0x550D01A3 EQ PUSH2 0x42D JUMPI DUP1 PUSH4 0x5903BD6C EQ PUSH2 0x45D JUMPI DUP1 PUSH4 0x5CC797D8 EQ PUSH2 0x47D JUMPI DUP1 PUSH4 0x5DAF08CA EQ PUSH2 0x49D JUMPI PUSH2 0x198 JUMP JUMPDEST DUP1 PUSH4 0x1FFC9A7 EQ PUSH2 0x1A2 JUMPI DUP1 PUSH4 0x3E3C9AC EQ PUSH2 0x1D7 JUMPI DUP1 PUSH4 0x1703A018 EQ PUSH2 0x1FB JUMPI DUP1 PUSH4 0x248A9CA3 EQ PUSH2 0x211 JUMPI DUP1 PUSH4 0x27FD92FD EQ PUSH2 0x241 JUMPI DUP1 PUSH4 0x2E011C1E EQ PUSH2 0x279 JUMPI DUP1 PUSH4 0x2F2FF15D EQ PUSH2 0x377 JUMPI PUSH2 0x198 JUMP JUMPDEST CALLDATASIZE PUSH2 0x198 JUMPI STOP JUMPDEST PUSH2 0x1A0 PUSH2 0x6DC JUMP JUMPDEST STOP JUMPDEST CALLVALUE DUP1 ISZERO PUSH2 0x1AE JUMPI PUSH1 0x0 DUP1 REVERT JUMPDEST POP PUSH2 0x1C2 PUSH2 0x1BD CALLDATASIZE PUSH1 0x4 PUSH2 0x10C6 JUMP JUMPDEST PUSH2 0x791 JUMP JUMPDEST PUSH1 0x40 MLOAD SWAP1 ISZERO ISZERO DUP2 MSTORE PUSH1 0x20 ADD JUMPDEST PUSH1 0x40 MLOAD DUP1 SWAP2 SUB SWAP1 RETURN JUMPDEST CALLVALUE DUP1 ISZERO PUSH2 0x1E3 JUMPI PUSH1 0x0 DUP1 REVERT JUMPDEST POP PUSH2 0x1ED PUSH1 0x8 SLOAD DUP2 JUMP JUMPDEST PUSH1 0x40 MLOAD SWAP1 DUP2 MSTORE PUSH1 0x20 ADD PUSH2 0x1CE JUMP JUMPDEST CALLVALUE DUP1 ISZERO PUSH2 0x207 JUMPI PUSH1 0x0 DUP1 REVERT JUMPDEST POP PUSH2 0x1ED PUSH1 0xA SLOAD DUP2 JUMP JUMPDEST CALLVALUE DUP1 ISZERO PUSH2 0x21D JUMPI PUSH1 0x0 DUP1 REVERT JUMPDEST POP PUSH2 0x1ED PUSH2 0x22C CALLDATASIZE PUSH1 0x4 PUSH2 0x10F0 JUMP JUMPDEST PUSH1 0x0 SWAP1 DUP2 MSTORE PUSH1 0xC PUSH1 0x20 MSTORE PUSH1 0x40 SWAP1 KECCAK256 PUSH1 0x1 ADD SLOAD SWAP1 JUMP JUMPDEST CALLVALUE DUP1 ISZERO PUSH2 0x24D JUMPI PUSH1 0x0 DUP1 REVERT JUMPDEST POP PUSH1 0x2 SLOAD PUSH2 0x261 SWAP1 PUSH1 0x1 PUSH1 0x1 PUSH1 0xA0 SHL SUB AND DUP2 JUMP JUMPDEST PUSH1 0x40 MLOAD PUSH1 0x1 PUSH1 0x1 PUSH1 0xA0 SHL SUB SWAP1 SWAP2 AND DUP2 MSTORE PUSH1 0x20 ADD PUSH2 0x1CE JUMP JUMPDEST CALLVALUE DUP1 ISZERO PUSH2 0x285 JUMPI PUSH1 0x0 DUP1 REVERT JUMPDEST POP PUSH2 0x322 PUSH2 0x294 CALLDATASIZE PUSH1 0x4 PUSH2 0x1120 JUMP JUMPDEST PUSH1 0x40 DUP1 MLOAD PUSH1 0xA0 DUP1 DUP3 ADD DUP4 MSTORE PUSH1 0x0 DUP1 DUP4 MSTORE PUSH1 0x20 DUP1 DUP5 ADD DUP3 SWAP1 MSTORE DUP4 DUP6 ADD DUP3 SWAP1 MSTORE PUSH1 0x60 DUP1 DUP6 ADD DUP4 SWAP1 MSTORE PUSH1 0x80 SWAP5 DUP6 ADD DUP4 SWAP1 MSTORE PUSH1 0x1 PUSH1 0x1 PUSH1 0xA0 SHL SUB SWAP7 DUP8 AND DUP4 MSTORE PUSH1 0x9 DUP3 MSTORE SWAP2 DUP6 SWAP1 KECCAK256 DUP6 MLOAD SWAP4 DUP5 ADD DUP7 MSTORE DUP1 SLOAD SWAP1 SWAP7 AND DUP4 MSTORE PUSH1 0x1 DUP7 ADD SLOAD SWAP1 DUP4 ADD MSTORE PUSH1 0x2 DUP6 ADD SLOAD PUSH1 0x1 PUSH1 0x1 PUSH1 0x80 SHL SUB DUP1 DUP3 AND SWAP6 DUP5 ADD SWAP6 SWAP1 SWAP6 MSTORE PUSH1 0x1 PUSH1 0x80 SHL SWAP1 DIV DUP5 AND SWAP1 DUP3 ADD MSTORE PUSH1 0x3 SWAP1 SWAP4 ADD SLOAD SWAP1 SWAP2 AND SWAP1 DUP3 ADD MSTORE SWAP1 JUMP JUMPDEST PUSH1 0x40 DUP1 MLOAD DUP3 MLOAD PUSH1 0x1 PUSH1 0x1 PUSH1 0xA0 SHL SUB AND DUP2 MSTORE PUSH1 0x20 DUP1 DUP5 ADD MLOAD SWAP1 DUP3 ADD MSTORE DUP3 DUP3 ADD MLOAD PUSH1 0x1 PUSH1 0x1 PUSH1 0x80 SHL SUB SWAP1 DUP2 AND SWAP3 DUP3 ADD SWAP3 SWAP1 SWAP3 MSTORE PUSH1 0x60 DUP1 DUP5 ADD MLOAD DUP4 AND SWAP1 DUP3 ADD MSTORE PUSH1 0x80 SWAP3 DUP4 ADD MLOAD SWAP1 SWAP2 AND SWAP2 DUP2 ADD SWAP2 SWAP1 SWAP2 MSTORE PUSH1 0xA0 ADD PUSH2 0x1CE JUMP JUMPDEST CALLVALUE DUP1 ISZERO PUSH2 0x383 JUMPI PUSH1 0x0 DUP1 REVERT JUMPDEST POP PUSH2 0x1A0 PUSH2 0x392 CALLDATASIZE PUSH1 0x4 PUSH2 0x113B JUMP JUMPDEST PUSH2 0x7C8 JUMP JUMPDEST CALLVALUE DUP1 ISZERO PUSH2 0x3A3 JUMPI PUSH1 0x0 DUP1 REVERT JUMPDEST POP PUSH2 0x261 PUSH2 0x3B2 CALLDATASIZE PUSH1 0x4 PUSH2 0x10F0 JUMP JUMPDEST PUSH2 0x7ED JUMP JUMPDEST CALLVALUE DUP1 ISZERO PUSH2 0x3C3 JUMPI PUSH1 0x0 DUP1 REVERT JUMPDEST POP PUSH2 0x1A0 PUSH2 0x3D2 CALLDATASIZE PUSH1 0x4 PUSH2 0x113B JUMP JUMPDEST PUSH2 0x817 JUMP JUMPDEST CALLVALUE DUP1 ISZERO PUSH2 0x3E3 JUMPI PUSH1 0x0 DUP1 REVERT JUMPDEST POP PUSH2 0x1A0 PUSH2 0x3F2 CALLDATASIZE PUSH1 0x4 PUSH2 0x1167 JUMP JUMPDEST PUSH2 0x895 JUMP JUMPDEST CALLVALUE DUP1 ISZERO PUSH2 0x403 JUMPI PUSH1 0x0 DUP1 REVERT JUMPDEST POP PUSH2 0x261 PUSH2 0x412 CALLDATASIZE PUSH1 0x4 PUSH2 0x10C6 JUMP JUMPDEST PUSH1 0x10 PUSH1 0x20 MSTORE PUSH1 0x0 SWAP1 DUP2 MSTORE PUSH1 0x40 SWAP1 KECCAK256 SLOAD PUSH1 0x1 PUSH1 0x1 PUSH1 0xA0 SHL SUB AND DUP2 JUMP JUMPDEST CALLVALUE DUP1 ISZERO PUSH2 0x439 JUMPI PUSH1 0x0 DUP1 REVERT JUMPDEST POP PUSH2 0x1C2 PUSH2 0x448 CALLDATASIZE PUSH1 0x4 PUSH2 0x1120 JUMP JUMPDEST PUSH1 0xF PUSH1 0x20 MSTORE PUSH1 0x0 SWAP1 DUP2 MSTORE PUSH1 0x40 SWAP1 KECCAK256 SLOAD PUSH1 0xFF AND DUP2 JUMP JUMPDEST CALLVALUE DUP1 ISZERO PUSH2 0x469 JUMPI PUSH1 0x0 DUP1 REVERT JUMPDEST POP PUSH1 0x1 SLOAD PUSH2 0x261 SWAP1 PUSH1 0x1 PUSH1 0x1 PUSH1 0xA0 SHL SUB AND DUP2 JUMP JUMPDEST CALLVALUE DUP1 ISZERO PUSH2 0x489 JUMPI PUSH1 0x0 DUP1 REVERT JUMPDEST POP PUSH2 0x1A0 PUSH2 0x498 CALLDATASIZE PUSH1 0x4 PUSH2 0x11FB JUMP JUMPDEST PUSH2 0xAF4 JUMP JUMPDEST CALLVALUE DUP1 ISZERO PUSH2 0x4A9 JUMPI PUSH1 0x0 DUP1 REVERT JUMPDEST POP PUSH2 0x261 PUSH2 0x4B8 CALLDATASIZE PUSH1 0x4 PUSH2 0x10F0 JUMP JUMPDEST PUSH2 0xB25 JUMP JUMPDEST CALLVALUE DUP1 ISZERO PUSH2 0x4C9 JUMPI PUSH1 0x0 DUP1 REVERT JUMPDEST POP PUSH1 0x11 SLOAD PUSH2 0x1C2 SWAP1 PUSH1 0x1 PUSH1 0xA0 SHL SWAP1 DIV PUSH1 0xFF AND DUP2 JUMP JUMPDEST CALLVALUE DUP1 ISZERO PUSH2 0x4EA JUMPI PUSH1 0x0 DUP1 REVERT JUMPDEST POP PUSH2 0x261 PUSH2 0x4F9 CALLDATASIZE PUSH1 0x4 PUSH2 0x1120 JUMP JUMPDEST PUSH1 0x1 PUSH1 0x1 PUSH1 0xA0 SHL SUB SWAP1 DUP2 AND PUSH1 0x0 SWAP1 DUP2 MSTORE PUSH1 0x9 PUSH1 0x20 MSTORE PUSH1 0x40 SWAP1 KECCAK256 SLOAD AND SWAP1 JUMP JUMPDEST CALLVALUE DUP1 ISZERO PUSH2 0x523 JUMPI PUSH1 0x0 DUP1 REVERT JUMPDEST POP PUSH1 0x5 SLOAD PUSH2 0x261 SWAP1 PUSH1 0x1 PUSH1 0x1 PUSH1 0xA0 SHL SUB AND DUP2 JUMP JUMPDEST CALLVALUE DUP1 ISZERO PUSH2 0x543 JUMPI PUSH1 0x0 DUP1 REVERT JUMPDEST POP PUSH2 0x1A0 PUSH2 0x552 CALLDATASIZE PUSH1 0x4 PUSH2 0x1225 JUMP JUMPDEST PUSH2 0xB35 JUMP JUMPDEST CALLVALUE DUP1 ISZERO PUSH2 0x563 JUMPI PUSH1 0x0 DUP1 REVERT JUMPDEST POP PUSH2 0x1ED PUSH1 0xB SLOAD DUP2 JUMP JUMPDEST CALLVALUE DUP1 ISZERO PUSH2 0x579 JUMPI PUSH1 0x0 DUP1 REVERT JUMPDEST POP PUSH2 0x261 PUSH2 0x588 CALLDATASIZE PUSH1 0x4 PUSH2 0x10F0 JUMP JUMPDEST PUSH2 0xB67 JUMP JUMPDEST CALLVALUE DUP1 ISZERO PUSH2 0x599 JUMPI PUSH1 0x0 DUP1 REVERT JUMPDEST POP PUSH2 0x261 PUSH2 0x5A8 CALLDATASIZE PUSH1 0x4 PUSH2 0x10C6 JUMP JUMPDEST PUSH2 0xB84 JUMP JUMPDEST CALLVALUE DUP1 ISZERO PUSH2 0x5B9 JUMPI PUSH1 0x0 DUP1 REVERT JUMPDEST POP PUSH2 0x1C2 PUSH2 0x5C8 CALLDATASIZE PUSH1 0x4 PUSH2 0x113B JUMP JUMPDEST PUSH2 0xC80 JUMP JUMPDEST CALLVALUE DUP1 ISZERO PUSH2 0x5D9 JUMPI PUSH1 0x0 DUP1 REVERT JUMPDEST POP PUSH2 0x1ED PUSH1 0x0 DUP2 JUMP JUMPDEST CALLVALUE DUP1 ISZERO PUSH2 0x5EE JUMPI PUSH1 0x0 DUP1 REVERT JUMPDEST POP PUSH2 0x1C2 PUSH2 0x5FD CALLDATASIZE PUSH1 0x4 PUSH2 0x1120 JUMP JUMPDEST PUSH1 0x1 PUSH1 0x1 PUSH1 0xA0 SHL SUB AND PUSH1 0x0 SWAP1 DUP2 MSTORE PUSH1 0x9 PUSH1 0x20 MSTORE PUSH1 0x40 SWAP1 KECCAK256 PUSH1 0x2 ADD SLOAD PUSH1 0x1 PUSH1 0x1 PUSH1 0x80 SHL SUB AND ISZERO ISZERO SWAP1 JUMP JUMPDEST CALLVALUE DUP1 ISZERO PUSH2 0x632 JUMPI PUSH1 0x0 DUP1 REVERT JUMPDEST POP PUSH1 0x3 SLOAD PUSH2 0x261 SWAP1 PUSH1 0x1 PUSH1 0x1 PUSH1 0xA0 SHL SUB AND DUP2 JUMP JUMPDEST CALLVALUE DUP1 ISZERO PUSH2 0x652 JUMPI PUSH1 0x0 DUP1 REVERT JUMPDEST POP PUSH2 0x261 PUSH2 0x661 CALLDATASIZE PUSH1 0x4 PUSH2 0x10F0 JUMP JUMPDEST PUSH1 0xE PUSH1 0x20 MSTORE PUSH1 0x0 SWAP1 DUP2 MSTORE PUSH1 0x40 SWAP1 KECCAK256 SLOAD PUSH1 0x1 PUSH1 0x1 PUSH1 0xA0 SHL SUB AND DUP2 JUMP JUMPDEST CALLVALUE DUP1 ISZERO PUSH2 0x688 JUMPI PUSH1 0x0 DUP1 REVERT JUMPDEST POP PUSH1 0x0 SLOAD PUSH2 0x261 SWAP1 PUSH1 0x1 PUSH1 0x1 PUSH1 0xA0 SHL SUB AND DUP2 JUMP JUMPDEST CALLVALUE DUP1 ISZERO PUSH2 0x6A8 JUMPI PUSH1 0x0 DUP1 REVERT JUMPDEST POP PUSH1 0x4 SLOAD PUSH2 0x261 SWAP1 PUSH1 0x1 PUSH1 0x1 PUSH1 0xA0 SHL SUB AND DUP2 JUMP JUMPDEST CALLVALUE DUP1 ISZERO PUSH2 0x6C8 JUMPI PUSH1 0x0 DUP1 REVERT JUMPDEST POP PUSH2 0x1A0 PUSH2 0x6D7 CALLDATASIZE PUSH1 0x4 PUSH2 0x113B JUMP JUMPDEST PUSH2 0xCAB JUMP JUMPDEST PUSH1 0x0 PUSH2 0x6F3 PUSH1 0x0 CALLDATALOAD PUSH1 0x1 PUSH1 0x1 PUSH1 0xE0 SHL SUB NOT AND PUSH2 0xB84 JUMP JUMPDEST SWAP1 POP PUSH1 0x1 PUSH1 0x1 PUSH1 0xA0 SHL SUB DUP2 AND ISZERO DUP1 ISZERO SWAP1 PUSH2 0x717 JUMPI POP PUSH1 0x11 SLOAD PUSH1 0x1 PUSH1 0xA0 SHL SWAP1 DIV PUSH1 0xFF AND ISZERO JUMPDEST PUSH2 0x768 JUMPI PUSH1 0x40 MLOAD PUSH3 0x461BCD PUSH1 0xE5 SHL DUP2 MSTORE PUSH1 0x20 PUSH1 0x4 DUP3 ADD MSTORE PUSH1 0x1D PUSH1 0x24 DUP3 ADD MSTORE PUSH32 0x50726F78793A20696D706C204F522070726F78792069732066616C7365000000 PUSH1 0x44 DUP3 ADD MSTORE PUSH1 0x64 ADD JUMPDEST PUSH1 0x40 MLOAD DUP1 SWAP2 SUB SWAP1 REVERT JUMPDEST CALLDATASIZE PUSH1 0x0 DUP1 CALLDATACOPY PUSH1 0x0 DUP1 CALLDATASIZE PUSH1 0x0 DUP5 GAS DELEGATECALL RETURNDATASIZE PUSH1 0x0 DUP1 RETURNDATACOPY DUP1 DUP1 ISZERO PUSH2 0x787 JUMPI RETURNDATASIZE PUSH1 0x0 RETURN JUMPDEST RETURNDATASIZE PUSH1 0x0 REVERT JUMPDEST POP POP POP JUMP JUMPDEST PUSH1 0x0 PUSH1 0x1 PUSH1 0x1 PUSH1 0xE0 SHL SUB NOT DUP3 AND PUSH4 0x7965DB0B PUSH1 0xE0 SHL EQ DUP1 PUSH2 0x7C2 JUMPI POP PUSH4 0x1FFC9A7 PUSH1 0xE0 SHL PUSH1 0x1 PUSH1 0x1 PUSH1 0xE0 SHL SUB NOT DUP4 AND EQ JUMPDEST SWAP3 SWAP2 POP POP JUMP JUMPDEST PUSH1 0x0 DUP3 DUP2 MSTORE PUSH1 0xC PUSH1 0x20 MSTORE PUSH1 0x40 SWAP1 KECCAK256 PUSH1 0x1 ADD SLOAD PUSH2 0x7E3 DUP2 PUSH2 0xCD0 JUMP JUMPDEST PUSH2 0x78C DUP4 DUP4 PUSH2 0xCDD JUMP JUMPDEST PUSH1 0x6 DUP2 DUP2 SLOAD DUP2 LT PUSH2 0x7FD JUMPI PUSH1 0x0 DUP1 REVERT JUMPDEST PUSH1 0x0 SWAP2 DUP3 MSTORE PUSH1 0x20 SWAP1 SWAP2 KECCAK256 ADD SLOAD PUSH1 0x1 PUSH1 0x1 PUSH1 0xA0 SHL SUB AND SWAP1 POP DUP2 JUMP JUMPDEST PUSH1 0x1 PUSH1 0x1 PUSH1 0xA0 SHL SUB DUP2 AND CALLER EQ PUSH2 0x887 JUMPI PUSH1 0x40 MLOAD PUSH3 0x461BCD PUSH1 0xE5 SHL DUP2 MSTORE PUSH1 0x20 PUSH1 0x4 DUP3 ADD MSTORE PUSH1 0x2F PUSH1 0x24 DUP3 ADD MSTORE PUSH32 0x416363657373436F6E74726F6C3A2063616E206F6E6C792072656E6F756E6365 PUSH1 0x44 DUP3 ADD MSTORE PUSH15 0x103937B632B9903337B91039B2B633 PUSH1 0x89 SHL PUSH1 0x64 DUP3 ADD MSTORE PUSH1 0x84 ADD PUSH2 0x75F JUMP JUMPDEST PUSH2 0x891 DUP3 DUP3 PUSH2 0xD63 JUMP JUMPDEST POP POP JUMP JUMPDEST PUSH2 0x8A0 PUSH1 0x0 CALLER PUSH2 0xC80 JUMP JUMPDEST PUSH2 0x8BC JUMPI PUSH1 0x40 MLOAD PUSH3 0x461BCD PUSH1 0xE5 SHL DUP2 MSTORE PUSH1 0x4 ADD PUSH2 0x75F SWAP1 PUSH2 0x1258 JUMP JUMPDEST DUP2 PUSH2 0x909 JUMPI PUSH1 0x40 MLOAD PUSH3 0x461BCD PUSH1 0xE5 SHL DUP2 MSTORE PUSH1 0x20 PUSH1 0x4 DUP3 ADD DUP2 SWAP1 MSTORE PUSH1 0x24 DUP3 ADD MSTORE PUSH32 0x50726F78793A205F73656C6563746F727327732073697A65206973207A65726F PUSH1 0x44 DUP3 ADD MSTORE PUSH1 0x64 ADD PUSH2 0x75F JUMP JUMPDEST PUSH1 0x1 PUSH1 0x1 PUSH1 0xA0 SHL SUB DUP2 AND PUSH1 0x0 SWAP1 DUP2 MSTORE PUSH1 0xF PUSH1 0x20 MSTORE PUSH1 0x40 SWAP1 KECCAK256 SLOAD PUSH1 0xFF AND PUSH2 0x96C JUMPI PUSH1 0x40 MLOAD PUSH3 0x461BCD PUSH1 0xE5 SHL DUP2 MSTORE PUSH1 0x20 PUSH1 0x4 DUP3 ADD MSTORE PUSH1 0x18 PUSH1 0x24 DUP3 ADD MSTORE PUSH24 0x50726F78793A205F696D70206973206E6F7420616C697665 PUSH1 0x40 SHL PUSH1 0x44 DUP3 ADD MSTORE PUSH1 0x64 ADD PUSH2 0x75F JUMP JUMPDEST PUSH1 0x0 JUMPDEST DUP3 DUP2 LT ISZERO PUSH2 0xAEE JUMPI DUP2 PUSH1 0x1 PUSH1 0x1 PUSH1 0xA0 SHL SUB AND PUSH1 0x10 PUSH1 0x0 DUP7 DUP7 DUP6 DUP2 DUP2 LT PUSH2 0x997 JUMPI PUSH2 0x997 PUSH2 0x12A5 JUMP JUMPDEST SWAP1 POP PUSH1 0x20 MUL ADD PUSH1 0x20 DUP2 ADD SWAP1 PUSH2 0x9AC SWAP2 SWAP1 PUSH2 0x10C6 JUMP JUMPDEST PUSH1 0x1 PUSH1 0x1 PUSH1 0xE0 SHL SUB NOT AND DUP2 MSTORE PUSH1 0x20 DUP2 ADD SWAP2 SWAP1 SWAP2 MSTORE PUSH1 0x40 ADD PUSH1 0x0 KECCAK256 SLOAD PUSH1 0x1 PUSH1 0x1 PUSH1 0xA0 SHL SUB AND SUB PUSH2 0xA1D JUMPI PUSH1 0x40 MLOAD PUSH3 0x461BCD PUSH1 0xE5 SHL DUP2 MSTORE PUSH1 0x20 PUSH1 0x4 DUP3 ADD MSTORE PUSH1 0x1D PUSH1 0x24 DUP3 ADD MSTORE PUSH32 0x4C69717569646974795661756C7450726F78793A2073616D6520696D70000000 PUSH1 0x44 DUP3 ADD MSTORE PUSH1 0x64 ADD PUSH2 0x75F JUMP JUMPDEST DUP2 PUSH1 0x10 PUSH1 0x0 DUP7 DUP7 DUP6 DUP2 DUP2 LT PUSH2 0xA34 JUMPI PUSH2 0xA34 PUSH2 0x12A5 JUMP JUMPDEST SWAP1 POP PUSH1 0x20 MUL ADD PUSH1 0x20 DUP2 ADD SWAP1 PUSH2 0xA49 SWAP2 SWAP1 PUSH2 0x10C6 JUMP JUMPDEST PUSH1 0x1 PUSH1 0x1 PUSH1 0xE0 SHL SUB NOT AND DUP2 MSTORE PUSH1 0x20 DUP2 ADD SWAP2 SWAP1 SWAP2 MSTORE PUSH1 0x40 ADD PUSH1 0x0 KECCAK256 DUP1 SLOAD PUSH1 0x1 PUSH1 0x1 PUSH1 0xA0 SHL SUB NOT AND PUSH1 0x1 PUSH1 0x1 PUSH1 0xA0 SHL SUB SWAP3 DUP4 AND OR SWAP1 SSTORE DUP3 AND DUP5 DUP5 DUP4 DUP2 DUP2 LT PUSH2 0xA91 JUMPI PUSH2 0xA91 PUSH2 0x12A5 JUMP JUMPDEST SWAP1 POP PUSH1 0x20 MUL ADD PUSH1 0x20 DUP2 ADD SWAP1 PUSH2 0xAA6 SWAP2 SWAP1 PUSH2 0x10C6 JUMP JUMPDEST PUSH1 0x1 PUSH1 0x1 PUSH1 0xE0 SHL SUB NOT AND PUSH32 0x14EBC1C32AA68F4D766E89F3E546CEE249F7DF25183FC10AB1568D91C2CE9B7B PUSH1 0x40 MLOAD PUSH1 0x40 MLOAD DUP1 SWAP2 SUB SWAP1 LOG3 DUP1 PUSH2 0xAE6 DUP2 PUSH2 0x12D1 JUMP JUMPDEST SWAP2 POP POP PUSH2 0x96F JUMP JUMPDEST POP POP POP POP JUMP JUMPDEST PUSH2 0xAFF PUSH1 0x0 CALLER PUSH2 0xC80 JUMP JUMPDEST PUSH2 0xB1B JUMPI PUSH1 0x40 MLOAD PUSH3 0x461BCD PUSH1 0xE5 SHL DUP2 MSTORE PUSH1 0x4 ADD PUSH2 0x75F SWAP1 PUSH2 0x1258 JUMP JUMPDEST PUSH2 0x891 DUP3 DUP3 PUSH2 0xDCA JUMP JUMPDEST PUSH1 0x7 DUP2 DUP2 SLOAD DUP2 LT PUSH2 0x7FD JUMPI PUSH1 0x0 DUP1 REVERT JUMPDEST PUSH2 0xB40 PUSH1 0x0 CALLER PUSH2 0xC80 JUMP JUMPDEST PUSH2 0xB5C JUMPI PUSH1 0x40 MLOAD PUSH3 0x461BCD PUSH1 0xE5 SHL DUP2 MSTORE PUSH1 0x4 ADD PUSH2 0x75F SWAP1 PUSH2 0x1258 JUMP JUMPDEST PUSH2 0x78C DUP4 DUP4 DUP4 PUSH2 0xE29 JUMP JUMPDEST PUSH1 0x0 DUP2 DUP2 MSTORE PUSH1 0xE PUSH1 0x20 MSTORE PUSH1 0x40 DUP2 KECCAK256 SLOAD PUSH1 0x1 PUSH1 0x1 PUSH1 0xA0 SHL SUB AND PUSH2 0x7C2 JUMP JUMPDEST PUSH1 0x1 PUSH1 0x1 PUSH1 0xE0 SHL SUB NOT DUP2 AND PUSH1 0x0 SWAP1 DUP2 MSTORE PUSH1 0x10 PUSH1 0x20 MSTORE PUSH1 0x40 DUP2 KECCAK256 SLOAD PUSH1 0x1 PUSH1 0x1 PUSH1 0xA0 SHL SUB AND PUSH2 0xBE4 JUMPI POP POP PUSH1 0x0 DUP1 MSTORE PUSH1 0xE PUSH1 0x20 MSTORE PUSH32 0xE710864318D4A32F37D6CE54CB3FADBEF648DD12D8DBDF53973564D56B7F881C SLOAD PUSH1 0x1 PUSH1 0x1 PUSH1 0xA0 SHL SUB AND SWAP1 JUMP JUMPDEST PUSH1 0x1 PUSH1 0x1 PUSH1 0xE0 SHL SUB NOT DUP3 AND PUSH1 0x0 SWAP1 DUP2 MSTORE PUSH1 0x10 PUSH1 0x20 SWAP1 DUP2 MSTORE PUSH1 0x40 DUP1 DUP4 KECCAK256 SLOAD PUSH1 0x1 PUSH1 0x1 PUSH1 0xA0 SHL SUB AND DUP4 MSTORE PUSH1 0xF SWAP1 SWAP2 MSTORE SWAP1 KECCAK256 SLOAD PUSH1 0xFF AND ISZERO PUSH2 0xC42 JUMPI POP PUSH1 0x1 PUSH1 0x1 PUSH1 0xE0 SHL SUB NOT AND PUSH1 0x0 SWAP1 DUP2 MSTORE PUSH1 0x10 PUSH1 0x20 MSTORE PUSH1 0x40 SWAP1 KECCAK256 SLOAD PUSH1 0x1 PUSH1 0x1 PUSH1 0xA0 SHL SUB AND SWAP1 JUMP JUMPDEST POP POP PUSH1 0x0 DUP1 MSTORE PUSH1 0xE PUSH1 0x20 MSTORE PUSH32 0xE710864318D4A32F37D6CE54CB3FADBEF648DD12D8DBDF53973564D56B7F881C SLOAD PUSH1 0x1 PUSH1 0x1 PUSH1 0xA0 SHL SUB AND SWAP1 JUMP JUMPDEST SWAP2 SWAP1 POP JUMP JUMPDEST PUSH1 0x0 SWAP2 DUP3 MSTORE PUSH1 0xC PUSH1 0x20 SWAP1 DUP2 MSTORE PUSH1 0x40 DUP1 DUP5 KECCAK256 PUSH1 0x1 PUSH1 0x1 PUSH1 0xA0 SHL SUB SWAP4 SWAP1 SWAP4 AND DUP5 MSTORE SWAP2 SWAP1 MSTORE SWAP1 KECCAK256 SLOAD PUSH1 0xFF AND SWAP1 JUMP JUMPDEST PUSH1 0x0 DUP3 DUP2 MSTORE PUSH1 0xC PUSH1 0x20 MSTORE PUSH1 0x40 SWAP1 KECCAK256 PUSH1 0x1 ADD SLOAD PUSH2 0xCC6 DUP2 PUSH2 0xCD0 JUMP JUMPDEST PUSH2 0x78C DUP4 DUP4 PUSH2 0xD63 JUMP JUMPDEST PUSH2 0xCDA DUP2 CALLER PUSH2 0xEB8 JUMP JUMPDEST POP JUMP JUMPDEST PUSH2 0xCE7 DUP3 DUP3 PUSH2 0xC80 JUMP JUMPDEST PUSH2 0x891 JUMPI PUSH1 0x0 DUP3 DUP2 MSTORE PUSH1 0xC PUSH1 0x20 SWAP1 DUP2 MSTORE PUSH1 0x40 DUP1 DUP4 KECCAK256 PUSH1 0x1 PUSH1 0x1 PUSH1 0xA0 SHL SUB DUP6 AND DUP5 MSTORE SWAP1 SWAP2 MSTORE SWAP1 KECCAK256 DUP1 SLOAD PUSH1 0xFF NOT AND PUSH1 0x1 OR SWAP1 SSTORE PUSH2 0xD1F CALLER SWAP1 JUMP JUMPDEST PUSH1 0x1 PUSH1 0x1 PUSH1 0xA0 SHL SUB AND DUP2 PUSH1 0x1 PUSH1 0x1 PUSH1 0xA0 SHL SUB AND DUP4 PUSH32 0x2F8788117E7EFF1D82E926EC794901D17C78024A50270940304540A733656F0D PUSH1 0x40 MLOAD PUSH1 0x40 MLOAD DUP1 SWAP2 SUB SWAP1 LOG4 POP POP JUMP JUMPDEST PUSH2 0xD6D DUP3 DUP3 PUSH2 0xC80 JUMP JUMPDEST ISZERO PUSH2 0x891 JUMPI PUSH1 0x0 DUP3 DUP2 MSTORE PUSH1 0xC PUSH1 0x20 SWAP1 DUP2 MSTORE PUSH1 0x40 DUP1 DUP4 KECCAK256 PUSH1 0x1 PUSH1 0x1 PUSH1 0xA0 SHL SUB DUP6 AND DUP1 DUP6 MSTORE SWAP3 MSTORE DUP1 DUP4 KECCAK256 DUP1 SLOAD PUSH1 0xFF NOT AND SWAP1 SSTORE MLOAD CALLER SWAP3 DUP6 SWAP2 PUSH32 0xF6391F5C32D9C69D2A47EA670B442974B53935D1EDC7FD64EB21E047A839171B SWAP2 SWAP1 LOG4 POP POP JUMP JUMPDEST PUSH1 0x1 PUSH1 0x1 PUSH1 0xA0 SHL SUB DUP3 AND PUSH1 0x0 DUP2 DUP2 MSTORE PUSH1 0xF PUSH1 0x20 SWAP1 DUP2 MSTORE PUSH1 0x40 SWAP2 DUP3 SWAP1 KECCAK256 DUP1 SLOAD PUSH1 0xFF NOT AND DUP6 ISZERO ISZERO SWAP1 DUP2 OR SWAP1 SWAP2 SSTORE SWAP2 MLOAD SWAP2 DUP3 MSTORE PUSH32 0x72558D9BFBA4210F9EF095C782589484151F6D90F7A81BB3CB9B33EFC695D324 SWAP2 ADD PUSH1 0x40 MLOAD DUP1 SWAP2 SUB SWAP1 LOG2 POP POP JUMP JUMPDEST PUSH1 0x1 PUSH1 0x1 PUSH1 0xA0 SHL SUB DUP4 AND EXTCODESIZE PUSH2 0xE80 JUMPI PUSH1 0x40 MLOAD PUSH3 0x461BCD PUSH1 0xE5 SHL DUP2 MSTORE PUSH1 0x20 PUSH1 0x4 DUP3 ADD MSTORE PUSH1 0x1B PUSH1 0x24 DUP3 ADD MSTORE PUSH32 0x50726F78793A206E6F7420636F6E747261637420616464726573730000000000 PUSH1 0x44 DUP3 ADD MSTORE PUSH1 0x64 ADD PUSH2 0x75F JUMP JUMPDEST DUP1 ISZERO PUSH2 0xEAE JUMPI PUSH1 0x0 DUP3 DUP2 MSTORE PUSH1 0xE PUSH1 0x20 MSTORE PUSH1 0x40 SWAP1 KECCAK256 DUP1 SLOAD PUSH1 0x1 PUSH1 0x1 PUSH1 0xA0 SHL SUB NOT AND PUSH1 0x1 PUSH1 0x1 PUSH1 0xA0 SHL SUB DUP6 AND OR SWAP1 SSTORE JUMPDEST PUSH2 0x78C DUP4 DUP3 PUSH2 0xDCA JUMP JUMPDEST PUSH2 0xEC2 DUP3 DUP3 PUSH2 0xC80 JUMP JUMPDEST PUSH2 0x891 JUMPI PUSH2 0xECF DUP2 PUSH2 0xF11 JUMP JUMPDEST PUSH2 0xEDA DUP4 PUSH1 0x20 PUSH2 0xF23 JUMP JUMPDEST PUSH1 0x40 MLOAD PUSH1 0x20 ADD PUSH2 0xEEB SWAP3 SWAP2 SWAP1 PUSH2 0x130E JUMP JUMPDEST PUSH1 0x40 DUP1 MLOAD PUSH1 0x1F NOT DUP2 DUP5 SUB ADD DUP2 MSTORE SWAP1 DUP3 SWAP1 MSTORE PUSH3 0x461BCD PUSH1 0xE5 SHL DUP3 MSTORE PUSH2 0x75F SWAP2 PUSH1 0x4 ADD PUSH2 0x137D JUMP JUMPDEST PUSH1 0x60 PUSH2 0x7C2 PUSH1 0x1 PUSH1 0x1 PUSH1 0xA0 SHL SUB DUP4 AND PUSH1 0x14 JUMPDEST PUSH1 0x60 PUSH1 0x0 PUSH2 0xF32 DUP4 PUSH1 0x2 PUSH2 0x13B0 JUMP JUMPDEST PUSH2 0xF3D SWAP1 PUSH1 0x2 PUSH2 0x13C7 JUMP JUMPDEST PUSH8 0xFFFFFFFFFFFFFFFF DUP2 GT ISZERO PUSH2 0xF55 JUMPI PUSH2 0xF55 PUSH2 0x13DA JUMP JUMPDEST PUSH1 0x40 MLOAD SWAP1 DUP1 DUP3 MSTORE DUP1 PUSH1 0x1F ADD PUSH1 0x1F NOT AND PUSH1 0x20 ADD DUP3 ADD PUSH1 0x40 MSTORE DUP1 ISZERO PUSH2 0xF7F JUMPI PUSH1 0x20 DUP3 ADD DUP2 DUP1 CALLDATASIZE DUP4 CALLDATACOPY ADD SWAP1 POP JUMPDEST POP SWAP1 POP PUSH1 0x3 PUSH1 0xFC SHL DUP2 PUSH1 0x0 DUP2 MLOAD DUP2 LT PUSH2 0xF9A JUMPI PUSH2 0xF9A PUSH2 0x12A5 JUMP JUMPDEST PUSH1 0x20 ADD ADD SWAP1 PUSH1 0x1 PUSH1 0x1 PUSH1 0xF8 SHL SUB NOT AND SWAP1 DUP2 PUSH1 0x0 BYTE SWAP1 MSTORE8 POP PUSH1 0xF PUSH1 0xFB SHL DUP2 PUSH1 0x1 DUP2 MLOAD DUP2 LT PUSH2 0xFC9 JUMPI PUSH2 0xFC9 PUSH2 0x12A5 JUMP JUMPDEST PUSH1 0x20 ADD ADD SWAP1 PUSH1 0x1 PUSH1 0x1 PUSH1 0xF8 SHL SUB NOT AND SWAP1 DUP2 PUSH1 0x0 BYTE SWAP1 MSTORE8 POP PUSH1 0x0 PUSH2 0xFED DUP5 PUSH1 0x2 PUSH2 0x13B0 JUMP JUMPDEST PUSH2 0xFF8 SWAP1 PUSH1 0x1 PUSH2 0x13C7 JUMP JUMPDEST SWAP1 POP JUMPDEST PUSH1 0x1 DUP2 GT ISZERO PUSH2 0x1070 JUMPI PUSH16 0x181899199A1A9B1B9C1CB0B131B232B3 PUSH1 0x81 SHL DUP6 PUSH1 0xF AND PUSH1 0x10 DUP2 LT PUSH2 0x102C JUMPI PUSH2 0x102C PUSH2 0x12A5 JUMP JUMPDEST BYTE PUSH1 0xF8 SHL DUP3 DUP3 DUP2 MLOAD DUP2 LT PUSH2 0x1042 JUMPI PUSH2 0x1042 PUSH2 0x12A5 JUMP JUMPDEST PUSH1 0x20 ADD ADD SWAP1 PUSH1 0x1 PUSH1 0x1 PUSH1 0xF8 SHL SUB NOT AND SWAP1 DUP2 PUSH1 0x0 BYTE SWAP1 MSTORE8 POP PUSH1 0x4 SWAP5 SWAP1 SWAP5 SHR SWAP4 PUSH2 0x1069 DUP2 PUSH2 0x13F0 JUMP JUMPDEST SWAP1 POP PUSH2 0xFFB JUMP JUMPDEST POP DUP4 ISZERO PUSH2 0x10BF JUMPI PUSH1 0x40 MLOAD PUSH3 0x461BCD PUSH1 0xE5 SHL DUP2 MSTORE PUSH1 0x20 PUSH1 0x4 DUP3 ADD DUP2 SWAP1 MSTORE PUSH1 0x24 DUP3 ADD MSTORE PUSH32 0x537472696E67733A20686578206C656E67746820696E73756666696369656E74 PUSH1 0x44 DUP3 ADD MSTORE PUSH1 0x64 ADD PUSH2 0x75F JUMP JUMPDEST SWAP4 SWAP3 POP POP POP JUMP JUMPDEST PUSH1 0x0 PUSH1 0x20 DUP3 DUP5 SUB SLT ISZERO PUSH2 0x10D8 JUMPI PUSH1 0x0 DUP1 REVERT JUMPDEST DUP2 CALLDATALOAD PUSH1 0x1 PUSH1 0x1 PUSH1 0xE0 SHL SUB NOT DUP2 AND DUP2 EQ PUSH2 0x10BF JUMPI PUSH1 0x0 DUP1 REVERT JUMPDEST PUSH1 0x0 PUSH1 0x20 DUP3 DUP5 SUB SLT ISZERO PUSH2 0x1102 JUMPI PUSH1 0x0 DUP1 REVERT JUMPDEST POP CALLDATALOAD SWAP2 SWAP1 POP JUMP JUMPDEST DUP1 CALLDATALOAD PUSH1 0x1 PUSH1 0x1 PUSH1 0xA0 SHL SUB DUP2 AND DUP2 EQ PUSH2 0xC7B JUMPI PUSH1 0x0 DUP1 REVERT JUMPDEST PUSH1 0x0 PUSH1 0x20 DUP3 DUP5 SUB SLT ISZERO PUSH2 0x1132 JUMPI PUSH1 0x0 DUP1 REVERT JUMPDEST PUSH2 0x10BF DUP3 PUSH2 0x1109 JUMP JUMPDEST PUSH1 0x0 DUP1 PUSH1 0x40 DUP4 DUP6 SUB SLT ISZERO PUSH2 0x114E JUMPI PUSH1 0x0 DUP1 REVERT JUMPDEST DUP3 CALLDATALOAD SWAP2 POP PUSH2 0x115E PUSH1 0x20 DUP5 ADD PUSH2 0x1109 JUMP JUMPDEST SWAP1 POP SWAP3 POP SWAP3 SWAP1 POP JUMP JUMPDEST PUSH1 0x0 DUP1 PUSH1 0x0 PUSH1 0x40 DUP5 DUP7 SUB SLT ISZERO PUSH2 0x117C JUMPI PUSH1 0x0 DUP1 REVERT JUMPDEST DUP4 CALLDATALOAD PUSH8 0xFFFFFFFFFFFFFFFF DUP1 DUP3 GT ISZERO PUSH2 0x1194 JUMPI PUSH1 0x0 DUP1 REVERT JUMPDEST DUP2 DUP7 ADD SWAP2 POP DUP7 PUSH1 0x1F DUP4 ADD SLT PUSH2 0x11A8 JUMPI PUSH1 0x0 DUP1 REVERT JUMPDEST DUP2 CALLDATALOAD DUP2 DUP2 GT ISZERO PUSH2 0x11B7 JUMPI PUSH1 0x0 DUP1 REVERT JUMPDEST DUP8 PUSH1 0x20 DUP3 PUSH1 0x5 SHL DUP6 ADD ADD GT ISZERO PUSH2 0x11CC JUMPI PUSH1 0x0 DUP1 REVERT JUMPDEST PUSH1 0x20 SWAP3 DUP4 ADD SWAP6 POP SWAP4 POP PUSH2 0x11E2 SWAP2 DUP7 ADD SWAP1 POP PUSH2 0x1109 JUMP JUMPDEST SWAP1 POP SWAP3 POP SWAP3 POP SWAP3 JUMP JUMPDEST DUP1 CALLDATALOAD DUP1 ISZERO ISZERO DUP2 EQ PUSH2 0xC7B JUMPI PUSH1 0x0 DUP1 REVERT JUMPDEST PUSH1 0x0 DUP1 PUSH1 0x40 DUP4 DUP6 SUB SLT ISZERO PUSH2 0x120E JUMPI PUSH1 0x0 DUP1 REVERT JUMPDEST PUSH2 0x1217 DUP4 PUSH2 0x1109 JUMP JUMPDEST SWAP2 POP PUSH2 0x115E PUSH1 0x20 DUP5 ADD PUSH2 0x11EB JUMP JUMPDEST PUSH1 0x0 DUP1 PUSH1 0x0 PUSH1 0x60 DUP5 DUP7 SUB SLT ISZERO PUSH2 0x123A JUMPI PUSH1 0x0 DUP1 REVERT JUMPDEST PUSH2 0x1243 DUP5 PUSH2 0x1109 JUMP JUMPDEST SWAP3 POP PUSH1 0x20 DUP5 ADD CALLDATALOAD SWAP2 POP PUSH2 0x11E2 PUSH1 0x40 DUP6 ADD PUSH2 0x11EB JUMP JUMPDEST PUSH1 0x20 DUP1 DUP3 MSTORE PUSH1 0x2D SWAP1 DUP3 ADD MSTORE PUSH32 0x44414F436F6D6D697474656550726F78793A206D73672E73656E646572206973 PUSH1 0x40 DUP3 ADD MSTORE PUSH13 0x103737BA1030B71030B236B4B7 PUSH1 0x99 SHL PUSH1 0x60 DUP3 ADD MSTORE PUSH1 0x80 ADD SWAP1 JUMP JUMPDEST PUSH4 0x4E487B71 PUSH1 0xE0 SHL PUSH1 0x0 MSTORE PUSH1 0x32 PUSH1 0x4 MSTORE PUSH1 0x24 PUSH1 0x0 REVERT JUMPDEST PUSH4 0x4E487B71 PUSH1 0xE0 SHL PUSH1 0x0 MSTORE PUSH1 0x11 PUSH1 0x4 MSTORE PUSH1 0x24 PUSH1 0x0 REVERT JUMPDEST PUSH1 0x0 PUSH1 0x1 DUP3 ADD PUSH2 0x12E3 JUMPI PUSH2 0x12E3 PUSH2 0x12BB JUMP JUMPDEST POP PUSH1 0x1 ADD SWAP1 JUMP JUMPDEST PUSH1 0x0 JUMPDEST DUP4 DUP2 LT ISZERO PUSH2 0x1305 JUMPI DUP2 DUP2 ADD MLOAD DUP4 DUP3 ADD MSTORE PUSH1 0x20 ADD PUSH2 0x12ED JUMP JUMPDEST POP POP PUSH1 0x0 SWAP2 ADD MSTORE JUMP JUMPDEST PUSH23 0x20B1B1B2B9B9A1B7B73A3937B61D1030B1B1B7BAB73A1 PUSH1 0x4D SHL DUP2 MSTORE PUSH1 0x0 DUP4 MLOAD PUSH2 0x1340 DUP2 PUSH1 0x17 DUP6 ADD PUSH1 0x20 DUP9 ADD PUSH2 0x12EA JUMP JUMPDEST PUSH17 0x1034B99036B4B9B9B4B733903937B6329 PUSH1 0x7D SHL PUSH1 0x17 SWAP2 DUP5 ADD SWAP2 DUP3 ADD MSTORE DUP4 MLOAD PUSH2 0x1371 DUP2 PUSH1 0x28 DUP5 ADD PUSH1 0x20 DUP9 ADD PUSH2 0x12EA JUMP JUMPDEST ADD PUSH1 0x28 ADD SWAP5 SWAP4 POP POP POP POP JUMP JUMPDEST PUSH1 0x20 DUP2 MSTORE PUSH1 0x0 DUP3 MLOAD DUP1 PUSH1 0x20 DUP5 ADD MSTORE PUSH2 0x139C DUP2 PUSH1 0x40 DUP6 ADD PUSH1 0x20 DUP8 ADD PUSH2 0x12EA JUMP JUMPDEST PUSH1 0x1F ADD PUSH1 0x1F NOT AND SWAP2 SWAP1 SWAP2 ADD PUSH1 0x40 ADD SWAP3 SWAP2 POP POP JUMP JUMPDEST DUP1 DUP3 MUL DUP2 ISZERO DUP3 DUP3 DIV DUP5 EQ OR PUSH2 0x7C2 JUMPI PUSH2 0x7C2 PUSH2 0x12BB JUMP JUMPDEST DUP1 DUP3 ADD DUP1 DUP3 GT ISZERO PUSH2 0x7C2 JUMPI PUSH2 0x7C2 PUSH2 0x12BB JUMP JUMPDEST PUSH4 0x4E487B71 PUSH1 0xE0 SHL PUSH1 0x0 MSTORE PUSH1 0x41 PUSH1 0x4 MSTORE PUSH1 0x24 PUSH1 0x0 REVERT JUMPDEST PUSH1 0x0 DUP2 PUSH2 0x13FF JUMPI PUSH2 0x13FF PUSH2 0x12BB JUMP JUMPDEST POP PUSH1 0x0 NOT ADD SWAP1 JUMP INVALID LOG2 PUSH5 0x6970667358 0x22 SLT KECCAK256 CREATE 0x2F 0x4D MSTORE8 GT 0xE0 0x5C 0xDD 0xAE NOT 0xA8 CALLVALUE BLOCKHASH 0x21 0xB1 0xBE 0x2B SWAP3 0xEB JUMPI 0xCA PUSH11 0xB2E437DCD50924FB172264 PUSH20 0x6F6C634300081200330000000000000000000000 "},"gasEstimates":{"creation":{"codeDepositCost":"1036200","executionCost":"25477","totalCost":"1061677"},"external":{"":"infinite","DEFAULT_ADMIN_ROLE()":"239","activityRewardPerSecond()":"2406","agendaManager()":"2449","aliveImplementation(address)":"2631","candidateContract(address)":"2612","candidateFactory()":"2425","candidateInfos(address)":"9504","candidates(uint256)":"4637","daoVault()":"2470","getRoleAdmin(bytes32)":"2534","getSelectorImplementation2(bytes4)":"9346","grantRole(bytes32,address)":"infinite","hasRole(bytes32,address)":"2676","implementation2(uint256)":"2641","isMember(address)":"2628","layer2Registry()":"2491","maxMember()":"2341","members(uint256)":"4791","pauseProxy()":"2339","proxyImplementation(uint256)":"2587","quorum()":"2363","renounceRole(bytes32,address)":"29046","revokeRole(bytes32,address)":"infinite","seigManager()":"2404","selectorImplementation(bytes4)":"2615","setAliveImplementation2(address,bool)":"infinite","setImplementation2(address,uint256,bool)":"infinite","setSelectorImplementations2(bytes4[],address)":"infinite","supportsInterface(bytes4)":"450","ton()":"2469"},"internal":{"_fallback()":"infinite","_implementation2(uint256)":"infinite","_setAliveImplementation2(address,bool)":"infinite","_setImplementation2(address,uint256,bool)":"infinite"}},"methodIdentifiers":{"DEFAULT_ADMIN_ROLE()":"a217fddf","activityRewardPerSecond()":"7f331636","agendaManager()":"27fd92fd","aliveImplementation(address)":"550d01a3","candidateContract(address)":"651d08cd","candidateFactory()":"b5dd1158","candidateInfos(address)":"2e011c1e","candidates(uint256)":"3477ee2e","daoVault()":"5903bd6c","getRoleAdmin(bytes32)":"248a9ca3","getSelectorImplementation2(bytes4)":"8d4fdb40","grantRole(bytes32,address)":"2f2ff15d","hasRole(bytes32,address)":"91d14854","implementation2(uint256)":"8b8f4a65","isMember(address)":"a230c524","layer2Registry()":"cf2a239c","maxMember()":"03e3c9ac","members(uint256)":"5daf08ca","pauseProxy()":"63a8fd89","proxyImplementation(uint256)":"b911135f","quorum()":"1703a018","renounceRole(bytes32,address)":"36568abe","revokeRole(bytes32,address)":"d547741f","seigManager()":"6fb7f558","selectorImplementation(bytes4)":"50d2a276","setAliveImplementation2(address,bool)":"5cc797d8","setImplementation2(address,uint256,bool)":"7cd5f663","setSelectorImplementations2(bytes4[],address)":"4a5df50f","supportsInterface(bytes4)":"01ffc9a7","ton()":"cc48b947"}},"storageLayout":{"storage":[{"astId":2192,"contract":"contracts/dao/DAOCommitteeProxyV2.sol:DAOCommitteeProxyV2","label":"ton","offset":0,"slot":"0","type":"t_address"},{"astId":2196,"contract":"contracts/dao/DAOCommitteeProxyV2.sol:DAOCommitteeProxyV2","label":"daoVault","offset":0,"slot":"1","type":"t_contract(IDAOVault)3096"},{"astId":2200,"contract":"contracts/dao/DAOCommitteeProxyV2.sol:DAOCommitteeProxyV2","label":"agendaManager","offset":0,"slot":"2","type":"t_contract(IDAOAgendaManager)2773"},{"astId":2204,"contract":"contracts/dao/DAOCommitteeProxyV2.sol:DAOCommitteeProxyV2","label":"candidateFactory","offset":0,"slot":"3","type":"t_contract(ICandidateFactory)2492"},{"astId":2208,"contract":"contracts/dao/DAOCommitteeProxyV2.sol:DAOCommitteeProxyV2","label":"layer2Registry","offset":0,"slot":"4","type":"t_contract(ILayer2Registry)3150"},{"astId":2212,"contract":"contracts/dao/DAOCommitteeProxyV2.sol:DAOCommitteeProxyV2","label":"seigManager","offset":0,"slot":"5","type":"t_contract(ISeigManager)3334"},{"astId":2216,"contract":"contracts/dao/DAOCommitteeProxyV2.sol:DAOCommitteeProxyV2","label":"candidates","offset":0,"slot":"6","type":"t_array(t_address)dyn_storage"},{"astId":2220,"contract":"contracts/dao/DAOCommitteeProxyV2.sol:DAOCommitteeProxyV2","label":"members","offset":0,"slot":"7","type":"t_array(t_address)dyn_storage"},{"astId":2223,"contract":"contracts/dao/DAOCommitteeProxyV2.sol:DAOCommitteeProxyV2","label":"maxMember","offset":0,"slot":"8","type":"t_uint256"},{"astId":2228,"contract":"contracts/dao/DAOCommitteeProxyV2.sol:DAOCommitteeProxyV2","label":"_candidateInfos","offset":0,"slot":"9","type":"t_mapping(t_address,t_struct(CandidateInfo)3358_storage)"},{"astId":2231,"contract":"contracts/dao/DAOCommitteeProxyV2.sol:DAOCommitteeProxyV2","label":"quorum","offset":0,"slot":"10","type":"t_uint256"},{"astId":2234,"contract":"contracts/dao/DAOCommitteeProxyV2.sol:DAOCommitteeProxyV2","label":"activityRewardPerSecond","offset":0,"slot":"11","type":"t_uint256"},{"astId":3550,"contract":"contracts/dao/DAOCommitteeProxyV2.sol:DAOCommitteeProxyV2","label":"_roles","offset":0,"slot":"12","type":"t_mapping(t_bytes32,t_struct(RoleData)3545_storage)"},{"astId":1827,"contract":"contracts/dao/DAOCommitteeProxyV2.sol:DAOCommitteeProxyV2","label":"_supportedInterfaces","offset":0,"slot":"13","type":"t_mapping(t_bytes4,t_bool)"},{"astId":3516,"contract":"contracts/dao/DAOCommitteeProxyV2.sol:DAOCommitteeProxyV2","label":"proxyImplementation","offset":0,"slot":"14","type":"t_mapping(t_uint256,t_address)"},{"astId":3520,"contract":"contracts/dao/DAOCommitteeProxyV2.sol:DAOCommitteeProxyV2","label":"aliveImplementation","offset":0,"slot":"15","type":"t_mapping(t_address,t_bool)"},{"astId":3524,"contract":"contracts/dao/DAOCommitteeProxyV2.sol:DAOCommitteeProxyV2","label":"selectorImplementation","offset":0,"slot":"16","type":"t_mapping(t_bytes4,t_address)"},{"astId":1891,"contract":"contracts/dao/DAOCommitteeProxyV2.sol:DAOCommitteeProxyV2","label":"_implementation","offset":0,"slot":"17","type":"t_address"},{"astId":1893,"contract":"contracts/dao/DAOCommitteeProxyV2.sol:DAOCommitteeProxyV2","label":"pauseProxy","offset":20,"slot":"17","type":"t_bool"}],"types":{"t_address":{"encoding":"inplace","label":"address","numberOfBytes":"20"},"t_array(t_address)dyn_storage":{"base":"t_address","encoding":"dynamic_array","label":"address[]","numberOfBytes":"32"},"t_bool":{"encoding":"inplace","label":"bool","numberOfBytes":"1"},"t_bytes32":{"encoding":"inplace","label":"bytes32","numberOfBytes":"32"},"t_bytes4":{"encoding":"inplace","label":"bytes4","numberOfBytes":"4"},"t_contract(ICandidateFactory)2492":{"encoding":"inplace","label":"contract ICandidateFactory","numberOfBytes":"20"},"t_contract(IDAOAgendaManager)2773":{"encoding":"inplace","label":"contract IDAOAgendaManager","numberOfBytes":"20"},"t_contract(IDAOVault)3096":{"encoding":"inplace","label":"contract IDAOVault","numberOfBytes":"20"},"t_contract(ILayer2Registry)3150":{"encoding":"inplace","label":"contract ILayer2Registry","numberOfBytes":"20"},"t_contract(ISeigManager)3334":{"encoding":"inplace","label":"contract ISeigManager","numberOfBytes":"20"},"t_mapping(t_address,t_bool)":{"encoding":"mapping","key":"t_address","label":"mapping(address => bool)","numberOfBytes":"32","value":"t_bool"},"t_mapping(t_address,t_struct(CandidateInfo)3358_storage)":{"encoding":"mapping","key":"t_address","label":"mapping(address => struct IStorageStateCommittee.CandidateInfo)","numberOfBytes":"32","value":"t_struct(CandidateInfo)3358_storage"},"t_mapping(t_bytes32,t_struct(RoleData)3545_storage)":{"encoding":"mapping","key":"t_bytes32","label":"mapping(bytes32 => struct AccessControl.RoleData)","numberOfBytes":"32","value":"t_struct(RoleData)3545_storage"},"t_mapping(t_bytes4,t_address)":{"encoding":"mapping","key":"t_bytes4","label":"mapping(bytes4 => address)","numberOfBytes":"32","value":"t_address"},"t_mapping(t_bytes4,t_bool)":{"encoding":"mapping","key":"t_bytes4","label":"mapping(bytes4 => bool)","numberOfBytes":"32","value":"t_bool"},"t_mapping(t_uint256,t_address)":{"encoding":"mapping","key":"t_uint256","label":"mapping(uint256 => address)","numberOfBytes":"32","value":"t_address"},"t_struct(CandidateInfo)3358_storage":{"encoding":"inplace","label":"struct IStorageStateCommittee.CandidateInfo","members":[{"astId":3349,"contract":"contracts/dao/DAOCommitteeProxyV2.sol:DAOCommitteeProxyV2","label":"candidateContract","offset":0,"slot":"0","type":"t_address"},{"astId":3351,"contract":"contracts/dao/DAOCommitteeProxyV2.sol:DAOCommitteeProxyV2","label":"indexMembers","offset":0,"slot":"1","type":"t_uint256"},{"astId":3353,"contract":"contracts/dao/DAOCommitteeProxyV2.sol:DAOCommitteeProxyV2","label":"memberJoinedTime","offset":0,"slot":"2","type":"t_uint128"},{"astId":3355,"contract":"contracts/dao/DAOCommitteeProxyV2.sol:DAOCommitteeProxyV2","label":"rewardPeriod","offset":16,"slot":"2","type":"t_uint128"},{"astId":3357,"contract":"contracts/dao/DAOCommitteeProxyV2.sol:DAOCommitteeProxyV2","label":"claimedTimestamp","offset":0,"slot":"3","type":"t_uint128"}],"numberOfBytes":"128"},"t_struct(RoleData)3545_storage":{"encoding":"inplace","label":"struct AccessControl.RoleData","members":[{"astId":3542,"contract":"contracts/dao/DAOCommitteeProxyV2.sol:DAOCommitteeProxyV2","label":"members","offset":0,"slot":"0","type":"t_mapping(t_address,t_bool)"},{"astId":3544,"contract":"contracts/dao/DAOCommitteeProxyV2.sol:DAOCommitteeProxyV2","label":"adminRole","offset":0,"slot":"1","type":"t_bytes32"}],"numberOfBytes":"64"},"t_uint128":{"encoding":"inplace","label":"uint128","numberOfBytes":"16"},"t_uint256":{"encoding":"inplace","label":"uint256","numberOfBytes":"32"}}},"userdoc":{"kind":"user","methods":{},"version":1}}}}