{"contracts/dao/StorageStateCommittee.sol":{"StorageStateCommittee":{"abi":[{"inputs":[],"name":"activityRewardPerSecond","outputs":[{"internalType":"uint256","name":"","type":"uint256"}],"stateMutability":"view","type":"function"},{"inputs":[],"name":"agendaManager","outputs":[{"internalType":"contract IDAOAgendaManager","name":"","type":"address"}],"stateMutability":"view","type":"function"},{"inputs":[{"internalType":"address","name":"_candidate","type":"address"}],"name":"candidateContract","outputs":[{"internalType":"address","name":"","type":"address"}],"stateMutability":"view","type":"function"},{"inputs":[],"name":"candidateFactory","outputs":[{"internalType":"contract ICandidateFactory","name":"","type":"address"}],"stateMutability":"view","type":"function"},{"inputs":[{"internalType":"address","name":"_candidate","type":"address"}],"name":"candidateInfos","outputs":[{"components":[{"internalType":"address","name":"candidateContract","type":"address"},{"internalType":"uint256","name":"indexMembers","type":"uint256"},{"internalType":"uint128","name":"memberJoinedTime","type":"uint128"},{"internalType":"uint128","name":"rewardPeriod","type":"uint128"},{"internalType":"uint128","name":"claimedTimestamp","type":"uint128"}],"internalType":"struct IStorageStateCommittee.CandidateInfo","name":"","type":"tuple"}],"stateMutability":"nonpayable","type":"function"},{"inputs":[{"internalType":"uint256","name":"","type":"uint256"}],"name":"candidates","outputs":[{"internalType":"address","name":"","type":"address"}],"stateMutability":"view","type":"function"},{"inputs":[],"name":"daoVault","outputs":[{"internalType":"contract IDAOVault","name":"","type":"address"}],"stateMutability":"view","type":"function"},{"inputs":[{"internalType":"address","name":"_candidate","type":"address"}],"name":"isMember","outputs":[{"internalType":"bool","name":"","type":"bool"}],"stateMutability":"view","type":"function"},{"inputs":[],"name":"layer2Registry","outputs":[{"internalType":"contract ILayer2Registry","name":"","type":"address"}],"stateMutability":"view","type":"function"},{"inputs":[],"name":"maxMember","outputs":[{"internalType":"uint256","name":"","type":"uint256"}],"stateMutability":"view","type":"function"},{"inputs":[{"internalType":"uint256","name":"","type":"uint256"}],"name":"members","outputs":[{"internalType":"address","name":"","type":"address"}],"stateMutability":"view","type":"function"},{"inputs":[],"name":"quorum","outputs":[{"internalType":"uint256","name":"","type":"uint256"}],"stateMutability":"view","type":"function"},{"inputs":[],"name":"seigManager","outputs":[{"internalType":"contract ISeigManager","name":"","type":"address"}],"stateMutability":"view","type":"function"},{"inputs":[],"name":"ton","outputs":[{"internalType":"address","name":"","type":"address"}],"stateMutability":"view","type":"function"}],"devdoc":{"kind":"dev","methods":{},"version":1},"evm":{"bytecode":{"linkReferences":{},"object":"608060405234801561001057600080fd5b506103ca806100206000396000f3fe608060405234801561001057600080fd5b50600436106100ca5760003560e01c8063651d08cd1161007c578063651d08cd146102495780636fb7f558146102755780637f33163614610288578063a230c52414610291578063b5dd1158146102d8578063cc48b947146102eb578063cf2a239c146102fe57600080fd5b806303e3c9ac146100cf5780631703a018146100eb57806327fd92fd146100f45780632e011c1e1461011f5780633477ee2e146102105780635903bd6c146102235780635daf08ca14610236575b600080fd5b6100d860085481565b6040519081526020015b60405180910390f35b6100d8600a5481565b600254610107906001600160a01b031681565b6040516001600160a01b0390911681526020016100e2565b6101bb61012d36600461034b565b6040805160a0808201835260008083526020808401829052838501829052606080850183905260809485018390526001600160a01b0396871683526009825291859020855193840186528054909616835260018601549083015260028501546001600160801b0380821695840195909552600160801b90048416908201526003909301549091169082015290565b6040805182516001600160a01b0316815260208084015190820152828201516001600160801b03908116928201929092526060808401518316908201526080928301519091169181019190915260a0016100e2565b61010761021e36600461037b565b610311565b600154610107906001600160a01b031681565b61010761024436600461037b565b61033b565b61010761025736600461034b565b6001600160a01b039081166000908152600960205260409020541690565b600554610107906001600160a01b031681565b6100d8600b5481565b6102c861029f36600461034b565b6001600160a01b03166000908152600960205260409020600201546001600160801b0316151590565b60405190151581526020016100e2565b600354610107906001600160a01b031681565b600054610107906001600160a01b031681565b600454610107906001600160a01b031681565b6006818154811061032157600080fd5b6000918252602090912001546001600160a01b0316905081565b6007818154811061032157600080fd5b60006020828403121561035d57600080fd5b81356001600160a01b038116811461037457600080fd5b9392505050565b60006020828403121561038d57600080fd5b503591905056fea26469706673582212204cb9d683ec440874ee2220cbb091ae178b022337c624f473c2ef07504017fdd964736f6c63430008120033","opcodes":"PUSH1 0x80 PUSH1 0x40 MSTORE CALLVALUE DUP1 ISZERO PUSH2 0x10 JUMPI PUSH1 0x0 DUP1 REVERT JUMPDEST POP PUSH2 0x3CA DUP1 PUSH2 0x20 PUSH1 0x0 CODECOPY PUSH1 0x0 RETURN INVALID PUSH1 0x80 PUSH1 0x40 MSTORE CALLVALUE DUP1 ISZERO PUSH2 0x10 JUMPI PUSH1 0x0 DUP1 REVERT JUMPDEST POP PUSH1 0x4 CALLDATASIZE LT PUSH2 0xCA JUMPI PUSH1 0x0 CALLDATALOAD PUSH1 0xE0 SHR DUP1 PUSH4 0x651D08CD GT PUSH2 0x7C JUMPI DUP1 PUSH4 0x651D08CD EQ PUSH2 0x249 JUMPI DUP1 PUSH4 0x6FB7F558 EQ PUSH2 0x275 JUMPI DUP1 PUSH4 0x7F331636 EQ PUSH2 0x288 JUMPI DUP1 PUSH4 0xA230C524 EQ PUSH2 0x291 JUMPI DUP1 PUSH4 0xB5DD1158 EQ PUSH2 0x2D8 JUMPI DUP1 PUSH4 0xCC48B947 EQ PUSH2 0x2EB JUMPI DUP1 PUSH4 0xCF2A239C EQ PUSH2 0x2FE JUMPI PUSH1 0x0 DUP1 REVERT JUMPDEST DUP1 PUSH4 0x3E3C9AC EQ PUSH2 0xCF JUMPI DUP1 PUSH4 0x1703A018 EQ PUSH2 0xEB JUMPI DUP1 PUSH4 0x27FD92FD EQ PUSH2 0xF4 JUMPI DUP1 PUSH4 0x2E011C1E EQ PUSH2 0x11F JUMPI DUP1 PUSH4 0x3477EE2E EQ PUSH2 0x210 JUMPI DUP1 PUSH4 0x5903BD6C EQ PUSH2 0x223 JUMPI DUP1 PUSH4 0x5DAF08CA EQ PUSH2 0x236 JUMPI JUMPDEST PUSH1 0x0 DUP1 REVERT JUMPDEST PUSH2 0xD8 PUSH1 0x8 SLOAD DUP2 JUMP JUMPDEST PUSH1 0x40 MLOAD SWAP1 DUP2 MSTORE PUSH1 0x20 ADD JUMPDEST PUSH1 0x40 MLOAD DUP1 SWAP2 SUB SWAP1 RETURN JUMPDEST PUSH2 0xD8 PUSH1 0xA SLOAD DUP2 JUMP JUMPDEST PUSH1 0x2 SLOAD PUSH2 0x107 SWAP1 PUSH1 0x1 PUSH1 0x1 PUSH1 0xA0 SHL SUB AND DUP2 JUMP JUMPDEST PUSH1 0x40 MLOAD PUSH1 0x1 PUSH1 0x1 PUSH1 0xA0 SHL SUB SWAP1 SWAP2 AND DUP2 MSTORE PUSH1 0x20 ADD PUSH2 0xE2 JUMP JUMPDEST PUSH2 0x1BB PUSH2 0x12D CALLDATASIZE PUSH1 0x4 PUSH2 0x34B JUMP JUMPDEST PUSH1 0x40 DUP1 MLOAD PUSH1 0xA0 DUP1 DUP3 ADD DUP4 MSTORE PUSH1 0x0 DUP1 DUP4 MSTORE PUSH1 0x20 DUP1 DUP5 ADD DUP3 SWAP1 MSTORE DUP4 DUP6 ADD DUP3 SWAP1 MSTORE PUSH1 0x60 DUP1 DUP6 ADD DUP4 SWAP1 MSTORE PUSH1 0x80 SWAP5 DUP6 ADD DUP4 SWAP1 MSTORE PUSH1 0x1 PUSH1 0x1 PUSH1 0xA0 SHL SUB SWAP7 DUP8 AND DUP4 MSTORE PUSH1 0x9 DUP3 MSTORE SWAP2 DUP6 SWAP1 KECCAK256 DUP6 MLOAD SWAP4 DUP5 ADD DUP7 MSTORE DUP1 SLOAD SWAP1 SWAP7 AND DUP4 MSTORE PUSH1 0x1 DUP7 ADD SLOAD SWAP1 DUP4 ADD MSTORE PUSH1 0x2 DUP6 ADD SLOAD PUSH1 0x1 PUSH1 0x1 PUSH1 0x80 SHL SUB DUP1 DUP3 AND SWAP6 DUP5 ADD SWAP6 SWAP1 SWAP6 MSTORE PUSH1 0x1 PUSH1 0x80 SHL SWAP1 DIV DUP5 AND SWAP1 DUP3 ADD MSTORE PUSH1 0x3 SWAP1 SWAP4 ADD SLOAD SWAP1 SWAP2 AND SWAP1 DUP3 ADD MSTORE SWAP1 JUMP JUMPDEST PUSH1 0x40 DUP1 MLOAD DUP3 MLOAD PUSH1 0x1 PUSH1 0x1 PUSH1 0xA0 SHL SUB AND DUP2 MSTORE PUSH1 0x20 DUP1 DUP5 ADD MLOAD SWAP1 DUP3 ADD MSTORE DUP3 DUP3 ADD MLOAD PUSH1 0x1 PUSH1 0x1 PUSH1 0x80 SHL SUB SWAP1 DUP2 AND SWAP3 DUP3 ADD SWAP3 SWAP1 SWAP3 MSTORE PUSH1 0x60 DUP1 DUP5 ADD MLOAD DUP4 AND SWAP1 DUP3 ADD MSTORE PUSH1 0x80 SWAP3 DUP4 ADD MLOAD SWAP1 SWAP2 AND SWAP2 DUP2 ADD SWAP2 SWAP1 SWAP2 MSTORE PUSH1 0xA0 ADD PUSH2 0xE2 JUMP JUMPDEST PUSH2 0x107 PUSH2 0x21E CALLDATASIZE PUSH1 0x4 PUSH2 0x37B JUMP JUMPDEST PUSH2 0x311 JUMP JUMPDEST PUSH1 0x1 SLOAD PUSH2 0x107 SWAP1 PUSH1 0x1 PUSH1 0x1 PUSH1 0xA0 SHL SUB AND DUP2 JUMP JUMPDEST PUSH2 0x107 PUSH2 0x244 CALLDATASIZE PUSH1 0x4 PUSH2 0x37B JUMP JUMPDEST PUSH2 0x33B JUMP JUMPDEST PUSH2 0x107 PUSH2 0x257 CALLDATASIZE PUSH1 0x4 PUSH2 0x34B JUMP JUMPDEST PUSH1 0x1 PUSH1 0x1 PUSH1 0xA0 SHL SUB SWAP1 DUP2 AND PUSH1 0x0 SWAP1 DUP2 MSTORE PUSH1 0x9 PUSH1 0x20 MSTORE PUSH1 0x40 SWAP1 KECCAK256 SLOAD AND SWAP1 JUMP JUMPDEST PUSH1 0x5 SLOAD PUSH2 0x107 SWAP1 PUSH1 0x1 PUSH1 0x1 PUSH1 0xA0 SHL SUB AND DUP2 JUMP JUMPDEST PUSH2 0xD8 PUSH1 0xB SLOAD DUP2 JUMP JUMPDEST PUSH2 0x2C8 PUSH2 0x29F CALLDATASIZE PUSH1 0x4 PUSH2 0x34B JUMP JUMPDEST PUSH1 0x1 PUSH1 0x1 PUSH1 0xA0 SHL SUB AND PUSH1 0x0 SWAP1 DUP2 MSTORE PUSH1 0x9 PUSH1 0x20 MSTORE PUSH1 0x40 SWAP1 KECCAK256 PUSH1 0x2 ADD SLOAD PUSH1 0x1 PUSH1 0x1 PUSH1 0x80 SHL SUB AND ISZERO ISZERO SWAP1 JUMP JUMPDEST PUSH1 0x40 MLOAD SWAP1 ISZERO ISZERO DUP2 MSTORE PUSH1 0x20 ADD PUSH2 0xE2 JUMP JUMPDEST PUSH1 0x3 SLOAD PUSH2 0x107 SWAP1 PUSH1 0x1 PUSH1 0x1 PUSH1 0xA0 SHL SUB AND DUP2 JUMP JUMPDEST PUSH1 0x0 SLOAD PUSH2 0x107 SWAP1 PUSH1 0x1 PUSH1 0x1 PUSH1 0xA0 SHL SUB AND DUP2 JUMP JUMPDEST PUSH1 0x4 SLOAD PUSH2 0x107 SWAP1 PUSH1 0x1 PUSH1 0x1 PUSH1 0xA0 SHL SUB AND DUP2 JUMP JUMPDEST PUSH1 0x6 DUP2 DUP2 SLOAD DUP2 LT PUSH2 0x321 JUMPI PUSH1 0x0 DUP1 REVERT JUMPDEST PUSH1 0x0 SWAP2 DUP3 MSTORE PUSH1 0x20 SWAP1 SWAP2 KECCAK256 ADD SLOAD PUSH1 0x1 PUSH1 0x1 PUSH1 0xA0 SHL SUB AND SWAP1 POP DUP2 JUMP JUMPDEST PUSH1 0x7 DUP2 DUP2 SLOAD DUP2 LT PUSH2 0x321 JUMPI PUSH1 0x0 DUP1 REVERT JUMPDEST PUSH1 0x0 PUSH1 0x20 DUP3 DUP5 SUB SLT ISZERO PUSH2 0x35D JUMPI PUSH1 0x0 DUP1 REVERT JUMPDEST DUP2 CALLDATALOAD PUSH1 0x1 PUSH1 0x1 PUSH1 0xA0 SHL SUB DUP2 AND DUP2 EQ PUSH2 0x374 JUMPI PUSH1 0x0 DUP1 REVERT JUMPDEST SWAP4 SWAP3 POP POP POP JUMP JUMPDEST PUSH1 0x0 PUSH1 0x20 DUP3 DUP5 SUB SLT ISZERO PUSH2 0x38D JUMPI PUSH1 0x0 DUP1 REVERT JUMPDEST POP CALLDATALOAD SWAP2 SWAP1 POP JUMP INVALID LOG2 PUSH5 0x6970667358 0x22 SLT KECCAK256 0x4C 0xB9 0xD6 DUP4 0xEC PREVRANDAO ADDMOD PUSH21 0xEE2220CBB091AE178B022337C624F473C2EF075040 OR REVERT 0xD9 PUSH5 0x736F6C6343 STOP ADDMOD SLT STOP CALLER "},"gasEstimates":{"creation":{"codeDepositCost":"194000","executionCost":"238","totalCost":"194238"},"external":{"activityRewardPerSecond()":"2328","agendaManager()":"2382","candidateContract(address)":"2532","candidateFactory()":"2425","candidateInfos(address)":"9402","candidates(uint256)":"4703","daoVault()":"2448","isMember(address)":"2604","layer2Registry()":"2469","maxMember()":"2285","members(uint256)":"4747","quorum()":"2307","seigManager()":"2359","ton()":"2447"}},"methodIdentifiers":{"activityRewardPerSecond()":"7f331636","agendaManager()":"27fd92fd","candidateContract(address)":"651d08cd","candidateFactory()":"b5dd1158","candidateInfos(address)":"2e011c1e","candidates(uint256)":"3477ee2e","daoVault()":"5903bd6c","isMember(address)":"a230c524","layer2Registry()":"cf2a239c","maxMember()":"03e3c9ac","members(uint256)":"5daf08ca","quorum()":"1703a018","seigManager()":"6fb7f558","ton()":"cc48b947"}},"storageLayout":{"storage":[{"astId":2192,"contract":"contracts/dao/StorageStateCommittee.sol:StorageStateCommittee","label":"ton","offset":0,"slot":"0","type":"t_address"},{"astId":2196,"contract":"contracts/dao/StorageStateCommittee.sol:StorageStateCommittee","label":"daoVault","offset":0,"slot":"1","type":"t_contract(IDAOVault)3096"},{"astId":2200,"contract":"contracts/dao/StorageStateCommittee.sol:StorageStateCommittee","label":"agendaManager","offset":0,"slot":"2","type":"t_contract(IDAOAgendaManager)2773"},{"astId":2204,"contract":"contracts/dao/StorageStateCommittee.sol:StorageStateCommittee","label":"candidateFactory","offset":0,"slot":"3","type":"t_contract(ICandidateFactory)2492"},{"astId":2208,"contract":"contracts/dao/StorageStateCommittee.sol:StorageStateCommittee","label":"layer2Registry","offset":0,"slot":"4","type":"t_contract(ILayer2Registry)3150"},{"astId":2212,"contract":"contracts/dao/StorageStateCommittee.sol:StorageStateCommittee","label":"seigManager","offset":0,"slot":"5","type":"t_contract(ISeigManager)3334"},{"astId":2216,"contract":"contracts/dao/StorageStateCommittee.sol:StorageStateCommittee","label":"candidates","offset":0,"slot":"6","type":"t_array(t_address)dyn_storage"},{"astId":2220,"contract":"contracts/dao/StorageStateCommittee.sol:StorageStateCommittee","label":"members","offset":0,"slot":"7","type":"t_array(t_address)dyn_storage"},{"astId":2223,"contract":"contracts/dao/StorageStateCommittee.sol:StorageStateCommittee","label":"maxMember","offset":0,"slot":"8","type":"t_uint256"},{"astId":2228,"contract":"contracts/dao/StorageStateCommittee.sol:StorageStateCommittee","label":"_candidateInfos","offset":0,"slot":"9","type":"t_mapping(t_address,t_struct(CandidateInfo)3358_storage)"},{"astId":2231,"contract":"contracts/dao/StorageStateCommittee.sol:StorageStateCommittee","label":"quorum","offset":0,"slot":"10","type":"t_uint256"},{"astId":2234,"contract":"contracts/dao/StorageStateCommittee.sol:StorageStateCommittee","label":"activityRewardPerSecond","offset":0,"slot":"11","type":"t_uint256"}],"types":{"t_address":{"encoding":"inplace","label":"address","numberOfBytes":"20"},"t_array(t_address)dyn_storage":{"base":"t_address","encoding":"dynamic_array","label":"address[]","numberOfBytes":"32"},"t_contract(ICandidateFactory)2492":{"encoding":"inplace","label":"contract ICandidateFactory","numberOfBytes":"20"},"t_contract(IDAOAgendaManager)2773":{"encoding":"inplace","label":"contract IDAOAgendaManager","numberOfBytes":"20"},"t_contract(IDAOVault)3096":{"encoding":"inplace","label":"contract IDAOVault","numberOfBytes":"20"},"t_contract(ILayer2Registry)3150":{"encoding":"inplace","label":"contract ILayer2Registry","numberOfBytes":"20"},"t_contract(ISeigManager)3334":{"encoding":"inplace","label":"contract ISeigManager","numberOfBytes":"20"},"t_mapping(t_address,t_struct(CandidateInfo)3358_storage)":{"encoding":"mapping","key":"t_address","label":"mapping(address => struct IStorageStateCommittee.CandidateInfo)","numberOfBytes":"32","value":"t_struct(CandidateInfo)3358_storage"},"t_struct(CandidateInfo)3358_storage":{"encoding":"inplace","label":"struct IStorageStateCommittee.CandidateInfo","members":[{"astId":3349,"contract":"contracts/dao/StorageStateCommittee.sol:StorageStateCommittee","label":"candidateContract","offset":0,"slot":"0","type":"t_address"},{"astId":3351,"contract":"contracts/dao/StorageStateCommittee.sol:StorageStateCommittee","label":"indexMembers","offset":0,"slot":"1","type":"t_uint256"},{"astId":3353,"contract":"contracts/dao/StorageStateCommittee.sol:StorageStateCommittee","label":"memberJoinedTime","offset":0,"slot":"2","type":"t_uint128"},{"astId":3355,"contract":"contracts/dao/StorageStateCommittee.sol:StorageStateCommittee","label":"rewardPeriod","offset":16,"slot":"2","type":"t_uint128"},{"astId":3357,"contract":"contracts/dao/StorageStateCommittee.sol:StorageStateCommittee","label":"claimedTimestamp","offset":0,"slot":"3","type":"t_uint128"}],"numberOfBytes":"128"},"t_uint128":{"encoding":"inplace","label":"uint128","numberOfBytes":"16"},"t_uint256":{"encoding":"inplace","label":"uint256","numberOfBytes":"32"}}},"userdoc":{"kind":"user","methods":{},"version":1}}}}