{"contracts/test/CoinageFactory.sol":{"CoinageFactory":{"abi":[{"inputs":[],"name":"RAY","outputs":[{"internalType":"uint256","name":"","type":"uint256"}],"stateMutability":"view","type":"function"},{"inputs":[],"name":"deploy","outputs":[{"internalType":"address","name":"","type":"address"}],"stateMutability":"nonpayable","type":"function"}],"devdoc":{"kind":"dev","methods":{},"version":1},"evm":{"bytecode":{"linkReferences":{},"object":"608060405234801561001057600080fd5b50611668806100206000396000f3fe608060405234801561001057600080fd5b50600436106100365760003560e01c8063552033c41461003b578063775c300c14610061575b600080fd5b61004e6b033b2e3c9fd0803ce800000081565b6040519081526020015b60405180910390f35b610069610076565b60405161005891906101f8565b6000806b033b2e3c9fd0803ce8000000604051610092906101eb565b60608082526000908201819052608060208301819052820152604081019190915260a001604051809103906000f0801580156100d2573d6000803e3d6000fd5b50604051634c1d96ab60e11b81529091506001600160a01b0382169063983b2d56906101029033906004016101f8565b600060405180830381600087803b15801561011c57600080fd5b505af1158015610130573d6000803e3d6000fd5b50505050806001600160a01b031663986502756040518163ffffffff1660e01b8152600401600060405180830381600087803b15801561016f57600080fd5b505af1158015610183573d6000803e3d6000fd5b505060405163f2fde38b60e01b81526001600160a01b038416925063f2fde38b91506101b39033906004016101f8565b600060405180830381600087803b1580156101cd57600080fd5b505af11580156101e1573d6000803e3d6000fd5b5092949350505050565b6114268061020d83390190565b6001600160a01b039190911681526020019056fe60806040526b204fce5e3e2502611000000060045560026005553480156200002657600080fd5b50604051620014263803806200142683398101604081905262000049916200031b565b8282601b6200005833620000ab565b60016200006684826200041d565b5060026200007583826200041d565b506003805460ff191660ff92909216919091179055506200009f9050620000993390565b620000fb565b600b5550620004e99050565b600080546001600160a01b038381166001600160a01b0319831681178455604051919092169283917f8be0079c531659141344cd1fd0a4f28419497f9722a3daafe3b4186f6b6457e09190a35050565b6200011681600d6200014d60201b6200064f1790919060201c565b6040516001600160a01b038216907f6ae172837ea30b801fbfcdd4108aa1d5bf8ff775444fd70256b44e6bf3dfc3f690600090a250565b620001598282620001d1565b15620001ac5760405162461bcd60e51b815260206004820152601f60248201527f526f6c65733a206163636f756e7420616c72656164792068617320726f6c650060448201526064015b60405180910390fd5b6001600160a01b0316600090815260209190915260409020805460ff19166001179055565b60006001600160a01b038216620002365760405162461bcd60e51b815260206004820152602260248201527f526f6c65733a206163636f756e7420697320746865207a65726f206164647265604482015261737360f01b6064820152608401620001a3565b506001600160a01b03166000908152602091909152604090205460ff1690565b634e487b7160e01b600052604160045260246000fd5b600082601f8301126200027e57600080fd5b81516001600160401b03808211156200029b576200029b62000256565b604051601f8301601f19908116603f01168101908282118183101715620002c657620002c662000256565b81604052838152602092508683858801011115620002e357600080fd5b600091505b83821015620003075785820183015181830184015290820190620002e8565b600093810190920192909252949350505050565b6000806000606084860312156200033157600080fd5b83516001600160401b03808211156200034957600080fd5b62000357878388016200026c565b945060208601519150808211156200036e57600080fd5b506200037d868287016200026c565b925050604084015190509250925092565b600181811c90821680620003a357607f821691505b602082108103620003c457634e487b7160e01b600052602260045260246000fd5b50919050565b601f8211156200041857600081815260208120601f850160051c81016020861015620003f35750805b601f850160051c820191505b818110156200041457828155600101620003ff565b5050505b505050565b81516001600160401b0381111562000439576200043962000256565b62000451816200044a84546200038e565b84620003ca565b602080601f831160018114620004895760008415620004705750858301515b600019600386901b1c1916600185901b17855562000414565b600085815260208120601f198616915b82811015620004ba5788860151825594840194600190910190840162000499565b5085821015620004d95787850151600019600388901b60f8161c191681555b5050505050600190811b01905550565b610f2d80620004f96000396000f3fe608060405234801561001057600080fd5b506004361061016d5760003560e01c8063715018a6116100ce578063986502751161008757806398650275146102f8578063a7ac30b014610300578063a9059cbb146101a3578063aa271e1a14610309578063b7c246d71461031c578063dd62ed3e14610325578063f2fde38b1461033b57600080fd5b8063715018a61461029457806379cc67901461029c578063817e9d31146102af5780638da5cb5b146102c257806395d89b41146102dd578063983b2d56146102e557600080fd5b8063313ce5671161012b578063313ce567146102215780633eaaf86b1461023657806340c10f191461024857806342966c681461025b57806354f703f8146102705780636d1506111461027857806370a082311461028157600080fd5b8062d87a9c1461017257806306fdde031461018e578063095ea7b3146101a357806318160ddd146101c157806323b872dd146101c957806327e235e3146101d7575b600080fd5b61017b60055481565b6040519081526020015b60405180910390f35b61019661034e565b6040516101859190610cae565b6101b161016d366004610d18565b6040519015158152602001610185565b61017b6103e0565b6101b161016d366004610d42565b6102066101e5366004610d7e565b60076020526000908152604090208054600182015460029092015490919083565b60408051938452602084019290925290820152606001610185565b60035460405160ff9091168152602001610185565b600854600954600a5461020692919083565b6101b1610256366004610d18565b61040a565b61026e610269366004610d99565b61044e565b005b61017b61045b565b61017b600b5481565b61017b61028f366004610d7e565b610495565b61026e6104ce565b61026e6102aa366004610d18565b6104e2565b6101b16102bd366004610d99565b6104f0565b6000546040516001600160a01b039091168152602001610185565b610196610586565b61026e6102f3366004610d7e565b610595565b61026e6105c3565b61017b60065481565b6101b1610317366004610d7e565b6105cc565b61017b60045481565b61017b610333366004610db2565b600092915050565b61026e610349366004610d7e565b6105d9565b60606001805461035d90610de5565b80601f016020809104026020016040519081016040528092919081815260200182805461038990610de5565b80156103d65780601f106103ab576101008083540402835291602001916103d6565b820191906000526020600020905b8154815290600101906020018083116103b957829003601f168201915b5050505050905090565b60006104056008600201546103ff6008600001546008600101546106cb565b90610721565b905090565b6000610415336105cc565b61043a5760405162461bcd60e51b815260040161043190610e19565b60405180910390fd5b610444838361072d565b5060015b92915050565b610458338261083b565b50565b600b54600090815b60065481101561048f5760055461047b908390610932565b91508061048781610e7f565b915050610463565b50919050565b6001600160a01b03811660009081526007602052604081206002810154815460018301546104c792916103ff916106cb565b9392505050565b6104d661093e565b6104e06000610998565b565b6104ec82826109e8565b5050565b60006104fa61093e565b600b546000835b600454811061053357610515826001610721565b915061052c600554826109f290919063ffffffff16565b9050610501565b6006829055600b81905560408051848152602081018390529081018390527f47eb304b27f9efb047a046029f8a279a7cc8fccc6786f1e2f65939639584fbdc9060600160405180910390a1505050919050565b60606002805461035d90610de5565b61059e336105cc565b6105ba5760405162461bcd60e51b815260040161043190610e19565b610458816109fe565b6104e033610a40565b6000610448600d83610a82565b6105e161093e565b6001600160a01b0381166106465760405162461bcd60e51b815260206004820152602660248201527f4f776e61626c653a206e6577206f776e657220697320746865207a65726f206160448201526564647265737360d01b6064820152608401610431565b61045881610998565b6106598282610a82565b156106a65760405162461bcd60e51b815260206004820152601f60248201527f526f6c65733a206163636f756e7420616c72656164792068617320726f6c65006044820152606401610431565b6001600160a01b0316600090815260209190915260409020805460ff19166001179055565b6000826000036106dd57506000610448565b6106e983600b54610b05565b9250815b60065481101561071957600554610705908590610932565b93508061071181610e7f565b9150506106ed565b509192915050565b60006104c78284610e98565b6001600160a01b0382166107995760405162461bcd60e51b815260206004820152602d60248201527f4175746f5265666163746f72436f696e6167653a206d696e7420746f2074686560448201526c207a65726f206164647265737360981b6064820152608401610431565b6001600160a01b0382166000908152600760205260408120906107bb84610495565b905060006107c98285610721565b905060006107d682610b28565b808555600654600186015590506107ec85610b36565b6001600160a01b03861660007fddf252ad1be2c89b69c2b068fc378daa952ba7f163c4a11628f55a4df523b3ef61082284610b72565b60405190815260200160405180910390a3505050505050565b6001600160a01b0382166108a95760405162461bcd60e51b815260206004820152602f60248201527f4175746f5265666163746f72436f696e6167653a206275726e2066726f6d207460448201526e6865207a65726f206164647265737360881b6064820152608401610431565b6001600160a01b0382166000908152600760205260408120906108cb84610495565b905060006108d98285610b80565b905060006108e682610b28565b808555600654600186015590506108fc85610b8c565b60006001600160a01b0387167fddf252ad1be2c89b69c2b068fc378daa952ba7f163c4a11628f55a4df523b3ef61082284610b72565b60006104c78284610eab565b6000546001600160a01b031633146104e05760405162461bcd60e51b815260206004820181905260248201527f4f776e61626c653a2063616c6c6572206973206e6f7420746865206f776e65726044820152606401610431565b600080546001600160a01b038381166001600160a01b0319831681178455604051919092169283917f8be0079c531659141344cd1fd0a4f28419497f9722a3daafe3b4186f6b6457e09190a35050565b6104ec828261083b565b60006104c78284610ec2565b610a09600d8261064f565b6040516001600160a01b038216907f6ae172837ea30b801fbfcdd4108aa1d5bf8ff775444fd70256b44e6bf3dfc3f690600090a250565b610a4b600d82610bac565b6040516001600160a01b038216907fe94479a9f7e1952cc78f2d6baab678adc1b772d936c6583def489e524cb6669290600090a250565b60006001600160a01b038216610ae55760405162461bcd60e51b815260206004820152602260248201527f526f6c65733a206163636f756e7420697320746865207a65726f206164647265604482015261737360f01b6064820152608401610431565b506001600160a01b03166000908152602091909152604090205460ff1690565b60006b033b2e3c9fd0803ce8000000610b1e8484610c2e565b6104c79190610ec2565b600061044882600b54610c95565b600854600954600091610b48916106cb565b90506000610b568284610721565b90506000610b6382610b28565b60085550506006546009555050565b600061044882600b54610b05565b60006104c78284610ee4565b600854600954600091610b9e916106cb565b90506000610b568284610b80565b610bb68282610a82565b610c0c5760405162461bcd60e51b815260206004820152602160248201527f526f6c65733a206163636f756e7420646f6573206e6f74206861766520726f6c6044820152606560f81b6064820152608401610431565b6001600160a01b0316600090815260209190915260409020805460ff19169055565b6000811580610c5257508282610c448183610eab565b9250610c509083610ec2565b145b6104485760405162461bcd60e51b815260206004820152601460248201527364732d6d6174682d6d756c2d6f766572666c6f7760601b6044820152606401610431565b600081610b1e846b033b2e3c9fd0803ce8000000610c2e565b600060208083528351808285015260005b81811015610cdb57858101830151858201604001528201610cbf565b506000604082860101526040601f19601f8301168501019250505092915050565b80356001600160a01b0381168114610d1357600080fd5b919050565b60008060408385031215610d2b57600080fd5b610d3483610cfc565b946020939093013593505050565b600080600060608486031215610d5757600080fd5b610d6084610cfc565b9250610d6e60208501610cfc565b9150604084013590509250925092565b600060208284031215610d9057600080fd5b6104c782610cfc565b600060208284031215610dab57600080fd5b5035919050565b60008060408385031215610dc557600080fd5b610dce83610cfc565b9150610ddc60208401610cfc565b90509250929050565b600181811c90821680610df957607f821691505b60208210810361048f57634e487b7160e01b600052602260045260246000fd5b60208082526030908201527f4d696e746572526f6c653a2063616c6c657220646f6573206e6f74206861766560408201526f20746865204d696e74657220726f6c6560801b606082015260800190565b634e487b7160e01b600052601160045260246000fd5b600060018201610e9157610e91610e69565b5060010190565b8082018082111561044857610448610e69565b808202811582820484141761044857610448610e69565b600082610edf57634e487b7160e01b600052601260045260246000fd5b500490565b8181038181111561044857610448610e6956fea26469706673582212208093112b9db0b5db714b3a42f5266c201f24297d7071c6df5474f4735bda0e3264736f6c63430008120033a264697066735822122000b89497e25454f3c5cb6bb34a1d71cfdb0535a54100959b9a51fc2de4c3ce2964736f6c63430008120033","opcodes":"PUSH1 0x80 PUSH1 0x40 MSTORE CALLVALUE DUP1 ISZERO PUSH2 0x10 JUMPI PUSH1 0x0 DUP1 REVERT JUMPDEST POP PUSH2 0x1668 DUP1 PUSH2 0x20 PUSH1 0x0 CODECOPY PUSH1 0x0 RETURN INVALID PUSH1 0x80 PUSH1 0x40 MSTORE CALLVALUE DUP1 ISZERO PUSH2 0x10 JUMPI PUSH1 0x0 DUP1 REVERT JUMPDEST POP PUSH1 0x4 CALLDATASIZE LT PUSH2 0x36 JUMPI PUSH1 0x0 CALLDATALOAD PUSH1 0xE0 SHR DUP1 PUSH4 0x552033C4 EQ PUSH2 0x3B JUMPI DUP1 PUSH4 0x775C300C EQ PUSH2 0x61 JUMPI JUMPDEST PUSH1 0x0 DUP1 REVERT JUMPDEST PUSH2 0x4E PUSH12 0x33B2E3C9FD0803CE8000000 DUP2 JUMP JUMPDEST PUSH1 0x40 MLOAD SWAP1 DUP2 MSTORE PUSH1 0x20 ADD JUMPDEST PUSH1 0x40 MLOAD DUP1 SWAP2 SUB SWAP1 RETURN JUMPDEST PUSH2 0x69 PUSH2 0x76 JUMP JUMPDEST PUSH1 0x40 MLOAD PUSH2 0x58 SWAP2 SWAP1 PUSH2 0x1F8 JUMP JUMPDEST PUSH1 0x0 DUP1 PUSH12 0x33B2E3C9FD0803CE8000000 PUSH1 0x40 MLOAD PUSH2 0x92 SWAP1 PUSH2 0x1EB JUMP JUMPDEST PUSH1 0x60 DUP1 DUP3 MSTORE PUSH1 0x0 SWAP1 DUP3 ADD DUP2 SWAP1 MSTORE PUSH1 0x80 PUSH1 0x20 DUP4 ADD DUP2 SWAP1 MSTORE DUP3 ADD MSTORE PUSH1 0x40 DUP2 ADD SWAP2 SWAP1 SWAP2 MSTORE PUSH1 0xA0 ADD PUSH1 0x40 MLOAD DUP1 SWAP2 SUB SWAP1 PUSH1 0x0 CREATE DUP1 ISZERO DUP1 ISZERO PUSH2 0xD2 JUMPI RETURNDATASIZE PUSH1 0x0 DUP1 RETURNDATACOPY RETURNDATASIZE PUSH1 0x0 REVERT JUMPDEST POP PUSH1 0x40 MLOAD PUSH4 0x4C1D96AB PUSH1 0xE1 SHL DUP2 MSTORE SWAP1 SWAP2 POP PUSH1 0x1 PUSH1 0x1 PUSH1 0xA0 SHL SUB DUP3 AND SWAP1 PUSH4 0x983B2D56 SWAP1 PUSH2 0x102 SWAP1 CALLER SWAP1 PUSH1 0x4 ADD PUSH2 0x1F8 JUMP JUMPDEST PUSH1 0x0 PUSH1 0x40 MLOAD DUP1 DUP4 SUB DUP2 PUSH1 0x0 DUP8 DUP1 EXTCODESIZE ISZERO DUP1 ISZERO PUSH2 0x11C JUMPI PUSH1 0x0 DUP1 REVERT JUMPDEST POP GAS CALL ISZERO DUP1 ISZERO PUSH2 0x130 JUMPI RETURNDATASIZE PUSH1 0x0 DUP1 RETURNDATACOPY RETURNDATASIZE PUSH1 0x0 REVERT JUMPDEST POP POP POP POP DUP1 PUSH1 0x1 PUSH1 0x1 PUSH1 0xA0 SHL SUB AND PUSH4 0x98650275 PUSH1 0x40 MLOAD DUP2 PUSH4 0xFFFFFFFF AND PUSH1 0xE0 SHL DUP2 MSTORE PUSH1 0x4 ADD PUSH1 0x0 PUSH1 0x40 MLOAD DUP1 DUP4 SUB DUP2 PUSH1 0x0 DUP8 DUP1 EXTCODESIZE ISZERO DUP1 ISZERO PUSH2 0x16F JUMPI PUSH1 0x0 DUP1 REVERT JUMPDEST POP GAS CALL ISZERO DUP1 ISZERO PUSH2 0x183 JUMPI RETURNDATASIZE PUSH1 0x0 DUP1 RETURNDATACOPY RETURNDATASIZE PUSH1 0x0 REVERT JUMPDEST POP POP PUSH1 0x40 MLOAD PUSH4 0xF2FDE38B PUSH1 0xE0 SHL DUP2 MSTORE PUSH1 0x1 PUSH1 0x1 PUSH1 0xA0 SHL SUB DUP5 AND SWAP3 POP PUSH4 0xF2FDE38B SWAP2 POP PUSH2 0x1B3 SWAP1 CALLER SWAP1 PUSH1 0x4 ADD PUSH2 0x1F8 JUMP JUMPDEST PUSH1 0x0 PUSH1 0x40 MLOAD DUP1 DUP4 SUB DUP2 PUSH1 0x0 DUP8 DUP1 EXTCODESIZE ISZERO DUP1 ISZERO PUSH2 0x1CD JUMPI PUSH1 0x0 DUP1 REVERT JUMPDEST POP GAS CALL ISZERO DUP1 ISZERO PUSH2 0x1E1 JUMPI RETURNDATASIZE PUSH1 0x0 DUP1 RETURNDATACOPY RETURNDATASIZE PUSH1 0x0 REVERT JUMPDEST POP SWAP3 SWAP5 SWAP4 POP POP POP POP JUMP JUMPDEST PUSH2 0x1426 DUP1 PUSH2 0x20D DUP4 CODECOPY ADD SWAP1 JUMP JUMPDEST PUSH1 0x1 PUSH1 0x1 PUSH1 0xA0 SHL SUB SWAP2 SWAP1 SWAP2 AND DUP2 MSTORE PUSH1 0x20 ADD SWAP1 JUMP INVALID PUSH1 0x80 PUSH1 0x40 MSTORE PUSH12 0x204FCE5E3E25026110000000 PUSH1 0x4 SSTORE PUSH1 0x2 PUSH1 0x5 SSTORE CALLVALUE DUP1 ISZERO PUSH3 0x26 JUMPI PUSH1 0x0 DUP1 REVERT JUMPDEST POP PUSH1 0x40 MLOAD PUSH3 0x1426 CODESIZE SUB DUP1 PUSH3 0x1426 DUP4 CODECOPY DUP2 ADD PUSH1 0x40 DUP2 SWAP1 MSTORE PUSH3 0x49 SWAP2 PUSH3 0x31B JUMP JUMPDEST DUP3 DUP3 PUSH1 0x1B PUSH3 0x58 CALLER PUSH3 0xAB JUMP JUMPDEST PUSH1 0x1 PUSH3 0x66 DUP5 DUP3 PUSH3 0x41D JUMP JUMPDEST POP PUSH1 0x2 PUSH3 0x75 DUP4 DUP3 PUSH3 0x41D JUMP JUMPDEST POP PUSH1 0x3 DUP1 SLOAD PUSH1 0xFF NOT AND PUSH1 0xFF SWAP3 SWAP1 SWAP3 AND SWAP2 SWAP1 SWAP2 OR SWAP1 SSTORE POP PUSH3 0x9F SWAP1 POP PUSH3 0x99 CALLER SWAP1 JUMP JUMPDEST PUSH3 0xFB JUMP JUMPDEST PUSH1 0xB SSTORE POP PUSH3 0x4E9 SWAP1 POP JUMP JUMPDEST PUSH1 0x0 DUP1 SLOAD PUSH1 0x1 PUSH1 0x1 PUSH1 0xA0 SHL SUB DUP4 DUP2 AND PUSH1 0x1 PUSH1 0x1 PUSH1 0xA0 SHL SUB NOT DUP4 AND DUP2 OR DUP5 SSTORE PUSH1 0x40 MLOAD SWAP2 SWAP1 SWAP3 AND SWAP3 DUP4 SWAP2 PUSH32 0x8BE0079C531659141344CD1FD0A4F28419497F9722A3DAAFE3B4186F6B6457E0 SWAP2 SWAP1 LOG3 POP POP JUMP JUMPDEST PUSH3 0x116 DUP2 PUSH1 0xD PUSH3 0x14D PUSH1 0x20 SHL PUSH3 0x64F OR SWAP1 SWAP2 SWAP1 PUSH1 0x20 SHR JUMP JUMPDEST PUSH1 0x40 MLOAD PUSH1 0x1 PUSH1 0x1 PUSH1 0xA0 SHL SUB DUP3 AND SWAP1 PUSH32 0x6AE172837EA30B801FBFCDD4108AA1D5BF8FF775444FD70256B44E6BF3DFC3F6 SWAP1 PUSH1 0x0 SWAP1 LOG2 POP JUMP JUMPDEST PUSH3 0x159 DUP3 DUP3 PUSH3 0x1D1 JUMP JUMPDEST ISZERO PUSH3 0x1AC JUMPI PUSH1 0x40 MLOAD PUSH3 0x461BCD PUSH1 0xE5 SHL DUP2 MSTORE PUSH1 0x20 PUSH1 0x4 DUP3 ADD MSTORE PUSH1 0x1F PUSH1 0x24 DUP3 ADD MSTORE PUSH32 0x526F6C65733A206163636F756E7420616C72656164792068617320726F6C6500 PUSH1 0x44 DUP3 ADD MSTORE PUSH1 0x64 ADD JUMPDEST PUSH1 0x40 MLOAD DUP1 SWAP2 SUB SWAP1 REVERT JUMPDEST PUSH1 0x1 PUSH1 0x1 PUSH1 0xA0 SHL SUB AND PUSH1 0x0 SWAP1 DUP2 MSTORE PUSH1 0x20 SWAP2 SWAP1 SWAP2 MSTORE PUSH1 0x40 SWAP1 KECCAK256 DUP1 SLOAD PUSH1 0xFF NOT AND PUSH1 0x1 OR SWAP1 SSTORE JUMP JUMPDEST PUSH1 0x0 PUSH1 0x1 PUSH1 0x1 PUSH1 0xA0 SHL SUB DUP3 AND PUSH3 0x236 JUMPI PUSH1 0x40 MLOAD PUSH3 0x461BCD PUSH1 0xE5 SHL DUP2 MSTORE PUSH1 0x20 PUSH1 0x4 DUP3 ADD MSTORE PUSH1 0x22 PUSH1 0x24 DUP3 ADD MSTORE PUSH32 0x526F6C65733A206163636F756E7420697320746865207A65726F206164647265 PUSH1 0x44 DUP3 ADD MSTORE PUSH2 0x7373 PUSH1 0xF0 SHL PUSH1 0x64 DUP3 ADD MSTORE PUSH1 0x84 ADD PUSH3 0x1A3 JUMP JUMPDEST POP PUSH1 0x1 PUSH1 0x1 PUSH1 0xA0 SHL SUB AND PUSH1 0x0 SWAP1 DUP2 MSTORE PUSH1 0x20 SWAP2 SWAP1 SWAP2 MSTORE PUSH1 0x40 SWAP1 KECCAK256 SLOAD PUSH1 0xFF AND SWAP1 JUMP JUMPDEST PUSH4 0x4E487B71 PUSH1 0xE0 SHL PUSH1 0x0 MSTORE PUSH1 0x41 PUSH1 0x4 MSTORE PUSH1 0x24 PUSH1 0x0 REVERT JUMPDEST PUSH1 0x0 DUP3 PUSH1 0x1F DUP4 ADD SLT PUSH3 0x27E JUMPI PUSH1 0x0 DUP1 REVERT JUMPDEST DUP2 MLOAD PUSH1 0x1 PUSH1 0x1 PUSH1 0x40 SHL SUB DUP1 DUP3 GT ISZERO PUSH3 0x29B JUMPI PUSH3 0x29B PUSH3 0x256 JUMP JUMPDEST PUSH1 0x40 MLOAD PUSH1 0x1F DUP4 ADD PUSH1 0x1F NOT SWAP1 DUP2 AND PUSH1 0x3F ADD AND DUP2 ADD SWAP1 DUP3 DUP3 GT DUP2 DUP4 LT OR ISZERO PUSH3 0x2C6 JUMPI PUSH3 0x2C6 PUSH3 0x256 JUMP JUMPDEST DUP2 PUSH1 0x40 MSTORE DUP4 DUP2 MSTORE PUSH1 0x20 SWAP3 POP DUP7 DUP4 DUP6 DUP9 ADD ADD GT ISZERO PUSH3 0x2E3 JUMPI PUSH1 0x0 DUP1 REVERT JUMPDEST PUSH1 0x0 SWAP2 POP JUMPDEST DUP4 DUP3 LT ISZERO PUSH3 0x307 JUMPI DUP6 DUP3 ADD DUP4 ADD MLOAD DUP2 DUP4 ADD DUP5 ADD MSTORE SWAP1 DUP3 ADD SWAP1 PUSH3 0x2E8 JUMP JUMPDEST PUSH1 0x0 SWAP4 DUP2 ADD SWAP1 SWAP3 ADD SWAP3 SWAP1 SWAP3 MSTORE SWAP5 SWAP4 POP POP POP POP JUMP JUMPDEST PUSH1 0x0 DUP1 PUSH1 0x0 PUSH1 0x60 DUP5 DUP7 SUB SLT ISZERO PUSH3 0x331 JUMPI PUSH1 0x0 DUP1 REVERT JUMPDEST DUP4 MLOAD PUSH1 0x1 PUSH1 0x1 PUSH1 0x40 SHL SUB DUP1 DUP3 GT ISZERO PUSH3 0x349 JUMPI PUSH1 0x0 DUP1 REVERT JUMPDEST PUSH3 0x357 DUP8 DUP4 DUP9 ADD PUSH3 0x26C JUMP JUMPDEST SWAP5 POP PUSH1 0x20 DUP7 ADD MLOAD SWAP2 POP DUP1 DUP3 GT ISZERO PUSH3 0x36E JUMPI PUSH1 0x0 DUP1 REVERT JUMPDEST POP PUSH3 0x37D DUP7 DUP3 DUP8 ADD PUSH3 0x26C JUMP JUMPDEST SWAP3 POP POP PUSH1 0x40 DUP5 ADD MLOAD SWAP1 POP SWAP3 POP SWAP3 POP SWAP3 JUMP JUMPDEST PUSH1 0x1 DUP2 DUP2 SHR SWAP1 DUP3 AND DUP1 PUSH3 0x3A3 JUMPI PUSH1 0x7F DUP3 AND SWAP2 POP JUMPDEST PUSH1 0x20 DUP3 LT DUP2 SUB PUSH3 0x3C4 JUMPI PUSH4 0x4E487B71 PUSH1 0xE0 SHL PUSH1 0x0 MSTORE PUSH1 0x22 PUSH1 0x4 MSTORE PUSH1 0x24 PUSH1 0x0 REVERT JUMPDEST POP SWAP2 SWAP1 POP JUMP JUMPDEST PUSH1 0x1F DUP3 GT ISZERO PUSH3 0x418 JUMPI PUSH1 0x0 DUP2 DUP2 MSTORE PUSH1 0x20 DUP2 KECCAK256 PUSH1 0x1F DUP6 ADD PUSH1 0x5 SHR DUP2 ADD PUSH1 0x20 DUP7 LT ISZERO PUSH3 0x3F3 JUMPI POP DUP1 JUMPDEST PUSH1 0x1F DUP6 ADD PUSH1 0x5 SHR DUP3 ADD SWAP2 POP JUMPDEST DUP2 DUP2 LT ISZERO PUSH3 0x414 JUMPI DUP3 DUP2 SSTORE PUSH1 0x1 ADD PUSH3 0x3FF JUMP JUMPDEST POP POP POP JUMPDEST POP POP POP JUMP JUMPDEST DUP2 MLOAD PUSH1 0x1 PUSH1 0x1 PUSH1 0x40 SHL SUB DUP2 GT ISZERO PUSH3 0x439 JUMPI PUSH3 0x439 PUSH3 0x256 JUMP JUMPDEST PUSH3 0x451 DUP2 PUSH3 0x44A DUP5 SLOAD PUSH3 0x38E JUMP JUMPDEST DUP5 PUSH3 0x3CA JUMP JUMPDEST PUSH1 0x20 DUP1 PUSH1 0x1F DUP4 GT PUSH1 0x1 DUP2 EQ PUSH3 0x489 JUMPI PUSH1 0x0 DUP5 ISZERO PUSH3 0x470 JUMPI POP DUP6 DUP4 ADD MLOAD JUMPDEST PUSH1 0x0 NOT PUSH1 0x3 DUP7 SWAP1 SHL SHR NOT AND PUSH1 0x1 DUP6 SWAP1 SHL OR DUP6 SSTORE PUSH3 0x414 JUMP JUMPDEST PUSH1 0x0 DUP6 DUP2 MSTORE PUSH1 0x20 DUP2 KECCAK256 PUSH1 0x1F NOT DUP7 AND SWAP2 JUMPDEST DUP3 DUP2 LT ISZERO PUSH3 0x4BA JUMPI DUP9 DUP7 ADD MLOAD DUP3 SSTORE SWAP5 DUP5 ADD SWAP5 PUSH1 0x1 SWAP1 SWAP2 ADD SWAP1 DUP5 ADD PUSH3 0x499 JUMP JUMPDEST POP DUP6 DUP3 LT ISZERO PUSH3 0x4D9 JUMPI DUP8 DUP6 ADD MLOAD PUSH1 0x0 NOT PUSH1 0x3 DUP9 SWAP1 SHL PUSH1 0xF8 AND SHR NOT AND DUP2 SSTORE JUMPDEST POP POP POP POP POP PUSH1 0x1 SWAP1 DUP2 SHL ADD SWAP1 SSTORE POP JUMP JUMPDEST PUSH2 0xF2D DUP1 PUSH3 0x4F9 PUSH1 0x0 CODECOPY PUSH1 0x0 RETURN INVALID PUSH1 0x80 PUSH1 0x40 MSTORE CALLVALUE DUP1 ISZERO PUSH2 0x10 JUMPI PUSH1 0x0 DUP1 REVERT JUMPDEST POP PUSH1 0x4 CALLDATASIZE LT PUSH2 0x16D JUMPI PUSH1 0x0 CALLDATALOAD PUSH1 0xE0 SHR DUP1 PUSH4 0x715018A6 GT PUSH2 0xCE JUMPI DUP1 PUSH4 0x98650275 GT PUSH2 0x87 JUMPI DUP1 PUSH4 0x98650275 EQ PUSH2 0x2F8 JUMPI DUP1 PUSH4 0xA7AC30B0 EQ PUSH2 0x300 JUMPI DUP1 PUSH4 0xA9059CBB EQ PUSH2 0x1A3 JUMPI DUP1 PUSH4 0xAA271E1A EQ PUSH2 0x309 JUMPI DUP1 PUSH4 0xB7C246D7 EQ PUSH2 0x31C JUMPI DUP1 PUSH4 0xDD62ED3E EQ PUSH2 0x325 JUMPI DUP1 PUSH4 0xF2FDE38B EQ PUSH2 0x33B JUMPI PUSH1 0x0 DUP1 REVERT JUMPDEST DUP1 PUSH4 0x715018A6 EQ PUSH2 0x294 JUMPI DUP1 PUSH4 0x79CC6790 EQ PUSH2 0x29C JUMPI DUP1 PUSH4 0x817E9D31 EQ PUSH2 0x2AF JUMPI DUP1 PUSH4 0x8DA5CB5B EQ PUSH2 0x2C2 JUMPI DUP1 PUSH4 0x95D89B41 EQ PUSH2 0x2DD JUMPI DUP1 PUSH4 0x983B2D56 EQ PUSH2 0x2E5 JUMPI PUSH1 0x0 DUP1 REVERT JUMPDEST DUP1 PUSH4 0x313CE567 GT PUSH2 0x12B JUMPI DUP1 PUSH4 0x313CE567 EQ PUSH2 0x221 JUMPI DUP1 PUSH4 0x3EAAF86B EQ PUSH2 0x236 JUMPI DUP1 PUSH4 0x40C10F19 EQ PUSH2 0x248 JUMPI DUP1 PUSH4 0x42966C68 EQ PUSH2 0x25B JUMPI DUP1 PUSH4 0x54F703F8 EQ PUSH2 0x270 JUMPI DUP1 PUSH4 0x6D150611 EQ PUSH2 0x278 JUMPI DUP1 PUSH4 0x70A08231 EQ PUSH2 0x281 JUMPI PUSH1 0x0 DUP1 REVERT JUMPDEST DUP1 PUSH3 0xD87A9C EQ PUSH2 0x172 JUMPI DUP1 PUSH4 0x6FDDE03 EQ PUSH2 0x18E JUMPI DUP1 PUSH4 0x95EA7B3 EQ PUSH2 0x1A3 JUMPI DUP1 PUSH4 0x18160DDD EQ PUSH2 0x1C1 JUMPI DUP1 PUSH4 0x23B872DD EQ PUSH2 0x1C9 JUMPI DUP1 PUSH4 0x27E235E3 EQ PUSH2 0x1D7 JUMPI JUMPDEST PUSH1 0x0 DUP1 REVERT JUMPDEST PUSH2 0x17B PUSH1 0x5 SLOAD DUP2 JUMP JUMPDEST PUSH1 0x40 MLOAD SWAP1 DUP2 MSTORE PUSH1 0x20 ADD JUMPDEST PUSH1 0x40 MLOAD DUP1 SWAP2 SUB SWAP1 RETURN JUMPDEST PUSH2 0x196 PUSH2 0x34E JUMP JUMPDEST PUSH1 0x40 MLOAD PUSH2 0x185 SWAP2 SWAP1 PUSH2 0xCAE JUMP JUMPDEST PUSH2 0x1B1 PUSH2 0x16D CALLDATASIZE PUSH1 0x4 PUSH2 0xD18 JUMP JUMPDEST PUSH1 0x40 MLOAD SWAP1 ISZERO ISZERO DUP2 MSTORE PUSH1 0x20 ADD PUSH2 0x185 JUMP JUMPDEST PUSH2 0x17B PUSH2 0x3E0 JUMP JUMPDEST PUSH2 0x1B1 PUSH2 0x16D CALLDATASIZE PUSH1 0x4 PUSH2 0xD42 JUMP JUMPDEST PUSH2 0x206 PUSH2 0x1E5 CALLDATASIZE PUSH1 0x4 PUSH2 0xD7E JUMP JUMPDEST PUSH1 0x7 PUSH1 0x20 MSTORE PUSH1 0x0 SWAP1 DUP2 MSTORE PUSH1 0x40 SWAP1 KECCAK256 DUP1 SLOAD PUSH1 0x1 DUP3 ADD SLOAD PUSH1 0x2 SWAP1 SWAP3 ADD SLOAD SWAP1 SWAP2 SWAP1 DUP4 JUMP JUMPDEST PUSH1 0x40 DUP1 MLOAD SWAP4 DUP5 MSTORE PUSH1 0x20 DUP5 ADD SWAP3 SWAP1 SWAP3 MSTORE SWAP1 DUP3 ADD MSTORE PUSH1 0x60 ADD PUSH2 0x185 JUMP JUMPDEST PUSH1 0x3 SLOAD PUSH1 0x40 MLOAD PUSH1 0xFF SWAP1 SWAP2 AND DUP2 MSTORE PUSH1 0x20 ADD PUSH2 0x185 JUMP JUMPDEST PUSH1 0x8 SLOAD PUSH1 0x9 SLOAD PUSH1 0xA SLOAD PUSH2 0x206 SWAP3 SWAP2 SWAP1 DUP4 JUMP JUMPDEST PUSH2 0x1B1 PUSH2 0x256 CALLDATASIZE PUSH1 0x4 PUSH2 0xD18 JUMP JUMPDEST PUSH2 0x40A JUMP JUMPDEST PUSH2 0x26E PUSH2 0x269 CALLDATASIZE PUSH1 0x4 PUSH2 0xD99 JUMP JUMPDEST PUSH2 0x44E JUMP JUMPDEST STOP JUMPDEST PUSH2 0x17B PUSH2 0x45B JUMP JUMPDEST PUSH2 0x17B PUSH1 0xB SLOAD DUP2 JUMP JUMPDEST PUSH2 0x17B PUSH2 0x28F CALLDATASIZE PUSH1 0x4 PUSH2 0xD7E JUMP JUMPDEST PUSH2 0x495 JUMP JUMPDEST PUSH2 0x26E PUSH2 0x4CE JUMP JUMPDEST PUSH2 0x26E PUSH2 0x2AA CALLDATASIZE PUSH1 0x4 PUSH2 0xD18 JUMP JUMPDEST PUSH2 0x4E2 JUMP JUMPDEST PUSH2 0x1B1 PUSH2 0x2BD CALLDATASIZE PUSH1 0x4 PUSH2 0xD99 JUMP JUMPDEST PUSH2 0x4F0 JUMP JUMPDEST PUSH1 0x0 SLOAD PUSH1 0x40 MLOAD PUSH1 0x1 PUSH1 0x1 PUSH1 0xA0 SHL SUB SWAP1 SWAP2 AND DUP2 MSTORE PUSH1 0x20 ADD PUSH2 0x185 JUMP JUMPDEST PUSH2 0x196 PUSH2 0x586 JUMP JUMPDEST PUSH2 0x26E PUSH2 0x2F3 CALLDATASIZE PUSH1 0x4 PUSH2 0xD7E JUMP JUMPDEST PUSH2 0x595 JUMP JUMPDEST PUSH2 0x26E PUSH2 0x5C3 JUMP JUMPDEST PUSH2 0x17B PUSH1 0x6 SLOAD DUP2 JUMP JUMPDEST PUSH2 0x1B1 PUSH2 0x317 CALLDATASIZE PUSH1 0x4 PUSH2 0xD7E JUMP JUMPDEST PUSH2 0x5CC JUMP JUMPDEST PUSH2 0x17B PUSH1 0x4 SLOAD DUP2 JUMP JUMPDEST PUSH2 0x17B PUSH2 0x333 CALLDATASIZE PUSH1 0x4 PUSH2 0xDB2 JUMP JUMPDEST PUSH1 0x0 SWAP3 SWAP2 POP POP JUMP JUMPDEST PUSH2 0x26E PUSH2 0x349 CALLDATASIZE PUSH1 0x4 PUSH2 0xD7E JUMP JUMPDEST PUSH2 0x5D9 JUMP JUMPDEST PUSH1 0x60 PUSH1 0x1 DUP1 SLOAD PUSH2 0x35D SWAP1 PUSH2 0xDE5 JUMP JUMPDEST DUP1 PUSH1 0x1F ADD PUSH1 0x20 DUP1 SWAP2 DIV MUL PUSH1 0x20 ADD PUSH1 0x40 MLOAD SWAP1 DUP2 ADD PUSH1 0x40 MSTORE DUP1 SWAP3 SWAP2 SWAP1 DUP2 DUP2 MSTORE PUSH1 0x20 ADD DUP3 DUP1 SLOAD PUSH2 0x389 SWAP1 PUSH2 0xDE5 JUMP JUMPDEST DUP1 ISZERO PUSH2 0x3D6 JUMPI DUP1 PUSH1 0x1F LT PUSH2 0x3AB JUMPI PUSH2 0x100 DUP1 DUP4 SLOAD DIV MUL DUP4 MSTORE SWAP2 PUSH1 0x20 ADD SWAP2 PUSH2 0x3D6 JUMP JUMPDEST DUP3 ADD SWAP2 SWAP1 PUSH1 0x0 MSTORE PUSH1 0x20 PUSH1 0x0 KECCAK256 SWAP1 JUMPDEST DUP2 SLOAD DUP2 MSTORE SWAP1 PUSH1 0x1 ADD SWAP1 PUSH1 0x20 ADD DUP1 DUP4 GT PUSH2 0x3B9 JUMPI DUP3 SWAP1 SUB PUSH1 0x1F AND DUP3 ADD SWAP2 JUMPDEST POP POP POP POP POP SWAP1 POP SWAP1 JUMP JUMPDEST PUSH1 0x0 PUSH2 0x405 PUSH1 0x8 PUSH1 0x2 ADD SLOAD PUSH2 0x3FF PUSH1 0x8 PUSH1 0x0 ADD SLOAD PUSH1 0x8 PUSH1 0x1 ADD SLOAD PUSH2 0x6CB JUMP JUMPDEST SWAP1 PUSH2 0x721 JUMP JUMPDEST SWAP1 POP SWAP1 JUMP JUMPDEST PUSH1 0x0 PUSH2 0x415 CALLER PUSH2 0x5CC JUMP JUMPDEST PUSH2 0x43A JUMPI PUSH1 0x40 MLOAD PUSH3 0x461BCD PUSH1 0xE5 SHL DUP2 MSTORE PUSH1 0x4 ADD PUSH2 0x431 SWAP1 PUSH2 0xE19 JUMP JUMPDEST PUSH1 0x40 MLOAD DUP1 SWAP2 SUB SWAP1 REVERT JUMPDEST PUSH2 0x444 DUP4 DUP4 PUSH2 0x72D JUMP JUMPDEST POP PUSH1 0x1 JUMPDEST SWAP3 SWAP2 POP POP JUMP JUMPDEST PUSH2 0x458 CALLER DUP3 PUSH2 0x83B JUMP JUMPDEST POP JUMP JUMPDEST PUSH1 0xB SLOAD PUSH1 0x0 SWAP1 DUP2 JUMPDEST PUSH1 0x6 SLOAD DUP2 LT ISZERO PUSH2 0x48F JUMPI PUSH1 0x5 SLOAD PUSH2 0x47B SWAP1 DUP4 SWAP1 PUSH2 0x932 JUMP JUMPDEST SWAP2 POP DUP1 PUSH2 0x487 DUP2 PUSH2 0xE7F JUMP JUMPDEST SWAP2 POP POP PUSH2 0x463 JUMP JUMPDEST POP SWAP2 SWAP1 POP JUMP JUMPDEST PUSH1 0x1 PUSH1 0x1 PUSH1 0xA0 SHL SUB DUP2 AND PUSH1 0x0 SWAP1 DUP2 MSTORE PUSH1 0x7 PUSH1 0x20 MSTORE PUSH1 0x40 DUP2 KECCAK256 PUSH1 0x2 DUP2 ADD SLOAD DUP2 SLOAD PUSH1 0x1 DUP4 ADD SLOAD PUSH2 0x4C7 SWAP3 SWAP2 PUSH2 0x3FF SWAP2 PUSH2 0x6CB JUMP JUMPDEST SWAP4 SWAP3 POP POP POP JUMP JUMPDEST PUSH2 0x4D6 PUSH2 0x93E JUMP JUMPDEST PUSH2 0x4E0 PUSH1 0x0 PUSH2 0x998 JUMP JUMPDEST JUMP JUMPDEST PUSH2 0x4EC DUP3 DUP3 PUSH2 0x9E8 JUMP JUMPDEST POP POP JUMP JUMPDEST PUSH1 0x0 PUSH2 0x4FA PUSH2 0x93E JUMP JUMPDEST PUSH1 0xB SLOAD PUSH1 0x0 DUP4 JUMPDEST PUSH1 0x4 SLOAD DUP2 LT PUSH2 0x533 JUMPI PUSH2 0x515 DUP3 PUSH1 0x1 PUSH2 0x721 JUMP JUMPDEST SWAP2 POP PUSH2 0x52C PUSH1 0x5 SLOAD DUP3 PUSH2 0x9F2 SWAP1 SWAP2 SWAP1 PUSH4 0xFFFFFFFF AND JUMP JUMPDEST SWAP1 POP PUSH2 0x501 JUMP JUMPDEST PUSH1 0x6 DUP3 SWAP1 SSTORE PUSH1 0xB DUP2 SWAP1 SSTORE PUSH1 0x40 DUP1 MLOAD DUP5 DUP2 MSTORE PUSH1 0x20 DUP2 ADD DUP4 SWAP1 MSTORE SWAP1 DUP2 ADD DUP4 SWAP1 MSTORE PUSH32 0x47EB304B27F9EFB047A046029F8A279A7CC8FCCC6786F1E2F65939639584FBDC SWAP1 PUSH1 0x60 ADD PUSH1 0x40 MLOAD DUP1 SWAP2 SUB SWAP1 LOG1 POP POP POP SWAP2 SWAP1 POP JUMP JUMPDEST PUSH1 0x60 PUSH1 0x2 DUP1 SLOAD PUSH2 0x35D SWAP1 PUSH2 0xDE5 JUMP JUMPDEST PUSH2 0x59E CALLER PUSH2 0x5CC JUMP JUMPDEST PUSH2 0x5BA JUMPI PUSH1 0x40 MLOAD PUSH3 0x461BCD PUSH1 0xE5 SHL DUP2 MSTORE PUSH1 0x4 ADD PUSH2 0x431 SWAP1 PUSH2 0xE19 JUMP JUMPDEST PUSH2 0x458 DUP2 PUSH2 0x9FE JUMP JUMPDEST PUSH2 0x4E0 CALLER PUSH2 0xA40 JUMP JUMPDEST PUSH1 0x0 PUSH2 0x448 PUSH1 0xD DUP4 PUSH2 0xA82 JUMP JUMPDEST PUSH2 0x5E1 PUSH2 0x93E JUMP JUMPDEST PUSH1 0x1 PUSH1 0x1 PUSH1 0xA0 SHL SUB DUP2 AND PUSH2 0x646 JUMPI PUSH1 0x40 MLOAD PUSH3 0x461BCD PUSH1 0xE5 SHL DUP2 MSTORE PUSH1 0x20 PUSH1 0x4 DUP3 ADD MSTORE PUSH1 0x26 PUSH1 0x24 DUP3 ADD MSTORE PUSH32 0x4F776E61626C653A206E6577206F776E657220697320746865207A65726F2061 PUSH1 0x44 DUP3 ADD MSTORE PUSH6 0x646472657373 PUSH1 0xD0 SHL PUSH1 0x64 DUP3 ADD MSTORE PUSH1 0x84 ADD PUSH2 0x431 JUMP JUMPDEST PUSH2 0x458 DUP2 PUSH2 0x998 JUMP JUMPDEST PUSH2 0x659 DUP3 DUP3 PUSH2 0xA82 JUMP JUMPDEST ISZERO PUSH2 0x6A6 JUMPI PUSH1 0x40 MLOAD PUSH3 0x461BCD PUSH1 0xE5 SHL DUP2 MSTORE PUSH1 0x20 PUSH1 0x4 DUP3 ADD MSTORE PUSH1 0x1F PUSH1 0x24 DUP3 ADD MSTORE PUSH32 0x526F6C65733A206163636F756E7420616C72656164792068617320726F6C6500 PUSH1 0x44 DUP3 ADD MSTORE PUSH1 0x64 ADD PUSH2 0x431 JUMP JUMPDEST PUSH1 0x1 PUSH1 0x1 PUSH1 0xA0 SHL SUB AND PUSH1 0x0 SWAP1 DUP2 MSTORE PUSH1 0x20 SWAP2 SWAP1 SWAP2 MSTORE PUSH1 0x40 SWAP1 KECCAK256 DUP1 SLOAD PUSH1 0xFF NOT AND PUSH1 0x1 OR SWAP1 SSTORE JUMP JUMPDEST PUSH1 0x0 DUP3 PUSH1 0x0 SUB PUSH2 0x6DD JUMPI POP PUSH1 0x0 PUSH2 0x448 JUMP JUMPDEST PUSH2 0x6E9 DUP4 PUSH1 0xB SLOAD PUSH2 0xB05 JUMP JUMPDEST SWAP3 POP DUP2 JUMPDEST PUSH1 0x6 SLOAD DUP2 LT ISZERO PUSH2 0x719 JUMPI PUSH1 0x5 SLOAD PUSH2 0x705 SWAP1 DUP6 SWAP1 PUSH2 0x932 JUMP JUMPDEST SWAP4 POP DUP1 PUSH2 0x711 DUP2 PUSH2 0xE7F JUMP JUMPDEST SWAP2 POP POP PUSH2 0x6ED JUMP JUMPDEST POP SWAP2 SWAP3 SWAP2 POP POP JUMP JUMPDEST PUSH1 0x0 PUSH2 0x4C7 DUP3 DUP5 PUSH2 0xE98 JUMP JUMPDEST PUSH1 0x1 PUSH1 0x1 PUSH1 0xA0 SHL SUB DUP3 AND PUSH2 0x799 JUMPI PUSH1 0x40 MLOAD PUSH3 0x461BCD PUSH1 0xE5 SHL DUP2 MSTORE PUSH1 0x20 PUSH1 0x4 DUP3 ADD MSTORE PUSH1 0x2D PUSH1 0x24 DUP3 ADD MSTORE PUSH32 0x4175746F5265666163746F72436F696E6167653A206D696E7420746F20746865 PUSH1 0x44 DUP3 ADD MSTORE PUSH13 0x207A65726F2061646472657373 PUSH1 0x98 SHL PUSH1 0x64 DUP3 ADD MSTORE PUSH1 0x84 ADD PUSH2 0x431 JUMP JUMPDEST PUSH1 0x1 PUSH1 0x1 PUSH1 0xA0 SHL SUB DUP3 AND PUSH1 0x0 SWAP1 DUP2 MSTORE PUSH1 0x7 PUSH1 0x20 MSTORE PUSH1 0x40 DUP2 KECCAK256 SWAP1 PUSH2 0x7BB DUP5 PUSH2 0x495 JUMP JUMPDEST SWAP1 POP PUSH1 0x0 PUSH2 0x7C9 DUP3 DUP6 PUSH2 0x721 JUMP JUMPDEST SWAP1 POP PUSH1 0x0 PUSH2 0x7D6 DUP3 PUSH2 0xB28 JUMP JUMPDEST DUP1 DUP6 SSTORE PUSH1 0x6 SLOAD PUSH1 0x1 DUP7 ADD SSTORE SWAP1 POP PUSH2 0x7EC DUP6 PUSH2 0xB36 JUMP JUMPDEST PUSH1 0x1 PUSH1 0x1 PUSH1 0xA0 SHL SUB DUP7 AND PUSH1 0x0 PUSH32 0xDDF252AD1BE2C89B69C2B068FC378DAA952BA7F163C4A11628F55A4DF523B3EF PUSH2 0x822 DUP5 PUSH2 0xB72 JUMP JUMPDEST PUSH1 0x40 MLOAD SWAP1 DUP2 MSTORE PUSH1 0x20 ADD PUSH1 0x40 MLOAD DUP1 SWAP2 SUB SWAP1 LOG3 POP POP POP POP POP POP JUMP JUMPDEST PUSH1 0x1 PUSH1 0x1 PUSH1 0xA0 SHL SUB DUP3 AND PUSH2 0x8A9 JUMPI PUSH1 0x40 MLOAD PUSH3 0x461BCD PUSH1 0xE5 SHL DUP2 MSTORE PUSH1 0x20 PUSH1 0x4 DUP3 ADD MSTORE PUSH1 0x2F PUSH1 0x24 DUP3 ADD MSTORE PUSH32 0x4175746F5265666163746F72436F696E6167653A206275726E2066726F6D2074 PUSH1 0x44 DUP3 ADD MSTORE PUSH15 0x6865207A65726F2061646472657373 PUSH1 0x88 SHL PUSH1 0x64 DUP3 ADD MSTORE PUSH1 0x84 ADD PUSH2 0x431 JUMP JUMPDEST PUSH1 0x1 PUSH1 0x1 PUSH1 0xA0 SHL SUB DUP3 AND PUSH1 0x0 SWAP1 DUP2 MSTORE PUSH1 0x7 PUSH1 0x20 MSTORE PUSH1 0x40 DUP2 KECCAK256 SWAP1 PUSH2 0x8CB DUP5 PUSH2 0x495 JUMP JUMPDEST SWAP1 POP PUSH1 0x0 PUSH2 0x8D9 DUP3 DUP6 PUSH2 0xB80 JUMP JUMPDEST SWAP1 POP PUSH1 0x0 PUSH2 0x8E6 DUP3 PUSH2 0xB28 JUMP JUMPDEST DUP1 DUP6 SSTORE PUSH1 0x6 SLOAD PUSH1 0x1 DUP7 ADD SSTORE SWAP1 POP PUSH2 0x8FC DUP6 PUSH2 0xB8C JUMP JUMPDEST PUSH1 0x0 PUSH1 0x1 PUSH1 0x1 PUSH1 0xA0 SHL SUB DUP8 AND PUSH32 0xDDF252AD1BE2C89B69C2B068FC378DAA952BA7F163C4A11628F55A4DF523B3EF PUSH2 0x822 DUP5 PUSH2 0xB72 JUMP JUMPDEST PUSH1 0x0 PUSH2 0x4C7 DUP3 DUP5 PUSH2 0xEAB JUMP JUMPDEST PUSH1 0x0 SLOAD PUSH1 0x1 PUSH1 0x1 PUSH1 0xA0 SHL SUB AND CALLER EQ PUSH2 0x4E0 JUMPI PUSH1 0x40 MLOAD PUSH3 0x461BCD PUSH1 0xE5 SHL DUP2 MSTORE PUSH1 0x20 PUSH1 0x4 DUP3 ADD DUP2 SWAP1 MSTORE PUSH1 0x24 DUP3 ADD MSTORE PUSH32 0x4F776E61626C653A2063616C6C6572206973206E6F7420746865206F776E6572 PUSH1 0x44 DUP3 ADD MSTORE PUSH1 0x64 ADD PUSH2 0x431 JUMP JUMPDEST PUSH1 0x0 DUP1 SLOAD PUSH1 0x1 PUSH1 0x1 PUSH1 0xA0 SHL SUB DUP4 DUP2 AND PUSH1 0x1 PUSH1 0x1 PUSH1 0xA0 SHL SUB NOT DUP4 AND DUP2 OR DUP5 SSTORE PUSH1 0x40 MLOAD SWAP2 SWAP1 SWAP3 AND SWAP3 DUP4 SWAP2 PUSH32 0x8BE0079C531659141344CD1FD0A4F28419497F9722A3DAAFE3B4186F6B6457E0 SWAP2 SWAP1 LOG3 POP POP JUMP JUMPDEST PUSH2 0x4EC DUP3 DUP3 PUSH2 0x83B JUMP JUMPDEST PUSH1 0x0 PUSH2 0x4C7 DUP3 DUP5 PUSH2 0xEC2 JUMP JUMPDEST PUSH2 0xA09 PUSH1 0xD DUP3 PUSH2 0x64F JUMP JUMPDEST PUSH1 0x40 MLOAD PUSH1 0x1 PUSH1 0x1 PUSH1 0xA0 SHL SUB DUP3 AND SWAP1 PUSH32 0x6AE172837EA30B801FBFCDD4108AA1D5BF8FF775444FD70256B44E6BF3DFC3F6 SWAP1 PUSH1 0x0 SWAP1 LOG2 POP JUMP JUMPDEST PUSH2 0xA4B PUSH1 0xD DUP3 PUSH2 0xBAC JUMP JUMPDEST PUSH1 0x40 MLOAD PUSH1 0x1 PUSH1 0x1 PUSH1 0xA0 SHL SUB DUP3 AND SWAP1 PUSH32 0xE94479A9F7E1952CC78F2D6BAAB678ADC1B772D936C6583DEF489E524CB66692 SWAP1 PUSH1 0x0 SWAP1 LOG2 POP JUMP JUMPDEST PUSH1 0x0 PUSH1 0x1 PUSH1 0x1 PUSH1 0xA0 SHL SUB DUP3 AND PUSH2 0xAE5 JUMPI PUSH1 0x40 MLOAD PUSH3 0x461BCD PUSH1 0xE5 SHL DUP2 MSTORE PUSH1 0x20 PUSH1 0x4 DUP3 ADD MSTORE PUSH1 0x22 PUSH1 0x24 DUP3 ADD MSTORE PUSH32 0x526F6C65733A206163636F756E7420697320746865207A65726F206164647265 PUSH1 0x44 DUP3 ADD MSTORE PUSH2 0x7373 PUSH1 0xF0 SHL PUSH1 0x64 DUP3 ADD MSTORE PUSH1 0x84 ADD PUSH2 0x431 JUMP JUMPDEST POP PUSH1 0x1 PUSH1 0x1 PUSH1 0xA0 SHL SUB AND PUSH1 0x0 SWAP1 DUP2 MSTORE PUSH1 0x20 SWAP2 SWAP1 SWAP2 MSTORE PUSH1 0x40 SWAP1 KECCAK256 SLOAD PUSH1 0xFF AND SWAP1 JUMP JUMPDEST PUSH1 0x0 PUSH12 0x33B2E3C9FD0803CE8000000 PUSH2 0xB1E DUP5 DUP5 PUSH2 0xC2E JUMP JUMPDEST PUSH2 0x4C7 SWAP2 SWAP1 PUSH2 0xEC2 JUMP JUMPDEST PUSH1 0x0 PUSH2 0x448 DUP3 PUSH1 0xB SLOAD PUSH2 0xC95 JUMP JUMPDEST PUSH1 0x8 SLOAD PUSH1 0x9 SLOAD PUSH1 0x0 SWAP2 PUSH2 0xB48 SWAP2 PUSH2 0x6CB JUMP JUMPDEST SWAP1 POP PUSH1 0x0 PUSH2 0xB56 DUP3 DUP5 PUSH2 0x721 JUMP JUMPDEST SWAP1 POP PUSH1 0x0 PUSH2 0xB63 DUP3 PUSH2 0xB28 JUMP JUMPDEST PUSH1 0x8 SSTORE POP POP PUSH1 0x6 SLOAD PUSH1 0x9 SSTORE POP POP JUMP JUMPDEST PUSH1 0x0 PUSH2 0x448 DUP3 PUSH1 0xB SLOAD PUSH2 0xB05 JUMP JUMPDEST PUSH1 0x0 PUSH2 0x4C7 DUP3 DUP5 PUSH2 0xEE4 JUMP JUMPDEST PUSH1 0x8 SLOAD PUSH1 0x9 SLOAD PUSH1 0x0 SWAP2 PUSH2 0xB9E SWAP2 PUSH2 0x6CB JUMP JUMPDEST SWAP1 POP PUSH1 0x0 PUSH2 0xB56 DUP3 DUP5 PUSH2 0xB80 JUMP JUMPDEST PUSH2 0xBB6 DUP3 DUP3 PUSH2 0xA82 JUMP JUMPDEST PUSH2 0xC0C JUMPI PUSH1 0x40 MLOAD PUSH3 0x461BCD PUSH1 0xE5 SHL DUP2 MSTORE PUSH1 0x20 PUSH1 0x4 DUP3 ADD MSTORE PUSH1 0x21 PUSH1 0x24 DUP3 ADD MSTORE PUSH32 0x526F6C65733A206163636F756E7420646F6573206E6F74206861766520726F6C PUSH1 0x44 DUP3 ADD MSTORE PUSH1 0x65 PUSH1 0xF8 SHL PUSH1 0x64 DUP3 ADD MSTORE PUSH1 0x84 ADD PUSH2 0x431 JUMP JUMPDEST PUSH1 0x1 PUSH1 0x1 PUSH1 0xA0 SHL SUB AND PUSH1 0x0 SWAP1 DUP2 MSTORE PUSH1 0x20 SWAP2 SWAP1 SWAP2 MSTORE PUSH1 0x40 SWAP1 KECCAK256 DUP1 SLOAD PUSH1 0xFF NOT AND SWAP1 SSTORE JUMP JUMPDEST PUSH1 0x0 DUP2 ISZERO DUP1 PUSH2 0xC52 JUMPI POP DUP3 DUP3 PUSH2 0xC44 DUP2 DUP4 PUSH2 0xEAB JUMP JUMPDEST SWAP3 POP PUSH2 0xC50 SWAP1 DUP4 PUSH2 0xEC2 JUMP JUMPDEST EQ JUMPDEST PUSH2 0x448 JUMPI PUSH1 0x40 MLOAD PUSH3 0x461BCD PUSH1 0xE5 SHL DUP2 MSTORE PUSH1 0x20 PUSH1 0x4 DUP3 ADD MSTORE PUSH1 0x14 PUSH1 0x24 DUP3 ADD MSTORE PUSH20 0x64732D6D6174682D6D756C2D6F766572666C6F77 PUSH1 0x60 SHL PUSH1 0x44 DUP3 ADD MSTORE PUSH1 0x64 ADD PUSH2 0x431 JUMP JUMPDEST PUSH1 0x0 DUP2 PUSH2 0xB1E DUP5 PUSH12 0x33B2E3C9FD0803CE8000000 PUSH2 0xC2E JUMP JUMPDEST PUSH1 0x0 PUSH1 0x20 DUP1 DUP4 MSTORE DUP4 MLOAD DUP1 DUP3 DUP6 ADD MSTORE PUSH1 0x0 JUMPDEST DUP2 DUP2 LT ISZERO PUSH2 0xCDB JUMPI DUP6 DUP2 ADD DUP4 ADD MLOAD DUP6 DUP3 ADD PUSH1 0x40 ADD MSTORE DUP3 ADD PUSH2 0xCBF JUMP JUMPDEST POP PUSH1 0x0 PUSH1 0x40 DUP3 DUP7 ADD ADD MSTORE PUSH1 0x40 PUSH1 0x1F NOT PUSH1 0x1F DUP4 ADD AND DUP6 ADD ADD SWAP3 POP POP POP SWAP3 SWAP2 POP POP JUMP JUMPDEST DUP1 CALLDATALOAD PUSH1 0x1 PUSH1 0x1 PUSH1 0xA0 SHL SUB DUP2 AND DUP2 EQ PUSH2 0xD13 JUMPI PUSH1 0x0 DUP1 REVERT JUMPDEST SWAP2 SWAP1 POP JUMP JUMPDEST PUSH1 0x0 DUP1 PUSH1 0x40 DUP4 DUP6 SUB SLT ISZERO PUSH2 0xD2B JUMPI PUSH1 0x0 DUP1 REVERT JUMPDEST PUSH2 0xD34 DUP4 PUSH2 0xCFC JUMP JUMPDEST SWAP5 PUSH1 0x20 SWAP4 SWAP1 SWAP4 ADD CALLDATALOAD SWAP4 POP POP POP JUMP JUMPDEST PUSH1 0x0 DUP1 PUSH1 0x0 PUSH1 0x60 DUP5 DUP7 SUB SLT ISZERO PUSH2 0xD57 JUMPI PUSH1 0x0 DUP1 REVERT JUMPDEST PUSH2 0xD60 DUP5 PUSH2 0xCFC JUMP JUMPDEST SWAP3 POP PUSH2 0xD6E PUSH1 0x20 DUP6 ADD PUSH2 0xCFC JUMP JUMPDEST SWAP2 POP PUSH1 0x40 DUP5 ADD CALLDATALOAD SWAP1 POP SWAP3 POP SWAP3 POP SWAP3 JUMP JUMPDEST PUSH1 0x0 PUSH1 0x20 DUP3 DUP5 SUB SLT ISZERO PUSH2 0xD90 JUMPI PUSH1 0x0 DUP1 REVERT JUMPDEST PUSH2 0x4C7 DUP3 PUSH2 0xCFC JUMP JUMPDEST PUSH1 0x0 PUSH1 0x20 DUP3 DUP5 SUB SLT ISZERO PUSH2 0xDAB JUMPI PUSH1 0x0 DUP1 REVERT JUMPDEST POP CALLDATALOAD SWAP2 SWAP1 POP JUMP JUMPDEST PUSH1 0x0 DUP1 PUSH1 0x40 DUP4 DUP6 SUB SLT ISZERO PUSH2 0xDC5 JUMPI PUSH1 0x0 DUP1 REVERT JUMPDEST PUSH2 0xDCE DUP4 PUSH2 0xCFC JUMP JUMPDEST SWAP2 POP PUSH2 0xDDC PUSH1 0x20 DUP5 ADD PUSH2 0xCFC JUMP JUMPDEST SWAP1 POP SWAP3 POP SWAP3 SWAP1 POP JUMP JUMPDEST PUSH1 0x1 DUP2 DUP2 SHR SWAP1 DUP3 AND DUP1 PUSH2 0xDF9 JUMPI PUSH1 0x7F DUP3 AND SWAP2 POP JUMPDEST PUSH1 0x20 DUP3 LT DUP2 SUB PUSH2 0x48F JUMPI PUSH4 0x4E487B71 PUSH1 0xE0 SHL PUSH1 0x0 MSTORE PUSH1 0x22 PUSH1 0x4 MSTORE PUSH1 0x24 PUSH1 0x0 REVERT JUMPDEST PUSH1 0x20 DUP1 DUP3 MSTORE PUSH1 0x30 SWAP1 DUP3 ADD MSTORE PUSH32 0x4D696E746572526F6C653A2063616C6C657220646F6573206E6F742068617665 PUSH1 0x40 DUP3 ADD MSTORE PUSH16 0x20746865204D696E74657220726F6C65 PUSH1 0x80 SHL PUSH1 0x60 DUP3 ADD MSTORE PUSH1 0x80 ADD SWAP1 JUMP JUMPDEST PUSH4 0x4E487B71 PUSH1 0xE0 SHL PUSH1 0x0 MSTORE PUSH1 0x11 PUSH1 0x4 MSTORE PUSH1 0x24 PUSH1 0x0 REVERT JUMPDEST PUSH1 0x0 PUSH1 0x1 DUP3 ADD PUSH2 0xE91 JUMPI PUSH2 0xE91 PUSH2 0xE69 JUMP JUMPDEST POP PUSH1 0x1 ADD SWAP1 JUMP JUMPDEST DUP1 DUP3 ADD DUP1 DUP3 GT ISZERO PUSH2 0x448 JUMPI PUSH2 0x448 PUSH2 0xE69 JUMP JUMPDEST DUP1 DUP3 MUL DUP2 ISZERO DUP3 DUP3 DIV DUP5 EQ OR PUSH2 0x448 JUMPI PUSH2 0x448 PUSH2 0xE69 JUMP JUMPDEST PUSH1 0x0 DUP3 PUSH2 0xEDF JUMPI PUSH4 0x4E487B71 PUSH1 0xE0 SHL PUSH1 0x0 MSTORE PUSH1 0x12 PUSH1 0x4 MSTORE PUSH1 0x24 PUSH1 0x0 REVERT JUMPDEST POP DIV SWAP1 JUMP JUMPDEST DUP2 DUP2 SUB DUP2 DUP2 GT ISZERO PUSH2 0x448 JUMPI PUSH2 0x448 PUSH2 0xE69 JUMP INVALID LOG2 PUSH5 0x6970667358 0x22 SLT KECCAK256 DUP1 SWAP4 GT 0x2B SWAP14 0xB0 0xB5 0xDB PUSH18 0x4B3A42F5266C201F24297D7071C6DF5474F4 PUSH20 0x5BDA0E3264736F6C63430008120033A264697066 PUSH20 0x5822122000B89497E25454F3C5CB6BB34A1D71CF 0xDB SDIV CALLDATALOAD 0xA5 COINBASE STOP SWAP6 SWAP12 SWAP11 MLOAD 0xFC 0x2D 0xE4 0xC3 0xCE 0x29 PUSH5 0x736F6C6343 STOP ADDMOD SLT STOP CALLER "},"gasEstimates":{"creation":{"codeDepositCost":"1147200","executionCost":"1194","totalCost":"1148394"},"external":{"RAY()":"162","deploy()":"infinite"}},"methodIdentifiers":{"RAY()":"552033c4","deploy()":"775c300c"}},"storageLayout":{"storage":[],"types":null},"userdoc":{"kind":"user","methods":{},"version":1}}}}