{
  "_format": "hh-sol-artifact-1",
  "contractName": "DAOVault",
  "sourceName": "contracts/test/DAOVault.sol",
  "abi": [
    {
      "inputs": [
        {
          "internalType": "address",
          "name": "_ton",
          "type": "address"
        },
        {
          "internalType": "address",
          "name": "_wton",
          "type": "address"
        }
      ],
      "stateMutability": "nonpayable",
      "type": "constructor"
    },
    {
      "anonymous": false,
      "inputs": [
        {
          "indexed": true,
          "internalType": "address",
          "name": "token",
          "type": "address"
        },
        {
          "indexed": true,
          "internalType": "address",
          "name": "to",
          "type": "address"
        },
        {
          "indexed": true,
          "internalType": "uint256",
          "name": "amount",
          "type": "uint256"
        }
      ],
      "name": "Approved",
      "type": "event"
    },
    {
      "anonymous": false,
      "inputs": [
        {
          "indexed": true,
          "internalType": "address",
          "name": "token",
          "type": "address"
        },
        {
          "indexed": true,
          "internalType": "address",
          "name": "to",
          "type": "address"
        },
        {
          "indexed": true,
          "internalType": "uint256",
          "name": "amount",
          "type": "uint256"
        }
      ],
      "name": "Claimed",
      "type": "event"
    },
    {
      "anonymous": false,
      "inputs": [
        {
          "indexed": true,
          "internalType": "address",
          "name": "previousOwner",
          "type": "address"
        },
        {
          "indexed": true,
          "internalType": "address",
          "name": "newOwner",
          "type": "address"
        }
      ],
      "name": "OwnershipTransferred",
      "type": "event"
    },
    {
      "inputs": [
        {
          "internalType": "address",
          "name": "_token",
          "type": "address"
        },
        {
          "internalType": "address",
          "name": "_to",
          "type": "address"
        },
        {
          "internalType": "uint256",
          "name": "_amount",
          "type": "uint256"
        }
      ],
      "name": "approveERC20",
      "outputs": [],
      "stateMutability": "nonpayable",
      "type": "function"
    },
    {
      "inputs": [
        {
          "internalType": "address",
          "name": "_to",
          "type": "address"
        },
        {
          "internalType": "uint256",
          "name": "_amount",
          "type": "uint256"
        }
      ],
      "name": "approveTON",
      "outputs": [],
      "stateMutability": "nonpayable",
      "type": "function"
    },
    {
      "inputs": [
        {
          "internalType": "address",
          "name": "_to",
          "type": "address"
        },
        {
          "internalType": "uint256",
          "name": "_amount",
          "type": "uint256"
        }
      ],
      "name": "approveWTON",
      "outputs": [],
      "stateMutability": "nonpayable",
      "type": "function"
    },
    {
      "inputs": [
        {
          "internalType": "address",
          "name": "_token",
          "type": "address"
        },
        {
          "internalType": "address",
          "name": "_to",
          "type": "address"
        },
        {
          "internalType": "uint256",
          "name": "_amount",
          "type": "uint256"
        }
      ],
      "name": "claimERC20",
      "outputs": [],
      "stateMutability": "nonpayable",
      "type": "function"
    },
    {
      "inputs": [
        {
          "internalType": "address",
          "name": "_to",
          "type": "address"
        },
        {
          "internalType": "uint256",
          "name": "_amount",
          "type": "uint256"
        }
      ],
      "name": "claimTON",
      "outputs": [],
      "stateMutability": "nonpayable",
      "type": "function"
    },
    {
      "inputs": [
        {
          "internalType": "address",
          "name": "_to",
          "type": "address"
        },
        {
          "internalType": "uint256",
          "name": "_amount",
          "type": "uint256"
        }
      ],
      "name": "claimWTON",
      "outputs": [],
      "stateMutability": "nonpayable",
      "type": "function"
    },
    {
      "inputs": [],
      "name": "owner",
      "outputs": [
        {
          "internalType": "address",
          "name": "",
          "type": "address"
        }
      ],
      "stateMutability": "view",
      "type": "function"
    },
    {
      "inputs": [],
      "name": "renounceOwnership",
      "outputs": [],
      "stateMutability": "nonpayable",
      "type": "function"
    },
    {
      "inputs": [
        {
          "internalType": "address",
          "name": "_ton",
          "type": "address"
        }
      ],
      "name": "setTON",
      "outputs": [],
      "stateMutability": "nonpayable",
      "type": "function"
    },
    {
      "inputs": [
        {
          "internalType": "address",
          "name": "_wton",
          "type": "address"
        }
      ],
      "name": "setWTON",
      "outputs": [],
      "stateMutability": "nonpayable",
      "type": "function"
    },
    {
      "inputs": [],
      "name": "ton",
      "outputs": [
        {
          "internalType": "contract IERC20",
          "name": "",
          "type": "address"
        }
      ],
      "stateMutability": "view",
      "type": "function"
    },
    {
      "inputs": [
        {
          "internalType": "address",
          "name": "newOwner",
          "type": "address"
        }
      ],
      "name": "transferOwnership",
      "outputs": [],
      "stateMutability": "nonpayable",
      "type": "function"
    },
    {
      "inputs": [],
      "name": "wton",
      "outputs": [
        {
          "internalType": "contract IERC20",
          "name": "",
          "type": "address"
        }
      ],
      "stateMutability": "view",
      "type": "function"
    }
  ],
  "bytecode": "0x608060405234801561001057600080fd5b50604051620012ac380380620012ac83398101604081905261003191610146565b61003a336100da565b6001600160a01b03821615158061005957506001600160a01b03811615155b6100a95760405162461bcd60e51b815260206004820152601760248201527f44414f5661756c743a20696e707574206973207a65726f000000000000000000604482015260640160405180910390fd5b600180546001600160a01b039384166001600160a01b03199182161790915560028054929093169116179055610179565b600080546001600160a01b038381166001600160a01b0319831681178455604051919092169283917f8be0079c531659141344cd1fd0a4f28419497f9722a3daafe3b4186f6b6457e09190a35050565b80516001600160a01b038116811461014157600080fd5b919050565b6000806040838503121561015957600080fd5b6101628361012a565b91506101706020840161012a565b90509250929050565b61112380620001896000396000f3fe608060405234801561001057600080fd5b50600436106100bf5760003560e01c80638da5cb5b1161007c5780638da5cb5b14610143578063a8e5e4aa14610154578063cc48b94714610167578063ef0d55941461017a578063f2fde38b1461018d578063f52bba70146101a0578063f848091a146101b357600080fd5b8063230da4f2146100c457806352cceeb6146100d957806354e68c9a146100ec578063662d12b1146100ff578063715018a6146101125780638d62d9491461011a575b600080fd5b6100d76100d2366004610e74565b6101c6565b005b6100d76100e7366004610e8f565b61021f565b6100d76100fa366004610e8f565b61026d565b6100d761010d366004610e74565b6102bb565b6100d761030b565b60025461012d906001600160a01b031681565b60405161013a9190610eb9565b60405180910390f35b6000546001600160a01b031661012d565b6100d7610162366004610ecd565b61031f565b60015461012d906001600160a01b031681565b6100d7610188366004610e8f565b61036f565b6100d761019b366004610e74565b6105d3565b6100d76101ae366004610e8f565b61064c565b6100d76101c1366004610ecd565b6108cf565b6101ce6109a8565b6001600160a01b0381166101fd5760405162461bcd60e51b81526004016101f490610f09565b60405180910390fd5b600180546001600160a01b0319166001600160a01b0392909216919091179055565b6102276109a8565b60015461023e906001600160a01b03168383610a02565b60015460405182916001600160a01b03808616929116906000805160206110ae83398151915290600090a45050565b6102756109a8565b60025461028c906001600160a01b03168383610a02565b60025460405182916001600160a01b03808616929116906000805160206110ae83398151915290600090a45050565b6102c36109a8565b6001600160a01b0381166102e95760405162461bcd60e51b81526004016101f490610f09565b600280546001600160a01b0319166001600160a01b0392909216919091179055565b6103136109a8565b61031d6000610b42565b565b6103276109a8565b61033b6001600160a01b0384168383610a02565b80826001600160a01b0316846001600160a01b03166000805160206110ae83398151915260405160405180910390a4505050565b6103776109a8565b6001546040516370a0823160e01b81526000916001600160a01b0316906370a08231906103a8903090600401610eb9565b602060405180830381865afa1580156103c5573d6000803e3d6000fd5b505050506040513d601f19601f820116820180604052508101906103e99190610f3a565b6002546040516370a0823160e01b81529192506000916001600160a01b03909116906370a082319061041f903090600401610eb9565b602060405180830381865afa15801561043c573d6000803e3d6000fd5b505050506040513d601f19601f820116820180604052508101906104609190610f3a565b90508261047661046f83610b92565b8490610ba8565b10156104945760405162461bcd60e51b81526004016101f490610f53565b828083101561058a57508160006104b36104ae8684610bbb565b610bc7565b60025460405163e3b99e8560e01b81529192506001600160a01b03169063e3b99e85906104e69089908590600401610f8a565b6020604051808303816000875af1158015610505573d6000803e3d6000fd5b505050506040513d601f19601f820116820180604052508101906105299190610fa3565b6105885760405162461bcd60e51b815260206004820152602a60248201527f44414f5661756c743a206661696c656420746f207377617020616e64207472616044820152693739b332b9103bba37b760b11b60648201526084016101f4565b505b6001546105a1906001600160a01b03168683610bd7565b60015460405185916001600160a01b03808916929116906000805160206110ce83398151915290600090a45050505050565b6105db6109a8565b6001600160a01b0381166106405760405162461bcd60e51b815260206004820152602660248201527f4f776e61626c653a206e6577206f776e657220697320746865207a65726f206160448201526564647265737360d01b60648201526084016101f4565b61064981610b42565b50565b6106546109a8565b6001546040516370a0823160e01b81526000916001600160a01b0316906370a0823190610685903090600401610eb9565b602060405180830381865afa1580156106a2573d6000803e3d6000fd5b505050506040513d601f19601f820116820180604052508101906106c69190610f3a565b6002546040516370a0823160e01b81529192506000916001600160a01b03909116906370a08231906106fc903090600401610eb9565b602060405180830381865afa158015610719573d6000803e3d6000fd5b505050506040513d601f19601f8201168201806040525081019061073d9190610f3a565b9050826107538261074d85610bc7565b90610ba8565b10156107715760405162461bcd60e51b81526004016101f490610f53565b828082101561088657600061078e6107898685610bbb565b610b92565b6002546001548594509192506107b1916001600160a01b03908116911683610a02565b60025460405163588420b760e01b81526001600160a01b039091169063588420b7906107e39089908590600401610f8a565b6020604051808303816000875af1158015610802573d6000803e3d6000fd5b505050506040513d601f19601f820116820180604052508101906108269190610fa3565b6108845760405162461bcd60e51b815260206004820152602960248201527f44414f5661756c743a206661696c656420746f207377617020616e64207472616044820152683739b332b9103a37b760b91b60648201526084016101f4565b505b60025461089d906001600160a01b03168683610bd7565b60025460405185916001600160a01b03808916929116906000805160206110ce83398151915290600090a45050505050565b6108d76109a8565b6040516370a0823160e01b815281906001600160a01b038516906370a0823190610905903090600401610eb9565b602060405180830381865afa158015610922573d6000803e3d6000fd5b505050506040513d601f19601f820116820180604052508101906109469190610f3a565b10156109645760405162461bcd60e51b81526004016101f490610f53565b6109786001600160a01b0384168383610bd7565b60025460405182916001600160a01b03808616929116906000805160206110ce83398151915290600090a4505050565b6000546001600160a01b0316331461031d5760405162461bcd60e51b815260206004820181905260248201527f4f776e61626c653a2063616c6c6572206973206e6f7420746865206f776e657260448201526064016101f4565b801580610a7c5750604051636eb1769f60e11b81523060048201526001600160a01b03838116602483015284169063dd62ed3e90604401602060405180830381865afa158015610a56573d6000803e3d6000fd5b505050506040513d601f19601f82011682018060405250810190610a7a9190610f3a565b155b610ae75760405162461bcd60e51b815260206004820152603660248201527f5361666545524332303a20617070726f76652066726f6d206e6f6e2d7a65726f60448201527520746f206e6f6e2d7a65726f20616c6c6f77616e636560501b60648201526084016101f4565b610b3d8363095ea7b360e01b8484604051602401610b06929190610f8a565b60408051601f198184030181529190526020810180516001600160e01b03166001600160e01b031990931692909217909152610bf6565b505050565b600080546001600160a01b038381166001600160a01b0319831681178455604051919092169283917f8be0079c531659141344cd1fd0a4f28419497f9722a3daafe3b4186f6b6457e09190a35050565b6000610ba2633b9aca0083610fdb565b92915050565b6000610bb48284610ffd565b9392505050565b6000610bb48284611010565b6000610ba282633b9aca00611023565b610b3d8363a9059cbb60e01b8484604051602401610b06929190610f8a565b6000610c4b826040518060400160405280602081526020017f5361666545524332303a206c6f772d6c6576656c2063616c6c206661696c6564815250856001600160a01b0316610cc89092919063ffffffff16565b805190915015610b3d5780806020019051810190610c699190610fa3565b610b3d5760405162461bcd60e51b815260206004820152602a60248201527f5361666545524332303a204552433230206f7065726174696f6e20646964206e6044820152691bdd081cdd58d8d9595960b21b60648201526084016101f4565b6060610cd78484600085610cdf565b949350505050565b606082471015610d405760405162461bcd60e51b815260206004820152602660248201527f416464726573733a20696e73756666696369656e742062616c616e636520666f6044820152651c8818d85b1b60d21b60648201526084016101f4565b600080866001600160a01b03168587604051610d5c919061105e565b60006040518083038185875af1925050503d8060008114610d99576040519150601f19603f3d011682016040523d82523d6000602084013e610d9e565b606091505b5091509150610daf87838387610dba565b979650505050505050565b60608315610e29578251600003610e22576001600160a01b0385163b610e225760405162461bcd60e51b815260206004820152601d60248201527f416464726573733a2063616c6c20746f206e6f6e2d636f6e747261637400000060448201526064016101f4565b5081610cd7565b610cd78383815115610e3e5781518083602001fd5b8060405162461bcd60e51b81526004016101f4919061107a565b80356001600160a01b0381168114610e6f57600080fd5b919050565b600060208284031215610e8657600080fd5b610bb482610e58565b60008060408385031215610ea257600080fd5b610eab83610e58565b946020939093013593505050565b6001600160a01b0391909116815260200190565b600080600060608486031215610ee257600080fd5b610eeb84610e58565b9250610ef960208501610e58565b9150604084013590509250925092565b60208082526017908201527644414f5661756c743a20696e707574206973207a65726f60481b604082015260600190565b600060208284031215610f4c57600080fd5b5051919050565b6020808252601c908201527f44414f5661756c743a206e6f7420656e6f7567682062616c616e636500000000604082015260600190565b6001600160a01b03929092168252602082015260400190565b600060208284031215610fb557600080fd5b81518015158114610bb457600080fd5b634e487b7160e01b600052601160045260246000fd5b600082610ff857634e487b7160e01b600052601260045260246000fd5b500490565b80820180821115610ba257610ba2610fc5565b81810381811115610ba257610ba2610fc5565b8082028115828204841417610ba257610ba2610fc5565b60005b8381101561105557818101518382015260200161103d565b50506000910152565b6000825161107081846020870161103a565b9190910192915050565b602081526000825180602084015261109981604085016020870161103a565b601f01601f1916919091016040019291505056fe80da462ebfbe41cfc9bc015e7a9a3c7a2a73dbccede72d8ceb583606c27f8f90f7a40077ff7a04c7e61f6f26fb13774259ddf1b6bce9ecf26a8276cdd3992683a2646970667358221220fb59d36431963c26f99781cd5585721900177c76d32104f066fc8c9a63d6e32164736f6c63430008120033",
  "linkReferences": {},
  "deployedLinkReferences": {}
}