{
  "_format": "hh-sol-artifact-1",
  "contractName": "DAOv2CommitteeStorage",
  "sourceName": "contracts/storages/DAOv2CommitteeStorage.sol",
  "abi": [
    {
      "inputs": [],
      "name": "candidate",
      "outputs": [
        {
          "internalType": "contract ICandidate",
          "name": "",
          "type": "address"
        }
      ],
      "stateMutability": "view",
      "type": "function"
    },
    {
      "inputs": [
        {
          "internalType": "uint256",
          "name": "",
          "type": "uint256"
        }
      ],
      "name": "candidatesV2",
      "outputs": [
        {
          "internalType": "address",
          "name": "",
          "type": "address"
        }
      ],
      "stateMutability": "view",
      "type": "function"
    },
    {
      "inputs": [],
      "name": "layer2Manager",
      "outputs": [
        {
          "internalType": "contract ILayer2Manager",
          "name": "",
          "type": "address"
        }
      ],
      "stateMutability": "view",
      "type": "function"
    },
    {
      "inputs": [],
      "name": "seigManagerV2",
      "outputs": [
        {
          "internalType": "contract ISeigManagerV2",
          "name": "",
          "type": "address"
        }
      ],
      "stateMutability": "view",
      "type": "function"
    },
    {
      "inputs": [],
      "name": "sequencer",
      "outputs": [
        {
          "internalType": "contract IOptimismSequencer",
          "name": "",
          "type": "address"
        }
      ],
      "stateMutability": "view",
      "type": "function"
    }
  ],
  "bytecode": "0x608060405234801561001057600080fd5b5061014b806100206000396000f3fe608060405234801561001057600080fd5b50600436106100575760003560e01c806316b5d5bd1461005c5780635c1bba381461008b5780636c8381f81461009e57806373469a7a146100b1578063cfbd1c42146100c4575b600080fd5b60005461006f906001600160a01b031681565b6040516001600160a01b03909116815260200160405180910390f35b60035461006f906001600160a01b031681565b60025461006f906001600160a01b031681565b60015461006f906001600160a01b031681565b61006f6100d23660046100fc565b600481815481106100e257600080fd5b6000918252602090912001546001600160a01b0316905081565b60006020828403121561010e57600080fd5b503591905056fea26469706673582212200fc266619a5c214eb424c7c25e6dc4da06956e5508a70c5f1db0fc3c4f46f51864736f6c63430008120033",
  "linkReferences": {},
  "deployedLinkReferences": {}
}