{
  "_format": "hh-sol-artifact-1",
  "contractName": "OptimismSequencer",
  "sourceName": "contracts/test/OptimismSequencer.sol",
  "abi": [
    {
      "inputs": [],
      "stateMutability": "nonpayable",
      "type": "constructor"
    },
    {
      "anonymous": false,
      "inputs": [
        {
          "indexed": false,
          "internalType": "bytes32",
          "name": "hashMessage",
          "type": "bytes32"
        },
        {
          "indexed": false,
          "internalType": "uint32",
          "name": "layerIndex",
          "type": "uint32"
        },
        {
          "indexed": false,
          "internalType": "address",
          "name": "from",
          "type": "address"
        },
        {
          "indexed": false,
          "internalType": "address",
          "name": "to",
          "type": "address"
        },
        {
          "indexed": false,
          "internalType": "uint256",
          "name": "amount",
          "type": "uint256"
        }
      ],
      "name": "FastWithdrawalClaim",
      "type": "event"
    },
    {
      "anonymous": false,
      "inputs": [
        {
          "indexed": false,
          "internalType": "bytes32",
          "name": "hashMessage",
          "type": "bytes32"
        },
        {
          "indexed": false,
          "internalType": "uint32",
          "name": "layerIndex",
          "type": "uint32"
        },
        {
          "indexed": false,
          "internalType": "address",
          "name": "staker",
          "type": "address"
        },
        {
          "indexed": false,
          "internalType": "uint256",
          "name": "amount",
          "type": "uint256"
        },
        {
          "indexed": false,
          "internalType": "uint256",
          "name": "lton",
          "type": "uint256"
        }
      ],
      "name": "FastWithdrawalStaked",
      "type": "event"
    },
    {
      "anonymous": false,
      "inputs": [
        {
          "indexed": false,
          "internalType": "uint32",
          "name": "_index",
          "type": "uint32"
        },
        {
          "indexed": false,
          "internalType": "address",
          "name": "sender",
          "type": "address"
        },
        {
          "indexed": false,
          "internalType": "uint256",
          "name": "amount",
          "type": "uint256"
        },
        {
          "indexed": false,
          "internalType": "uint256",
          "name": "lton",
          "type": "uint256"
        }
      ],
      "name": "Restaked",
      "type": "event"
    },
    {
      "anonymous": false,
      "inputs": [
        {
          "indexed": true,
          "internalType": "bytes32",
          "name": "role",
          "type": "bytes32"
        },
        {
          "indexed": true,
          "internalType": "bytes32",
          "name": "previousAdminRole",
          "type": "bytes32"
        },
        {
          "indexed": true,
          "internalType": "bytes32",
          "name": "newAdminRole",
          "type": "bytes32"
        }
      ],
      "name": "RoleAdminChanged",
      "type": "event"
    },
    {
      "anonymous": false,
      "inputs": [
        {
          "indexed": true,
          "internalType": "bytes32",
          "name": "role",
          "type": "bytes32"
        },
        {
          "indexed": true,
          "internalType": "address",
          "name": "account",
          "type": "address"
        },
        {
          "indexed": true,
          "internalType": "address",
          "name": "sender",
          "type": "address"
        }
      ],
      "name": "RoleGranted",
      "type": "event"
    },
    {
      "anonymous": false,
      "inputs": [
        {
          "indexed": true,
          "internalType": "bytes32",
          "name": "role",
          "type": "bytes32"
        },
        {
          "indexed": true,
          "internalType": "address",
          "name": "account",
          "type": "address"
        },
        {
          "indexed": true,
          "internalType": "address",
          "name": "sender",
          "type": "address"
        }
      ],
      "name": "RoleRevoked",
      "type": "event"
    },
    {
      "anonymous": false,
      "inputs": [
        {
          "indexed": false,
          "internalType": "uint32",
          "name": "_index",
          "type": "uint32"
        },
        {
          "indexed": false,
          "internalType": "address",
          "name": "sender",
          "type": "address"
        },
        {
          "indexed": false,
          "internalType": "uint256",
          "name": "amount",
          "type": "uint256"
        },
        {
          "indexed": false,
          "internalType": "uint256",
          "name": "lton",
          "type": "uint256"
        },
        {
          "indexed": false,
          "internalType": "address",
          "name": "commissionTo",
          "type": "address"
        },
        {
          "indexed": false,
          "internalType": "uint16",
          "name": "commission",
          "type": "uint16"
        }
      ],
      "name": "Staked",
      "type": "event"
    },
    {
      "anonymous": false,
      "inputs": [
        {
          "indexed": false,
          "internalType": "uint32",
          "name": "_index",
          "type": "uint32"
        },
        {
          "indexed": false,
          "internalType": "address",
          "name": "sender",
          "type": "address"
        },
        {
          "indexed": false,
          "internalType": "uint256",
          "name": "amount",
          "type": "uint256"
        },
        {
          "indexed": false,
          "internalType": "uint256",
          "name": "lton",
          "type": "uint256"
        }
      ],
      "name": "Unstaked",
      "type": "event"
    },
    {
      "anonymous": false,
      "inputs": [
        {
          "indexed": false,
          "internalType": "uint32",
          "name": "_index",
          "type": "uint32"
        },
        {
          "indexed": false,
          "internalType": "address",
          "name": "sender",
          "type": "address"
        },
        {
          "indexed": false,
          "internalType": "uint256",
          "name": "amount",
          "type": "uint256"
        }
      ],
      "name": "Withdrawal",
      "type": "event"
    },
    {
      "inputs": [],
      "name": "ADMIN_ROLE",
      "outputs": [
        {
          "internalType": "bytes32",
          "name": "",
          "type": "bytes32"
        }
      ],
      "stateMutability": "view",
      "type": "function"
    },
    {
      "inputs": [],
      "name": "BURNER_ROLE",
      "outputs": [
        {
          "internalType": "bytes32",
          "name": "",
          "type": "bytes32"
        }
      ],
      "stateMutability": "view",
      "type": "function"
    },
    {
      "inputs": [],
      "name": "DEFAULT_ADMIN_ROLE",
      "outputs": [
        {
          "internalType": "bytes32",
          "name": "",
          "type": "bytes32"
        }
      ],
      "stateMutability": "view",
      "type": "function"
    },
    {
      "inputs": [
        {
          "internalType": "address",
          "name": "addressManager",
          "type": "address"
        }
      ],
      "name": "L1CrossDomainMessenger",
      "outputs": [
        {
          "internalType": "address",
          "name": "account_",
          "type": "address"
        }
      ],
      "stateMutability": "view",
      "type": "function"
    },
    {
      "inputs": [
        {
          "internalType": "address",
          "name": "addressManager",
          "type": "address"
        }
      ],
      "name": "L1StandardBridge",
      "outputs": [
        {
          "internalType": "address",
          "name": "account_",
          "type": "address"
        }
      ],
      "stateMutability": "view",
      "type": "function"
    },
    {
      "inputs": [],
      "name": "MINTER_ROLE",
      "outputs": [
        {
          "internalType": "bytes32",
          "name": "",
          "type": "bytes32"
        }
      ],
      "stateMutability": "view",
      "type": "function"
    },
    {
      "inputs": [
        {
          "internalType": "address",
          "name": "account",
          "type": "address"
        }
      ],
      "name": "addAdmin",
      "outputs": [],
      "stateMutability": "nonpayable",
      "type": "function"
    },
    {
      "inputs": [
        {
          "internalType": "address",
          "name": "",
          "type": "address"
        }
      ],
      "name": "aliveImplementation",
      "outputs": [
        {
          "internalType": "bool",
          "name": "",
          "type": "bool"
        }
      ],
      "stateMutability": "view",
      "type": "function"
    },
    {
      "inputs": [
        {
          "internalType": "uint32",
          "name": "layerIndex",
          "type": "uint32"
        },
        {
          "internalType": "address",
          "name": "account",
          "type": "address"
        }
      ],
      "name": "amountOfPendings",
      "outputs": [
        {
          "internalType": "uint256",
          "name": "amount",
          "type": "uint256"
        },
        {
          "internalType": "uint32",
          "name": "startIndex",
          "type": "uint32"
        },
        {
          "internalType": "uint32",
          "name": "len",
          "type": "uint32"
        },
        {
          "internalType": "uint32",
          "name": "nextWithdrawableBlockNumber",
          "type": "uint32"
        }
      ],
      "stateMutability": "view",
      "type": "function"
    },
    {
      "inputs": [
        {
          "internalType": "uint32",
          "name": "_index",
          "type": "uint32"
        },
        {
          "internalType": "address",
          "name": "account",
          "type": "address"
        }
      ],
      "name": "availableWithdraw",
      "outputs": [
        {
          "internalType": "uint256",
          "name": "amount",
          "type": "uint256"
        },
        {
          "internalType": "uint32",
          "name": "startIndex",
          "type": "uint32"
        },
        {
          "internalType": "uint32",
          "name": "len",
          "type": "uint32"
        }
      ],
      "stateMutability": "view",
      "type": "function"
    },
    {
      "inputs": [
        {
          "internalType": "uint32",
          "name": "_index",
          "type": "uint32"
        },
        {
          "internalType": "address",
          "name": "account",
          "type": "address"
        }
      ],
      "name": "balanceOf",
      "outputs": [
        {
          "internalType": "uint256",
          "name": "amount",
          "type": "uint256"
        }
      ],
      "stateMutability": "view",
      "type": "function"
    },
    {
      "inputs": [
        {
          "internalType": "uint32",
          "name": "_index",
          "type": "uint32"
        },
        {
          "internalType": "address",
          "name": "account",
          "type": "address"
        },
        {
          "internalType": "uint256",
          "name": "snapshotId",
          "type": "uint256"
        }
      ],
      "name": "balanceOfAt",
      "outputs": [
        {
          "internalType": "uint256",
          "name": "amount",
          "type": "uint256"
        }
      ],
      "stateMutability": "view",
      "type": "function"
    },
    {
      "inputs": [
        {
          "internalType": "uint32",
          "name": "_index",
          "type": "uint32"
        },
        {
          "internalType": "address",
          "name": "account",
          "type": "address"
        }
      ],
      "name": "balanceOfLton",
      "outputs": [
        {
          "internalType": "uint256",
          "name": "amount",
          "type": "uint256"
        }
      ],
      "stateMutability": "view",
      "type": "function"
    },
    {
      "inputs": [
        {
          "internalType": "uint32",
          "name": "_index",
          "type": "uint32"
        }
      ],
      "name": "balanceOfLton",
      "outputs": [
        {
          "internalType": "uint256",
          "name": "amount",
          "type": "uint256"
        }
      ],
      "stateMutability": "view",
      "type": "function"
    },
    {
      "inputs": [
        {
          "internalType": "uint32",
          "name": "_index",
          "type": "uint32"
        },
        {
          "internalType": "address",
          "name": "account",
          "type": "address"
        },
        {
          "internalType": "uint256",
          "name": "snapshotId",
          "type": "uint256"
        }
      ],
      "name": "balanceOfLtonAt",
      "outputs": [
        {
          "internalType": "uint256",
          "name": "amount",
          "type": "uint256"
        }
      ],
      "stateMutability": "view",
      "type": "function"
    },
    {
      "inputs": [
        {
          "internalType": "uint32",
          "name": "_index",
          "type": "uint32"
        },
        {
          "internalType": "uint256",
          "name": "snapshotId",
          "type": "uint256"
        }
      ],
      "name": "balanceOfLtonAt",
      "outputs": [
        {
          "internalType": "uint256",
          "name": "amount",
          "type": "uint256"
        }
      ],
      "stateMutability": "view",
      "type": "function"
    },
    {
      "inputs": [
        {
          "internalType": "uint32",
          "name": "_index",
          "type": "uint32"
        },
        {
          "internalType": "uint256",
          "name": "snapshotId",
          "type": "uint256"
        }
      ],
      "name": "balanceOfLtonAtSnapshot",
      "outputs": [
        {
          "internalType": "bool",
          "name": "snapshotted",
          "type": "bool"
        },
        {
          "internalType": "uint256",
          "name": "amount",
          "type": "uint256"
        }
      ],
      "stateMutability": "view",
      "type": "function"
    },
    {
      "inputs": [
        {
          "internalType": "uint32",
          "name": "_index",
          "type": "uint32"
        },
        {
          "internalType": "address",
          "name": "account",
          "type": "address"
        },
        {
          "internalType": "uint256",
          "name": "snapshotId",
          "type": "uint256"
        }
      ],
      "name": "balanceOfLtonAtSnapshot",
      "outputs": [
        {
          "internalType": "bool",
          "name": "snapshotted",
          "type": "bool"
        },
        {
          "internalType": "uint256",
          "name": "amount",
          "type": "uint256"
        }
      ],
      "stateMutability": "view",
      "type": "function"
    },
    {
      "inputs": [
        {
          "internalType": "uint32",
          "name": "_index",
          "type": "uint32"
        }
      ],
      "name": "bridges",
      "outputs": [
        {
          "internalType": "address",
          "name": "",
          "type": "address"
        },
        {
          "internalType": "address",
          "name": "",
          "type": "address"
        }
      ],
      "stateMutability": "view",
      "type": "function"
    },
    {
      "inputs": [
        {
          "internalType": "uint32",
          "name": "_index",
          "type": "uint32"
        },
        {
          "internalType": "bytes",
          "name": "_layerInfo",
          "type": "bytes"
        }
      ],
      "name": "create",
      "outputs": [
        {
          "internalType": "bool",
          "name": "",
          "type": "bool"
        }
      ],
      "stateMutability": "nonpayable",
      "type": "function"
    },
    {
      "inputs": [
        {
          "internalType": "uint32",
          "name": "_index",
          "type": "uint32"
        }
      ],
      "name": "existedIndex",
      "outputs": [
        {
          "internalType": "bool",
          "name": "",
          "type": "bool"
        }
      ],
      "stateMutability": "view",
      "type": "function"
    },
    {
      "inputs": [
        {
          "internalType": "bytes32",
          "name": "hashMessage",
          "type": "bytes32"
        },
        {
          "internalType": "uint32",
          "name": "layerIndex",
          "type": "uint32"
        },
        {
          "internalType": "address",
          "name": "from",
          "type": "address"
        },
        {
          "internalType": "address",
          "name": "to",
          "type": "address"
        },
        {
          "internalType": "uint256",
          "name": "amount",
          "type": "uint256"
        }
      ],
      "name": "fastWithdrawClaim",
      "outputs": [
        {
          "internalType": "bool",
          "name": "",
          "type": "bool"
        }
      ],
      "stateMutability": "nonpayable",
      "type": "function"
    },
    {
      "inputs": [
        {
          "internalType": "bytes32",
          "name": "hashMessage",
          "type": "bytes32"
        },
        {
          "internalType": "uint32",
          "name": "layerIndex",
          "type": "uint32"
        },
        {
          "internalType": "address",
          "name": "staker",
          "type": "address"
        },
        {
          "internalType": "uint256",
          "name": "_amount",
          "type": "uint256"
        }
      ],
      "name": "fastWithdrawStake",
      "outputs": [
        {
          "internalType": "bool",
          "name": "",
          "type": "bool"
        }
      ],
      "stateMutability": "nonpayable",
      "type": "function"
    },
    {
      "inputs": [],
      "name": "fwReceipt",
      "outputs": [
        {
          "internalType": "address",
          "name": "",
          "type": "address"
        }
      ],
      "stateMutability": "view",
      "type": "function"
    },
    {
      "inputs": [],
      "name": "getCurrentSnapshotId",
      "outputs": [
        {
          "internalType": "uint256",
          "name": "",
          "type": "uint256"
        }
      ],
      "stateMutability": "view",
      "type": "function"
    },
    {
      "inputs": [
        {
          "internalType": "uint32",
          "name": "_index",
          "type": "uint32"
        }
      ],
      "name": "getLayerInfo",
      "outputs": [
        {
          "components": [
            {
              "internalType": "address",
              "name": "addressManager",
              "type": "address"
            },
            {
              "internalType": "address",
              "name": "l1Bridge",
              "type": "address"
            },
            {
              "internalType": "address",
              "name": "l2Bridge",
              "type": "address"
            },
            {
              "internalType": "address",
              "name": "l2ton",
              "type": "address"
            }
          ],
          "internalType": "struct LibOptimism.Info",
          "name": "_layerInfo",
          "type": "tuple"
        }
      ],
      "stateMutability": "view",
      "type": "function"
    },
    {
      "inputs": [
        {
          "internalType": "uint32",
          "name": "_index",
          "type": "uint32"
        }
      ],
      "name": "getLayerKey",
      "outputs": [
        {
          "internalType": "bytes32",
          "name": "layerKey_",
          "type": "bytes32"
        }
      ],
      "stateMutability": "view",
      "type": "function"
    },
    {
      "inputs": [
        {
          "internalType": "uint32",
          "name": "_index",
          "type": "uint32"
        },
        {
          "internalType": "address",
          "name": "account",
          "type": "address"
        }
      ],
      "name": "getLayerStakes",
      "outputs": [
        {
          "components": [
            {
              "internalType": "uint256",
              "name": "stakePrincipal",
              "type": "uint256"
            },
            {
              "internalType": "uint256",
              "name": "stakelton",
              "type": "uint256"
            },
            {
              "internalType": "bool",
              "name": "stake",
              "type": "bool"
            }
          ],
          "internalType": "struct LibStake.StakeInfo",
          "name": "info",
          "type": "tuple"
        }
      ],
      "stateMutability": "view",
      "type": "function"
    },
    {
      "inputs": [
        {
          "internalType": "uint32",
          "name": "_index",
          "type": "uint32"
        },
        {
          "internalType": "address",
          "name": "account",
          "type": "address"
        }
      ],
      "name": "getPendingUnstakedAmount",
      "outputs": [
        {
          "internalType": "uint256",
          "name": "",
          "type": "uint256"
        }
      ],
      "stateMutability": "view",
      "type": "function"
    },
    {
      "inputs": [
        {
          "internalType": "bytes32",
          "name": "role",
          "type": "bytes32"
        }
      ],
      "name": "getRoleAdmin",
      "outputs": [
        {
          "internalType": "bytes32",
          "name": "",
          "type": "bytes32"
        }
      ],
      "stateMutability": "view",
      "type": "function"
    },
    {
      "inputs": [],
      "name": "getStakeAccountList",
      "outputs": [
        {
          "internalType": "address[]",
          "name": "",
          "type": "address[]"
        }
      ],
      "stateMutability": "view",
      "type": "function"
    },
    {
      "inputs": [],
      "name": "getTotalLton",
      "outputs": [
        {
          "internalType": "uint256",
          "name": "",
          "type": "uint256"
        }
      ],
      "stateMutability": "view",
      "type": "function"
    },
    {
      "inputs": [
        {
          "internalType": "uint32",
          "name": "_index",
          "type": "uint32"
        }
      ],
      "name": "getTvl",
      "outputs": [
        {
          "internalType": "uint256",
          "name": "amount",
          "type": "uint256"
        }
      ],
      "stateMutability": "view",
      "type": "function"
    },
    {
      "inputs": [
        {
          "internalType": "address",
          "name": "l1Bridge",
          "type": "address"
        },
        {
          "internalType": "address",
          "name": "l2ton",
          "type": "address"
        }
      ],
      "name": "getTvl",
      "outputs": [
        {
          "internalType": "uint256",
          "name": "amount",
          "type": "uint256"
        }
      ],
      "stateMutability": "view",
      "type": "function"
    },
    {
      "inputs": [
        {
          "internalType": "bytes32",
          "name": "role",
          "type": "bytes32"
        },
        {
          "internalType": "address",
          "name": "account",
          "type": "address"
        }
      ],
      "name": "grantRole",
      "outputs": [],
      "stateMutability": "nonpayable",
      "type": "function"
    },
    {
      "inputs": [
        {
          "internalType": "bytes32",
          "name": "role",
          "type": "bytes32"
        },
        {
          "internalType": "address",
          "name": "account",
          "type": "address"
        }
      ],
      "name": "hasRole",
      "outputs": [
        {
          "internalType": "bool",
          "name": "",
          "type": "bool"
        }
      ],
      "stateMutability": "view",
      "type": "function"
    },
    {
      "inputs": [
        {
          "internalType": "address",
          "name": "account",
          "type": "address"
        }
      ],
      "name": "isAdmin",
      "outputs": [
        {
          "internalType": "bool",
          "name": "",
          "type": "bool"
        }
      ],
      "stateMutability": "view",
      "type": "function"
    },
    {
      "inputs": [
        {
          "internalType": "uint32",
          "name": "_index",
          "type": "uint32"
        }
      ],
      "name": "layer2Deposits",
      "outputs": [
        {
          "internalType": "uint256",
          "name": "amount",
          "type": "uint256"
        }
      ],
      "stateMutability": "view",
      "type": "function"
    },
    {
      "inputs": [],
      "name": "layer2Manager",
      "outputs": [
        {
          "internalType": "address",
          "name": "",
          "type": "address"
        }
      ],
      "stateMutability": "view",
      "type": "function"
    },
    {
      "inputs": [
        {
          "internalType": "uint32",
          "name": "",
          "type": "uint32"
        }
      ],
      "name": "layerInfo",
      "outputs": [
        {
          "internalType": "bytes",
          "name": "",
          "type": "bytes"
        }
      ],
      "stateMutability": "view",
      "type": "function"
    },
    {
      "inputs": [
        {
          "internalType": "uint32",
          "name": "",
          "type": "uint32"
        }
      ],
      "name": "layerStakedLton",
      "outputs": [
        {
          "internalType": "uint256",
          "name": "",
          "type": "uint256"
        }
      ],
      "stateMutability": "view",
      "type": "function"
    },
    {
      "inputs": [
        {
          "internalType": "uint32",
          "name": "",
          "type": "uint32"
        },
        {
          "internalType": "address",
          "name": "",
          "type": "address"
        }
      ],
      "name": "layerStakes",
      "outputs": [
        {
          "internalType": "uint256",
          "name": "stakePrincipal",
          "type": "uint256"
        },
        {
          "internalType": "uint256",
          "name": "stakelton",
          "type": "uint256"
        },
        {
          "internalType": "bool",
          "name": "stake",
          "type": "bool"
        }
      ],
      "stateMutability": "view",
      "type": "function"
    },
    {
      "inputs": [
        {
          "internalType": "uint32",
          "name": "layerIndex",
          "type": "uint32"
        },
        {
          "internalType": "address",
          "name": "account",
          "type": "address"
        }
      ],
      "name": "numberOfPendings",
      "outputs": [
        {
          "internalType": "uint256",
          "name": "totalRequests",
          "type": "uint256"
        },
        {
          "internalType": "uint256",
          "name": "withdrawIndex",
          "type": "uint256"
        },
        {
          "internalType": "uint256",
          "name": "pendingLength",
          "type": "uint256"
        }
      ],
      "stateMutability": "view",
      "type": "function"
    },
    {
      "inputs": [
        {
          "internalType": "address",
          "name": "sender",
          "type": "address"
        },
        {
          "internalType": "address",
          "name": "spender",
          "type": "address"
        },
        {
          "internalType": "uint256",
          "name": "amount",
          "type": "uint256"
        },
        {
          "internalType": "bytes",
          "name": "data",
          "type": "bytes"
        }
      ],
      "name": "onApprove",
      "outputs": [
        {
          "internalType": "bool",
          "name": "",
          "type": "bool"
        }
      ],
      "stateMutability": "nonpayable",
      "type": "function"
    },
    {
      "inputs": [],
      "name": "pauseProxy",
      "outputs": [
        {
          "internalType": "bool",
          "name": "",
          "type": "bool"
        }
      ],
      "stateMutability": "view",
      "type": "function"
    },
    {
      "inputs": [
        {
          "internalType": "uint32",
          "name": "",
          "type": "uint32"
        },
        {
          "internalType": "address",
          "name": "",
          "type": "address"
        }
      ],
      "name": "pendingUnstaked",
      "outputs": [
        {
          "internalType": "uint256",
          "name": "",
          "type": "uint256"
        }
      ],
      "stateMutability": "view",
      "type": "function"
    },
    {
      "inputs": [
        {
          "internalType": "address",
          "name": "",
          "type": "address"
        }
      ],
      "name": "pendingUnstakedAccount",
      "outputs": [
        {
          "internalType": "uint256",
          "name": "",
          "type": "uint256"
        }
      ],
      "stateMutability": "view",
      "type": "function"
    },
    {
      "inputs": [
        {
          "internalType": "uint32",
          "name": "",
          "type": "uint32"
        }
      ],
      "name": "pendingUnstakedLayer2",
      "outputs": [
        {
          "internalType": "uint256",
          "name": "",
          "type": "uint256"
        }
      ],
      "stateMutability": "view",
      "type": "function"
    },
    {
      "inputs": [
        {
          "internalType": "uint256",
          "name": "",
          "type": "uint256"
        }
      ],
      "name": "proxyImplementation",
      "outputs": [
        {
          "internalType": "address",
          "name": "",
          "type": "address"
        }
      ],
      "stateMutability": "view",
      "type": "function"
    },
    {
      "inputs": [
        {
          "internalType": "address",
          "name": "account",
          "type": "address"
        }
      ],
      "name": "removeAdmin",
      "outputs": [],
      "stateMutability": "nonpayable",
      "type": "function"
    },
    {
      "inputs": [
        {
          "internalType": "bytes32",
          "name": "role",
          "type": "bytes32"
        },
        {
          "internalType": "address",
          "name": "account",
          "type": "address"
        }
      ],
      "name": "renounceRole",
      "outputs": [],
      "stateMutability": "nonpayable",
      "type": "function"
    },
    {
      "inputs": [
        {
          "internalType": "uint32",
          "name": "_index",
          "type": "uint32"
        }
      ],
      "name": "restake",
      "outputs": [],
      "stateMutability": "nonpayable",
      "type": "function"
    },
    {
      "inputs": [
        {
          "internalType": "uint32",
          "name": "_index",
          "type": "uint32"
        },
        {
          "internalType": "uint256",
          "name": "n",
          "type": "uint256"
        }
      ],
      "name": "restakeMulti",
      "outputs": [],
      "stateMutability": "nonpayable",
      "type": "function"
    },
    {
      "inputs": [
        {
          "internalType": "bytes32",
          "name": "role",
          "type": "bytes32"
        },
        {
          "internalType": "address",
          "name": "account",
          "type": "address"
        }
      ],
      "name": "revokeRole",
      "outputs": [],
      "stateMutability": "nonpayable",
      "type": "function"
    },
    {
      "inputs": [],
      "name": "seigManagerV2",
      "outputs": [
        {
          "internalType": "address",
          "name": "",
          "type": "address"
        }
      ],
      "stateMutability": "view",
      "type": "function"
    },
    {
      "inputs": [
        {
          "internalType": "bytes4",
          "name": "",
          "type": "bytes4"
        }
      ],
      "name": "selectorImplementation",
      "outputs": [
        {
          "internalType": "address",
          "name": "",
          "type": "address"
        }
      ],
      "stateMutability": "view",
      "type": "function"
    },
    {
      "inputs": [
        {
          "internalType": "address",
          "name": "addressManager",
          "type": "address"
        }
      ],
      "name": "sequencer",
      "outputs": [
        {
          "internalType": "address",
          "name": "sequencer_",
          "type": "address"
        }
      ],
      "stateMutability": "view",
      "type": "function"
    },
    {
      "inputs": [
        {
          "internalType": "uint32",
          "name": "_index",
          "type": "uint32"
        }
      ],
      "name": "sequencer",
      "outputs": [
        {
          "internalType": "address",
          "name": "sequencer_",
          "type": "address"
        }
      ],
      "stateMutability": "view",
      "type": "function"
    },
    {
      "inputs": [
        {
          "internalType": "uint32",
          "name": "_index",
          "type": "uint32"
        },
        {
          "internalType": "uint256",
          "name": "amount",
          "type": "uint256"
        }
      ],
      "name": "stake",
      "outputs": [],
      "stateMutability": "nonpayable",
      "type": "function"
    },
    {
      "inputs": [
        {
          "internalType": "uint256",
          "name": "",
          "type": "uint256"
        }
      ],
      "name": "stakeAccountList",
      "outputs": [
        {
          "internalType": "address",
          "name": "",
          "type": "address"
        }
      ],
      "stateMutability": "view",
      "type": "function"
    },
    {
      "inputs": [
        {
          "internalType": "bytes4",
          "name": "interfaceId",
          "type": "bytes4"
        }
      ],
      "name": "supportsInterface",
      "outputs": [
        {
          "internalType": "bool",
          "name": "",
          "type": "bool"
        }
      ],
      "stateMutability": "view",
      "type": "function"
    },
    {
      "inputs": [],
      "name": "ton",
      "outputs": [
        {
          "internalType": "address",
          "name": "",
          "type": "address"
        }
      ],
      "stateMutability": "view",
      "type": "function"
    },
    {
      "inputs": [],
      "name": "totalLayer2Deposits",
      "outputs": [
        {
          "internalType": "uint256",
          "name": "amount",
          "type": "uint256"
        }
      ],
      "stateMutability": "view",
      "type": "function"
    },
    {
      "inputs": [],
      "name": "totalStakeAccountList",
      "outputs": [
        {
          "internalType": "uint256",
          "name": "",
          "type": "uint256"
        }
      ],
      "stateMutability": "view",
      "type": "function"
    },
    {
      "inputs": [],
      "name": "totalStakedLton",
      "outputs": [
        {
          "internalType": "uint256",
          "name": "amount",
          "type": "uint256"
        }
      ],
      "stateMutability": "view",
      "type": "function"
    },
    {
      "inputs": [
        {
          "internalType": "uint256",
          "name": "snapshotId",
          "type": "uint256"
        }
      ],
      "name": "totalStakedLtonAt",
      "outputs": [
        {
          "internalType": "uint256",
          "name": "amount",
          "type": "uint256"
        }
      ],
      "stateMutability": "view",
      "type": "function"
    },
    {
      "inputs": [
        {
          "internalType": "uint256",
          "name": "snapshotId",
          "type": "uint256"
        }
      ],
      "name": "totalStakedLtonAtSnapshot",
      "outputs": [
        {
          "internalType": "bool",
          "name": "snapshotted",
          "type": "bool"
        },
        {
          "internalType": "uint256",
          "name": "amount",
          "type": "uint256"
        }
      ],
      "stateMutability": "view",
      "type": "function"
    },
    {
      "inputs": [
        {
          "internalType": "address",
          "name": "newAdmin",
          "type": "address"
        }
      ],
      "name": "transferAdmin",
      "outputs": [],
      "stateMutability": "nonpayable",
      "type": "function"
    },
    {
      "inputs": [
        {
          "internalType": "uint32",
          "name": "_index",
          "type": "uint32"
        },
        {
          "internalType": "uint256",
          "name": "lton_",
          "type": "uint256"
        }
      ],
      "name": "unstake",
      "outputs": [],
      "stateMutability": "nonpayable",
      "type": "function"
    },
    {
      "inputs": [
        {
          "internalType": "uint32",
          "name": "_index",
          "type": "uint32"
        }
      ],
      "name": "withdraw",
      "outputs": [],
      "stateMutability": "nonpayable",
      "type": "function"
    },
    {
      "inputs": [
        {
          "internalType": "uint32",
          "name": "",
          "type": "uint32"
        },
        {
          "internalType": "address",
          "name": "",
          "type": "address"
        }
      ],
      "name": "withdrawalRequestIndex",
      "outputs": [
        {
          "internalType": "uint256",
          "name": "",
          "type": "uint256"
        }
      ],
      "stateMutability": "view",
      "type": "function"
    },
    {
      "inputs": [
        {
          "internalType": "uint32",
          "name": "",
          "type": "uint32"
        },
        {
          "internalType": "address",
          "name": "",
          "type": "address"
        },
        {
          "internalType": "uint256",
          "name": "",
          "type": "uint256"
        }
      ],
      "name": "withdrawalRequests",
      "outputs": [
        {
          "internalType": "uint32",
          "name": "withdrawableBlockNumber",
          "type": "uint32"
        },
        {
          "internalType": "uint128",
          "name": "amount",
          "type": "uint128"
        },
        {
          "internalType": "bool",
          "name": "processed",
          "type": "bool"
        }
      ],
      "stateMutability": "view",
      "type": "function"
    }
  ],
  "bytecode": "0x60806040526006805460ff1916600117905534801561001d57600080fd5b50614a1f8061002d6000396000f3fe608060405234801561001057600080fd5b50600436106103a85760003560e01c806375b238fc116101eb578063a2dc9e0211610110578063cdc76cf9116100a8578063cdc76cf914610aaf578063d07918f114610ac2578063d539139314610ad5578063d547741f14610afc578063df2b429014610b0f578063e4f6815514610b22578063ec110d4514610b35578063edcc217714610b48578063f8d437ae14610b5b57600080fd5b8063a2dc9e02146109df578063a4c735ef146109f2578063aa9224cd14610a05578063b413b37a146105ae578063b6a2f99d14610a18578063b911135f14610a46578063b969fbef14610a6f578063b9cab97114610a77578063cc48b94714610a9757600080fd5b80638d99e1ca116101835780638d99e1ca146108c05780638ddd87fe146108d357806391d148541461091157806394c89b2c1461092457806398238355146109375780639c2f614f1461094a5780639c656e261461095d578063a0b2a913146109b7578063a217fddf146109d757600080fd5b806375b238fc146107835780637cf1587c146107985780637d211a1c146107c35780637ec6840f146107d657806385b9e485146107e95780638afec9fc146107fc5780638c6f1b39146108225780638c71762d146108785780638d1f3d0a146108ad57600080fd5b80634e1a264d116102d1578063659ab82011610269578063659ab820146106925780636818a32b146106b25780636d1ef103146106c5578063704802751461070457806370619cf9146107175780637138c7921461073757806373469a7a1461074a578063744a35611461075d57806375829def1461077057600080fd5b80634e1a264d146105ae5780634ec2f04b146105b657806350d2a276146105e05780635439ad8614610609578063550d01a3146106115780635d0c7b2b146106345780635e2cfe45146106475780635f1b989e1461067257806363a8fd891461068557600080fd5b806324d7806c1161034457806324d7806c146104f8578063282c51f31461050b57806329637c1c146105325780632f2ff15d1461054557806336568abe1461055857806341e5dbe81461056b5780634273ca161461057e57806346bcdb49146105915780634de131ca1461059957600080fd5b80630116cc65146103ad57806301ffc9a7146103d35780630b8931cb146103f6578063118e29d11461041757806316b5d5bd1461042c5780631785f53c1461044c5780631ed944951461045f5780631f760d0114610496578063248a9ca3146104d5575b600080fd5b6103c06103bb366004613f68565b610b6e565b6040519081526020015b60405180910390f35b6103e66103e1366004613f83565b610b9f565b60405190151581526020016103ca565b610409610404366004613f68565b610bd6565b6040516103ca929190613fad565b61042a610425366004613f68565b610c7c565b005b60085461043f906001600160a01b031681565b6040516103ca9190613fc7565b61042a61045a366004613ff0565b610cd6565b61047261046d36600461400d565b610d16565b604080518251815260208084015190820152918101511515908201526060016103ca565b6104a96104a436600461400d565b610d95565b6040805194855263ffffffff9384166020860152918316918401919091521660608201526080016103ca565b6103c06104e3366004614044565b60009081526020819052604090206001015490565b6103e6610506366004613ff0565b610ed2565b6103c07f9667e80708b6eeeb0053fa0cca44e028ff548e2a9f029edfeac87c118b08b7c881565b6103c061054036600461405d565b610eec565b61042a61055336600461409c565b610f7b565b61042a61056636600461409c565b610fa5565b6103c0610579366004613f68565b61101f565b6103e661058c3660046140c1565b6110f7565b6017546103c0565b6105a1611227565b6040516103ca9190614160565b600a546103c0565b6105c96105c43660046141ad565b611289565b6040805192151583526020830191909152016103ca565b61043f6105ee366004613f83565b6004602052600090815260409020546001600160a01b031681565b6103c06112b7565b6103e661061f366004613ff0565b60036020526000908152604090205460ff1681565b61043f610642366004613ff0565b61132a565b6103c061065536600461400d565b601360209081526000928352604080842090915290825290205481565b6103c061068036600461400d565b6113d5565b6001546103e69060ff1681565b6106a56106a0366004613f68565b61142d565b6040516103ca9190614227565b6103c06106c036600461405d565b6114c7565b6106d86106d336600461405d565b611523565b6040805163ffffffff90941684526001600160801b0390921660208401521515908201526060016103ca565b61042a610712366004613ff0565b611581565b6103c0610725366004613f68565b600d6020526000908152604090205481565b6103e661074536600461423a565b6115be565b60075461043f906001600160a01b031681565b61042a61076b3660046141ad565b611770565b61042a61077e366004613ff0565b6117bc565b6103c06000805160206149ca83398151915281565b6103c06107a636600461400d565b601260209081526000928352604080842090915290825290205481565b6103e66107d1366004613f68565b6118b3565b61042a6107e43660046141ad565b61194a565b6103e66107f7366004614280565b61197c565b6103c061080a366004613f68565b63ffffffff166000908152600d602052604090205490565b610835610830366004613f68565b611bda565b6040516103ca919081516001600160a01b039081168252602080840151821690830152604080840151821690830152606092830151169181019190915260800190565b61088b61088636600461400d565b611c85565b6040805193845263ffffffff92831660208501529116908201526060016103ca565b61043f6108bb366004613f68565b611dc1565b6103c06108ce366004613f68565b611f53565b6103c06108e136600461400d565b63ffffffff821660009081526013602090815260408083206001600160a01b038516845290915290205492915050565b6103e661091f36600461409c565b611fc6565b6103c061093236600461400d565b611fef565b6105c961094536600461405d565b612073565b61042a6109583660046141ad565b6120b5565b61099a61096b36600461400d565b600f60209081526000928352604080842090915290825290208054600182015460029092015490919060ff1683565b6040805193845260208401929092521515908201526060016103ca565b6103c06109c5366004613ff0565b60156020526000908152604090205481565b6103c0600081565b61043f6109ed366004613ff0565b61213f565b61043f610a00366004613ff0565b6121b1565b61042a610a13366004613f68565b61220e565b610a2b610a2636600461400d565b6125ff565b604080519384526020840192909252908201526060016103ca565b61043f610a54366004614044565b6002602052600090815260409020546001600160a01b031681565b6103c061265a565b6103c0610a85366004613f68565b60146020526000908152604090205481565b60065461043f9061010090046001600160a01b031681565b6103c0610abd3660046141ad565b6126a4565b60095461043f906001600160a01b031681565b6103c07ff0887ba65ee2024ea881d91b74c2450ef19e1557f03bed3ea9f16b037cbe2dc981565b61042a610b0a36600461409c565b6126f7565b6103e6610b1d366004614320565b61271c565b6103c0610b30366004614044565b61283a565b61043f610b43366004614044565b61285b565b6103c0610b563660046143c6565b612885565b6105c9610b69366004614044565b612937565b63ffffffff81166000908152601660205260408082209051610b909190614418565b60405180910390209050919050565b60006001600160e01b03198216637965db0b60e01b1480610bd057506301ffc9a760e01b6001600160e01b03198316145b92915050565b63ffffffff8116600090815260166020526040808220905163186ca86f60e21b81528291829173__$35081dc60fc26376aafbbba403b8b17c43$__916361b2a1bc91610c25919060040161448e565b608060405180830381865af4158015610c42573d6000803e3d6000fd5b505050506040513d601f19601f82011682018060405250810190610c669190614519565b9050806020015181604001519250925050915091565b63ffffffff811660009081526012602090815260408083203380855292529091205490610cad90839083600161294e565b610cd25760405162461bcd60e51b8152600401610cc99061459e565b60405180910390fd5b5050565b610cdf33610ed2565b610cfb5760405162461bcd60e51b8152600401610cc9906145c4565b610d136000805160206149ca83398151915282610fa5565b50565b610d3c604051806060016040528060008152602001600081526020016000151581525090565b5063ffffffff9091166000908152600f602090815260408083206001600160a01b039094168352928152908290208251606081018452815481526001820154928101929092526002015460ff1615159181019190915290565b63ffffffff80831660008181526011602090815260408083206001600160a01b038716808552908352818420549484526012835281842090845290915281205490929091839182919084165b81811015610ec75763ffffffff881660009081526011602090815260408083206001600160a01b038b1684529091528120805483908110610e2457610e24614606565b6000918252602080832060408051606081018252939091015463ffffffff81168452600160201b81046001600160801b031692840192909252600160a01b90910460ff1615159082018190529092509003610eb4578363ffffffff16600003610e8c57805193505b6020810151610ea4906001600160801b031688614632565b9650610eb1600186614645565b94505b5080610ebf81614669565b915050610de1565b505092959194509250565b6000610bd06000805160206149ca83398151915283611fc6565b6007546000906001600160a01b0316638df40b2c610f0b8686866114c7565b846040518363ffffffff1660e01b8152600401610f32929190918252602082015260400190565b602060405180830381865afa158015610f4f573d6000803e3d6000fd5b505050506040513d601f19601f82011682018060405250810190610f739190614682565b949350505050565b600082815260208190526040902060010154610f9681612dbd565b610fa08383612dc7565b505050565b6001600160a01b03811633146110155760405162461bcd60e51b815260206004820152602f60248201527f416363657373436f6e74726f6c3a2063616e206f6e6c792072656e6f756e636560448201526e103937b632b9903337b91039b2b63360891b6064820152608401610cc9565b610cd28282612e4b565b60008061102b83611bda565b905061103a816000015161213f565b60065460608301516040516347b00fb360e11b81526001600160a01b0393841693638f601f66936110779361010090910490911691600401613fad565b602060405180830381865afa9250505080156110b0575060408051601f3d908101601f191682019092526110ad91810190614682565b60015b6110ee573d8080156110de576040519150601f19603f3d011682016040523d82523d6000602084013e6110e3565b606091505b5060009250506110f1565b91505b50919050565b60065460009061010090046001600160a01b0316331461113e5760405162461bcd60e51b8152602060048201526002602482015261454160f01b6044820152606401610cc9565b6111856107d1600085858080601f0160208091040260200160405190810160405280939291908181526020018383808284376000920191909152509293925050612eb09050565b6111a15760405162461bcd60e51b8152600401610cc99061469b565b60006111e7600085858080601f0160208091040260200160405190810160405280939291908181526020018383808284376000920191909152509293925050612eb09050565b9050841561120c5760065461120c9061010090046001600160a01b0316883088612f5b565b61121a818887600080613076565b5060019695505050505050565b6060601780548060200260200160405190810160405280929190818152602001828054801561127f57602002820191906000526020600020905b81546001600160a01b03168152600190910190602001808311611261575b5050505050905090565b63ffffffff82166000908152600e6020526040812081906112ab908490613439565b915091505b9250929050565b60075460408051632a1cd6c360e11b815290516000926001600160a01b031691635439ad869160048083019260209291908290030181865afa158015611301573d6000803e3d6000fd5b505050506040513d601f19601f820116820180604052508101906113259190614682565b905090565b60405163bf40fac160e01b81526000906001600160a01b0383169063bf40fac190611357906004016146c9565b602060405180830381865afa925050508015611390575060408051601f3d908101601f1916820190925261138d918101906146f0565b60015b6113cd573d8080156113be576040519150601f19603f3d011682016040523d82523d6000602084013e6113c3565b606091505b5060009392505050565b90505b919050565b63ffffffff9091166000908152600f602090815260408083206001600160a01b03909416835292815290829020825160608101845281548152600182015492810183905260029091015460ff16151592019190915290565b60166020526000908152604090208054611446906143e4565b80601f0160208091040260200160405190810160405280929190818152602001828054611472906143e4565b80156114bf5780601f10611494576101008083540402835291602001916114bf565b820191906000526020600020905b8154815290600101906020018083116114a257829003601f168201915b505050505081565b63ffffffff831660009081526010602090815260408083206001600160a01b03861684529091528120819081906114ff908590613439565b91509150816115175761151286866113d5565b611519565b805b9695505050505050565b6011602052826000526040600020602052816000526040600020818154811061154b57600080fd5b60009182526020909120015463ffffffff81169350600160201b81046001600160801b03169250600160a01b900460ff16905083565b61158a33610ed2565b6115a65760405162461bcd60e51b8152600401610cc9906145c4565b610d136000805160206149ca83398151915282610f7b565b6009546000906001600160a01b031633146115eb5760405162461bcd60e51b8152600401610cc99061470d565b6115f58484613557565b600754604051636a2fb1f560e01b8152600481018490526000916001600160a01b031690636a2fb1f590602401602060405180830381865afa15801561163f573d6000803e3d6000fd5b505050506040513d601f19601f820116820180604052508101906116639190614682565b63ffffffff86166000908152600d602052604081208054929350839290919061168d908490614632565b9250508190555080600a60008282546116a69190614632565b909155505063ffffffff85166000908152600f602090815260408083206001600160a01b038816845290915281208054909185918391906116e8908490614632565b92505081905550818160010160008282546117039190614632565b90915550506040805188815263ffffffff881660208201526001600160a01b03871681830152606081018690526080810184905290517f8cf204c07a4ce065cdd0c90963672bd384e5479ada88179bca8eb6075c02731f9181900360a00190a15060019695505050505050565b63ffffffff8216600090815260126020908152604080832033808552925290912054906117a0908490838561294e565b610fa05760405162461bcd60e51b8152600401610cc99061459e565b6117c533610ed2565b6117e15760405162461bcd60e51b8152600401610cc9906145c4565b6001600160a01b0381166118325760405162461bcd60e51b815260206004820152601860248201527741636365737369626c653a207a65726f206164647265737360401b6044820152606401610cc9565b6001600160a01b03811633036118835760405162461bcd60e51b815260206004820152601660248201527520b1b1b2b9b9b4b136329d1039b0b6b29030b236b4b760511b6044820152606401610cc9565b61189b6000805160206149ca83398151915282610f7b565b610d136000805160206149ca83398151915233610fa5565b60085460405163370f791d60e11b815263ffffffff831660048201526000916001600160a01b031690636e1ef23a90602401602060405180830381865afa158015611902573d6000803e3d6000fd5b505050506040513d601f19601f820116820180604052508101906119269190614734565b6119425760405162461bcd60e51b8152600401610cc99061469b565b506001919050565b611953826118b3565b61196f5760405162461bcd60e51b8152600401610cc99061469b565b610cd282826000806135cc565b60065460009060ff166119a15760405162461bcd60e51b8152600401610cc990614756565b6006805460ff191690556009546001600160a01b031633146119d55760405162461bcd60e51b8152600401610cc99061470d565b816119e08686611fef565b1015611a2a5760405162461bcd60e51b81526020600482015260196024820152781b1a5c5d5a591a5d1e481a5cc81a5b9cdd59999a58da595b9d603a1b6044820152606401610cc9565b611a348585613557565b6006546040516370a0823160e01b815260009161010090046001600160a01b0316906370a0823190611a6a903090600401613fc7565b602060405180830381865afa158015611a87573d6000803e3d6000fd5b505050506040513d601f19601f82011682018060405250810190611aab9190614682565b905082811015611b47578015611ad757600654611ad79061010090046001600160a01b031685836135fc565b6007546001600160a01b031663aad3ec9685611af38487614774565b6040518363ffffffff1660e01b8152600401611b10929190614787565b600060405180830381600087803b158015611b2a57600080fd5b505af1158015611b3e573d6000803e3d6000fd5b50505050611b63565b600654611b639061010090046001600160a01b031685856135fc565b6040805188815263ffffffff881660208201526001600160a01b0387811682840152861660608201526080810185905290517f77fbf71434da34ef2aa8382e2b751b6b2de7bd18d96a07ff7f4dae7dae9237619181900360a00190a160019150506006805460ff1916600117905595945050505050565b60408051608081018252600080825260208083018290528284018290526060830182905263ffffffff8516825260169052829020915163186ca86f60e21b8152909173__$35081dc60fc26376aafbbba403b8b17c43$__916361b2a1bc91611c449160040161448e565b608060405180830381865af4158015611c61573d6000803e3d6000fd5b505050506040513d601f19601f82011682018060405250810190610bd09190614519565b63ffffffff80831660008181526011602090815260408083206001600160a01b038716808552908352818420549484526012835281842090845290915281205490929091839183165b81811015611db85763ffffffff871660009081526011602090815260408083206001600160a01b038a1684529091528120805483908110611d1157611d11614606565b600091825260209182902060408051606081018252929091015463ffffffff8116808452600160201b82046001600160801b031694840194909452600160a01b900460ff16151590820152915043118015611d6e57506040810151155b15611d9f576020810151611d8b906001600160801b031687614632565b9550611d98600185614645565b9350611da5565b50611db8565b5080611db081614669565b915050611cce565b50509250925092565b63ffffffff811660009081526016602052604080822090516379a0c08760e11b8152829173__$35081dc60fc26376aafbbba403b8b17c43$__9163f341810e91611e0d9160040161448e565b602060405180830381865af4158015611e2a573d6000803e3d6000fd5b505050506040513d601f19601f82011682018060405250810190611e4e91906146f0565b90506001600160a01b038116611e675750600092915050565b63ffffffff83166000908152601660205260409081902090516379a0c08760e11b815273__$35081dc60fc26376aafbbba403b8b17c43$__9163f341810e91611eb3919060040161448e565b602060405180830381865af4158015611ed0573d6000803e3d6000fd5b505050506040513d601f19601f82011682018060405250810190611ef491906146f0565b6001600160a01b031663bf40fac16040518163ffffffff1660e01b8152600401611f1d906146c9565b602060405180830381865afa9250505080156110b0575060408051601f3d908101601f191682019092526110ad918101906146f0565b6008546040516346ccf0e560e11b815263ffffffff831660048201526000916001600160a01b031690638d99e1ca90602401602060405180830381865afa158015611fa2573d6000803e3d6000fd5b505050506040513d601f19601f82011682018060405250810190610bd09190614682565b6000918252602082815260408084206001600160a01b0393909316845291905290205460ff1690565b6007546000906001600160a01b031663cdf6800961200d85856113d5565b6040518263ffffffff1660e01b815260040161202b91815260200190565b602060405180830381865afa158015612048573d6000803e3d6000fd5b505050506040513d601f19601f8201168201806040525081019061206c9190614682565b9392505050565b63ffffffff831660009081526010602090815260408083206001600160a01b0386168452909152812081906120a9908490613439565b91509150935093915050565b600954604051630265991f60e61b81526000600482015263ffffffff84166024820152336044820152610cd291849184916001600160a01b03169063996647c090606401602060405180830381865afa158015612116573d6000803e3d6000fd5b505050506040513d601f19601f8201168201806040525081019061213a9190614682565b613713565b60006001600160a01b03821661215757506000919050565b60405163bf40fac160e01b815260206004820152601b60248201527f50726f78795f5f4f564d5f4c315374616e64617264427269646765000000000060448201526001600160a01b0383169063bf40fac190606401611357565b60405163bf40fac160e01b815260206004820152601a60248201527f4f564d5f4c3143726f7373446f6d61696e4d657373656e67657200000000000060448201526000906001600160a01b0383169063bf40fac190606401611357565b60065460ff166122305760405162461bcd60e51b8152600401610cc990614756565b6006805460ff1916905563ffffffff811660008181526011602090815260408083203380855290835281842054948452601283528184208185529092528220549092919081905b838110156123485763ffffffff861660009081526011602090815260408083206001600160a01b038916845290915281208054839081106122ba576122ba614606565b600091825260209091200180549091504363ffffffff9091161080156122e957508054600160a01b900460ff16155b1561232f57805460ff60a01b1916600160a01b1780825561231b906001600160801b03600160201b9091041684614632565b92508361232781614669565b945050612335565b50612348565b508061234081614669565b915050612277565b50600081116123995760405162461bcd60e51b815260206004820181905260248201527f7a65726f20617661696c61626c65207769746864726177616c20616d6f756e746044820152606401610cc9565b63ffffffff851660009081526012602090815260408083206001600160a01b0388168452909152812080548492906123d2908490614632565b909155505063ffffffff851660009081526013602090815260408083206001600160a01b038816845290915281208054839290612410908490614774565b909155505063ffffffff85166000908152601460205260408120805483929061243a908490614774565b90915550506001600160a01b03841660009081526015602052604081208054839290612467908490614774565b90915550506006546040516370a0823160e01b815260009161010090046001600160a01b0316906370a08231906124a2903090600401613fc7565b602060405180830381865afa1580156124bf573d6000803e3d6000fd5b505050506040513d601f19601f820116820180604052508101906124e39190614682565b90508181101561257f57801561250f5760065461250f9061010090046001600160a01b031686836135fc565b6007546001600160a01b031663aad3ec968661252b8486614774565b6040518363ffffffff1660e01b8152600401612548929190614787565b600060405180830381600087803b15801561256257600080fd5b505af1158015612576573d6000803e3d6000fd5b5050505061259b565b60065461259b9061010090046001600160a01b031686846135fc565b6040805163ffffffff881681526001600160a01b03871660208201529081018390527f2d6eb139d2002caa088da5527d9d62f2f23bdf4504f5559a112535c436c6ee599060600160405180910390a150506006805460ff1916600117905550505050565b63ffffffff821660008181526011602090815260408083206001600160a01b038616808552908352818420549484526012835281842090845290915281205490818310612653576126508284614774565b90505b9250925092565b6008546040805163b969fbef60e01b815290516000926001600160a01b03169163b969fbef9160048083019260209291908290030181865afa158015611301573d6000803e3d6000fd5b63ffffffff82166000908152600e60205260408120819081906126c8908590613439565b91509150816126ec5763ffffffff85166000908152600d60205260409020546126ee565b805b95945050505050565b60008281526020819052604090206001015461271281612dbd565b610fa08383612e4b565b6008546000906001600160a01b0316331461276d5760405162461bcd60e51b81526020600482015260116024820152703737ba102630bcb2b91926b0b730b3b2b960791b6044820152606401610cc9565b81516050146127b05760405162461bcd60e51b815260206004820152600f60248201526e77726f6e67206c61796572496e666f60881b6044820152606401610cc9565b63ffffffff8316600090815260166020526040902080546127d0906143e4565b1590506128115760405162461bcd60e51b815260206004820152600f60248201526e185b1c9958591e4818dc99585d1959608a1b6044820152606401610cc9565b63ffffffff8316600090815260166020526040902061283083826147e6565b5060019392505050565b600080600061284a84600b613439565b91509150816110ee57600a54610f73565b6017818154811061286b57600080fd5b6000918252602090912001546001600160a01b0316905081565b6006546040516347b00fb360e11b81526000916001600160a01b0380861692638f601f66926128c09261010090910416908690600401613fad565b602060405180830381865afa9250505080156128f9575060408051601f3d908101601f191682019092526128f691810190614682565b60015b61206c573d808015612927576040519150601f19603f3d011682016040523d82523d6000602084013e61292c565b606091505b506000915050610bd0565b60008061294583600b613439565b91509150915091565b60065460009060ff166129735760405162461bcd60e51b8152600401610cc990614756565b6006805460ff191690556129878585613557565b63ffffffff851660009081526011602090815260408083206001600160a01b0388168452909152812054806129eb5760405162461bcd60e51b815260206004820152600a6024820152696e6f20756e7374616b6560b01b6044820152606401610cc9565b836129f68683614774565b1015612a3f5760405162461bcd60e51b81526020600482015260186024820152776e2065786365656473206e756d206f662070656e64696e6760401b6044820152606401610cc9565b6000612a4b8587614632565b90505b80861015612b355763ffffffff881660009081526011602090815260408083206001600160a01b038b1684529091528120805488908110612a9157612a91614606565b60009182526020909120018054909150600160201b81046001600160801b031690600160a01b900460ff1615612afe5760405162461bcd60e51b8152602060048201526012602482015271185b1c9958591e481dda5d1a191c985dd85b60721b6044820152606401610cc9565b8015612b1157612b0e8186614632565b94505b50805460ff60a01b1916600160a01b17905585612b2d81614669565b965050612a4e565b60008311612b7f5760405162461bcd60e51b81526020600482015260176024820152761b9bc81d985b1a59081c995cdd185ad948185b5bdd5b9d604a1b6044820152606401610cc9565b600754604051636a2fb1f560e01b8152600481018590526000916001600160a01b031690636a2fb1f590602401602060405180830381865afa158015612bc9573d6000803e3d6000fd5b505050506040513d601f19601f82011682018060405250810190612bed9190614682565b63ffffffff8a166000908152600f602090815260408083206001600160a01b038d168452909152812080549293509186918391612c2b908490614632565b9250508190555081816001016000828254612c469190614632565b909155505063ffffffff8a166000908152600d602052604081208054849290612c70908490614632565b9250508190555081600a6000828254612c899190614632565b909155505063ffffffff8a1660009081526013602090815260408083206001600160a01b038d16845290915281208054879290612cc7908490614774565b909155505063ffffffff8a1660009081526014602052604081208054879290612cf1908490614774565b90915550506001600160a01b03891660009081526015602052604081208054879290612d1e908490614774565b909155505063ffffffff8a1660009081526012602090815260408083206001600160a01b038d16845290915281208054899290612d5c908490614632565b90915550506040517f34981dc0486069d2abbaddbc42e10b97cb24e4bce60ee4457e1d5062dfc0b42990612d97908c908c90899087906148a6565b60405180910390a16001955050505050506006805460ff19166001179055949350505050565b610d138133613ba3565b612dd18282611fc6565b610cd2576000828152602081815260408083206001600160a01b03851684529091529020805460ff19166001179055612e073390565b6001600160a01b0316816001600160a01b0316837f2f8788117e7eff1d82e926ec794901d17c78024a50270940304540a733656f0d60405160405180910390a45050565b612e558282611fc6565b15610cd2576000828152602081815260408083206001600160a01b0385168085529252808320805460ff1916905551339285917ff6391f5c32d9c69d2a47ea670b442974b53935d1edc7fd64eb21e047a839171b9190a45050565b600081612ebe816004614632565b1015612f005760405162461bcd60e51b8152602060048201526011602482015270746f55696e7433325f6f766572666c6f7760781b6044820152606401610cc9565b612f0b826004614632565b83511015612f525760405162461bcd60e51b8152602060048201526014602482015273746f55696e7433325f6f75744f66426f756e647360601b6044820152606401610cc9565b50016004015190565b604080516001600160a01b0385811660248301528481166044830152606480830185905283518084039091018152608490920183526020820180516001600160e01b03166323b872dd60e01b1790529151600092839290881691612fbf91906148d2565b6000604051808303816000865af19150503d8060008114612ffc576040519150601f19603f3d011682016040523d82523d6000602084013e613001565b606091505b509150915081801561302b57508051158061302b57508080602001905181019061302b9190614734565b61306e5760405162461bcd60e51b81526020600482015260146024820152731514905394d1915497d19493d357d1905253115160621b6044820152606401610cc9565b505050505050565b60065460ff166130985760405162461bcd60e51b8152600401610cc990614756565b6006805460ff191690558260008190036130c45760405162461bcd60e51b8152600401610cc9906148ee565b6130ce8686613557565b600754604051636a2fb1f560e01b8152600481018690526000916001600160a01b031690636a2fb1f590602401602060405180830381865afa158015613118573d6000803e3d6000fd5b505050506040513d601f19601f8201168201806040525081019061313c9190614682565b63ffffffff88166000908152600d6020526040812080549293508392909190613166908490614632565b9250508190555080600a600082825461317f9190614632565b909155505063ffffffff87166000908152600f602090815260408083206001600160a01b038a1684529091529020600281015460ff1661321457600281018054600160ff1990911681179091556017805491820181556000527fc624b66cc0138b8fabc209247f72d758e1cf3343756d543badbf24212bed8c150180546001600160a01b0319166001600160a01b0389161790555b600061ffff85161580159061323157506001600160a01b03861615155b801561324257506127108561ffff16105b156133855761271061325861ffff87168561490a565b6132629190614921565b905061326e8184614774565b60075460405163cdf6800960e01b8152600481018390529194506000916001600160a01b039091169063cdf6800990602401602060405180830381865afa1580156132bd573d6000803e3d6000fd5b505050506040513d601f19601f820116820180604052508101906132e19190614682565b9050808360000160008282546132f79190614632565b92505081905550838360010160008282546133129190614632565b909155505063ffffffff8a166000908152600f602090815260408083206001600160a01b038b168452909152902061334a828a614774565b81600001600082825461335d9190614632565b92505081905550828160010160008282546133789190614632565b909155506133ba92505050565b868260000160008282546133999190614632565b92505081905550828260010160008282546133b49190614632565b90915550505b6040805163ffffffff8b1681526001600160a01b038a811660208301528183018a9052606082018690528816608082015261ffff871660a082015290517f318dab784577ac2e7d86f88c3f2a80520b447b822b8a756158648e0f917d16a09181900360c00190a150506006805460ff1916600117905550505050505050565b6000806134446112b7565b84111561348e5760405162461bcd60e51b815260206004820152601860248201527714db985c1cda1bdd0e881b9bdb995e1a5cdd195b9d081a5960421b6044820152606401610cc9565b8254158015906134c75750825483906134a990600190614774565b815481106134b9576134b9614606565b906000526020600020015484115b156135055782546000906001808601916134e19190614774565b815481106134f1576134f1614606565b9060005260206000200154915091506112b0565b60006135118486613bfc565b845490915081106135295760008092509250506112b0565b600184600101828154811061354057613540614606565b906000526020600020015492509250509250929050565b61356a600b613565600a5490565b613d0c565b63ffffffff82166000908152600e60209081526040808320600d909252909120546135959190613d0c565b63ffffffff821660009081526010602090815260408083206001600160a01b03851684529091529020610cd29061356584846113d5565b6006546135e99061010090046001600160a01b0316333086612f5b565b6135f68433858585613076565b50505050565b600080846001600160a01b031663a9059cbb60e01b8585604051602401613624929190614787565b60408051601f198184030181529181526020820180516001600160e01b03166001600160e01b031990941693909317909252905161366291906148d2565b6000604051808303816000865af19150503d806000811461369f576040519150601f19603f3d011682016040523d82523d6000602084013e6136a4565b606091505b50915091508180156136ce5750805115806136ce5750808060200190518101906136ce9190614734565b61370c5760405162461bcd60e51b815260206004820152600f60248201526e1514905394d1915497d19052531151608a1b6044820152606401610cc9565b5050505050565b60065460ff166137355760405162461bcd60e51b8152600401610cc990614756565b6006805460ff191690558160008190036137615760405162461bcd60e51b8152600401610cc9906148ee565b3361376c8582613557565b60075460405163cdf6800960e01b8152600481018690526000916001600160a01b03169063cdf6800990602401602060405180830381865afa1580156137b6573d6000803e3d6000fd5b505050506040513d601f19601f820116820180604052508101906137da9190614682565b63ffffffff87166000908152600f602090815260408083206001600160a01b0387168452909152902090915084156138cb576001810154600754604051636a2fb1f560e01b8152600481018890526001600160a01b0390911690636a2fb1f590602401602060405180830381865afa15801561385a573d6000803e3d6000fd5b505050506040513d601f19601f8201168201806040525081019061387e9190614682565b6138889088614632565b11156138c65760405162461bcd60e51b815260206004820152600d60248201526c756e7374616b655f6572725f3160981b6044820152606401610cc9565b61390f565b806001015486111561390f5760405162461bcd60e51b815260206004820152600d60248201526c3ab739ba30b5b2afb2b9392f9960991b6044820152606401610cc9565b858160010160008282546139239190614774565b9091555050805482111561393a5760008155613954565b8181600001600082825461394e9190614774565b90915550505b63ffffffff87166000908152600d602052604081208054889290613979908490614774565b9250508190555085600a60008282546139929190614774565b909155505060085460408051636577b27360e11b815290516000926001600160a01b03169163caef64e69160048083019260209291908290030181865afa1580156139e1573d6000803e3d6000fd5b505050506040513d601f19601f82011682018060405250810190613a059190614682565b63ffffffff891660009081526011602090815260408083206001600160a01b03891684529091529081902081516060810190925291925080613a478443614632565b63ffffffff90811682526001600160801b0380881660208085019190915260006040948501819052865460018101885596815281812086519701805487840151978701511515600160a01b0260ff60a01b1998909516600160201b026001600160a01b0319909116988616989098179790971795909516919091179094558b168252601383528082206001600160a01b03881683529092529081208054859290613af2908490614632565b909155505063ffffffff881660009081526014602052604081208054859290613b1c908490614632565b90915550506001600160a01b03841660009081526015602052604081208054859290613b49908490614632565b90915550506040517f869a01319d83bb921803a22e3e95d0cb8b08e708d3fb144e2c25a563bf8650d390613b84908a90879087908c906148a6565b60405180910390a150506006805460ff19166001179055505050505050565b613bad8282611fc6565b610cd257613bba81613d61565b613bc5836020613d73565b604051602001613bd6929190614943565b60408051601f198184030181529082905262461bcd60e51b8252610cc991600401614227565b81546000908103613c0f57506000610bd0565b82548390613c1f90600190614774565b81548110613c2f57613c2f614606565b90600052602060002001548210613c55578254613c4e90600190614774565b9050610bd0565b82600081548110613c6857613c68614606565b9060005260206000200154821015613c8257506000610bd0565b82546000908190613c9590600190614774565b90505b81811115613d045760006002613cae8484614632565b613cb9906001614632565b613cc39190614921565b905084868281548110613cd857613cd8614606565b906000526020600020015411613cf057809250613cfe565b613cfb600182614774565b91505b50613c98565b509392505050565b6000613d166112b7565b83549091501580613d2e575080613d2c84613f0f565b105b15610fa0578254600180820185556000858152602080822090930193909355938401805494850181558252902090910155565b6060610bd06001600160a01b03831660145b60606000613d8283600261490a565b613d8d906002614632565b67ffffffffffffffff811115613da557613da56142d9565b6040519080825280601f01601f191660200182016040528015613dcf576020820181803683370190505b509050600360fc1b81600081518110613dea57613dea614606565b60200101906001600160f81b031916908160001a905350600f60fb1b81600181518110613e1957613e19614606565b60200101906001600160f81b031916908160001a9053506000613e3d84600261490a565b613e48906001614632565b90505b6001811115613ec0576f181899199a1a9b1b9c1cb0b131b232b360811b85600f1660108110613e7c57613e7c614606565b1a60f81b828281518110613e9257613e92614606565b60200101906001600160f81b031916908160001a90535060049490941c93613eb9816149b2565b9050613e4b565b50831561206c5760405162461bcd60e51b815260206004820181905260248201527f537472696e67733a20686578206c656e67746820696e73756666696369656e746044820152606401610cc9565b80546000908103613f2257506000919050565b81548290613f3290600190614774565b81548110613f4257613f42614606565b90600052602060002001549050919050565b803563ffffffff811681146113d057600080fd5b600060208284031215613f7a57600080fd5b61206c82613f54565b600060208284031215613f9557600080fd5b81356001600160e01b03198116811461206c57600080fd5b6001600160a01b0392831681529116602082015260400190565b6001600160a01b0391909116815260200190565b6001600160a01b0381168114610d1357600080fd5b60006020828403121561400257600080fd5b813561206c81613fdb565b6000806040838503121561402057600080fd5b61402983613f54565b9150602083013561403981613fdb565b809150509250929050565b60006020828403121561405657600080fd5b5035919050565b60008060006060848603121561407257600080fd5b61407b84613f54565b9250602084013561408b81613fdb565b929592945050506040919091013590565b600080604083850312156140af57600080fd5b82359150602083013561403981613fdb565b6000806000806000608086880312156140d957600080fd5b85356140e481613fdb565b945060208601356140f481613fdb565b935060408601359250606086013567ffffffffffffffff8082111561411857600080fd5b818801915088601f83011261412c57600080fd5b81358181111561413b57600080fd5b89602082850101111561414d57600080fd5b9699959850939650602001949392505050565b6020808252825182820181905260009190848201906040850190845b818110156141a15783516001600160a01b03168352928401929184019160010161417c565b50909695505050505050565b600080604083850312156141c057600080fd5b6141c983613f54565b946020939093013593505050565b60005b838110156141f25781810151838201526020016141da565b50506000910152565b600081518084526142138160208601602086016141d7565b601f01601f19169290920160200192915050565b60208152600061206c60208301846141fb565b6000806000806080858703121561425057600080fd5b8435935061426060208601613f54565b9250604085013561427081613fdb565b9396929550929360600135925050565b600080600080600060a0868803121561429857600080fd5b853594506142a860208701613f54565b935060408601356142b881613fdb565b925060608601356142c881613fdb565b949793965091946080013592915050565b634e487b7160e01b600052604160045260246000fd5b604051601f8201601f1916810167ffffffffffffffff81118282101715614318576143186142d9565b604052919050565b6000806040838503121561433357600080fd5b61433c83613f54565b915060208084013567ffffffffffffffff8082111561435a57600080fd5b818601915086601f83011261436e57600080fd5b813581811115614380576143806142d9565b614392601f8201601f191685016142ef565b915080825287848285010111156143a857600080fd5b80848401858401376000848284010152508093505050509250929050565b600080604083850312156143d957600080fd5b823561402981613fdb565b600181811c908216806143f857607f821691505b6020821081036110f157634e487b7160e01b600052602260045260246000fd5b6000808354614426816143e4565b6001828116801561443e576001811461445357614482565b60ff1984168752821515830287019450614482565b8760005260208060002060005b858110156144795781548a820152908401908201614460565b50505082870194505b50929695505050505050565b60006020808352600084546144a2816143e4565b808487015260406001808416600081146144c357600181146144dd5761450b565b60ff1985168984015283151560051b89018301955061450b565b896000528660002060005b858110156145035781548b82018601529083019088016144e8565b8a0184019650505b509398975050505050505050565b60006080828403121561452b57600080fd5b6040516080810181811067ffffffffffffffff8211171561454e5761454e6142d9565b604052825161455c81613fdb565b8152602083015161456c81613fdb565b6020820152604083015161457f81613fdb565b6040820152606083015161459281613fdb565b60608201529392505050565b6020808252600c908201526b534c5f455f52455354414b4560a01b604082015260600190565b60208082526022908201527f41636365737369626c653a2043616c6c6572206973206e6f7420616e2061646d60408201526134b760f11b606082015260800190565b634e487b7160e01b600052603260045260246000fd5b634e487b7160e01b600052601160045260246000fd5b80820180821115610bd057610bd061461c565b63ffffffff8181168382160190808211156146625761466261461c565b5092915050565b60006001820161467b5761467b61461c565b5060010190565b60006020828403121561469457600080fd5b5051919050565b6020808252601490820152733737b716b932b3b4b9ba32b932b2103630bcb2b960611b604082015260600190565b6020808252600d908201526c27ab26afa9b2b8bab2b731b2b960991b604082015260600190565b60006020828403121561470257600080fd5b815161206c81613fdb565b6020808252600d908201526c232bafa1a0a62622a92fa2a92960991b604082015260600190565b60006020828403121561474657600080fd5b8151801515811461206c57600080fd5b6020808252600490820152636c6f636b60e01b604082015260600190565b81810381811115610bd057610bd061461c565b6001600160a01b03929092168252602082015260400190565b601f821115610fa057600081815260208120601f850160051c810160208610156147c75750805b601f850160051c820191505b8181101561306e578281556001016147d3565b815167ffffffffffffffff811115614800576148006142d9565b6148148161480e84546143e4565b846147a0565b602080601f83116001811461484957600084156148315750858301515b600019600386901b1c1916600185901b17855561306e565b600085815260208120601f198616915b8281101561487857888601518255948401946001909101908401614859565b50858210156148965787850151600019600388901b60f8161c191681555b5050505050600190811b01905550565b63ffffffff9490941684526001600160a01b039290921660208401526040830152606082015260800190565b600082516148e48184602087016141d7565b9190910192915050565b6020808252600290820152615a3160f01b604082015260600190565b8082028115828204841417610bd057610bd061461c565b60008261493e57634e487b7160e01b600052601260045260246000fd5b500490565b76020b1b1b2b9b9a1b7b73a3937b61d1030b1b1b7bab73a1604d1b8152600083516149758160178501602088016141d7565b7001034b99036b4b9b9b4b733903937b6329607d1b60179184019182015283516149a68160288401602088016141d7565b01602801949350505050565b6000816149c1576149c161461c565b50600019019056fedf8b4c520ffe197c5343c6f5aec59570151ef9a492f2c624fd45ddde6135ec42a2646970667358221220cd942fba4bc0377b06603c208b0ba9941565cca745de80f3c364f6679346504e64736f6c63430008120033",
  "linkReferences": {
    "contracts/libraries/LibOptimism.sol": {
      "LibOptimism": [
        {
          "length": 20,
          "start": 3115
        },
        {
          "length": 20,
          "start": 7243
        },
        {
          "length": 20,
          "start": 7700
        },
        {
          "length": 20,
          "start": 7865
        }
      ]
    }
  },
  "deployedLinkReferences": {
    "contracts/libraries/LibOptimism.sol": {
      "LibOptimism": [
        {
          "length": 20,
          "start": 3070
        },
        {
          "length": 20,
          "start": 7198
        },
        {
          "length": 20,
          "start": 7655
        },
        {
          "length": 20,
          "start": 7820
        }
      ]
    }
  }
}