{
  "_format": "hh-sol-artifact-1",
  "contractName": "BytesParserLib",
  "sourceName": "contracts/libraries/BytesParserLib.sol",
  "abi": [
    {
      "inputs": [
        {
          "internalType": "address",
          "name": "a",
          "type": "address"
        }
      ],
      "name": "convertAddressToBytes",
      "outputs": [
        {
          "internalType": "bytes",
          "name": "aaa",
          "type": "bytes"
        }
      ],
      "stateMutability": "pure",
      "type": "function"
    }
  ],
  "bytecode": "0x61011161003a600b82828239805160001a60731461002d57634e487b7160e01b600052600060045260246000fd5b30600052607381538281f3fe730000000000000000000000000000000000000000301460806040526004361060335760003560e01c8063461f94a4146038575b600080fd5b604d60433660046061565b6020015160601c90565b60405160589190608f565b60405180910390f35b600060208284031215607257600080fd5b81356001600160a01b0381168114608857600080fd5b9392505050565b600060208083528351808285015260005b8181101560ba5785810183015185820160400152820160a0565b506000604082860101526040601f19601f830116850101925050509291505056fea2646970667358221220b131defa72b29cb232c6da9228bfae6ac0bdaa70e8317f0c0e593ebd933d4f8964736f6c63430008120033",
  "linkReferences": {},
  "deployedLinkReferences": {}
}