{
  "_format": "hh-sol-artifact-1",
  "contractName": "DAOCommitteeProxy",
  "sourceName": "contracts/test/DAOCommitteeProxy.sol",
  "abi": [
    {
      "inputs": [
        {
          "internalType": "address",
          "name": "_ton",
          "type": "address"
        },
        {
          "internalType": "address",
          "name": "_impl",
          "type": "address"
        },
        {
          "internalType": "address",
          "name": "_seigManager",
          "type": "address"
        },
        {
          "internalType": "address",
          "name": "_layer2Registry",
          "type": "address"
        },
        {
          "internalType": "address",
          "name": "_agendaManager",
          "type": "address"
        },
        {
          "internalType": "address",
          "name": "_candidateFactory",
          "type": "address"
        },
        {
          "internalType": "address",
          "name": "_daoVault",
          "type": "address"
        }
      ],
      "stateMutability": "nonpayable",
      "type": "constructor"
    },
    {
      "anonymous": false,
      "inputs": [
        {
          "indexed": true,
          "internalType": "bytes32",
          "name": "role",
          "type": "bytes32"
        },
        {
          "indexed": true,
          "internalType": "bytes32",
          "name": "previousAdminRole",
          "type": "bytes32"
        },
        {
          "indexed": true,
          "internalType": "bytes32",
          "name": "newAdminRole",
          "type": "bytes32"
        }
      ],
      "name": "RoleAdminChanged",
      "type": "event"
    },
    {
      "anonymous": false,
      "inputs": [
        {
          "indexed": true,
          "internalType": "bytes32",
          "name": "role",
          "type": "bytes32"
        },
        {
          "indexed": true,
          "internalType": "address",
          "name": "account",
          "type": "address"
        },
        {
          "indexed": true,
          "internalType": "address",
          "name": "sender",
          "type": "address"
        }
      ],
      "name": "RoleGranted",
      "type": "event"
    },
    {
      "anonymous": false,
      "inputs": [
        {
          "indexed": true,
          "internalType": "bytes32",
          "name": "role",
          "type": "bytes32"
        },
        {
          "indexed": true,
          "internalType": "address",
          "name": "account",
          "type": "address"
        },
        {
          "indexed": true,
          "internalType": "address",
          "name": "sender",
          "type": "address"
        }
      ],
      "name": "RoleRevoked",
      "type": "event"
    },
    {
      "anonymous": false,
      "inputs": [
        {
          "indexed": true,
          "internalType": "address",
          "name": "implementation",
          "type": "address"
        }
      ],
      "name": "Upgraded",
      "type": "event"
    },
    {
      "stateMutability": "nonpayable",
      "type": "fallback"
    },
    {
      "inputs": [],
      "name": "DEFAULT_ADMIN_ROLE",
      "outputs": [
        {
          "internalType": "bytes32",
          "name": "",
          "type": "bytes32"
        }
      ],
      "stateMutability": "view",
      "type": "function"
    },
    {
      "inputs": [],
      "name": "activityRewardPerSecond",
      "outputs": [
        {
          "internalType": "uint256",
          "name": "",
          "type": "uint256"
        }
      ],
      "stateMutability": "view",
      "type": "function"
    },
    {
      "inputs": [],
      "name": "agendaManager",
      "outputs": [
        {
          "internalType": "contract IDAOAgendaManager",
          "name": "",
          "type": "address"
        }
      ],
      "stateMutability": "view",
      "type": "function"
    },
    {
      "inputs": [
        {
          "internalType": "address",
          "name": "_candidate",
          "type": "address"
        }
      ],
      "name": "candidateContract",
      "outputs": [
        {
          "internalType": "address",
          "name": "",
          "type": "address"
        }
      ],
      "stateMutability": "view",
      "type": "function"
    },
    {
      "inputs": [],
      "name": "candidateFactory",
      "outputs": [
        {
          "internalType": "contract ICandidateFactory",
          "name": "",
          "type": "address"
        }
      ],
      "stateMutability": "view",
      "type": "function"
    },
    {
      "inputs": [
        {
          "internalType": "address",
          "name": "_candidate",
          "type": "address"
        }
      ],
      "name": "candidateInfos",
      "outputs": [
        {
          "components": [
            {
              "internalType": "address",
              "name": "candidateContract",
              "type": "address"
            },
            {
              "internalType": "uint256",
              "name": "indexMembers",
              "type": "uint256"
            },
            {
              "internalType": "uint128",
              "name": "memberJoinedTime",
              "type": "uint128"
            },
            {
              "internalType": "uint128",
              "name": "rewardPeriod",
              "type": "uint128"
            },
            {
              "internalType": "uint128",
              "name": "claimedTimestamp",
              "type": "uint128"
            }
          ],
          "internalType": "struct IStorageStateCommittee.CandidateInfo",
          "name": "",
          "type": "tuple"
        }
      ],
      "stateMutability": "nonpayable",
      "type": "function"
    },
    {
      "inputs": [
        {
          "internalType": "uint256",
          "name": "",
          "type": "uint256"
        }
      ],
      "name": "candidates",
      "outputs": [
        {
          "internalType": "address",
          "name": "",
          "type": "address"
        }
      ],
      "stateMutability": "view",
      "type": "function"
    },
    {
      "inputs": [],
      "name": "daoVault",
      "outputs": [
        {
          "internalType": "contract IDAOVault",
          "name": "",
          "type": "address"
        }
      ],
      "stateMutability": "view",
      "type": "function"
    },
    {
      "inputs": [
        {
          "internalType": "bytes32",
          "name": "role",
          "type": "bytes32"
        }
      ],
      "name": "getRoleAdmin",
      "outputs": [
        {
          "internalType": "bytes32",
          "name": "",
          "type": "bytes32"
        }
      ],
      "stateMutability": "view",
      "type": "function"
    },
    {
      "inputs": [
        {
          "internalType": "bytes32",
          "name": "role",
          "type": "bytes32"
        },
        {
          "internalType": "address",
          "name": "account",
          "type": "address"
        }
      ],
      "name": "grantRole",
      "outputs": [],
      "stateMutability": "nonpayable",
      "type": "function"
    },
    {
      "inputs": [
        {
          "internalType": "bytes32",
          "name": "role",
          "type": "bytes32"
        },
        {
          "internalType": "address",
          "name": "account",
          "type": "address"
        }
      ],
      "name": "hasRole",
      "outputs": [
        {
          "internalType": "bool",
          "name": "",
          "type": "bool"
        }
      ],
      "stateMutability": "view",
      "type": "function"
    },
    {
      "inputs": [],
      "name": "implementation",
      "outputs": [
        {
          "internalType": "address",
          "name": "",
          "type": "address"
        }
      ],
      "stateMutability": "view",
      "type": "function"
    },
    {
      "inputs": [
        {
          "internalType": "address",
          "name": "_candidate",
          "type": "address"
        }
      ],
      "name": "isMember",
      "outputs": [
        {
          "internalType": "bool",
          "name": "",
          "type": "bool"
        }
      ],
      "stateMutability": "view",
      "type": "function"
    },
    {
      "inputs": [],
      "name": "layer2Registry",
      "outputs": [
        {
          "internalType": "contract ILayer2Registry",
          "name": "",
          "type": "address"
        }
      ],
      "stateMutability": "view",
      "type": "function"
    },
    {
      "inputs": [],
      "name": "maxMember",
      "outputs": [
        {
          "internalType": "uint256",
          "name": "",
          "type": "uint256"
        }
      ],
      "stateMutability": "view",
      "type": "function"
    },
    {
      "inputs": [
        {
          "internalType": "uint256",
          "name": "",
          "type": "uint256"
        }
      ],
      "name": "members",
      "outputs": [
        {
          "internalType": "address",
          "name": "",
          "type": "address"
        }
      ],
      "stateMutability": "view",
      "type": "function"
    },
    {
      "inputs": [],
      "name": "pauseProxy",
      "outputs": [
        {
          "internalType": "bool",
          "name": "",
          "type": "bool"
        }
      ],
      "stateMutability": "view",
      "type": "function"
    },
    {
      "inputs": [],
      "name": "quorum",
      "outputs": [
        {
          "internalType": "uint256",
          "name": "",
          "type": "uint256"
        }
      ],
      "stateMutability": "view",
      "type": "function"
    },
    {
      "inputs": [
        {
          "internalType": "bytes32",
          "name": "role",
          "type": "bytes32"
        },
        {
          "internalType": "address",
          "name": "account",
          "type": "address"
        }
      ],
      "name": "renounceRole",
      "outputs": [],
      "stateMutability": "nonpayable",
      "type": "function"
    },
    {
      "inputs": [
        {
          "internalType": "bytes32",
          "name": "role",
          "type": "bytes32"
        },
        {
          "internalType": "address",
          "name": "account",
          "type": "address"
        }
      ],
      "name": "revokeRole",
      "outputs": [],
      "stateMutability": "nonpayable",
      "type": "function"
    },
    {
      "inputs": [],
      "name": "seigManager",
      "outputs": [
        {
          "internalType": "contract ISeigManager",
          "name": "",
          "type": "address"
        }
      ],
      "stateMutability": "view",
      "type": "function"
    },
    {
      "inputs": [
        {
          "internalType": "bool",
          "name": "_pause",
          "type": "bool"
        }
      ],
      "name": "setProxyPause",
      "outputs": [],
      "stateMutability": "nonpayable",
      "type": "function"
    },
    {
      "inputs": [
        {
          "internalType": "bytes4",
          "name": "interfaceId",
          "type": "bytes4"
        }
      ],
      "name": "supportsInterface",
      "outputs": [
        {
          "internalType": "bool",
          "name": "",
          "type": "bool"
        }
      ],
      "stateMutability": "view",
      "type": "function"
    },
    {
      "inputs": [],
      "name": "ton",
      "outputs": [
        {
          "internalType": "address",
          "name": "",
          "type": "address"
        }
      ],
      "stateMutability": "view",
      "type": "function"
    },
    {
      "inputs": [
        {
          "internalType": "address",
          "name": "impl",
          "type": "address"
        }
      ],
      "name": "upgradeTo",
      "outputs": [],
      "stateMutability": "nonpayable",
      "type": "function"
    }
  ],
  "bytecode": "0x60806040523480156200001157600080fd5b50604051620011aa380380620011aa833981016040819052620000349162000328565b620000466301ffc9a760e01b620001d6565b6001600160a01b0387161515806200006657506001600160a01b03861615155b806200007a57506001600160a01b03851615155b806200008e57506001600160a01b03841615155b80620000a257506001600160a01b03831615155b80620000b657506001600160a01b03821615155b620001085760405162461bcd60e51b815260206004820181905260248201527f44414f436f6d6d697474656550726f78793a20696e707574206973207a65726f60448201526064015b60405180910390fd5b600080546001600160a01b03199081166001600160a01b038a811691909117909255600e8054821689841617905560058054821688841617905560048054821687841617905560028054821686841617815560038054831686851617905560018054909216928416929092179055600a55660b43fd20b59a0a600b55620001af7f4273ca16e32229270629d776700e1c07e4a1080fc9b26d21f6608efc2b31dc4d620001d6565b620001bc60003362000257565b620001c960003062000257565b50505050505050620003bd565b6001600160e01b03198082169003620002325760405162461bcd60e51b815260206004820152601c60248201527f4552433136353a20696e76616c696420696e74657266616365206964000000006044820152606401620000ff565b6001600160e01b0319166000908152600d60205260409020805460ff19166001179055565b62000263828262000267565b5050565b6000828152600c602090815260408083206001600160a01b038516845290915290205460ff1662000263576000828152600c602090815260408083206001600160a01b03851684529091529020805460ff19166001179055620002c73390565b6001600160a01b0316816001600160a01b0316837f2f8788117e7eff1d82e926ec794901d17c78024a50270940304540a733656f0d60405160405180910390a45050565b80516001600160a01b03811681146200032357600080fd5b919050565b600080600080600080600060e0888a0312156200034457600080fd5b6200034f886200030b565b96506200035f602089016200030b565b95506200036f604089016200030b565b94506200037f606089016200030b565b93506200038f608089016200030b565b92506200039f60a089016200030b565b9150620003af60c089016200030b565b905092959891949750929550565b610ddd80620003cd6000396000f3fe608060405234801561001057600080fd5b50600436106101635760003560e01c80635daf08ca116100ce57806391d148541161008757806391d14854146103e6578063a217fddf146103f9578063a230c52414610401578063b5dd115814610438578063cc48b9471461044b578063cf2a239c1461045e578063d547741f1461047157610163565b80635daf08ca1461036457806363a8fd8914610377578063651d08cd1461038b5780636fb7f558146103b75780637cb00d25146103ca5780637f331636146103dd57610163565b80632f2ff15d116101205780632f2ff15d146102f45780633477ee2e1461030757806336568abe1461031a5780633659cfe61461032d5780635903bd6c146103405780635c60da1b1461035357610163565b806301ffc9a71461016d57806303e3c9ac146101955780631703a018146101ac578063248a9ca3146101b557806327fd92fd146101d85780632e011c1e14610203575b61016b610484565b005b61018061017b366004610b49565b610550565b60405190151581526020015b60405180910390f35b61019e60085481565b60405190815260200161018c565b61019e600a5481565b61019e6101c3366004610b73565b6000908152600c602052604090206001015490565b6002546101eb906001600160a01b031681565b6040516001600160a01b03909116815260200161018c565b61029f610211366004610ba8565b6040805160a0808201835260008083526020808401829052838501829052606080850183905260809485018390526001600160a01b0396871683526009825291859020855193840186528054909616835260018601549083015260028501546001600160801b0380821695840195909552600160801b90048416908201526003909301549091169082015290565b6040805182516001600160a01b0316815260208084015190820152828201516001600160801b03908116928201929092526060808401518316908201526080928301519091169181019190915260a00161018c565b61016b610302366004610bc3565b610587565b6101eb610315366004610b73565b6105ac565b61016b610328366004610bc3565b6105d6565b61016b61033b366004610ba8565b610654565b6001546101eb906001600160a01b031681565b600e546001600160a01b03166101eb565b6101eb610372366004610b73565b61079c565b600e5461018090600160a01b900460ff1681565b6101eb610399366004610ba8565b6001600160a01b039081166000908152600960205260409020541690565b6005546101eb906001600160a01b031681565b61016b6103d8366004610bef565b6107ac565b61019e600b5481565b6101806103f4366004610bc3565b6107f1565b61019e600081565b61018061040f366004610ba8565b6001600160a01b03166000908152600960205260409020600201546001600160801b0316151590565b6003546101eb906001600160a01b031681565b6000546101eb906001600160a01b031681565b6004546101eb906001600160a01b031681565b61016b61047f366004610bc3565b61081c565b6000610498600e546001600160a01b031690565b90506001600160a01b038116158015906104bc5750600e54600160a01b900460ff16155b6105275760405162461bcd60e51b815260206004820152603160248201527f44414f436f6d6d697474656550726f78793a20696d706c206973207a65726f206044820152704f522070726f78792069732066616c736560781b60648201526084015b60405180910390fd5b3660008037600080366000845af43d6000803e808015610546573d6000f35b3d6000fd5b505050565b60006001600160e01b03198216637965db0b60e01b148061058157506301ffc9a760e01b6001600160e01b03198316145b92915050565b6000828152600c60205260409020600101546105a281610841565b61054b838361084e565b600681815481106105bc57600080fd5b6000918252602090912001546001600160a01b0316905081565b6001600160a01b03811633146106465760405162461bcd60e51b815260206004820152602f60248201527f416363657373436f6e74726f6c3a2063616e206f6e6c792072656e6f756e636560448201526e103937b632b9903337b91039b2b63360891b606482015260840161051e565b61065082826108d4565b5050565b61065f6000336107f1565b61067b5760405162461bcd60e51b815260040161051e90610c11565b600e546001600160a01b03166106d35760405162461bcd60e51b815260206004820181905260248201527f44414f436f6d6d697474656550726f78793a20696e707574206973207a65726f604482015260640161051e565b600e546001600160a01b038083169116036107525760405162461bcd60e51b815260206004820152603960248201527f44414f436f6d6d697474656550726f78793a2054686520696e70757420616464604482015278726573732069732073616d652061732074686520737461746560381b606482015260840161051e565b600e80546001600160a01b0319166001600160a01b0383169081179091556040517fbc7cd75a20ee27fd9adebab32041f755214dbc6bffa90cc0225b39da2e5c2d3b90600090a250565b600781815481106105bc57600080fd5b6107b76000336107f1565b6107d35760405162461bcd60e51b815260040161051e90610c11565b600e8054911515600160a01b0260ff60a01b19909216919091179055565b6000918252600c602090815260408084206001600160a01b0393909316845291905290205460ff1690565b6000828152600c602052604090206001015461083781610841565b61054b83836108d4565b61084b813361093b565b50565b61085882826107f1565b610650576000828152600c602090815260408083206001600160a01b03851684529091529020805460ff191660011790556108903390565b6001600160a01b0316816001600160a01b0316837f2f8788117e7eff1d82e926ec794901d17c78024a50270940304540a733656f0d60405160405180910390a45050565b6108de82826107f1565b15610650576000828152600c602090815260408083206001600160a01b0385168085529252808320805460ff1916905551339285917ff6391f5c32d9c69d2a47ea670b442974b53935d1edc7fd64eb21e047a839171b9190a45050565b61094582826107f1565b6106505761095281610994565b61095d8360206109a6565b60405160200161096e929190610c82565b60408051601f198184030181529082905262461bcd60e51b825261051e91600401610cf1565b60606105816001600160a01b03831660145b606060006109b5836002610d3a565b6109c0906002610d51565b67ffffffffffffffff8111156109d8576109d8610d64565b6040519080825280601f01601f191660200182016040528015610a02576020820181803683370190505b509050600360fc1b81600081518110610a1d57610a1d610d7a565b60200101906001600160f81b031916908160001a905350600f60fb1b81600181518110610a4c57610a4c610d7a565b60200101906001600160f81b031916908160001a9053506000610a70846002610d3a565b610a7b906001610d51565b90505b6001811115610af3576f181899199a1a9b1b9c1cb0b131b232b360811b85600f1660108110610aaf57610aaf610d7a565b1a60f81b828281518110610ac557610ac5610d7a565b60200101906001600160f81b031916908160001a90535060049490941c93610aec81610d90565b9050610a7e565b508315610b425760405162461bcd60e51b815260206004820181905260248201527f537472696e67733a20686578206c656e67746820696e73756666696369656e74604482015260640161051e565b9392505050565b600060208284031215610b5b57600080fd5b81356001600160e01b031981168114610b4257600080fd5b600060208284031215610b8557600080fd5b5035919050565b80356001600160a01b0381168114610ba357600080fd5b919050565b600060208284031215610bba57600080fd5b610b4282610b8c565b60008060408385031215610bd657600080fd5b82359150610be660208401610b8c565b90509250929050565b600060208284031215610c0157600080fd5b81358015158114610b4257600080fd5b6020808252602d908201527f44414f436f6d6d697474656550726f78793a206d73672e73656e64657220697360408201526c103737ba1030b71030b236b4b760991b606082015260800190565b60005b83811015610c79578181015183820152602001610c61565b50506000910152565b76020b1b1b2b9b9a1b7b73a3937b61d1030b1b1b7bab73a1604d1b815260008351610cb4816017850160208801610c5e565b7001034b99036b4b9b9b4b733903937b6329607d1b6017918401918201528351610ce5816028840160208801610c5e565b01602801949350505050565b6020815260008251806020840152610d10816040850160208701610c5e565b601f01601f19169190910160400192915050565b634e487b7160e01b600052601160045260246000fd5b808202811582820484141761058157610581610d24565b8082018082111561058157610581610d24565b634e487b7160e01b600052604160045260246000fd5b634e487b7160e01b600052603260045260246000fd5b600081610d9f57610d9f610d24565b50600019019056fea264697066735822122040cdc7e2cce6f60b2d522c0b9ed3ee65054ea9eed973e0225e32bcfe17e0a0af64736f6c63430008120033",
  "linkReferences": {},
  "deployedLinkReferences": {}
}