{
  "_format": "hh-sol-artifact-1",
  "contractName": "AutoRefactorCoinage",
  "sourceName": "contracts/test/AutoRefactorCoinage.sol",
  "abi": [
    {
      "inputs": [
        {
          "internalType": "string",
          "name": "name",
          "type": "string"
        },
        {
          "internalType": "string",
          "name": "symbol",
          "type": "string"
        },
        {
          "internalType": "uint256",
          "name": "factor",
          "type": "uint256"
        }
      ],
      "stateMutability": "nonpayable",
      "type": "constructor"
    },
    {
      "anonymous": false,
      "inputs": [
        {
          "indexed": true,
          "internalType": "address",
          "name": "owner",
          "type": "address"
        },
        {
          "indexed": true,
          "internalType": "address",
          "name": "spender",
          "type": "address"
        },
        {
          "indexed": false,
          "internalType": "uint256",
          "name": "value",
          "type": "uint256"
        }
      ],
      "name": "Approval",
      "type": "event"
    },
    {
      "anonymous": false,
      "inputs": [
        {
          "indexed": false,
          "internalType": "uint256",
          "name": "previous",
          "type": "uint256"
        },
        {
          "indexed": false,
          "internalType": "uint256",
          "name": "current",
          "type": "uint256"
        },
        {
          "indexed": false,
          "internalType": "uint256",
          "name": "shiftCount",
          "type": "uint256"
        }
      ],
      "name": "FactorSet",
      "type": "event"
    },
    {
      "anonymous": false,
      "inputs": [
        {
          "indexed": true,
          "internalType": "address",
          "name": "account",
          "type": "address"
        }
      ],
      "name": "MinterAdded",
      "type": "event"
    },
    {
      "anonymous": false,
      "inputs": [
        {
          "indexed": true,
          "internalType": "address",
          "name": "account",
          "type": "address"
        }
      ],
      "name": "MinterRemoved",
      "type": "event"
    },
    {
      "anonymous": false,
      "inputs": [
        {
          "indexed": true,
          "internalType": "address",
          "name": "previousOwner",
          "type": "address"
        },
        {
          "indexed": true,
          "internalType": "address",
          "name": "newOwner",
          "type": "address"
        }
      ],
      "name": "OwnershipTransferred",
      "type": "event"
    },
    {
      "anonymous": false,
      "inputs": [
        {
          "indexed": true,
          "internalType": "address",
          "name": "from",
          "type": "address"
        },
        {
          "indexed": true,
          "internalType": "address",
          "name": "to",
          "type": "address"
        },
        {
          "indexed": false,
          "internalType": "uint256",
          "name": "value",
          "type": "uint256"
        }
      ],
      "name": "Transfer",
      "type": "event"
    },
    {
      "inputs": [],
      "name": "REFACTOR_BOUNDARY",
      "outputs": [
        {
          "internalType": "uint256",
          "name": "",
          "type": "uint256"
        }
      ],
      "stateMutability": "view",
      "type": "function"
    },
    {
      "inputs": [],
      "name": "REFACTOR_DIVIDER",
      "outputs": [
        {
          "internalType": "uint256",
          "name": "",
          "type": "uint256"
        }
      ],
      "stateMutability": "view",
      "type": "function"
    },
    {
      "inputs": [],
      "name": "_factor",
      "outputs": [
        {
          "internalType": "uint256",
          "name": "",
          "type": "uint256"
        }
      ],
      "stateMutability": "view",
      "type": "function"
    },
    {
      "inputs": [],
      "name": "_totalSupply",
      "outputs": [
        {
          "internalType": "uint256",
          "name": "balance",
          "type": "uint256"
        },
        {
          "internalType": "uint256",
          "name": "refactoredCount",
          "type": "uint256"
        },
        {
          "internalType": "uint256",
          "name": "remain",
          "type": "uint256"
        }
      ],
      "stateMutability": "view",
      "type": "function"
    },
    {
      "inputs": [
        {
          "internalType": "address",
          "name": "account",
          "type": "address"
        }
      ],
      "name": "addMinter",
      "outputs": [],
      "stateMutability": "nonpayable",
      "type": "function"
    },
    {
      "inputs": [
        {
          "internalType": "address",
          "name": "owner",
          "type": "address"
        },
        {
          "internalType": "address",
          "name": "spender",
          "type": "address"
        }
      ],
      "name": "allowance",
      "outputs": [
        {
          "internalType": "uint256",
          "name": "",
          "type": "uint256"
        }
      ],
      "stateMutability": "view",
      "type": "function"
    },
    {
      "inputs": [
        {
          "internalType": "address",
          "name": "spender",
          "type": "address"
        },
        {
          "internalType": "uint256",
          "name": "amount",
          "type": "uint256"
        }
      ],
      "name": "approve",
      "outputs": [
        {
          "internalType": "bool",
          "name": "",
          "type": "bool"
        }
      ],
      "stateMutability": "nonpayable",
      "type": "function"
    },
    {
      "inputs": [
        {
          "internalType": "address",
          "name": "account",
          "type": "address"
        }
      ],
      "name": "balanceOf",
      "outputs": [
        {
          "internalType": "uint256",
          "name": "",
          "type": "uint256"
        }
      ],
      "stateMutability": "view",
      "type": "function"
    },
    {
      "inputs": [
        {
          "internalType": "address",
          "name": "",
          "type": "address"
        }
      ],
      "name": "balances",
      "outputs": [
        {
          "internalType": "uint256",
          "name": "balance",
          "type": "uint256"
        },
        {
          "internalType": "uint256",
          "name": "refactoredCount",
          "type": "uint256"
        },
        {
          "internalType": "uint256",
          "name": "remain",
          "type": "uint256"
        }
      ],
      "stateMutability": "view",
      "type": "function"
    },
    {
      "inputs": [
        {
          "internalType": "uint256",
          "name": "amount",
          "type": "uint256"
        }
      ],
      "name": "burn",
      "outputs": [],
      "stateMutability": "nonpayable",
      "type": "function"
    },
    {
      "inputs": [
        {
          "internalType": "address",
          "name": "account",
          "type": "address"
        },
        {
          "internalType": "uint256",
          "name": "amount",
          "type": "uint256"
        }
      ],
      "name": "burnFrom",
      "outputs": [],
      "stateMutability": "nonpayable",
      "type": "function"
    },
    {
      "inputs": [],
      "name": "decimals",
      "outputs": [
        {
          "internalType": "uint8",
          "name": "",
          "type": "uint8"
        }
      ],
      "stateMutability": "view",
      "type": "function"
    },
    {
      "inputs": [],
      "name": "factor",
      "outputs": [
        {
          "internalType": "uint256",
          "name": "",
          "type": "uint256"
        }
      ],
      "stateMutability": "view",
      "type": "function"
    },
    {
      "inputs": [
        {
          "internalType": "address",
          "name": "account",
          "type": "address"
        }
      ],
      "name": "isMinter",
      "outputs": [
        {
          "internalType": "bool",
          "name": "",
          "type": "bool"
        }
      ],
      "stateMutability": "view",
      "type": "function"
    },
    {
      "inputs": [
        {
          "internalType": "address",
          "name": "account",
          "type": "address"
        },
        {
          "internalType": "uint256",
          "name": "amount",
          "type": "uint256"
        }
      ],
      "name": "mint",
      "outputs": [
        {
          "internalType": "bool",
          "name": "",
          "type": "bool"
        }
      ],
      "stateMutability": "nonpayable",
      "type": "function"
    },
    {
      "inputs": [],
      "name": "name",
      "outputs": [
        {
          "internalType": "string",
          "name": "",
          "type": "string"
        }
      ],
      "stateMutability": "view",
      "type": "function"
    },
    {
      "inputs": [],
      "name": "owner",
      "outputs": [
        {
          "internalType": "address",
          "name": "",
          "type": "address"
        }
      ],
      "stateMutability": "view",
      "type": "function"
    },
    {
      "inputs": [],
      "name": "refactorCount",
      "outputs": [
        {
          "internalType": "uint256",
          "name": "",
          "type": "uint256"
        }
      ],
      "stateMutability": "view",
      "type": "function"
    },
    {
      "inputs": [],
      "name": "renounceMinter",
      "outputs": [],
      "stateMutability": "nonpayable",
      "type": "function"
    },
    {
      "inputs": [],
      "name": "renounceOwnership",
      "outputs": [],
      "stateMutability": "nonpayable",
      "type": "function"
    },
    {
      "inputs": [
        {
          "internalType": "uint256",
          "name": "factor",
          "type": "uint256"
        }
      ],
      "name": "setFactor",
      "outputs": [
        {
          "internalType": "bool",
          "name": "",
          "type": "bool"
        }
      ],
      "stateMutability": "nonpayable",
      "type": "function"
    },
    {
      "inputs": [],
      "name": "symbol",
      "outputs": [
        {
          "internalType": "string",
          "name": "",
          "type": "string"
        }
      ],
      "stateMutability": "view",
      "type": "function"
    },
    {
      "inputs": [],
      "name": "totalSupply",
      "outputs": [
        {
          "internalType": "uint256",
          "name": "",
          "type": "uint256"
        }
      ],
      "stateMutability": "view",
      "type": "function"
    },
    {
      "inputs": [
        {
          "internalType": "address",
          "name": "recipient",
          "type": "address"
        },
        {
          "internalType": "uint256",
          "name": "amount",
          "type": "uint256"
        }
      ],
      "name": "transfer",
      "outputs": [
        {
          "internalType": "bool",
          "name": "",
          "type": "bool"
        }
      ],
      "stateMutability": "nonpayable",
      "type": "function"
    },
    {
      "inputs": [
        {
          "internalType": "address",
          "name": "sender",
          "type": "address"
        },
        {
          "internalType": "address",
          "name": "recipient",
          "type": "address"
        },
        {
          "internalType": "uint256",
          "name": "amount",
          "type": "uint256"
        }
      ],
      "name": "transferFrom",
      "outputs": [
        {
          "internalType": "bool",
          "name": "",
          "type": "bool"
        }
      ],
      "stateMutability": "nonpayable",
      "type": "function"
    },
    {
      "inputs": [
        {
          "internalType": "address",
          "name": "newOwner",
          "type": "address"
        }
      ],
      "name": "transferOwnership",
      "outputs": [],
      "stateMutability": "nonpayable",
      "type": "function"
    }
  ],
  "bytecode": "0x60806040526b204fce5e3e2502611000000060045560026005553480156200002657600080fd5b50604051620014263803806200142683398101604081905262000049916200031b565b8282601b6200005833620000ab565b60016200006684826200041d565b5060026200007583826200041d565b506003805460ff191660ff92909216919091179055506200009f9050620000993390565b620000fb565b600b5550620004e99050565b600080546001600160a01b038381166001600160a01b0319831681178455604051919092169283917f8be0079c531659141344cd1fd0a4f28419497f9722a3daafe3b4186f6b6457e09190a35050565b6200011681600d6200014d60201b6200064f1790919060201c565b6040516001600160a01b038216907f6ae172837ea30b801fbfcdd4108aa1d5bf8ff775444fd70256b44e6bf3dfc3f690600090a250565b620001598282620001d1565b15620001ac5760405162461bcd60e51b815260206004820152601f60248201527f526f6c65733a206163636f756e7420616c72656164792068617320726f6c650060448201526064015b60405180910390fd5b6001600160a01b0316600090815260209190915260409020805460ff19166001179055565b60006001600160a01b038216620002365760405162461bcd60e51b815260206004820152602260248201527f526f6c65733a206163636f756e7420697320746865207a65726f206164647265604482015261737360f01b6064820152608401620001a3565b506001600160a01b03166000908152602091909152604090205460ff1690565b634e487b7160e01b600052604160045260246000fd5b600082601f8301126200027e57600080fd5b81516001600160401b03808211156200029b576200029b62000256565b604051601f8301601f19908116603f01168101908282118183101715620002c657620002c662000256565b81604052838152602092508683858801011115620002e357600080fd5b600091505b83821015620003075785820183015181830184015290820190620002e8565b600093810190920192909252949350505050565b6000806000606084860312156200033157600080fd5b83516001600160401b03808211156200034957600080fd5b62000357878388016200026c565b945060208601519150808211156200036e57600080fd5b506200037d868287016200026c565b925050604084015190509250925092565b600181811c90821680620003a357607f821691505b602082108103620003c457634e487b7160e01b600052602260045260246000fd5b50919050565b601f8211156200041857600081815260208120601f850160051c81016020861015620003f35750805b601f850160051c820191505b818110156200041457828155600101620003ff565b5050505b505050565b81516001600160401b0381111562000439576200043962000256565b62000451816200044a84546200038e565b84620003ca565b602080601f831160018114620004895760008415620004705750858301515b600019600386901b1c1916600185901b17855562000414565b600085815260208120601f198616915b82811015620004ba5788860151825594840194600190910190840162000499565b5085821015620004d95787850151600019600388901b60f8161c191681555b5050505050600190811b01905550565b610f2d80620004f96000396000f3fe608060405234801561001057600080fd5b506004361061016d5760003560e01c8063715018a6116100ce578063986502751161008757806398650275146102f8578063a7ac30b014610300578063a9059cbb146101a3578063aa271e1a14610309578063b7c246d71461031c578063dd62ed3e14610325578063f2fde38b1461033b57600080fd5b8063715018a61461029457806379cc67901461029c578063817e9d31146102af5780638da5cb5b146102c257806395d89b41146102dd578063983b2d56146102e557600080fd5b8063313ce5671161012b578063313ce567146102215780633eaaf86b1461023657806340c10f191461024857806342966c681461025b57806354f703f8146102705780636d1506111461027857806370a082311461028157600080fd5b8062d87a9c1461017257806306fdde031461018e578063095ea7b3146101a357806318160ddd146101c157806323b872dd146101c957806327e235e3146101d7575b600080fd5b61017b60055481565b6040519081526020015b60405180910390f35b61019661034e565b6040516101859190610cae565b6101b161016d366004610d18565b6040519015158152602001610185565b61017b6103e0565b6101b161016d366004610d42565b6102066101e5366004610d7e565b60076020526000908152604090208054600182015460029092015490919083565b60408051938452602084019290925290820152606001610185565b60035460405160ff9091168152602001610185565b600854600954600a5461020692919083565b6101b1610256366004610d18565b61040a565b61026e610269366004610d99565b61044e565b005b61017b61045b565b61017b600b5481565b61017b61028f366004610d7e565b610495565b61026e6104ce565b61026e6102aa366004610d18565b6104e2565b6101b16102bd366004610d99565b6104f0565b6000546040516001600160a01b039091168152602001610185565b610196610586565b61026e6102f3366004610d7e565b610595565b61026e6105c3565b61017b60065481565b6101b1610317366004610d7e565b6105cc565b61017b60045481565b61017b610333366004610db2565b600092915050565b61026e610349366004610d7e565b6105d9565b60606001805461035d90610de5565b80601f016020809104026020016040519081016040528092919081815260200182805461038990610de5565b80156103d65780601f106103ab576101008083540402835291602001916103d6565b820191906000526020600020905b8154815290600101906020018083116103b957829003601f168201915b5050505050905090565b60006104056008600201546103ff6008600001546008600101546106cb565b90610721565b905090565b6000610415336105cc565b61043a5760405162461bcd60e51b815260040161043190610e19565b60405180910390fd5b610444838361072d565b5060015b92915050565b610458338261083b565b50565b600b54600090815b60065481101561048f5760055461047b908390610932565b91508061048781610e7f565b915050610463565b50919050565b6001600160a01b03811660009081526007602052604081206002810154815460018301546104c792916103ff916106cb565b9392505050565b6104d661093e565b6104e06000610998565b565b6104ec82826109e8565b5050565b60006104fa61093e565b600b546000835b600454811061053357610515826001610721565b915061052c600554826109f290919063ffffffff16565b9050610501565b6006829055600b81905560408051848152602081018390529081018390527f47eb304b27f9efb047a046029f8a279a7cc8fccc6786f1e2f65939639584fbdc9060600160405180910390a1505050919050565b60606002805461035d90610de5565b61059e336105cc565b6105ba5760405162461bcd60e51b815260040161043190610e19565b610458816109fe565b6104e033610a40565b6000610448600d83610a82565b6105e161093e565b6001600160a01b0381166106465760405162461bcd60e51b815260206004820152602660248201527f4f776e61626c653a206e6577206f776e657220697320746865207a65726f206160448201526564647265737360d01b6064820152608401610431565b61045881610998565b6106598282610a82565b156106a65760405162461bcd60e51b815260206004820152601f60248201527f526f6c65733a206163636f756e7420616c72656164792068617320726f6c65006044820152606401610431565b6001600160a01b0316600090815260209190915260409020805460ff19166001179055565b6000826000036106dd57506000610448565b6106e983600b54610b05565b9250815b60065481101561071957600554610705908590610932565b93508061071181610e7f565b9150506106ed565b509192915050565b60006104c78284610e98565b6001600160a01b0382166107995760405162461bcd60e51b815260206004820152602d60248201527f4175746f5265666163746f72436f696e6167653a206d696e7420746f2074686560448201526c207a65726f206164647265737360981b6064820152608401610431565b6001600160a01b0382166000908152600760205260408120906107bb84610495565b905060006107c98285610721565b905060006107d682610b28565b808555600654600186015590506107ec85610b36565b6001600160a01b03861660007fddf252ad1be2c89b69c2b068fc378daa952ba7f163c4a11628f55a4df523b3ef61082284610b72565b60405190815260200160405180910390a3505050505050565b6001600160a01b0382166108a95760405162461bcd60e51b815260206004820152602f60248201527f4175746f5265666163746f72436f696e6167653a206275726e2066726f6d207460448201526e6865207a65726f206164647265737360881b6064820152608401610431565b6001600160a01b0382166000908152600760205260408120906108cb84610495565b905060006108d98285610b80565b905060006108e682610b28565b808555600654600186015590506108fc85610b8c565b60006001600160a01b0387167fddf252ad1be2c89b69c2b068fc378daa952ba7f163c4a11628f55a4df523b3ef61082284610b72565b60006104c78284610eab565b6000546001600160a01b031633146104e05760405162461bcd60e51b815260206004820181905260248201527f4f776e61626c653a2063616c6c6572206973206e6f7420746865206f776e65726044820152606401610431565b600080546001600160a01b038381166001600160a01b0319831681178455604051919092169283917f8be0079c531659141344cd1fd0a4f28419497f9722a3daafe3b4186f6b6457e09190a35050565b6104ec828261083b565b60006104c78284610ec2565b610a09600d8261064f565b6040516001600160a01b038216907f6ae172837ea30b801fbfcdd4108aa1d5bf8ff775444fd70256b44e6bf3dfc3f690600090a250565b610a4b600d82610bac565b6040516001600160a01b038216907fe94479a9f7e1952cc78f2d6baab678adc1b772d936c6583def489e524cb6669290600090a250565b60006001600160a01b038216610ae55760405162461bcd60e51b815260206004820152602260248201527f526f6c65733a206163636f756e7420697320746865207a65726f206164647265604482015261737360f01b6064820152608401610431565b506001600160a01b03166000908152602091909152604090205460ff1690565b60006b033b2e3c9fd0803ce8000000610b1e8484610c2e565b6104c79190610ec2565b600061044882600b54610c95565b600854600954600091610b48916106cb565b90506000610b568284610721565b90506000610b6382610b28565b60085550506006546009555050565b600061044882600b54610b05565b60006104c78284610ee4565b600854600954600091610b9e916106cb565b90506000610b568284610b80565b610bb68282610a82565b610c0c5760405162461bcd60e51b815260206004820152602160248201527f526f6c65733a206163636f756e7420646f6573206e6f74206861766520726f6c6044820152606560f81b6064820152608401610431565b6001600160a01b0316600090815260209190915260409020805460ff19169055565b6000811580610c5257508282610c448183610eab565b9250610c509083610ec2565b145b6104485760405162461bcd60e51b815260206004820152601460248201527364732d6d6174682d6d756c2d6f766572666c6f7760601b6044820152606401610431565b600081610b1e846b033b2e3c9fd0803ce8000000610c2e565b600060208083528351808285015260005b81811015610cdb57858101830151858201604001528201610cbf565b506000604082860101526040601f19601f8301168501019250505092915050565b80356001600160a01b0381168114610d1357600080fd5b919050565b60008060408385031215610d2b57600080fd5b610d3483610cfc565b946020939093013593505050565b600080600060608486031215610d5757600080fd5b610d6084610cfc565b9250610d6e60208501610cfc565b9150604084013590509250925092565b600060208284031215610d9057600080fd5b6104c782610cfc565b600060208284031215610dab57600080fd5b5035919050565b60008060408385031215610dc557600080fd5b610dce83610cfc565b9150610ddc60208401610cfc565b90509250929050565b600181811c90821680610df957607f821691505b60208210810361048f57634e487b7160e01b600052602260045260246000fd5b60208082526030908201527f4d696e746572526f6c653a2063616c6c657220646f6573206e6f74206861766560408201526f20746865204d696e74657220726f6c6560801b606082015260800190565b634e487b7160e01b600052601160045260246000fd5b600060018201610e9157610e91610e69565b5060010190565b8082018082111561044857610448610e69565b808202811582820484141761044857610448610e69565b600082610edf57634e487b7160e01b600052601260045260246000fd5b500490565b8181038181111561044857610448610e6956fea26469706673582212208093112b9db0b5db714b3a42f5266c201f24297d7071c6df5474f4735bda0e3264736f6c63430008120033",
  "linkReferences": {},
  "deployedLinkReferences": {}
}