{
  "_format": "hh-sol-artifact-1",
  "contractName": "DaoProxyStorage",
  "sourceName": "contracts/proxy/DaoProxyStorage.sol",
  "abi": [
    {
      "anonymous": false,
      "inputs": [
        {
          "indexed": true,
          "internalType": "bytes32",
          "name": "role",
          "type": "bytes32"
        },
        {
          "indexed": true,
          "internalType": "bytes32",
          "name": "previousAdminRole",
          "type": "bytes32"
        },
        {
          "indexed": true,
          "internalType": "bytes32",
          "name": "newAdminRole",
          "type": "bytes32"
        }
      ],
      "name": "RoleAdminChanged",
      "type": "event"
    },
    {
      "anonymous": false,
      "inputs": [
        {
          "indexed": true,
          "internalType": "bytes32",
          "name": "role",
          "type": "bytes32"
        },
        {
          "indexed": true,
          "internalType": "address",
          "name": "account",
          "type": "address"
        },
        {
          "indexed": true,
          "internalType": "address",
          "name": "sender",
          "type": "address"
        }
      ],
      "name": "RoleGranted",
      "type": "event"
    },
    {
      "anonymous": false,
      "inputs": [
        {
          "indexed": true,
          "internalType": "bytes32",
          "name": "role",
          "type": "bytes32"
        },
        {
          "indexed": true,
          "internalType": "address",
          "name": "account",
          "type": "address"
        },
        {
          "indexed": true,
          "internalType": "address",
          "name": "sender",
          "type": "address"
        }
      ],
      "name": "RoleRevoked",
      "type": "event"
    },
    {
      "inputs": [],
      "name": "DEFAULT_ADMIN_ROLE",
      "outputs": [
        {
          "internalType": "bytes32",
          "name": "",
          "type": "bytes32"
        }
      ],
      "stateMutability": "view",
      "type": "function"
    },
    {
      "inputs": [
        {
          "internalType": "address",
          "name": "",
          "type": "address"
        }
      ],
      "name": "aliveImplementation",
      "outputs": [
        {
          "internalType": "bool",
          "name": "",
          "type": "bool"
        }
      ],
      "stateMutability": "view",
      "type": "function"
    },
    {
      "inputs": [
        {
          "internalType": "bytes32",
          "name": "role",
          "type": "bytes32"
        }
      ],
      "name": "getRoleAdmin",
      "outputs": [
        {
          "internalType": "bytes32",
          "name": "",
          "type": "bytes32"
        }
      ],
      "stateMutability": "view",
      "type": "function"
    },
    {
      "inputs": [
        {
          "internalType": "bytes32",
          "name": "role",
          "type": "bytes32"
        },
        {
          "internalType": "address",
          "name": "account",
          "type": "address"
        }
      ],
      "name": "grantRole",
      "outputs": [],
      "stateMutability": "nonpayable",
      "type": "function"
    },
    {
      "inputs": [
        {
          "internalType": "bytes32",
          "name": "role",
          "type": "bytes32"
        },
        {
          "internalType": "address",
          "name": "account",
          "type": "address"
        }
      ],
      "name": "hasRole",
      "outputs": [
        {
          "internalType": "bool",
          "name": "",
          "type": "bool"
        }
      ],
      "stateMutability": "view",
      "type": "function"
    },
    {
      "inputs": [],
      "name": "pauseProxy",
      "outputs": [
        {
          "internalType": "bool",
          "name": "",
          "type": "bool"
        }
      ],
      "stateMutability": "view",
      "type": "function"
    },
    {
      "inputs": [
        {
          "internalType": "uint256",
          "name": "",
          "type": "uint256"
        }
      ],
      "name": "proxyImplementation",
      "outputs": [
        {
          "internalType": "address",
          "name": "",
          "type": "address"
        }
      ],
      "stateMutability": "view",
      "type": "function"
    },
    {
      "inputs": [
        {
          "internalType": "bytes32",
          "name": "role",
          "type": "bytes32"
        },
        {
          "internalType": "address",
          "name": "account",
          "type": "address"
        }
      ],
      "name": "renounceRole",
      "outputs": [],
      "stateMutability": "nonpayable",
      "type": "function"
    },
    {
      "inputs": [
        {
          "internalType": "bytes32",
          "name": "role",
          "type": "bytes32"
        },
        {
          "internalType": "address",
          "name": "account",
          "type": "address"
        }
      ],
      "name": "revokeRole",
      "outputs": [],
      "stateMutability": "nonpayable",
      "type": "function"
    },
    {
      "inputs": [
        {
          "internalType": "bytes4",
          "name": "",
          "type": "bytes4"
        }
      ],
      "name": "selectorImplementation",
      "outputs": [
        {
          "internalType": "address",
          "name": "",
          "type": "address"
        }
      ],
      "stateMutability": "view",
      "type": "function"
    },
    {
      "inputs": [
        {
          "internalType": "bytes4",
          "name": "interfaceId",
          "type": "bytes4"
        }
      ],
      "name": "supportsInterface",
      "outputs": [
        {
          "internalType": "bool",
          "name": "",
          "type": "bool"
        }
      ],
      "stateMutability": "view",
      "type": "function"
    }
  ],
  "bytecode": "0x608060405234801561001057600080fd5b50610852806100206000396000f3fe608060405234801561001057600080fd5b50600436106100a95760003560e01c8063550d01a311610071578063550d01a31461017057806363a8fd891461019357806391d14854146101a0578063a217fddf146101b3578063b911135f146101bb578063d547741f146101e457600080fd5b806301ffc9a7146100ae578063248a9ca3146100d65780632f2ff15d1461010757806336568abe1461011c57806350d2a2761461012f575b600080fd5b6100c16100bc36600461062d565b6101f7565b60405190151581526020015b60405180910390f35b6100f96100e4366004610657565b60009081526020819052604090206001015490565b6040519081526020016100cd565b61011a61011536600461068c565b61022e565b005b61011a61012a36600461068c565b610258565b61015861013d36600461062d565b6004602052600090815260409020546001600160a01b031681565b6040516001600160a01b0390911681526020016100cd565b6100c161017e3660046106b8565b60036020526000908152604090205460ff1681565b6001546100c19060ff1681565b6100c16101ae36600461068c565b6102db565b6100f9600081565b6101586101c9366004610657565b6002602052600090815260409020546001600160a01b031681565b61011a6101f236600461068c565b610304565b60006001600160e01b03198216637965db0b60e01b148061022857506301ffc9a760e01b6001600160e01b03198316145b92915050565b60008281526020819052604090206001015461024981610329565b6102538383610336565b505050565b6001600160a01b03811633146102cd5760405162461bcd60e51b815260206004820152602f60248201527f416363657373436f6e74726f6c3a2063616e206f6e6c792072656e6f756e636560448201526e103937b632b9903337b91039b2b63360891b60648201526084015b60405180910390fd5b6102d782826103ba565b5050565b6000918252602082815260408084206001600160a01b0393909316845291905290205460ff1690565b60008281526020819052604090206001015461031f81610329565b61025383836103ba565b610333813361041f565b50565b61034082826102db565b6102d7576000828152602081815260408083206001600160a01b03851684529091529020805460ff191660011790556103763390565b6001600160a01b0316816001600160a01b0316837f2f8788117e7eff1d82e926ec794901d17c78024a50270940304540a733656f0d60405160405180910390a45050565b6103c482826102db565b156102d7576000828152602081815260408083206001600160a01b0385168085529252808320805460ff1916905551339285917ff6391f5c32d9c69d2a47ea670b442974b53935d1edc7fd64eb21e047a839171b9190a45050565b61042982826102db565b6102d75761043681610478565b61044183602061048a565b6040516020016104529291906106f7565b60408051601f198184030181529082905262461bcd60e51b82526102c491600401610766565b60606102286001600160a01b03831660145b606060006104998360026107af565b6104a49060026107c6565b67ffffffffffffffff8111156104bc576104bc6107d9565b6040519080825280601f01601f1916602001820160405280156104e6576020820181803683370190505b509050600360fc1b81600081518110610501576105016107ef565b60200101906001600160f81b031916908160001a905350600f60fb1b81600181518110610530576105306107ef565b60200101906001600160f81b031916908160001a90535060006105548460026107af565b61055f9060016107c6565b90505b60018111156105d7576f181899199a1a9b1b9c1cb0b131b232b360811b85600f1660108110610593576105936107ef565b1a60f81b8282815181106105a9576105a96107ef565b60200101906001600160f81b031916908160001a90535060049490941c936105d081610805565b9050610562565b5083156106265760405162461bcd60e51b815260206004820181905260248201527f537472696e67733a20686578206c656e67746820696e73756666696369656e7460448201526064016102c4565b9392505050565b60006020828403121561063f57600080fd5b81356001600160e01b03198116811461062657600080fd5b60006020828403121561066957600080fd5b5035919050565b80356001600160a01b038116811461068757600080fd5b919050565b6000806040838503121561069f57600080fd5b823591506106af60208401610670565b90509250929050565b6000602082840312156106ca57600080fd5b61062682610670565b60005b838110156106ee5781810151838201526020016106d6565b50506000910152565b76020b1b1b2b9b9a1b7b73a3937b61d1030b1b1b7bab73a1604d1b8152600083516107298160178501602088016106d3565b7001034b99036b4b9b9b4b733903937b6329607d1b601791840191820152835161075a8160288401602088016106d3565b01602801949350505050565b60208152600082518060208401526107858160408501602087016106d3565b601f01601f19169190910160400192915050565b634e487b7160e01b600052601160045260246000fd5b808202811582820484141761022857610228610799565b8082018082111561022857610228610799565b634e487b7160e01b600052604160045260246000fd5b634e487b7160e01b600052603260045260246000fd5b60008161081457610814610799565b50600019019056fea2646970667358221220d1f8c0cf1c2b6b29f44e7c34c60344dbb81527e9cbdd832f1310ec0671d40e8064736f6c63430008120033",
  "linkReferences": {},
  "deployedLinkReferences": {}
}