{
  "_format": "hh-sol-artifact-1",
  "contractName": "StakingStorage",
  "sourceName": "contracts/storages/StakingStorage.sol",
  "abi": [
    {
      "inputs": [],
      "name": "fwReceipt",
      "outputs": [
        {
          "internalType": "address",
          "name": "",
          "type": "address"
        }
      ],
      "stateMutability": "view",
      "type": "function"
    },
    {
      "inputs": [],
      "name": "layer2Manager",
      "outputs": [
        {
          "internalType": "address",
          "name": "",
          "type": "address"
        }
      ],
      "stateMutability": "view",
      "type": "function"
    },
    {
      "inputs": [
        {
          "internalType": "uint32",
          "name": "",
          "type": "uint32"
        }
      ],
      "name": "layerInfo",
      "outputs": [
        {
          "internalType": "bytes",
          "name": "",
          "type": "bytes"
        }
      ],
      "stateMutability": "view",
      "type": "function"
    },
    {
      "inputs": [
        {
          "internalType": "uint32",
          "name": "",
          "type": "uint32"
        }
      ],
      "name": "layerStakedLton",
      "outputs": [
        {
          "internalType": "uint256",
          "name": "",
          "type": "uint256"
        }
      ],
      "stateMutability": "view",
      "type": "function"
    },
    {
      "inputs": [
        {
          "internalType": "uint32",
          "name": "",
          "type": "uint32"
        },
        {
          "internalType": "address",
          "name": "",
          "type": "address"
        }
      ],
      "name": "layerStakes",
      "outputs": [
        {
          "internalType": "uint256",
          "name": "stakePrincipal",
          "type": "uint256"
        },
        {
          "internalType": "uint256",
          "name": "stakelton",
          "type": "uint256"
        },
        {
          "internalType": "bool",
          "name": "stake",
          "type": "bool"
        }
      ],
      "stateMutability": "view",
      "type": "function"
    },
    {
      "inputs": [
        {
          "internalType": "uint32",
          "name": "",
          "type": "uint32"
        },
        {
          "internalType": "address",
          "name": "",
          "type": "address"
        }
      ],
      "name": "pendingUnstaked",
      "outputs": [
        {
          "internalType": "uint256",
          "name": "",
          "type": "uint256"
        }
      ],
      "stateMutability": "view",
      "type": "function"
    },
    {
      "inputs": [
        {
          "internalType": "address",
          "name": "",
          "type": "address"
        }
      ],
      "name": "pendingUnstakedAccount",
      "outputs": [
        {
          "internalType": "uint256",
          "name": "",
          "type": "uint256"
        }
      ],
      "stateMutability": "view",
      "type": "function"
    },
    {
      "inputs": [
        {
          "internalType": "uint32",
          "name": "",
          "type": "uint32"
        }
      ],
      "name": "pendingUnstakedLayer2",
      "outputs": [
        {
          "internalType": "uint256",
          "name": "",
          "type": "uint256"
        }
      ],
      "stateMutability": "view",
      "type": "function"
    },
    {
      "inputs": [],
      "name": "seigManagerV2",
      "outputs": [
        {
          "internalType": "address",
          "name": "",
          "type": "address"
        }
      ],
      "stateMutability": "view",
      "type": "function"
    },
    {
      "inputs": [
        {
          "internalType": "uint256",
          "name": "",
          "type": "uint256"
        }
      ],
      "name": "stakeAccountList",
      "outputs": [
        {
          "internalType": "address",
          "name": "",
          "type": "address"
        }
      ],
      "stateMutability": "view",
      "type": "function"
    },
    {
      "inputs": [],
      "name": "ton",
      "outputs": [
        {
          "internalType": "address",
          "name": "",
          "type": "address"
        }
      ],
      "stateMutability": "view",
      "type": "function"
    },
    {
      "inputs": [
        {
          "internalType": "uint32",
          "name": "",
          "type": "uint32"
        },
        {
          "internalType": "address",
          "name": "",
          "type": "address"
        }
      ],
      "name": "withdrawalRequestIndex",
      "outputs": [
        {
          "internalType": "uint256",
          "name": "",
          "type": "uint256"
        }
      ],
      "stateMutability": "view",
      "type": "function"
    },
    {
      "inputs": [
        {
          "internalType": "uint32",
          "name": "",
          "type": "uint32"
        },
        {
          "internalType": "address",
          "name": "",
          "type": "address"
        },
        {
          "internalType": "uint256",
          "name": "",
          "type": "uint256"
        }
      ],
      "name": "withdrawalRequests",
      "outputs": [
        {
          "internalType": "uint32",
          "name": "withdrawableBlockNumber",
          "type": "uint32"
        },
        {
          "internalType": "uint128",
          "name": "amount",
          "type": "uint128"
        },
        {
          "internalType": "bool",
          "name": "processed",
          "type": "bool"
        }
      ],
      "stateMutability": "view",
      "type": "function"
    }
  ],
  "bytecode": "0x60806040526001805460ff19168117905534801561001c57600080fd5b506105988061002c6000396000f3fe608060405234801561001057600080fd5b50600436106100bf5760003560e01c80637cf1587c1161007c5780637cf1587c146101bf5780639c656e26146101ea578063a0b2a91314610244578063b9cab97114610264578063cc48b94714610284578063d07918f11461029c578063ec110d45146102af57600080fd5b806316b5d5bd146100c45780635e2cfe45146100f4578063659ab8201461012d5780636d1ef1031461014d57806370619cf91461018c57806373469a7a146101ac575b600080fd5b6003546100d7906001600160a01b031681565b6040516001600160a01b0390911681526020015b60405180910390f35b61011f610102366004610415565b600e60209081526000928352604080842090915290825290205481565b6040519081526020016100eb565b61014061013b366004610448565b6102c2565b6040516100eb919061046a565b61016061015b3660046104b8565b61035c565b6040805163ffffffff90941684526001600160801b0390921660208401521515908201526060016100eb565b61011f61019a366004610448565b60086020526000908152604090205481565b6002546100d7906001600160a01b031681565b61011f6101cd366004610415565b600d60209081526000928352604080842090915290825290205481565b6102276101f8366004610415565b600a60209081526000928352604080842090915290825290208054600182015460029092015490919060ff1683565b6040805193845260208401929092521515908201526060016100eb565b61011f6102523660046104f4565b60106020526000908152604090205481565b61011f610272366004610448565b600f6020526000908152604090205481565b6001546100d79061010090046001600160a01b031681565b6004546100d7906001600160a01b031681565b6100d76102bd36600461050f565b6103bb565b601160205260009081526040902080546102db90610528565b80601f016020809104026020016040519081016040528092919081815260200182805461030790610528565b80156103545780601f1061032957610100808354040283529160200191610354565b820191906000526020600020905b81548152906001019060200180831161033757829003601f168201915b505050505081565b600c602052826000526040600020602052816000526040600020818154811061038457600080fd5b60009182526020909120015463ffffffff8116935064010000000081046001600160801b03169250600160a01b900460ff16905083565b601281815481106103cb57600080fd5b6000918252602090912001546001600160a01b0316905081565b803563ffffffff811681146103f957600080fd5b919050565b80356001600160a01b03811681146103f957600080fd5b6000806040838503121561042857600080fd5b610431836103e5565b915061043f602084016103fe565b90509250929050565b60006020828403121561045a57600080fd5b610463826103e5565b9392505050565b600060208083528351808285015260005b818110156104975785810183015185820160400152820161047b565b506000604082860101526040601f19601f8301168501019250505092915050565b6000806000606084860312156104cd57600080fd5b6104d6846103e5565b92506104e4602085016103fe565b9150604084013590509250925092565b60006020828403121561050657600080fd5b610463826103fe565b60006020828403121561052157600080fd5b5035919050565b600181811c9082168061053c57607f821691505b60208210810361055c57634e487b7160e01b600052602260045260246000fd5b5091905056fea264697066735822122068eee47ca75d217d0de88befafef6c223da927972b9d804c45ea1f702fbe5aa064736f6c63430008120033",
  "linkReferences": {},
  "deployedLinkReferences": {}
}