{
  "_format": "hh-sol-artifact-1",
  "contractName": "BaseProxyStorageV2",
  "sourceName": "contracts/proxy/BaseProxyStorageV2.sol",
  "abi": [
    {
      "inputs": [
        {
          "internalType": "address",
          "name": "",
          "type": "address"
        }
      ],
      "name": "aliveImplementation",
      "outputs": [
        {
          "internalType": "bool",
          "name": "",
          "type": "bool"
        }
      ],
      "stateMutability": "view",
      "type": "function"
    },
    {
      "inputs": [
        {
          "internalType": "uint256",
          "name": "",
          "type": "uint256"
        }
      ],
      "name": "proxyImplementation",
      "outputs": [
        {
          "internalType": "address",
          "name": "",
          "type": "address"
        }
      ],
      "stateMutability": "view",
      "type": "function"
    },
    {
      "inputs": [
        {
          "internalType": "bytes4",
          "name": "",
          "type": "bytes4"
        }
      ],
      "name": "selectorImplementation",
      "outputs": [
        {
          "internalType": "address",
          "name": "",
          "type": "address"
        }
      ],
      "stateMutability": "view",
      "type": "function"
    }
  ],
  "bytecode": "0x608060405234801561001057600080fd5b50610191806100206000396000f3fe608060405234801561001057600080fd5b50600436106100415760003560e01c806350d2a27614610046578063550d01a31461008c578063b911135f146100bf575b600080fd5b61006f6100543660046100e8565b6002602052600090815260409020546001600160a01b031681565b6040516001600160a01b0390911681526020015b60405180910390f35b6100af61009a366004610119565b60016020526000908152604090205460ff1681565b6040519015158152602001610083565b61006f6100cd366004610142565b6000602081905290815260409020546001600160a01b031681565b6000602082840312156100fa57600080fd5b81356001600160e01b03198116811461011257600080fd5b9392505050565b60006020828403121561012b57600080fd5b81356001600160a01b038116811461011257600080fd5b60006020828403121561015457600080fd5b503591905056fea26469706673582212207ba2aebe36a696672b03c55c694a883f615f8e0f1b3faa3db8d992058359383564736f6c63430008120033",
  "linkReferences": {},
  "deployedLinkReferences": {}
}