{
  "_format": "hh-sol-artifact-1",
  "contractName": "DAOv2CommitteeV2",
  "sourceName": "contracts/dao/DAOv2CommitteeV2.sol",
  "abi": [
    {
      "anonymous": false,
      "inputs": [
        {
          "indexed": true,
          "internalType": "address",
          "name": "from",
          "type": "address"
        },
        {
          "indexed": true,
          "internalType": "uint256",
          "name": "id",
          "type": "uint256"
        },
        {
          "indexed": false,
          "internalType": "uint256",
          "name": "voting",
          "type": "uint256"
        },
        {
          "indexed": false,
          "internalType": "string",
          "name": "comment",
          "type": "string"
        }
      ],
      "name": "AgendaVoteCasted",
      "type": "event"
    },
    {
      "anonymous": false,
      "inputs": [
        {
          "indexed": true,
          "internalType": "uint256",
          "name": "slotIndex",
          "type": "uint256"
        },
        {
          "indexed": false,
          "internalType": "address",
          "name": "prevMember",
          "type": "address"
        },
        {
          "indexed": true,
          "internalType": "address",
          "name": "newMember",
          "type": "address"
        }
      ],
      "name": "ChangedMember",
      "type": "event"
    },
    {
      "anonymous": false,
      "inputs": [
        {
          "indexed": true,
          "internalType": "uint256",
          "name": "prevSlotMax",
          "type": "uint256"
        },
        {
          "indexed": true,
          "internalType": "uint256",
          "name": "slotMax",
          "type": "uint256"
        }
      ],
      "name": "ChangedSlotMaximum",
      "type": "event"
    },
    {
      "anonymous": false,
      "inputs": [
        {
          "indexed": true,
          "internalType": "address",
          "name": "candidate",
          "type": "address"
        },
        {
          "indexed": false,
          "internalType": "address",
          "name": "receiver",
          "type": "address"
        },
        {
          "indexed": false,
          "internalType": "uint256",
          "name": "amount",
          "type": "uint256"
        }
      ],
      "name": "ClaimedActivityReward",
      "type": "event"
    },
    {
      "anonymous": false,
      "inputs": [
        {
          "indexed": false,
          "internalType": "uint256",
          "name": "newQuorum",
          "type": "uint256"
        }
      ],
      "name": "QuorumChanged",
      "type": "event"
    },
    {
      "anonymous": false,
      "inputs": [
        {
          "indexed": true,
          "internalType": "bytes32",
          "name": "role",
          "type": "bytes32"
        },
        {
          "indexed": true,
          "internalType": "bytes32",
          "name": "previousAdminRole",
          "type": "bytes32"
        },
        {
          "indexed": true,
          "internalType": "bytes32",
          "name": "newAdminRole",
          "type": "bytes32"
        }
      ],
      "name": "RoleAdminChanged",
      "type": "event"
    },
    {
      "anonymous": false,
      "inputs": [
        {
          "indexed": true,
          "internalType": "bytes32",
          "name": "role",
          "type": "bytes32"
        },
        {
          "indexed": true,
          "internalType": "address",
          "name": "account",
          "type": "address"
        },
        {
          "indexed": true,
          "internalType": "address",
          "name": "sender",
          "type": "address"
        }
      ],
      "name": "RoleGranted",
      "type": "event"
    },
    {
      "anonymous": false,
      "inputs": [
        {
          "indexed": true,
          "internalType": "bytes32",
          "name": "role",
          "type": "bytes32"
        },
        {
          "indexed": true,
          "internalType": "address",
          "name": "account",
          "type": "address"
        },
        {
          "indexed": true,
          "internalType": "address",
          "name": "sender",
          "type": "address"
        }
      ],
      "name": "RoleRevoked",
      "type": "event"
    },
    {
      "inputs": [],
      "name": "DEFAULT_ADMIN_ROLE",
      "outputs": [
        {
          "internalType": "bytes32",
          "name": "",
          "type": "bytes32"
        }
      ],
      "stateMutability": "view",
      "type": "function"
    },
    {
      "inputs": [],
      "name": "activityRewardPerSecond",
      "outputs": [
        {
          "internalType": "uint256",
          "name": "",
          "type": "uint256"
        }
      ],
      "stateMutability": "view",
      "type": "function"
    },
    {
      "inputs": [],
      "name": "agendaManager",
      "outputs": [
        {
          "internalType": "contract IDAOAgendaManager",
          "name": "",
          "type": "address"
        }
      ],
      "stateMutability": "view",
      "type": "function"
    },
    {
      "inputs": [
        {
          "internalType": "address",
          "name": "",
          "type": "address"
        }
      ],
      "name": "aliveImplementation",
      "outputs": [
        {
          "internalType": "bool",
          "name": "",
          "type": "bool"
        }
      ],
      "stateMutability": "view",
      "type": "function"
    },
    {
      "inputs": [
        {
          "internalType": "uint32",
          "name": "_index",
          "type": "uint32"
        },
        {
          "internalType": "address",
          "name": "_account",
          "type": "address"
        }
      ],
      "name": "balanceOfOnCandidateV2",
      "outputs": [
        {
          "internalType": "uint256",
          "name": "amount",
          "type": "uint256"
        }
      ],
      "stateMutability": "view",
      "type": "function"
    },
    {
      "inputs": [
        {
          "internalType": "uint32",
          "name": "_index",
          "type": "uint32"
        },
        {
          "internalType": "address",
          "name": "_account",
          "type": "address"
        }
      ],
      "name": "balanceOfOnSequencerV2",
      "outputs": [
        {
          "internalType": "uint256",
          "name": "amount",
          "type": "uint256"
        }
      ],
      "stateMutability": "view",
      "type": "function"
    },
    {
      "inputs": [],
      "name": "candidate",
      "outputs": [
        {
          "internalType": "address",
          "name": "",
          "type": "address"
        }
      ],
      "stateMutability": "view",
      "type": "function"
    },
    {
      "inputs": [
        {
          "internalType": "address",
          "name": "_candidate",
          "type": "address"
        }
      ],
      "name": "candidateContract",
      "outputs": [
        {
          "internalType": "address",
          "name": "",
          "type": "address"
        }
      ],
      "stateMutability": "view",
      "type": "function"
    },
    {
      "inputs": [],
      "name": "candidateFactory",
      "outputs": [
        {
          "internalType": "contract ICandidateFactory",
          "name": "",
          "type": "address"
        }
      ],
      "stateMutability": "view",
      "type": "function"
    },
    {
      "inputs": [
        {
          "internalType": "address",
          "name": "_candidate",
          "type": "address"
        }
      ],
      "name": "candidateInfos",
      "outputs": [
        {
          "components": [
            {
              "internalType": "address",
              "name": "candidateContract",
              "type": "address"
            },
            {
              "internalType": "uint256",
              "name": "indexMembers",
              "type": "uint256"
            },
            {
              "internalType": "uint128",
              "name": "memberJoinedTime",
              "type": "uint128"
            },
            {
              "internalType": "uint128",
              "name": "rewardPeriod",
              "type": "uint128"
            },
            {
              "internalType": "uint128",
              "name": "claimedTimestamp",
              "type": "uint128"
            }
          ],
          "internalType": "struct IStorageStateCommittee.CandidateInfo",
          "name": "",
          "type": "tuple"
        }
      ],
      "stateMutability": "nonpayable",
      "type": "function"
    },
    {
      "inputs": [
        {
          "internalType": "address",
          "name": "_candidate",
          "type": "address"
        },
        {
          "internalType": "uint32",
          "name": "_index",
          "type": "uint32"
        }
      ],
      "name": "candidateInfosV2",
      "outputs": [
        {
          "components": [
            {
              "internalType": "uint32",
              "name": "sequencerIndex",
              "type": "uint32"
            },
            {
              "internalType": "uint32",
              "name": "candidateIndex",
              "type": "uint32"
            },
            {
              "internalType": "uint256",
              "name": "indexMembers",
              "type": "uint256"
            },
            {
              "internalType": "uint128",
              "name": "memberJoinedTime",
              "type": "uint128"
            },
            {
              "internalType": "uint128",
              "name": "rewardPeriod",
              "type": "uint128"
            },
            {
              "internalType": "uint128",
              "name": "claimedTimestamp",
              "type": "uint128"
            }
          ],
          "internalType": "struct LibDaoV2.CandidateInfoV2",
          "name": "",
          "type": "tuple"
        }
      ],
      "stateMutability": "view",
      "type": "function"
    },
    {
      "inputs": [
        {
          "internalType": "uint256",
          "name": "",
          "type": "uint256"
        }
      ],
      "name": "candidates",
      "outputs": [
        {
          "internalType": "address",
          "name": "",
          "type": "address"
        }
      ],
      "stateMutability": "view",
      "type": "function"
    },
    {
      "inputs": [],
      "name": "candidatesLengthV2",
      "outputs": [
        {
          "internalType": "uint256",
          "name": "",
          "type": "uint256"
        }
      ],
      "stateMutability": "view",
      "type": "function"
    },
    {
      "inputs": [
        {
          "internalType": "uint256",
          "name": "",
          "type": "uint256"
        }
      ],
      "name": "candidatesV2",
      "outputs": [
        {
          "internalType": "address",
          "name": "",
          "type": "address"
        }
      ],
      "stateMutability": "view",
      "type": "function"
    },
    {
      "inputs": [
        {
          "internalType": "uint256",
          "name": "_agendaID",
          "type": "uint256"
        },
        {
          "internalType": "uint256",
          "name": "_vote",
          "type": "uint256"
        },
        {
          "internalType": "string",
          "name": "_comment",
          "type": "string"
        },
        {
          "internalType": "uint32",
          "name": "_sqIndex",
          "type": "uint32"
        }
      ],
      "name": "castVote",
      "outputs": [],
      "stateMutability": "nonpayable",
      "type": "function"
    },
    {
      "inputs": [
        {
          "internalType": "uint256",
          "name": "_memberIndex",
          "type": "uint256"
        }
      ],
      "name": "changeMember",
      "outputs": [
        {
          "internalType": "bool",
          "name": "",
          "type": "bool"
        }
      ],
      "stateMutability": "nonpayable",
      "type": "function"
    },
    {
      "inputs": [
        {
          "internalType": "uint256",
          "name": "_memberIndex",
          "type": "uint256"
        },
        {
          "internalType": "uint32",
          "name": "_sequencerIndex",
          "type": "uint32"
        }
      ],
      "name": "changeMemberV2",
      "outputs": [
        {
          "internalType": "bool",
          "name": "",
          "type": "bool"
        }
      ],
      "stateMutability": "nonpayable",
      "type": "function"
    },
    {
      "inputs": [
        {
          "internalType": "address",
          "name": "_receiver",
          "type": "address"
        }
      ],
      "name": "claimActivityReward",
      "outputs": [],
      "stateMutability": "nonpayable",
      "type": "function"
    },
    {
      "inputs": [
        {
          "internalType": "address",
          "name": "_receiver",
          "type": "address"
        },
        {
          "internalType": "uint32",
          "name": "_sqIndex",
          "type": "uint32"
        }
      ],
      "name": "claimActivityRewardV2",
      "outputs": [],
      "stateMutability": "nonpayable",
      "type": "function"
    },
    {
      "inputs": [
        {
          "internalType": "address",
          "name": "to",
          "type": "address"
        },
        {
          "internalType": "uint256",
          "name": "value",
          "type": "uint256"
        }
      ],
      "name": "claimOperator",
      "outputs": [],
      "stateMutability": "nonpayable",
      "type": "function"
    },
    {
      "inputs": [
        {
          "internalType": "address",
          "name": "to",
          "type": "address"
        },
        {
          "internalType": "uint256",
          "name": "value",
          "type": "uint256"
        }
      ],
      "name": "claimStakerV2",
      "outputs": [],
      "stateMutability": "nonpayable",
      "type": "function"
    },
    {
      "inputs": [
        {
          "internalType": "address",
          "name": "senderAddress",
          "type": "address"
        },
        {
          "internalType": "uint32",
          "name": "_sequencerIndex",
          "type": "uint32"
        },
        {
          "internalType": "uint32",
          "name": "_candidateIndex",
          "type": "uint32"
        }
      ],
      "name": "createCandidateV2",
      "outputs": [
        {
          "internalType": "uint256",
          "name": "",
          "type": "uint256"
        }
      ],
      "stateMutability": "nonpayable",
      "type": "function"
    },
    {
      "inputs": [
        {
          "internalType": "address",
          "name": "senderAddress",
          "type": "address"
        },
        {
          "internalType": "uint32",
          "name": "_sequencerIndex",
          "type": "uint32"
        }
      ],
      "name": "createOptimismSequencer",
      "outputs": [
        {
          "internalType": "uint256",
          "name": "",
          "type": "uint256"
        }
      ],
      "stateMutability": "nonpayable",
      "type": "function"
    },
    {
      "inputs": [],
      "name": "daoVault",
      "outputs": [
        {
          "internalType": "contract IDAOVault",
          "name": "",
          "type": "address"
        }
      ],
      "stateMutability": "view",
      "type": "function"
    },
    {
      "inputs": [
        {
          "internalType": "uint256",
          "name": "_reducingMemberIndex",
          "type": "uint256"
        },
        {
          "internalType": "uint256",
          "name": "_quorum",
          "type": "uint256"
        }
      ],
      "name": "decreaseMaxMember",
      "outputs": [],
      "stateMutability": "nonpayable",
      "type": "function"
    },
    {
      "inputs": [
        {
          "internalType": "address",
          "name": "_candidate",
          "type": "address"
        }
      ],
      "name": "getClaimableActivityReward",
      "outputs": [
        {
          "internalType": "uint256",
          "name": "",
          "type": "uint256"
        }
      ],
      "stateMutability": "view",
      "type": "function"
    },
    {
      "inputs": [
        {
          "internalType": "address",
          "name": "_candidate",
          "type": "address"
        },
        {
          "internalType": "uint32",
          "name": "_sqIndex",
          "type": "uint32"
        }
      ],
      "name": "getClaimableActivityRewardV2",
      "outputs": [
        {
          "internalType": "uint256",
          "name": "",
          "type": "uint256"
        }
      ],
      "stateMutability": "view",
      "type": "function"
    },
    {
      "inputs": [
        {
          "internalType": "bytes32",
          "name": "role",
          "type": "bytes32"
        }
      ],
      "name": "getRoleAdmin",
      "outputs": [
        {
          "internalType": "bytes32",
          "name": "",
          "type": "bytes32"
        }
      ],
      "stateMutability": "view",
      "type": "function"
    },
    {
      "inputs": [
        {
          "internalType": "bytes32",
          "name": "role",
          "type": "bytes32"
        },
        {
          "internalType": "uint256",
          "name": "index",
          "type": "uint256"
        }
      ],
      "name": "getRoleMember",
      "outputs": [
        {
          "internalType": "address",
          "name": "",
          "type": "address"
        }
      ],
      "stateMutability": "view",
      "type": "function"
    },
    {
      "inputs": [
        {
          "internalType": "bytes32",
          "name": "role",
          "type": "bytes32"
        }
      ],
      "name": "getRoleMemberCount",
      "outputs": [
        {
          "internalType": "uint256",
          "name": "",
          "type": "uint256"
        }
      ],
      "stateMutability": "view",
      "type": "function"
    },
    {
      "inputs": [
        {
          "internalType": "bytes32",
          "name": "role",
          "type": "bytes32"
        },
        {
          "internalType": "address",
          "name": "account",
          "type": "address"
        }
      ],
      "name": "grantRole",
      "outputs": [],
      "stateMutability": "nonpayable",
      "type": "function"
    },
    {
      "inputs": [
        {
          "internalType": "bytes32",
          "name": "role",
          "type": "bytes32"
        },
        {
          "internalType": "address",
          "name": "account",
          "type": "address"
        }
      ],
      "name": "hasRole",
      "outputs": [
        {
          "internalType": "bool",
          "name": "",
          "type": "bool"
        }
      ],
      "stateMutability": "view",
      "type": "function"
    },
    {
      "inputs": [
        {
          "internalType": "uint256",
          "name": "_newMaxMember",
          "type": "uint256"
        },
        {
          "internalType": "uint256",
          "name": "_quorum",
          "type": "uint256"
        }
      ],
      "name": "increaseMaxMember",
      "outputs": [],
      "stateMutability": "nonpayable",
      "type": "function"
    },
    {
      "inputs": [
        {
          "internalType": "address",
          "name": "_candidate",
          "type": "address"
        },
        {
          "internalType": "uint32",
          "name": "_index",
          "type": "uint32"
        }
      ],
      "name": "isCandidateV2",
      "outputs": [
        {
          "internalType": "uint8",
          "name": "",
          "type": "uint8"
        }
      ],
      "stateMutability": "view",
      "type": "function"
    },
    {
      "inputs": [
        {
          "internalType": "address",
          "name": "_candidate",
          "type": "address"
        }
      ],
      "name": "isExistCandidate",
      "outputs": [
        {
          "internalType": "bool",
          "name": "isExist",
          "type": "bool"
        }
      ],
      "stateMutability": "view",
      "type": "function"
    },
    {
      "inputs": [
        {
          "internalType": "address",
          "name": "_candidate",
          "type": "address"
        },
        {
          "internalType": "uint32",
          "name": "_sqIndex",
          "type": "uint32"
        }
      ],
      "name": "isExistCandidateV2",
      "outputs": [
        {
          "internalType": "bool",
          "name": "isExist",
          "type": "bool"
        }
      ],
      "stateMutability": "view",
      "type": "function"
    },
    {
      "inputs": [
        {
          "internalType": "address",
          "name": "_candidate",
          "type": "address"
        }
      ],
      "name": "isMember",
      "outputs": [
        {
          "internalType": "bool",
          "name": "",
          "type": "bool"
        }
      ],
      "stateMutability": "view",
      "type": "function"
    },
    {
      "inputs": [
        {
          "internalType": "address",
          "name": "_candidate",
          "type": "address"
        },
        {
          "internalType": "uint32",
          "name": "_index",
          "type": "uint32"
        }
      ],
      "name": "isMemberV2",
      "outputs": [
        {
          "internalType": "bool",
          "name": "",
          "type": "bool"
        }
      ],
      "stateMutability": "view",
      "type": "function"
    },
    {
      "inputs": [],
      "name": "isStakeManagerV2",
      "outputs": [
        {
          "internalType": "bool",
          "name": "",
          "type": "bool"
        }
      ],
      "stateMutability": "view",
      "type": "function"
    },
    {
      "inputs": [],
      "name": "layer2Manager",
      "outputs": [
        {
          "internalType": "address",
          "name": "",
          "type": "address"
        }
      ],
      "stateMutability": "view",
      "type": "function"
    },
    {
      "inputs": [],
      "name": "layer2Registry",
      "outputs": [
        {
          "internalType": "contract ILayer2Registry",
          "name": "",
          "type": "address"
        }
      ],
      "stateMutability": "view",
      "type": "function"
    },
    {
      "inputs": [],
      "name": "maxMember",
      "outputs": [
        {
          "internalType": "uint256",
          "name": "",
          "type": "uint256"
        }
      ],
      "stateMutability": "view",
      "type": "function"
    },
    {
      "inputs": [
        {
          "internalType": "uint256",
          "name": "",
          "type": "uint256"
        }
      ],
      "name": "members",
      "outputs": [
        {
          "internalType": "address",
          "name": "",
          "type": "address"
        }
      ],
      "stateMutability": "view",
      "type": "function"
    },
    {
      "inputs": [],
      "name": "pauseProxy",
      "outputs": [
        {
          "internalType": "bool",
          "name": "",
          "type": "bool"
        }
      ],
      "stateMutability": "view",
      "type": "function"
    },
    {
      "inputs": [
        {
          "internalType": "uint256",
          "name": "",
          "type": "uint256"
        }
      ],
      "name": "proxyImplementation",
      "outputs": [
        {
          "internalType": "address",
          "name": "",
          "type": "address"
        }
      ],
      "stateMutability": "view",
      "type": "function"
    },
    {
      "inputs": [],
      "name": "quorum",
      "outputs": [
        {
          "internalType": "uint256",
          "name": "",
          "type": "uint256"
        }
      ],
      "stateMutability": "view",
      "type": "function"
    },
    {
      "inputs": [
        {
          "internalType": "bytes32",
          "name": "role",
          "type": "bytes32"
        },
        {
          "internalType": "address",
          "name": "account",
          "type": "address"
        }
      ],
      "name": "renounceRole",
      "outputs": [],
      "stateMutability": "nonpayable",
      "type": "function"
    },
    {
      "inputs": [],
      "name": "retireMember",
      "outputs": [
        {
          "internalType": "bool",
          "name": "",
          "type": "bool"
        }
      ],
      "stateMutability": "nonpayable",
      "type": "function"
    },
    {
      "inputs": [
        {
          "internalType": "uint32",
          "name": "_index",
          "type": "uint32"
        }
      ],
      "name": "retireMemberV2",
      "outputs": [
        {
          "internalType": "bool",
          "name": "",
          "type": "bool"
        }
      ],
      "stateMutability": "nonpayable",
      "type": "function"
    },
    {
      "inputs": [
        {
          "internalType": "bytes32",
          "name": "role",
          "type": "bytes32"
        },
        {
          "internalType": "address",
          "name": "account",
          "type": "address"
        }
      ],
      "name": "revokeRole",
      "outputs": [],
      "stateMutability": "nonpayable",
      "type": "function"
    },
    {
      "inputs": [],
      "name": "seigManager",
      "outputs": [
        {
          "internalType": "contract ISeigManager",
          "name": "",
          "type": "address"
        }
      ],
      "stateMutability": "view",
      "type": "function"
    },
    {
      "inputs": [],
      "name": "seigManagerV2",
      "outputs": [
        {
          "internalType": "contract ISeigManagerV2",
          "name": "",
          "type": "address"
        }
      ],
      "stateMutability": "view",
      "type": "function"
    },
    {
      "inputs": [
        {
          "internalType": "bytes4",
          "name": "",
          "type": "bytes4"
        }
      ],
      "name": "selectorImplementation",
      "outputs": [
        {
          "internalType": "address",
          "name": "",
          "type": "address"
        }
      ],
      "stateMutability": "view",
      "type": "function"
    },
    {
      "inputs": [],
      "name": "sequencer",
      "outputs": [
        {
          "internalType": "address",
          "name": "",
          "type": "address"
        }
      ],
      "stateMutability": "view",
      "type": "function"
    },
    {
      "inputs": [
        {
          "internalType": "address",
          "name": "_candidate",
          "type": "address"
        }
      ],
      "name": "setCandidates",
      "outputs": [],
      "stateMutability": "nonpayable",
      "type": "function"
    },
    {
      "inputs": [
        {
          "internalType": "address",
          "name": "_layer2Manager",
          "type": "address"
        }
      ],
      "name": "setLayer2Manager",
      "outputs": [],
      "stateMutability": "nonpayable",
      "type": "function"
    },
    {
      "inputs": [
        {
          "internalType": "address",
          "name": "_sequencer",
          "type": "address"
        }
      ],
      "name": "setOptimismSequencer",
      "outputs": [],
      "stateMutability": "nonpayable",
      "type": "function"
    },
    {
      "inputs": [
        {
          "internalType": "uint256",
          "name": "_quorum",
          "type": "uint256"
        }
      ],
      "name": "setQuorum",
      "outputs": [],
      "stateMutability": "nonpayable",
      "type": "function"
    },
    {
      "inputs": [
        {
          "internalType": "address",
          "name": "_seigManagerV2",
          "type": "address"
        }
      ],
      "name": "setSeigManagerV2",
      "outputs": [],
      "stateMutability": "nonpayable",
      "type": "function"
    },
    {
      "inputs": [
        {
          "internalType": "address",
          "name": "_stakeManagerV2",
          "type": "address"
        }
      ],
      "name": "setStakeManagerV2",
      "outputs": [],
      "stateMutability": "nonpayable",
      "type": "function"
    },
    {
      "inputs": [],
      "name": "stakeManagerV2",
      "outputs": [
        {
          "internalType": "address",
          "name": "",
          "type": "address"
        }
      ],
      "stateMutability": "view",
      "type": "function"
    },
    {
      "inputs": [],
      "name": "ton",
      "outputs": [
        {
          "internalType": "address",
          "name": "",
          "type": "address"
        }
      ],
      "stateMutability": "view",
      "type": "function"
    },
    {
      "inputs": [
        {
          "internalType": "uint32",
          "name": "_index",
          "type": "uint32"
        }
      ],
      "name": "totalSupplyOnCandidateV2",
      "outputs": [
        {
          "internalType": "uint256",
          "name": "amount",
          "type": "uint256"
        }
      ],
      "stateMutability": "view",
      "type": "function"
    },
    {
      "inputs": [
        {
          "internalType": "uint32",
          "name": "_index",
          "type": "uint32"
        }
      ],
      "name": "totalSupplyOnSequencerV2",
      "outputs": [
        {
          "internalType": "uint256",
          "name": "amount",
          "type": "uint256"
        }
      ],
      "stateMutability": "view",
      "type": "function"
    },
    {
      "inputs": [],
      "name": "updateSeigniorageV2",
      "outputs": [
        {
          "internalType": "bool",
          "name": "",
          "type": "bool"
        }
      ],
      "stateMutability": "nonpayable",
      "type": "function"
    },
    {
      "inputs": [
        {
          "internalType": "uint256",
          "name": "_rate",
          "type": "uint256"
        }
      ],
      "name": "updateStake1Rate",
      "outputs": [],
      "stateMutability": "nonpayable",
      "type": "function"
    }
  ],
  "bytecode": "0x608060405234801561001057600080fd5b50614b9a806100206000396000f3fe608060405234801561001057600080fd5b50600436106103665760003560e01c80637ee9afcf116101ca578063b911135f11610105578063cc48b947116100a8578063cc48b947146109d5578063cf2a239c146109e8578063cfbd1c42146109fb578063d547741f14610a0e578063d89ac80f14610a21578063f6ac3dc814610a46578063f916bb8f14610a4e578063fa2b58d814610a61578063fe8da4b614610a7457600080fd5b8063b911135f1461093d578063baa1253614610966578063bbd55a7714610979578063c1776a231461098c578063c1ba4e5914610994578063c4ef9c00146109a7578063c8b87f40146109af578063ca15c873146109c257600080fd5b80639932e94c1161016d5780639932e94c146108b05780639b7f7549146108c3578063a1bfda9a146108d6578063a217fddf146108e9578063a230c524146108f1578063a6e32c6914610904578063ac8cff9914610917578063b5dd11581461092a57600080fd5b80637ee9afcf146107115780637f3316361461084057806385a16b3e146108495780639010d07c1461085c57806391d148541461086f578063934049ee1461088257806395065f971461089557806395ed39b9146108a857600080fd5b806350e8f17d116102a5578063651d08cd11610248578063651d08cd146106665780636aa20954146106795780636becff271461068c5780636c8381f81461069f5780636da8f3ce146106b25780636ee9d5ba146106c55780636fb7f558146106d857806373469a7a146106eb578063749e0977146106fe57600080fd5b806350e8f17d146105bd578063550d01a3146105d0578063561a1dab146105f35780635903bd6c14610606578063599745d5146106195780635c1bba381461062c5780635daf08ca1461063f57806363a8fd891461065257600080fd5b80632e011c1e1161030d5780632e011c1e1461042f5780632f2ff15d14610520578063339f565f146105355780633477ee2e1461054857806336568abe1461055b578063419e4dd31461056e5780634f7d917d1461058157806350d2a2761461059457600080fd5b806303e3c9ac1461036b57806310d4e39b1461038757806311f19e041461039a57806316b5d5bd146103bd5780631703a018146103dd5780631e21652f146103e6578063248a9ca3146103f957806327fd92fd1461041c575b600080fd5b61037460085481565b6040519081526020015b60405180910390f35b610374610395366004614306565b610a87565b6103ad6103a836600461433d565b610b0f565b604051901515815260200161037e565b6011546103d0906001600160a01b031681565b60405161037e9190614356565b610374600a5481565b6103746103f436600461436a565b610fdc565b61037461040736600461433d565b6000908152600c602052604090206002015490565b6002546103d0906001600160a01b031681565b6104cb61043d366004614385565b6040805160a0808201835260008083526020808401829052838501829052606080850183905260809485018390526001600160a01b0396871683526009825291859020855193840186528054909616835260018601549083015260028501546001600160801b0380821695840195909552600160801b90048416908201526003909301549091169082015290565b6040805182516001600160a01b0316815260208084015190820152828201516001600160801b03908116928201929092526060808401518316908201526080928301519091169181019190915260a00161037e565b61053361052e3660046143a9565b611019565b005b6103746105433660046143ce565b6110a7565b6103d061055636600461433d565b611239565b6105336105693660046143a9565b611263565b61053361057c366004614413565b6112dd565b6103ad61058f36600461443f565b611369565b6103d06105a2366004614474565b600f602052600090815260409020546001600160a01b031681565b6105336105cb36600461449e565b6113a7565b6103ad6105de366004614385565b600e6020526000908152604090205460ff1681565b6103ad610601366004614385565b61186f565b6001546103d0906001600160a01b031681565b610533610627366004614413565b61188f565b6014546103d0906001600160a01b031681565b6103d061064d36600461433d565b6118e5565b6010546103ad90600160a01b900460ff1681565b6103d0610674366004614385565b6118f5565b610533610687366004614385565b611913565b61053361069a366004614385565b611984565b6013546103d0906001600160a01b031681565b6105336106c036600461449e565b611b73565b6103ad6106d33660046144c0565b611c06565b6005546103d0906001600160a01b031681565b6012546103d0906001600160a01b031681565b61053361070c366004614385565b612a5f565b6107dd61071f36600461443f565b6040805160c081018252600080825260208201819052918101829052606081018290526080810182905260a0810191909152506001600160a01b038216600090815260186020908152604080832063ffffffff808616855290835292819020815160c08101835281548086168252600160201b90049094169284019290925260018201549083015260028101546001600160801b038082166060850152600160801b909104811660808401526003909101541660a082015292915050565b60405161037e9190815163ffffffff908116825260208084015190911690820152604080830151908201526060808301516001600160801b039081169183019190915260808084015182169083015260a092830151169181019190915260c00190565b610374600b5481565b61037461085736600461436a565b612ad0565b6103d061086a36600461449e565b612b0d565b6103ad61087d3660046143a9565b612b25565b61037461089036600461443f565b612b3d565b6105336108a3366004614385565b612bff565b6103ad612c70565b6103746108be366004614385565b612c81565b6103ad6108d136600461443f565b612d2a565b6015546103d0906001600160a01b031681565b610374600081565b6103ad6108ff366004614385565b612d5d565b61053361091236600461433d565b612d86565b610374610925366004614306565b612e0b565b6003546103d0906001600160a01b031681565b6103d061094b36600461433d565b600d602052600090815260409020546001600160a01b031681565b610533610974366004614385565b612e44565b6105336109873660046144e3565b612eb5565b6103ad6132ab565b6105336109a236600461433d565b61331f565b6103ad613411565b6105336109bd36600461443f565b61363a565b6103746109d036600461433d565b613806565b6000546103d0906001600160a01b031681565b6004546103d0906001600160a01b031681565b6103d0610a0936600461433d565b61381d565b610533610a1c3660046143a9565b61382d565b610a34610a2f36600461443f565b6138ae565b60405160ff909116815260200161037e565b601654610374565b6103ad610a5c36600461436a565b61390d565b610374610a6f36600461443f565b613c6d565b610533610a82366004614385565b613dfa565b601354604051632f8dcc4f60e11b8152600091610b06916001600160a01b0390911690635f1b989e90610ac0908790879060040161457a565b602060405180830381865afa158015610add573d6000803e3d6000fd5b505050506040513d601f19601f82011682018060405250810190610b019190614599565b613e6b565b90505b92915050565b6000816008548110610b3c5760405162461bcd60e51b8152600401610b33906145b2565b60405180910390fd5b6000336001600160a01b0316636c8381f86040518163ffffffff1660e01b8152600401602060405180830381865afa158015610b7c573d6000803e3d6000fd5b505050506040513d601f19601f82011682018060405250810190610ba091906145d3565b6001600160a01b0381166000908152600960209081526040918290208251631dffc87160e21b815292519394509233926377ff21c49260048083019391928290030181865afa158015610bf7573d6000803e3d6000fd5b505050506040513d601f19601f82011682018060405250810190610c1b91906145f0565b610c805760405162461bcd60e51b815260206004820152603060248201527f44414f436f6d6d69747465653a2073656e646572206973206e6f74206120636160448201526f1b991a59185d194818dbdb9d1c9858dd60821b6064820152608401610b33565b80546001600160a01b03163314610ca95760405162461bcd60e51b8152600401610b3390614612565b60028101546001600160801b031615610d045760405162461bcd60e51b815260206004820152601c60248201527f44414f436f6d6d69747465653a20616c7265616479206d656d626572000000006044820152606401610b33565b60008581526017602052604090205463ffffffff168015610d675760405162461bcd60e51b815260206004820152601b60248201527f6e65656420746f206368616c6c616e6765205631206d656d62657200000000006044820152606401610b33565b600060078781548110610d7c57610d7c61465a565b60009182526020822001546001600160a01b03169150610d9b826118f5565b6002850180546001600160801b031916426001600160801b0316179055600185018990556007805491925086918a908110610dd857610dd861465a565b600091825260209091200180546001600160a01b0319166001600160a01b039283161790558216610e4157846001600160a01b031688600080516020614b2083398151915284604051610e2b9190614356565b60405180910390a3600196505050505050610fd6565b806001600160a01b031663817b1cd26040518163ffffffff1660e01b8152600401602060405180830381865afa158015610e7f573d6000803e3d6000fd5b505050506040513d601f19601f82011682018060405250810190610ea39190614599565b336001600160a01b031663817b1cd26040518163ffffffff1660e01b8152600401602060405180830381865afa158015610ee1573d6000803e3d6000fd5b505050506040513d601f19601f82011682018060405250810190610f059190614599565b11610f225760405162461bcd60e51b8152600401610b3390614670565b6001600160a01b038216600090815260096020526040812060018101919091556002810154610f7a90610f5f9042906001600160801b0316613e7b565b6002830154600160801b90046001600160801b031690613e87565b6001600160801b0316600160801b026001600160801b03191660028201556040516001600160a01b038716908a90600080516020614b2083398151915290610fc3908790614356565b60405180910390a3600197505050505050505b50919050565b6013546040516322bfb27f60e21b815263ffffffff83166004820152600091610b09916001600160a01b0390911690638afec9fc90602401610ac0565b6000828152600c60205260409020600201546110359033612b25565b6110995760405162461bcd60e51b815260206004820152602f60248201527f416363657373436f6e74726f6c3a2073656e646572206d75737420626520616e60448201526e0818591b5a5b881d1bc819dc985b9d608a1b6064820152608401610b33565b6110a38282613e93565b5050565b6012546000906001600160a01b03166110d25760405162461bcd60e51b8152600401610b339061469b565b6011546001600160a01b03166110fa5760405162461bcd60e51b8152600401610b33906146e9565b6111048484612d2a565b156111215760405162461bcd60e51b8152600401610b3390614737565b506040805160c08101825263ffffffff80851680835284821660208085019182526000858701818152606087018281526080880183815260a089018481526001600160a01b038e16808652601887528b8620988652979095529883209751885495518816600160201b0267ffffffffffffffff199096169716969096179390931786559151600180870191909155935195516001600160801b03908116600160801b029681169690961760028601555160039094018054949095166001600160801b03199490941693909317909355601680549182018155918290527fd833147d7dc355ba459fc788f669e58cfaf9dc25ddcd0702e87d69c7b51242890180546001600160a01b031916909217909155549392505050565b6006818154811061124957600080fd5b6000918252602090912001546001600160a01b0316905081565b6001600160a01b03811633146112d35760405162461bcd60e51b815260206004820152602f60248201527f416363657373436f6e74726f6c3a2063616e206f6e6c792072656e6f756e636560448201526e103937b632b9903337b91039b2b63360891b6064820152608401610b33565b6110a38282613eec565b6112e5612c70565b6113015760405162461bcd60e51b8152600401610b3390614758565b60155460405163419e4dd360e01b81526001600160a01b039091169063419e4dd39061133390859085906004016147ae565b600060405180830381600087803b15801561134d57600080fd5b505af1158015611361573d6000803e3d6000fd5b505050505050565b6001600160a01b038216600090815260186020908152604080832063ffffffff851684529091529020600201546001600160801b0316151592915050565b6113b2600033612b25565b6113ce5760405162461bcd60e51b8152600401610b33906147c7565b8160085481106113f05760405162461bcd60e51b8152600401610b33906145b2565b6000838152601760205260408120546007805463ffffffff90921692918690811061141d5761141d61465a565b60009182526020822001546001600160a01b0316915063ffffffff831690036115f3576001600160a01b0381166000908152600960205260409020600754611467906001906147fe565b86146115ab576007805460009190611481906001906147fe565b815481106114915761149161465a565b6000918252602080832090910154898352601790915260408220546001600160a01b03909116925063ffffffff1690819003611531576001600160a01b038216600090815260096020526040902060018101899055600780548491908b9081106114fd576114fd61465a565b9060005260206000200160006101000a8154816001600160a01b0302191690836001600160a01b03160217905550506115a8565b6001600160a01b038416600090815260186020908152604080832063ffffffff85168452909152902060018101899055600780548491908b9081106115785761157861465a565b9060005260206000200160006101000a8154816001600160a01b0302191690836001600160a01b03160217905550505b50505b6000600182015560028101546115cf90610f5f9042906001600160801b0316613e7b565b6001600160801b0316600160801b026001600160801b0319166002909101556117b3565b6001600160a01b038116600090815260186020908152604080832063ffffffff86168452909152902060075461162b906001906147fe565b861461176f576007805460009190611645906001906147fe565b815481106116555761165561465a565b6000918252602080832090910154898352601790915260408220546001600160a01b03909116925063ffffffff16908190036116f5576001600160a01b038216600090815260096020526040902060018101899055600780548491908b9081106116c1576116c161465a565b9060005260206000200160006101000a8154816001600160a01b0302191690836001600160a01b031602179055505061176c565b6001600160a01b038416600090815260186020908152604080832063ffffffff85168452909152902060018101899055600780548491908b90811061173c5761173c61465a565b9060005260206000200160006101000a8154816001600160a01b0302191690836001600160a01b03160217905550505b50505b60006001820155600281015461179390610f5f9042906001600160801b0316613e7b565b6001600160801b0316600160801b026001600160801b0319166002909101555b60078054806117c4576117c4614811565b600082815260209020810160001990810180546001600160a01b03191690550190556008546117f4906001613e7b565b6008556118008461331f565b60006001600160a01b031685600080516020614b20833981519152836040516118299190614356565b60405180910390a360085461183f816001613e87565b6040517f8c0366d1e3a335a312d012257ee764723c38ec2dd5e74cbfad372513521f977190600090a35050505050565b6001600160a01b0390811660009081526009602052604090205416151590565b611897612c70565b6118b35760405162461bcd60e51b8152600401610b3390614758565b60155460405163599745d560e01b81526001600160a01b039091169063599745d59061133390859085906004016147ae565b6007818154811061124957600080fd5b6001600160a01b039081166000908152600960205260409020541690565b61191e600033612b25565b61193a5760405162461bcd60e51b8152600401610b33906147c7565b806001600160a01b0381166119615760405162461bcd60e51b8152600401610b3390614827565b50601580546001600160a01b0319166001600160a01b0392909216919091179055565b6000336001600160a01b0316636c8381f86040518163ffffffff1660e01b8152600401602060405180830381865afa1580156119c4573d6000803e3d6000fd5b505050506040513d601f19601f820116820180604052508101906119e891906145d3565b6001600160a01b038082166000908152600960205260409020805492935091163314611a265760405162461bcd60e51b8152600401610b3390614612565b6000611a3183612c81565b905060008111611a965760405162461bcd60e51b815260206004820152602a60248201527f44414f436f6d6d69747465653a20796f7520646f6e2774206861766520636c6160448201526934b6b0b13632903a37b760b11b6064820152608401610b33565b600154604051633bc3556560e21b81526001600160a01b039091169063ef0d559490611ac890879085906004016147ae565b600060405180830381600087803b158015611ae257600080fd5b505af1158015611af6573d6000803e3d6000fd5b505050506003820180546001600160801b031916426001600160801b039081169190911790915560028301805490911690556040516001600160a01b038416907fb15377c434dc1922cc2eb7d8950640960a05f0cf6d5dc9442de8414a9da2b30890611b6590879085906147ae565b60405180910390a250505050565b611b7e600033612b25565b611b9a5760405162461bcd60e51b8152600401610b33906147c7565b8160085410611bbb5760405162461bcd60e51b8152600401610b3390614848565b6008805490839055611bcb613f45565b611bd48261331f565b604051839082907f8c0366d1e3a335a312d012257ee764723c38ec2dd5e74cbfad372513521f977190600090a3505050565b6000826008548110611c2a5760405162461bcd60e51b8152600401610b33906145b2565b6000611c3633856138ae565b9050611c6a6040518060400160405280600d81526020016c31b432b1b5a9b2b73232b9101d60991b8152508260ff16613fa8565b6000806000808460ff166000036122fc573360009081526009602090815260409182902080548351630d90703f60e31b8152935191936001600160a01b0390911692636c8381f8926004808401938290030181865afa158015611cd1573d6000803e3d6000fd5b505050506040513d601f19601f82011682018060405250810190611cf591906145d3565b815460408051631dffc87160e21b815290519297506001600160a01b03909116916377ff21c4916004808201926020929091908290030181865afa158015611d41573d6000803e3d6000fd5b505050506040513d601f19601f82011682018060405250810190611d6591906145f0565b611d815760405162461bcd60e51b8152600401610b3390614869565b6001600160a01b0385163314611da95760405162461bcd60e51b8152600401610b339061488a565b60028101546001600160801b031615611dd45760405162461bcd60e51b8152600401610b33906148ab565b6002810180546001600160801b031916426001600160801b0316179055600181018a9055600780548b908110611e0c57611e0c61465a565b60009182526020808320909101548c835260179091526040909120805463ffffffff1981169091556001600160a01b03909116945063ffffffff1684611ef657611e81604051806040016040528060148152602001733132b337b932903932ba34b9329036b2b6b132b960611b815250613fed565b8560078c81548110611e9557611e9561465a565b600091825260209091200180546001600160a01b0319166001600160a01b03928316179055604051908716908c90600080516020614b2083398151915290611ede908990614356565b60405180910390a36001985050505050505050612a58565b6000611f0286836138ae565b9050611f3a60405180604001604052806011815260200170031b432b1b5a83932a6b2b6b132b9101d1607d1b8152508260ff16613fa8565b8060ff166000036120a0576000611f50876118f5565b9050806001600160a01b031663817b1cd26040518163ffffffff1660e01b8152600401602060405180830381865afa158015611f90573d6000803e3d6000fd5b505050506040513d601f19601f82011682018060405250810190611fb49190614599565b8454604080516340bd8e6960e11b815290516001600160a01b039092169163817b1cd2916004808201926020929091908290030181865afa158015611ffd573d6000803e3d6000fd5b505050506040513d601f19601f820116820180604052508101906120219190614599565b1161203e5760405162461bcd60e51b8152600401610b3390614670565b6001600160a01b03871660009081526009602052604081206001810191909155600281015461207b90610f5f9042906001600160801b0316613e7b565b6001600160801b0316600160801b026001600160801b031916600290910155506122f4565b6120c9604051806040016040528060088152602001675632202d3e20563160c01b815250613fed565b6001600160a01b038616600090815260186020908152604080832063ffffffff86168452909152902060ff821660010361213d5761211e604051806060016040528060258152602001614b4060259139613fed565b60145481546001600160a01b03909116965063ffffffff169450612180565b61215e604051806060016040528060258152602001614afb60259139613fed565b60135481546001600160a01b039091169650600160201b900463ffffffff1694505b6121b7604051806040016040528060168152602001755632202d3e205631206d656d626572206368616e676560501b815250613fed565b604051632f8dcc4f60e11b81526001600160a01b03871690635f1b989e906121e59088908b9060040161457a565b602060405180830381865afa158015612202573d6000803e3d6000fd5b505050506040513d601f19601f820116820180604052508101906122269190614599565b8454604080516340bd8e6960e11b815290516001600160a01b039092169163817b1cd2916004808201926020929091908290030181865afa15801561226f573d6000803e3d6000fd5b505050506040513d601f19601f820116820180604052508101906122939190614599565b116122b05760405162461bcd60e51b8152600401610b3390614670565b6000600182015560028101546122d490610f5f9042906001600160801b0316613e7b565b6001600160801b0316600160801b026001600160801b0319166002909101555b5050506129e9565b6123063389612d2a565b6123225760405162461bcd60e51b8152600401610b3390614869565b33600081815260186020908152604080832063ffffffff8d16845290915290206002810154919550906001600160801b0316156123715760405162461bcd60e51b8152600401610b33906148ab565b6002810180546001600160801b031916426001600160801b0316179055600181018a9055600780548b9081106123a9576123a961465a565b6000918252602090912001546001600160a01b031693508361245d5760008a8152601760205260409020805463ffffffff191663ffffffff8b16179055600780548691908c9081106123fd576123fd61465a565b600091825260209091200180546001600160a01b0319166001600160a01b03928316179055604051908616908b90600080516020614b2083398151915290612446908890614356565b60405180910390a360019750505050505050612a58565b60008a81526017602052604081205463ffffffff169061247d86836138ae565b90508760ff16600103612770578060ff166000036125955760006124a0876118f5565b9050806001600160a01b031663817b1cd26040518163ffffffff1660e01b8152600401602060405180830381865afa1580156124e0573d6000803e3d6000fd5b505050506040513d601f19601f820116820180604052508101906125049190614599565b84546125169063ffffffff168a612e0b565b116125335760405162461bcd60e51b8152600401610b3390614670565b6001600160a01b03871660009081526009602052604081206001810191909155600281015461257090610f5f9042906001600160801b0316613e7b565b6001600160801b0316600160801b026001600160801b031916600290910155506129c4565b6001600160a01b038616600090815260186020908152604080832063ffffffff80871685529252909120805490916125d491600160201b900416614030565b8160ff166001036125fe5760145481546001600160a01b03909116965063ffffffff169450612620565b60135481546001600160a01b039091169650600160201b900463ffffffff1694505b604051632f8dcc4f60e11b81526001600160a01b03871690635f1b989e9061264e9088908b9060040161457a565b602060405180830381865afa15801561266b573d6000803e3d6000fd5b505050506040513d601f19601f8201168201806040525081019061268f9190614599565b6014548554604051632f8dcc4f60e11b81526001600160a01b0390921691635f1b989e916126ca9163ffffffff909116908d9060040161457a565b602060405180830381865afa1580156126e7573d6000803e3d6000fd5b505050506040513d601f19601f8201168201806040525081019061270b9190614599565b116127285760405162461bcd60e51b8152600401610b3390614670565b60006001820155600281015461274c90610f5f9042906001600160801b0316613e7b565b6001600160801b0316600160801b026001600160801b0319166002909101556129c4565b8060ff16600003612803576000612786876118f5565b9050806001600160a01b031663817b1cd26040518163ffffffff1660e01b8152600401602060405180830381865afa1580156127c6573d6000803e3d6000fd5b505050506040513d601f19601f820116820180604052508101906127ea9190614599565b845461251690600160201b900463ffffffff168a610a87565b6001600160a01b038616600090815260186020908152604080832063ffffffff8f168452909152902060ff82166001036128565760145481546001600160a01b03909116965063ffffffff169450612878565b60135481546001600160a01b039091169650600160201b900463ffffffff1694505b604051632f8dcc4f60e11b81526001600160a01b03871690635f1b989e906128a69088908b9060040161457a565b602060405180830381865afa1580156128c3573d6000803e3d6000fd5b505050506040513d601f19601f820116820180604052508101906128e79190614599565b6013548554604051632f8dcc4f60e11b81526001600160a01b0390921691635f1b989e916129229163ffffffff909116908d9060040161457a565b602060405180830381865afa15801561293f573d6000803e3d6000fd5b505050506040513d601f19601f820116820180604052508101906129639190614599565b116129805760405162461bcd60e51b8152600401610b3390614670565b6000600182015560028101546129a490610f5f9042906001600160801b0316613e7b565b6001600160801b0316600160801b026001600160801b0319166002909101555b5050506000898152601760205260409020805463ffffffff191663ffffffff8a161790555b8360078a815481106129fd576129fd61465a565b600091825260209091200180546001600160a01b0319166001600160a01b03928316179055604051908516908a90600080516020614b2083398151915290612a46908790614356565b60405180910390a36001965050505050505b5092915050565b612a6a600033612b25565b612a865760405162461bcd60e51b8152600401610b33906147c7565b806001600160a01b038116612aad5760405162461bcd60e51b8152600401610b3390614827565b50601480546001600160a01b0319166001600160a01b0392909216919091179055565b6014546040516322bfb27f60e21b815263ffffffff83166004820152600091610b09916001600160a01b0390911690638afec9fc90602401610ac0565b6000828152600c60205260408120610b069083614075565b6000828152600c60205260408120610b069083614081565b6001600160a01b038216600090815260186020908152604080832063ffffffff85168452909152812060028101546001600160801b03600160801b82048116911615612be857600382015460028301546001600160801b03918216911611612bc8576003820154612bc390612bbc9042906001600160801b0316613e7b565b8290613e87565b612be5565b6002820154612be590612bbc9042906001600160801b0316613e7b565b90505b600b54612bf69082906140a3565b95945050505050565b612c0a600033612b25565b612c265760405162461bcd60e51b8152600401610b33906147c7565b806001600160a01b038116612c4d5760405162461bcd60e51b8152600401610b3390614827565b50601280546001600160a01b0319166001600160a01b0392909216919091179055565b6015546001600160a01b0316331490565b6001600160a01b038116600090815260096020526040812060028101546001600160801b03600160801b82048116911615612d1457600382015460028301546001600160801b03918216911611612cf4576003820154612cef90612bbc9042906001600160801b0316613e7b565b612d11565b6002820154612d1190612bbc9042906001600160801b0316613e7b565b90505b600b54612d229082906140a3565b949350505050565b6001600160a01b0391909116600090815260186020908152604080832063ffffffff948516845290915290205416151590565b6001600160a01b03166000908152600960205260409020600201546001600160801b0316151590565b612d8e612c70565b612daa5760405162461bcd60e51b8152600401610b3390614758565b60155460405163a6e32c6960e01b8152600481018390526001600160a01b039091169063a6e32c6990602401600060405180830381600087803b158015612df057600080fd5b505af1158015612e04573d6000803e3d6000fd5b5050505050565b601454604051632f8dcc4f60e11b8152600091610b06916001600160a01b0390911690635f1b989e90610ac0908790879060040161457a565b612e4f600033612b25565b612e6b5760405162461bcd60e51b8152600401610b33906147c7565b806001600160a01b038116612e925760405162461bcd60e51b8152600401610b3390614827565b50601180546001600160a01b0319166001600160a01b0392909216919091179055565b6002546001600160a01b0316612edd5760405162461bcd60e51b8152600401610b33906148cc565b612ee63361186f565b80612ef65750612ef63382612d2a565b612f125760405162461bcd60e51b8152600401610b3390614918565b600254604051637e77eb2360e01b815260048101879052336024820152604481018690526001600160a01b0390911690637e77eb23906064016020604051808303816000875af1158015612f6a573d6000803e3d6000fd5b505050506040513d601f19601f82011682018060405250810190612f8e91906145f0565b50600254604051635772521560e11b815260048101879052600091829182916001600160a01b03169063aee4a42a90602401606060405180830381865afa158015612fdd573d6000803e3d6000fd5b505050506040513d601f19601f820116820180604052508101906130019190614944565b92509250925082600a54116130df57600254604051632b0a851b60e11b81526001600160a01b03909116906356150a3690613043908b90600190600401614988565b600060405180830381600087803b15801561305d57600080fd5b505af1158015613071573d6000803e3d6000fd5b5050600254604051633625b75960e21b81526001600160a01b03909116925063d896dd6491506130a8908b906003906004016149ac565b600060405180830381600087803b1580156130c257600080fd5b505af11580156130d6573d6000803e3d6000fd5b5050505061325b565b81600a541161317e5760028054604051632b0a851b60e11b81526001600160a01b03909116916356150a3691613119918c91600401614988565b600060405180830381600087803b15801561313357600080fd5b505af1158015613147573d6000803e3d6000fd5b5050600254604051633625b75960e21b81526001600160a01b03909116925063d896dd6491506130a8908b906005906004016149ac565b6131888183613e87565b600a541161325b57600254604051632b0a851b60e11b81526001600160a01b03909116906356150a36906131c3908b90600390600401614988565b600060405180830381600087803b1580156131dd57600080fd5b505af11580156131f1573d6000803e3d6000fd5b5050600254604051633625b75960e21b81526001600160a01b03909116925063d896dd649150613228908b906005906004016149ac565b600060405180830381600087803b15801561324257600080fd5b505af1158015613256573d6000803e3d6000fd5b505050505b87336001600160a01b03167ffa0761008653bc7bf9fa040fb7e07672ad3e17a976eb452c44e81dd782a6214b898989604051613299939291906149c3565b60405180910390a35050505050505050565b60125460408051633b253c2b60e11b815290516000926001600160a01b03169163764a7856916004808301926020929190829003018187875af11580156132f6573d6000803e3d6000fd5b505050506040513d601f19601f8201168201806040525081019061331a91906145f0565b905090565b61332a600033612b25565b6133465760405162461bcd60e51b8152600401610b33906147c7565b6002546001600160a01b031661336e5760405162461bcd60e51b8152600401610b33906148cc565b60085461337c9060026140af565b81116133b45760405162461bcd60e51b815260206004820152600760248201526644414f3a20514560c81b6044820152606401610b33565b6008548111156133d65760405162461bcd60e51b8152600401610b3390614848565b600a8190556040518181527f027863d12a407097e086a48e36475bfc859d0b200b7e6f65b5fd3b218e46632e9060200160405180910390a150565b600080336001600160a01b0316636c8381f86040518163ffffffff1660e01b8152600401602060405180830381865afa158015613452573d6000803e3d6000fd5b505050506040513d601f19601f8201168201806040525081019061347691906145d3565b905061348181612d5d565b6134d95760405162461bcd60e51b815260206004820152602360248201527f53746f726167655374617465436f6d6d69747465653a206e6f742061206d656d6044820152623132b960e91b6064820152608401610b33565b6000336001600160a01b0316636c8381f86040518163ffffffff1660e01b8152600401602060405180830381865afa158015613519573d6000803e3d6000fd5b505050506040513d601f19601f8201168201806040525081019061353d91906145d3565b6001600160a01b03808216600090815260096020526040902080549293509116331461357b5760405162461bcd60e51b8152600401610b3390614612565b600060078260010154815481106135945761359461465a565b600091825260209091200180546001600160a01b0319166001600160a01b039290921691909117905560028101546135da90610f5f9042906001600160801b0316613e7b565b6001600160801b0316600160801b026001600160801b03191660028201556001810180546000918290556040519091908290600080516020614b2083398151915290613627908790614356565b60405180910390a3600194505050505090565b60008163ffffffff166000036136b85761365333612c81565b9050600081116136755760405162461bcd60e51b8152600401610b33906149f9565b3360009081526009602052604090206003810180546001600160801b031916426001600160801b039081169190911790915560029091018054909116905561375a565b6136c23383612b3d565b9050600081116136e45760405162461bcd60e51b8152600401610b33906149f9565b6136ee3383612d2a565b61370a5760405162461bcd60e51b8152600401610b3390614918565b33600090815260186020908152604080832063ffffffff8616845290915290206003810180546001600160801b031916426001600160801b03908116919091179091556002909101805490911690555b600154604051633bc3556560e21b81526001600160a01b039091169063ef0d55949061378c90869085906004016147ae565b600060405180830381600087803b1580156137a657600080fd5b505af11580156137ba573d6000803e3d6000fd5b50505050336001600160a01b03167fb15377c434dc1922cc2eb7d8950640960a05f0cf6d5dc9442de8414a9da2b30884836040516137f99291906147ae565b60405180910390a2505050565b6000818152600c60205260408120610b09906140bb565b6016818154811061124957600080fd5b6000828152600c60205260409020600201546138499033612b25565b6112d35760405162461bcd60e51b815260206004820152603060248201527f416363657373436f6e74726f6c3a2073656e646572206d75737420626520616e60448201526f2061646d696e20746f207265766f6b6560801b6064820152608401610b33565b600063ffffffff821615613904576001600160a01b038316600090815260186020908152604080832063ffffffff8087168552925290912054600160201b9004166138fa5760016138fd565b60025b9050610b09565b50600092915050565b60008161391933612d5d565b8061392957506139293382611369565b61395f5760405162461bcd60e51b815260206004820152600760248201526644414f3a204e4d60c81b6044820152606401610b33565b600061396b33856138ae565b905061399f6040518060400160405280600d81526020016c31b432b1b5a9b2b73232b9101d60991b8152508260ff16613fa8565b8060ff16600003613b57576139db6040518060400160405280601081526020016f3932ba34b932902b189036b2b6b132b960811b815250613fed565b33600090815260096020908152604080832080548251630d90703f60e31b815292519194936001600160a01b0390911692636c8381f892600480830193928290030181865afa158015613a32573d6000803e3d6000fd5b505050506040513d601f19601f82011682018060405250810190613a5691906145d3565b90506001600160a01b0381163314613a805760405162461bcd60e51b8152600401610b339061488a565b60006007836001015481548110613a9957613a9961465a565b600091825260209091200180546001600160a01b0319166001600160a01b03929092169190911790556002820154613afa90613adf9042906001600160801b0316613e7b565b6002840154600160801b90046001600160801b031690613e87565b6001600160801b0316600160801b026001600160801b03191660028301556001820180546000918290556040519091908290600080516020614b2083398151915290613b47903390614356565b60405180910390a3505050613c63565b613b886040518060400160405280601081526020016f3932ba34b932902b191036b2b6b132b960811b815250613fed565b33600090815260186020908152604080832063ffffffff8816845290915281206001810154600780549293929091908110613bc557613bc561465a565b600091825260209091200180546001600160a01b0319166001600160a01b03929092169190911790556002810154613c0b90610f5f9042906001600160801b0316613e7b565b6001600160801b0316600160801b026001600160801b03191660028201556001810180546000918290556040519091908290600080516020614b2083398151915290613c58903390614356565b60405180910390a350505b5060019392505050565b6012546000906001600160a01b0316613c985760405162461bcd60e51b8152600401610b339061469b565b6011546001600160a01b0316613cc05760405162461bcd60e51b8152600401610b33906146e9565b613cca8383612d2a565b15613ce75760405162461bcd60e51b8152600401610b3390614737565b506040805160c08101825263ffffffff80841680835260006020808501828152858701838152606087018481526080880185815260a089018681526001600160a01b038d16808852601887528b8820988852979095529885209751885493518816600160201b0267ffffffffffffffff1990941697169690961791909117865551600180870191909155935195516001600160801b03908116600160801b029681169690961760028601555160039094018054949095166001600160801b03199490941693909317909355601680549182018155918290527fd833147d7dc355ba459fc788f669e58cfaf9dc25ddcd0702e87d69c7b51242890180546001600160a01b0319169092179091555492915050565b613e05600033612b25565b613e215760405162461bcd60e51b8152600401610b33906147c7565b806001600160a01b038116613e485760405162461bcd60e51b8152600401610b3390614827565b50601380546001600160a01b0319166001600160a01b0392909216919091179055565b6000610b0982633b9aca00614a1a565b6000610b0682846147fe565b6000610b068284614a31565b6000828152600c60205260409020613eab90826140c5565b156110a35760405133906001600160a01b0383169084907f2f8788117e7eff1d82e926ec794901d17c78024a50270940304540a733656f0d90600090a45050565b6000828152600c60205260409020613f0490826140da565b156110a35760405133906001600160a01b0383169084907ff6391f5c32d9c69d2a47ea670b442974b53935d1edc7fd64eb21e047a839171b90600090a45050565b6007545b600854811015613fa557600780546001810182556000919091527fa66cc928b5edb82af9bd49922954155ab7b0942694bea4ce44661d9a8736c6880180546001600160a01b031916905580613f9d81614a44565b915050613f49565b50565b6110a38282604051602401613fbe929190614aa3565b60408051601f198184030181529190526020810180516001600160e01b0316632d839cb360e21b1790526140ef565b613fa5816040516024016140019190614ac5565b60408051601f198184030181529190526020810180516001600160e01b031663104c13eb60e21b1790526140ef565b613fa58160405160240161404691815260200190565b60408051601f198184030181529190526020810180516001600160e01b031663f82c50f160e01b1790526140ef565b6000610b068383614110565b6001600160a01b03811660009081526001830160205260408120541515610b06565b6000610b068284614a1a565b6000610b068284614ad8565b6000610b09825490565b6000610b06836001600160a01b038416614196565b6000610b06836001600160a01b0384166141e5565b80516a636f6e736f6c652e6c6f67602083016000808483855afa5050505050565b8154600090821061416e5760405162461bcd60e51b815260206004820152602260248201527f456e756d657261626c655365743a20696e646578206f7574206f6620626f756e604482015261647360f01b6064820152608401610b33565b8260000182815481106141835761418361465a565b9060005260206000200154905092915050565b60008181526001830160205260408120546141dd57508154600181810184556000848152602080822090930184905584548482528286019093526040902091909155610b09565b506000610b09565b600081815260018301602052604081205480156142ce5760006142096001836147fe565b855490915060009061421d906001906147fe565b905060008660000182815481106142365761423661465a565b90600052602060002001549050808760000184815481106142595761425961465a565b600091825260209091200155614270836001614a31565b6000828152600189016020526040902055865487908061429257614292614811565b60019003818190600052602060002001600090559055866001016000878152602001908152602001600020600090556001945050505050610b09565b6000915050610b09565b803563ffffffff811681146142ec57600080fd5b919050565b6001600160a01b0381168114613fa557600080fd5b6000806040838503121561431957600080fd5b614322836142d8565b91506020830135614332816142f1565b809150509250929050565b60006020828403121561434f57600080fd5b5035919050565b6001600160a01b0391909116815260200190565b60006020828403121561437c57600080fd5b610b06826142d8565b60006020828403121561439757600080fd5b81356143a2816142f1565b9392505050565b600080604083850312156143bc57600080fd5b823591506020830135614332816142f1565b6000806000606084860312156143e357600080fd5b83356143ee816142f1565b92506143fc602085016142d8565b915061440a604085016142d8565b90509250925092565b6000806040838503121561442657600080fd5b8235614431816142f1565b946020939093013593505050565b6000806040838503121561445257600080fd5b823561445d816142f1565b915061446b602084016142d8565b90509250929050565b60006020828403121561448657600080fd5b81356001600160e01b0319811681146143a257600080fd5b600080604083850312156144b157600080fd5b50508035926020909101359150565b600080604083850312156144d357600080fd5b8235915061446b602084016142d8565b6000806000806000608086880312156144fb57600080fd5b8535945060208601359350604086013567ffffffffffffffff8082111561452157600080fd5b818801915088601f83011261453557600080fd5b81358181111561454457600080fd5b89602082850101111561455657600080fd5b60208301955080945050505061456e606087016142d8565b90509295509295909350565b63ffffffff9290921682526001600160a01b0316602082015260400190565b6000602082840312156145ab57600080fd5b5051919050565b60208082526007908201526644414f3a20564960c81b604082015260600190565b6000602082840312156145e557600080fd5b81516143a2816142f1565b60006020828403121561460257600080fd5b815180151581146143a257600080fd5b60208082526028908201527f44414f436f6d6d69747465653a20696e76616c69642063616e6469646174652060408201526718dbdb9d1c9858dd60c21b606082015260800190565b634e487b7160e01b600052603260045260246000fd5b6020808252601190820152701b9bdd08195b9bdd59da08185b5bdd5b9d607a1b604082015260600190565b6020808252602e908201527f53746f726167655374617465436f6d6d697474656556323a20696e76616c696460408201526d1029b2b4b3a6b0b730b3b2b92b1960911b606082015260800190565b6020808252602e908201527f53746f726167655374617465436f6d6d697474656556323a20696e76616c696460408201526d102630bcb2b91926b0b730b3b2b960911b606082015260800190565b6020808252600790820152662220a79d1020a960c91b604082015260600190565b60208082526036908201527f53746f726167655374617465436f6d6d697474656556323a206d73672e73656e6040820152753232b9103737ba1039ba30b5b2a6b0b730b3b2b92b1960511b606082015260800190565b6001600160a01b03929092168252602082015260400190565b60208082526007908201526644414f3a204e4160c81b604082015260600190565b634e487b7160e01b600052601160045260246000fd5b81810381811115610b0957610b096147e8565b634e487b7160e01b600052603160045260246000fd5b60208082526007908201526644414f3a205a4160c81b604082015260600190565b60208082526007908201526644414f3a204d4560c81b604082015260600190565b60208082526007908201526644414f3a204e4360c81b604082015260600190565b60208082526007908201526644414f3a20494360c81b604082015260600190565b60208082526007908201526644414f3a20414d60c81b604082015260600190565b6020808252602c908201527f53746f726167655374617465436f6d6d69747465653a204167656e64614d616e60408201526b61676572206973207a65726f60a01b606082015260800190565b602080825260129082015271111053ce881b9bdd081c9959da5cdd195c9960721b604082015260600190565b60008060006060848603121561495957600080fd5b8351925060208401519150604084015190509250925092565b634e487b7160e01b600052602160045260246000fd5b828152604081016004831061499f5761499f614972565b8260208301529392505050565b828152604081016006831061499f5761499f614972565b83815260406020820152816040820152818360608301376000818301606090810191909152601f909201601f1916010192915050565b6020808252600790820152662220a79d102a2d60c91b604082015260600190565b8082028115828204841417610b0957610b096147e8565b80820180821115610b0957610b096147e8565b600060018201614a5657614a566147e8565b5060010190565b6000815180845260005b81811015614a8357602081850181015186830182015201614a67565b506000602082860101526020601f19601f83011685010191505092915050565b604081526000614ab66040830185614a5d565b90508260208301529392505050565b602081526000610b066020830184614a5d565b600082614af557634e487b7160e01b600052601260045260246000fd5b50049056fe6e65774d656d6265722056312c20707265764d656d6265722056322063616e646964617465663b98adf1afa777e36528b3293a057803f87ed00d2d2518dccfe5d7a6e99ccf6e65774d656d6265722056312c20707265764d656d6265722056322073657175656e636572a264697066735822122034bc3a6b398d76c6919ecccdaf71bffdaedf61dcd94395e5a3019a39b346401964736f6c63430008120033",
  "linkReferences": {},
  "deployedLinkReferences": {}
}