{
  "_format": "hh-sol-artifact-1",
  "contractName": "CandidateProxy",
  "sourceName": "contracts/proxy/CandidateProxy.sol",
  "abi": [
    {
      "inputs": [],
      "stateMutability": "nonpayable",
      "type": "constructor"
    },
    {
      "anonymous": false,
      "inputs": [
        {
          "indexed": true,
          "internalType": "bytes32",
          "name": "role",
          "type": "bytes32"
        },
        {
          "indexed": true,
          "internalType": "bytes32",
          "name": "previousAdminRole",
          "type": "bytes32"
        },
        {
          "indexed": true,
          "internalType": "bytes32",
          "name": "newAdminRole",
          "type": "bytes32"
        }
      ],
      "name": "RoleAdminChanged",
      "type": "event"
    },
    {
      "anonymous": false,
      "inputs": [
        {
          "indexed": true,
          "internalType": "bytes32",
          "name": "role",
          "type": "bytes32"
        },
        {
          "indexed": true,
          "internalType": "address",
          "name": "account",
          "type": "address"
        },
        {
          "indexed": true,
          "internalType": "address",
          "name": "sender",
          "type": "address"
        }
      ],
      "name": "RoleGranted",
      "type": "event"
    },
    {
      "anonymous": false,
      "inputs": [
        {
          "indexed": true,
          "internalType": "bytes32",
          "name": "role",
          "type": "bytes32"
        },
        {
          "indexed": true,
          "internalType": "address",
          "name": "account",
          "type": "address"
        },
        {
          "indexed": true,
          "internalType": "address",
          "name": "sender",
          "type": "address"
        }
      ],
      "name": "RoleRevoked",
      "type": "event"
    },
    {
      "anonymous": false,
      "inputs": [
        {
          "indexed": true,
          "internalType": "address",
          "name": "impl",
          "type": "address"
        },
        {
          "indexed": false,
          "internalType": "bool",
          "name": "alive",
          "type": "bool"
        }
      ],
      "name": "SetAliveImplementation",
      "type": "event"
    },
    {
      "anonymous": false,
      "inputs": [
        {
          "indexed": true,
          "internalType": "bytes4",
          "name": "selector",
          "type": "bytes4"
        },
        {
          "indexed": true,
          "internalType": "address",
          "name": "impl",
          "type": "address"
        }
      ],
      "name": "SetSelectorImplementation",
      "type": "event"
    },
    {
      "anonymous": false,
      "inputs": [
        {
          "indexed": true,
          "internalType": "address",
          "name": "implementation",
          "type": "address"
        }
      ],
      "name": "Upgraded",
      "type": "event"
    },
    {
      "stateMutability": "payable",
      "type": "fallback"
    },
    {
      "inputs": [],
      "name": "ADMIN_ROLE",
      "outputs": [
        {
          "internalType": "bytes32",
          "name": "",
          "type": "bytes32"
        }
      ],
      "stateMutability": "view",
      "type": "function"
    },
    {
      "inputs": [],
      "name": "BURNER_ROLE",
      "outputs": [
        {
          "internalType": "bytes32",
          "name": "",
          "type": "bytes32"
        }
      ],
      "stateMutability": "view",
      "type": "function"
    },
    {
      "inputs": [],
      "name": "DEFAULT_ADMIN_ROLE",
      "outputs": [
        {
          "internalType": "bytes32",
          "name": "",
          "type": "bytes32"
        }
      ],
      "stateMutability": "view",
      "type": "function"
    },
    {
      "inputs": [],
      "name": "MINTER_ROLE",
      "outputs": [
        {
          "internalType": "bytes32",
          "name": "",
          "type": "bytes32"
        }
      ],
      "stateMutability": "view",
      "type": "function"
    },
    {
      "inputs": [
        {
          "internalType": "address",
          "name": "account",
          "type": "address"
        }
      ],
      "name": "addAdmin",
      "outputs": [],
      "stateMutability": "nonpayable",
      "type": "function"
    },
    {
      "inputs": [
        {
          "internalType": "address",
          "name": "_owner",
          "type": "address"
        }
      ],
      "name": "addProxyAdmin",
      "outputs": [],
      "stateMutability": "nonpayable",
      "type": "function"
    },
    {
      "inputs": [
        {
          "internalType": "address",
          "name": "",
          "type": "address"
        }
      ],
      "name": "aliveImplementation",
      "outputs": [
        {
          "internalType": "bool",
          "name": "",
          "type": "bool"
        }
      ],
      "stateMutability": "view",
      "type": "function"
    },
    {
      "inputs": [],
      "name": "fwReceipt",
      "outputs": [
        {
          "internalType": "address",
          "name": "",
          "type": "address"
        }
      ],
      "stateMutability": "view",
      "type": "function"
    },
    {
      "inputs": [
        {
          "internalType": "bytes32",
          "name": "role",
          "type": "bytes32"
        }
      ],
      "name": "getRoleAdmin",
      "outputs": [
        {
          "internalType": "bytes32",
          "name": "",
          "type": "bytes32"
        }
      ],
      "stateMutability": "view",
      "type": "function"
    },
    {
      "inputs": [
        {
          "internalType": "bytes4",
          "name": "_selector",
          "type": "bytes4"
        }
      ],
      "name": "getSelectorImplementation2",
      "outputs": [
        {
          "internalType": "address",
          "name": "impl",
          "type": "address"
        }
      ],
      "stateMutability": "view",
      "type": "function"
    },
    {
      "inputs": [
        {
          "internalType": "bytes32",
          "name": "role",
          "type": "bytes32"
        },
        {
          "internalType": "address",
          "name": "account",
          "type": "address"
        }
      ],
      "name": "grantRole",
      "outputs": [],
      "stateMutability": "nonpayable",
      "type": "function"
    },
    {
      "inputs": [
        {
          "internalType": "bytes32",
          "name": "role",
          "type": "bytes32"
        },
        {
          "internalType": "address",
          "name": "account",
          "type": "address"
        }
      ],
      "name": "hasRole",
      "outputs": [
        {
          "internalType": "bool",
          "name": "",
          "type": "bool"
        }
      ],
      "stateMutability": "view",
      "type": "function"
    },
    {
      "inputs": [],
      "name": "implementation",
      "outputs": [
        {
          "internalType": "address",
          "name": "",
          "type": "address"
        }
      ],
      "stateMutability": "view",
      "type": "function"
    },
    {
      "inputs": [
        {
          "internalType": "uint256",
          "name": "_index",
          "type": "uint256"
        }
      ],
      "name": "implementation2",
      "outputs": [
        {
          "internalType": "address",
          "name": "",
          "type": "address"
        }
      ],
      "stateMutability": "view",
      "type": "function"
    },
    {
      "inputs": [
        {
          "internalType": "address",
          "name": "_ton",
          "type": "address"
        },
        {
          "internalType": "address",
          "name": "_seigManagerV2",
          "type": "address"
        },
        {
          "internalType": "address",
          "name": "_layer2Manager",
          "type": "address"
        },
        {
          "internalType": "address",
          "name": "_fwReceipt",
          "type": "address"
        }
      ],
      "name": "initialize",
      "outputs": [],
      "stateMutability": "nonpayable",
      "type": "function"
    },
    {
      "inputs": [
        {
          "internalType": "address",
          "name": "account",
          "type": "address"
        }
      ],
      "name": "isAdmin",
      "outputs": [
        {
          "internalType": "bool",
          "name": "",
          "type": "bool"
        }
      ],
      "stateMutability": "view",
      "type": "function"
    },
    {
      "inputs": [
        {
          "internalType": "address",
          "name": "account",
          "type": "address"
        }
      ],
      "name": "isProxyAdmin",
      "outputs": [
        {
          "internalType": "bool",
          "name": "",
          "type": "bool"
        }
      ],
      "stateMutability": "view",
      "type": "function"
    },
    {
      "inputs": [],
      "name": "layer2Manager",
      "outputs": [
        {
          "internalType": "address",
          "name": "",
          "type": "address"
        }
      ],
      "stateMutability": "view",
      "type": "function"
    },
    {
      "inputs": [
        {
          "internalType": "uint32",
          "name": "",
          "type": "uint32"
        }
      ],
      "name": "layerInfo",
      "outputs": [
        {
          "internalType": "bytes",
          "name": "",
          "type": "bytes"
        }
      ],
      "stateMutability": "view",
      "type": "function"
    },
    {
      "inputs": [
        {
          "internalType": "uint32",
          "name": "",
          "type": "uint32"
        }
      ],
      "name": "layerStakedLton",
      "outputs": [
        {
          "internalType": "uint256",
          "name": "",
          "type": "uint256"
        }
      ],
      "stateMutability": "view",
      "type": "function"
    },
    {
      "inputs": [
        {
          "internalType": "uint32",
          "name": "",
          "type": "uint32"
        },
        {
          "internalType": "address",
          "name": "",
          "type": "address"
        }
      ],
      "name": "layerStakes",
      "outputs": [
        {
          "internalType": "uint256",
          "name": "stakePrincipal",
          "type": "uint256"
        },
        {
          "internalType": "uint256",
          "name": "stakelton",
          "type": "uint256"
        },
        {
          "internalType": "bool",
          "name": "stake",
          "type": "bool"
        }
      ],
      "stateMutability": "view",
      "type": "function"
    },
    {
      "inputs": [
        {
          "internalType": "uint32",
          "name": "",
          "type": "uint32"
        },
        {
          "internalType": "address",
          "name": "",
          "type": "address"
        }
      ],
      "name": "operators",
      "outputs": [
        {
          "internalType": "uint32",
          "name": "",
          "type": "uint32"
        }
      ],
      "stateMutability": "view",
      "type": "function"
    },
    {
      "inputs": [],
      "name": "pauseProxy",
      "outputs": [
        {
          "internalType": "bool",
          "name": "",
          "type": "bool"
        }
      ],
      "stateMutability": "view",
      "type": "function"
    },
    {
      "inputs": [
        {
          "internalType": "uint32",
          "name": "",
          "type": "uint32"
        },
        {
          "internalType": "address",
          "name": "",
          "type": "address"
        }
      ],
      "name": "pendingUnstaked",
      "outputs": [
        {
          "internalType": "uint256",
          "name": "",
          "type": "uint256"
        }
      ],
      "stateMutability": "view",
      "type": "function"
    },
    {
      "inputs": [
        {
          "internalType": "address",
          "name": "",
          "type": "address"
        }
      ],
      "name": "pendingUnstakedAccount",
      "outputs": [
        {
          "internalType": "uint256",
          "name": "",
          "type": "uint256"
        }
      ],
      "stateMutability": "view",
      "type": "function"
    },
    {
      "inputs": [
        {
          "internalType": "uint32",
          "name": "",
          "type": "uint32"
        }
      ],
      "name": "pendingUnstakedLayer2",
      "outputs": [
        {
          "internalType": "uint256",
          "name": "",
          "type": "uint256"
        }
      ],
      "stateMutability": "view",
      "type": "function"
    },
    {
      "inputs": [
        {
          "internalType": "uint256",
          "name": "",
          "type": "uint256"
        }
      ],
      "name": "proxyImplementation",
      "outputs": [
        {
          "internalType": "address",
          "name": "",
          "type": "address"
        }
      ],
      "stateMutability": "view",
      "type": "function"
    },
    {
      "inputs": [],
      "name": "removeAdmin",
      "outputs": [],
      "stateMutability": "nonpayable",
      "type": "function"
    },
    {
      "inputs": [],
      "name": "removeProxyAdmin",
      "outputs": [],
      "stateMutability": "nonpayable",
      "type": "function"
    },
    {
      "inputs": [
        {
          "internalType": "bytes32",
          "name": "role",
          "type": "bytes32"
        },
        {
          "internalType": "address",
          "name": "account",
          "type": "address"
        }
      ],
      "name": "renounceRole",
      "outputs": [],
      "stateMutability": "nonpayable",
      "type": "function"
    },
    {
      "inputs": [
        {
          "internalType": "bytes32",
          "name": "role",
          "type": "bytes32"
        },
        {
          "internalType": "address",
          "name": "account",
          "type": "address"
        }
      ],
      "name": "revokeRole",
      "outputs": [],
      "stateMutability": "nonpayable",
      "type": "function"
    },
    {
      "inputs": [],
      "name": "seigManagerV2",
      "outputs": [
        {
          "internalType": "address",
          "name": "",
          "type": "address"
        }
      ],
      "stateMutability": "view",
      "type": "function"
    },
    {
      "inputs": [
        {
          "internalType": "bytes4",
          "name": "",
          "type": "bytes4"
        }
      ],
      "name": "selectorImplementation",
      "outputs": [
        {
          "internalType": "address",
          "name": "",
          "type": "address"
        }
      ],
      "stateMutability": "view",
      "type": "function"
    },
    {
      "inputs": [
        {
          "internalType": "address",
          "name": "newImplementation",
          "type": "address"
        },
        {
          "internalType": "bool",
          "name": "_alive",
          "type": "bool"
        }
      ],
      "name": "setAliveImplementation2",
      "outputs": [],
      "stateMutability": "nonpayable",
      "type": "function"
    },
    {
      "inputs": [
        {
          "internalType": "address",
          "name": "newImplementation",
          "type": "address"
        },
        {
          "internalType": "uint256",
          "name": "_index",
          "type": "uint256"
        },
        {
          "internalType": "bool",
          "name": "_alive",
          "type": "bool"
        }
      ],
      "name": "setImplementation2",
      "outputs": [],
      "stateMutability": "nonpayable",
      "type": "function"
    },
    {
      "inputs": [
        {
          "internalType": "bool",
          "name": "_pause",
          "type": "bool"
        }
      ],
      "name": "setProxyPause",
      "outputs": [],
      "stateMutability": "nonpayable",
      "type": "function"
    },
    {
      "inputs": [
        {
          "internalType": "bytes4[]",
          "name": "_selectors",
          "type": "bytes4[]"
        },
        {
          "internalType": "address",
          "name": "_imp",
          "type": "address"
        }
      ],
      "name": "setSelectorImplementations2",
      "outputs": [],
      "stateMutability": "nonpayable",
      "type": "function"
    },
    {
      "inputs": [
        {
          "internalType": "uint256",
          "name": "",
          "type": "uint256"
        }
      ],
      "name": "stakeAccountList",
      "outputs": [
        {
          "internalType": "address",
          "name": "",
          "type": "address"
        }
      ],
      "stateMutability": "view",
      "type": "function"
    },
    {
      "inputs": [
        {
          "internalType": "bytes4",
          "name": "interfaceId",
          "type": "bytes4"
        }
      ],
      "name": "supportsInterface",
      "outputs": [
        {
          "internalType": "bool",
          "name": "",
          "type": "bool"
        }
      ],
      "stateMutability": "view",
      "type": "function"
    },
    {
      "inputs": [],
      "name": "ton",
      "outputs": [
        {
          "internalType": "address",
          "name": "",
          "type": "address"
        }
      ],
      "stateMutability": "view",
      "type": "function"
    },
    {
      "inputs": [
        {
          "internalType": "address",
          "name": "newAdmin",
          "type": "address"
        }
      ],
      "name": "transferAdmin",
      "outputs": [],
      "stateMutability": "nonpayable",
      "type": "function"
    },
    {
      "inputs": [
        {
          "internalType": "address",
          "name": "newAdmin",
          "type": "address"
        }
      ],
      "name": "transferProxyAdmin",
      "outputs": [],
      "stateMutability": "nonpayable",
      "type": "function"
    },
    {
      "inputs": [
        {
          "internalType": "address",
          "name": "impl",
          "type": "address"
        }
      ],
      "name": "upgradeTo",
      "outputs": [],
      "stateMutability": "nonpayable",
      "type": "function"
    },
    {
      "inputs": [
        {
          "internalType": "uint32",
          "name": "",
          "type": "uint32"
        },
        {
          "internalType": "address",
          "name": "",
          "type": "address"
        }
      ],
      "name": "withdrawalRequestIndex",
      "outputs": [
        {
          "internalType": "uint256",
          "name": "",
          "type": "uint256"
        }
      ],
      "stateMutability": "view",
      "type": "function"
    },
    {
      "inputs": [
        {
          "internalType": "uint32",
          "name": "",
          "type": "uint32"
        },
        {
          "internalType": "address",
          "name": "",
          "type": "address"
        },
        {
          "internalType": "uint256",
          "name": "",
          "type": "uint256"
        }
      ],
      "name": "withdrawalRequests",
      "outputs": [
        {
          "internalType": "uint32",
          "name": "withdrawableBlockNumber",
          "type": "uint32"
        },
        {
          "internalType": "uint128",
          "name": "amount",
          "type": "uint128"
        },
        {
          "internalType": "bool",
          "name": "processed",
          "type": "bool"
        }
      ],
      "stateMutability": "view",
      "type": "function"
    },
    {
      "stateMutability": "payable",
      "type": "receive"
    }
  ],
  "bytecode": "0x60806040526006805460ff191660011790553480156200001e57600080fd5b506200003a600080516020620021cb8339815191528062000068565b62000055600080516020620021cb83398151915233620000b3565b62000062600033620000b3565b62000163565b600082815260208190526040808220600101805490849055905190918391839186917fbd79b86ffe0ab8e8776151514217cd7cacd52c909f66475c3af44e129f0b00ff9190a4505050565b620000bf8282620000c3565b5050565b6000828152602081815260408083206001600160a01b038516845290915290205460ff16620000bf576000828152602081815260408083206001600160a01b03851684529091529020805460ff191660011790556200011f3390565b6001600160a01b0316816001600160a01b0316837f2f8788117e7eff1d82e926ec794901d17c78024a50270940304540a733656f0d60405160405180910390a45050565b61205880620001736000396000f3fe6080604052600436106102765760003560e01c80637cb00d251161014f578063a217fddf116100c1578063d53913931161007a578063d5391393146108ae578063d547741f146108e2578063ec110d4514610902578063f47f2f1d14610922578063f8c8765e14610942578063fde48197146109625761027d565b8063a217fddf146107dc578063b911135f146107f1578063b9cab97114610827578063be72f2d314610854578063cc48b94714610869578063d07918f11461088e5761027d565b80638d4fdb40116101135780638d4fdb40146106d357806391d14854146106f357806396f1557c146107135780639a202d47146107335780639c656e2614610748578063a0b2a913146107af5761027d565b80637cb00d251461061b5780637cd5f6631461063b5780637cf1587c1461065b5780638356ca4f146106935780638b8f4a65146106b35761027d565b80635c60da1b116101e85780636d1ef103116101ac5780636d1ef10314610520578063704802751461056c57806370619cf91461058c57806373469a7a146105b957806375829def146105d957806375b238fc146105f95761027d565b80635c60da1b1461046c5780635cc797d8146104815780635e2cfe45146104a157806363a8fd89146104d9578063659ab820146104f35761027d565b80632f2ff15d1161023a5780632f2ff15d1461038657806336568abe146103a65780633659cfe6146103c65780634a5df50f146103e657806350d2a27614610406578063550d01a31461043c5761027d565b806301ffc9a71461028757806316b5d5bd146102bc578063248a9ca3146102f457806324d7806c14610332578063282c51f3146103525761027d565b3661027d57005b6102856109b5565b005b34801561029357600080fd5b506102a76102a2366004611abc565b610a63565b60405190151581526020015b60405180910390f35b3480156102c857600080fd5b506008546102dc906001600160a01b031681565b6040516001600160a01b0390911681526020016102b3565b34801561030057600080fd5b5061032461030f366004611ae6565b60009081526020819052604090206001015490565b6040519081526020016102b3565b34801561033e57600080fd5b506102a761034d366004611b16565b610a95565b34801561035e57600080fd5b506103247f9667e80708b6eeeb0053fa0cca44e028ff548e2a9f029edfeac87c118b08b7c881565b34801561039257600080fd5b506102856103a1366004611b31565b610aaf565b3480156103b257600080fd5b506102856103c1366004611b31565b610ad4565b3480156103d257600080fd5b506102856103e1366004611b16565b610b52565b3480156103f257600080fd5b50610285610401366004611b5d565b610c66565b34801561041257600080fd5b506102dc610421366004611abc565b6004602052600090815260409020546001600160a01b031681565b34801561044857600080fd5b506102a7610457366004611b16565b60036020526000908152604090205460ff1681565b34801561047857600080fd5b506102dc610ed2565b34801561048d57600080fd5b5061028561049c366004611bf1565b610ee3565b3480156104ad57600080fd5b506103246104bc366004611c2f565b601360209081526000928352604080842090915290825290205481565b3480156104e557600080fd5b506001546102a79060ff1681565b3480156104ff57600080fd5b5061051361050e366004611c59565b610f21565b6040516102b39190611cc4565b34801561052c57600080fd5b5061054061053b366004611cd7565b610fbb565b6040805163ffffffff90941684526001600160801b0390921660208401521515908201526060016102b3565b34801561057857600080fd5b50610285610587366004611b16565b61101a565b34801561059857600080fd5b506103246105a7366004611c59565b600d6020526000908152604090205481565b3480156105c557600080fd5b506007546102dc906001600160a01b031681565b3480156105e557600080fd5b506102856105f4366004611b16565b61105a565b34801561060557600080fd5b5061032460008051602061200383398151915281565b34801561062757600080fd5b50610285610636366004611d13565b61110c565b34801561064757600080fd5b50610285610656366004611d2e565b611153565b34801561066757600080fd5b50610324610676366004611c2f565b601260209081526000928352604080842090915290825290205481565b34801561069f57600080fd5b506102856106ae366004611b16565b611192565b3480156106bf57600080fd5b506102dc6106ce366004611ae6565b61121b565b3480156106df57600080fd5b506102dc6106ee366004611abc565b611226565b3480156106ff57600080fd5b506102a761070e366004611b31565b611322565b34801561071f57600080fd5b5061028561072e366004611b16565b61134b565b34801561073f57600080fd5b5061028561137b565b34801561075457600080fd5b50610792610763366004611c2f565b600f60209081526000928352604080842090915290825290208054600182015460029092015490919060ff1683565b6040805193845260208401929092521515908201526060016102b3565b3480156107bb57600080fd5b506103246107ca366004611b16565b60156020526000908152604090205481565b3480156107e857600080fd5b50610324600081565b3480156107fd57600080fd5b506102dc61080c366004611ae6565b6002602052600090815260409020546001600160a01b031681565b34801561083357600080fd5b50610324610842366004611c59565b60146020526000908152604090205481565b34801561086057600080fd5b506102856113c9565b34801561087557600080fd5b506006546102dc9061010090046001600160a01b031681565b34801561089a57600080fd5b506009546102dc906001600160a01b031681565b3480156108ba57600080fd5b506103247ff0887ba65ee2024ea881d91b74c2450ef19e1557f03bed3ea9f16b037cbe2dc981565b3480156108ee57600080fd5b506102856108fd366004611b31565b6113f9565b34801561090e57600080fd5b506102dc61091d366004611ae6565b61141e565b34801561092e57600080fd5b506102a761093d366004611b16565b611448565b34801561094e57600080fd5b5061028561095d366004611d61565b611454565b34801561096e57600080fd5b506109a061097d366004611c2f565b601860209081526000928352604080842090915290825290205463ffffffff1681565b60405163ffffffff90911681526020016102b3565b60006109cc6000356001600160e01b031916611226565b90506001600160a01b038116158015906109e9575060015460ff16155b610a3a5760405162461bcd60e51b815260206004820152601d60248201527f50726f78793a20696d706c204f522070726f78792069732066616c736500000060448201526064015b60405180910390fd5b3660008037600080366000845af43d6000803e808015610a59573d6000f35b3d6000fd5b505050565b6001600160e01b0319811660009081526005602052604081205460ff1680610a8f5750610a8f826115f8565b92915050565b6000610a8f60008051602061200383398151915283611322565b600082815260208190526040902060010154610aca8161162d565b610a5e8383611637565b6001600160a01b0381163314610b445760405162461bcd60e51b815260206004820152602f60248201527f416363657373436f6e74726f6c3a2063616e206f6e6c792072656e6f756e636560448201526e103937b632b9903337b91039b2b63360891b6064820152608401610a31565b610b4e82826116bb565b5050565b610b5b33610a95565b80610b6a5750610b6a33611448565b610b865760405162461bcd60e51b8152600401610a3190611db5565b6001600160a01b038116610bcc5760405162461bcd60e51b815260206004820152600d60248201526c696e707574206973207a65726f60981b6044820152606401610a31565b806001600160a01b0316610be06000611720565b6001600160a01b031603610c225760405162461bcd60e51b815260206004820152600960248201526839b0b6b29030b2323960b91b6044820152606401610a31565b610c2f816000600161173b565b6040516001600160a01b038216907fbc7cd75a20ee27fd9adebab32041f755214dbc6bffa90cc0225b39da2e5c2d3b90600090a250565b610c6f33610a95565b80610c7e5750610c7e33611448565b610c9a5760405162461bcd60e51b8152600401610a3190611db5565b81610ce75760405162461bcd60e51b815260206004820181905260248201527f50726f78793a205f73656c6563746f727327732073697a65206973207a65726f6044820152606401610a31565b6001600160a01b03811660009081526003602052604090205460ff16610d4a5760405162461bcd60e51b815260206004820152601860248201527750726f78793a205f696d70206973206e6f7420616c69766560401b6044820152606401610a31565b60005b82811015610ecc57816001600160a01b031660046000868685818110610d7557610d75611df7565b9050602002016020810190610d8a9190611abc565b6001600160e01b03191681526020810191909152604001600020546001600160a01b031603610dfb5760405162461bcd60e51b815260206004820152601d60248201527f4c69717569646974795661756c7450726f78793a2073616d6520696d700000006044820152606401610a31565b8160046000868685818110610e1257610e12611df7565b9050602002016020810190610e279190611abc565b6001600160e01b0319168152602081019190915260400160002080546001600160a01b0319166001600160a01b039283161790558216848483818110610e6f57610e6f611df7565b9050602002016020810190610e849190611abc565b6001600160e01b0319167f14ebc1c32aa68f4d766e89f3e546cee249f7df25183fc10ab1568d91c2ce9b7b60405160405180910390a380610ec481611e23565b915050610d4d565b50505050565b6000610ede6000611720565b905090565b610eec33610a95565b80610efb5750610efb33611448565b610f175760405162461bcd60e51b8152600401610a3190611db5565b610b4e82826117c6565b60166020526000908152604090208054610f3a90611e3c565b80601f0160208091040260200160405190810160405280929190818152602001828054610f6690611e3c565b8015610fb35780601f10610f8857610100808354040283529160200191610fb3565b820191906000526020600020905b815481529060010190602001808311610f9657829003601f168201915b505050505081565b60116020528260005260406000206020528160005260406000208181548110610fe357600080fd5b60009182526020909120015463ffffffff8116935064010000000081046001600160801b03169250600160a01b900460ff16905083565b61102333611448565b61103f5760405162461bcd60e51b8152600401610a3190611e76565b61105760008051602061200383398151915282610aaf565b50565b61106333610a95565b80611072575061107233611448565b61108e5760405162461bcd60e51b8152600401610a3190611db5565b6001600160a01b0381166110b45760405162461bcd60e51b8152600401610a3190611ebe565b6001600160a01b03811633036110dc5760405162461bcd60e51b8152600401610a3190611ef0565b6110f460008051602061200383398151915282610aaf565b61105760008051602061200383398151915233610ad4565b61111533610a95565b80611124575061112433611448565b6111405760405162461bcd60e51b8152600401610a3190611db5565b6001805460ff1916911515919091179055565b61115c33610a95565b8061116b575061116b33611448565b6111875760405162461bcd60e51b8152600401610a3190611db5565b610a5e83838361173b565b61119b33611448565b6111b75760405162461bcd60e51b8152600401610a3190611e76565b6001600160a01b0381166111dd5760405162461bcd60e51b8152600401610a3190611ebe565b6001600160a01b03811633036112055760405162461bcd60e51b8152600401610a3190611ef0565b611210600082610aaf565b611057600033610ad4565b6000610a8f82611720565b6001600160e01b031981166000908152600460205260408120546001600160a01b03166112865750506000805260026020527fac33ff75c19e70fe83507db0d683fd3465c996598dc972688b7ace676c89077b546001600160a01b031690565b6001600160e01b031982166000908152600460209081526040808320546001600160a01b03168352600390915290205460ff16156112e457506001600160e01b0319166000908152600460205260409020546001600160a01b031690565b50506000805260026020527fac33ff75c19e70fe83507db0d683fd3465c996598dc972688b7ace676c89077b546001600160a01b031690565b919050565b6000918252602082815260408084206001600160a01b0393909316845291905290205460ff1690565b61135433611448565b6113705760405162461bcd60e51b8152600401610a3190611e76565b611057600082611825565b61138433610a95565b80611393575061139333611448565b6113af5760405162461bcd60e51b8152600401610a3190611db5565b6113c760008051602061200383398151915233610ad4565b565b6113d233611448565b6113ee5760405162461bcd60e51b8152600401610a3190611e76565b6113c7600033610ad4565b6000828152602081905260409020600101546114148161162d565b610a5e83836116bb565b6017818154811061142e57600080fd5b6000918252602090912001546001600160a01b0316905081565b6000610a8f8183611322565b61145d33610a95565b8061146c575061146c33611448565b6114885760405162461bcd60e51b8152600401610a3190611db5565b836001600160a01b0381166114af5760405162461bcd60e51b8152600401610a3190611f20565b836001600160a01b0381166114d65760405162461bcd60e51b8152600401610a3190611f20565b836001600160a01b0381166114fd5760405162461bcd60e51b8152600401610a3190611f20565b836001600160a01b0381166115245760405162461bcd60e51b8152600401610a3190611f20565b60065461010090046001600160a01b0316156115775760405162461bcd60e51b8152602060048201526012602482015271616c726561647920696e697469616c697a6560701b6044820152606401610a31565b600780546001600160a01b03199081166001600160a01b038a81169190911790925560068054610100600160a81b0319166101008c851602179055600880548216898416179055600980549091169187169190911790556115de632139e50b60e11b61182f565b6115ee6301ffc9a760e01b61182f565b5050505050505050565b60006001600160e01b03198216637965db0b60e01b1480610a8f57506301ffc9a760e01b6001600160e01b0319831614610a8f565b61105781336118ae565b6116418282611322565b610b4e576000828152602081815260408083206001600160a01b03851684529091529020805460ff191660011790556116773390565b6001600160a01b0316816001600160a01b0316837f2f8788117e7eff1d82e926ec794901d17c78024a50270940304540a733656f0d60405160405180910390a45050565b6116c58282611322565b15610b4e576000828152602081815260408083206001600160a01b0385168085529252808320805460ff1916905551339285917ff6391f5c32d9c69d2a47ea670b442974b53935d1edc7fd64eb21e047a839171b9190a45050565b6000908152600260205260409020546001600160a01b031690565b6001600160a01b0383163b6117925760405162461bcd60e51b815260206004820152601b60248201527f50726f78793a206e6f7420636f6e7472616374206164647265737300000000006044820152606401610a31565b80156117c057600082815260026020526040902080546001600160a01b0319166001600160a01b0385161790555b610a5e83825b6001600160a01b038216600081815260036020908152604091829020805460ff191685151590811790915591519182527f72558d9bfba4210f9ef095c782589484151f6d90f7a81bb3cb9b33efc695d324910160405180910390a25050565b610b4e8282611637565b6001600160e01b031980821690036118895760405162461bcd60e51b815260206004820152601c60248201527f4552433136353a20696e76616c696420696e74657266616365206964000000006044820152606401610a31565b6001600160e01b0319166000908152600560205260409020805460ff19166001179055565b6118b88282611322565b610b4e576118c581611907565b6118d0836020611919565b6040516020016118e1929190611f3c565b60408051601f198184030181529082905262461bcd60e51b8252610a3191600401611cc4565b6060610a8f6001600160a01b03831660145b60606000611928836002611fab565b611933906002611fc2565b67ffffffffffffffff81111561194b5761194b611fd5565b6040519080825280601f01601f191660200182016040528015611975576020820181803683370190505b509050600360fc1b8160008151811061199057611990611df7565b60200101906001600160f81b031916908160001a905350600f60fb1b816001815181106119bf576119bf611df7565b60200101906001600160f81b031916908160001a90535060006119e3846002611fab565b6119ee906001611fc2565b90505b6001811115611a66576f181899199a1a9b1b9c1cb0b131b232b360811b85600f1660108110611a2257611a22611df7565b1a60f81b828281518110611a3857611a38611df7565b60200101906001600160f81b031916908160001a90535060049490941c93611a5f81611feb565b90506119f1565b508315611ab55760405162461bcd60e51b815260206004820181905260248201527f537472696e67733a20686578206c656e67746820696e73756666696369656e746044820152606401610a31565b9392505050565b600060208284031215611ace57600080fd5b81356001600160e01b031981168114611ab557600080fd5b600060208284031215611af857600080fd5b5035919050565b80356001600160a01b038116811461131d57600080fd5b600060208284031215611b2857600080fd5b611ab582611aff565b60008060408385031215611b4457600080fd5b82359150611b5460208401611aff565b90509250929050565b600080600060408486031215611b7257600080fd5b833567ffffffffffffffff80821115611b8a57600080fd5b818601915086601f830112611b9e57600080fd5b813581811115611bad57600080fd5b8760208260051b8501011115611bc257600080fd5b602092830195509350611bd89186019050611aff565b90509250925092565b8035801515811461131d57600080fd5b60008060408385031215611c0457600080fd5b611c0d83611aff565b9150611b5460208401611be1565b803563ffffffff8116811461131d57600080fd5b60008060408385031215611c4257600080fd5b611c4b83611c1b565b9150611b5460208401611aff565b600060208284031215611c6b57600080fd5b611ab582611c1b565b60005b83811015611c8f578181015183820152602001611c77565b50506000910152565b60008151808452611cb0816020860160208601611c74565b601f01601f19169290920160200192915050565b602081526000611ab56020830184611c98565b600080600060608486031215611cec57600080fd5b611cf584611c1b565b9250611d0360208501611aff565b9150604084013590509250925092565b600060208284031215611d2557600080fd5b611ab582611be1565b600080600060608486031215611d4357600080fd5b611d4c84611aff565b925060208401359150611bd860408501611be1565b60008060008060808587031215611d7757600080fd5b611d8085611aff565b9350611d8e60208601611aff565b9250611d9c60408601611aff565b9150611daa60608601611aff565b905092959194509250565b60208082526022908201527f41636365737369626c653a2043616c6c6572206973206e6f7420616e2061646d60408201526134b760f11b606082015260800190565b634e487b7160e01b600052603260045260246000fd5b634e487b7160e01b600052601160045260246000fd5b600060018201611e3557611e35611e0d565b5060010190565b600181811c90821680611e5057607f821691505b602082108103611e7057634e487b7160e01b600052602260045260246000fd5b50919050565b60208082526028908201527f41636365737369626c653a2043616c6c6572206973206e6f7420616e2070726f6040820152673c3c9030b236b4b760c11b606082015260800190565b60208082526018908201527741636365737369626c653a207a65726f206164647265737360401b604082015260600190565b60208082526016908201527520b1b1b2b9b9b4b136329d1039b0b6b29030b236b4b760511b604082015260600190565b6020808252600290820152612d1960f11b604082015260600190565b76020b1b1b2b9b9a1b7b73a3937b61d1030b1b1b7bab73a1604d1b815260008351611f6e816017850160208801611c74565b7001034b99036b4b9b9b4b733903937b6329607d1b6017918401918201528351611f9f816028840160208801611c74565b01602801949350505050565b8082028115828204841417610a8f57610a8f611e0d565b80820180821115610a8f57610a8f611e0d565b634e487b7160e01b600052604160045260246000fd5b600081611ffa57611ffa611e0d565b50600019019056fedf8b4c520ffe197c5343c6f5aec59570151ef9a492f2c624fd45ddde6135ec42a2646970667358221220dd3bf61e19af2c9eb410764a9a56feb463e4ae2efe5abe1b62401e52addb509764736f6c63430008120033df8b4c520ffe197c5343c6f5aec59570151ef9a492f2c624fd45ddde6135ec42",
  "linkReferences": {},
  "deployedLinkReferences": {}
}