{
  "_format": "hh-sol-artifact-1",
  "contractName": "DAOAgendaManager",
  "sourceName": "contracts/test/DAOAgendaManager.sol",
  "abi": [
    {
      "inputs": [],
      "stateMutability": "nonpayable",
      "type": "constructor"
    },
    {
      "anonymous": false,
      "inputs": [
        {
          "indexed": true,
          "internalType": "uint256",
          "name": "agendaID",
          "type": "uint256"
        },
        {
          "indexed": false,
          "internalType": "uint256",
          "name": "result",
          "type": "uint256"
        }
      ],
      "name": "AgendaResultChanged",
      "type": "event"
    },
    {
      "anonymous": false,
      "inputs": [
        {
          "indexed": true,
          "internalType": "uint256",
          "name": "agendaID",
          "type": "uint256"
        },
        {
          "indexed": false,
          "internalType": "uint256",
          "name": "prevStatus",
          "type": "uint256"
        },
        {
          "indexed": false,
          "internalType": "uint256",
          "name": "newStatus",
          "type": "uint256"
        }
      ],
      "name": "AgendaStatusChanged",
      "type": "event"
    },
    {
      "anonymous": false,
      "inputs": [
        {
          "indexed": false,
          "internalType": "uint256",
          "name": "newFee",
          "type": "uint256"
        }
      ],
      "name": "CreatingAgendaFeeChanged",
      "type": "event"
    },
    {
      "anonymous": false,
      "inputs": [
        {
          "indexed": false,
          "internalType": "uint256",
          "name": "newPeriod",
          "type": "uint256"
        }
      ],
      "name": "ExecutingPeriodChanged",
      "type": "event"
    },
    {
      "anonymous": false,
      "inputs": [
        {
          "indexed": false,
          "internalType": "uint256",
          "name": "newPeriod",
          "type": "uint256"
        }
      ],
      "name": "MinimumNoticePeriodChanged",
      "type": "event"
    },
    {
      "anonymous": false,
      "inputs": [
        {
          "indexed": false,
          "internalType": "uint256",
          "name": "newPeriod",
          "type": "uint256"
        }
      ],
      "name": "MinimumVotingPeriodChanged",
      "type": "event"
    },
    {
      "anonymous": false,
      "inputs": [
        {
          "indexed": true,
          "internalType": "address",
          "name": "previousOwner",
          "type": "address"
        },
        {
          "indexed": true,
          "internalType": "address",
          "name": "newOwner",
          "type": "address"
        }
      ],
      "name": "OwnershipTransferred",
      "type": "event"
    },
    {
      "inputs": [
        {
          "internalType": "uint256",
          "name": "_index",
          "type": "uint256"
        }
      ],
      "name": "agendas",
      "outputs": [
        {
          "components": [
            {
              "internalType": "uint256",
              "name": "createdTimestamp",
              "type": "uint256"
            },
            {
              "internalType": "uint256",
              "name": "noticeEndTimestamp",
              "type": "uint256"
            },
            {
              "internalType": "uint256",
              "name": "votingPeriodInSeconds",
              "type": "uint256"
            },
            {
              "internalType": "uint256",
              "name": "votingStartedTimestamp",
              "type": "uint256"
            },
            {
              "internalType": "uint256",
              "name": "votingEndTimestamp",
              "type": "uint256"
            },
            {
              "internalType": "uint256",
              "name": "executableLimitTimestamp",
              "type": "uint256"
            },
            {
              "internalType": "uint256",
              "name": "executedTimestamp",
              "type": "uint256"
            },
            {
              "internalType": "uint256",
              "name": "countingYes",
              "type": "uint256"
            },
            {
              "internalType": "uint256",
              "name": "countingNo",
              "type": "uint256"
            },
            {
              "internalType": "uint256",
              "name": "countingAbstain",
              "type": "uint256"
            },
            {
              "internalType": "enum LibAgenda.AgendaStatus",
              "name": "status",
              "type": "uint8"
            },
            {
              "internalType": "enum LibAgenda.AgendaResult",
              "name": "result",
              "type": "uint8"
            },
            {
              "internalType": "address[]",
              "name": "voters",
              "type": "address[]"
            },
            {
              "internalType": "bool",
              "name": "executed",
              "type": "bool"
            }
          ],
          "internalType": "struct LibAgenda.Agenda",
          "name": "",
          "type": "tuple"
        }
      ],
      "stateMutability": "view",
      "type": "function"
    },
    {
      "inputs": [
        {
          "internalType": "uint256",
          "name": "_agendaID",
          "type": "uint256"
        }
      ],
      "name": "canExecuteAgenda",
      "outputs": [
        {
          "internalType": "bool",
          "name": "",
          "type": "bool"
        }
      ],
      "stateMutability": "view",
      "type": "function"
    },
    {
      "inputs": [
        {
          "internalType": "uint256",
          "name": "_agendaID",
          "type": "uint256"
        },
        {
          "internalType": "address",
          "name": "_voter",
          "type": "address"
        },
        {
          "internalType": "uint256",
          "name": "_vote",
          "type": "uint256"
        }
      ],
      "name": "castVote",
      "outputs": [
        {
          "internalType": "bool",
          "name": "",
          "type": "bool"
        }
      ],
      "stateMutability": "nonpayable",
      "type": "function"
    },
    {
      "inputs": [],
      "name": "committee",
      "outputs": [
        {
          "internalType": "contract IDAOCommittee",
          "name": "",
          "type": "address"
        }
      ],
      "stateMutability": "view",
      "type": "function"
    },
    {
      "inputs": [],
      "name": "createAgendaFees",
      "outputs": [
        {
          "internalType": "uint256",
          "name": "",
          "type": "uint256"
        }
      ],
      "stateMutability": "view",
      "type": "function"
    },
    {
      "inputs": [
        {
          "internalType": "uint256",
          "name": "_agendaID",
          "type": "uint256"
        }
      ],
      "name": "endAgendaVoting",
      "outputs": [],
      "stateMutability": "nonpayable",
      "type": "function"
    },
    {
      "inputs": [],
      "name": "executingPeriodSeconds",
      "outputs": [
        {
          "internalType": "uint256",
          "name": "",
          "type": "uint256"
        }
      ],
      "stateMutability": "view",
      "type": "function"
    },
    {
      "inputs": [
        {
          "internalType": "uint256",
          "name": "_agendaID",
          "type": "uint256"
        }
      ],
      "name": "getAgendaNoticeEndTimeSeconds",
      "outputs": [
        {
          "internalType": "uint256",
          "name": "",
          "type": "uint256"
        }
      ],
      "stateMutability": "view",
      "type": "function"
    },
    {
      "inputs": [
        {
          "internalType": "uint256",
          "name": "_agendaID",
          "type": "uint256"
        }
      ],
      "name": "getAgendaResult",
      "outputs": [
        {
          "internalType": "uint256",
          "name": "result",
          "type": "uint256"
        },
        {
          "internalType": "bool",
          "name": "executed",
          "type": "bool"
        }
      ],
      "stateMutability": "view",
      "type": "function"
    },
    {
      "inputs": [
        {
          "internalType": "uint256",
          "name": "_agendaID",
          "type": "uint256"
        }
      ],
      "name": "getAgendaStatus",
      "outputs": [
        {
          "internalType": "uint256",
          "name": "status",
          "type": "uint256"
        }
      ],
      "stateMutability": "view",
      "type": "function"
    },
    {
      "inputs": [
        {
          "internalType": "uint256",
          "name": "_agendaID",
          "type": "uint256"
        }
      ],
      "name": "getAgendaTimestamps",
      "outputs": [
        {
          "internalType": "uint256",
          "name": "createdTimestamp",
          "type": "uint256"
        },
        {
          "internalType": "uint256",
          "name": "noticeEndTimestamp",
          "type": "uint256"
        },
        {
          "internalType": "uint256",
          "name": "votingStartedTimestamp",
          "type": "uint256"
        },
        {
          "internalType": "uint256",
          "name": "votingEndTimestamp",
          "type": "uint256"
        },
        {
          "internalType": "uint256",
          "name": "executedTimestamp",
          "type": "uint256"
        }
      ],
      "stateMutability": "view",
      "type": "function"
    },
    {
      "inputs": [
        {
          "internalType": "uint256",
          "name": "_agendaID",
          "type": "uint256"
        }
      ],
      "name": "getAgendaVotingEndTimeSeconds",
      "outputs": [
        {
          "internalType": "uint256",
          "name": "",
          "type": "uint256"
        }
      ],
      "stateMutability": "view",
      "type": "function"
    },
    {
      "inputs": [
        {
          "internalType": "uint256",
          "name": "_agendaID",
          "type": "uint256"
        }
      ],
      "name": "getAgendaVotingStartTimeSeconds",
      "outputs": [
        {
          "internalType": "uint256",
          "name": "",
          "type": "uint256"
        }
      ],
      "stateMutability": "view",
      "type": "function"
    },
    {
      "inputs": [
        {
          "internalType": "uint256",
          "name": "_agendaID",
          "type": "uint256"
        }
      ],
      "name": "getExecutionInfo",
      "outputs": [
        {
          "internalType": "address[]",
          "name": "target",
          "type": "address[]"
        },
        {
          "internalType": "bytes[]",
          "name": "functionBytecode",
          "type": "bytes[]"
        },
        {
          "internalType": "bool",
          "name": "atomicExecute",
          "type": "bool"
        },
        {
          "internalType": "uint256",
          "name": "executeStartFrom",
          "type": "uint256"
        }
      ],
      "stateMutability": "view",
      "type": "function"
    },
    {
      "inputs": [
        {
          "internalType": "uint256",
          "name": "_status",
          "type": "uint256"
        }
      ],
      "name": "getStatus",
      "outputs": [
        {
          "internalType": "enum LibAgenda.AgendaStatus",
          "name": "emnustatus",
          "type": "uint8"
        }
      ],
      "stateMutability": "pure",
      "type": "function"
    },
    {
      "inputs": [
        {
          "internalType": "uint256",
          "name": "_agendaID",
          "type": "uint256"
        },
        {
          "internalType": "address",
          "name": "_user",
          "type": "address"
        }
      ],
      "name": "getVoteStatus",
      "outputs": [
        {
          "internalType": "bool",
          "name": "",
          "type": "bool"
        },
        {
          "internalType": "uint256",
          "name": "",
          "type": "uint256"
        }
      ],
      "stateMutability": "view",
      "type": "function"
    },
    {
      "inputs": [
        {
          "internalType": "uint256",
          "name": "_agendaID",
          "type": "uint256"
        }
      ],
      "name": "getVoters",
      "outputs": [
        {
          "internalType": "address[]",
          "name": "",
          "type": "address[]"
        }
      ],
      "stateMutability": "view",
      "type": "function"
    },
    {
      "inputs": [
        {
          "internalType": "uint256",
          "name": "_agendaID",
          "type": "uint256"
        }
      ],
      "name": "getVotingCount",
      "outputs": [
        {
          "internalType": "uint256",
          "name": "countingYes",
          "type": "uint256"
        },
        {
          "internalType": "uint256",
          "name": "countingNo",
          "type": "uint256"
        },
        {
          "internalType": "uint256",
          "name": "countingAbstain",
          "type": "uint256"
        }
      ],
      "stateMutability": "view",
      "type": "function"
    },
    {
      "inputs": [
        {
          "internalType": "uint256",
          "name": "_agendaID",
          "type": "uint256"
        },
        {
          "internalType": "address",
          "name": "_user",
          "type": "address"
        }
      ],
      "name": "hasVoted",
      "outputs": [
        {
          "internalType": "bool",
          "name": "",
          "type": "bool"
        }
      ],
      "stateMutability": "view",
      "type": "function"
    },
    {
      "inputs": [
        {
          "internalType": "uint256",
          "name": "_agendaID",
          "type": "uint256"
        }
      ],
      "name": "isVotableStatus",
      "outputs": [
        {
          "internalType": "bool",
          "name": "",
          "type": "bool"
        }
      ],
      "stateMutability": "view",
      "type": "function"
    },
    {
      "inputs": [
        {
          "internalType": "uint256",
          "name": "_agendaID",
          "type": "uint256"
        },
        {
          "internalType": "address",
          "name": "_candidate",
          "type": "address"
        }
      ],
      "name": "isVoter",
      "outputs": [
        {
          "internalType": "bool",
          "name": "",
          "type": "bool"
        }
      ],
      "stateMutability": "view",
      "type": "function"
    },
    {
      "inputs": [],
      "name": "minimumNoticePeriodSeconds",
      "outputs": [
        {
          "internalType": "uint256",
          "name": "",
          "type": "uint256"
        }
      ],
      "stateMutability": "view",
      "type": "function"
    },
    {
      "inputs": [],
      "name": "minimumVotingPeriodSeconds",
      "outputs": [
        {
          "internalType": "uint256",
          "name": "",
          "type": "uint256"
        }
      ],
      "stateMutability": "view",
      "type": "function"
    },
    {
      "inputs": [
        {
          "internalType": "address[]",
          "name": "_targets",
          "type": "address[]"
        },
        {
          "internalType": "uint256",
          "name": "_noticePeriodSeconds",
          "type": "uint256"
        },
        {
          "internalType": "uint256",
          "name": "_votingPeriodSeconds",
          "type": "uint256"
        },
        {
          "internalType": "bool",
          "name": "_atomicExecute",
          "type": "bool"
        },
        {
          "internalType": "bytes[]",
          "name": "_functionBytecodes",
          "type": "bytes[]"
        }
      ],
      "name": "newAgenda",
      "outputs": [
        {
          "internalType": "uint256",
          "name": "agendaID",
          "type": "uint256"
        }
      ],
      "stateMutability": "nonpayable",
      "type": "function"
    },
    {
      "inputs": [],
      "name": "numAgendas",
      "outputs": [
        {
          "internalType": "uint256",
          "name": "",
          "type": "uint256"
        }
      ],
      "stateMutability": "view",
      "type": "function"
    },
    {
      "inputs": [],
      "name": "owner",
      "outputs": [
        {
          "internalType": "address",
          "name": "",
          "type": "address"
        }
      ],
      "stateMutability": "view",
      "type": "function"
    },
    {
      "inputs": [],
      "name": "renounceOwnership",
      "outputs": [],
      "stateMutability": "nonpayable",
      "type": "function"
    },
    {
      "inputs": [
        {
          "internalType": "address",
          "name": "_committee",
          "type": "address"
        }
      ],
      "name": "setCommittee",
      "outputs": [],
      "stateMutability": "nonpayable",
      "type": "function"
    },
    {
      "inputs": [
        {
          "internalType": "uint256",
          "name": "_createAgendaFees",
          "type": "uint256"
        }
      ],
      "name": "setCreateAgendaFees",
      "outputs": [],
      "stateMutability": "nonpayable",
      "type": "function"
    },
    {
      "inputs": [
        {
          "internalType": "uint256",
          "name": "_agendaID",
          "type": "uint256"
        }
      ],
      "name": "setExecutedAgenda",
      "outputs": [],
      "stateMutability": "nonpayable",
      "type": "function"
    },
    {
      "inputs": [
        {
          "internalType": "uint256",
          "name": "_agendaID",
          "type": "uint256"
        },
        {
          "internalType": "uint256",
          "name": "_count",
          "type": "uint256"
        }
      ],
      "name": "setExecutedCount",
      "outputs": [],
      "stateMutability": "nonpayable",
      "type": "function"
    },
    {
      "inputs": [
        {
          "internalType": "uint256",
          "name": "_executingPeriodSeconds",
          "type": "uint256"
        }
      ],
      "name": "setExecutingPeriodSeconds",
      "outputs": [],
      "stateMutability": "nonpayable",
      "type": "function"
    },
    {
      "inputs": [
        {
          "internalType": "uint256",
          "name": "_minimumNoticePeriodSeconds",
          "type": "uint256"
        }
      ],
      "name": "setMinimumNoticePeriodSeconds",
      "outputs": [],
      "stateMutability": "nonpayable",
      "type": "function"
    },
    {
      "inputs": [
        {
          "internalType": "uint256",
          "name": "_minimumVotingPeriodSeconds",
          "type": "uint256"
        }
      ],
      "name": "setMinimumVotingPeriodSeconds",
      "outputs": [],
      "stateMutability": "nonpayable",
      "type": "function"
    },
    {
      "inputs": [
        {
          "internalType": "uint256",
          "name": "_agendaID",
          "type": "uint256"
        },
        {
          "internalType": "enum LibAgenda.AgendaResult",
          "name": "_result",
          "type": "uint8"
        }
      ],
      "name": "setResult",
      "outputs": [],
      "stateMutability": "nonpayable",
      "type": "function"
    },
    {
      "inputs": [
        {
          "internalType": "uint256",
          "name": "_agendaID",
          "type": "uint256"
        },
        {
          "internalType": "enum LibAgenda.AgendaStatus",
          "name": "_status",
          "type": "uint8"
        }
      ],
      "name": "setStatus",
      "outputs": [],
      "stateMutability": "nonpayable",
      "type": "function"
    },
    {
      "inputs": [],
      "name": "totalAgendas",
      "outputs": [
        {
          "internalType": "uint256",
          "name": "",
          "type": "uint256"
        }
      ],
      "stateMutability": "view",
      "type": "function"
    },
    {
      "inputs": [
        {
          "internalType": "address",
          "name": "newOwner",
          "type": "address"
        }
      ],
      "name": "transferOwnership",
      "outputs": [],
      "stateMutability": "nonpayable",
      "type": "function"
    },
    {
      "inputs": [
        {
          "internalType": "uint256",
          "name": "_agendaID",
          "type": "uint256"
        },
        {
          "internalType": "address",
          "name": "_voter",
          "type": "address"
        }
      ],
      "name": "voterInfos",
      "outputs": [
        {
          "components": [
            {
              "internalType": "bool",
              "name": "isVoter",
              "type": "bool"
            },
            {
              "internalType": "bool",
              "name": "hasVoted",
              "type": "bool"
            },
            {
              "internalType": "uint256",
              "name": "vote",
              "type": "uint256"
            }
          ],
          "internalType": "struct LibAgenda.Voter",
          "name": "",
          "type": "tuple"
        }
      ],
      "stateMutability": "view",
      "type": "function"
    }
  ],
  "bytecode": "0x608060405234801561001057600080fd5b5061001a33610041565b621518006003556202a30060045562093a8060055568056bc75e2d63100000600255610091565b600080546001600160a01b038381166001600160a01b0319831681178455604051919092169283917f8be0079c531659141344cd1fd0a4f28419497f9722a3daafe3b4186f6b6457e09190a35050565b612764806100a06000396000f3fe608060405234801561001057600080fd5b506004361061022c5760003560e01c806377f28d5b1161013b578063bddae40e116100b8578063de6bd3861161007c578063de6bd38614610590578063e3bc145f1461038c578063e3c36156146105a3578063e7015fef146105ac578063f2fde38b146105b557600080fd5b8063bddae40e1461051a578063c0bc53041461052d578063cdeed60514610540578063d864e7401461056a578063d896dd641461057d57600080fd5b80638da5cb5b116100ff5780638da5cb5b146104665780638e3f5f831461048b578063a0cc81e4146104c6578063aee4a42a146104d9578063b4f69b6a1461050757600080fd5b806377f28d5b146103fa5780637e77eb231461040d5780638425a46d1461042057806386b646f214610433578063885b46961461045357600080fd5b80633da2371f116101c9578063699cc3581161018d578063699cc3581461038c57806369b1227a146103945780636bcaab5e146103a7578063715018a6146103cf57806373ba3745146103d757600080fd5b80633da2371f146102fa578063438596321461030d5780634a47f59b1461032057806356150a36146103595780635c622a0e1461036c57600080fd5b8062b74c45146102315780630af5aa3c1461025957806323d09fdf1461027057806325048db8146102855780632522a32f14610298578063284d776e146102a1578063334bbf35146102b457806337184a32146102c75780633c4a819c146102da575b600080fd5b61024461023f366004612074565b6105c8565b60405190151581526020015b60405180910390f35b61026260035481565b604051908152602001610250565b61028361027e3660046120a4565b610689565b005b610262610293366004612109565b6106cd565b61026260025481565b6102626102af3660046120a4565b6109d1565b6102626102c23660046120a4565b610a3b565b6102836102d53660046120a4565b610a8e565b6102ed6102e83660046120a4565b610b5a565b6040516102509190612224565b6102626103083660046120a4565b610d02565b61024461031b366004612074565b610d55565b61033361032e366004612074565b610dad565b604080518251151581526020808401511515908201529181015190820152606001610250565b6102836103673660046122f4565b610e43565b61037f61037a3660046120a4565b610f00565b604051610250919061231d565b600654610262565b6102836103a23660046120a4565b610fa9565b6103ba6103b53660046120a4565b610fe6565b60408051928352901515602083015201610250565b610283611086565b6103ea6103e53660046120a4565b61109a565b604051610250949392919061232b565b6102446104083660046120a4565b611227565b61024461041b3660046123e3565b6112f2565b61024461042e3660046120a4565b61162b565b6104466104413660046120a4565b6116b5565b604051610250919061241b565b6102836104613660046120a4565b611760565b6000546001600160a01b03165b6040516001600160a01b039091168152602001610250565b61049e6104993660046120a4565b6118b4565b604080519586526020860194909452928401919091526060830152608082015260a001610250565b6102836104d436600461242e565b611930565b6104ec6104e73660046120a4565b611957565b60408051938452602084019290925290820152606001610250565b6102836105153660046120a4565b61199d565b610283610528366004612450565b6119da565b61028361053b3660046120a4565b611a64565b61055361054e366004612074565b611aa1565b604080519215158352602083019190915201610250565b600154610473906001600160a01b031681565b61028361058b366004612474565b611b04565b61026261059e3660046120a4565b611bda565b61026260045481565b61026260055481565b6102836105c3366004612450565b611c2d565b600654600090839081106105f75760405162461bcd60e51b81526004016105ee9061249d565b60405180910390fd5b6001600160a01b03831661065c5760405162461bcd60e51b815260206004820152602660248201527f44414f4167656e64614d616e616765723a20757365722061646472657373206960448201526573207a65726f60d01b60648201526084016105ee565b505060009182526007602090815260408084206001600160a01b0393909316845291905290205460ff1690565b610691611ca6565b60038190556040518181527f1a41511e33a8fb5e37fa982cb8a3c07a04ec3d0a89d5551e6781bd5d03ab8197906020015b60405180910390a150565b60006106d7611ca6565b6003548610156107405760405162461bcd60e51b815260206004820152602e60248201527f44414f4167656e64614d616e616765723a206d696e696d756d4e6f746963655060448201526d195c9a5bd9081a5cc81cda1bdc9d60921b60648201526084016105ee565b600680549050905060606006604051806101c00160405280428152602001894261076a91906124f6565b815260200188815260200160008152602001600081526020016000815260200160008152602001600081526020016000815260200160008152602001600160058111156107b9576107b96121a6565b815260200160008152602080820185905260006040928301819052845460018181018755958252908290208451600d909202019081559083015181850155908201516002820155606082015160038201556080820151600482015560a082015160058083019190915560c0830151600683015560e0830151600783015561010083015160088301556101208301516009830155610140830151600a83018054949593949193909260ff19909216918490811115610878576108786121a6565b0217905550610160820151600a8201805461ff0019166101008360038111156108a3576108a36121a6565b021790555061018082015180516108c491600b840191602090910190611f65565b506101a09190910151600c909101805491151560ff199283161790556000838152600860205260408120600281018054891515941693909317909255600382018190555b898110156109c357818b8b8381811061092357610923612509565b90506020020160208101906109389190612450565b815460018082018455600093845260209093200180546001600160a01b0319166001600160a01b0392909216919091179055820186868381811061097e5761097e612509565b9050602002810190610990919061251f565b825460018101845560009384526020909320909201916109b091836125fe565b50806109bb816126bf565b915050610908565b505050979650505050505050565b600654600090829081106109f75760405162461bcd60e51b81526004016105ee9061249d565b60068381548110610a0a57610a0a612509565b60009182526020909120600a600d90920201015460ff166005811115610a3257610a326121a6565b91505b50919050565b60065460009082908110610a615760405162461bcd60e51b81526004016105ee9061249d565b60068381548110610a7457610a74612509565b90600052602060002090600d020160040154915050919050565b610a96611ca6565b60065481908110610ab95760405162461bcd60e51b81526004016105ee9061249d565b600060068381548110610ace57610ace612509565b600091825260208220600c600d90920201908101805460ff19166001179055426006820155600a81015490925060ff166005811115610b0f57610b0f6121a6565b600a8301805491925060049160ff191660018302179055508360008051602061270f8339815191528260045b604080519283526020830191909152015b60405180910390a250505050565b610b62611fca565b60065482908110610b855760405162461bcd60e51b81526004016105ee9061249d565b60068381548110610b9857610b98612509565b90600052602060002090600d0201604051806101c001604052908160008201548152602001600182015481526020016002820154815260200160038201548152602001600482015481526020016005820154815260200160068201548152602001600782015481526020016008820154815260200160098201548152602001600a820160009054906101000a900460ff166005811115610c3a57610c3a6121a6565b6005811115610c4b57610c4b6121a6565b8152602001600a820160019054906101000a900460ff166003811115610c7357610c736121a6565b6003811115610c8457610c846121a6565b8152602001600b8201805480602002602001604051908101604052809291908181526020018280548015610ce157602002820191906000526020600020905b81546001600160a01b03168152600190910190602001808311610cc3575b5050509183525050600c919091015460ff1615156020909101529392505050565b60065460009082908110610d285760405162461bcd60e51b81526004016105ee9061249d565b60068381548110610d3b57610d3b612509565b90600052602060002090600d020160030154915050919050565b60065460009083908110610d7b5760405162461bcd60e51b81526004016105ee9061249d565b505060009182526007602090815260408084206001600160a01b03939093168452919052902054610100900460ff1690565b604080516060810182526000808252602082018190529181019190915260065483908110610ded5760405162461bcd60e51b81526004016105ee9061249d565b505060009182526007602090815260408084206001600160a01b03939093168452918152918190208151606081018352815460ff8082161515835261010090910416151593810193909352600101549082015290565b610e4b611ca6565b60065482908110610e6e5760405162461bcd60e51b81526004016105ee9061249d565b600060068481548110610e8357610e83612509565b90600052602060002090600d020190508281600a0160016101000a81548160ff02191690836003811115610eb957610eb96121a6565b0217905550837ff874b3fe678e8c9f4bd9dd7051e2bd81708e378e98526f16586e7bf60b77effc846003811115610ef257610ef26121a6565b604051908152602001610b4c565b600060068210610f615760405162461bcd60e51b815260206004820152602660248201527f44414f4167656e64614d616e616765723a20696e76616c6964207374617475736044820152652076616c756560d01b60648201526084016105ee565b60018203610f7157506001919050565b60028203610f8157506002919050565b60048203610f9157506004919050565b60058203610fa157506005919050565b506000919050565b610fb1611ca6565b60058190556040518181527f393533387dd66192af0de6529ab3f15d1a5cef6f112a7b1d620232f7211982a5906020016106c2565b60008082600680549050811061100e5760405162461bcd60e51b81526004016105ee9061249d565b6006848154811061102157611021612509565b90600052602060002090600d0201600a0160019054906101000a900460ff166003811115611051576110516121a6565b6006858154811061106457611064612509565b60009182526020909120600c600d90920201015490935060ff16915050915091565b61108e611ca6565b6110986000611d00565b565b6060806000808460068054905081106110c55760405162461bcd60e51b81526004016105ee9061249d565b60008681526008602090815260409182902060028101546003820154825485518186028101860190965280865292948594600186019460ff90941693869183018282801561113c57602002820191906000526020600020905b81546001600160a01b0316815260019091019060200180831161111e575b5050505050935082805480602002602001604051908101604052809291908181526020016000905b828210156112105783829060005260206000200180546111839061257c565b80601f01602080910402602001604051908101604052809291908181526020018280546111af9061257c565b80156111fc5780601f106111d1576101008083540402835291602001916111fc565b820191906000526020600020905b8154815290600101906020018083116111df57829003601f168201915b505050505081526020019060010190611164565b505050509250955095509550955050509193509193565b6006546000908290811061124d5760405162461bcd60e51b81526004016105ee9061249d565b60006006848154811061126257611262612509565b60009182526020909120600d9091020190506003600a82015460ff16600581111561128f5761128f6121a6565b1480156112a0575080600501544211155b80156112c957506001600a820154610100900460ff1660038111156112c7576112c76121a6565b145b80156112d9575042816004015411155b80156112ea5750600c81015460ff16155b949350505050565b60006112fc611ca6565b6006548490811061131f5760405162461bcd60e51b81526004016105ee9061249d565b6003831061136f5760405162461bcd60e51b815260206004820152601e60248201527f44414f4167656e64614d616e616765723a20696e76616c696420766f7465000060448201526064016105ee565b6113788561162b565b6113c45760405162461bcd60e51b815260206004820181905260248201527f44414f4167656e64614d616e616765723a20696e76616c69642073746174757360448201526064016105ee565b6000600686815481106113d9576113d9612509565b60009182526020909120600d9091020190506001600a82015460ff166005811115611406576114066121a6565b036114145761141486611d50565b61141e86866105c8565b61146a5760405162461bcd60e51b815260206004820152601d60248201527f44414f4167656e64614d616e616765723a206e6f74206120766f74657200000060448201526064016105ee565b6114748686610d55565b156114c15760405162461bcd60e51b815260206004820152601f60248201527f44414f4167656e64614d616e616765723a20616c726561647920766f7465640060448201526064016105ee565b806004015442111561153b5760405162461bcd60e51b815260206004820152603a60248201527f44414f4167656e64614d616e616765723a20666f722074686973206167656e6460448201527f612c2074686520766f74696e672074696d65206578706972656400000000000060648201526084016105ee565b60008681526007602090815260408083206001600160a01b03891684529091528120805461ff00191661010017815560018101869055908503611592576009820154611588906001611f50565b600983015561161e565b600185036115b45760078201546115aa906001611f50565b600783015561161e565b600285036115d65760088201546115cc906001611f50565b600883015561161e565b60405162461bcd60e51b815260206004820181905260248201527f44414f4167656e64614d616e616765723a20696e76616c696420766f74696e6760448201526064016105ee565b5060019695505050505050565b600654600090829081106116515760405162461bcd60e51b81526004016105ee9061249d565b60006006848154811061166657611666612509565b90600052602060002090600d020190508060040154421115806112ea57506001600a82015460ff16600581111561169f5761169f6121a6565b1480156112ea5750600101544210159392505050565b600654606090829081106116db5760405162461bcd60e51b81526004016105ee9061249d565b600683815481106116ee576116ee612509565b90600052602060002090600d0201600b0180548060200260200160405190810160405280929190818152602001828054801561175357602002820191906000526020600020905b81546001600160a01b03168152600190910190602001808311611735575b5050505050915050919050565b611768611ca6565b6006548190811061178b5760405162461bcd60e51b81526004016105ee9061249d565b6000600683815481106117a0576117a0612509565b60009182526020909120600d9091020190506002600a82015460ff1660058111156117cd576117cd6121a6565b146118335760405162461bcd60e51b815260206004820152603060248201527f44414f4167656e64614d616e616765723a206167656e6461207374617475732060448201526f6973206e6f74206368616e6761626c6560801b60648201526084016105ee565b42816004015411156118995760405162461bcd60e51b815260206004820152602960248201527f44414f4167656e64614d616e616765723a20766f74696e67206973206e6f7420604482015268195b991959081e595d60ba1b60648201526084016105ee565b6118a4836005611b04565b6118af836003610e43565b505050565b60008060008060008560068054905081106118e15760405162461bcd60e51b81526004016105ee9061249d565b6000600688815481106118f6576118f6612509565b60009182526020909120600d909102018054600182015460038301546004840154600690940154929c919b50995091975095509350505050565b6000828152600860205260409020600381015461194d9083611f50565b6003909101555050565b6000806000806006858154811061197057611970612509565b90600052602060002090600d02019050806007015481600801548260090154935093509350509193909250565b6119a5611ca6565b60028190556040518181527f72ac0dabe78e5050799cf8c3092f5eb1ff83204f83c2a62ac0e4d9cafae08377906020016106c2565b6119e2611ca6565b6001600160a01b038116611a425760405162461bcd60e51b815260206004820152602160248201527f44414f4167656e64614d616e616765723a2061646472657373206973207a65726044820152606f60f81b60648201526084016105ee565b600180546001600160a01b0319166001600160a01b0392909216919091179055565b611a6c611ca6565b60048190556040518181527ff4f36c6d71e6dce23fde1248bfb40024041297ac1665de2840339f8a6b32e545906020016106c2565b600080836006805490508110611ac95760405162461bcd60e51b81526004016105ee9061249d565b50505060009182526007602090815260408084206001600160a01b039390931684529190529020805460019091015461010090910460ff1691565b611b0c611ca6565b60065482908110611b2f5760405162461bcd60e51b81526004016105ee9061249d565b600060068481548110611b4457611b44612509565b600091825260208220600a600d909202019081015490925060ff166005811115611b7057611b706121a6565b600a83018054919250859160ff19166001836005811115611b9357611b936121a6565b02179055508460008051602061270f83398151915282866005811115611bbb57611bbb6121a6565b6040805192835260208301919091520160405180910390a25050505050565b60065460009082908110611c005760405162461bcd60e51b81526004016105ee9061249d565b60068381548110611c1357611c13612509565b90600052602060002090600d020160010154915050919050565b611c35611ca6565b6001600160a01b038116611c9a5760405162461bcd60e51b815260206004820152602660248201527f4f776e61626c653a206e6577206f776e657220697320746865207a65726f206160448201526564647265737360d01b60648201526084016105ee565b611ca381611d00565b50565b6000546001600160a01b031633146110985760405162461bcd60e51b815260206004820181905260248201527f4f776e61626c653a2063616c6c6572206973206e6f7420746865206f776e657260448201526064016105ee565b600080546001600160a01b038381166001600160a01b0319831681178455604051919092169283917f8be0079c531659141344cd1fd0a4f28419497f9722a3daafe3b4186f6b6457e09190a35050565b60065481908110611d735760405162461bcd60e51b81526004016105ee9061249d565b600060068381548110611d8857611d88612509565b90600052602060002090600d02019050428160030181905550611db8816002015442611f5090919063ffffffff16565b60048201819055600554611dcc9190611f50565b6005820155600a8101805460ff191660021790556001546040805162f8f26b60e21b815290516000926001600160a01b0316916303e3c9ac916004808301926020929190829003018187875af1158015611e2a573d6000803e3d6000fd5b505050506040513d601f19601f82011682018060405250810190611e4e91906126d8565b905060005b81811015611f3657600154604051632ed7846560e11b8152600481018390526000916001600160a01b031690635daf08ca906024016020604051808303816000875af1158015611ea7573d6000803e3d6000fd5b505050506040513d601f19601f82011682018060405250810190611ecb91906126f1565b600b85018054600181810183556000928352602080842090920180546001600160a01b039095166001600160a01b03199095168517905589835260078252604080842094845293909152919020805460ff191690911790555080611f2e816126bf565b915050611e53565b508360008051602061270f83398151915260016002610b3b565b6000611f5c82846124f6565b90505b92915050565b828054828255906000526020600020908101928215611fba579160200282015b82811115611fba57825182546001600160a01b0319166001600160a01b03909116178255602090920191600190910190611f85565b50611fc692915061204a565b5090565b604051806101c00160405280600081526020016000815260200160008152602001600081526020016000815260200160008152602001600081526020016000815260200160008152602001600081526020016000600581111561202f5761202f6121a6565b81526020016000815260606020820152600060409091015290565b5b80821115611fc6576000815560010161204b565b6001600160a01b0381168114611ca357600080fd5b6000806040838503121561208757600080fd5b8235915060208301356120998161205f565b809150509250929050565b6000602082840312156120b657600080fd5b5035919050565b60008083601f8401126120cf57600080fd5b50813567ffffffffffffffff8111156120e757600080fd5b6020830191508360208260051b850101111561210257600080fd5b9250929050565b600080600080600080600060a0888a03121561212457600080fd5b873567ffffffffffffffff8082111561213c57600080fd5b6121488b838c016120bd565b909950975060208a0135965060408a0135955060608a01359150811515821461217057600080fd5b9093506080890135908082111561218657600080fd5b506121938a828b016120bd565b989b979a50959850939692959293505050565b634e487b7160e01b600052602160045260246000fd5b600681106121cc576121cc6121a6565b9052565b600481106121cc576121cc6121a6565b600081518084526020808501945080840160005b838110156122195781516001600160a01b0316875295820195908201906001016121f4565b509495945050505050565b6020815281516020820152602082015160408201526040820151606082015260608201516080820152608082015160a082015260a082015160c082015260c082015160e0820152600060e08301516101008181850152808501519150506101208181850152808501519150506101408181850152808501519150506101606122ae818501836121bc565b84015190506101806122c2848201836121d0565b808501519150506101c06101a081818601526122e26101e08601846121e0565b95015115159301929092525090919050565b6000806040838503121561230757600080fd5b8235915060208301356004811061209957600080fd5b60208101611f5f82846121bc565b60808152600061233e60808301876121e0565b6020838203818501528187518084528284019150828160051b850101838a016000805b848110156123bd57601f198089860301875283518051808752845b81811015612397578281018b01518882018c01528a0161237c565b508681018a0185905297890197601f019091169094018701935091860191600101612361565b505050881515604088015294506123d49350505050565b82606083015295945050505050565b6000806000606084860312156123f857600080fd5b83359250602084013561240a8161205f565b929592945050506040919091013590565b602081526000611f5c60208301846121e0565b6000806040838503121561244157600080fd5b50508035926020909101359150565b60006020828403121561246257600080fd5b813561246d8161205f565b9392505050565b6000806040838503121561248757600080fd5b8235915060208301356006811061209957600080fd5b60208082526023908201527f44414f4167656e64614d616e616765723a20696e76616c6964206167656e6461604082015262081a5960ea1b606082015260800190565b634e487b7160e01b600052601160045260246000fd5b80820180821115611f5f57611f5f6124e0565b634e487b7160e01b600052603260045260246000fd5b6000808335601e1984360301811261253657600080fd5b83018035915067ffffffffffffffff82111561255157600080fd5b60200191503681900382131561210257600080fd5b634e487b7160e01b600052604160045260246000fd5b600181811c9082168061259057607f821691505b602082108103610a3557634e487b7160e01b600052602260045260246000fd5b601f8211156118af57600081815260208120601f850160051c810160208610156125d75750805b601f850160051c820191505b818110156125f6578281556001016125e3565b505050505050565b67ffffffffffffffff83111561261657612616612566565b61262a83612624835461257c565b836125b0565b6000601f84116001811461265e57600085156126465750838201355b600019600387901b1c1916600186901b1783556126b8565b600083815260209020601f19861690835b8281101561268f578685013582556020948501946001909201910161266f565b50868210156126ac5760001960f88860031b161c19848701351681555b505060018560011b0183555b5050505050565b6000600182016126d1576126d16124e0565b5060010190565b6000602082840312156126ea57600080fd5b5051919050565b60006020828403121561270357600080fd5b815161246d8161205f56fe27e1508d1d92ba0e1e406fad0138e0f3dd44688f5018dbe7f5718da02931eb7ca2646970667358221220bd785a231f5454fa9e1aea3228c5e52c67bcb27db360b2c4d8acd31ff9ff48e964736f6c63430008120033",
  "linkReferences": {},
  "deployedLinkReferences": {}
}