{
  "_format": "hh-sol-artifact-1",
  "contractName": "MockL1Bridge",
  "sourceName": "contracts/test/MockL1Bridge.sol",
  "abi": [
    {
      "inputs": [],
      "stateMutability": "nonpayable",
      "type": "constructor"
    },
    {
      "anonymous": false,
      "inputs": [
        {
          "indexed": true,
          "internalType": "address",
          "name": "previousOwner",
          "type": "address"
        },
        {
          "indexed": true,
          "internalType": "address",
          "name": "newOwner",
          "type": "address"
        }
      ],
      "name": "OwnershipTransferred",
      "type": "event"
    },
    {
      "inputs": [
        {
          "internalType": "address",
          "name": "_l1Token",
          "type": "address"
        },
        {
          "internalType": "address",
          "name": "_l2Token",
          "type": "address"
        },
        {
          "internalType": "uint256",
          "name": "_amount",
          "type": "uint256"
        },
        {
          "internalType": "uint32",
          "name": "_l2Gas",
          "type": "uint32"
        },
        {
          "internalType": "bytes",
          "name": "_data",
          "type": "bytes"
        }
      ],
      "name": "depositERC20",
      "outputs": [],
      "stateMutability": "nonpayable",
      "type": "function"
    },
    {
      "inputs": [
        {
          "internalType": "address",
          "name": "_l1Token",
          "type": "address"
        },
        {
          "internalType": "address",
          "name": "_l2Token",
          "type": "address"
        },
        {
          "internalType": "address",
          "name": "_to",
          "type": "address"
        },
        {
          "internalType": "uint256",
          "name": "_amount",
          "type": "uint256"
        },
        {
          "internalType": "uint32",
          "name": "_l2Gas",
          "type": "uint32"
        },
        {
          "internalType": "bytes",
          "name": "_data",
          "type": "bytes"
        }
      ],
      "name": "depositERC20To",
      "outputs": [],
      "stateMutability": "nonpayable",
      "type": "function"
    },
    {
      "inputs": [
        {
          "internalType": "address",
          "name": "",
          "type": "address"
        },
        {
          "internalType": "address",
          "name": "",
          "type": "address"
        }
      ],
      "name": "deposits",
      "outputs": [
        {
          "internalType": "uint256",
          "name": "",
          "type": "uint256"
        }
      ],
      "stateMutability": "view",
      "type": "function"
    },
    {
      "inputs": [
        {
          "internalType": "address",
          "name": "_l1Token",
          "type": "address"
        },
        {
          "internalType": "address",
          "name": "_l2Token",
          "type": "address"
        },
        {
          "internalType": "address",
          "name": "_from",
          "type": "address"
        },
        {
          "internalType": "address",
          "name": "_to",
          "type": "address"
        },
        {
          "internalType": "uint256",
          "name": "_amount",
          "type": "uint256"
        },
        {
          "internalType": "bytes",
          "name": "_data",
          "type": "bytes"
        },
        {
          "internalType": "uint256",
          "name": "_nonce",
          "type": "uint256"
        }
      ],
      "name": "finalizeERC20Withdrawal",
      "outputs": [],
      "stateMutability": "nonpayable",
      "type": "function"
    },
    {
      "inputs": [],
      "name": "l1Messenger",
      "outputs": [
        {
          "internalType": "address",
          "name": "",
          "type": "address"
        }
      ],
      "stateMutability": "view",
      "type": "function"
    },
    {
      "inputs": [],
      "name": "l2TokenBridge",
      "outputs": [
        {
          "internalType": "address",
          "name": "",
          "type": "address"
        }
      ],
      "stateMutability": "view",
      "type": "function"
    },
    {
      "inputs": [],
      "name": "owner",
      "outputs": [
        {
          "internalType": "address",
          "name": "",
          "type": "address"
        }
      ],
      "stateMutability": "view",
      "type": "function"
    },
    {
      "inputs": [],
      "name": "renounceOwnership",
      "outputs": [],
      "stateMutability": "nonpayable",
      "type": "function"
    },
    {
      "inputs": [
        {
          "internalType": "address",
          "name": "_l1Messenger",
          "type": "address"
        },
        {
          "internalType": "address",
          "name": "_l2TokenBridge",
          "type": "address"
        }
      ],
      "name": "setAddress",
      "outputs": [],
      "stateMutability": "nonpayable",
      "type": "function"
    },
    {
      "inputs": [
        {
          "internalType": "address",
          "name": "newOwner",
          "type": "address"
        }
      ],
      "name": "transferOwnership",
      "outputs": [],
      "stateMutability": "nonpayable",
      "type": "function"
    }
  ],
  "bytecode": "0x608060405234801561001057600080fd5b5061001a3361001f565b61006f565b600080546001600160a01b038381166001600160a01b0319831681178455604051919092169283917f8be0079c531659141344cd1fd0a4f28419497f9722a3daafe3b4186f6b6457e09190a35050565b610eed8061007e6000396000f3fe608060405234801561001057600080fd5b506004361061009e5760003560e01c80638da5cb5b116100665780638da5cb5b146101165780638f601f661461012757806390d613b21461016057806391c49bf814610173578063f2fde38b1461018657600080fd5b80633b58524d146100a357806358a997f6146100b85780636140e0e6146100cb578063715018a6146100fb578063838b252014610103575b600080fd5b6100b66100b1366004610a51565b610199565b005b6100b66100c6366004610ae1565b6101cf565b6001546100de906001600160a01b031681565b6040516001600160a01b0390911681526020015b60405180910390f35b6100b661022d565b6100b6610111366004610b60565b610241565b6000546001600160a01b03166100de565b610152610135366004610a51565b600360209081526000928352604080842090915290825290205481565b6040519081526020016100f2565b6100b661016e366004610c06565b61025a565b6002546100de906001600160a01b031681565b6100b6610194366004610d0d565b61058e565b6101a1610607565b600180546001600160a01b039384166001600160a01b03199182161790915560028054929093169116179055565b333b156102155760405162461bcd60e51b815260206004820152600f60248201526e4163636f756e74206e6f7420454f4160881b60448201526064015b60405180910390fd5b6102258686333388888888610661565b505050505050565b610235610607565b61023f60006106dd565b565b6102518787338888888888610661565b50505050505050565b600063a9f9e67560e01b88888888888860405160240161027f96959493929190610d7f565b60408051601f198184030181529181526020820180516001600160e01b03166001600160e01b031990941693909317909252600254915190925060009163cbd4ece960e01b916102e39130916001600160a01b039091169086908890602401610dce565b60408051601f198184030181529181526020820180516001600160e01b03166001600160e01b03199094169390931783528151909220600154925163b1b1b20960e01b8152919350916001600160a01b03169063b1b1b2099061034e90849060040190815260200190565b602060405180830381865afa15801561036b573d6000803e3d6000fd5b505050506040513d601f19601f8201168201806040525081019061038f9190610e0b565b156103cb5760405162461bcd60e51b815260206004820152600c60248201526b616c726561647920646f6e6560a01b604482015260640161020c565b6040516370a0823160e01b81523060048201526000906001600160a01b038c16906370a0823190602401602060405180830381865afa158015610412573d6000803e3d6000fd5b505050506040513d601f19601f820116820180604052508101906104369190610e2d565b9050868110156104825760405162461bcd60e51b815260206004820152601760248201527618985b185b98d9481a5cc81a5b9cdd59999a58da595b9d604a1b604482015260640161020c565b6001600160a01b03808c166000908152600360209081526040808320938e1683529290522054871015610507576001600160a01b03808c166000908152600360209081526040808320938e16835292905220546104e0908890610e5c565b6001600160a01b03808d166000908152600360209081526040808320938f16835292905220555b6001805460405163292200a960e01b81526004810185905260248101929092526001600160a01b03169063292200a990604401600060405180830381600087803b15801561055457600080fd5b505af1158015610568573d6000803e3d6000fd5b50610581925050506001600160a01b038c16898961072d565b5050505050505050505050565b610596610607565b6001600160a01b0381166105fb5760405162461bcd60e51b815260206004820152602660248201527f4f776e61626c653a206e6577206f776e657220697320746865207a65726f206160448201526564647265737360d01b606482015260840161020c565b610604816106dd565b50565b6000546001600160a01b0316331461023f5760405162461bcd60e51b815260206004820181905260248201527f4f776e61626c653a2063616c6c6572206973206e6f7420746865206f776e6572604482015260640161020c565b6106766001600160a01b038916873087610795565b6001600160a01b038089166000908152600360209081526040808320938b16835292905220546106a7908590610e75565b6001600160a01b0398891660009081526003602090815260408083209a909b168252989098529790962096909655505050505050565b600080546001600160a01b038381166001600160a01b0319831681178455604051919092169283917f8be0079c531659141344cd1fd0a4f28419497f9722a3daafe3b4186f6b6457e09190a35050565b6040516001600160a01b03831660248201526044810182905261079090849063a9059cbb60e01b906064015b60408051601f198184030181529190526020810180516001600160e01b03166001600160e01b0319909316929092179091526107d3565b505050565b6040516001600160a01b03808516602483015283166044820152606481018290526107cd9085906323b872dd60e01b90608401610759565b50505050565b6000610828826040518060400160405280602081526020017f5361666545524332303a206c6f772d6c6576656c2063616c6c206661696c6564815250856001600160a01b03166108a59092919063ffffffff16565b80519091501561079057808060200190518101906108469190610e0b565b6107905760405162461bcd60e51b815260206004820152602a60248201527f5361666545524332303a204552433230206f7065726174696f6e20646964206e6044820152691bdd081cdd58d8d9595960b21b606482015260840161020c565b60606108b484846000856108bc565b949350505050565b60608247101561091d5760405162461bcd60e51b815260206004820152602660248201527f416464726573733a20696e73756666696369656e742062616c616e636520666f6044820152651c8818d85b1b60d21b606482015260840161020c565b600080866001600160a01b031685876040516109399190610e88565b60006040518083038185875af1925050503d8060008114610976576040519150601f19603f3d011682016040523d82523d6000602084013e61097b565b606091505b509150915061098c87838387610997565b979650505050505050565b60608315610a065782516000036109ff576001600160a01b0385163b6109ff5760405162461bcd60e51b815260206004820152601d60248201527f416464726573733a2063616c6c20746f206e6f6e2d636f6e7472616374000000604482015260640161020c565b50816108b4565b6108b48383815115610a1b5781518083602001fd5b8060405162461bcd60e51b815260040161020c9190610ea4565b80356001600160a01b0381168114610a4c57600080fd5b919050565b60008060408385031215610a6457600080fd5b610a6d83610a35565b9150610a7b60208401610a35565b90509250929050565b803563ffffffff81168114610a4c57600080fd5b60008083601f840112610aaa57600080fd5b50813567ffffffffffffffff811115610ac257600080fd5b602083019150836020828501011115610ada57600080fd5b9250929050565b60008060008060008060a08789031215610afa57600080fd5b610b0387610a35565b9550610b1160208801610a35565b945060408701359350610b2660608801610a84565b9250608087013567ffffffffffffffff811115610b4257600080fd5b610b4e89828a01610a98565b979a9699509497509295939492505050565b600080600080600080600060c0888a031215610b7b57600080fd5b610b8488610a35565b9650610b9260208901610a35565b9550610ba060408901610a35565b945060608801359350610bb560808901610a84565b925060a088013567ffffffffffffffff811115610bd157600080fd5b610bdd8a828b01610a98565b989b979a50959850939692959293505050565b634e487b7160e01b600052604160045260246000fd5b600080600080600080600060e0888a031215610c2157600080fd5b610c2a88610a35565b9650610c3860208901610a35565b9550610c4660408901610a35565b9450610c5460608901610a35565b93506080880135925060a088013567ffffffffffffffff80821115610c7857600080fd5b818a0191508a601f830112610c8c57600080fd5b813581811115610c9e57610c9e610bf0565b604051601f8201601f19908116603f01168101908382118183101715610cc657610cc6610bf0565b816040528281528d6020848701011115610cdf57600080fd5b82602086016020830137600060208483010152809650505050505060c0880135905092959891949750929550565b600060208284031215610d1f57600080fd5b610d2882610a35565b9392505050565b60005b83811015610d4a578181015183820152602001610d32565b50506000910152565b60008151808452610d6b816020860160208601610d2f565b601f01601f19169290920160200192915050565b6001600160a01b03878116825286811660208301528581166040830152841660608201526080810183905260c060a08201819052600090610dc290830184610d53565b98975050505050505050565b6001600160a01b03858116825284166020820152608060408201819052600090610dfa90830185610d53565b905082606083015295945050505050565b600060208284031215610e1d57600080fd5b81518015158114610d2857600080fd5b600060208284031215610e3f57600080fd5b5051919050565b634e487b7160e01b600052601160045260246000fd5b81810381811115610e6f57610e6f610e46565b92915050565b80820180821115610e6f57610e6f610e46565b60008251610e9a818460208701610d2f565b9190910192915050565b602081526000610d286020830184610d5356fea264697066735822122097b1c79d14cee7e73a94e6d6b837b12bcc25d02db8addc60ae5565fbcba0a9e764736f6c63430008120033",
  "linkReferences": {},
  "deployedLinkReferences": {}
}