{
  "_format": "hh-sol-artifact-1",
  "contractName": "DaoProxy",
  "sourceName": "contracts/proxy/DaoProxy.sol",
  "abi": [
    {
      "inputs": [],
      "stateMutability": "nonpayable",
      "type": "constructor"
    },
    {
      "anonymous": false,
      "inputs": [
        {
          "indexed": true,
          "internalType": "bytes32",
          "name": "role",
          "type": "bytes32"
        },
        {
          "indexed": true,
          "internalType": "bytes32",
          "name": "previousAdminRole",
          "type": "bytes32"
        },
        {
          "indexed": true,
          "internalType": "bytes32",
          "name": "newAdminRole",
          "type": "bytes32"
        }
      ],
      "name": "RoleAdminChanged",
      "type": "event"
    },
    {
      "anonymous": false,
      "inputs": [
        {
          "indexed": true,
          "internalType": "bytes32",
          "name": "role",
          "type": "bytes32"
        },
        {
          "indexed": true,
          "internalType": "address",
          "name": "account",
          "type": "address"
        },
        {
          "indexed": true,
          "internalType": "address",
          "name": "sender",
          "type": "address"
        }
      ],
      "name": "RoleGranted",
      "type": "event"
    },
    {
      "anonymous": false,
      "inputs": [
        {
          "indexed": true,
          "internalType": "bytes32",
          "name": "role",
          "type": "bytes32"
        },
        {
          "indexed": true,
          "internalType": "address",
          "name": "account",
          "type": "address"
        },
        {
          "indexed": true,
          "internalType": "address",
          "name": "sender",
          "type": "address"
        }
      ],
      "name": "RoleRevoked",
      "type": "event"
    },
    {
      "anonymous": false,
      "inputs": [
        {
          "indexed": true,
          "internalType": "address",
          "name": "impl",
          "type": "address"
        },
        {
          "indexed": false,
          "internalType": "bool",
          "name": "alive",
          "type": "bool"
        }
      ],
      "name": "SetAliveImplementation",
      "type": "event"
    },
    {
      "anonymous": false,
      "inputs": [
        {
          "indexed": true,
          "internalType": "bytes4",
          "name": "selector",
          "type": "bytes4"
        },
        {
          "indexed": true,
          "internalType": "address",
          "name": "impl",
          "type": "address"
        }
      ],
      "name": "SetSelectorImplementation",
      "type": "event"
    },
    {
      "anonymous": false,
      "inputs": [
        {
          "indexed": true,
          "internalType": "address",
          "name": "implementation",
          "type": "address"
        }
      ],
      "name": "Upgraded",
      "type": "event"
    },
    {
      "stateMutability": "payable",
      "type": "fallback"
    },
    {
      "inputs": [],
      "name": "ADMIN_ROLE",
      "outputs": [
        {
          "internalType": "bytes32",
          "name": "",
          "type": "bytes32"
        }
      ],
      "stateMutability": "view",
      "type": "function"
    },
    {
      "inputs": [],
      "name": "BURNER_ROLE",
      "outputs": [
        {
          "internalType": "bytes32",
          "name": "",
          "type": "bytes32"
        }
      ],
      "stateMutability": "view",
      "type": "function"
    },
    {
      "inputs": [],
      "name": "DEFAULT_ADMIN_ROLE",
      "outputs": [
        {
          "internalType": "bytes32",
          "name": "",
          "type": "bytes32"
        }
      ],
      "stateMutability": "view",
      "type": "function"
    },
    {
      "inputs": [],
      "name": "MINTER_ROLE",
      "outputs": [
        {
          "internalType": "bytes32",
          "name": "",
          "type": "bytes32"
        }
      ],
      "stateMutability": "view",
      "type": "function"
    },
    {
      "inputs": [
        {
          "internalType": "address",
          "name": "account",
          "type": "address"
        }
      ],
      "name": "addAdmin",
      "outputs": [],
      "stateMutability": "nonpayable",
      "type": "function"
    },
    {
      "inputs": [
        {
          "internalType": "address",
          "name": "",
          "type": "address"
        }
      ],
      "name": "aliveImplementation",
      "outputs": [
        {
          "internalType": "bool",
          "name": "",
          "type": "bool"
        }
      ],
      "stateMutability": "view",
      "type": "function"
    },
    {
      "inputs": [
        {
          "internalType": "bytes32",
          "name": "role",
          "type": "bytes32"
        }
      ],
      "name": "getRoleAdmin",
      "outputs": [
        {
          "internalType": "bytes32",
          "name": "",
          "type": "bytes32"
        }
      ],
      "stateMutability": "view",
      "type": "function"
    },
    {
      "inputs": [
        {
          "internalType": "bytes4",
          "name": "_selector",
          "type": "bytes4"
        }
      ],
      "name": "getSelectorImplementation2",
      "outputs": [
        {
          "internalType": "address",
          "name": "impl",
          "type": "address"
        }
      ],
      "stateMutability": "view",
      "type": "function"
    },
    {
      "inputs": [
        {
          "internalType": "bytes32",
          "name": "role",
          "type": "bytes32"
        },
        {
          "internalType": "address",
          "name": "account",
          "type": "address"
        }
      ],
      "name": "grantRole",
      "outputs": [],
      "stateMutability": "nonpayable",
      "type": "function"
    },
    {
      "inputs": [
        {
          "internalType": "bytes32",
          "name": "role",
          "type": "bytes32"
        },
        {
          "internalType": "address",
          "name": "account",
          "type": "address"
        }
      ],
      "name": "hasRole",
      "outputs": [
        {
          "internalType": "bool",
          "name": "",
          "type": "bool"
        }
      ],
      "stateMutability": "view",
      "type": "function"
    },
    {
      "inputs": [],
      "name": "implementation",
      "outputs": [
        {
          "internalType": "address",
          "name": "",
          "type": "address"
        }
      ],
      "stateMutability": "view",
      "type": "function"
    },
    {
      "inputs": [
        {
          "internalType": "uint256",
          "name": "_index",
          "type": "uint256"
        }
      ],
      "name": "implementation2",
      "outputs": [
        {
          "internalType": "address",
          "name": "",
          "type": "address"
        }
      ],
      "stateMutability": "view",
      "type": "function"
    },
    {
      "inputs": [
        {
          "internalType": "address",
          "name": "account",
          "type": "address"
        }
      ],
      "name": "isAdmin",
      "outputs": [
        {
          "internalType": "bool",
          "name": "",
          "type": "bool"
        }
      ],
      "stateMutability": "view",
      "type": "function"
    },
    {
      "inputs": [],
      "name": "pauseProxy",
      "outputs": [
        {
          "internalType": "bool",
          "name": "",
          "type": "bool"
        }
      ],
      "stateMutability": "view",
      "type": "function"
    },
    {
      "inputs": [
        {
          "internalType": "uint256",
          "name": "",
          "type": "uint256"
        }
      ],
      "name": "proxyImplementation",
      "outputs": [
        {
          "internalType": "address",
          "name": "",
          "type": "address"
        }
      ],
      "stateMutability": "view",
      "type": "function"
    },
    {
      "inputs": [
        {
          "internalType": "address",
          "name": "account",
          "type": "address"
        }
      ],
      "name": "removeAdmin",
      "outputs": [],
      "stateMutability": "nonpayable",
      "type": "function"
    },
    {
      "inputs": [
        {
          "internalType": "bytes32",
          "name": "role",
          "type": "bytes32"
        },
        {
          "internalType": "address",
          "name": "account",
          "type": "address"
        }
      ],
      "name": "renounceRole",
      "outputs": [],
      "stateMutability": "nonpayable",
      "type": "function"
    },
    {
      "inputs": [
        {
          "internalType": "bytes32",
          "name": "role",
          "type": "bytes32"
        },
        {
          "internalType": "address",
          "name": "account",
          "type": "address"
        }
      ],
      "name": "revokeRole",
      "outputs": [],
      "stateMutability": "nonpayable",
      "type": "function"
    },
    {
      "inputs": [
        {
          "internalType": "bytes4",
          "name": "",
          "type": "bytes4"
        }
      ],
      "name": "selectorImplementation",
      "outputs": [
        {
          "internalType": "address",
          "name": "",
          "type": "address"
        }
      ],
      "stateMutability": "view",
      "type": "function"
    },
    {
      "inputs": [
        {
          "internalType": "address",
          "name": "newImplementation",
          "type": "address"
        },
        {
          "internalType": "bool",
          "name": "_alive",
          "type": "bool"
        }
      ],
      "name": "setAliveImplementation2",
      "outputs": [],
      "stateMutability": "nonpayable",
      "type": "function"
    },
    {
      "inputs": [
        {
          "internalType": "address",
          "name": "newImplementation",
          "type": "address"
        },
        {
          "internalType": "uint256",
          "name": "_index",
          "type": "uint256"
        },
        {
          "internalType": "bool",
          "name": "_alive",
          "type": "bool"
        }
      ],
      "name": "setImplementation2",
      "outputs": [],
      "stateMutability": "nonpayable",
      "type": "function"
    },
    {
      "inputs": [
        {
          "internalType": "bool",
          "name": "_pause",
          "type": "bool"
        }
      ],
      "name": "setProxyPause",
      "outputs": [],
      "stateMutability": "nonpayable",
      "type": "function"
    },
    {
      "inputs": [
        {
          "internalType": "bytes4[]",
          "name": "_selectors",
          "type": "bytes4[]"
        },
        {
          "internalType": "address",
          "name": "_imp",
          "type": "address"
        }
      ],
      "name": "setSelectorImplementations2",
      "outputs": [],
      "stateMutability": "nonpayable",
      "type": "function"
    },
    {
      "inputs": [
        {
          "internalType": "bytes4",
          "name": "interfaceId",
          "type": "bytes4"
        }
      ],
      "name": "supportsInterface",
      "outputs": [
        {
          "internalType": "bool",
          "name": "",
          "type": "bool"
        }
      ],
      "stateMutability": "view",
      "type": "function"
    },
    {
      "inputs": [
        {
          "internalType": "address",
          "name": "newAdmin",
          "type": "address"
        }
      ],
      "name": "transferAdmin",
      "outputs": [],
      "stateMutability": "nonpayable",
      "type": "function"
    },
    {
      "inputs": [
        {
          "internalType": "address",
          "name": "impl",
          "type": "address"
        }
      ],
      "name": "upgradeTo",
      "outputs": [],
      "stateMutability": "nonpayable",
      "type": "function"
    },
    {
      "stateMutability": "payable",
      "type": "receive"
    }
  ],
  "bytecode": "0x60806040523480156200001157600080fd5b506200002d600080516020620016c6833981519152806200004e565b62000048600080516020620016c68339815191523362000099565b62000149565b600082815260208190526040808220600101805490849055905190918391839186917fbd79b86ffe0ab8e8776151514217cd7cacd52c909f66475c3af44e129f0b00ff9190a4505050565b620000a58282620000a9565b5050565b6000828152602081815260408083206001600160a01b038516845290915290205460ff16620000a5576000828152602081815260408083206001600160a01b03851684529091529020805460ff19166001179055620001053390565b6001600160a01b0316816001600160a01b0316837f2f8788117e7eff1d82e926ec794901d17c78024a50270940304540a733656f0d60405160405180910390a45050565b61156d80620001596000396000f3fe6080604052600436106101655760003560e01c806363a8fd89116100c15780638b8f4a651161007a5780638b8f4a651461044c5780638d4fdb401461046c57806391d148541461048c578063a217fddf146104ac578063b911135f146104c1578063d5391393146104f7578063d547741f1461052b5761016c565b806363a8fd891461039057806370480275146103aa57806375829def146103ca57806375b238fc146103ea5780637cb00d251461040c5780637cd5f6631461042c5761016c565b806336568abe1161011e57806336568abe1461027d5780633659cfe61461029d5780634a5df50f146102bd57806350d2a276146102dd578063550d01a31461032b5780635c60da1b1461035b5780635cc797d8146103705761016c565b806301ffc9a7146101765780631785f53c146101ab578063248a9ca3146101cb57806324d7806c14610209578063282c51f3146102295780632f2ff15d1461025d5761016c565b3661016c57005b61017461054b565b005b34801561018257600080fd5b506101966101913660046111c6565b6105f9565b60405190151581526020015b60405180910390f35b3480156101b757600080fd5b506101746101c6366004611207565b610630565b3480156101d757600080fd5b506101fb6101e6366004611222565b60009081526020819052604090206001015490565b6040519081526020016101a2565b34801561021557600080fd5b50610196610224366004611207565b610670565b34801561023557600080fd5b506101fb7f9667e80708b6eeeb0053fa0cca44e028ff548e2a9f029edfeac87c118b08b7c881565b34801561026957600080fd5b5061017461027836600461123b565b61068a565b34801561028957600080fd5b5061017461029836600461123b565b6106af565b3480156102a957600080fd5b506101746102b8366004611207565b61072d565b3480156102c957600080fd5b506101746102d8366004611267565b610832565b3480156102e957600080fd5b506103136102f83660046111c6565b6004602052600090815260409020546001600160a01b031681565b6040516001600160a01b0390911681526020016101a2565b34801561033757600080fd5b50610196610346366004611207565b60036020526000908152604090205460ff1681565b34801561036757600080fd5b50610313610a8f565b34801561037c57600080fd5b5061017461038b3660046112fb565b610aa0565b34801561039c57600080fd5b506001546101969060ff1681565b3480156103b657600080fd5b506101746103c5366004611207565b610acf565b3480156103d657600080fd5b506101746103e5366004611207565b610b0c565b3480156103f657600080fd5b506101fb60008051602061151883398151915281565b34801561041857600080fd5b50610174610427366004611325565b610c03565b34801561043857600080fd5b50610174610447366004611340565b610c3b565b34801561045857600080fd5b50610313610467366004611222565b610c6b565b34801561047857600080fd5b506103136104873660046111c6565b610c76565b34801561049857600080fd5b506101966104a736600461123b565b610d72565b3480156104b857600080fd5b506101fb600081565b3480156104cd57600080fd5b506103136104dc366004611222565b6002602052600090815260409020546001600160a01b031681565b34801561050357600080fd5b506101fb7ff0887ba65ee2024ea881d91b74c2450ef19e1557f03bed3ea9f16b037cbe2dc981565b34801561053757600080fd5b5061017461054636600461123b565b610d9b565b60006105626000356001600160e01b031916610c76565b90506001600160a01b0381161580159061057f575060015460ff16155b6105d05760405162461bcd60e51b815260206004820152601d60248201527f50726f78793a20696d706c204f522070726f78792069732066616c736500000060448201526064015b60405180910390fd5b3660008037600080366000845af43d6000803e8080156105ef573d6000f35b3d6000fd5b505050565b60006001600160e01b03198216637965db0b60e01b148061062a57506301ffc9a760e01b6001600160e01b03198316145b92915050565b61063933610670565b6106555760405162461bcd60e51b81526004016105c790611373565b61066d600080516020611518833981519152826106af565b50565b600061062a60008051602061151883398151915283610d72565b6000828152602081905260409020600101546106a581610dc0565b6105f48383610dca565b6001600160a01b038116331461071f5760405162461bcd60e51b815260206004820152602f60248201527f416363657373436f6e74726f6c3a2063616e206f6e6c792072656e6f756e636560448201526e103937b632b9903337b91039b2b63360891b60648201526084016105c7565b6107298282610e4e565b5050565b61073633610670565b6107525760405162461bcd60e51b81526004016105c790611373565b6001600160a01b0381166107985760405162461bcd60e51b815260206004820152600d60248201526c696e707574206973207a65726f60981b60448201526064016105c7565b806001600160a01b03166107ac6000610eb3565b6001600160a01b0316036107ee5760405162461bcd60e51b815260206004820152600960248201526839b0b6b29030b2323960b91b60448201526064016105c7565b6107fb8160006001610ece565b6040516001600160a01b038216907fbc7cd75a20ee27fd9adebab32041f755214dbc6bffa90cc0225b39da2e5c2d3b90600090a250565b61083b33610670565b6108575760405162461bcd60e51b81526004016105c790611373565b816108a45760405162461bcd60e51b815260206004820181905260248201527f50726f78793a205f73656c6563746f727327732073697a65206973207a65726f60448201526064016105c7565b6001600160a01b03811660009081526003602052604090205460ff166109075760405162461bcd60e51b815260206004820152601860248201527750726f78793a205f696d70206973206e6f7420616c69766560401b60448201526064016105c7565b60005b82811015610a8957816001600160a01b031660046000868685818110610932576109326113b5565b905060200201602081019061094791906111c6565b6001600160e01b03191681526020810191909152604001600020546001600160a01b0316036109b85760405162461bcd60e51b815260206004820152601d60248201527f4c69717569646974795661756c7450726f78793a2073616d6520696d7000000060448201526064016105c7565b81600460008686858181106109cf576109cf6113b5565b90506020020160208101906109e491906111c6565b6001600160e01b0319168152602081019190915260400160002080546001600160a01b0319166001600160a01b039283161790558216848483818110610a2c57610a2c6113b5565b9050602002016020810190610a4191906111c6565b6001600160e01b0319167f14ebc1c32aa68f4d766e89f3e546cee249f7df25183fc10ab1568d91c2ce9b7b60405160405180910390a380610a81816113e1565b91505061090a565b50505050565b6000610a9b6000610eb3565b905090565b610aa933610670565b610ac55760405162461bcd60e51b81526004016105c790611373565b6107298282610f59565b610ad833610670565b610af45760405162461bcd60e51b81526004016105c790611373565b61066d6000805160206115188339815191528261068a565b610b1533610670565b610b315760405162461bcd60e51b81526004016105c790611373565b6001600160a01b038116610b825760405162461bcd60e51b815260206004820152601860248201527741636365737369626c653a207a65726f206164647265737360401b60448201526064016105c7565b6001600160a01b0381163303610bd35760405162461bcd60e51b815260206004820152601660248201527520b1b1b2b9b9b4b136329d1039b0b6b29030b236b4b760511b60448201526064016105c7565b610beb6000805160206115188339815191528261068a565b61066d600080516020611518833981519152336106af565b610c0c33610670565b610c285760405162461bcd60e51b81526004016105c790611373565b6001805460ff1916911515919091179055565b610c4433610670565b610c605760405162461bcd60e51b81526004016105c790611373565b6105f4838383610ece565b600061062a82610eb3565b6001600160e01b031981166000908152600460205260408120546001600160a01b0316610cd65750506000805260026020527fac33ff75c19e70fe83507db0d683fd3465c996598dc972688b7ace676c89077b546001600160a01b031690565b6001600160e01b031982166000908152600460209081526040808320546001600160a01b03168352600390915290205460ff1615610d3457506001600160e01b0319166000908152600460205260409020546001600160a01b031690565b50506000805260026020527fac33ff75c19e70fe83507db0d683fd3465c996598dc972688b7ace676c89077b546001600160a01b031690565b919050565b6000918252602082815260408084206001600160a01b0393909316845291905290205460ff1690565b600082815260208190526040902060010154610db681610dc0565b6105f48383610e4e565b61066d8133610fb8565b610dd48282610d72565b610729576000828152602081815260408083206001600160a01b03851684529091529020805460ff19166001179055610e0a3390565b6001600160a01b0316816001600160a01b0316837f2f8788117e7eff1d82e926ec794901d17c78024a50270940304540a733656f0d60405160405180910390a45050565b610e588282610d72565b15610729576000828152602081815260408083206001600160a01b0385168085529252808320805460ff1916905551339285917ff6391f5c32d9c69d2a47ea670b442974b53935d1edc7fd64eb21e047a839171b9190a45050565b6000908152600260205260409020546001600160a01b031690565b6001600160a01b0383163b610f255760405162461bcd60e51b815260206004820152601b60248201527f50726f78793a206e6f7420636f6e74726163742061646472657373000000000060448201526064016105c7565b8015610f5357600082815260026020526040902080546001600160a01b0319166001600160a01b0385161790555b6105f483825b6001600160a01b038216600081815260036020908152604091829020805460ff191685151590811790915591519182527f72558d9bfba4210f9ef095c782589484151f6d90f7a81bb3cb9b33efc695d324910160405180910390a25050565b610fc28282610d72565b61072957610fcf81611011565b610fda836020611023565b604051602001610feb92919061141e565b60408051601f198184030181529082905262461bcd60e51b82526105c79160040161148d565b606061062a6001600160a01b03831660145b606060006110328360026114c0565b61103d9060026114d7565b67ffffffffffffffff811115611055576110556114ea565b6040519080825280601f01601f19166020018201604052801561107f576020820181803683370190505b509050600360fc1b8160008151811061109a5761109a6113b5565b60200101906001600160f81b031916908160001a905350600f60fb1b816001815181106110c9576110c96113b5565b60200101906001600160f81b031916908160001a90535060006110ed8460026114c0565b6110f89060016114d7565b90505b6001811115611170576f181899199a1a9b1b9c1cb0b131b232b360811b85600f166010811061112c5761112c6113b5565b1a60f81b828281518110611142576111426113b5565b60200101906001600160f81b031916908160001a90535060049490941c9361116981611500565b90506110fb565b5083156111bf5760405162461bcd60e51b815260206004820181905260248201527f537472696e67733a20686578206c656e67746820696e73756666696369656e7460448201526064016105c7565b9392505050565b6000602082840312156111d857600080fd5b81356001600160e01b0319811681146111bf57600080fd5b80356001600160a01b0381168114610d6d57600080fd5b60006020828403121561121957600080fd5b6111bf826111f0565b60006020828403121561123457600080fd5b5035919050565b6000806040838503121561124e57600080fd5b8235915061125e602084016111f0565b90509250929050565b60008060006040848603121561127c57600080fd5b833567ffffffffffffffff8082111561129457600080fd5b818601915086601f8301126112a857600080fd5b8135818111156112b757600080fd5b8760208260051b85010111156112cc57600080fd5b6020928301955093506112e291860190506111f0565b90509250925092565b80358015158114610d6d57600080fd5b6000806040838503121561130e57600080fd5b611317836111f0565b915061125e602084016112eb565b60006020828403121561133757600080fd5b6111bf826112eb565b60008060006060848603121561135557600080fd5b61135e846111f0565b9250602084013591506112e2604085016112eb565b60208082526022908201527f41636365737369626c653a2043616c6c6572206973206e6f7420616e2061646d60408201526134b760f11b606082015260800190565b634e487b7160e01b600052603260045260246000fd5b634e487b7160e01b600052601160045260246000fd5b6000600182016113f3576113f36113cb565b5060010190565b60005b838110156114155781810151838201526020016113fd565b50506000910152565b76020b1b1b2b9b9a1b7b73a3937b61d1030b1b1b7bab73a1604d1b8152600083516114508160178501602088016113fa565b7001034b99036b4b9b9b4b733903937b6329607d1b60179184019182015283516114818160288401602088016113fa565b01602801949350505050565b60208152600082518060208401526114ac8160408501602087016113fa565b601f01601f19169190910160400192915050565b808202811582820484141761062a5761062a6113cb565b8082018082111561062a5761062a6113cb565b634e487b7160e01b600052604160045260246000fd5b60008161150f5761150f6113cb565b50600019019056fedf8b4c520ffe197c5343c6f5aec59570151ef9a492f2c624fd45ddde6135ec42a264697066735822122061cbda6097f87e62a80ab26add7c18ede34fc37e59a6eb5f19b1595fc2d5fb8064736f6c63430008120033df8b4c520ffe197c5343c6f5aec59570151ef9a492f2c624fd45ddde6135ec42",
  "linkReferences": {},
  "deployedLinkReferences": {}
}