{
  "_format": "hh-sol-artifact-1",
  "contractName": "AccessibleCommon",
  "sourceName": "contracts/common/AccessibleCommon.sol",
  "abi": [
    {
      "anonymous": false,
      "inputs": [
        {
          "indexed": true,
          "internalType": "bytes32",
          "name": "role",
          "type": "bytes32"
        },
        {
          "indexed": true,
          "internalType": "bytes32",
          "name": "previousAdminRole",
          "type": "bytes32"
        },
        {
          "indexed": true,
          "internalType": "bytes32",
          "name": "newAdminRole",
          "type": "bytes32"
        }
      ],
      "name": "RoleAdminChanged",
      "type": "event"
    },
    {
      "anonymous": false,
      "inputs": [
        {
          "indexed": true,
          "internalType": "bytes32",
          "name": "role",
          "type": "bytes32"
        },
        {
          "indexed": true,
          "internalType": "address",
          "name": "account",
          "type": "address"
        },
        {
          "indexed": true,
          "internalType": "address",
          "name": "sender",
          "type": "address"
        }
      ],
      "name": "RoleGranted",
      "type": "event"
    },
    {
      "anonymous": false,
      "inputs": [
        {
          "indexed": true,
          "internalType": "bytes32",
          "name": "role",
          "type": "bytes32"
        },
        {
          "indexed": true,
          "internalType": "address",
          "name": "account",
          "type": "address"
        },
        {
          "indexed": true,
          "internalType": "address",
          "name": "sender",
          "type": "address"
        }
      ],
      "name": "RoleRevoked",
      "type": "event"
    },
    {
      "inputs": [],
      "name": "ADMIN_ROLE",
      "outputs": [
        {
          "internalType": "bytes32",
          "name": "",
          "type": "bytes32"
        }
      ],
      "stateMutability": "view",
      "type": "function"
    },
    {
      "inputs": [],
      "name": "BURNER_ROLE",
      "outputs": [
        {
          "internalType": "bytes32",
          "name": "",
          "type": "bytes32"
        }
      ],
      "stateMutability": "view",
      "type": "function"
    },
    {
      "inputs": [],
      "name": "DEFAULT_ADMIN_ROLE",
      "outputs": [
        {
          "internalType": "bytes32",
          "name": "",
          "type": "bytes32"
        }
      ],
      "stateMutability": "view",
      "type": "function"
    },
    {
      "inputs": [],
      "name": "MINTER_ROLE",
      "outputs": [
        {
          "internalType": "bytes32",
          "name": "",
          "type": "bytes32"
        }
      ],
      "stateMutability": "view",
      "type": "function"
    },
    {
      "inputs": [
        {
          "internalType": "address",
          "name": "account",
          "type": "address"
        }
      ],
      "name": "addAdmin",
      "outputs": [],
      "stateMutability": "nonpayable",
      "type": "function"
    },
    {
      "inputs": [
        {
          "internalType": "bytes32",
          "name": "role",
          "type": "bytes32"
        }
      ],
      "name": "getRoleAdmin",
      "outputs": [
        {
          "internalType": "bytes32",
          "name": "",
          "type": "bytes32"
        }
      ],
      "stateMutability": "view",
      "type": "function"
    },
    {
      "inputs": [
        {
          "internalType": "bytes32",
          "name": "role",
          "type": "bytes32"
        },
        {
          "internalType": "address",
          "name": "account",
          "type": "address"
        }
      ],
      "name": "grantRole",
      "outputs": [],
      "stateMutability": "nonpayable",
      "type": "function"
    },
    {
      "inputs": [
        {
          "internalType": "bytes32",
          "name": "role",
          "type": "bytes32"
        },
        {
          "internalType": "address",
          "name": "account",
          "type": "address"
        }
      ],
      "name": "hasRole",
      "outputs": [
        {
          "internalType": "bool",
          "name": "",
          "type": "bool"
        }
      ],
      "stateMutability": "view",
      "type": "function"
    },
    {
      "inputs": [
        {
          "internalType": "address",
          "name": "account",
          "type": "address"
        }
      ],
      "name": "isAdmin",
      "outputs": [
        {
          "internalType": "bool",
          "name": "",
          "type": "bool"
        }
      ],
      "stateMutability": "view",
      "type": "function"
    },
    {
      "inputs": [
        {
          "internalType": "address",
          "name": "account",
          "type": "address"
        }
      ],
      "name": "removeAdmin",
      "outputs": [],
      "stateMutability": "nonpayable",
      "type": "function"
    },
    {
      "inputs": [
        {
          "internalType": "bytes32",
          "name": "role",
          "type": "bytes32"
        },
        {
          "internalType": "address",
          "name": "account",
          "type": "address"
        }
      ],
      "name": "renounceRole",
      "outputs": [],
      "stateMutability": "nonpayable",
      "type": "function"
    },
    {
      "inputs": [
        {
          "internalType": "bytes32",
          "name": "role",
          "type": "bytes32"
        },
        {
          "internalType": "address",
          "name": "account",
          "type": "address"
        }
      ],
      "name": "revokeRole",
      "outputs": [],
      "stateMutability": "nonpayable",
      "type": "function"
    },
    {
      "inputs": [
        {
          "internalType": "bytes4",
          "name": "interfaceId",
          "type": "bytes4"
        }
      ],
      "name": "supportsInterface",
      "outputs": [
        {
          "internalType": "bool",
          "name": "",
          "type": "bool"
        }
      ],
      "stateMutability": "view",
      "type": "function"
    },
    {
      "inputs": [
        {
          "internalType": "address",
          "name": "newAdmin",
          "type": "address"
        }
      ],
      "name": "transferAdmin",
      "outputs": [],
      "stateMutability": "nonpayable",
      "type": "function"
    }
  ],
  "bytecode": "0x608060405234801561001057600080fd5b50610a79806100206000396000f3fe608060405234801561001057600080fd5b50600436106100ca5760003560e01c8063704802751161007c578063704802751461019d57806375829def146101b057806375b238fc146101c357806391d14854146101d8578063a217fddf146101eb578063d5391393146101f3578063d547741f1461021a57600080fd5b806301ffc9a7146100cf5780631785f53c146100f7578063248a9ca31461010c57806324d7806c1461013d578063282c51f3146101505780632f2ff15d1461017757806336568abe1461018a575b600080fd5b6100e26100dd3660046107f2565b61022d565b60405190151581526020015b60405180910390f35b61010a610105366004610838565b610264565b005b61012f61011a366004610853565b60009081526020819052604090206001015490565b6040519081526020016100ee565b6100e261014b366004610838565b6102ad565b61012f7f9667e80708b6eeeb0053fa0cca44e028ff548e2a9f029edfeac87c118b08b7c881565b61010a61018536600461086c565b6102c7565b61010a61019836600461086c565b6102f1565b61010a6101ab366004610838565b61036f565b61010a6101be366004610838565b6103ac565b61012f600080516020610a2483398151915281565b6100e26101e636600461086c565b6104a3565b61012f600081565b61012f7ff0887ba65ee2024ea881d91b74c2450ef19e1557f03bed3ea9f16b037cbe2dc981565b61010a61022836600461086c565b6104cc565b60006001600160e01b03198216637965db0b60e01b148061025e57506301ffc9a760e01b6001600160e01b03198316145b92915050565b61026d336102ad565b6102925760405162461bcd60e51b815260040161028990610898565b60405180910390fd5b6102aa600080516020610a24833981519152826102f1565b50565b600061025e600080516020610a24833981519152836104a3565b6000828152602081905260409020600101546102e2816104f1565b6102ec83836104fb565b505050565b6001600160a01b03811633146103615760405162461bcd60e51b815260206004820152602f60248201527f416363657373436f6e74726f6c3a2063616e206f6e6c792072656e6f756e636560448201526e103937b632b9903337b91039b2b63360891b6064820152608401610289565b61036b828261057f565b5050565b610378336102ad565b6103945760405162461bcd60e51b815260040161028990610898565b6102aa600080516020610a24833981519152826102c7565b6103b5336102ad565b6103d15760405162461bcd60e51b815260040161028990610898565b6001600160a01b0381166104225760405162461bcd60e51b815260206004820152601860248201527741636365737369626c653a207a65726f206164647265737360401b6044820152606401610289565b6001600160a01b03811633036104735760405162461bcd60e51b815260206004820152601660248201527520b1b1b2b9b9b4b136329d1039b0b6b29030b236b4b760511b6044820152606401610289565b61048b600080516020610a24833981519152826102c7565b6102aa600080516020610a24833981519152336102f1565b6000918252602082815260408084206001600160a01b0393909316845291905290205460ff1690565b6000828152602081905260409020600101546104e7816104f1565b6102ec838361057f565b6102aa81336105e4565b61050582826104a3565b61036b576000828152602081815260408083206001600160a01b03851684529091529020805460ff1916600117905561053b3390565b6001600160a01b0316816001600160a01b0316837f2f8788117e7eff1d82e926ec794901d17c78024a50270940304540a733656f0d60405160405180910390a45050565b61058982826104a3565b1561036b576000828152602081815260408083206001600160a01b0385168085529252808320805460ff1916905551339285917ff6391f5c32d9c69d2a47ea670b442974b53935d1edc7fd64eb21e047a839171b9190a45050565b6105ee82826104a3565b61036b576105fb8161063d565b61060683602061064f565b6040516020016106179291906108fe565b60408051601f198184030181529082905262461bcd60e51b82526102899160040161096d565b606061025e6001600160a01b03831660145b6060600061065e8360026109b6565b6106699060026109cd565b67ffffffffffffffff811115610681576106816109e0565b6040519080825280601f01601f1916602001820160405280156106ab576020820181803683370190505b509050600360fc1b816000815181106106c6576106c66109f6565b60200101906001600160f81b031916908160001a905350600f60fb1b816001815181106106f5576106f56109f6565b60200101906001600160f81b031916908160001a90535060006107198460026109b6565b6107249060016109cd565b90505b600181111561079c576f181899199a1a9b1b9c1cb0b131b232b360811b85600f1660108110610758576107586109f6565b1a60f81b82828151811061076e5761076e6109f6565b60200101906001600160f81b031916908160001a90535060049490941c9361079581610a0c565b9050610727565b5083156107eb5760405162461bcd60e51b815260206004820181905260248201527f537472696e67733a20686578206c656e67746820696e73756666696369656e746044820152606401610289565b9392505050565b60006020828403121561080457600080fd5b81356001600160e01b0319811681146107eb57600080fd5b80356001600160a01b038116811461083357600080fd5b919050565b60006020828403121561084a57600080fd5b6107eb8261081c565b60006020828403121561086557600080fd5b5035919050565b6000806040838503121561087f57600080fd5b8235915061088f6020840161081c565b90509250929050565b60208082526022908201527f41636365737369626c653a2043616c6c6572206973206e6f7420616e2061646d60408201526134b760f11b606082015260800190565b60005b838110156108f55781810151838201526020016108dd565b50506000910152565b76020b1b1b2b9b9a1b7b73a3937b61d1030b1b1b7bab73a1604d1b8152600083516109308160178501602088016108da565b7001034b99036b4b9b9b4b733903937b6329607d1b60179184019182015283516109618160288401602088016108da565b01602801949350505050565b602081526000825180602084015261098c8160408501602087016108da565b601f01601f19169190910160400192915050565b634e487b7160e01b600052601160045260246000fd5b808202811582820484141761025e5761025e6109a0565b8082018082111561025e5761025e6109a0565b634e487b7160e01b600052604160045260246000fd5b634e487b7160e01b600052603260045260246000fd5b600081610a1b57610a1b6109a0565b50600019019056fedf8b4c520ffe197c5343c6f5aec59570151ef9a492f2c624fd45ddde6135ec42a2646970667358221220235407690b6c8c5e56d58c6934454215fbf9708aba158f7cb40ec59407a71cb964736f6c63430008120033",
  "linkReferences": {},
  "deployedLinkReferences": {}
}