{
  "_format": "hh-sol-artifact-1",
  "contractName": "ProxyAccessCommon",
  "sourceName": "contracts/common/ProxyAccessCommon.sol",
  "abi": [
    {
      "anonymous": false,
      "inputs": [
        {
          "indexed": true,
          "internalType": "bytes32",
          "name": "role",
          "type": "bytes32"
        },
        {
          "indexed": true,
          "internalType": "bytes32",
          "name": "previousAdminRole",
          "type": "bytes32"
        },
        {
          "indexed": true,
          "internalType": "bytes32",
          "name": "newAdminRole",
          "type": "bytes32"
        }
      ],
      "name": "RoleAdminChanged",
      "type": "event"
    },
    {
      "anonymous": false,
      "inputs": [
        {
          "indexed": true,
          "internalType": "bytes32",
          "name": "role",
          "type": "bytes32"
        },
        {
          "indexed": true,
          "internalType": "address",
          "name": "account",
          "type": "address"
        },
        {
          "indexed": true,
          "internalType": "address",
          "name": "sender",
          "type": "address"
        }
      ],
      "name": "RoleGranted",
      "type": "event"
    },
    {
      "anonymous": false,
      "inputs": [
        {
          "indexed": true,
          "internalType": "bytes32",
          "name": "role",
          "type": "bytes32"
        },
        {
          "indexed": true,
          "internalType": "address",
          "name": "account",
          "type": "address"
        },
        {
          "indexed": true,
          "internalType": "address",
          "name": "sender",
          "type": "address"
        }
      ],
      "name": "RoleRevoked",
      "type": "event"
    },
    {
      "inputs": [],
      "name": "ADMIN_ROLE",
      "outputs": [
        {
          "internalType": "bytes32",
          "name": "",
          "type": "bytes32"
        }
      ],
      "stateMutability": "view",
      "type": "function"
    },
    {
      "inputs": [],
      "name": "BURNER_ROLE",
      "outputs": [
        {
          "internalType": "bytes32",
          "name": "",
          "type": "bytes32"
        }
      ],
      "stateMutability": "view",
      "type": "function"
    },
    {
      "inputs": [],
      "name": "DEFAULT_ADMIN_ROLE",
      "outputs": [
        {
          "internalType": "bytes32",
          "name": "",
          "type": "bytes32"
        }
      ],
      "stateMutability": "view",
      "type": "function"
    },
    {
      "inputs": [],
      "name": "MINTER_ROLE",
      "outputs": [
        {
          "internalType": "bytes32",
          "name": "",
          "type": "bytes32"
        }
      ],
      "stateMutability": "view",
      "type": "function"
    },
    {
      "inputs": [
        {
          "internalType": "address",
          "name": "account",
          "type": "address"
        }
      ],
      "name": "addAdmin",
      "outputs": [],
      "stateMutability": "nonpayable",
      "type": "function"
    },
    {
      "inputs": [
        {
          "internalType": "address",
          "name": "_owner",
          "type": "address"
        }
      ],
      "name": "addProxyAdmin",
      "outputs": [],
      "stateMutability": "nonpayable",
      "type": "function"
    },
    {
      "inputs": [
        {
          "internalType": "bytes32",
          "name": "role",
          "type": "bytes32"
        }
      ],
      "name": "getRoleAdmin",
      "outputs": [
        {
          "internalType": "bytes32",
          "name": "",
          "type": "bytes32"
        }
      ],
      "stateMutability": "view",
      "type": "function"
    },
    {
      "inputs": [
        {
          "internalType": "bytes32",
          "name": "role",
          "type": "bytes32"
        },
        {
          "internalType": "address",
          "name": "account",
          "type": "address"
        }
      ],
      "name": "grantRole",
      "outputs": [],
      "stateMutability": "nonpayable",
      "type": "function"
    },
    {
      "inputs": [
        {
          "internalType": "bytes32",
          "name": "role",
          "type": "bytes32"
        },
        {
          "internalType": "address",
          "name": "account",
          "type": "address"
        }
      ],
      "name": "hasRole",
      "outputs": [
        {
          "internalType": "bool",
          "name": "",
          "type": "bool"
        }
      ],
      "stateMutability": "view",
      "type": "function"
    },
    {
      "inputs": [
        {
          "internalType": "address",
          "name": "account",
          "type": "address"
        }
      ],
      "name": "isAdmin",
      "outputs": [
        {
          "internalType": "bool",
          "name": "",
          "type": "bool"
        }
      ],
      "stateMutability": "view",
      "type": "function"
    },
    {
      "inputs": [
        {
          "internalType": "address",
          "name": "account",
          "type": "address"
        }
      ],
      "name": "isProxyAdmin",
      "outputs": [
        {
          "internalType": "bool",
          "name": "",
          "type": "bool"
        }
      ],
      "stateMutability": "view",
      "type": "function"
    },
    {
      "inputs": [],
      "name": "removeAdmin",
      "outputs": [],
      "stateMutability": "nonpayable",
      "type": "function"
    },
    {
      "inputs": [],
      "name": "removeProxyAdmin",
      "outputs": [],
      "stateMutability": "nonpayable",
      "type": "function"
    },
    {
      "inputs": [
        {
          "internalType": "bytes32",
          "name": "role",
          "type": "bytes32"
        },
        {
          "internalType": "address",
          "name": "account",
          "type": "address"
        }
      ],
      "name": "renounceRole",
      "outputs": [],
      "stateMutability": "nonpayable",
      "type": "function"
    },
    {
      "inputs": [
        {
          "internalType": "bytes32",
          "name": "role",
          "type": "bytes32"
        },
        {
          "internalType": "address",
          "name": "account",
          "type": "address"
        }
      ],
      "name": "revokeRole",
      "outputs": [],
      "stateMutability": "nonpayable",
      "type": "function"
    },
    {
      "inputs": [
        {
          "internalType": "bytes4",
          "name": "interfaceId",
          "type": "bytes4"
        }
      ],
      "name": "supportsInterface",
      "outputs": [
        {
          "internalType": "bool",
          "name": "",
          "type": "bool"
        }
      ],
      "stateMutability": "view",
      "type": "function"
    },
    {
      "inputs": [
        {
          "internalType": "address",
          "name": "newAdmin",
          "type": "address"
        }
      ],
      "name": "transferAdmin",
      "outputs": [],
      "stateMutability": "nonpayable",
      "type": "function"
    },
    {
      "inputs": [
        {
          "internalType": "address",
          "name": "newAdmin",
          "type": "address"
        }
      ],
      "name": "transferProxyAdmin",
      "outputs": [],
      "stateMutability": "nonpayable",
      "type": "function"
    }
  ],
  "bytecode": "0x608060405234801561001057600080fd5b50610c4c806100206000396000f3fe608060405234801561001057600080fd5b50600436106100f65760003560e01c80638356ca4f116100925780638356ca4f146101f157806391d148541461020457806396f1557c146102175780639a202d471461022a578063a217fddf14610232578063be72f2d31461023a578063d539139314610242578063d547741f14610269578063f47f2f1d1461027c57600080fd5b806301ffc9a7146100fb578063248a9ca31461012357806324d7806c14610154578063282c51f3146101675780632f2ff15d1461018e57806336568abe146101a357806370480275146101b657806375829def146101c957806375b238fc146101dc575b600080fd5b61010e61010936600461091b565b61028f565b60405190151581526020015b60405180910390f35b610146610131366004610945565b60009081526020819052604090206001015490565b60405190815260200161011a565b61010e61016236600461097a565b6102c6565b6101467f9667e80708b6eeeb0053fa0cca44e028ff548e2a9f029edfeac87c118b08b7c881565b6101a161019c366004610995565b6102e0565b005b6101a16101b1366004610995565b61030a565b6101a16101c436600461097a565b61038d565b6101a16101d736600461097a565b6103cd565b610146600080516020610bf783398151915281565b6101a16101ff36600461097a565b61047f565b61010e610212366004610995565b610508565b6101a161022536600461097a565b610531565b6101a1610561565b610146600081565b6101a16105af565b6101467ff0887ba65ee2024ea881d91b74c2450ef19e1557f03bed3ea9f16b037cbe2dc981565b6101a1610277366004610995565b6105df565b61010e61028a36600461097a565b610604565b60006001600160e01b03198216637965db0b60e01b14806102c057506301ffc9a760e01b6001600160e01b03198316145b92915050565b60006102c0600080516020610bf783398151915283610508565b6000828152602081905260409020600101546102fb81610610565b610305838361061a565b505050565b6001600160a01b038116331461037f5760405162461bcd60e51b815260206004820152602f60248201527f416363657373436f6e74726f6c3a2063616e206f6e6c792072656e6f756e636560448201526e103937b632b9903337b91039b2b63360891b60648201526084015b60405180910390fd5b610389828261069e565b5050565b61039633610604565b6103b25760405162461bcd60e51b8152600401610376906109c1565b6103ca600080516020610bf7833981519152826102e0565b50565b6103d6336102c6565b806103e557506103e533610604565b6104015760405162461bcd60e51b815260040161037690610a09565b6001600160a01b0381166104275760405162461bcd60e51b815260040161037690610a4b565b6001600160a01b038116330361044f5760405162461bcd60e51b815260040161037690610a7d565b610467600080516020610bf7833981519152826102e0565b6103ca600080516020610bf78339815191523361030a565b61048833610604565b6104a45760405162461bcd60e51b8152600401610376906109c1565b6001600160a01b0381166104ca5760405162461bcd60e51b815260040161037690610a4b565b6001600160a01b03811633036104f25760405162461bcd60e51b815260040161037690610a7d565b6104fd6000826102e0565b6103ca60003361030a565b6000918252602082815260408084206001600160a01b0393909316845291905290205460ff1690565b61053a33610604565b6105565760405162461bcd60e51b8152600401610376906109c1565b6103ca600082610703565b61056a336102c6565b80610579575061057933610604565b6105955760405162461bcd60e51b815260040161037690610a09565b6105ad600080516020610bf78339815191523361030a565b565b6105b833610604565b6105d45760405162461bcd60e51b8152600401610376906109c1565b6105ad60003361030a565b6000828152602081905260409020600101546105fa81610610565b610305838361069e565b60006102c08183610508565b6103ca813361070d565b6106248282610508565b610389576000828152602081815260408083206001600160a01b03851684529091529020805460ff1916600117905561065a3390565b6001600160a01b0316816001600160a01b0316837f2f8788117e7eff1d82e926ec794901d17c78024a50270940304540a733656f0d60405160405180910390a45050565b6106a88282610508565b15610389576000828152602081815260408083206001600160a01b0385168085529252808320805460ff1916905551339285917ff6391f5c32d9c69d2a47ea670b442974b53935d1edc7fd64eb21e047a839171b9190a45050565b610389828261061a565b6107178282610508565b6103895761072481610766565b61072f836020610778565b604051602001610740929190610ad1565b60408051601f198184030181529082905262461bcd60e51b825261037691600401610b40565b60606102c06001600160a01b03831660145b60606000610787836002610b89565b610792906002610ba0565b67ffffffffffffffff8111156107aa576107aa610bb3565b6040519080825280601f01601f1916602001820160405280156107d4576020820181803683370190505b509050600360fc1b816000815181106107ef576107ef610bc9565b60200101906001600160f81b031916908160001a905350600f60fb1b8160018151811061081e5761081e610bc9565b60200101906001600160f81b031916908160001a9053506000610842846002610b89565b61084d906001610ba0565b90505b60018111156108c5576f181899199a1a9b1b9c1cb0b131b232b360811b85600f166010811061088157610881610bc9565b1a60f81b82828151811061089757610897610bc9565b60200101906001600160f81b031916908160001a90535060049490941c936108be81610bdf565b9050610850565b5083156109145760405162461bcd60e51b815260206004820181905260248201527f537472696e67733a20686578206c656e67746820696e73756666696369656e746044820152606401610376565b9392505050565b60006020828403121561092d57600080fd5b81356001600160e01b03198116811461091457600080fd5b60006020828403121561095757600080fd5b5035919050565b80356001600160a01b038116811461097557600080fd5b919050565b60006020828403121561098c57600080fd5b6109148261095e565b600080604083850312156109a857600080fd5b823591506109b86020840161095e565b90509250929050565b60208082526028908201527f41636365737369626c653a2043616c6c6572206973206e6f7420616e2070726f6040820152673c3c9030b236b4b760c11b606082015260800190565b60208082526022908201527f41636365737369626c653a2043616c6c6572206973206e6f7420616e2061646d60408201526134b760f11b606082015260800190565b60208082526018908201527741636365737369626c653a207a65726f206164647265737360401b604082015260600190565b60208082526016908201527520b1b1b2b9b9b4b136329d1039b0b6b29030b236b4b760511b604082015260600190565b60005b83811015610ac8578181015183820152602001610ab0565b50506000910152565b76020b1b1b2b9b9a1b7b73a3937b61d1030b1b1b7bab73a1604d1b815260008351610b03816017850160208801610aad565b7001034b99036b4b9b9b4b733903937b6329607d1b6017918401918201528351610b34816028840160208801610aad565b01602801949350505050565b6020815260008251806020840152610b5f816040850160208701610aad565b601f01601f19169190910160400192915050565b634e487b7160e01b600052601160045260246000fd5b80820281158282048414176102c0576102c0610b73565b808201808211156102c0576102c0610b73565b634e487b7160e01b600052604160045260246000fd5b634e487b7160e01b600052603260045260246000fd5b600081610bee57610bee610b73565b50600019019056fedf8b4c520ffe197c5343c6f5aec59570151ef9a492f2c624fd45ddde6135ec42a2646970667358221220155e4f46737ecd8e06f9f57acae748d9e8b20c8879e4e2b3d304a42c1b1bff6164736f6c63430008120033",
  "linkReferences": {},
  "deployedLinkReferences": {}
}