{
  "_format": "hh-sol-artifact-1",
  "contractName": "CandidateStorage",
  "sourceName": "contracts/storages/CandidateStorage.sol",
  "abi": [
    {
      "inputs": [
        {
          "internalType": "uint32",
          "name": "",
          "type": "uint32"
        },
        {
          "internalType": "address",
          "name": "",
          "type": "address"
        }
      ],
      "name": "operators",
      "outputs": [
        {
          "internalType": "uint32",
          "name": "",
          "type": "uint32"
        }
      ],
      "stateMutability": "view",
      "type": "function"
    }
  ],
  "bytecode": "0x608060405234801561001057600080fd5b5060f28061001f6000396000f3fe6080604052348015600f57600080fd5b506004361060285760003560e01c8063fde4819714602d575b600080fd5b605860383660046071565b600060208181529281526040808220909352908152205463ffffffff1681565b60405163ffffffff909116815260200160405180910390f35b60008060408385031215608357600080fd5b823563ffffffff81168114609657600080fd5b915060208301356001600160a01b038116811460b157600080fd5b80915050925092905056fea26469706673582212209fbea0e2c27637bef5a8dee7861d845d24f89b004b33c23d62b35c9b964c06eb64736f6c63430008120033",
  "linkReferences": {},
  "deployedLinkReferences": {}
}