{
  "_format": "hh-sol-artifact-1",
  "contractName": "LibOptimism",
  "sourceName": "contracts/libraries/LibOptimism.sol",
  "abi": [
    {
      "inputs": [
        {
          "internalType": "bytes",
          "name": "data",
          "type": "bytes"
        }
      ],
      "name": "getAddressManager",
      "outputs": [
        {
          "internalType": "address",
          "name": "addr",
          "type": "address"
        }
      ],
      "stateMutability": "pure",
      "type": "function"
    },
    {
      "inputs": [
        {
          "internalType": "address",
          "name": "addressManager",
          "type": "address"
        },
        {
          "internalType": "address",
          "name": "l1Bridge",
          "type": "address"
        },
        {
          "internalType": "address",
          "name": "l2Bridge",
          "type": "address"
        },
        {
          "internalType": "address",
          "name": "l2ton",
          "type": "address"
        }
      ],
      "name": "getKey",
      "outputs": [
        {
          "internalType": "bytes32",
          "name": "key_",
          "type": "bytes32"
        }
      ],
      "stateMutability": "pure",
      "type": "function"
    },
    {
      "inputs": [
        {
          "internalType": "bytes",
          "name": "data",
          "type": "bytes"
        }
      ],
      "name": "parseKey",
      "outputs": [
        {
          "components": [
            {
              "internalType": "address",
              "name": "addressManager",
              "type": "address"
            },
            {
              "internalType": "address",
              "name": "l1Bridge",
              "type": "address"
            },
            {
              "internalType": "address",
              "name": "l2Bridge",
              "type": "address"
            },
            {
              "internalType": "address",
              "name": "l2ton",
              "type": "address"
            }
          ],
          "internalType": "struct LibOptimism.Info",
          "name": "info",
          "type": "tuple"
        }
      ],
      "stateMutability": "pure",
      "type": "function"
    }
  ],
  "bytecode": "0x61045161003a600b82828239805160001a60731461002d57634e487b7160e01b600052600060045260246000fd5b30600052607381538281f3fe730000000000000000000000000000000000000000301460806040526004361061004b5760003560e01c806361b2a1bc14610050578063cd13ec87146100af578063f341810e1461012b575b600080fd5b61006361005e3660046102de565b610156565b6040516100a6919081516001600160a01b039081168252602080840151821690830152604080840151821690830152606092830151169181019190915260800190565b60405180910390f35b61011d6100bd3660046103a6565b6040516bffffffffffffffffffffffff19606086811b8216602084015285811b8216603484015284811b8216604884015283901b16605c820152600090607001604051602081830303815290604052805190602001209050949350505050565b6040519081526020016100a6565b61013e6101393660046102de565b6101f9565b6040516001600160a01b0390911681526020016100a6565b604080516080810182526000808252602082018190529181018290526060810191909152604f825111156101f45760408051608081019091528061019b846000610216565b6001600160a01b031681526020016101b4846014610216565b6001600160a01b031681526020016101cd846028610216565b6001600160a01b031681526020016101e684603c610216565b6001600160a01b0316905290505b919050565b60006014825111156101f457610210826000610216565b92915050565b6000816102248160146103fa565b101561026c5760405162461bcd60e51b8152602060048201526012602482015271746f416464726573735f6f766572666c6f7760701b60448201526064015b60405180910390fd5b6102778260146103fa565b835110156102bf5760405162461bcd60e51b8152602060048201526015602482015274746f416464726573735f6f75744f66426f756e647360581b6044820152606401610263565b50016014015190565b634e487b7160e01b600052604160045260246000fd5b6000602082840312156102f057600080fd5b813567ffffffffffffffff8082111561030857600080fd5b818401915084601f83011261031c57600080fd5b81358181111561032e5761032e6102c8565b604051601f8201601f19908116603f01168101908382118183101715610356576103566102c8565b8160405282815287602084870101111561036f57600080fd5b826020860160208301376000928101602001929092525095945050505050565b80356001600160a01b03811681146101f457600080fd5b600080600080608085870312156103bc57600080fd5b6103c58561038f565b93506103d36020860161038f565b92506103e16040860161038f565b91506103ef6060860161038f565b905092959194509250565b8082018082111561021057634e487b7160e01b600052601160045260246000fdfea264697066735822122057ebb71c727e558c0fb8926196a6c7a5f86c6f147e4e10ad062cb3d58761996f64736f6c63430008120033",
  "linkReferences": {},
  "deployedLinkReferences": {}
}