{
  "_format": "hh-sol-artifact-1",
  "contractName": "CandidateFactory",
  "sourceName": "contracts/test/CandidateFactory.sol",
  "abi": [
    {
      "inputs": [
        {
          "internalType": "address",
          "name": "_candidate",
          "type": "address"
        },
        {
          "internalType": "bool",
          "name": "_isLayer2Candidate",
          "type": "bool"
        },
        {
          "internalType": "string",
          "name": "_name",
          "type": "string"
        },
        {
          "internalType": "address",
          "name": "_committee",
          "type": "address"
        },
        {
          "internalType": "address",
          "name": "_seigManager",
          "type": "address"
        }
      ],
      "name": "deploy",
      "outputs": [
        {
          "internalType": "address",
          "name": "",
          "type": "address"
        }
      ],
      "stateMutability": "nonpayable",
      "type": "function"
    }
  ],
  "bytecode": "0x608060405234801561001057600080fd5b50611c30806100206000396000f3fe608060405234801561001057600080fd5b506004361061002b5760003560e01c8063e64a31f614610030575b600080fd5b61004361003e366004610147565b61005f565b6040516001600160a01b03909116815260200160405180910390f35b600080868686868660405161007390610108565b610081959493929190610242565b604051809103906000f08015801561009d573d6000803e3d6000fd5b5060405163f2fde38b60e01b81526001600160a01b0386811660048301529192509082169063f2fde38b90602401600060405180830381600087803b1580156100e557600080fd5b505af11580156100f9573d6000803e3d6000fd5b50929998505050505050505050565b61192b806102d083390190565b80356001600160a01b038116811461012c57600080fd5b919050565b634e487b7160e01b600052604160045260246000fd5b600080600080600060a0868803121561015f57600080fd5b61016886610115565b94506020860135801515811461017d57600080fd5b9350604086013567ffffffffffffffff8082111561019a57600080fd5b818801915088601f8301126101ae57600080fd5b8135818111156101c0576101c0610131565b604051601f8201601f19908116603f011681019083821181831017156101e8576101e8610131565b816040528281528b602084870101111561020157600080fd5b82602086016020830137600060208483010152809750505050505061022860608701610115565b915061023660808701610115565b90509295509295909350565b60018060a01b0386168152600060208615158184015260a0604084015285518060a085015260005b818110156102865787810183015185820160c00152820161026a565b50600060c0828601015260c0601f19601f830116850101925050506102b660608301856001600160a01b03169052565b6001600160a01b0383166080830152969550505050505056fe60806040523480156200001157600080fd5b506040516200192b3803806200192b833981016040819052620000349162000350565b6200003f3362000238565b620000516301ffc9a760e01b62000288565b6001600160a01b0385161515806200007157506001600160a01b03821615155b806200008557506001600160a01b03811615155b620000d75760405162461bcd60e51b815260206004820152601860248201527f43616e6469646174653a20696e707574206973207a65726f000000000000000060448201526064015b60405180910390fd5b600280546001600160a81b0319166101006001600160a01b0388160260ff191617851515179081905560ff1615620001dc57600260019054906101000a90046001600160a01b03166001600160a01b031663882eed2c6040518163ffffffff1660e01b8152600401602060405180830381865afa1580156200015d573d6000803e3d6000fd5b505050506040513d601f19601f8201168201806040525081019062000183919062000470565b620001dc5760405162461bcd60e51b815260206004820152602260248201527f43616e6469646174653a20696e76616c6964206c617965723220636f6e74726160448201526118dd60f21b6064820152608401620000ce565b600480546001600160a01b038085166001600160a01b031992831617909255600580549284169290911691909117905560036200021a848262000524565b506200022d631dffc87160e21b62000288565b5050505050620005f0565b600080546001600160a01b038381166001600160a01b0319831681178455604051919092169283917f8be0079c531659141344cd1fd0a4f28419497f9722a3daafe3b4186f6b6457e09190a35050565b6001600160e01b03198082169003620002e45760405162461bcd60e51b815260206004820152601c60248201527f4552433136353a20696e76616c696420696e74657266616365206964000000006044820152606401620000ce565b6001600160e01b0319166000908152600160208190526040909120805460ff19169091179055565b80516001600160a01b03811681146200032457600080fd5b919050565b805180151581146200032457600080fd5b634e487b7160e01b600052604160045260246000fd5b600080600080600060a086880312156200036957600080fd5b62000374866200030c565b945060206200038581880162000329565b60408801519095506001600160401b0380821115620003a357600080fd5b818901915089601f830112620003b857600080fd5b815181811115620003cd57620003cd6200033a565b604051601f8201601f19908116603f01168101908382118183101715620003f857620003f86200033a565b816040528281528c868487010111156200041157600080fd5b600093505b8284101562000435578484018601518185018701529285019262000416565b600086848301015280985050505050505062000454606087016200030c565b915062000464608087016200030c565b90509295509295909350565b6000602082840312156200048357600080fd5b6200048e8262000329565b9392505050565b600181811c90821680620004aa57607f821691505b602082108103620004cb57634e487b7160e01b600052602260045260246000fd5b50919050565b601f8211156200051f57600081815260208120601f850160051c81016020861015620004fa5750805b601f850160051c820191505b818110156200051b5782815560010162000506565b5050505b505050565b81516001600160401b038111156200054057620005406200033a565b620005588162000551845462000495565b84620004d1565b602080601f831160018114620005905760008415620005775750858301515b600019600386901b1c1916600185901b1785556200051b565b600085815260208120601f198616915b82811015620005c157888601518255948401946001909101908401620005a0565b5085821015620005e05787850151600019600388901b60f8161c191681555b5050505050600190811b01905550565b61132b80620006006000396000f3fe608060405234801561001057600080fd5b50600436106101585760003560e01c80637657f20a116100c35780639b6382681161007c5780639b63826814610291578063af500ba31461029e578063bddae40e146102b1578063c4ef9c00146102c4578063d864e740146102cc578063f2fde38b146102df57600080fd5b80637657f20a1461025657806377ff21c414610269578063817b1cd214610270578063882eed2c146102695780638bf7a3ab146102785780638da5cb5b1461028057600080fd5b8063570ca73511610115578063570ca735146101e757806358c3b870146102065780636c8381f81461021b5780636fb7f55814610233578063715018a614610246578063764a78561461024e57600080fd5b806306394c9b1461015d57806311e4c9141461017057806311f19e0414610197578063183d2d1c146101ba57806324f99b1e146101c157806325d60861146101d4575b600080fd5b61016e61016b366004610ead565b50565b005b61018461017e366004610eca565b50600190565b6040519081526020015b60405180910390f35b6101aa6101a5366004610eca565b6102f2565b604051901515815260200161018e565b6001610184565b61016e6101cf366004610f2c565b61045d565b61016e6101e2366004610f7f565b6105b6565b60025461010090046001600160a01b03165b60405161018e9190610fc1565b61020e6105d0565b60405161018e9190610fd5565b6002546101f99061010090046001600160a01b031681565b6005546101f9906001600160a01b031681565b61016e61065e565b6101aa610672565b61016e610264366004610ead565b6107c4565b60016101aa565b610184610814565b61016e610889565b6000546001600160a01b03166101f9565b6002546101aa9060ff1681565b6101846102ac366004610ead565b610a7e565b61016e6102bf366004610ead565b610b00565b6101aa610b50565b6004546101f9906001600160a01b031681565b61016e6102ed366004610ead565b610c87565b60025460009060ff16156103bb576000600260019054906101000a90046001600160a01b03169050336001600160a01b0316816001600160a01b031663570ca7356040518163ffffffff1660e01b8152600401602060405180830381865afa158015610362573d6000803e3d6000fd5b505050506040513d601f19601f820116820180604052508101906103869190611023565b6001600160a01b0316146103b55760405162461bcd60e51b81526004016103ac90611040565b60405180910390fd5b506103ea565b60025461010090046001600160a01b031633146103ea5760405162461bcd60e51b81526004016103ac90611096565b6004805460405163047c678160e21b81529182018490526001600160a01b0316906311f19e04906024016020604051808303816000875af1158015610433573d6000803e3d6000fd5b505050506040513d601f19601f8201168201806040525081019061045791906110ed565b92915050565b60025460ff161561051a576000600260019054906101000a90046001600160a01b03169050336001600160a01b0316816001600160a01b031663570ca7356040518163ffffffff1660e01b8152600401602060405180830381865afa1580156104ca573d6000803e3d6000fd5b505050506040513d601f19601f820116820180604052508101906104ee9190611023565b6001600160a01b0316146105145760405162461bcd60e51b81526004016103ac90611040565b50610549565b60025461010090046001600160a01b031633146105495760405162461bcd60e51b81526004016103ac90611096565b6004805460405163127ccd8f60e11b81526001600160a01b03909116916324f99b1e9161057e9188918891889188910161110f565b600060405180830381600087803b15801561059857600080fd5b505af11580156105ac573d6000803e3d6000fd5b5050505050505050565b6105be610cfd565b60036105cb8284836111ea565b505050565b600380546105dd90611162565b80601f016020809104026020016040519081016040528092919081815260200182805461060990611162565b80156106565780601f1061062b57610100808354040283529160200191610656565b820191906000526020600020905b81548152906001019060200180831161063957829003601f168201915b505050505081565b610666610cfd565b6106706000610d57565b565b6005546000906001600160a01b03166106cd5760405162461bcd60e51b815260206004820152601e60248201527f43616e6469646174653a20536569674d616e61676572206973207a65726f000060448201526064016103ac565b60025460ff16156107465760405162461bcd60e51b815260206004820152603d60248201527f43616e6469646174653a20796f752073686f756c64207570646174652073656960448201527f676e696f726167652066726f6d206c617965723220636f6e747261637400000060648201526084016103ac565b600560009054906101000a90046001600160a01b03166001600160a01b031663764a78566040518163ffffffff1660e01b81526004016020604051808303816000875af115801561079b573d6000803e3d6000fd5b505050506040513d601f19601f820116820180604052508101906107bf91906110ed565b905090565b6107cc610cfd565b6001600160a01b0381166107f25760405162461bcd60e51b81526004016103ac906112aa565b600580546001600160a01b0319166001600160a01b0392909216919091179055565b60008061081f610da7565b9050806001600160a01b03166318160ddd6040518163ffffffff1660e01b8152600401602060405180830381865afa15801561085f573d6000803e3d6000fd5b505050506040513d601f19601f8201168201806040525081019061088391906112dc565b91505090565b60025460ff1615610946576000600260019054906101000a90046001600160a01b03169050336001600160a01b0316816001600160a01b031663570ca7356040518163ffffffff1660e01b8152600401602060405180830381865afa1580156108f6573d6000803e3d6000fd5b505050506040513d601f19601f8201168201806040525081019061091a9190611023565b6001600160a01b0316146109405760405162461bcd60e51b81526004016103ac90611040565b50610975565b60025461010090046001600160a01b031633146109755760405162461bcd60e51b81526004016103ac90611096565b60025460009060ff1615610a07576000600260019054906101000a90046001600160a01b03169050806001600160a01b031663570ca7356040518163ffffffff1660e01b8152600401602060405180830381865afa1580156109db573d6000803e3d6000fd5b505050506040513d601f19601f820116820180604052508101906109ff9190611023565b915050610a1a565b5060025461010090046001600160a01b03165b60048054604051636becff2760e01b81526001600160a01b0390911691636becff2791610a4991859101610fc1565b600060405180830381600087803b158015610a6357600080fd5b505af1158015610a77573d6000803e3d6000fd5b5050505050565b600080610a89610da7565b6040516370a0823160e01b81529091506001600160a01b038216906370a0823190610ab8908690600401610fc1565b602060405180830381865afa158015610ad5573d6000803e3d6000fd5b505050506040513d601f19601f82011682018060405250810190610af991906112dc565b9392505050565b610b08610cfd565b6001600160a01b038116610b2e5760405162461bcd60e51b81526004016103ac906112aa565b600480546001600160a01b0319166001600160a01b0392909216919091179055565b60025460009060ff1615610c10576000600260019054906101000a90046001600160a01b03169050336001600160a01b0316816001600160a01b031663570ca7356040518163ffffffff1660e01b8152600401602060405180830381865afa158015610bc0573d6000803e3d6000fd5b505050506040513d601f19601f82011682018060405250810190610be49190611023565b6001600160a01b031614610c0a5760405162461bcd60e51b81526004016103ac90611040565b50610c3f565b60025461010090046001600160a01b03163314610c3f5760405162461bcd60e51b81526004016103ac90611096565b600480546040805162313be760ea1b815290516001600160a01b039092169263c4ef9c0092828201926020929082900301816000875af115801561079b573d6000803e3d6000fd5b610c8f610cfd565b6001600160a01b038116610cf45760405162461bcd60e51b815260206004820152602660248201527f4f776e61626c653a206e6577206f776e657220697320746865207a65726f206160448201526564647265737360d01b60648201526084016103ac565b61016b81610d57565b6000546001600160a01b031633146106705760405162461bcd60e51b815260206004820181905260248201527f4f776e61626c653a2063616c6c6572206973206e6f7420746865206f776e657260448201526064016103ac565b600080546001600160a01b038381166001600160a01b0319831681178455604051919092169283917f8be0079c531659141344cd1fd0a4f28419497f9722a3daafe3b4186f6b6457e09190a35050565b600254600090819060ff1615610dce575060025461010090046001600160a01b0316610dd1565b50305b6001600160a01b038116610e275760405162461bcd60e51b815260206004820152601a60248201527f43616e6469646174653a20636f696e616765206973207a65726f00000000000060448201526064016103ac565b600554604051634c063c1960e01b81526001600160a01b0390911690634c063c1990610e57908490600401610fc1565b602060405180830381865afa158015610e74573d6000803e3d6000fd5b505050506040513d601f19601f820116820180604052508101906108839190611023565b6001600160a01b038116811461016b57600080fd5b600060208284031215610ebf57600080fd5b8135610af981610e98565b600060208284031215610edc57600080fd5b5035919050565b60008083601f840112610ef557600080fd5b50813567ffffffffffffffff811115610f0d57600080fd5b602083019150836020828501011115610f2557600080fd5b9250929050565b60008060008060608587031215610f4257600080fd5b8435935060208501359250604085013567ffffffffffffffff811115610f6757600080fd5b610f7387828801610ee3565b95989497509550505050565b60008060208385031215610f9257600080fd5b823567ffffffffffffffff811115610fa957600080fd5b610fb585828601610ee3565b90969095509350505050565b6001600160a01b0391909116815260200190565b600060208083528351808285015260005b8181101561100257858101830151858201604001528201610fe6565b506000604082860101526040601f19601f8301168501019250505092915050565b60006020828403121561103557600080fd5b8151610af981610e98565b60208082526036908201527f43616e6469646174653a2073656e646572206973206e6f7420746865206f70656040820152751c985d1bdc881bd9881d1a1a5cc818dbdb9d1c9858dd60521b606082015260800190565b60208082526037908201527f43616e6469646174653a2073656e646572206973206e6f74207468652063616e604082015276191a59185d19481bd9881d1a1a5cc818dbdb9d1c9858dd604a1b606082015260800190565b6000602082840312156110ff57600080fd5b81518015158114610af957600080fd5b84815283602082015260606040820152816060820152818360808301376000818301608090810191909152601f909201601f191601019392505050565b634e487b7160e01b600052604160045260246000fd5b600181811c9082168061117657607f821691505b60208210810361119657634e487b7160e01b600052602260045260246000fd5b50919050565b601f8211156105cb57600081815260208120601f850160051c810160208610156111c35750805b601f850160051c820191505b818110156111e2578281556001016111cf565b505050505050565b67ffffffffffffffff8311156112025761120261114c565b611216836112108354611162565b8361119c565b6000601f84116001811461124a57600085156112325750838201355b600019600387901b1c1916600186901b178355610a77565b600083815260209020601f19861690835b8281101561127b578685013582556020948501946001909201910161125b565b50868210156112985760001960f88860031b161c19848701351681555b505060018560011b0183555050505050565b60208082526018908201527743616e6469646174653a20696e707574206973207a65726f60401b604082015260600190565b6000602082840312156112ee57600080fd5b505191905056fea26469706673582212204cc62cb7ea9f88e3fe6c59962df2fd3eae11a1b197f80c26c3f84006573545b364736f6c63430008120033a2646970667358221220bc7d21607d84caed8951f36f0644d146ae24e3c4a557da0dededa2d2b0c8c1b264736f6c63430008120033",
  "linkReferences": {},
  "deployedLinkReferences": {}
}