{
  "_format": "hh-sol-artifact-1",
  "contractName": "BaseProxy",
  "sourceName": "contracts/proxy/BaseProxy.sol",
  "abi": [
    {
      "inputs": [],
      "stateMutability": "nonpayable",
      "type": "constructor"
    },
    {
      "anonymous": false,
      "inputs": [
        {
          "indexed": true,
          "internalType": "bytes32",
          "name": "role",
          "type": "bytes32"
        },
        {
          "indexed": true,
          "internalType": "bytes32",
          "name": "previousAdminRole",
          "type": "bytes32"
        },
        {
          "indexed": true,
          "internalType": "bytes32",
          "name": "newAdminRole",
          "type": "bytes32"
        }
      ],
      "name": "RoleAdminChanged",
      "type": "event"
    },
    {
      "anonymous": false,
      "inputs": [
        {
          "indexed": true,
          "internalType": "bytes32",
          "name": "role",
          "type": "bytes32"
        },
        {
          "indexed": true,
          "internalType": "address",
          "name": "account",
          "type": "address"
        },
        {
          "indexed": true,
          "internalType": "address",
          "name": "sender",
          "type": "address"
        }
      ],
      "name": "RoleGranted",
      "type": "event"
    },
    {
      "anonymous": false,
      "inputs": [
        {
          "indexed": true,
          "internalType": "bytes32",
          "name": "role",
          "type": "bytes32"
        },
        {
          "indexed": true,
          "internalType": "address",
          "name": "account",
          "type": "address"
        },
        {
          "indexed": true,
          "internalType": "address",
          "name": "sender",
          "type": "address"
        }
      ],
      "name": "RoleRevoked",
      "type": "event"
    },
    {
      "anonymous": false,
      "inputs": [
        {
          "indexed": true,
          "internalType": "address",
          "name": "impl",
          "type": "address"
        },
        {
          "indexed": false,
          "internalType": "bool",
          "name": "alive",
          "type": "bool"
        }
      ],
      "name": "SetAliveImplementation",
      "type": "event"
    },
    {
      "anonymous": false,
      "inputs": [
        {
          "indexed": true,
          "internalType": "bytes4",
          "name": "selector",
          "type": "bytes4"
        },
        {
          "indexed": true,
          "internalType": "address",
          "name": "impl",
          "type": "address"
        }
      ],
      "name": "SetSelectorImplementation",
      "type": "event"
    },
    {
      "anonymous": false,
      "inputs": [
        {
          "indexed": true,
          "internalType": "address",
          "name": "implementation",
          "type": "address"
        }
      ],
      "name": "Upgraded",
      "type": "event"
    },
    {
      "stateMutability": "payable",
      "type": "fallback"
    },
    {
      "inputs": [],
      "name": "ADMIN_ROLE",
      "outputs": [
        {
          "internalType": "bytes32",
          "name": "",
          "type": "bytes32"
        }
      ],
      "stateMutability": "view",
      "type": "function"
    },
    {
      "inputs": [],
      "name": "BURNER_ROLE",
      "outputs": [
        {
          "internalType": "bytes32",
          "name": "",
          "type": "bytes32"
        }
      ],
      "stateMutability": "view",
      "type": "function"
    },
    {
      "inputs": [],
      "name": "DEFAULT_ADMIN_ROLE",
      "outputs": [
        {
          "internalType": "bytes32",
          "name": "",
          "type": "bytes32"
        }
      ],
      "stateMutability": "view",
      "type": "function"
    },
    {
      "inputs": [],
      "name": "MINTER_ROLE",
      "outputs": [
        {
          "internalType": "bytes32",
          "name": "",
          "type": "bytes32"
        }
      ],
      "stateMutability": "view",
      "type": "function"
    },
    {
      "inputs": [
        {
          "internalType": "address",
          "name": "account",
          "type": "address"
        }
      ],
      "name": "addAdmin",
      "outputs": [],
      "stateMutability": "nonpayable",
      "type": "function"
    },
    {
      "inputs": [
        {
          "internalType": "address",
          "name": "_owner",
          "type": "address"
        }
      ],
      "name": "addProxyAdmin",
      "outputs": [],
      "stateMutability": "nonpayable",
      "type": "function"
    },
    {
      "inputs": [
        {
          "internalType": "address",
          "name": "",
          "type": "address"
        }
      ],
      "name": "aliveImplementation",
      "outputs": [
        {
          "internalType": "bool",
          "name": "",
          "type": "bool"
        }
      ],
      "stateMutability": "view",
      "type": "function"
    },
    {
      "inputs": [
        {
          "internalType": "bytes32",
          "name": "role",
          "type": "bytes32"
        }
      ],
      "name": "getRoleAdmin",
      "outputs": [
        {
          "internalType": "bytes32",
          "name": "",
          "type": "bytes32"
        }
      ],
      "stateMutability": "view",
      "type": "function"
    },
    {
      "inputs": [
        {
          "internalType": "bytes4",
          "name": "_selector",
          "type": "bytes4"
        }
      ],
      "name": "getSelectorImplementation2",
      "outputs": [
        {
          "internalType": "address",
          "name": "impl",
          "type": "address"
        }
      ],
      "stateMutability": "view",
      "type": "function"
    },
    {
      "inputs": [
        {
          "internalType": "bytes32",
          "name": "role",
          "type": "bytes32"
        },
        {
          "internalType": "address",
          "name": "account",
          "type": "address"
        }
      ],
      "name": "grantRole",
      "outputs": [],
      "stateMutability": "nonpayable",
      "type": "function"
    },
    {
      "inputs": [
        {
          "internalType": "bytes32",
          "name": "role",
          "type": "bytes32"
        },
        {
          "internalType": "address",
          "name": "account",
          "type": "address"
        }
      ],
      "name": "hasRole",
      "outputs": [
        {
          "internalType": "bool",
          "name": "",
          "type": "bool"
        }
      ],
      "stateMutability": "view",
      "type": "function"
    },
    {
      "inputs": [],
      "name": "implementation",
      "outputs": [
        {
          "internalType": "address",
          "name": "",
          "type": "address"
        }
      ],
      "stateMutability": "view",
      "type": "function"
    },
    {
      "inputs": [
        {
          "internalType": "uint256",
          "name": "_index",
          "type": "uint256"
        }
      ],
      "name": "implementation2",
      "outputs": [
        {
          "internalType": "address",
          "name": "",
          "type": "address"
        }
      ],
      "stateMutability": "view",
      "type": "function"
    },
    {
      "inputs": [
        {
          "internalType": "address",
          "name": "account",
          "type": "address"
        }
      ],
      "name": "isAdmin",
      "outputs": [
        {
          "internalType": "bool",
          "name": "",
          "type": "bool"
        }
      ],
      "stateMutability": "view",
      "type": "function"
    },
    {
      "inputs": [
        {
          "internalType": "address",
          "name": "account",
          "type": "address"
        }
      ],
      "name": "isProxyAdmin",
      "outputs": [
        {
          "internalType": "bool",
          "name": "",
          "type": "bool"
        }
      ],
      "stateMutability": "view",
      "type": "function"
    },
    {
      "inputs": [],
      "name": "pauseProxy",
      "outputs": [
        {
          "internalType": "bool",
          "name": "",
          "type": "bool"
        }
      ],
      "stateMutability": "view",
      "type": "function"
    },
    {
      "inputs": [
        {
          "internalType": "uint256",
          "name": "",
          "type": "uint256"
        }
      ],
      "name": "proxyImplementation",
      "outputs": [
        {
          "internalType": "address",
          "name": "",
          "type": "address"
        }
      ],
      "stateMutability": "view",
      "type": "function"
    },
    {
      "inputs": [],
      "name": "removeAdmin",
      "outputs": [],
      "stateMutability": "nonpayable",
      "type": "function"
    },
    {
      "inputs": [],
      "name": "removeProxyAdmin",
      "outputs": [],
      "stateMutability": "nonpayable",
      "type": "function"
    },
    {
      "inputs": [
        {
          "internalType": "bytes32",
          "name": "role",
          "type": "bytes32"
        },
        {
          "internalType": "address",
          "name": "account",
          "type": "address"
        }
      ],
      "name": "renounceRole",
      "outputs": [],
      "stateMutability": "nonpayable",
      "type": "function"
    },
    {
      "inputs": [
        {
          "internalType": "bytes32",
          "name": "role",
          "type": "bytes32"
        },
        {
          "internalType": "address",
          "name": "account",
          "type": "address"
        }
      ],
      "name": "revokeRole",
      "outputs": [],
      "stateMutability": "nonpayable",
      "type": "function"
    },
    {
      "inputs": [
        {
          "internalType": "bytes4",
          "name": "",
          "type": "bytes4"
        }
      ],
      "name": "selectorImplementation",
      "outputs": [
        {
          "internalType": "address",
          "name": "",
          "type": "address"
        }
      ],
      "stateMutability": "view",
      "type": "function"
    },
    {
      "inputs": [
        {
          "internalType": "address",
          "name": "newImplementation",
          "type": "address"
        },
        {
          "internalType": "bool",
          "name": "_alive",
          "type": "bool"
        }
      ],
      "name": "setAliveImplementation2",
      "outputs": [],
      "stateMutability": "nonpayable",
      "type": "function"
    },
    {
      "inputs": [
        {
          "internalType": "address",
          "name": "newImplementation",
          "type": "address"
        },
        {
          "internalType": "uint256",
          "name": "_index",
          "type": "uint256"
        },
        {
          "internalType": "bool",
          "name": "_alive",
          "type": "bool"
        }
      ],
      "name": "setImplementation2",
      "outputs": [],
      "stateMutability": "nonpayable",
      "type": "function"
    },
    {
      "inputs": [
        {
          "internalType": "bool",
          "name": "_pause",
          "type": "bool"
        }
      ],
      "name": "setProxyPause",
      "outputs": [],
      "stateMutability": "nonpayable",
      "type": "function"
    },
    {
      "inputs": [
        {
          "internalType": "bytes4[]",
          "name": "_selectors",
          "type": "bytes4[]"
        },
        {
          "internalType": "address",
          "name": "_imp",
          "type": "address"
        }
      ],
      "name": "setSelectorImplementations2",
      "outputs": [],
      "stateMutability": "nonpayable",
      "type": "function"
    },
    {
      "inputs": [
        {
          "internalType": "bytes4",
          "name": "interfaceId",
          "type": "bytes4"
        }
      ],
      "name": "supportsInterface",
      "outputs": [
        {
          "internalType": "bool",
          "name": "",
          "type": "bool"
        }
      ],
      "stateMutability": "view",
      "type": "function"
    },
    {
      "inputs": [
        {
          "internalType": "address",
          "name": "newAdmin",
          "type": "address"
        }
      ],
      "name": "transferAdmin",
      "outputs": [],
      "stateMutability": "nonpayable",
      "type": "function"
    },
    {
      "inputs": [
        {
          "internalType": "address",
          "name": "newAdmin",
          "type": "address"
        }
      ],
      "name": "transferProxyAdmin",
      "outputs": [],
      "stateMutability": "nonpayable",
      "type": "function"
    },
    {
      "inputs": [
        {
          "internalType": "address",
          "name": "impl",
          "type": "address"
        }
      ],
      "name": "upgradeTo",
      "outputs": [],
      "stateMutability": "nonpayable",
      "type": "function"
    },
    {
      "stateMutability": "payable",
      "type": "receive"
    }
  ],
  "bytecode": "0x60806040523480156200001157600080fd5b506200002d60008051602062001929833981519152806200005b565b620000486000805160206200192983398151915233620000a6565b62000055600033620000a6565b62000156565b600082815260208190526040808220600101805490849055905190918391839186917fbd79b86ffe0ab8e8776151514217cd7cacd52c909f66475c3af44e129f0b00ff9190a4505050565b620000b28282620000b6565b5050565b6000828152602081815260408083206001600160a01b038516845290915290205460ff16620000b2576000828152602081815260408083206001600160a01b03851684529091529020805460ff19166001179055620001123390565b6001600160a01b0316816001600160a01b0316837f2f8788117e7eff1d82e926ec794901d17c78024a50270940304540a733656f0d60405160405180910390a45050565b6117c380620001666000396000f3fe6080604052600436106101915760003560e01c806375b238fc116100d757806396f1557c1161008557806396f1557c146104d85780639a202d47146104f8578063a217fddf1461050d578063b911135f14610522578063be72f2d314610558578063d53913931461056d578063d547741f146105a1578063f47f2f1d146105c157610198565b806375b238fc146103f65780637cb00d25146104185780637cd5f663146104385780638356ca4f146104585780638b8f4a65146104785780638d4fdb401461049857806391d14854146104b857610198565b80634a5df50f1161013f5780634a5df50f146102c957806350d2a276146102e9578063550d01a3146103375780635c60da1b146103675780635cc797d81461037c57806363a8fd891461039c57806370480275146103b657806375829def146103d657610198565b806301ffc9a7146101a2578063248a9ca3146101d757806324d7806c14610215578063282c51f3146102355780632f2ff15d1461026957806336568abe146102895780633659cfe6146102a957610198565b3661019857005b6101a06105e1565b005b3480156101ae57600080fd5b506101c26101bd366004611372565b61068f565b60405190151581526020015b60405180910390f35b3480156101e357600080fd5b506102076101f236600461139c565b60009081526020819052604090206001015490565b6040519081526020016101ce565b34801561022157600080fd5b506101c26102303660046113cc565b6106c6565b34801561024157600080fd5b506102077f9667e80708b6eeeb0053fa0cca44e028ff548e2a9f029edfeac87c118b08b7c881565b34801561027557600080fd5b506101a06102843660046113e7565b6106e0565b34801561029557600080fd5b506101a06102a43660046113e7565b610705565b3480156102b557600080fd5b506101a06102c43660046113cc565b610783565b3480156102d557600080fd5b506101a06102e4366004611413565b610897565b3480156102f557600080fd5b5061031f610304366004611372565b6004602052600090815260409020546001600160a01b031681565b6040516001600160a01b0390911681526020016101ce565b34801561034357600080fd5b506101c26103523660046113cc565b60036020526000908152604090205460ff1681565b34801561037357600080fd5b5061031f610b03565b34801561038857600080fd5b506101a06103973660046114a7565b610b14565b3480156103a857600080fd5b506001546101c29060ff1681565b3480156103c257600080fd5b506101a06103d13660046113cc565b610b52565b3480156103e257600080fd5b506101a06103f13660046113cc565b610b92565b34801561040257600080fd5b5061020760008051602061176e83398151915281565b34801561042457600080fd5b506101a06104333660046114d1565b610c44565b34801561044457600080fd5b506101a06104533660046114ec565b610c8b565b34801561046457600080fd5b506101a06104733660046113cc565b610cca565b34801561048457600080fd5b5061031f61049336600461139c565b610d53565b3480156104a457600080fd5b5061031f6104b3366004611372565b610d5e565b3480156104c457600080fd5b506101c26104d33660046113e7565b610e5a565b3480156104e457600080fd5b506101a06104f33660046113cc565b610e83565b34801561050457600080fd5b506101a0610eb3565b34801561051957600080fd5b50610207600081565b34801561052e57600080fd5b5061031f61053d36600461139c565b6002602052600090815260409020546001600160a01b031681565b34801561056457600080fd5b506101a0610f01565b34801561057957600080fd5b506102077ff0887ba65ee2024ea881d91b74c2450ef19e1557f03bed3ea9f16b037cbe2dc981565b3480156105ad57600080fd5b506101a06105bc3660046113e7565b610f31565b3480156105cd57600080fd5b506101c26105dc3660046113cc565b610f56565b60006105f86000356001600160e01b031916610d5e565b90506001600160a01b03811615801590610615575060015460ff16155b6106665760405162461bcd60e51b815260206004820152601d60248201527f50726f78793a20696d706c204f522070726f78792069732066616c736500000060448201526064015b60405180910390fd5b3660008037600080366000845af43d6000803e808015610685573d6000f35b3d6000fd5b505050565b60006001600160e01b03198216637965db0b60e01b14806106c057506301ffc9a760e01b6001600160e01b03198316145b92915050565b60006106c060008051602061176e83398151915283610e5a565b6000828152602081905260409020600101546106fb81610f62565b61068a8383610f6c565b6001600160a01b03811633146107755760405162461bcd60e51b815260206004820152602f60248201527f416363657373436f6e74726f6c3a2063616e206f6e6c792072656e6f756e636560448201526e103937b632b9903337b91039b2b63360891b606482015260840161065d565b61077f8282610ff0565b5050565b61078c336106c6565b8061079b575061079b33610f56565b6107b75760405162461bcd60e51b815260040161065d9061151f565b6001600160a01b0381166107fd5760405162461bcd60e51b815260206004820152600d60248201526c696e707574206973207a65726f60981b604482015260640161065d565b806001600160a01b03166108116000611055565b6001600160a01b0316036108535760405162461bcd60e51b815260206004820152600960248201526839b0b6b29030b2323960b91b604482015260640161065d565b6108608160006001611070565b6040516001600160a01b038216907fbc7cd75a20ee27fd9adebab32041f755214dbc6bffa90cc0225b39da2e5c2d3b90600090a250565b6108a0336106c6565b806108af57506108af33610f56565b6108cb5760405162461bcd60e51b815260040161065d9061151f565b816109185760405162461bcd60e51b815260206004820181905260248201527f50726f78793a205f73656c6563746f727327732073697a65206973207a65726f604482015260640161065d565b6001600160a01b03811660009081526003602052604090205460ff1661097b5760405162461bcd60e51b815260206004820152601860248201527750726f78793a205f696d70206973206e6f7420616c69766560401b604482015260640161065d565b60005b82811015610afd57816001600160a01b0316600460008686858181106109a6576109a6611561565b90506020020160208101906109bb9190611372565b6001600160e01b03191681526020810191909152604001600020546001600160a01b031603610a2c5760405162461bcd60e51b815260206004820152601d60248201527f4c69717569646974795661756c7450726f78793a2073616d6520696d70000000604482015260640161065d565b8160046000868685818110610a4357610a43611561565b9050602002016020810190610a589190611372565b6001600160e01b0319168152602081019190915260400160002080546001600160a01b0319166001600160a01b039283161790558216848483818110610aa057610aa0611561565b9050602002016020810190610ab59190611372565b6001600160e01b0319167f14ebc1c32aa68f4d766e89f3e546cee249f7df25183fc10ab1568d91c2ce9b7b60405160405180910390a380610af58161158d565b91505061097e565b50505050565b6000610b0f6000611055565b905090565b610b1d336106c6565b80610b2c5750610b2c33610f56565b610b485760405162461bcd60e51b815260040161065d9061151f565b61077f82826110fb565b610b5b33610f56565b610b775760405162461bcd60e51b815260040161065d906115a6565b610b8f60008051602061176e833981519152826106e0565b50565b610b9b336106c6565b80610baa5750610baa33610f56565b610bc65760405162461bcd60e51b815260040161065d9061151f565b6001600160a01b038116610bec5760405162461bcd60e51b815260040161065d906115ee565b6001600160a01b0381163303610c145760405162461bcd60e51b815260040161065d90611620565b610c2c60008051602061176e833981519152826106e0565b610b8f60008051602061176e83398151915233610705565b610c4d336106c6565b80610c5c5750610c5c33610f56565b610c785760405162461bcd60e51b815260040161065d9061151f565b6001805460ff1916911515919091179055565b610c94336106c6565b80610ca35750610ca333610f56565b610cbf5760405162461bcd60e51b815260040161065d9061151f565b61068a838383611070565b610cd333610f56565b610cef5760405162461bcd60e51b815260040161065d906115a6565b6001600160a01b038116610d155760405162461bcd60e51b815260040161065d906115ee565b6001600160a01b0381163303610d3d5760405162461bcd60e51b815260040161065d90611620565b610d486000826106e0565b610b8f600033610705565b60006106c082611055565b6001600160e01b031981166000908152600460205260408120546001600160a01b0316610dbe5750506000805260026020527fac33ff75c19e70fe83507db0d683fd3465c996598dc972688b7ace676c89077b546001600160a01b031690565b6001600160e01b031982166000908152600460209081526040808320546001600160a01b03168352600390915290205460ff1615610e1c57506001600160e01b0319166000908152600460205260409020546001600160a01b031690565b50506000805260026020527fac33ff75c19e70fe83507db0d683fd3465c996598dc972688b7ace676c89077b546001600160a01b031690565b919050565b6000918252602082815260408084206001600160a01b0393909316845291905290205460ff1690565b610e8c33610f56565b610ea85760405162461bcd60e51b815260040161065d906115a6565b610b8f60008261115a565b610ebc336106c6565b80610ecb5750610ecb33610f56565b610ee75760405162461bcd60e51b815260040161065d9061151f565b610eff60008051602061176e83398151915233610705565b565b610f0a33610f56565b610f265760405162461bcd60e51b815260040161065d906115a6565b610eff600033610705565b600082815260208190526040902060010154610f4c81610f62565b61068a8383610ff0565b60006106c08183610e5a565b610b8f8133611164565b610f768282610e5a565b61077f576000828152602081815260408083206001600160a01b03851684529091529020805460ff19166001179055610fac3390565b6001600160a01b0316816001600160a01b0316837f2f8788117e7eff1d82e926ec794901d17c78024a50270940304540a733656f0d60405160405180910390a45050565b610ffa8282610e5a565b1561077f576000828152602081815260408083206001600160a01b0385168085529252808320805460ff1916905551339285917ff6391f5c32d9c69d2a47ea670b442974b53935d1edc7fd64eb21e047a839171b9190a45050565b6000908152600260205260409020546001600160a01b031690565b6001600160a01b0383163b6110c75760405162461bcd60e51b815260206004820152601b60248201527f50726f78793a206e6f7420636f6e747261637420616464726573730000000000604482015260640161065d565b80156110f557600082815260026020526040902080546001600160a01b0319166001600160a01b0385161790555b61068a83825b6001600160a01b038216600081815260036020908152604091829020805460ff191685151590811790915591519182527f72558d9bfba4210f9ef095c782589484151f6d90f7a81bb3cb9b33efc695d324910160405180910390a25050565b61077f8282610f6c565b61116e8282610e5a565b61077f5761117b816111bd565b6111868360206111cf565b604051602001611197929190611674565b60408051601f198184030181529082905262461bcd60e51b825261065d916004016116e3565b60606106c06001600160a01b03831660145b606060006111de836002611716565b6111e990600261172d565b67ffffffffffffffff81111561120157611201611740565b6040519080825280601f01601f19166020018201604052801561122b576020820181803683370190505b509050600360fc1b8160008151811061124657611246611561565b60200101906001600160f81b031916908160001a905350600f60fb1b8160018151811061127557611275611561565b60200101906001600160f81b031916908160001a9053506000611299846002611716565b6112a490600161172d565b90505b600181111561131c576f181899199a1a9b1b9c1cb0b131b232b360811b85600f16601081106112d8576112d8611561565b1a60f81b8282815181106112ee576112ee611561565b60200101906001600160f81b031916908160001a90535060049490941c9361131581611756565b90506112a7565b50831561136b5760405162461bcd60e51b815260206004820181905260248201527f537472696e67733a20686578206c656e67746820696e73756666696369656e74604482015260640161065d565b9392505050565b60006020828403121561138457600080fd5b81356001600160e01b03198116811461136b57600080fd5b6000602082840312156113ae57600080fd5b5035919050565b80356001600160a01b0381168114610e5557600080fd5b6000602082840312156113de57600080fd5b61136b826113b5565b600080604083850312156113fa57600080fd5b8235915061140a602084016113b5565b90509250929050565b60008060006040848603121561142857600080fd5b833567ffffffffffffffff8082111561144057600080fd5b818601915086601f83011261145457600080fd5b81358181111561146357600080fd5b8760208260051b850101111561147857600080fd5b60209283019550935061148e91860190506113b5565b90509250925092565b80358015158114610e5557600080fd5b600080604083850312156114ba57600080fd5b6114c3836113b5565b915061140a60208401611497565b6000602082840312156114e357600080fd5b61136b82611497565b60008060006060848603121561150157600080fd5b61150a846113b5565b92506020840135915061148e60408501611497565b60208082526022908201527f41636365737369626c653a2043616c6c6572206973206e6f7420616e2061646d60408201526134b760f11b606082015260800190565b634e487b7160e01b600052603260045260246000fd5b634e487b7160e01b600052601160045260246000fd5b60006001820161159f5761159f611577565b5060010190565b60208082526028908201527f41636365737369626c653a2043616c6c6572206973206e6f7420616e2070726f6040820152673c3c9030b236b4b760c11b606082015260800190565b60208082526018908201527741636365737369626c653a207a65726f206164647265737360401b604082015260600190565b60208082526016908201527520b1b1b2b9b9b4b136329d1039b0b6b29030b236b4b760511b604082015260600190565b60005b8381101561166b578181015183820152602001611653565b50506000910152565b76020b1b1b2b9b9a1b7b73a3937b61d1030b1b1b7bab73a1604d1b8152600083516116a6816017850160208801611650565b7001034b99036b4b9b9b4b733903937b6329607d1b60179184019182015283516116d7816028840160208801611650565b01602801949350505050565b6020815260008251806020840152611702816040850160208701611650565b601f01601f19169190910160400192915050565b80820281158282048414176106c0576106c0611577565b808201808211156106c0576106c0611577565b634e487b7160e01b600052604160045260246000fd5b60008161176557611765611577565b50600019019056fedf8b4c520ffe197c5343c6f5aec59570151ef9a492f2c624fd45ddde6135ec42a2646970667358221220c360ca99561277aacefa12df2aea4b0f10b8042e77b43f9586a70763c51a0cc564736f6c63430008120033df8b4c520ffe197c5343c6f5aec59570151ef9a492f2c624fd45ddde6135ec42",
  "linkReferences": {},
  "deployedLinkReferences": {}
}