{
  "_format": "hh-sol-artifact-1",
  "contractName": "Candidate",
  "sourceName": "contracts/test/Candidate.sol",
  "abi": [
    {
      "inputs": [],
      "stateMutability": "nonpayable",
      "type": "constructor"
    },
    {
      "anonymous": false,
      "inputs": [
        {
          "indexed": false,
          "internalType": "bytes32",
          "name": "hashMessage",
          "type": "bytes32"
        },
        {
          "indexed": false,
          "internalType": "uint32",
          "name": "layerIndex",
          "type": "uint32"
        },
        {
          "indexed": false,
          "internalType": "address",
          "name": "from",
          "type": "address"
        },
        {
          "indexed": false,
          "internalType": "address",
          "name": "to",
          "type": "address"
        },
        {
          "indexed": false,
          "internalType": "uint256",
          "name": "amount",
          "type": "uint256"
        }
      ],
      "name": "FastWithdrawalClaim",
      "type": "event"
    },
    {
      "anonymous": false,
      "inputs": [
        {
          "indexed": false,
          "internalType": "bytes32",
          "name": "hashMessage",
          "type": "bytes32"
        },
        {
          "indexed": false,
          "internalType": "uint32",
          "name": "layerIndex",
          "type": "uint32"
        },
        {
          "indexed": false,
          "internalType": "address",
          "name": "staker",
          "type": "address"
        },
        {
          "indexed": false,
          "internalType": "uint256",
          "name": "amount",
          "type": "uint256"
        },
        {
          "indexed": false,
          "internalType": "uint256",
          "name": "lton",
          "type": "uint256"
        }
      ],
      "name": "FastWithdrawalStaked",
      "type": "event"
    },
    {
      "anonymous": false,
      "inputs": [
        {
          "indexed": false,
          "internalType": "uint32",
          "name": "_index",
          "type": "uint32"
        },
        {
          "indexed": false,
          "internalType": "address",
          "name": "sender",
          "type": "address"
        },
        {
          "indexed": false,
          "internalType": "uint256",
          "name": "amount",
          "type": "uint256"
        },
        {
          "indexed": false,
          "internalType": "uint256",
          "name": "lton",
          "type": "uint256"
        }
      ],
      "name": "Restaked",
      "type": "event"
    },
    {
      "anonymous": false,
      "inputs": [
        {
          "indexed": true,
          "internalType": "bytes32",
          "name": "role",
          "type": "bytes32"
        },
        {
          "indexed": true,
          "internalType": "bytes32",
          "name": "previousAdminRole",
          "type": "bytes32"
        },
        {
          "indexed": true,
          "internalType": "bytes32",
          "name": "newAdminRole",
          "type": "bytes32"
        }
      ],
      "name": "RoleAdminChanged",
      "type": "event"
    },
    {
      "anonymous": false,
      "inputs": [
        {
          "indexed": true,
          "internalType": "bytes32",
          "name": "role",
          "type": "bytes32"
        },
        {
          "indexed": true,
          "internalType": "address",
          "name": "account",
          "type": "address"
        },
        {
          "indexed": true,
          "internalType": "address",
          "name": "sender",
          "type": "address"
        }
      ],
      "name": "RoleGranted",
      "type": "event"
    },
    {
      "anonymous": false,
      "inputs": [
        {
          "indexed": true,
          "internalType": "bytes32",
          "name": "role",
          "type": "bytes32"
        },
        {
          "indexed": true,
          "internalType": "address",
          "name": "account",
          "type": "address"
        },
        {
          "indexed": true,
          "internalType": "address",
          "name": "sender",
          "type": "address"
        }
      ],
      "name": "RoleRevoked",
      "type": "event"
    },
    {
      "anonymous": false,
      "inputs": [
        {
          "indexed": false,
          "internalType": "uint32",
          "name": "_index",
          "type": "uint32"
        },
        {
          "indexed": false,
          "internalType": "address",
          "name": "sender",
          "type": "address"
        },
        {
          "indexed": false,
          "internalType": "uint256",
          "name": "amount",
          "type": "uint256"
        },
        {
          "indexed": false,
          "internalType": "uint256",
          "name": "lton",
          "type": "uint256"
        },
        {
          "indexed": false,
          "internalType": "address",
          "name": "commissionTo",
          "type": "address"
        },
        {
          "indexed": false,
          "internalType": "uint16",
          "name": "commission",
          "type": "uint16"
        }
      ],
      "name": "Staked",
      "type": "event"
    },
    {
      "anonymous": false,
      "inputs": [
        {
          "indexed": false,
          "internalType": "uint32",
          "name": "_index",
          "type": "uint32"
        },
        {
          "indexed": false,
          "internalType": "address",
          "name": "sender",
          "type": "address"
        },
        {
          "indexed": false,
          "internalType": "uint256",
          "name": "amount",
          "type": "uint256"
        },
        {
          "indexed": false,
          "internalType": "uint256",
          "name": "lton",
          "type": "uint256"
        }
      ],
      "name": "Unstaked",
      "type": "event"
    },
    {
      "anonymous": false,
      "inputs": [
        {
          "indexed": false,
          "internalType": "uint32",
          "name": "_index",
          "type": "uint32"
        },
        {
          "indexed": false,
          "internalType": "address",
          "name": "sender",
          "type": "address"
        },
        {
          "indexed": false,
          "internalType": "uint256",
          "name": "amount",
          "type": "uint256"
        }
      ],
      "name": "Withdrawal",
      "type": "event"
    },
    {
      "inputs": [],
      "name": "ADMIN_ROLE",
      "outputs": [
        {
          "internalType": "bytes32",
          "name": "",
          "type": "bytes32"
        }
      ],
      "stateMutability": "view",
      "type": "function"
    },
    {
      "inputs": [],
      "name": "BURNER_ROLE",
      "outputs": [
        {
          "internalType": "bytes32",
          "name": "",
          "type": "bytes32"
        }
      ],
      "stateMutability": "view",
      "type": "function"
    },
    {
      "inputs": [],
      "name": "DEFAULT_ADMIN_ROLE",
      "outputs": [
        {
          "internalType": "bytes32",
          "name": "",
          "type": "bytes32"
        }
      ],
      "stateMutability": "view",
      "type": "function"
    },
    {
      "inputs": [],
      "name": "MINTER_ROLE",
      "outputs": [
        {
          "internalType": "bytes32",
          "name": "",
          "type": "bytes32"
        }
      ],
      "stateMutability": "view",
      "type": "function"
    },
    {
      "inputs": [
        {
          "internalType": "address",
          "name": "account",
          "type": "address"
        }
      ],
      "name": "addAdmin",
      "outputs": [],
      "stateMutability": "nonpayable",
      "type": "function"
    },
    {
      "inputs": [
        {
          "internalType": "address",
          "name": "",
          "type": "address"
        }
      ],
      "name": "aliveImplementation",
      "outputs": [
        {
          "internalType": "bool",
          "name": "",
          "type": "bool"
        }
      ],
      "stateMutability": "view",
      "type": "function"
    },
    {
      "inputs": [
        {
          "internalType": "uint32",
          "name": "layerIndex",
          "type": "uint32"
        },
        {
          "internalType": "address",
          "name": "account",
          "type": "address"
        }
      ],
      "name": "amountOfPendings",
      "outputs": [
        {
          "internalType": "uint256",
          "name": "amount",
          "type": "uint256"
        },
        {
          "internalType": "uint32",
          "name": "startIndex",
          "type": "uint32"
        },
        {
          "internalType": "uint32",
          "name": "len",
          "type": "uint32"
        },
        {
          "internalType": "uint32",
          "name": "nextWithdrawableBlockNumber",
          "type": "uint32"
        }
      ],
      "stateMutability": "view",
      "type": "function"
    },
    {
      "inputs": [
        {
          "internalType": "uint32",
          "name": "_index",
          "type": "uint32"
        },
        {
          "internalType": "address",
          "name": "account",
          "type": "address"
        }
      ],
      "name": "availableWithdraw",
      "outputs": [
        {
          "internalType": "uint256",
          "name": "amount",
          "type": "uint256"
        },
        {
          "internalType": "uint32",
          "name": "startIndex",
          "type": "uint32"
        },
        {
          "internalType": "uint32",
          "name": "len",
          "type": "uint32"
        }
      ],
      "stateMutability": "view",
      "type": "function"
    },
    {
      "inputs": [
        {
          "internalType": "uint32",
          "name": "_index",
          "type": "uint32"
        },
        {
          "internalType": "address",
          "name": "account",
          "type": "address"
        }
      ],
      "name": "balanceOf",
      "outputs": [
        {
          "internalType": "uint256",
          "name": "amount",
          "type": "uint256"
        }
      ],
      "stateMutability": "view",
      "type": "function"
    },
    {
      "inputs": [
        {
          "internalType": "uint32",
          "name": "_index",
          "type": "uint32"
        },
        {
          "internalType": "address",
          "name": "account",
          "type": "address"
        },
        {
          "internalType": "uint256",
          "name": "snapshotId",
          "type": "uint256"
        }
      ],
      "name": "balanceOfAt",
      "outputs": [
        {
          "internalType": "uint256",
          "name": "amount",
          "type": "uint256"
        }
      ],
      "stateMutability": "view",
      "type": "function"
    },
    {
      "inputs": [
        {
          "internalType": "uint32",
          "name": "_index",
          "type": "uint32"
        },
        {
          "internalType": "address",
          "name": "account",
          "type": "address"
        }
      ],
      "name": "balanceOfLton",
      "outputs": [
        {
          "internalType": "uint256",
          "name": "amount",
          "type": "uint256"
        }
      ],
      "stateMutability": "view",
      "type": "function"
    },
    {
      "inputs": [
        {
          "internalType": "uint32",
          "name": "_index",
          "type": "uint32"
        }
      ],
      "name": "balanceOfLton",
      "outputs": [
        {
          "internalType": "uint256",
          "name": "amount",
          "type": "uint256"
        }
      ],
      "stateMutability": "view",
      "type": "function"
    },
    {
      "inputs": [
        {
          "internalType": "uint32",
          "name": "_index",
          "type": "uint32"
        },
        {
          "internalType": "address",
          "name": "account",
          "type": "address"
        },
        {
          "internalType": "uint256",
          "name": "snapshotId",
          "type": "uint256"
        }
      ],
      "name": "balanceOfLtonAt",
      "outputs": [
        {
          "internalType": "uint256",
          "name": "amount",
          "type": "uint256"
        }
      ],
      "stateMutability": "view",
      "type": "function"
    },
    {
      "inputs": [
        {
          "internalType": "uint32",
          "name": "_index",
          "type": "uint32"
        },
        {
          "internalType": "uint256",
          "name": "snapshotId",
          "type": "uint256"
        }
      ],
      "name": "balanceOfLtonAt",
      "outputs": [
        {
          "internalType": "uint256",
          "name": "amount",
          "type": "uint256"
        }
      ],
      "stateMutability": "view",
      "type": "function"
    },
    {
      "inputs": [
        {
          "internalType": "uint32",
          "name": "_index",
          "type": "uint32"
        },
        {
          "internalType": "uint256",
          "name": "snapshotId",
          "type": "uint256"
        }
      ],
      "name": "balanceOfLtonAtSnapshot",
      "outputs": [
        {
          "internalType": "bool",
          "name": "snapshotted",
          "type": "bool"
        },
        {
          "internalType": "uint256",
          "name": "amount",
          "type": "uint256"
        }
      ],
      "stateMutability": "view",
      "type": "function"
    },
    {
      "inputs": [
        {
          "internalType": "uint32",
          "name": "_index",
          "type": "uint32"
        },
        {
          "internalType": "address",
          "name": "account",
          "type": "address"
        },
        {
          "internalType": "uint256",
          "name": "snapshotId",
          "type": "uint256"
        }
      ],
      "name": "balanceOfLtonAtSnapshot",
      "outputs": [
        {
          "internalType": "bool",
          "name": "snapshotted",
          "type": "bool"
        },
        {
          "internalType": "uint256",
          "name": "amount",
          "type": "uint256"
        }
      ],
      "stateMutability": "view",
      "type": "function"
    },
    {
      "inputs": [
        {
          "internalType": "uint32",
          "name": "_candidateIndex",
          "type": "uint32"
        },
        {
          "internalType": "bytes",
          "name": "_info",
          "type": "bytes"
        }
      ],
      "name": "create",
      "outputs": [
        {
          "internalType": "bool",
          "name": "",
          "type": "bool"
        }
      ],
      "stateMutability": "nonpayable",
      "type": "function"
    },
    {
      "inputs": [
        {
          "internalType": "uint32",
          "name": "_index",
          "type": "uint32"
        }
      ],
      "name": "existedIndex",
      "outputs": [
        {
          "internalType": "bool",
          "name": "",
          "type": "bool"
        }
      ],
      "stateMutability": "view",
      "type": "function"
    },
    {
      "inputs": [
        {
          "internalType": "bytes32",
          "name": "hashMessage",
          "type": "bytes32"
        },
        {
          "internalType": "uint32",
          "name": "layerIndex",
          "type": "uint32"
        },
        {
          "internalType": "address",
          "name": "from",
          "type": "address"
        },
        {
          "internalType": "address",
          "name": "to",
          "type": "address"
        },
        {
          "internalType": "uint256",
          "name": "amount",
          "type": "uint256"
        }
      ],
      "name": "fastWithdrawClaim",
      "outputs": [
        {
          "internalType": "bool",
          "name": "",
          "type": "bool"
        }
      ],
      "stateMutability": "nonpayable",
      "type": "function"
    },
    {
      "inputs": [
        {
          "internalType": "bytes32",
          "name": "hashMessage",
          "type": "bytes32"
        },
        {
          "internalType": "uint32",
          "name": "layerIndex",
          "type": "uint32"
        },
        {
          "internalType": "address",
          "name": "staker",
          "type": "address"
        },
        {
          "internalType": "uint256",
          "name": "_amount",
          "type": "uint256"
        }
      ],
      "name": "fastWithdrawStake",
      "outputs": [
        {
          "internalType": "bool",
          "name": "",
          "type": "bool"
        }
      ],
      "stateMutability": "nonpayable",
      "type": "function"
    },
    {
      "inputs": [],
      "name": "fwReceipt",
      "outputs": [
        {
          "internalType": "address",
          "name": "",
          "type": "address"
        }
      ],
      "stateMutability": "view",
      "type": "function"
    },
    {
      "inputs": [
        {
          "internalType": "uint32",
          "name": "_index",
          "type": "uint32"
        }
      ],
      "name": "getCandidateInfo",
      "outputs": [
        {
          "components": [
            {
              "internalType": "address",
              "name": "operator",
              "type": "address"
            },
            {
              "internalType": "uint32",
              "name": "sequencerIndex",
              "type": "uint32"
            },
            {
              "internalType": "uint16",
              "name": "commission",
              "type": "uint16"
            }
          ],
          "internalType": "struct LibOperator.Info",
          "name": "info",
          "type": "tuple"
        }
      ],
      "stateMutability": "view",
      "type": "function"
    },
    {
      "inputs": [
        {
          "internalType": "uint32",
          "name": "_index",
          "type": "uint32"
        }
      ],
      "name": "getCandidateKey",
      "outputs": [
        {
          "internalType": "bytes32",
          "name": "layerKey_",
          "type": "bytes32"
        }
      ],
      "stateMutability": "view",
      "type": "function"
    },
    {
      "inputs": [],
      "name": "getCurrentSnapshotId",
      "outputs": [
        {
          "internalType": "uint256",
          "name": "",
          "type": "uint256"
        }
      ],
      "stateMutability": "view",
      "type": "function"
    },
    {
      "inputs": [
        {
          "internalType": "uint32",
          "name": "_index",
          "type": "uint32"
        },
        {
          "internalType": "address",
          "name": "account",
          "type": "address"
        }
      ],
      "name": "getLayerStakes",
      "outputs": [
        {
          "components": [
            {
              "internalType": "uint256",
              "name": "stakePrincipal",
              "type": "uint256"
            },
            {
              "internalType": "uint256",
              "name": "stakelton",
              "type": "uint256"
            },
            {
              "internalType": "bool",
              "name": "stake",
              "type": "bool"
            }
          ],
          "internalType": "struct LibStake.StakeInfo",
          "name": "info",
          "type": "tuple"
        }
      ],
      "stateMutability": "view",
      "type": "function"
    },
    {
      "inputs": [
        {
          "internalType": "uint32",
          "name": "_index",
          "type": "uint32"
        },
        {
          "internalType": "address",
          "name": "account",
          "type": "address"
        }
      ],
      "name": "getPendingUnstakedAmount",
      "outputs": [
        {
          "internalType": "uint256",
          "name": "",
          "type": "uint256"
        }
      ],
      "stateMutability": "view",
      "type": "function"
    },
    {
      "inputs": [
        {
          "internalType": "bytes32",
          "name": "role",
          "type": "bytes32"
        }
      ],
      "name": "getRoleAdmin",
      "outputs": [
        {
          "internalType": "bytes32",
          "name": "",
          "type": "bytes32"
        }
      ],
      "stateMutability": "view",
      "type": "function"
    },
    {
      "inputs": [],
      "name": "getStakeAccountList",
      "outputs": [
        {
          "internalType": "address[]",
          "name": "",
          "type": "address[]"
        }
      ],
      "stateMutability": "view",
      "type": "function"
    },
    {
      "inputs": [],
      "name": "getTotalLton",
      "outputs": [
        {
          "internalType": "uint256",
          "name": "",
          "type": "uint256"
        }
      ],
      "stateMutability": "view",
      "type": "function"
    },
    {
      "inputs": [
        {
          "internalType": "bytes32",
          "name": "role",
          "type": "bytes32"
        },
        {
          "internalType": "address",
          "name": "account",
          "type": "address"
        }
      ],
      "name": "grantRole",
      "outputs": [],
      "stateMutability": "nonpayable",
      "type": "function"
    },
    {
      "inputs": [
        {
          "internalType": "bytes32",
          "name": "role",
          "type": "bytes32"
        },
        {
          "internalType": "address",
          "name": "account",
          "type": "address"
        }
      ],
      "name": "hasRole",
      "outputs": [
        {
          "internalType": "bool",
          "name": "",
          "type": "bool"
        }
      ],
      "stateMutability": "view",
      "type": "function"
    },
    {
      "inputs": [
        {
          "internalType": "address",
          "name": "account",
          "type": "address"
        }
      ],
      "name": "isAdmin",
      "outputs": [
        {
          "internalType": "bool",
          "name": "",
          "type": "bool"
        }
      ],
      "stateMutability": "view",
      "type": "function"
    },
    {
      "inputs": [
        {
          "internalType": "uint32",
          "name": "_index",
          "type": "uint32"
        }
      ],
      "name": "layer2Deposits",
      "outputs": [
        {
          "internalType": "uint256",
          "name": "amount",
          "type": "uint256"
        }
      ],
      "stateMutability": "view",
      "type": "function"
    },
    {
      "inputs": [],
      "name": "layer2Manager",
      "outputs": [
        {
          "internalType": "address",
          "name": "",
          "type": "address"
        }
      ],
      "stateMutability": "view",
      "type": "function"
    },
    {
      "inputs": [
        {
          "internalType": "uint32",
          "name": "",
          "type": "uint32"
        }
      ],
      "name": "layerInfo",
      "outputs": [
        {
          "internalType": "bytes",
          "name": "",
          "type": "bytes"
        }
      ],
      "stateMutability": "view",
      "type": "function"
    },
    {
      "inputs": [
        {
          "internalType": "uint32",
          "name": "",
          "type": "uint32"
        }
      ],
      "name": "layerStakedLton",
      "outputs": [
        {
          "internalType": "uint256",
          "name": "",
          "type": "uint256"
        }
      ],
      "stateMutability": "view",
      "type": "function"
    },
    {
      "inputs": [
        {
          "internalType": "uint32",
          "name": "",
          "type": "uint32"
        },
        {
          "internalType": "address",
          "name": "",
          "type": "address"
        }
      ],
      "name": "layerStakes",
      "outputs": [
        {
          "internalType": "uint256",
          "name": "stakePrincipal",
          "type": "uint256"
        },
        {
          "internalType": "uint256",
          "name": "stakelton",
          "type": "uint256"
        },
        {
          "internalType": "bool",
          "name": "stake",
          "type": "bool"
        }
      ],
      "stateMutability": "view",
      "type": "function"
    },
    {
      "inputs": [
        {
          "internalType": "uint32",
          "name": "layerIndex",
          "type": "uint32"
        },
        {
          "internalType": "address",
          "name": "account",
          "type": "address"
        }
      ],
      "name": "numberOfPendings",
      "outputs": [
        {
          "internalType": "uint256",
          "name": "totalRequests",
          "type": "uint256"
        },
        {
          "internalType": "uint256",
          "name": "withdrawIndex",
          "type": "uint256"
        },
        {
          "internalType": "uint256",
          "name": "pendingLength",
          "type": "uint256"
        }
      ],
      "stateMutability": "view",
      "type": "function"
    },
    {
      "inputs": [
        {
          "internalType": "address",
          "name": "sender",
          "type": "address"
        },
        {
          "internalType": "address",
          "name": "spender",
          "type": "address"
        },
        {
          "internalType": "uint256",
          "name": "amount",
          "type": "uint256"
        },
        {
          "internalType": "bytes",
          "name": "data",
          "type": "bytes"
        }
      ],
      "name": "onApprove",
      "outputs": [
        {
          "internalType": "bool",
          "name": "",
          "type": "bool"
        }
      ],
      "stateMutability": "nonpayable",
      "type": "function"
    },
    {
      "inputs": [
        {
          "internalType": "uint32",
          "name": "_index",
          "type": "uint32"
        }
      ],
      "name": "operator",
      "outputs": [
        {
          "internalType": "address",
          "name": "operator_",
          "type": "address"
        }
      ],
      "stateMutability": "view",
      "type": "function"
    },
    {
      "inputs": [
        {
          "internalType": "uint32",
          "name": "",
          "type": "uint32"
        },
        {
          "internalType": "address",
          "name": "",
          "type": "address"
        }
      ],
      "name": "operators",
      "outputs": [
        {
          "internalType": "uint32",
          "name": "",
          "type": "uint32"
        }
      ],
      "stateMutability": "view",
      "type": "function"
    },
    {
      "inputs": [],
      "name": "pauseProxy",
      "outputs": [
        {
          "internalType": "bool",
          "name": "",
          "type": "bool"
        }
      ],
      "stateMutability": "view",
      "type": "function"
    },
    {
      "inputs": [
        {
          "internalType": "uint32",
          "name": "",
          "type": "uint32"
        },
        {
          "internalType": "address",
          "name": "",
          "type": "address"
        }
      ],
      "name": "pendingUnstaked",
      "outputs": [
        {
          "internalType": "uint256",
          "name": "",
          "type": "uint256"
        }
      ],
      "stateMutability": "view",
      "type": "function"
    },
    {
      "inputs": [
        {
          "internalType": "address",
          "name": "",
          "type": "address"
        }
      ],
      "name": "pendingUnstakedAccount",
      "outputs": [
        {
          "internalType": "uint256",
          "name": "",
          "type": "uint256"
        }
      ],
      "stateMutability": "view",
      "type": "function"
    },
    {
      "inputs": [
        {
          "internalType": "uint32",
          "name": "",
          "type": "uint32"
        }
      ],
      "name": "pendingUnstakedLayer2",
      "outputs": [
        {
          "internalType": "uint256",
          "name": "",
          "type": "uint256"
        }
      ],
      "stateMutability": "view",
      "type": "function"
    },
    {
      "inputs": [
        {
          "internalType": "uint256",
          "name": "",
          "type": "uint256"
        }
      ],
      "name": "proxyImplementation",
      "outputs": [
        {
          "internalType": "address",
          "name": "",
          "type": "address"
        }
      ],
      "stateMutability": "view",
      "type": "function"
    },
    {
      "inputs": [
        {
          "internalType": "address",
          "name": "account",
          "type": "address"
        }
      ],
      "name": "removeAdmin",
      "outputs": [],
      "stateMutability": "nonpayable",
      "type": "function"
    },
    {
      "inputs": [
        {
          "internalType": "bytes32",
          "name": "role",
          "type": "bytes32"
        },
        {
          "internalType": "address",
          "name": "account",
          "type": "address"
        }
      ],
      "name": "renounceRole",
      "outputs": [],
      "stateMutability": "nonpayable",
      "type": "function"
    },
    {
      "inputs": [
        {
          "internalType": "uint32",
          "name": "_index",
          "type": "uint32"
        }
      ],
      "name": "restake",
      "outputs": [],
      "stateMutability": "nonpayable",
      "type": "function"
    },
    {
      "inputs": [
        {
          "internalType": "uint32",
          "name": "_index",
          "type": "uint32"
        },
        {
          "internalType": "uint256",
          "name": "n",
          "type": "uint256"
        }
      ],
      "name": "restakeMulti",
      "outputs": [],
      "stateMutability": "nonpayable",
      "type": "function"
    },
    {
      "inputs": [
        {
          "internalType": "bytes32",
          "name": "role",
          "type": "bytes32"
        },
        {
          "internalType": "address",
          "name": "account",
          "type": "address"
        }
      ],
      "name": "revokeRole",
      "outputs": [],
      "stateMutability": "nonpayable",
      "type": "function"
    },
    {
      "inputs": [],
      "name": "seigManagerV2",
      "outputs": [
        {
          "internalType": "address",
          "name": "",
          "type": "address"
        }
      ],
      "stateMutability": "view",
      "type": "function"
    },
    {
      "inputs": [
        {
          "internalType": "bytes4",
          "name": "",
          "type": "bytes4"
        }
      ],
      "name": "selectorImplementation",
      "outputs": [
        {
          "internalType": "address",
          "name": "",
          "type": "address"
        }
      ],
      "stateMutability": "view",
      "type": "function"
    },
    {
      "inputs": [
        {
          "internalType": "uint32",
          "name": "_index",
          "type": "uint32"
        },
        {
          "internalType": "uint256",
          "name": "amount",
          "type": "uint256"
        }
      ],
      "name": "stake",
      "outputs": [],
      "stateMutability": "nonpayable",
      "type": "function"
    },
    {
      "inputs": [
        {
          "internalType": "uint256",
          "name": "",
          "type": "uint256"
        }
      ],
      "name": "stakeAccountList",
      "outputs": [
        {
          "internalType": "address",
          "name": "",
          "type": "address"
        }
      ],
      "stateMutability": "view",
      "type": "function"
    },
    {
      "inputs": [
        {
          "internalType": "bytes4",
          "name": "interfaceId",
          "type": "bytes4"
        }
      ],
      "name": "supportsInterface",
      "outputs": [
        {
          "internalType": "bool",
          "name": "",
          "type": "bool"
        }
      ],
      "stateMutability": "view",
      "type": "function"
    },
    {
      "inputs": [],
      "name": "ton",
      "outputs": [
        {
          "internalType": "address",
          "name": "",
          "type": "address"
        }
      ],
      "stateMutability": "view",
      "type": "function"
    },
    {
      "inputs": [],
      "name": "totalLayer2Deposits",
      "outputs": [
        {
          "internalType": "uint256",
          "name": "amount",
          "type": "uint256"
        }
      ],
      "stateMutability": "view",
      "type": "function"
    },
    {
      "inputs": [],
      "name": "totalStakeAccountList",
      "outputs": [
        {
          "internalType": "uint256",
          "name": "",
          "type": "uint256"
        }
      ],
      "stateMutability": "view",
      "type": "function"
    },
    {
      "inputs": [],
      "name": "totalStakedLton",
      "outputs": [
        {
          "internalType": "uint256",
          "name": "amount",
          "type": "uint256"
        }
      ],
      "stateMutability": "view",
      "type": "function"
    },
    {
      "inputs": [
        {
          "internalType": "uint256",
          "name": "snapshotId",
          "type": "uint256"
        }
      ],
      "name": "totalStakedLtonAt",
      "outputs": [
        {
          "internalType": "uint256",
          "name": "amount",
          "type": "uint256"
        }
      ],
      "stateMutability": "view",
      "type": "function"
    },
    {
      "inputs": [
        {
          "internalType": "uint256",
          "name": "snapshotId",
          "type": "uint256"
        }
      ],
      "name": "totalStakedLtonAtSnapshot",
      "outputs": [
        {
          "internalType": "bool",
          "name": "snapshotted",
          "type": "bool"
        },
        {
          "internalType": "uint256",
          "name": "amount",
          "type": "uint256"
        }
      ],
      "stateMutability": "view",
      "type": "function"
    },
    {
      "inputs": [
        {
          "internalType": "address",
          "name": "newAdmin",
          "type": "address"
        }
      ],
      "name": "transferAdmin",
      "outputs": [],
      "stateMutability": "nonpayable",
      "type": "function"
    },
    {
      "inputs": [
        {
          "internalType": "uint32",
          "name": "_index",
          "type": "uint32"
        },
        {
          "internalType": "uint256",
          "name": "lton_",
          "type": "uint256"
        }
      ],
      "name": "unstake",
      "outputs": [],
      "stateMutability": "nonpayable",
      "type": "function"
    },
    {
      "inputs": [
        {
          "internalType": "uint32",
          "name": "_index",
          "type": "uint32"
        }
      ],
      "name": "withdraw",
      "outputs": [],
      "stateMutability": "nonpayable",
      "type": "function"
    },
    {
      "inputs": [
        {
          "internalType": "uint32",
          "name": "",
          "type": "uint32"
        },
        {
          "internalType": "address",
          "name": "",
          "type": "address"
        }
      ],
      "name": "withdrawalRequestIndex",
      "outputs": [
        {
          "internalType": "uint256",
          "name": "",
          "type": "uint256"
        }
      ],
      "stateMutability": "view",
      "type": "function"
    },
    {
      "inputs": [
        {
          "internalType": "uint32",
          "name": "",
          "type": "uint32"
        },
        {
          "internalType": "address",
          "name": "",
          "type": "address"
        },
        {
          "internalType": "uint256",
          "name": "",
          "type": "uint256"
        }
      ],
      "name": "withdrawalRequests",
      "outputs": [
        {
          "internalType": "uint32",
          "name": "withdrawableBlockNumber",
          "type": "uint32"
        },
        {
          "internalType": "uint128",
          "name": "amount",
          "type": "uint128"
        },
        {
          "internalType": "bool",
          "name": "processed",
          "type": "bool"
        }
      ],
      "stateMutability": "view",
      "type": "function"
    }
  ],
  "bytecode": "0x60806040526006805460ff1916600117905534801561001d57600080fd5b50614b078061002d6000396000f3fe608060405234801561001057600080fd5b50600436106103715760003560e01c806375b238fc116101d5578063a217fddf11610105578063cdc76cf9116100a8578063cdc76cf9146109fd578063d07918f114610a10578063d539139314610a23578063d547741f14610a4a578063df2b429014610a5d578063e4f6815514610a70578063ec110d4514610a83578063f8d437ae14610a96578063fde4819714610aa957600080fd5b8063a217fddf1461094b578063aa9224cd14610953578063b413b37a14610530578063b6a2f99d14610966578063b911135f14610994578063b969fbef146109bd578063b9cab971146109c5578063cc48b947146109e557600080fd5b80638c71762d116101785780638c71762d146107ff5780638d99e1ca146108345780638ddd87fe1461084757806391d148541461088557806394c89b2c1461089857806398238355146108ab5780639c2f614f146108be5780639c656e26146108d1578063a0b2a9131461092b57600080fd5b806375b238fc1461073a578063763936c71461074f5780637cf1587c146107625780637d211a1c1461078d5780637ec6840f146107a057806385b9e485146107b357806387dd8bd0146107c65780638afec9fc146107d957600080fd5b80634ec2f04b116102b0578063659ab82011610253578063659ab820146106495780636818a32b146106695780636d1ef1031461067c57806370480275146106bb57806370619cf9146106ce5780637138c792146106ee57806373469a7a14610701578063744a35611461071457806375829def1461072757600080fd5b80634ec2f04b146105385780634f818d0c1461056257806350d2a276146105aa5780635439ad86146105d3578063550d01a3146105db5780635e2cfe45146105fe5780635f1b989e1461062957806363a8fd891461063c57600080fd5b8063282c51f311610318578063282c51f3146104a057806329637c1c146104c75780632f2ff15d146104da57806336568abe146104ed5780634273ca161461050057806346bcdb49146105135780634de131ca1461051b5780634e1a264d1461053057600080fd5b806301ffc9a714610376578063118e29d11461039e57806316b5d5bd146103b35780631785f53c146103d35780631ed94495146103e65780631f760d011461041d578063248a9ca31461045c57806324d7806c1461048d575b600080fd5b6103896103843660046140d0565b610aef565b60405190151581526020015b60405180910390f35b6103b16103ac36600461410c565b610b26565b005b6008546103c6906001600160a01b031681565b6040516103959190614129565b6103b16103e1366004614152565b610b80565b6103f96103f436600461416f565b610bc0565b60408051825181526020808401519082015291810151151590820152606001610395565b61043061042b36600461416f565b610c3f565b6040805194855263ffffffff938416602086015291831691840191909152166060820152608001610395565b61047f61046a3660046141a8565b60009081526020819052604090206001015490565b604051908152602001610395565b61038961049b366004614152565b610d7c565b61047f7f9667e80708b6eeeb0053fa0cca44e028ff548e2a9f029edfeac87c118b08b7c881565b61047f6104d53660046141c1565b610d96565b6103b16104e8366004614202565b610e25565b6103b16104fb366004614202565b610e4f565b61038961050e366004614227565b610ec9565b60175461047f565b610523611049565b60405161039591906142c6565b600a5461047f565b61054b610546366004614313565b6110ab565b604080519215158352602083019190915201610395565b61057561057036600461410c565b6110d9565b6040805182516001600160a01b0316815260208084015163ffffffff16908201529181015161ffff1690820152606001610395565b6103c66105b83660046140d0565b6004602052600090815260409020546001600160a01b031681565b61047f61117d565b6103896105e9366004614152565b60036020526000908152604090205460ff1681565b61047f61060c36600461416f565b601360209081526000928352604080842090915290825290205481565b61047f61063736600461416f565b6111f0565b6001546103899060ff1681565b61065c61065736600461410c565b611248565b604051610395919061438f565b61047f6106773660046141c1565b6112e2565b61068f61068a3660046141c1565b61133e565b6040805163ffffffff90941684526001600160801b039092166020840152151590820152606001610395565b6103b16106c9366004614152565b61139c565b61047f6106dc36600461410c565b600d6020526000908152604090205481565b6103896106fc3660046143a2565b6113d9565b6007546103c6906001600160a01b031681565b6103b1610722366004614313565b61158b565b6103b1610735366004614152565b6115d7565b61047f600080516020614ab283398151915281565b6103c661075d36600461410c565b6116ce565b61047f61077036600461416f565b601260209081526000928352604080842090915290825290205481565b61038961079b36600461410c565b61178f565b6103b16107ae366004614313565b61184d565b6103896107c13660046143ea565b6118c5565b61047f6107d436600461410c565b611b23565b61047f6107e736600461410c565b63ffffffff166000908152600d602052604090205490565b61081261080d36600461416f565b611c0e565b6040805193845263ffffffff9283166020850152911690820152606001610395565b61047f61084236600461410c565b611d4a565b61047f61085536600461416f565b63ffffffff821660009081526013602090815260408083206001600160a01b038516845290915290205492915050565b610389610893366004614202565b611dbd565b61047f6108a636600461416f565b611de6565b61054b6108b93660046141c1565b611e6a565b6103b16108cc366004614313565b611eac565b61090e6108df36600461416f565b600f60209081526000928352604080842090915290825290208054600182015460029092015490919060ff1683565b604080519384526020840192909252151590820152606001610395565b61047f610939366004614152565b60156020526000908152604090205481565b61047f600081565b6103b161096136600461410c565b611fdc565b61097961097436600461416f565b6123cd565b60408051938452602084019290925290820152606001610395565b6103c66109a23660046141a8565b6002602052600090815260409020546001600160a01b031681565b61047f612428565b61047f6109d336600461410c565b60146020526000908152604090205481565b6006546103c69061010090046001600160a01b031681565b61047f610a0b366004614313565b612472565b6009546103c6906001600160a01b031681565b61047f7ff0887ba65ee2024ea881d91b74c2450ef19e1557f03bed3ea9f16b037cbe2dc981565b6103b1610a58366004614202565b6124c5565b610389610a6b36600461448c565b6124ea565b61047f610a7e3660046141a8565b6127f9565b6103c6610a913660046141a8565b61281a565b61054b610aa43660046141a8565b612844565b610ada610ab736600461416f565b601860209081526000928352604080842090915290825290205463ffffffff1681565b60405163ffffffff9091168152602001610395565b60006001600160e01b03198216637965db0b60e01b1480610b2057506301ffc9a760e01b6001600160e01b03198316145b92915050565b63ffffffff811660009081526012602090815260408083203380855292529091205490610b5790839083600161285b565b610b7c5760405162461bcd60e51b8152600401610b7390614534565b60405180910390fd5b5050565b610b8933610d7c565b610ba55760405162461bcd60e51b8152600401610b739061455a565b610bbd600080516020614ab283398151915282610e4f565b50565b610be6604051806060016040528060008152602001600081526020016000151581525090565b5063ffffffff9091166000908152600f602090815260408083206001600160a01b039094168352928152908290208251606081018452815481526001820154928101929092526002015460ff1615159181019190915290565b63ffffffff80831660008181526011602090815260408083206001600160a01b038716808552908352818420549484526012835281842090845290915281205490929091839182919084165b81811015610d715763ffffffff881660009081526011602090815260408083206001600160a01b038b1684529091528120805483908110610cce57610cce61459c565b6000918252602080832060408051606081018252939091015463ffffffff81168452600160201b81046001600160801b031692840192909252600160a01b90910460ff1615159082018190529092509003610d5e578363ffffffff16600003610d3657805193505b6020810151610d4e906001600160801b0316886145c8565b9650610d5b6001866145db565b94505b5080610d69816145ff565b915050610c8b565b505092959194509250565b6000610b20600080516020614ab283398151915283611dbd565b6007546000906001600160a01b0316638df40b2c610db58686866112e2565b846040518363ffffffff1660e01b8152600401610ddc929190918252602082015260400190565b602060405180830381865afa158015610df9573d6000803e3d6000fd5b505050506040513d601f19601f82011682018060405250810190610e1d9190614618565b949350505050565b600082815260208190526040902060010154610e4081612cca565b610e4a8383612cd4565b505050565b6001600160a01b0381163314610ebf5760405162461bcd60e51b815260206004820152602f60248201527f416363657373436f6e74726f6c3a2063616e206f6e6c792072656e6f756e636560448201526e103937b632b9903337b91039b2b63360891b6064820152608401610b73565b610b7c8282612d58565b60065460009061010090046001600160a01b03163314610f105760405162461bcd60e51b8152602060048201526002602482015261454160f01b6044820152606401610b73565b610f5761079b600085858080601f0160208091040260200160405190810160405280939291908181526020018383808284376000920191909152509293925050612dbd9050565b610f735760405162461bcd60e51b8152600401610b7390614631565b6000610fb9600085858080601f0160208091040260200160405190810160405280939291908181526020018383808284376000920191909152509293925050612dbd9050565b90508415610fde57600654610fde9061010090046001600160a01b0316883088612e68565b6000610fe9826110d9565b9050806040015161ffff166000148061100e575080516001600160a01b038981169116145b1561102657611021828988600080612f83565b61103b565b61103b82898884600001518560400151612f83565b506001979650505050505050565b606060178054806020026020016040519081016040528092919081815260200182805480156110a157602002820191906000526020600020905b81546001600160a01b03168152600190910190602001808311611083575b5050505050905090565b63ffffffff82166000908152600e6020526040812081906110cd908490613346565b915091505b9250929050565b604080516060810182526000808252602080830182905282840182905263ffffffff8516825260169052829020915163186ca86f60e21b8152909173__$d436d56fec194dfaaabaf06742f0275c03$__916361b2a1bc9161113c91600401614697565b606060405180830381865af4158015611159573d6000803e3d6000fd5b505050506040513d601f19601f82011682018060405250810190610b209190614722565b60075460408051632a1cd6c360e11b815290516000926001600160a01b031691635439ad869160048083019260209291908290030181865afa1580156111c7573d6000803e3d6000fd5b505050506040513d601f19601f820116820180604052508101906111eb9190614618565b905090565b63ffffffff9091166000908152600f602090815260408083206001600160a01b03909416835292815290829020825160608101845281548152600182015492810183905260029091015460ff16151592019190915290565b6016602052600090815260409020805461126190614663565b80601f016020809104026020016040519081016040528092919081815260200182805461128d90614663565b80156112da5780601f106112af576101008083540402835291602001916112da565b820191906000526020600020905b8154815290600101906020018083116112bd57829003601f168201915b505050505081565b63ffffffff831660009081526010602090815260408083206001600160a01b038616845290915281208190819061131a908590613346565b91509150816113325761132d86866111f0565b611334565b805b9695505050505050565b6011602052826000526040600020602052816000526040600020818154811061136657600080fd5b60009182526020909120015463ffffffff81169350600160201b81046001600160801b03169250600160a01b900460ff16905083565b6113a533610d7c565b6113c15760405162461bcd60e51b8152600401610b739061455a565b610bbd600080516020614ab283398151915282610e25565b6009546000906001600160a01b031633146114065760405162461bcd60e51b8152600401610b739061479b565b6114108484613464565b600754604051636a2fb1f560e01b8152600481018490526000916001600160a01b031690636a2fb1f590602401602060405180830381865afa15801561145a573d6000803e3d6000fd5b505050506040513d601f19601f8201168201806040525081019061147e9190614618565b63ffffffff86166000908152600d60205260408120805492935083929091906114a89084906145c8565b9250508190555080600a60008282546114c191906145c8565b909155505063ffffffff85166000908152600f602090815260408083206001600160a01b038816845290915281208054909185918391906115039084906145c8565b925050819055508181600101600082825461151e91906145c8565b90915550506040805188815263ffffffff881660208201526001600160a01b03871681830152606081018690526080810184905290517f8cf204c07a4ce065cdd0c90963672bd384e5479ada88179bca8eb6075c02731f9181900360a00190a15060019695505050505050565b63ffffffff8216600090815260126020908152604080832033808552925290912054906115bb908490838561285b565b610e4a5760405162461bcd60e51b8152600401610b7390614534565b6115e033610d7c565b6115fc5760405162461bcd60e51b8152600401610b739061455a565b6001600160a01b03811661164d5760405162461bcd60e51b815260206004820152601860248201527741636365737369626c653a207a65726f206164647265737360401b6044820152606401610b73565b6001600160a01b038116330361169e5760405162461bcd60e51b815260206004820152601660248201527520b1b1b2b9b9b4b136329d1039b0b6b29030b236b4b760511b6044820152606401610b73565b6116b6600080516020614ab283398151915282610e25565b610bbd600080516020614ab283398151915233610e4f565b63ffffffff8116600090815260166020526040812080548291906116f190614663565b80601f016020809104026020016040519081016040528092919081815260200182805461171d90614663565b801561176a5780601f1061173f5761010080835404028352916020019161176a565b820191906000526020600020905b81548152906001019060200180831161174d57829003601f168201915b50505050509050601781511115611789576117868160006134d9565b91505b50919050565b600854604051635d170f8f60e01b815263ffffffff831660048201526000916001600160a01b031690635d170f8f90602401602060405180830381865afa1580156117de573d6000803e3d6000fd5b505050506040513d601f19601f8201168201806040525081019061180291906147c2565b6118455760405162461bcd60e51b81526020600482015260146024820152733737b716b932b3b4b9ba32b932b2103630bcb2b960611b6044820152606401610b73565b506001919050565b6118568261178f565b6118725760405162461bcd60e51b8152600401610b7390614631565b600061187d836110d9565b9050806040015161ffff166000148061189f575080516001600160a01b031633145b156118b157610e4a8383600080613586565b610e4a838383600001518460400151613586565b60065460009060ff166118ea5760405162461bcd60e51b8152600401610b73906147e4565b6006805460ff191690556009546001600160a01b0316331461191e5760405162461bcd60e51b8152600401610b739061479b565b816119298686611de6565b10156119735760405162461bcd60e51b81526020600482015260196024820152781b1a5c5d5a591a5d1e481a5cc81a5b9cdd59999a58da595b9d603a1b6044820152606401610b73565b61197d8585613464565b6006546040516370a0823160e01b815260009161010090046001600160a01b0316906370a08231906119b3903090600401614129565b602060405180830381865afa1580156119d0573d6000803e3d6000fd5b505050506040513d601f19601f820116820180604052508101906119f49190614618565b905082811015611a90578015611a2057600654611a209061010090046001600160a01b031685836135b6565b6007546001600160a01b031663aad3ec9685611a3c8487614802565b6040518363ffffffff1660e01b8152600401611a59929190614815565b600060405180830381600087803b158015611a7357600080fd5b505af1158015611a87573d6000803e3d6000fd5b50505050611aac565b600654611aac9061010090046001600160a01b031685856135b6565b6040805188815263ffffffff881660208201526001600160a01b0387811682840152861660608201526080810185905290517f77fbf71434da34ef2aa8382e2b751b6b2de7bd18d96a07ff7f4dae7dae9237619181900360a00190a160019150506006805460ff1916600117905595945050505050565b63ffffffff811660009081526016602052604081208054829190611b4690614663565b80601f0160208091040260200160405190810160405280929190818152602001828054611b7290614663565b8015611bbf5780601f10611b9457610100808354040283529160200191611bbf565b820191906000526020600020905b815481529060010190602001808311611ba257829003601f168201915b50505050509050611bdd60006018836136cd9092919063ffffffff16565b6000604051602001611bf092919061482e565b60405160208183030381529060405280519060200120915050919050565b63ffffffff80831660008181526011602090815260408083206001600160a01b038716808552908352818420549484526012835281842090845290915281205490929091839183165b81811015611d415763ffffffff871660009081526011602090815260408083206001600160a01b038a1684529091528120805483908110611c9a57611c9a61459c565b600091825260209182902060408051606081018252929091015463ffffffff8116808452600160201b82046001600160801b031694840194909452600160a01b900460ff16151590820152915043118015611cf757506040810151155b15611d28576020810151611d14906001600160801b0316876145c8565b9550611d216001856145db565b9350611d2e565b50611d41565b5080611d39816145ff565b915050611c57565b50509250925092565b6008546040516346ccf0e560e11b815263ffffffff831660048201526000916001600160a01b031690638d99e1ca90602401602060405180830381865afa158015611d99573d6000803e3d6000fd5b505050506040513d601f19601f82011682018060405250810190610b209190614618565b6000918252602082815260408084206001600160a01b0393909316845291905290205460ff1690565b6007546000906001600160a01b031663cdf68009611e0485856111f0565b6040518263ffffffff1660e01b8152600401611e2291815260200190565b602060405180830381865afa158015611e3f573d6000803e3d6000fd5b505050506040513d601f19601f82011682018060405250810190611e639190614618565b9392505050565b63ffffffff831660009081526010602090815260408083206001600160a01b038616845290915281208190611ea0908490613346565b91509150935093915050565b600954604051630265991f60e61b81526001600482015263ffffffff841660248201523360448201526000916001600160a01b03169063996647c090606401602060405180830381865afa158015611f08573d6000803e3d6000fd5b505050506040513d601f19601f82011682018060405250810190611f2c9190614618565b9050611f37836116ce565b6001600160a01b03163303611fd157610e4a8383600860009054906101000a90046001600160a01b03166001600160a01b031663a4dd8b7d6040518163ffffffff1660e01b8152600401602060405180830381865afa158015611f9e573d6000803e3d6000fd5b505050506040513d601f19601f82011682018060405250810190611fc29190614618565b611fcc90856145c8565b6137e2565b610e4a8383836137e2565b60065460ff16611ffe5760405162461bcd60e51b8152600401610b73906147e4565b6006805460ff1916905563ffffffff811660008181526011602090815260408083203380855290835281842054948452601283528184208185529092528220549092919081905b838110156121165763ffffffff861660009081526011602090815260408083206001600160a01b038916845290915281208054839081106120885761208861459c565b600091825260209091200180549091504363ffffffff9091161080156120b757508054600160a01b900460ff16155b156120fd57805460ff60a01b1916600160a01b178082556120e9906001600160801b03600160201b90910416846145c8565b9250836120f5816145ff565b945050612103565b50612116565b508061210e816145ff565b915050612045565b50600081116121675760405162461bcd60e51b815260206004820181905260248201527f7a65726f20617661696c61626c65207769746864726177616c20616d6f756e746044820152606401610b73565b63ffffffff851660009081526012602090815260408083206001600160a01b0388168452909152812080548492906121a09084906145c8565b909155505063ffffffff851660009081526013602090815260408083206001600160a01b0388168452909152812080548392906121de908490614802565b909155505063ffffffff851660009081526014602052604081208054839290612208908490614802565b90915550506001600160a01b03841660009081526015602052604081208054839290612235908490614802565b90915550506006546040516370a0823160e01b815260009161010090046001600160a01b0316906370a0823190612270903090600401614129565b602060405180830381865afa15801561228d573d6000803e3d6000fd5b505050506040513d601f19601f820116820180604052508101906122b19190614618565b90508181101561234d5780156122dd576006546122dd9061010090046001600160a01b031686836135b6565b6007546001600160a01b031663aad3ec96866122f98486614802565b6040518363ffffffff1660e01b8152600401612316929190614815565b600060405180830381600087803b15801561233057600080fd5b505af1158015612344573d6000803e3d6000fd5b50505050612369565b6006546123699061010090046001600160a01b031686846135b6565b6040805163ffffffff881681526001600160a01b03871660208201529081018390527f2d6eb139d2002caa088da5527d9d62f2f23bdf4504f5559a112535c436c6ee599060600160405180910390a150506006805460ff1916600117905550505050565b63ffffffff821660008181526011602090815260408083206001600160a01b0386168085529083528184205494845260128352818420908452909152812054908183106124215761241e8284614802565b90505b9250925092565b6008546040805163b969fbef60e01b815290516000926001600160a01b03169163b969fbef9160048083019260209291908290030181865afa1580156111c7573d6000803e3d6000fd5b63ffffffff82166000908152600e6020526040812081908190612496908590613346565b91509150816124ba5763ffffffff85166000908152600d60205260409020546124bc565b805b95945050505050565b6000828152602081905260409020600101546124e081612cca565b610e4a8383612d58565b6008546000906001600160a01b0316331461253b5760405162461bcd60e51b81526020600482015260116024820152703737ba102630bcb2b91926b0b730b3b2b960791b6044820152606401610b73565b63ffffffff83166000908152601660205260409020805461255b90614663565b15905061259c5760405162461bcd60e51b815260206004820152600f60248201526e185b1c9958591e4818dc99585d1959608a1b6044820152606401610b73565b60398251116125db5760405162461bcd60e51b815260206004820152600b60248201526a77726f6e67205f696e666f60a81b6044820152606401610b73565b60405163186ca86f60e21b815260009073__$d436d56fec194dfaaabaf06742f0275c03$__906361b2a1bc9061261590869060040161438f565b606060405180830381865af4158015612632573d6000803e3d6000fd5b505050506040513d601f19601f820116820180604052508101906126569190614722565b60208082015163ffffffff908116600090815260188352604080822085516001600160a01b03168352909352919091205491925016156126c95760405162461bcd60e51b815260206004820152600e60248201526d185b1c99585908195e1a5cdd195960921b6044820152606401610b73565b61271061ffff16816040015161ffff16106127175760405162461bcd60e51b815260206004820152600e60248201526d31b7b6b6b4b9b9b4b7b71032b93960911b6044820152606401610b73565b600061272484601a613c72565b9050612733846000601a6136cd565b6040516020016127439190614860565b60408051601f1981840301815291815263ffffffff871660009081526016602052209061277090826148c2565b5060208281015163ffffffff908116600090815260188352604080822086516001600160a01b0316835290935291909120805463ffffffff191691871691909117905580156127ee576008546006546127dc916001600160a01b03610100909204821691163084612e68565b6127ee85836000015183600080612f83565b506001949350505050565b600080600061280984600b613346565b9150915081611e6357600a54610e1d565b6017818154811061282a57600080fd5b6000918252602090912001546001600160a01b0316905081565b60008061285283600b613346565b91509150915091565b60065460009060ff166128805760405162461bcd60e51b8152600401610b73906147e4565b6006805460ff191690556128948585613464565b63ffffffff851660009081526011602090815260408083206001600160a01b0388168452909152812054806128f85760405162461bcd60e51b815260206004820152600a6024820152696e6f20756e7374616b6560b01b6044820152606401610b73565b836129038683614802565b101561294c5760405162461bcd60e51b81526020600482015260186024820152776e2065786365656473206e756d206f662070656e64696e6760401b6044820152606401610b73565b600061295885876145c8565b90505b80861015612a425763ffffffff881660009081526011602090815260408083206001600160a01b038b168452909152812080548890811061299e5761299e61459c565b60009182526020909120018054909150600160201b81046001600160801b031690600160a01b900460ff1615612a0b5760405162461bcd60e51b8152602060048201526012602482015271185b1c9958591e481dda5d1a191c985dd85b60721b6044820152606401610b73565b8015612a1e57612a1b81866145c8565b94505b50805460ff60a01b1916600160a01b17905585612a3a816145ff565b96505061295b565b60008311612a8c5760405162461bcd60e51b81526020600482015260176024820152761b9bc81d985b1a59081c995cdd185ad948185b5bdd5b9d604a1b6044820152606401610b73565b600754604051636a2fb1f560e01b8152600481018590526000916001600160a01b031690636a2fb1f590602401602060405180830381865afa158015612ad6573d6000803e3d6000fd5b505050506040513d601f19601f82011682018060405250810190612afa9190614618565b63ffffffff8a166000908152600f602090815260408083206001600160a01b038d168452909152812080549293509186918391612b389084906145c8565b9250508190555081816001016000828254612b5391906145c8565b909155505063ffffffff8a166000908152600d602052604081208054849290612b7d9084906145c8565b9250508190555081600a6000828254612b9691906145c8565b909155505063ffffffff8a1660009081526013602090815260408083206001600160a01b038d16845290915281208054879290612bd4908490614802565b909155505063ffffffff8a1660009081526014602052604081208054879290612bfe908490614802565b90915550506001600160a01b03891660009081526015602052604081208054879290612c2b908490614802565b909155505063ffffffff8a1660009081526012602090815260408083206001600160a01b038d16845290915281208054899290612c699084906145c8565b90915550506040517f34981dc0486069d2abbaddbc42e10b97cb24e4bce60ee4457e1d5062dfc0b42990612ca4908c908c9089908790614982565b60405180910390a16001955050505050506006805460ff19166001179055949350505050565b610bbd8133613d1f565b612cde8282611dbd565b610b7c576000828152602081815260408083206001600160a01b03851684529091529020805460ff19166001179055612d143390565b6001600160a01b0316816001600160a01b0316837f2f8788117e7eff1d82e926ec794901d17c78024a50270940304540a733656f0d60405160405180910390a45050565b612d628282611dbd565b15610b7c576000828152602081815260408083206001600160a01b0385168085529252808320805460ff1916905551339285917ff6391f5c32d9c69d2a47ea670b442974b53935d1edc7fd64eb21e047a839171b9190a45050565b600081612dcb8160046145c8565b1015612e0d5760405162461bcd60e51b8152602060048201526011602482015270746f55696e7433325f6f766572666c6f7760781b6044820152606401610b73565b612e188260046145c8565b83511015612e5f5760405162461bcd60e51b8152602060048201526014602482015273746f55696e7433325f6f75744f66426f756e647360601b6044820152606401610b73565b50016004015190565b604080516001600160a01b0385811660248301528481166044830152606480830185905283518084039091018152608490920183526020820180516001600160e01b03166323b872dd60e01b1790529151600092839290881691612ecc9190614860565b6000604051808303816000865af19150503d8060008114612f09576040519150601f19603f3d011682016040523d82523d6000602084013e612f0e565b606091505b5091509150818015612f38575080511580612f38575080806020019051810190612f3891906147c2565b612f7b5760405162461bcd60e51b81526020600482015260146024820152731514905394d1915497d19493d357d1905253115160621b6044820152606401610b73565b505050505050565b60065460ff16612fa55760405162461bcd60e51b8152600401610b73906147e4565b6006805460ff19169055826000819003612fd15760405162461bcd60e51b8152600401610b73906149ae565b612fdb8686613464565b600754604051636a2fb1f560e01b8152600481018690526000916001600160a01b031690636a2fb1f590602401602060405180830381865afa158015613025573d6000803e3d6000fd5b505050506040513d601f19601f820116820180604052508101906130499190614618565b63ffffffff88166000908152600d60205260408120805492935083929091906130739084906145c8565b9250508190555080600a600082825461308c91906145c8565b909155505063ffffffff87166000908152600f602090815260408083206001600160a01b038a1684529091529020600281015460ff1661312157600281018054600160ff1990911681179091556017805491820181556000527fc624b66cc0138b8fabc209247f72d758e1cf3343756d543badbf24212bed8c150180546001600160a01b0319166001600160a01b0389161790555b600061ffff85161580159061313e57506001600160a01b03861615155b801561314f57506127108561ffff16105b156132925761271061316561ffff8716856149ca565b61316f91906149e1565b905061317b8184614802565b60075460405163cdf6800960e01b8152600481018390529194506000916001600160a01b039091169063cdf6800990602401602060405180830381865afa1580156131ca573d6000803e3d6000fd5b505050506040513d601f19601f820116820180604052508101906131ee9190614618565b90508083600001600082825461320491906145c8565b925050819055508383600101600082825461321f91906145c8565b909155505063ffffffff8a166000908152600f602090815260408083206001600160a01b038b1684529091529020613257828a614802565b81600001600082825461326a91906145c8565b925050819055508281600101600082825461328591906145c8565b909155506132c792505050565b868260000160008282546132a691906145c8565b92505081905550828260010160008282546132c191906145c8565b90915550505b6040805163ffffffff8b1681526001600160a01b038a811660208301528183018a9052606082018690528816608082015261ffff871660a082015290517f318dab784577ac2e7d86f88c3f2a80520b447b822b8a756158648e0f917d16a09181900360c00190a150506006805460ff1916600117905550505050505050565b60008061335161117d565b84111561339b5760405162461bcd60e51b815260206004820152601860248201527714db985c1cda1bdd0e881b9bdb995e1a5cdd195b9d081a5960421b6044820152606401610b73565b8254158015906133d45750825483906133b690600190614802565b815481106133c6576133c661459c565b906000526020600020015484115b156134125782546000906001808601916133ee9190614802565b815481106133fe576133fe61459c565b9060005260206000200154915091506110d2565b600061341e8486613d78565b845490915081106134365760008092509250506110d2565b600184600101828154811061344d5761344d61459c565b906000526020600020015492509250509250929050565b613477600b613472600a5490565b613e88565b63ffffffff82166000908152600e60209081526040808320600d909252909120546134a29190613e88565b63ffffffff821660009081526010602090815260408083206001600160a01b03851684529091529020610b7c9061347284846111f0565b6000816134e78160146145c8565b101561352a5760405162461bcd60e51b8152602060048201526012602482015271746f416464726573735f6f766572666c6f7760701b6044820152606401610b73565b6135358260146145c8565b8351101561357d5760405162461bcd60e51b8152602060048201526015602482015274746f416464726573735f6f75744f66426f756e647360581b6044820152606401610b73565b50016014015190565b6006546135a39061010090046001600160a01b0316333086612e68565b6135b08433858585612f83565b50505050565b600080846001600160a01b031663a9059cbb60e01b85856040516024016135de929190614815565b60408051601f198184030181529181526020820180516001600160e01b03166001600160e01b031990941693909317909252905161361c9190614860565b6000604051808303816000865af19150503d8060008114613659576040519150601f19603f3d011682016040523d82523d6000602084013e61365e565b606091505b509150915081801561368857508051158061368857508080602001905181019061368891906147c2565b6136c65760405162461bcd60e51b815260206004820152600f60248201526e1514905394d1915497d19052531151608a1b6044820152606401610b73565b5050505050565b6060816136db81601f6145c8565b10156136f95760405162461bcd60e51b8152600401610b7390614a03565b8261370483826145c8565b10156137225760405162461bcd60e51b8152600401610b7390614a03565b61372c82846145c8565b845110156137705760405162461bcd60e51b8152602060048201526011602482015270736c6963655f6f75744f66426f756e647360781b6044820152606401610b73565b60608215801561378f57604051915060008252602082016040526137d9565b6040519150601f8416801560200281840101858101878315602002848b0101015b818310156137c85780518352602092830192016137b0565b5050858452601f01601f1916604052505b50949350505050565b60065460ff166138045760405162461bcd60e51b8152600401610b73906147e4565b6006805460ff191690558160008190036138305760405162461bcd60e51b8152600401610b73906149ae565b3361383b8582613464565b60075460405163cdf6800960e01b8152600481018690526000916001600160a01b03169063cdf6800990602401602060405180830381865afa158015613885573d6000803e3d6000fd5b505050506040513d601f19601f820116820180604052508101906138a99190614618565b63ffffffff87166000908152600f602090815260408083206001600160a01b03871684529091529020909150841561399a576001810154600754604051636a2fb1f560e01b8152600481018890526001600160a01b0390911690636a2fb1f590602401602060405180830381865afa158015613929573d6000803e3d6000fd5b505050506040513d601f19601f8201168201806040525081019061394d9190614618565b61395790886145c8565b11156139955760405162461bcd60e51b815260206004820152600d60248201526c756e7374616b655f6572725f3160981b6044820152606401610b73565b6139de565b80600101548611156139de5760405162461bcd60e51b815260206004820152600d60248201526c3ab739ba30b5b2afb2b9392f9960991b6044820152606401610b73565b858160010160008282546139f29190614802565b90915550508054821115613a095760008155613a23565b81816000016000828254613a1d9190614802565b90915550505b63ffffffff87166000908152600d602052604081208054889290613a48908490614802565b9250508190555085600a6000828254613a619190614802565b909155505060085460408051636577b27360e11b815290516000926001600160a01b03169163caef64e69160048083019260209291908290030181865afa158015613ab0573d6000803e3d6000fd5b505050506040513d601f19601f82011682018060405250810190613ad49190614618565b63ffffffff891660009081526011602090815260408083206001600160a01b03891684529091529081902081516060810190925291925080613b1684436145c8565b63ffffffff90811682526001600160801b0380881660208085019190915260006040948501819052865460018101885596815281812086519701805487840151978701511515600160a01b0260ff60a01b1998909516600160201b026001600160a01b0319909116988616989098179790971795909516919091179094558b168252601383528082206001600160a01b03881683529092529081208054859290613bc19084906145c8565b909155505063ffffffff881660009081526014602052604081208054859290613beb9084906145c8565b90915550506001600160a01b03841660009081526015602052604081208054859290613c189084906145c8565b90915550506040517f869a01319d83bb921803a22e3e95d0cb8b08e708d3fb144e2c25a563bf8650d390613c53908a90879087908c90614982565b60405180910390a150506006805460ff19166001179055505050505050565b600081613c808160206145c8565b1015613cc35760405162461bcd60e51b8152602060048201526012602482015271746f55696e743235365f6f766572666c6f7760701b6044820152606401610b73565b613cce8260206145c8565b83511015613d165760405162461bcd60e51b8152602060048201526015602482015274746f55696e743235365f6f75744f66426f756e647360581b6044820152606401610b73565b50016020015190565b613d298282611dbd565b610b7c57613d3681613edd565b613d41836020613eef565b604051602001613d52929190614a2b565b60408051601f198184030181529082905262461bcd60e51b8252610b739160040161438f565b81546000908103613d8b57506000610b20565b82548390613d9b90600190614802565b81548110613dab57613dab61459c565b90600052602060002001548210613dd1578254613dca90600190614802565b9050610b20565b82600081548110613de457613de461459c565b9060005260206000200154821015613dfe57506000610b20565b82546000908190613e1190600190614802565b90505b81811115613e805760006002613e2a84846145c8565b613e359060016145c8565b613e3f91906149e1565b905084868281548110613e5457613e5461459c565b906000526020600020015411613e6c57809250613e7a565b613e77600182614802565b91505b50613e14565b509392505050565b6000613e9261117d565b83549091501580613eaa575080613ea88461408b565b105b15610e4a578254600180820185556000858152602080822090930193909355938401805494850181558252902090910155565b6060610b206001600160a01b03831660145b60606000613efe8360026149ca565b613f099060026145c8565b67ffffffffffffffff811115613f2157613f21614445565b6040519080825280601f01601f191660200182016040528015613f4b576020820181803683370190505b509050600360fc1b81600081518110613f6657613f6661459c565b60200101906001600160f81b031916908160001a905350600f60fb1b81600181518110613f9557613f9561459c565b60200101906001600160f81b031916908160001a9053506000613fb98460026149ca565b613fc49060016145c8565b90505b600181111561403c576f181899199a1a9b1b9c1cb0b131b232b360811b85600f1660108110613ff857613ff861459c565b1a60f81b82828151811061400e5761400e61459c565b60200101906001600160f81b031916908160001a90535060049490941c9361403581614a9a565b9050613fc7565b508315611e635760405162461bcd60e51b815260206004820181905260248201527f537472696e67733a20686578206c656e67746820696e73756666696369656e746044820152606401610b73565b8054600090810361409e57506000919050565b815482906140ae90600190614802565b815481106140be576140be61459c565b90600052602060002001549050919050565b6000602082840312156140e257600080fd5b81356001600160e01b031981168114611e6357600080fd5b63ffffffff81168114610bbd57600080fd5b60006020828403121561411e57600080fd5b8135611e63816140fa565b6001600160a01b0391909116815260200190565b6001600160a01b0381168114610bbd57600080fd5b60006020828403121561416457600080fd5b8135611e638161413d565b6000806040838503121561418257600080fd5b823561418d816140fa565b9150602083013561419d8161413d565b809150509250929050565b6000602082840312156141ba57600080fd5b5035919050565b6000806000606084860312156141d657600080fd5b83356141e1816140fa565b925060208401356141f18161413d565b929592945050506040919091013590565b6000806040838503121561421557600080fd5b82359150602083013561419d8161413d565b60008060008060006080868803121561423f57600080fd5b853561424a8161413d565b9450602086013561425a8161413d565b935060408601359250606086013567ffffffffffffffff8082111561427e57600080fd5b818801915088601f83011261429257600080fd5b8135818111156142a157600080fd5b8960208285010111156142b357600080fd5b9699959850939650602001949392505050565b6020808252825182820181905260009190848201906040850190845b818110156143075783516001600160a01b0316835292840192918401916001016142e2565b50909695505050505050565b6000806040838503121561432657600080fd5b8235614331816140fa565b946020939093013593505050565b60005b8381101561435a578181015183820152602001614342565b50506000910152565b6000815180845261437b81602086016020860161433f565b601f01601f19169290920160200192915050565b602081526000611e636020830184614363565b600080600080608085870312156143b857600080fd5b8435935060208501356143ca816140fa565b925060408501356143da8161413d565b9396929550929360600135925050565b600080600080600060a0868803121561440257600080fd5b853594506020860135614414816140fa565b935060408601356144248161413d565b925060608601356144348161413d565b949793965091946080013592915050565b634e487b7160e01b600052604160045260246000fd5b604051601f8201601f1916810167ffffffffffffffff8111828210171561448457614484614445565b604052919050565b6000806040838503121561449f57600080fd5b82356144aa816140fa565b915060208381013567ffffffffffffffff808211156144c857600080fd5b818601915086601f8301126144dc57600080fd5b8135818111156144ee576144ee614445565b614500601f8201601f1916850161445b565b9150808252878482850101111561451657600080fd5b80848401858401376000848284010152508093505050509250929050565b6020808252600c908201526b534c5f455f52455354414b4560a01b604082015260600190565b60208082526022908201527f41636365737369626c653a2043616c6c6572206973206e6f7420616e2061646d60408201526134b760f11b606082015260800190565b634e487b7160e01b600052603260045260246000fd5b634e487b7160e01b600052601160045260246000fd5b80820180821115610b2057610b206145b2565b63ffffffff8181168382160190808211156145f8576145f86145b2565b5092915050565b600060018201614611576146116145b2565b5060010190565b60006020828403121561462a57600080fd5b5051919050565b6020808252601890820152776e6f6e2d726567697374657265642063616e64696461746560401b604082015260600190565b600181811c9082168061467757607f821691505b60208210810361178957634e487b7160e01b600052602260045260246000fd5b60006020808352600084546146ab81614663565b808487015260406001808416600081146146cc57600181146146e657614714565b60ff1985168984015283151560051b890183019550614714565b896000528660002060005b8581101561470c5781548b82018601529083019088016146f1565b8a0184019650505b509398975050505050505050565b60006060828403121561473457600080fd5b6040516060810181811067ffffffffffffffff8211171561475757614757614445565b60405282516147658161413d565b81526020830151614775816140fa565b6020820152604083015161ffff8116811461478f57600080fd5b60408201529392505050565b6020808252600d908201526c232bafa1a0a62622a92fa2a92960991b604082015260600190565b6000602082840312156147d457600080fd5b81518015158114611e6357600080fd5b6020808252600490820152636c6f636b60e01b604082015260600190565b81810381811115610b2057610b206145b2565b6001600160a01b03929092168252602082015260400190565b6000835161484081846020880161433f565b60f09390931b6001600160f01b0319169190920190815260020192915050565b6000825161487281846020870161433f565b9190910192915050565b601f821115610e4a57600081815260208120601f850160051c810160208610156148a35750805b601f850160051c820191505b81811015612f7b578281556001016148af565b815167ffffffffffffffff8111156148dc576148dc614445565b6148f0816148ea8454614663565b8461487c565b602080601f831160018114614925576000841561490d5750858301515b600019600386901b1c1916600185901b178555612f7b565b600085815260208120601f198616915b8281101561495457888601518255948401946001909101908401614935565b50858210156149725787850151600019600388901b60f8161c191681555b5050505050600190811b01905550565b63ffffffff9490941684526001600160a01b039290921660208401526040830152606082015260800190565b6020808252600290820152615a3160f01b604082015260600190565b8082028115828204841417610b2057610b206145b2565b6000826149fe57634e487b7160e01b600052601260045260246000fd5b500490565b6020808252600e908201526d736c6963655f6f766572666c6f7760901b604082015260600190565b76020b1b1b2b9b9a1b7b73a3937b61d1030b1b1b7bab73a1604d1b815260008351614a5d81601785016020880161433f565b7001034b99036b4b9b9b4b733903937b6329607d1b6017918401918201528351614a8e81602884016020880161433f565b01602801949350505050565b600081614aa957614aa96145b2565b50600019019056fedf8b4c520ffe197c5343c6f5aec59570151ef9a492f2c624fd45ddde6135ec42a2646970667358221220986c3c88f67ee246c4f5a57c828b238681e86ab0e964666473eb6835bae49c4464736f6c63430008120033",
  "linkReferences": {
    "contracts/libraries/LibOperator.sol": {
      "LibOperator": [
        {
          "length": 20,
          "start": 4419
        },
        {
          "length": 20,
          "start": 9754
        }
      ]
    }
  },
  "deployedLinkReferences": {
    "contracts/libraries/LibOperator.sol": {
      "LibOperator": [
        {
          "length": 20,
          "start": 4374
        },
        {
          "length": 20,
          "start": 9709
        }
      ]
    }
  }
}