{
  "_format": "hh-sol-artifact-1",
  "contractName": "DAOv2CommitteeV1",
  "sourceName": "contracts/dao/DAOv2CommitteeV1.sol",
  "abi": [
    {
      "anonymous": false,
      "inputs": [
        {
          "indexed": false,
          "internalType": "uint256",
          "name": "newReward",
          "type": "uint256"
        }
      ],
      "name": "ActivityRewardChanged",
      "type": "event"
    },
    {
      "anonymous": false,
      "inputs": [
        {
          "indexed": true,
          "internalType": "address",
          "name": "from",
          "type": "address"
        },
        {
          "indexed": true,
          "internalType": "uint256",
          "name": "id",
          "type": "uint256"
        },
        {
          "indexed": false,
          "internalType": "address[]",
          "name": "targets",
          "type": "address[]"
        },
        {
          "indexed": false,
          "internalType": "uint128",
          "name": "noticePeriodSeconds",
          "type": "uint128"
        },
        {
          "indexed": false,
          "internalType": "uint128",
          "name": "votingPeriodSeconds",
          "type": "uint128"
        },
        {
          "indexed": false,
          "internalType": "bool",
          "name": "atomicExecute",
          "type": "bool"
        }
      ],
      "name": "AgendaCreated",
      "type": "event"
    },
    {
      "anonymous": false,
      "inputs": [
        {
          "indexed": true,
          "internalType": "uint256",
          "name": "id",
          "type": "uint256"
        },
        {
          "indexed": false,
          "internalType": "address[]",
          "name": "target",
          "type": "address[]"
        }
      ],
      "name": "AgendaExecuted",
      "type": "event"
    },
    {
      "anonymous": false,
      "inputs": [
        {
          "indexed": true,
          "internalType": "address",
          "name": "candidate",
          "type": "address"
        },
        {
          "indexed": true,
          "internalType": "address",
          "name": "candidateContract",
          "type": "address"
        },
        {
          "indexed": false,
          "internalType": "string",
          "name": "memo",
          "type": "string"
        }
      ],
      "name": "CandidateContractCreated",
      "type": "event"
    },
    {
      "anonymous": false,
      "inputs": [
        {
          "indexed": false,
          "internalType": "address",
          "name": "candidate",
          "type": "address"
        },
        {
          "indexed": false,
          "internalType": "string",
          "name": "newMemo",
          "type": "string"
        }
      ],
      "name": "ChangedMemo",
      "type": "event"
    },
    {
      "anonymous": false,
      "inputs": [
        {
          "indexed": true,
          "internalType": "address",
          "name": "candidate",
          "type": "address"
        },
        {
          "indexed": false,
          "internalType": "address",
          "name": "receiver",
          "type": "address"
        },
        {
          "indexed": false,
          "internalType": "uint256",
          "name": "amount",
          "type": "uint256"
        }
      ],
      "name": "ClaimedActivityReward",
      "type": "event"
    },
    {
      "anonymous": false,
      "inputs": [
        {
          "indexed": true,
          "internalType": "address",
          "name": "candidate",
          "type": "address"
        },
        {
          "indexed": true,
          "internalType": "address",
          "name": "candidateContract",
          "type": "address"
        },
        {
          "indexed": false,
          "internalType": "string",
          "name": "memo",
          "type": "string"
        }
      ],
      "name": "Layer2Registered",
      "type": "event"
    },
    {
      "anonymous": false,
      "inputs": [
        {
          "indexed": true,
          "internalType": "bytes32",
          "name": "role",
          "type": "bytes32"
        },
        {
          "indexed": true,
          "internalType": "bytes32",
          "name": "previousAdminRole",
          "type": "bytes32"
        },
        {
          "indexed": true,
          "internalType": "bytes32",
          "name": "newAdminRole",
          "type": "bytes32"
        }
      ],
      "name": "RoleAdminChanged",
      "type": "event"
    },
    {
      "anonymous": false,
      "inputs": [
        {
          "indexed": true,
          "internalType": "bytes32",
          "name": "role",
          "type": "bytes32"
        },
        {
          "indexed": true,
          "internalType": "address",
          "name": "account",
          "type": "address"
        },
        {
          "indexed": true,
          "internalType": "address",
          "name": "sender",
          "type": "address"
        }
      ],
      "name": "RoleGranted",
      "type": "event"
    },
    {
      "anonymous": false,
      "inputs": [
        {
          "indexed": true,
          "internalType": "bytes32",
          "name": "role",
          "type": "bytes32"
        },
        {
          "indexed": true,
          "internalType": "address",
          "name": "account",
          "type": "address"
        },
        {
          "indexed": true,
          "internalType": "address",
          "name": "sender",
          "type": "address"
        }
      ],
      "name": "RoleRevoked",
      "type": "event"
    },
    {
      "inputs": [],
      "name": "DEFAULT_ADMIN_ROLE",
      "outputs": [
        {
          "internalType": "bytes32",
          "name": "",
          "type": "bytes32"
        }
      ],
      "stateMutability": "view",
      "type": "function"
    },
    {
      "inputs": [],
      "name": "activityRewardPerSecond",
      "outputs": [
        {
          "internalType": "uint256",
          "name": "",
          "type": "uint256"
        }
      ],
      "stateMutability": "view",
      "type": "function"
    },
    {
      "inputs": [],
      "name": "agendaManager",
      "outputs": [
        {
          "internalType": "contract IDAOAgendaManager",
          "name": "",
          "type": "address"
        }
      ],
      "stateMutability": "view",
      "type": "function"
    },
    {
      "inputs": [
        {
          "internalType": "address",
          "name": "",
          "type": "address"
        }
      ],
      "name": "aliveImplementation",
      "outputs": [
        {
          "internalType": "bool",
          "name": "",
          "type": "bool"
        }
      ],
      "stateMutability": "view",
      "type": "function"
    },
    {
      "inputs": [
        {
          "internalType": "address",
          "name": "_candidate",
          "type": "address"
        },
        {
          "internalType": "address",
          "name": "_account",
          "type": "address"
        }
      ],
      "name": "balanceOfOnCandidate",
      "outputs": [
        {
          "internalType": "uint256",
          "name": "amount",
          "type": "uint256"
        }
      ],
      "stateMutability": "view",
      "type": "function"
    },
    {
      "inputs": [
        {
          "internalType": "address",
          "name": "_candidateContract",
          "type": "address"
        },
        {
          "internalType": "address",
          "name": "_account",
          "type": "address"
        }
      ],
      "name": "balanceOfOnCandidateContract",
      "outputs": [
        {
          "internalType": "uint256",
          "name": "amount",
          "type": "uint256"
        }
      ],
      "stateMutability": "view",
      "type": "function"
    },
    {
      "inputs": [],
      "name": "candidate",
      "outputs": [
        {
          "internalType": "address",
          "name": "",
          "type": "address"
        }
      ],
      "stateMutability": "view",
      "type": "function"
    },
    {
      "inputs": [
        {
          "internalType": "address",
          "name": "_candidate",
          "type": "address"
        }
      ],
      "name": "candidateContract",
      "outputs": [
        {
          "internalType": "address",
          "name": "",
          "type": "address"
        }
      ],
      "stateMutability": "view",
      "type": "function"
    },
    {
      "inputs": [],
      "name": "candidateFactory",
      "outputs": [
        {
          "internalType": "contract ICandidateFactory",
          "name": "",
          "type": "address"
        }
      ],
      "stateMutability": "view",
      "type": "function"
    },
    {
      "inputs": [
        {
          "internalType": "address",
          "name": "_candidate",
          "type": "address"
        }
      ],
      "name": "candidateInfos",
      "outputs": [
        {
          "components": [
            {
              "internalType": "address",
              "name": "candidateContract",
              "type": "address"
            },
            {
              "internalType": "uint256",
              "name": "indexMembers",
              "type": "uint256"
            },
            {
              "internalType": "uint128",
              "name": "memberJoinedTime",
              "type": "uint128"
            },
            {
              "internalType": "uint128",
              "name": "rewardPeriod",
              "type": "uint128"
            },
            {
              "internalType": "uint128",
              "name": "claimedTimestamp",
              "type": "uint128"
            }
          ],
          "internalType": "struct IStorageStateCommittee.CandidateInfo",
          "name": "",
          "type": "tuple"
        }
      ],
      "stateMutability": "nonpayable",
      "type": "function"
    },
    {
      "inputs": [
        {
          "internalType": "address",
          "name": "_candidate",
          "type": "address"
        },
        {
          "internalType": "uint32",
          "name": "_index",
          "type": "uint32"
        }
      ],
      "name": "candidateInfosV2",
      "outputs": [
        {
          "components": [
            {
              "internalType": "uint32",
              "name": "sequencerIndex",
              "type": "uint32"
            },
            {
              "internalType": "uint32",
              "name": "candidateIndex",
              "type": "uint32"
            },
            {
              "internalType": "uint256",
              "name": "indexMembers",
              "type": "uint256"
            },
            {
              "internalType": "uint128",
              "name": "memberJoinedTime",
              "type": "uint128"
            },
            {
              "internalType": "uint128",
              "name": "rewardPeriod",
              "type": "uint128"
            },
            {
              "internalType": "uint128",
              "name": "claimedTimestamp",
              "type": "uint128"
            }
          ],
          "internalType": "struct LibDaoV2.CandidateInfoV2",
          "name": "",
          "type": "tuple"
        }
      ],
      "stateMutability": "view",
      "type": "function"
    },
    {
      "inputs": [
        {
          "internalType": "uint256",
          "name": "",
          "type": "uint256"
        }
      ],
      "name": "candidates",
      "outputs": [
        {
          "internalType": "address",
          "name": "",
          "type": "address"
        }
      ],
      "stateMutability": "view",
      "type": "function"
    },
    {
      "inputs": [],
      "name": "candidatesLength",
      "outputs": [
        {
          "internalType": "uint256",
          "name": "",
          "type": "uint256"
        }
      ],
      "stateMutability": "view",
      "type": "function"
    },
    {
      "inputs": [
        {
          "internalType": "uint256",
          "name": "",
          "type": "uint256"
        }
      ],
      "name": "candidatesV2",
      "outputs": [
        {
          "internalType": "address",
          "name": "",
          "type": "address"
        }
      ],
      "stateMutability": "view",
      "type": "function"
    },
    {
      "inputs": [
        {
          "internalType": "string",
          "name": "_memo",
          "type": "string"
        }
      ],
      "name": "createCandidate",
      "outputs": [],
      "stateMutability": "nonpayable",
      "type": "function"
    },
    {
      "inputs": [],
      "name": "daoVault",
      "outputs": [
        {
          "internalType": "contract IDAOVault",
          "name": "",
          "type": "address"
        }
      ],
      "stateMutability": "view",
      "type": "function"
    },
    {
      "inputs": [
        {
          "internalType": "uint256",
          "name": "_agendaID",
          "type": "uint256"
        }
      ],
      "name": "endAgendaVoting",
      "outputs": [],
      "stateMutability": "nonpayable",
      "type": "function"
    },
    {
      "inputs": [
        {
          "internalType": "uint256",
          "name": "_agendaID",
          "type": "uint256"
        }
      ],
      "name": "executeAgenda",
      "outputs": [],
      "stateMutability": "nonpayable",
      "type": "function"
    },
    {
      "inputs": [
        {
          "internalType": "bytes32",
          "name": "role",
          "type": "bytes32"
        }
      ],
      "name": "getRoleAdmin",
      "outputs": [
        {
          "internalType": "bytes32",
          "name": "",
          "type": "bytes32"
        }
      ],
      "stateMutability": "view",
      "type": "function"
    },
    {
      "inputs": [
        {
          "internalType": "bytes32",
          "name": "role",
          "type": "bytes32"
        },
        {
          "internalType": "uint256",
          "name": "index",
          "type": "uint256"
        }
      ],
      "name": "getRoleMember",
      "outputs": [
        {
          "internalType": "address",
          "name": "",
          "type": "address"
        }
      ],
      "stateMutability": "view",
      "type": "function"
    },
    {
      "inputs": [
        {
          "internalType": "bytes32",
          "name": "role",
          "type": "bytes32"
        }
      ],
      "name": "getRoleMemberCount",
      "outputs": [
        {
          "internalType": "uint256",
          "name": "",
          "type": "uint256"
        }
      ],
      "stateMutability": "view",
      "type": "function"
    },
    {
      "inputs": [
        {
          "internalType": "bytes32",
          "name": "role",
          "type": "bytes32"
        },
        {
          "internalType": "address",
          "name": "account",
          "type": "address"
        }
      ],
      "name": "grantRole",
      "outputs": [],
      "stateMutability": "nonpayable",
      "type": "function"
    },
    {
      "inputs": [
        {
          "internalType": "bytes32",
          "name": "role",
          "type": "bytes32"
        },
        {
          "internalType": "address",
          "name": "account",
          "type": "address"
        }
      ],
      "name": "hasRole",
      "outputs": [
        {
          "internalType": "bool",
          "name": "",
          "type": "bool"
        }
      ],
      "stateMutability": "view",
      "type": "function"
    },
    {
      "inputs": [
        {
          "internalType": "address",
          "name": "_candidate",
          "type": "address"
        }
      ],
      "name": "isCandidate",
      "outputs": [
        {
          "internalType": "bool",
          "name": "",
          "type": "bool"
        }
      ],
      "stateMutability": "view",
      "type": "function"
    },
    {
      "inputs": [
        {
          "internalType": "address",
          "name": "_candidate",
          "type": "address"
        },
        {
          "internalType": "uint32",
          "name": "_index",
          "type": "uint32"
        }
      ],
      "name": "isCandidateV2",
      "outputs": [
        {
          "internalType": "uint8",
          "name": "",
          "type": "uint8"
        }
      ],
      "stateMutability": "view",
      "type": "function"
    },
    {
      "inputs": [
        {
          "internalType": "address",
          "name": "_candidate",
          "type": "address"
        }
      ],
      "name": "isExistCandidate",
      "outputs": [
        {
          "internalType": "bool",
          "name": "isExist",
          "type": "bool"
        }
      ],
      "stateMutability": "view",
      "type": "function"
    },
    {
      "inputs": [
        {
          "internalType": "address",
          "name": "_candidate",
          "type": "address"
        }
      ],
      "name": "isMember",
      "outputs": [
        {
          "internalType": "bool",
          "name": "",
          "type": "bool"
        }
      ],
      "stateMutability": "view",
      "type": "function"
    },
    {
      "inputs": [
        {
          "internalType": "address",
          "name": "_candidate",
          "type": "address"
        },
        {
          "internalType": "uint32",
          "name": "_index",
          "type": "uint32"
        }
      ],
      "name": "isMemberV2",
      "outputs": [
        {
          "internalType": "bool",
          "name": "",
          "type": "bool"
        }
      ],
      "stateMutability": "view",
      "type": "function"
    },
    {
      "inputs": [],
      "name": "isStakeManagerV2",
      "outputs": [
        {
          "internalType": "bool",
          "name": "",
          "type": "bool"
        }
      ],
      "stateMutability": "view",
      "type": "function"
    },
    {
      "inputs": [],
      "name": "layer2Manager",
      "outputs": [
        {
          "internalType": "address",
          "name": "",
          "type": "address"
        }
      ],
      "stateMutability": "view",
      "type": "function"
    },
    {
      "inputs": [],
      "name": "layer2Registry",
      "outputs": [
        {
          "internalType": "contract ILayer2Registry",
          "name": "",
          "type": "address"
        }
      ],
      "stateMutability": "view",
      "type": "function"
    },
    {
      "inputs": [],
      "name": "maxMember",
      "outputs": [
        {
          "internalType": "uint256",
          "name": "",
          "type": "uint256"
        }
      ],
      "stateMutability": "view",
      "type": "function"
    },
    {
      "inputs": [
        {
          "internalType": "uint256",
          "name": "",
          "type": "uint256"
        }
      ],
      "name": "members",
      "outputs": [
        {
          "internalType": "address",
          "name": "",
          "type": "address"
        }
      ],
      "stateMutability": "view",
      "type": "function"
    },
    {
      "inputs": [
        {
          "internalType": "address",
          "name": "owner",
          "type": "address"
        },
        {
          "internalType": "address",
          "name": "",
          "type": "address"
        },
        {
          "internalType": "uint256",
          "name": "",
          "type": "uint256"
        },
        {
          "internalType": "bytes",
          "name": "data",
          "type": "bytes"
        }
      ],
      "name": "onApprove",
      "outputs": [
        {
          "internalType": "bool",
          "name": "",
          "type": "bool"
        }
      ],
      "stateMutability": "nonpayable",
      "type": "function"
    },
    {
      "inputs": [],
      "name": "pauseProxy",
      "outputs": [
        {
          "internalType": "bool",
          "name": "",
          "type": "bool"
        }
      ],
      "stateMutability": "view",
      "type": "function"
    },
    {
      "inputs": [
        {
          "internalType": "uint256",
          "name": "",
          "type": "uint256"
        }
      ],
      "name": "proxyImplementation",
      "outputs": [
        {
          "internalType": "address",
          "name": "",
          "type": "address"
        }
      ],
      "stateMutability": "view",
      "type": "function"
    },
    {
      "inputs": [],
      "name": "quorum",
      "outputs": [
        {
          "internalType": "uint256",
          "name": "",
          "type": "uint256"
        }
      ],
      "stateMutability": "view",
      "type": "function"
    },
    {
      "inputs": [
        {
          "internalType": "address",
          "name": "_layer2",
          "type": "address"
        },
        {
          "internalType": "string",
          "name": "_memo",
          "type": "string"
        }
      ],
      "name": "registerLayer2Candidate",
      "outputs": [],
      "stateMutability": "nonpayable",
      "type": "function"
    },
    {
      "inputs": [
        {
          "internalType": "address",
          "name": "_operator",
          "type": "address"
        },
        {
          "internalType": "address",
          "name": "_layer2",
          "type": "address"
        },
        {
          "internalType": "string",
          "name": "_memo",
          "type": "string"
        }
      ],
      "name": "registerLayer2CandidateByOwner",
      "outputs": [],
      "stateMutability": "nonpayable",
      "type": "function"
    },
    {
      "inputs": [
        {
          "internalType": "bytes32",
          "name": "role",
          "type": "bytes32"
        },
        {
          "internalType": "address",
          "name": "account",
          "type": "address"
        }
      ],
      "name": "renounceRole",
      "outputs": [],
      "stateMutability": "nonpayable",
      "type": "function"
    },
    {
      "inputs": [
        {
          "internalType": "bytes32",
          "name": "role",
          "type": "bytes32"
        },
        {
          "internalType": "address",
          "name": "account",
          "type": "address"
        }
      ],
      "name": "revokeRole",
      "outputs": [],
      "stateMutability": "nonpayable",
      "type": "function"
    },
    {
      "inputs": [],
      "name": "seigManager",
      "outputs": [
        {
          "internalType": "contract ISeigManager",
          "name": "",
          "type": "address"
        }
      ],
      "stateMutability": "view",
      "type": "function"
    },
    {
      "inputs": [],
      "name": "seigManagerV2",
      "outputs": [
        {
          "internalType": "contract ISeigManagerV2",
          "name": "",
          "type": "address"
        }
      ],
      "stateMutability": "view",
      "type": "function"
    },
    {
      "inputs": [
        {
          "internalType": "bytes4",
          "name": "",
          "type": "bytes4"
        }
      ],
      "name": "selectorImplementation",
      "outputs": [
        {
          "internalType": "address",
          "name": "",
          "type": "address"
        }
      ],
      "stateMutability": "view",
      "type": "function"
    },
    {
      "inputs": [],
      "name": "sequencer",
      "outputs": [
        {
          "internalType": "address",
          "name": "",
          "type": "address"
        }
      ],
      "stateMutability": "view",
      "type": "function"
    },
    {
      "inputs": [
        {
          "internalType": "uint256",
          "name": "_value",
          "type": "uint256"
        }
      ],
      "name": "setActivityRewardPerSecond",
      "outputs": [],
      "stateMutability": "nonpayable",
      "type": "function"
    },
    {
      "inputs": [
        {
          "internalType": "address",
          "name": "_agendaManager",
          "type": "address"
        }
      ],
      "name": "setAgendaManager",
      "outputs": [],
      "stateMutability": "nonpayable",
      "type": "function"
    },
    {
      "inputs": [
        {
          "internalType": "uint256",
          "name": "_agendaID",
          "type": "uint256"
        },
        {
          "internalType": "uint256",
          "name": "_status",
          "type": "uint256"
        },
        {
          "internalType": "uint256",
          "name": "_result",
          "type": "uint256"
        }
      ],
      "name": "setAgendaStatus",
      "outputs": [],
      "stateMutability": "nonpayable",
      "type": "function"
    },
    {
      "inputs": [
        {
          "internalType": "address",
          "name": "_candidateFactory",
          "type": "address"
        }
      ],
      "name": "setCandidateFactory",
      "outputs": [],
      "stateMutability": "nonpayable",
      "type": "function"
    },
    {
      "inputs": [
        {
          "internalType": "address[]",
          "name": "_candidateContracts",
          "type": "address[]"
        },
        {
          "internalType": "address",
          "name": "_committee",
          "type": "address"
        }
      ],
      "name": "setCandidatesCommittee",
      "outputs": [],
      "stateMutability": "nonpayable",
      "type": "function"
    },
    {
      "inputs": [
        {
          "internalType": "address[]",
          "name": "_candidateContracts",
          "type": "address[]"
        },
        {
          "internalType": "address",
          "name": "_seigManager",
          "type": "address"
        }
      ],
      "name": "setCandidatesSeigManager",
      "outputs": [],
      "stateMutability": "nonpayable",
      "type": "function"
    },
    {
      "inputs": [
        {
          "internalType": "uint256",
          "name": "_fees",
          "type": "uint256"
        }
      ],
      "name": "setCreateAgendaFees",
      "outputs": [],
      "stateMutability": "nonpayable",
      "type": "function"
    },
    {
      "inputs": [
        {
          "internalType": "address",
          "name": "_daoVault",
          "type": "address"
        }
      ],
      "name": "setDaoVault",
      "outputs": [],
      "stateMutability": "nonpayable",
      "type": "function"
    },
    {
      "inputs": [
        {
          "internalType": "uint256",
          "name": "_executingPeriodSeconds",
          "type": "uint256"
        }
      ],
      "name": "setExecutingPeriodSeconds",
      "outputs": [],
      "stateMutability": "nonpayable",
      "type": "function"
    },
    {
      "inputs": [
        {
          "internalType": "address",
          "name": "_layer2Registry",
          "type": "address"
        }
      ],
      "name": "setLayer2Registry",
      "outputs": [],
      "stateMutability": "nonpayable",
      "type": "function"
    },
    {
      "inputs": [
        {
          "internalType": "address",
          "name": "_candidate",
          "type": "address"
        },
        {
          "internalType": "string",
          "name": "_memo",
          "type": "string"
        }
      ],
      "name": "setMemoOnCandidate",
      "outputs": [],
      "stateMutability": "nonpayable",
      "type": "function"
    },
    {
      "inputs": [
        {
          "internalType": "address",
          "name": "_candidateContract",
          "type": "address"
        },
        {
          "internalType": "string",
          "name": "_memo",
          "type": "string"
        }
      ],
      "name": "setMemoOnCandidateContract",
      "outputs": [],
      "stateMutability": "nonpayable",
      "type": "function"
    },
    {
      "inputs": [
        {
          "internalType": "uint256",
          "name": "_minimumNoticePeriod",
          "type": "uint256"
        }
      ],
      "name": "setMinimumNoticePeriodSeconds",
      "outputs": [],
      "stateMutability": "nonpayable",
      "type": "function"
    },
    {
      "inputs": [
        {
          "internalType": "uint256",
          "name": "_minimumVotingPeriod",
          "type": "uint256"
        }
      ],
      "name": "setMinimumVotingPeriodSeconds",
      "outputs": [],
      "stateMutability": "nonpayable",
      "type": "function"
    },
    {
      "inputs": [
        {
          "internalType": "address",
          "name": "_seigManager",
          "type": "address"
        }
      ],
      "name": "setSeigManager",
      "outputs": [],
      "stateMutability": "nonpayable",
      "type": "function"
    },
    {
      "inputs": [
        {
          "internalType": "address",
          "name": "_ton",
          "type": "address"
        }
      ],
      "name": "setTon",
      "outputs": [],
      "stateMutability": "nonpayable",
      "type": "function"
    },
    {
      "inputs": [],
      "name": "stakeManagerV2",
      "outputs": [
        {
          "internalType": "address",
          "name": "",
          "type": "address"
        }
      ],
      "stateMutability": "view",
      "type": "function"
    },
    {
      "inputs": [],
      "name": "ton",
      "outputs": [
        {
          "internalType": "address",
          "name": "",
          "type": "address"
        }
      ],
      "stateMutability": "view",
      "type": "function"
    },
    {
      "inputs": [
        {
          "internalType": "address",
          "name": "_candidate",
          "type": "address"
        }
      ],
      "name": "totalSupplyOnCandidate",
      "outputs": [
        {
          "internalType": "uint256",
          "name": "totalsupply",
          "type": "uint256"
        }
      ],
      "stateMutability": "view",
      "type": "function"
    },
    {
      "inputs": [
        {
          "internalType": "address",
          "name": "_candidateContract",
          "type": "address"
        }
      ],
      "name": "totalSupplyOnCandidateContract",
      "outputs": [
        {
          "internalType": "uint256",
          "name": "totalsupply",
          "type": "uint256"
        }
      ],
      "stateMutability": "view",
      "type": "function"
    },
    {
      "inputs": [
        {
          "internalType": "address",
          "name": "_candidate",
          "type": "address"
        }
      ],
      "name": "updateSeigniorage",
      "outputs": [
        {
          "internalType": "bool",
          "name": "",
          "type": "bool"
        }
      ],
      "stateMutability": "nonpayable",
      "type": "function"
    },
    {
      "inputs": [
        {
          "internalType": "address[]",
          "name": "_candidates",
          "type": "address[]"
        }
      ],
      "name": "updateSeigniorages",
      "outputs": [
        {
          "internalType": "bool",
          "name": "",
          "type": "bool"
        }
      ],
      "stateMutability": "nonpayable",
      "type": "function"
    }
  ],
  "bytecode": "0x608060405234801561001057600080fd5b50613eaf806100206000396000f3fe608060405234801561001057600080fd5b50600436106103715760003560e01c806369154295116101d5578063a1ea352511610105578063c7cac42c116100a8578063c7cac42c14610a68578063ca15c87314610a7b578063cc48b94714610a8e578063cf2a239c14610aa1578063cfbd1c4214610ab4578063d51b9e9314610ac7578063d525f04f14610ada578063d547741f14610aed578063d89ac80f14610b0057600080fd5b8063a1ea3525146109a1578063a217fddf146109b4578063a230c524146109bc578063ad6675dc146109f3578063b4f69b6a14610a06578063b5dd115814610a19578063b911135f14610a2c578063c0bc530414610a5557600080fd5b80637ee9afcf116101785780637ee9afcf146107e25780637f33163614610912578063805aca201461091b578063885b46961461092e57806389ea4300146109415780639010d07c1461095457806391d148541461096757806395ed39b91461097a578063a1bfda9a1461098e57600080fd5b8063691542951461075557806369b1227a146107685780636c8381f81461077b5780636fb7f5581461078e57806373469a7a146107a15780637657f20a146107b4578063773b7f65146107c757806378767d33146107cf57600080fd5b806349c39f14116102b05780635903bd6c116102535780635903bd6c146106a95780635c1bba38146106bc5780635c43030f146106cf5780635daf08ca146106e25780635ebe7622146106f55780635fba7a5614610708578063607cf7341461071b57806363a8fd891461072e578063651d08cd1461074257600080fd5b806349c39f14146105b25780634b799db1146105c55780634d288fec146105d85780634f7d917d146105eb57806350d2a27614610637578063550d01a314610660578063561a1dab1461068357806357f0a8671461069657600080fd5b806327fd92fd1161031857806327fd92fd1461042c5780632af60ff41461043f5780632e011c1e146104525780632f2ff15d146105435780633477ee2e1461055657806336568abe146105695780634273ca161461057c578063440b69ad1461059f57600080fd5b806303e3c9ac14610376578063047f52f21461039257806316b5d5bd146103a757806316f7f982146103c75780631703a018146103da578063216f486b146103e357806323d09fdf146103f6578063248a9ca314610409575b600080fd5b61037f60085481565b6040519081526020015b60405180910390f35b6103a56103a0366004613056565b610b25565b005b6011546103ba906001600160a01b031681565b6040516103899190613073565b61037f6103d5366004613087565b610b9f565b61037f600a5481565b6103a56103f13660046130c0565b610c3d565b6103a56104043660046130c0565b61108e565b61037f6104173660046130c0565b6000908152600c602052604090206002015490565b6002546103ba906001600160a01b031681565b6103a561044d366004613056565b61113f565b6104ee610460366004613056565b6040805160a0808201835260008083526020808401829052838501829052606080850183905260809485018390526001600160a01b0396871683526009825291859020855193840186528054909616835260018601549083015260028501546001600160801b0380821695840195909552600160801b90048416908201526003909301549091169082015290565b6040805182516001600160a01b0316815260208084015190820152828201516001600160801b03908116928201929092526060808401518316908201526080928301519091169181019190915260a001610389565b6103a56105513660046130d9565b6111b0565b6103ba6105643660046130c0565b61123e565b6103a56105773660046130d9565b611268565b61058f61058a366004613146565b6112e2565b6040519015158152602001610389565b6103a56105ad366004613283565b611321565b6103a56105c0366004613056565b6113d0565b6103a56105d3366004613056565b611441565b6103a56105e6366004613056565b6114b2565b61058f6105f93660046132e4565b6001600160a01b038216600090815260186020908152604080832063ffffffff851684529091529020600201546001600160801b0316151592915050565b6103ba61064536600461331b565b600f602052600090815260409020546001600160a01b031681565b61058f61066e366004613056565b600e6020526000908152604090205460ff1681565b61058f610691366004613056565b611523565b61058f6106a4366004613389565b611543565b6001546103ba906001600160a01b031681565b6014546103ba906001600160a01b031681565b6103a56106dd3660046133ca565b6115cb565b6103ba6106f03660046130c0565b6116bb565b6103a56107033660046130c0565b6116cb565b6103a5610716366004613420565b61172d565b6103a5610729366004613455565b611a94565b60105461058f90600160a01b900460ff1681565b6103ba610750366004613056565b611caf565b6103a56107633660046133ca565b611ccd565b6103a56107763660046130c0565b611dbd565b6013546103ba906001600160a01b031681565b6005546103ba906001600160a01b031681565b6012546103ba906001600160a01b031681565b6103a56107c2366004613056565b611e3d565b60065461037f565b61037f6107dd366004613056565b611eae565b6108af6107f03660046132e4565b6040805160c081018252600080825260208201819052918101829052606081018290526080810182905260a0810191909152506001600160a01b038216600090815260186020908152604080832063ffffffff808616855290835292819020815160c0810183528154808616825264010000000090049094169284019290925260018201549083015260028101546001600160801b038082166060850152600160801b909104811660808401526003909101541660a082015292915050565b6040516103899190815163ffffffff908116825260208084015190911690820152604080830151908201526060808301516001600160801b039081169183019190915260808084015182169083015260a092830151169181019190915260c00190565b61037f600b5481565b6103a56109293660046134a9565b611f38565b6103a561093c3660046130c0565b61204c565b61058f61094f366004613056565b61207d565b6103ba6109623660046134d5565b612100565b61058f6109753660046130d9565b612118565b61058f6015546001600160a01b0316331490565b6015546103ba906001600160a01b031681565b6103a56109af3660046134f7565b612130565b61037f600081565b61058f6109ca366004613056565b6001600160a01b03166000908152600960205260409020600201546001600160801b0316151590565b61037f610a01366004613056565b6121b3565b6103a5610a143660046130c0565b6121ca565b6003546103ba906001600160a01b031681565b6103ba610a3a3660046130c0565b600d602052600090815260409020546001600160a01b031681565b6103a5610a633660046130c0565b61224a565b6103a5610a76366004613455565b6122ca565b61037f610a893660046130c0565b6122e8565b6000546103ba906001600160a01b031681565b6004546103ba906001600160a01b031681565b6103ba610ac23660046130c0565b6122ff565b61058f610ad5366004613056565b61230f565b61037f610ae8366004613087565b6123e6565b6103a5610afb3660046130d9565b6123fe565b610b13610b0e3660046132e4565b61247f565b60405160ff9091168152602001610389565b610b30600033612118565b610b555760405162461bcd60e51b8152600401610b4c90613546565b60405180910390fd5b806001600160a01b038116610b7c5760405162461bcd60e51b8152600401610b4c90613567565b50600380546001600160a01b0319166001600160a01b0392909216919091179055565b60006001600160a01b038316610bc75760405162461bcd60e51b8152600401610b4c90613588565b60405163af500ba360e01b81526001600160a01b0384169063af500ba390610bf3908590600401613073565b602060405180830381865afa158015610c10573d6000803e3d6000fd5b505050506040513d601f19601f82011682018060405250810190610c3491906135b1565b90505b92915050565b6002546001600160a01b0316610c655760405162461bcd60e51b8152600401610b4c906135ca565b6002546040516377f28d5b60e01b8152600481018390526001600160a01b03909116906377f28d5b90602401602060405180830381865afa158015610cae573d6000803e3d6000fd5b505050506040513d601f19601f82011682018060405250810190610cd29190613634565b610d085760405162461bcd60e51b815260206004820152600760248201526644414f3a20434160c81b6044820152606401610b4c565b6002546040516373ba374560e01b8152600481018390526000918291829182916001600160a01b03909116906373ba374590602401600060405180830381865afa158015610d5a573d6000803e3d6000fd5b505050506040513d6000823e601f3d908101601f19168201604052610d82919081019061375e565b93509350935093508115610edc57600254604051631b8c251960e11b8152600481018790526001600160a01b03909116906337184a3290602401600060405180830381600087803b158015610dd657600080fd5b505af1158015610dea573d6000803e3d6000fd5b5050505060005b8451811015610ed6576000858281518110610e0e57610e0e61383a565b60200260200101516001600160a01b0316858381518110610e3157610e3161383a565b6020026020010151604051610e469190613850565b6000604051808303816000865af19150503d8060008114610e83576040519150601f19603f3d011682016040523d82523d6000602084013e610e88565b606091505b5050905080610ec35760405162461bcd60e51b815260206004820152600760248201526644414f3a20464160c81b6044820152606401610b4c565b5080610ece81613882565b915050610df1565b5061104f565b6000815b8551811015610f75576000610f42878381518110610f0057610f0061383a565b6020026020010151878481518110610f1a57610f1a61383a565b602002602001015151888581518110610f3557610f3561383a565b60200260200101516124df565b90508015610f5c57610f558360016124fe565b9250610f62565b50610f75565b5080610f6d81613882565b915050610ee0565b50600254604051632833207960e21b815260048101889052602481018390526001600160a01b039091169063a0cc81e490604401600060405180830381600087803b158015610fc357600080fd5b505af1158015610fd7573d6000803e3d6000fd5b505086519150610fe9905083836124fe565b0361104d57600254604051631b8c251960e11b8152600481018890526001600160a01b03909116906337184a3290602401600060405180830381600087803b15801561103457600080fd5b505af1158015611048573d6000803e3d6000fd5b505050505b505b847f785146be3266678a3f4ea454b310ff1f8c91d0ad9a7997bcd0619940d4d67fe68560405161107f91906138df565b60405180910390a25050505050565b611099600033612118565b6110b55760405162461bcd60e51b8152600401610b4c90613546565b6002546001600160a01b03166110dd5760405162461bcd60e51b8152600401610b4c906135ca565b6002546040516323d09fdf60e01b8152600481018390526001600160a01b03909116906323d09fdf906024015b600060405180830381600087803b15801561112457600080fd5b505af1158015611138573d6000803e3d6000fd5b5050505050565b61114a600033612118565b6111665760405162461bcd60e51b8152600401610b4c90613546565b806001600160a01b03811661118d5760405162461bcd60e51b8152600401610b4c90613567565b50600480546001600160a01b0319166001600160a01b0392909216919091179055565b6000828152600c60205260409020600201546111cc9033612118565b6112305760405162461bcd60e51b815260206004820152602f60248201527f416363657373436f6e74726f6c3a2073656e646572206d75737420626520616e60448201526e0818591b5a5b881d1bc819dc985b9d608a1b6064820152608401610b4c565b61123a828261250a565b5050565b6006818154811061124e57600080fd5b6000918252602090912001546001600160a01b0316905081565b6001600160a01b03811633146112d85760405162461bcd60e51b815260206004820152602f60248201527f416363657373436f6e74726f6c3a2063616e206f6e6c792072656e6f756e636560448201526e103937b632b9903337b91039b2b63360891b6064820152608401610b4c565b61123a8282612563565b6000806112ef84846125bc565b90506113138782600001518360200151846040015185606001518660800151612638565b506001979650505050505050565b61132c600033612118565b6113485760405162461bcd60e51b8152600401610b4c90613546565b6005546001600160a01b03166113705760405162461bcd60e51b8152600401610b4c906138f2565b6004546001600160a01b03166113985760405162461bcd60e51b8152600401610b4c9061393d565b6003546001600160a01b03166113c05760405162461bcd60e51b8152600401610b4c9061398a565b6113cb83838361273d565b505050565b6113db600033612118565b6113f75760405162461bcd60e51b8152600401610b4c90613546565b806001600160a01b03811661141e5760405162461bcd60e51b8152600401610b4c90613567565b50600280546001600160a01b0319166001600160a01b0392909216919091179055565b61144c600033612118565b6114685760405162461bcd60e51b8152600401610b4c90613546565b806001600160a01b03811661148f5760405162461bcd60e51b8152600401610b4c90613567565b50600180546001600160a01b0319166001600160a01b0392909216919091179055565b6114bd600033612118565b6114d95760405162461bcd60e51b8152600401610b4c90613546565b806001600160a01b0381166115005760405162461bcd60e51b8152600401610b4c90613567565b50600080546001600160a01b0319166001600160a01b0392909216919091179055565b6001600160a01b0390811660009081526009602052604090205416151590565b6000805b828110156115c1576115798484838181106115645761156461383a565b905060200201602081019061094f9190613056565b6115af5760405162461bcd60e51b815260206004820152600760248201526644414f3a20465360c81b6044820152606401610b4c565b806115b981613882565b915050611547565b5060019392505050565b6115d6600033612118565b6115f25760405162461bcd60e51b8152600401610b4c90613546565b806001600160a01b0381166116195760405162461bcd60e51b8152600401610b4c90613567565b60005b83811015611138578484828181106116365761163661383a565b905060200201602081019061164b9190613056565b6001600160a01b031663bddae40e846040518263ffffffff1660e01b81526004016116769190613073565b600060405180830381600087803b15801561169057600080fd5b505af11580156116a4573d6000803e3d6000fd5b5050505080806116b390613882565b91505061161c565b6007818154811061124e57600080fd5b6116d6600033612118565b6116f25760405162461bcd60e51b8152600401610b4c90613546565b600b8190556040518181527f42bd846b3ff7895ea031753b0d8256b4816edaea44f7d8d9db60ea83b8ee5e4b9060200160405180910390a150565b6005546001600160a01b03166117555760405162461bcd60e51b8152600401610b4c906138f2565b6004546001600160a01b031661177d5760405162461bcd60e51b8152600401610b4c9061393d565b6003546001600160a01b03166117a55760405162461bcd60e51b8152600401610b4c9061398a565b6117ae33611523565b156117e55760405162461bcd60e51b81526020600482015260076024820152662220a79d1020a960c91b6044820152606401610b4c565b60035460055460405163732518fb60e11b81526000926001600160a01b039081169263e64a31f69261182692339287928a928a923092911690600401613a04565b6020604051808303816000875af1158015611845573d6000803e3d6000fd5b505050506040513d601f19601f820116820180604052508101906118699190613a4a565b90506001600160a01b0381166118915760405162461bcd60e51b8152600401610b4c90613a67565b336000908152600960205260409020546001600160a01b0316156118c75760405162461bcd60e51b8152600401610b4c90613a88565b60048054600554604051635e58d38f60e11b81526001600160a01b0385811694820194909452908316602482015291169063bcb1a71e906044016020604051808303816000875af1158015611920573d6000803e3d6000fd5b505050506040513d601f19601f820116820180604052508101906119449190613634565b61197a5760405162461bcd60e51b81526020600482015260076024820152662220a79d10232960c91b6044820152606401610b4c565b6040805160a0810182526001600160a01b03838116808352600060208085018281528587018381526060870184815260808801858152338087526009909552898620985189546001600160a01b03199081169190991617895592516001808a0191909155915190516001600160801b03918216600160801b918316919091021760028901559151600390970180546001600160801b031916979092169690961790556006805495860181559091527ff652222313e28459528d920b65115c16c04f3efc82aaedc97be59f3f377c0d3f9093018054909216831790915591517f7cf8db18d9a5c7f44156bfabdbb59ac982a8a004e461ca1b87ee71a5cdfbc5ef90611a879087908790613aa9565b60405180910390a3505050565b6000836001600160a01b0316636c8381f86040518163ffffffff1660e01b8152600401602060405180830381865afa158015611ad4573d6000803e3d6000fd5b505050506040513d601f19601f82011682018060405250810190611af89190613a4a565b90506000819050846001600160a01b0316639b6382686040518163ffffffff1660e01b8152600401602060405180830381865afa158015611b3d573d6000803e3d6000fd5b505050506040513d601f19601f82011682018060405250810190611b619190613634565b15611bcb57816001600160a01b031663570ca7356040518163ffffffff1660e01b8152600401602060405180830381865afa158015611ba4573d6000803e3d6000fd5b505050506040513d601f19601f82011682018060405250810190611bc89190613a4a565b90505b336001600160a01b03821614611c0d5760405162461bcd60e51b815260206004820152600760248201526644414f3a204e4360c81b6044820152606401610b4c565b6040516325d6086160e01b81526001600160a01b038616906325d6086190611c3b9087908790600401613aa9565b600060405180830381600087803b158015611c5557600080fd5b505af1158015611c69573d6000803e3d6000fd5b505050507fda033346b344f4675799a7ab4d837f0deb62d4afcdcaba4613913b4c25838cb3828585604051611ca093929190613abd565b60405180910390a15050505050565b6001600160a01b039081166000908152600960205260409020541690565b611cd8600033612118565b611cf45760405162461bcd60e51b8152600401610b4c90613546565b806001600160a01b038116611d1b5760405162461bcd60e51b8152600401610b4c90613567565b60005b8381101561113857848482818110611d3857611d3861383a565b9050602002016020810190611d4d9190613056565b6001600160a01b0316637657f20a846040518263ffffffff1660e01b8152600401611d789190613073565b600060405180830381600087803b158015611d9257600080fd5b505af1158015611da6573d6000803e3d6000fd5b505050508080611db590613882565b915050611d1e565b611dc8600033612118565b611de45760405162461bcd60e51b8152600401610b4c90613546565b6002546001600160a01b0316611e0c5760405162461bcd60e51b8152600401610b4c906135ca565b6002546040516334d8913d60e11b8152600481018390526001600160a01b03909116906369b1227a9060240161110a565b611e48600033612118565b611e645760405162461bcd60e51b8152600401610b4c90613546565b806001600160a01b038116611e8b5760405162461bcd60e51b8152600401610b4c90613567565b50600580546001600160a01b0319166001600160a01b0392909216919091179055565b60006001600160a01b038216611ed65760405162461bcd60e51b8152600401610b4c90613588565b816001600160a01b031663817b1cd26040518163ffffffff1660e01b8152600401602060405180830381865afa158015611f14573d6000803e3d6000fd5b505050506040513d601f19601f82011682018060405250810190610c3791906135b1565b611f43600033612118565b611f5f5760405162461bcd60e51b8152600401610b4c90613546565b6002546001600160a01b03166356150a3684836003811115611f8357611f83613aeb565b6040518363ffffffff1660e01b8152600401611fa0929190613b01565b600060405180830381600087803b158015611fba57600080fd5b505af1158015611fce573d6000803e3d6000fd5b50506002546001600160a01b0316915063d896dd64905084846005811115611ff857611ff8613aeb565b6040518363ffffffff1660e01b8152600401612015929190613b25565b600060405180830381600087803b15801561202f57600080fd5b505af1158015612043573d6000803e3d6000fd5b50505050505050565b60025460405163442da34b60e11b8152600481018390526001600160a01b039091169063885b46969060240161110a565b6001600160a01b038082166000908152600960209081526040808320548151633b253c2b60e11b8152915193941692839263764a78569260048082019391829003018188875af11580156120d5573d6000803e3d6000fd5b505050506040513d601f19601f820116820180604052508101906120f99190613634565b9392505050565b6000828152600c60205260408120610c349083612b6d565b6000828152600c60205260408120610c349083612b79565b6005546001600160a01b03166121585760405162461bcd60e51b8152600401610b4c906138f2565b6004546001600160a01b03166121805760405162461bcd60e51b8152600401610b4c9061393d565b6003546001600160a01b03166121a85760405162461bcd60e51b8152600401610b4c9061398a565b61123a33838361273d565b6000806121bf83611caf565b90506120f981611eae565b6121d5600033612118565b6121f15760405162461bcd60e51b8152600401610b4c90613546565b6002546001600160a01b03166122195760405162461bcd60e51b8152600401610b4c906135ca565b600254604051635a7b4db560e11b8152600481018390526001600160a01b039091169063b4f69b6a9060240161110a565b612255600033612118565b6122715760405162461bcd60e51b8152600401610b4c90613546565b6002546001600160a01b03166122995760405162461bcd60e51b8152600401610b4c906135ca565b60025460405163302f14c160e21b8152600481018390526001600160a01b039091169063c0bc53049060240161110a565b60006122d584611caf565b90506122e2818484611a94565b50505050565b6000818152600c60205260408120610c3790612b9b565b6016818154811061124e57600080fd5b6001600160a01b0380821660009081526009602052604081208054919290911661233c5750600092915050565b805460009061235b906001600160a01b0316631dffc87160e21b612ba5565b9050801515600003612371575060009392505050565b815460408051631dffc87160e21b815290516001600160a01b03909216916377ff21c4916004808201926020929091908290030181865afa1580156123ba573d6000803e3d6000fd5b505050506040513d601f19601f820116820180604052508101906123de9190613634565b949350505050565b6000806123f284611caf565b90506123de8184610b9f565b6000828152600c602052604090206002015461241a9033612118565b6112d85760405162461bcd60e51b815260206004820152603060248201527f416363657373436f6e74726f6c3a2073656e646572206d75737420626520616e60448201526f2061646d696e20746f207265766f6b6560801b6064820152608401610b4c565b600063ffffffff8216156124d6576001600160a01b038316600090815260186020908152604080832063ffffffff80871685529252909120546401000000009004166124cc5760016124cf565b60025b9050610c37565b50600092915050565b60008060208301600080868360008a619c405a03f19695505050505050565b6000610c348284613b3c565b6000828152600c602052604090206125229082612bc1565b1561123a5760405133906001600160a01b0383169084907f2f8788117e7eff1d82e926ec794901d17c78024a50270940304540a733656f0d90600090a45050565b6000828152600c6020526040902061257b9082612bd6565b1561123a5760405133906001600160a01b0383169084907ff6391f5c32d9c69d2a47ea670b442974b53935d1edc7fd64eb21e047a839171b90600090a45050565b6126026040518060a001604052806060815260200160006001600160801b0316815260200160006001600160801b03168152602001600015158152602001606081525090565b61260e82840184613c05565b6080860152151560608501526001600160801b039081166040850152166020830152815292915050565b6002546000906001600160a01b03166126635760405162461bcd60e51b8152600401610b4c906135ca565b61266c87612beb565b6002546040516304a091b760e31b81526000916001600160a01b0316906325048db8906126a5908a908a908a908a908a90600401613d27565b6020604051808303816000875af11580156126c4573d6000803e3d6000fd5b505050506040513d601f19601f820116820180604052508101906126e891906135b1565b905080886001600160a01b03167fcd47bcad760e912d146723a314cc78b8570ee76ec8bdd4b60335087f6c2f47d78989898960405161272a9493929190613dbe565b60405180910390a3979650505050505050565b6005546001600160a01b03166127655760405162461bcd60e51b8152600401610b4c906138f2565b6004546001600160a01b031661278d5760405162461bcd60e51b8152600401610b4c9061393d565b6003546001600160a01b03166127b55760405162461bcd60e51b8152600401610b4c9061398a565b6127be82611523565b156128005760405162461bcd60e51b8152602060048201526012602482015271111053ce881b9bdd081c9959da5cdd195c9960721b6044820152606401610b4c565b6001600160a01b0382166128265760405162461bcd60e51b8152600401610b4c90613a67565b6001600160a01b03828116600090815260096020526040902054161561285e5760405162461bcd60e51b8152600401610b4c90613a88565b6000829050806001600160a01b031663882eed2c6040518163ffffffff1660e01b8152600401602060405180830381865afa1580156128a1573d6000803e3d6000fd5b505050506040513d601f19601f820116820180604052508101906128c59190613634565b6128fb5760405162461bcd60e51b8152602060048201526007602482015266111053ce88125360ca1b6044820152606401610b4c565b836001600160a01b0316816001600160a01b031663570ca7356040518163ffffffff1660e01b8152600401602060405180830381865afa158015612943573d6000803e3d6000fd5b505050506040513d601f19601f820116820180604052508101906129679190613a4a565b6001600160a01b0316146129a75760405162461bcd60e51b815260206004820152600760248201526644414f3a20494f60c81b6044820152606401610b4c565b60035460055460405163732518fb60e11b81526000926001600160a01b039081169263e64a31f6926129e69289926001928a9230921690600401613df9565b6020604051808303816000875af1158015612a05573d6000803e3d6000fd5b505050506040513d601f19601f82011682018060405250810190612a299190613a4a565b90506001600160a01b038116612a515760405162461bcd60e51b8152600401610b4c90613a67565b6040805160a0810182526001600160a01b038381168083526000602080850182815285870183815260608701848152608088018581528d88168087526009909552898620985189546001600160a01b03199081169190991617895592516001808a0191909155915190516001600160801b03918216600160801b918316919091021760028901559151600390970180546001600160801b031916979092169690961790556006805495860181559091527ff652222313e28459528d920b65115c16c04f3efc82aaedc97be59f3f377c0d3f9093018054909216831790915591517f0f401d1bd976f5304ef9cfa87aeb24d777c0e205fb87bbae1dc0f0293ba7976a90612b5e908790613e3d565b60405180910390a35050505050565b6000610c348383612dba565b6001600160a01b03811660009081526001830160205260408120541515610c34565b6000610c37825490565b6000612bb083612e40565b8015610c345750610c348383612e73565b6000610c34836001600160a01b038416612efc565b6000610c34836001600160a01b038416612f4b565b60025460408051632522a32f60e01b815290516000926001600160a01b031691632522a32f9160048083019260209291908290030181865afa158015612c35573d6000803e3d6000fd5b505050506040513d601f19601f82011682018060405250810190612c5991906135b1565b6000546040516323b872dd60e01b81526001600160a01b038581166004830152306024830152604482018490529293509116906323b872dd906064016020604051808303816000875af1158015612cb4573d6000803e3d6000fd5b505050506040513d601f19601f82011682018060405250810190612cd89190613634565b612d0e5760405162461bcd60e51b8152602060048201526007602482015266111053ce88119560ca1b6044820152606401610b4c565b60005460405163a9059cbb60e01b815260016004820152602481018390526001600160a01b039091169063a9059cbb906044016020604051808303816000875af1158015612d60573d6000803e3d6000fd5b505050506040513d601f19601f82011682018060405250810190612d849190613634565b61123a5760405162461bcd60e51b81526020600482015260076024820152662220a79d10232160c91b6044820152606401610b4c565b81546000908210612e185760405162461bcd60e51b815260206004820152602260248201527f456e756d657261626c655365743a20696e646578206f7574206f6620626f756e604482015261647360f01b6064820152608401610b4c565b826000018281548110612e2d57612e2d61383a565b9060005260206000200154905092915050565b6000612e53826301ffc9a760e01b612e73565b8015610c375750612e6c826001600160e01b0319612e73565b1592915050565b604080516001600160e01b03198316602480830191909152825180830390910181526044909101909152602080820180516001600160e01b03166301ffc9a760e01b178152825160009392849283928392918391908a617530fa92503d91506000519050828015612ee5575060208210155b8015612ef15750600081115b979650505050505050565b6000818152600183016020526040812054612f4357508154600181810184556000848152602080822090930184905584548482528286019093526040902091909155610c37565b506000610c37565b60008181526001830160205260408120548015613034576000612f6f600183613e50565b8554909150600090612f8390600190613e50565b90506000866000018281548110612f9c57612f9c61383a565b9060005260206000200154905080876000018481548110612fbf57612fbf61383a565b600091825260209091200155612fd6836001613b3c565b60008281526001890160205260409020558654879080612ff857612ff8613e63565b60019003818190600052602060002001600090559055866001016000878152602001908152602001600020600090556001945050505050610c37565b6000915050610c37565b6001600160a01b038116811461305357600080fd5b50565b60006020828403121561306857600080fd5b81356120f98161303e565b6001600160a01b0391909116815260200190565b6000806040838503121561309a57600080fd5b82356130a58161303e565b915060208301356130b58161303e565b809150509250929050565b6000602082840312156130d257600080fd5b5035919050565b600080604083850312156130ec57600080fd5b8235915060208301356130b58161303e565b60008083601f84011261311057600080fd5b5081356001600160401b0381111561312757600080fd5b60208301915083602082850101111561313f57600080fd5b9250929050565b60008060008060006080868803121561315e57600080fd5b85356131698161303e565b945060208601356131798161303e565b93506040860135925060608601356001600160401b0381111561319b57600080fd5b6131a7888289016130fe565b969995985093965092949392505050565b634e487b7160e01b600052604160045260246000fd5b604051601f8201601f191681016001600160401b03811182821017156131f6576131f66131b8565b604052919050565b60006001600160401b03821115613217576132176131b8565b50601f01601f191660200190565b6000613238613233846131fe565b6131ce565b905082815283838301111561324c57600080fd5b828260208301376000602084830101529392505050565b600082601f83011261327457600080fd5b610c3483833560208501613225565b60008060006060848603121561329857600080fd5b83356132a38161303e565b925060208401356132b38161303e565b915060408401356001600160401b038111156132ce57600080fd5b6132da86828701613263565b9150509250925092565b600080604083850312156132f757600080fd5b82356133028161303e565b9150602083013563ffffffff811681146130b557600080fd5b60006020828403121561332d57600080fd5b81356001600160e01b0319811681146120f957600080fd5b60008083601f84011261335757600080fd5b5081356001600160401b0381111561336e57600080fd5b6020830191508360208260051b850101111561313f57600080fd5b6000806020838503121561339c57600080fd5b82356001600160401b038111156133b257600080fd5b6133be85828601613345565b90969095509350505050565b6000806000604084860312156133df57600080fd5b83356001600160401b038111156133f557600080fd5b61340186828701613345565b90945092505060208401356134158161303e565b809150509250925092565b6000806020838503121561343357600080fd5b82356001600160401b0381111561344957600080fd5b6133be858286016130fe565b60008060006040848603121561346a57600080fd5b83356134758161303e565b925060208401356001600160401b0381111561349057600080fd5b61349c868287016130fe565b9497909650939450505050565b6000806000606084860312156134be57600080fd5b505081359360208301359350604090920135919050565b600080604083850312156134e857600080fd5b50508035926020909101359150565b6000806040838503121561350a57600080fd5b82356135158161303e565b915060208301356001600160401b0381111561353057600080fd5b61353c85828601613263565b9150509250929050565b60208082526007908201526644414f3a204e4160c81b604082015260600190565b60208082526007908201526644414f3a205a4160c81b604082015260600190565b6020808252600f908201526e6e6f7420612063616e64696461746560881b604082015260600190565b6000602082840312156135c357600080fd5b5051919050565b6020808252602c908201527f53746f726167655374617465436f6d6d69747465653a204167656e64614d616e60408201526b61676572206973207a65726f60a01b606082015260800190565b801515811461305357600080fd5b805161362f81613616565b919050565b60006020828403121561364657600080fd5b81516120f981613616565b60006001600160401b0382111561366a5761366a6131b8565b5060051b60200190565b60005b8381101561368f578181015183820152602001613677565b50506000910152565b600082601f8301126136a957600080fd5b815160206136b961323383613651565b82815260059290921b840181019181810190868411156136d857600080fd5b8286015b848110156137535780516001600160401b038111156136fb5760008081fd5b8701603f8101891361370d5760008081fd5b84810151604061371f613233836131fe565b8281528b828486010111156137345760008081fd5b61374383898301848701613674565b86525050509183019183016136dc565b509695505050505050565b6000806000806080858703121561377457600080fd5b84516001600160401b038082111561378b57600080fd5b818701915087601f83011261379f57600080fd5b815160206137af61323383613651565b82815260059290921b8401810191818101908b8411156137ce57600080fd5b948201945b838610156137f55785516137e68161303e565b825294820194908201906137d3565b918a015191985090935050508082111561380e57600080fd5b5061381b87828801613698565b93505061382a60408601613624565b6060959095015193969295505050565b634e487b7160e01b600052603260045260246000fd5b60008251613862818460208701613674565b9190910192915050565b634e487b7160e01b600052601160045260246000fd5b6000600182016138945761389461386c565b5060010190565b600081518084526020808501945080840160005b838110156138d45781516001600160a01b0316875295820195908201906001016138af565b509495945050505050565b602081526000610c34602083018461389b565b6020808252602b908201527f53746f726167655374617465436f6d6d69747465653a20696e76616c6964205360408201526a6569674d616e616765726560a81b606082015260800190565b6020808252602d908201527f53746f726167655374617465436f6d6d69747465653a20696e76616c6964204c60408201526c6179657232526567697374727960981b606082015260800190565b60208082526031908201527f53746f726167655374617465436f6d6d69747465653a20696e76616c696420436040820152706f6d6d69747465654c32466163746f727960781b606082015260800190565b81835281816020850137506000828201602090810191909152601f909101601f19169091010190565b600060018060a01b038089168352871515602084015260a06040840152613a2f60a0840187896139db565b94811660608401529290921660809091015250949350505050565b600060208284031215613a5c57600080fd5b81516120f98161303e565b6020808252600790820152662220a79d1021ad60c91b604082015260600190565b60208082526007908201526644414f3a20414360c81b604082015260600190565b6020815260006123de6020830184866139db565b6001600160a01b0384168152604060208201819052600090613ae290830184866139db565b95945050505050565b634e487b7160e01b600052602160045260246000fd5b8281526040810160048310613b1857613b18613aeb565b8260208301529392505050565b8281526040810160068310613b1857613b18613aeb565b80820180821115610c3757610c3761386c565b80356001600160801b038116811461362f57600080fd5b803561362f81613616565b600082601f830112613b8257600080fd5b81356020613b9261323383613651565b82815260059290921b84018101918181019086841115613bb157600080fd5b8286015b848110156137535780356001600160401b03811115613bd45760008081fd5b8701603f81018913613be65760008081fd5b613bf7898683013560408401613225565b845250918301918301613bb5565b600080600080600060a08688031215613c1d57600080fd5b85356001600160401b0380821115613c3457600080fd5b818801915088601f830112613c4857600080fd5b81356020613c5861323383613651565b82815260059290921b8401810191818101908c841115613c7757600080fd5b948201945b83861015613c9e578535613c8f8161303e565b82529482019490820190613c7c565b9950613cad90508a8201613b4f565b97505050613cbd60408901613b4f565b9450613ccb60608901613b66565b93506080880135915080821115613ce157600080fd5b50613cee88828901613b71565b9150509295509295909350565b60008151808452613d13816020860160208601613674565b601f01601f19169290920160200192915050565b60a081526000613d3a60a083018861389b565b6001600160801b03878116602085810191909152908716604085015285151560608501528382036080850152845180835282820190600581901b8401830187840160005b83811015613dac57601f19878403018552613d9a838351613cfb565b94860194925090850190600101613d7e565b50909c9b505050505050505050505050565b608081526000613dd1608083018761389b565b6001600160801b03958616602084015293909416604082015290151560609091015292915050565b600060018060a01b038088168352861515602084015260a06040840152613e2360a0840187613cfb565b948116606084015292909216608090910152509392505050565b602081526000610c346020830184613cfb565b81810381811115610c3757610c3761386c565b634e487b7160e01b600052603160045260246000fdfea2646970667358221220eda83c672cf275a69ac170edea7b96db909d3f214d2d9f24d7796e6744d4139d64736f6c63430008120033",
  "linkReferences": {},
  "deployedLinkReferences": {}
}