{
  "_format": "hh-sol-artifact-1",
  "contractName": "AuthController",
  "sourceName": "contracts/test/TON.sol",
  "abi": [
    {
      "anonymous": false,
      "inputs": [
        {
          "indexed": true,
          "internalType": "address",
          "name": "previousOwner",
          "type": "address"
        },
        {
          "indexed": true,
          "internalType": "address",
          "name": "newOwner",
          "type": "address"
        }
      ],
      "name": "OwnershipTransferred",
      "type": "event"
    },
    {
      "inputs": [],
      "name": "isOwner",
      "outputs": [
        {
          "internalType": "bool",
          "name": "",
          "type": "bool"
        }
      ],
      "stateMutability": "view",
      "type": "function"
    },
    {
      "inputs": [],
      "name": "owner",
      "outputs": [
        {
          "internalType": "address",
          "name": "",
          "type": "address"
        }
      ],
      "stateMutability": "view",
      "type": "function"
    },
    {
      "inputs": [
        {
          "internalType": "address",
          "name": "target",
          "type": "address"
        }
      ],
      "name": "renounceMinter",
      "outputs": [],
      "stateMutability": "nonpayable",
      "type": "function"
    },
    {
      "inputs": [
        {
          "internalType": "address",
          "name": "target",
          "type": "address"
        }
      ],
      "name": "renounceOwnership",
      "outputs": [],
      "stateMutability": "nonpayable",
      "type": "function"
    },
    {
      "inputs": [],
      "name": "renounceOwnership",
      "outputs": [],
      "stateMutability": "nonpayable",
      "type": "function"
    },
    {
      "inputs": [
        {
          "internalType": "address",
          "name": "target",
          "type": "address"
        }
      ],
      "name": "renouncePauser",
      "outputs": [],
      "stateMutability": "nonpayable",
      "type": "function"
    },
    {
      "inputs": [
        {
          "internalType": "address",
          "name": "target",
          "type": "address"
        },
        {
          "internalType": "address",
          "name": "newOwner",
          "type": "address"
        }
      ],
      "name": "transferOwnership",
      "outputs": [],
      "stateMutability": "nonpayable",
      "type": "function"
    },
    {
      "inputs": [
        {
          "internalType": "address",
          "name": "newOwner",
          "type": "address"
        }
      ],
      "name": "transferOwnership",
      "outputs": [],
      "stateMutability": "nonpayable",
      "type": "function"
    }
  ],
  "bytecode": "0x608060405234801561001057600080fd5b50600080546001600160a01b031916339081178255604051909182917f8be0079c531659141344cd1fd0a4f28419497f9722a3daafe3b4186f6b6457e0908290a35061052d806100616000396000f3fe608060405234801561001057600080fd5b50600436106100785760003560e01c806338bf3cfa1461007d57806341eb24bb146100925780635f112c68146100a55780636d435421146100b8578063715018a6146100cb5780638da5cb5b146100d35780638f32d59b146100f3578063f2fde38b1461010b575b600080fd5b61009061008b36600461046d565b61011e565b005b6100906100a036600461046d565b6101a1565b6100906100b336600461046d565b610200565b6100906100c636600461048f565b61025f565b6100906102e2565b6000546040516001600160a01b0390911681526020015b60405180910390f35b6100fb610350565b60405190151581526020016100ea565b61009061011936600461046d565b610361565b610126610350565b61014b5760405162461bcd60e51b8152600401610142906104c2565b60405180910390fd5b806001600160a01b031663715018a66040518163ffffffff1660e01b8152600401600060405180830381600087803b15801561018657600080fd5b505af115801561019a573d6000803e3d6000fd5b5050505050565b6101a9610350565b6101c55760405162461bcd60e51b8152600401610142906104c2565b806001600160a01b0316636ef8d66d6040518163ffffffff1660e01b8152600401600060405180830381600087803b15801561018657600080fd5b610208610350565b6102245760405162461bcd60e51b8152600401610142906104c2565b806001600160a01b031663986502756040518163ffffffff1660e01b8152600401600060405180830381600087803b15801561018657600080fd5b610267610350565b6102835760405162461bcd60e51b8152600401610142906104c2565b60405163f2fde38b60e01b81526001600160a01b03828116600483015283169063f2fde38b90602401600060405180830381600087803b1580156102c657600080fd5b505af11580156102da573d6000803e3d6000fd5b505050505050565b6102ea610350565b6103065760405162461bcd60e51b8152600401610142906104c2565b600080546040516001600160a01b03909116907f8be0079c531659141344cd1fd0a4f28419497f9722a3daafe3b4186f6b6457e0908390a3600080546001600160a01b0319169055565b6000546001600160a01b0316331490565b610369610350565b6103855760405162461bcd60e51b8152600401610142906104c2565b61038e81610391565b50565b6001600160a01b0381166103f65760405162461bcd60e51b815260206004820152602660248201527f4f776e61626c653a206e6577206f776e657220697320746865207a65726f206160448201526564647265737360d01b6064820152608401610142565b600080546040516001600160a01b03808516939216917f8be0079c531659141344cd1fd0a4f28419497f9722a3daafe3b4186f6b6457e091a3600080546001600160a01b0319166001600160a01b0392909216919091179055565b80356001600160a01b038116811461046857600080fd5b919050565b60006020828403121561047f57600080fd5b61048882610451565b9392505050565b600080604083850312156104a257600080fd5b6104ab83610451565b91506104b960208401610451565b90509250929050565b6020808252818101527f4f776e61626c653a2063616c6c6572206973206e6f7420746865206f776e657260408201526060019056fea2646970667358221220d694a06635d82cc7defdfa9baae8939e61c8402208b4a3d99fe288fe2b7005dd64736f6c63430008120033",
  "linkReferences": {},
  "deployedLinkReferences": {}
}