{
  "_format": "hh-sol-artifact-1",
  "contractName": "ERC20OnApprove",
  "sourceName": "contracts/test/TON.sol",
  "abi": [
    {
      "anonymous": false,
      "inputs": [
        {
          "indexed": true,
          "internalType": "address",
          "name": "owner",
          "type": "address"
        },
        {
          "indexed": true,
          "internalType": "address",
          "name": "spender",
          "type": "address"
        },
        {
          "indexed": false,
          "internalType": "uint256",
          "name": "value",
          "type": "uint256"
        }
      ],
      "name": "Approval",
      "type": "event"
    },
    {
      "anonymous": false,
      "inputs": [
        {
          "indexed": true,
          "internalType": "address",
          "name": "from",
          "type": "address"
        },
        {
          "indexed": true,
          "internalType": "address",
          "name": "to",
          "type": "address"
        },
        {
          "indexed": false,
          "internalType": "uint256",
          "name": "value",
          "type": "uint256"
        }
      ],
      "name": "Transfer",
      "type": "event"
    },
    {
      "inputs": [
        {
          "internalType": "address",
          "name": "owner",
          "type": "address"
        },
        {
          "internalType": "address",
          "name": "spender",
          "type": "address"
        }
      ],
      "name": "allowance",
      "outputs": [
        {
          "internalType": "uint256",
          "name": "",
          "type": "uint256"
        }
      ],
      "stateMutability": "view",
      "type": "function"
    },
    {
      "inputs": [
        {
          "internalType": "address",
          "name": "spender",
          "type": "address"
        },
        {
          "internalType": "uint256",
          "name": "amount",
          "type": "uint256"
        }
      ],
      "name": "approve",
      "outputs": [
        {
          "internalType": "bool",
          "name": "",
          "type": "bool"
        }
      ],
      "stateMutability": "nonpayable",
      "type": "function"
    },
    {
      "inputs": [
        {
          "internalType": "address",
          "name": "spender",
          "type": "address"
        },
        {
          "internalType": "uint256",
          "name": "amount",
          "type": "uint256"
        },
        {
          "internalType": "bytes",
          "name": "data",
          "type": "bytes"
        }
      ],
      "name": "approveAndCall",
      "outputs": [
        {
          "internalType": "bool",
          "name": "",
          "type": "bool"
        }
      ],
      "stateMutability": "nonpayable",
      "type": "function"
    },
    {
      "inputs": [
        {
          "internalType": "address",
          "name": "account",
          "type": "address"
        }
      ],
      "name": "balanceOf",
      "outputs": [
        {
          "internalType": "uint256",
          "name": "",
          "type": "uint256"
        }
      ],
      "stateMutability": "view",
      "type": "function"
    },
    {
      "inputs": [
        {
          "internalType": "address",
          "name": "spender",
          "type": "address"
        },
        {
          "internalType": "uint256",
          "name": "subtractedValue",
          "type": "uint256"
        }
      ],
      "name": "decreaseAllowance",
      "outputs": [
        {
          "internalType": "bool",
          "name": "",
          "type": "bool"
        }
      ],
      "stateMutability": "nonpayable",
      "type": "function"
    },
    {
      "inputs": [
        {
          "internalType": "address",
          "name": "spender",
          "type": "address"
        },
        {
          "internalType": "uint256",
          "name": "addedValue",
          "type": "uint256"
        }
      ],
      "name": "increaseAllowance",
      "outputs": [
        {
          "internalType": "bool",
          "name": "",
          "type": "bool"
        }
      ],
      "stateMutability": "nonpayable",
      "type": "function"
    },
    {
      "inputs": [],
      "name": "totalSupply",
      "outputs": [
        {
          "internalType": "uint256",
          "name": "",
          "type": "uint256"
        }
      ],
      "stateMutability": "view",
      "type": "function"
    },
    {
      "inputs": [
        {
          "internalType": "address",
          "name": "recipient",
          "type": "address"
        },
        {
          "internalType": "uint256",
          "name": "amount",
          "type": "uint256"
        }
      ],
      "name": "transfer",
      "outputs": [
        {
          "internalType": "bool",
          "name": "",
          "type": "bool"
        }
      ],
      "stateMutability": "nonpayable",
      "type": "function"
    },
    {
      "inputs": [
        {
          "internalType": "address",
          "name": "sender",
          "type": "address"
        },
        {
          "internalType": "address",
          "name": "recipient",
          "type": "address"
        },
        {
          "internalType": "uint256",
          "name": "amount",
          "type": "uint256"
        }
      ],
      "name": "transferFrom",
      "outputs": [
        {
          "internalType": "bool",
          "name": "",
          "type": "bool"
        }
      ],
      "stateMutability": "nonpayable",
      "type": "function"
    }
  ],
  "bytecode": "0x608060405234801561001057600080fd5b50610c85806100206000396000f3fe608060405234801561001057600080fd5b50600436106100835760003560e01c8063095ea7b31461008857806318160ddd146100b057806323b872dd146100c257806339509351146100d557806370a08231146100e8578063a457c2d714610111578063a9059cbb14610124578063cae9ca5114610137578063dd62ed3e1461014a575b600080fd5b61009b61009636600461092d565b610183565b60405190151581526020015b60405180910390f35b6002545b6040519081526020016100a7565b61009b6100d0366004610957565b61019a565b61009b6100e336600461092d565b610203565b6100b46100f6366004610993565b6001600160a01b031660009081526020819052604090205490565b61009b61011f36600461092d565b610239565b61009b61013236600461092d565b610288565b61009b6101453660046109c4565b610295565b6100b4610158366004610a8f565b6001600160a01b03918216600090815260016020908152604080832093909416825291909152205490565b60006101903384846102b6565b5060015b92915050565b60006101a78484846103e0565b6101f984336101f485604051806060016040528060288152602001610c03602891396001600160a01b038a1660009081526001602090815260408083203384529091529020549190610563565b6102b6565b5060019392505050565b3360008181526001602090815260408083206001600160a01b038716845290915281205490916101909185906101f4908661059d565b600061019033846101f485604051806060016040528060258152602001610c2b602591393360009081526001602090815260408083206001600160a01b038d1684529091529020549190610563565b60006101903384846103e0565b60006102a18484610183565b6102aa57600080fd5b6101f933858585610603565b6001600160a01b03831661031d5760405162461bcd60e51b8152602060048201526024808201527f45524332303a20617070726f76652066726f6d20746865207a65726f206164646044820152637265737360e01b60648201526084015b60405180910390fd5b6001600160a01b03821661037e5760405162461bcd60e51b815260206004820152602260248201527f45524332303a20617070726f766520746f20746865207a65726f206164647265604482015261737360f01b6064820152608401610314565b6001600160a01b0383811660008181526001602090815260408083209487168084529482529182902085905590518481527f8c5be1e5ebec7d5bd14f71427d1e84f3dd0314c0f7b2291e5b200ac8c7c3b92591015b60405180910390a3505050565b6001600160a01b0383166104445760405162461bcd60e51b815260206004820152602560248201527f45524332303a207472616e736665722066726f6d20746865207a65726f206164604482015264647265737360d81b6064820152608401610314565b6001600160a01b0382166104a65760405162461bcd60e51b815260206004820152602360248201527f45524332303a207472616e7366657220746f20746865207a65726f206164647260448201526265737360e81b6064820152608401610314565b6104e381604051806060016040528060268152602001610bdd602691396001600160a01b0386166000908152602081905260409020549190610563565b6001600160a01b038085166000908152602081905260408082209390935590841681522054610512908261059d565b6001600160a01b038381166000818152602081815260409182902094909455518481529092918616917fddf252ad1be2c89b69c2b068fc378daa952ba7f163c4a11628f55a4df523b3ef91016103d3565b600081848411156105875760405162461bcd60e51b81526004016103149190610b12565b5060006105948486610b3b565b95945050505050565b6000806105aa8385610b4e565b9050838110156105fc5760405162461bcd60e51b815260206004820152601b60248201527f536166654d6174683a206164646974696f6e206f766572666c6f7700000000006044820152606401610314565b9392505050565b632139e50b60e11b61061584826107b4565b61067b5760405162461bcd60e51b815260206004820152603160248201527f45524332304f6e417070726f76653a207370656e64657220646f65736e277420604482015270737570706f7274206f6e417070726f766560781b6064820152608401610314565b600080856001600160a01b031683888888886040516024016106a09493929190610b61565b60408051601f198184030181529181526020820180516001600160e01b03166001600160e01b03199094169390931790925290516106de9190610b9e565b6000604051808303816000865af19150503d806000811461071b576040519150601f19603f3d011682016040523d82523d6000602084013e610720565b606091505b50915091508181906107455760405162461bcd60e51b81526004016103149190610b12565b5060208101519150816107ab5760405162461bcd60e51b815260206004820152602860248201527f45524332304f6e417070726f76653a206661696c656420746f2063616c6c206f6044820152676e417070726f766560c01b6064820152608401610314565b50505050505050565b60006107bf836107d0565b80156105fc57506105fc8383610803565b60006107e3826301ffc9a760e01b610803565b801561019457506107fc826001600160e01b0319610803565b1592915050565b60008060006108128585610826565b915091508180156105945750949350505050565b604080516001600160e01b0319831660248083019190915282518083039091018152604490910182526020810180516001600160e01b03166301ffc9a760e01b17905290516000918291829081906001600160a01b038816906175309061088e908690610b9e565b6000604051808303818686fa925050503d80600081146108ca576040519150601f19603f3d011682016040523d82523d6000602084013e6108cf565b606091505b50915091506020815110156108ed576000809450945050505061090a565b81818060200190518101906109029190610bba565b945094505050505b9250929050565b80356001600160a01b038116811461092857600080fd5b919050565b6000806040838503121561094057600080fd5b61094983610911565b946020939093013593505050565b60008060006060848603121561096c57600080fd5b61097584610911565b925061098360208501610911565b9150604084013590509250925092565b6000602082840312156109a557600080fd5b6105fc82610911565b634e487b7160e01b600052604160045260246000fd5b6000806000606084860312156109d957600080fd5b6109e284610911565b925060208401359150604084013567ffffffffffffffff80821115610a0657600080fd5b818601915086601f830112610a1a57600080fd5b813581811115610a2c57610a2c6109ae565b604051601f8201601f19908116603f01168101908382118183101715610a5457610a546109ae565b81604052828152896020848701011115610a6d57600080fd5b8260208601602083013760006020848301015280955050505050509250925092565b60008060408385031215610aa257600080fd5b610aab83610911565b9150610ab960208401610911565b90509250929050565b60005b83811015610add578181015183820152602001610ac5565b50506000910152565b60008151808452610afe816020860160208601610ac2565b601f01601f19169290920160200192915050565b6020815260006105fc6020830184610ae6565b634e487b7160e01b600052601160045260246000fd5b8181038181111561019457610194610b25565b8082018082111561019457610194610b25565b6001600160a01b0385811682528416602082015260408101839052608060608201819052600090610b9490830184610ae6565b9695505050505050565b60008251610bb0818460208701610ac2565b9190910192915050565b600060208284031215610bcc57600080fd5b815180151581146105fc57600080fdfe45524332303a207472616e7366657220616d6f756e7420657863656564732062616c616e636545524332303a207472616e7366657220616d6f756e74206578636565647320616c6c6f77616e636545524332303a2064656372656173656420616c6c6f77616e63652062656c6f77207a65726fa264697066735822122027272f2a98bc5279e7dc537ac8f75321b2ce670e2176ceaf29246efc2bacc31164736f6c63430008120033",
  "linkReferences": {},
  "deployedLinkReferences": {}
}