{
  "_format": "hh-sol-artifact-1",
  "contractName": "SeigToken",
  "sourceName": "contracts/test/TON.sol",
  "abi": [
    {
      "anonymous": false,
      "inputs": [
        {
          "indexed": true,
          "internalType": "address",
          "name": "owner",
          "type": "address"
        },
        {
          "indexed": true,
          "internalType": "address",
          "name": "spender",
          "type": "address"
        },
        {
          "indexed": false,
          "internalType": "uint256",
          "name": "value",
          "type": "uint256"
        }
      ],
      "name": "Approval",
      "type": "event"
    },
    {
      "anonymous": false,
      "inputs": [
        {
          "indexed": true,
          "internalType": "address",
          "name": "previousOwner",
          "type": "address"
        },
        {
          "indexed": true,
          "internalType": "address",
          "name": "newOwner",
          "type": "address"
        }
      ],
      "name": "OwnershipTransferred",
      "type": "event"
    },
    {
      "anonymous": false,
      "inputs": [
        {
          "indexed": true,
          "internalType": "address",
          "name": "from",
          "type": "address"
        },
        {
          "indexed": true,
          "internalType": "address",
          "name": "to",
          "type": "address"
        },
        {
          "indexed": false,
          "internalType": "uint256",
          "name": "value",
          "type": "uint256"
        }
      ],
      "name": "Transfer",
      "type": "event"
    },
    {
      "inputs": [
        {
          "internalType": "address",
          "name": "owner",
          "type": "address"
        },
        {
          "internalType": "address",
          "name": "spender",
          "type": "address"
        }
      ],
      "name": "allowance",
      "outputs": [
        {
          "internalType": "uint256",
          "name": "",
          "type": "uint256"
        }
      ],
      "stateMutability": "view",
      "type": "function"
    },
    {
      "inputs": [
        {
          "internalType": "address",
          "name": "spender",
          "type": "address"
        },
        {
          "internalType": "uint256",
          "name": "amount",
          "type": "uint256"
        }
      ],
      "name": "approve",
      "outputs": [
        {
          "internalType": "bool",
          "name": "",
          "type": "bool"
        }
      ],
      "stateMutability": "nonpayable",
      "type": "function"
    },
    {
      "inputs": [
        {
          "internalType": "address",
          "name": "spender",
          "type": "address"
        },
        {
          "internalType": "uint256",
          "name": "amount",
          "type": "uint256"
        },
        {
          "internalType": "bytes",
          "name": "data",
          "type": "bytes"
        }
      ],
      "name": "approveAndCall",
      "outputs": [
        {
          "internalType": "bool",
          "name": "",
          "type": "bool"
        }
      ],
      "stateMutability": "nonpayable",
      "type": "function"
    },
    {
      "inputs": [
        {
          "internalType": "address",
          "name": "account",
          "type": "address"
        }
      ],
      "name": "balanceOf",
      "outputs": [
        {
          "internalType": "uint256",
          "name": "",
          "type": "uint256"
        }
      ],
      "stateMutability": "view",
      "type": "function"
    },
    {
      "inputs": [],
      "name": "callbackEnabled",
      "outputs": [
        {
          "internalType": "bool",
          "name": "",
          "type": "bool"
        }
      ],
      "stateMutability": "view",
      "type": "function"
    },
    {
      "inputs": [
        {
          "internalType": "address",
          "name": "spender",
          "type": "address"
        },
        {
          "internalType": "uint256",
          "name": "subtractedValue",
          "type": "uint256"
        }
      ],
      "name": "decreaseAllowance",
      "outputs": [
        {
          "internalType": "bool",
          "name": "",
          "type": "bool"
        }
      ],
      "stateMutability": "nonpayable",
      "type": "function"
    },
    {
      "inputs": [
        {
          "internalType": "bool",
          "name": "_callbackEnabled",
          "type": "bool"
        }
      ],
      "name": "enableCallback",
      "outputs": [],
      "stateMutability": "nonpayable",
      "type": "function"
    },
    {
      "inputs": [
        {
          "internalType": "address",
          "name": "spender",
          "type": "address"
        },
        {
          "internalType": "uint256",
          "name": "addedValue",
          "type": "uint256"
        }
      ],
      "name": "increaseAllowance",
      "outputs": [
        {
          "internalType": "bool",
          "name": "",
          "type": "bool"
        }
      ],
      "stateMutability": "nonpayable",
      "type": "function"
    },
    {
      "inputs": [],
      "name": "isOwner",
      "outputs": [
        {
          "internalType": "bool",
          "name": "",
          "type": "bool"
        }
      ],
      "stateMutability": "view",
      "type": "function"
    },
    {
      "inputs": [],
      "name": "owner",
      "outputs": [
        {
          "internalType": "address",
          "name": "",
          "type": "address"
        }
      ],
      "stateMutability": "view",
      "type": "function"
    },
    {
      "inputs": [
        {
          "internalType": "address",
          "name": "target",
          "type": "address"
        }
      ],
      "name": "renounceMinter",
      "outputs": [],
      "stateMutability": "nonpayable",
      "type": "function"
    },
    {
      "inputs": [
        {
          "internalType": "address",
          "name": "target",
          "type": "address"
        }
      ],
      "name": "renounceOwnership",
      "outputs": [],
      "stateMutability": "nonpayable",
      "type": "function"
    },
    {
      "inputs": [],
      "name": "renounceOwnership",
      "outputs": [],
      "stateMutability": "nonpayable",
      "type": "function"
    },
    {
      "inputs": [
        {
          "internalType": "address",
          "name": "target",
          "type": "address"
        }
      ],
      "name": "renouncePauser",
      "outputs": [],
      "stateMutability": "nonpayable",
      "type": "function"
    },
    {
      "inputs": [],
      "name": "seigManager",
      "outputs": [
        {
          "internalType": "contract SeigManagerI",
          "name": "",
          "type": "address"
        }
      ],
      "stateMutability": "view",
      "type": "function"
    },
    {
      "inputs": [
        {
          "internalType": "contract SeigManagerI",
          "name": "_seigManager",
          "type": "address"
        }
      ],
      "name": "setSeigManager",
      "outputs": [],
      "stateMutability": "nonpayable",
      "type": "function"
    },
    {
      "inputs": [],
      "name": "totalSupply",
      "outputs": [
        {
          "internalType": "uint256",
          "name": "",
          "type": "uint256"
        }
      ],
      "stateMutability": "view",
      "type": "function"
    },
    {
      "inputs": [
        {
          "internalType": "address",
          "name": "recipient",
          "type": "address"
        },
        {
          "internalType": "uint256",
          "name": "amount",
          "type": "uint256"
        }
      ],
      "name": "transfer",
      "outputs": [
        {
          "internalType": "bool",
          "name": "",
          "type": "bool"
        }
      ],
      "stateMutability": "nonpayable",
      "type": "function"
    },
    {
      "inputs": [
        {
          "internalType": "address",
          "name": "sender",
          "type": "address"
        },
        {
          "internalType": "address",
          "name": "recipient",
          "type": "address"
        },
        {
          "internalType": "uint256",
          "name": "amount",
          "type": "uint256"
        }
      ],
      "name": "transferFrom",
      "outputs": [
        {
          "internalType": "bool",
          "name": "",
          "type": "bool"
        }
      ],
      "stateMutability": "nonpayable",
      "type": "function"
    },
    {
      "inputs": [
        {
          "internalType": "address",
          "name": "target",
          "type": "address"
        },
        {
          "internalType": "address",
          "name": "newOwner",
          "type": "address"
        }
      ],
      "name": "transferOwnership",
      "outputs": [],
      "stateMutability": "nonpayable",
      "type": "function"
    },
    {
      "inputs": [
        {
          "internalType": "address",
          "name": "newOwner",
          "type": "address"
        }
      ],
      "name": "transferOwnership",
      "outputs": [],
      "stateMutability": "nonpayable",
      "type": "function"
    }
  ],
  "bytecode": "0x608060405234801561001057600080fd5b50600380546001600160a01b0319163390811790915560405181906000907f8be0079c531659141344cd1fd0a4f28419497f9722a3daafe3b4186f6b6457e0908290a350611393806100636000396000f3fe608060405234801561001057600080fd5b50600436106101375760003560e01c80636fb7f558116100b85780638f32d59b1161007c5780638f32d59b14610291578063a457c2d714610299578063a9059cbb146102ac578063cae9ca51146102bf578063dd62ed3e146102d2578063f2fde38b1461030b57600080fd5b80636fb7f5581461021157806370a082311461023c578063715018a6146102655780637657f20a1461026d5780638da5cb5b1461028057600080fd5b806339509351116100ff57806339509351146101b157806341eb24bb146101c45780635f112c68146101d757806363380113146101ea5780636d435421146101fe57600080fd5b8063095ea7b31461013c57806318160ddd1461016457806323b872dd146101765780633113ed5c1461018957806338bf3cfa1461019e575b600080fd5b61014f61014a366004610fcf565b61031e565b60405190151581526020015b60405180910390f35b6002545b60405190815260200161015b565b61014f610184366004610ffb565b610335565b61019c61019736600461104a565b6103d3565b005b61019c6101ac366004611067565b610415565b61014f6101bf366004610fcf565b61048f565b61019c6101d2366004611067565b6104ca565b61019c6101e5366004611067565b610529565b60045461014f90600160a01b900460ff1681565b61019c61020c366004611084565b610588565b600454610224906001600160a01b031681565b6040516001600160a01b03909116815260200161015b565b61016861024a366004611067565b6001600160a01b031660009081526020819052604090205490565b61019c61060b565b61019c61027b366004611067565b610679565b6003546001600160a01b0316610224565b61014f6106bf565b61014f6102a7366004610fcf565b6106d0565b61014f6102ba366004610fcf565b61071f565b61014f6102cd3660046110d3565b61072c565b6101686102e0366004611084565b6001600160a01b03918216600090815260016020908152604080832093909416825291909152205490565b61019c610319366004611067565b610757565b600061032b338484610787565b5060015b92915050565b6000336001600160a01b03851614806103565750336001600160a01b038416145b6103c05760405162461bcd60e51b815260206004820152603060248201527f53656967546f6b656e3a206f6e6c792073656e646572206f722072656369706960448201526f32b73a1031b0b7103a3930b739b332b960811b60648201526084015b60405180910390fd5b6103cb8484846108ac565b949350505050565b6103db6106bf565b6103f75760405162461bcd60e51b81526004016103b7906111a0565b60048054911515600160a01b0260ff60a01b19909216919091179055565b61041d6106bf565b6104395760405162461bcd60e51b81526004016103b7906111a0565b806001600160a01b031663715018a66040518163ffffffff1660e01b8152600401600060405180830381600087803b15801561047457600080fd5b505af1158015610488573d6000803e3d6000fd5b5050505050565b3360008181526001602090815260408083206001600160a01b0387168452909152812054909161032b9185906104c59086610906565b610787565b6104d26106bf565b6104ee5760405162461bcd60e51b81526004016103b7906111a0565b806001600160a01b0316636ef8d66d6040518163ffffffff1660e01b8152600401600060405180830381600087803b15801561047457600080fd5b6105316106bf565b61054d5760405162461bcd60e51b81526004016103b7906111a0565b806001600160a01b031663986502756040518163ffffffff1660e01b8152600401600060405180830381600087803b15801561047457600080fd5b6105906106bf565b6105ac5760405162461bcd60e51b81526004016103b7906111a0565b60405163f2fde38b60e01b81526001600160a01b03828116600483015283169063f2fde38b90602401600060405180830381600087803b1580156105ef57600080fd5b505af1158015610603573d6000803e3d6000fd5b505050505050565b6106136106bf565b61062f5760405162461bcd60e51b81526004016103b7906111a0565b6003546040516000916001600160a01b0316907f8be0079c531659141344cd1fd0a4f28419497f9722a3daafe3b4186f6b6457e0908390a3600380546001600160a01b0319169055565b6106816106bf565b61069d5760405162461bcd60e51b81526004016103b7906111a0565b600480546001600160a01b0319166001600160a01b0392909216919091179055565b6003546001600160a01b0316331490565b600061032b33846104c585604051806060016040528060258152602001611339602591393360009081526001602090815260408083206001600160a01b038d168452909152902054919061096c565b600061032b3384846109a6565b6000610738848461031e565b61074157600080fd5b61074d33858585610a68565b5060019392505050565b61075f6106bf565b61077b5760405162461bcd60e51b81526004016103b7906111a0565b61078481610c19565b50565b6001600160a01b0383166107e95760405162461bcd60e51b8152602060048201526024808201527f45524332303a20617070726f76652066726f6d20746865207a65726f206164646044820152637265737360e01b60648201526084016103b7565b6001600160a01b03821661084a5760405162461bcd60e51b815260206004820152602260248201527f45524332303a20617070726f766520746f20746865207a65726f206164647265604482015261737360f01b60648201526084016103b7565b6001600160a01b0383811660008181526001602090815260408083209487168084529482529182902085905590518481527f8c5be1e5ebec7d5bd14f71427d1e84f3dd0314c0f7b2291e5b200ac8c7c3b92591015b60405180910390a3505050565b60006108b98484846109a6565b61074d84336104c585604051806060016040528060288152602001611311602891396001600160a01b038a166000908152600160209081526040808320338452909152902054919061096c565b60008061091383856111eb565b9050838110156109655760405162461bcd60e51b815260206004820152601b60248201527f536166654d6174683a206164646974696f6e206f766572666c6f77000000000060448201526064016103b7565b9392505050565b600081848411156109905760405162461bcd60e51b81526004016103b7919061124e565b50600061099d8486611261565b95945050505050565b6109b1838383610cda565b600454600160a01b900460ff1680156109d457506004546001600160a01b031615155b15610a635760048054604051634a39314960e01b81526001600160a01b0386811693820193909352848316602482015260448101849052911690634a393149906064016020604051808303816000875af1158015610a36573d6000803e3d6000fd5b505050506040513d601f19601f82011682018060405250810190610a5a9190611274565b610a6357600080fd5b505050565b632139e50b60e11b610a7a8482610e5d565b610ae05760405162461bcd60e51b815260206004820152603160248201527f45524332304f6e417070726f76653a207370656e64657220646f65736e277420604482015270737570706f7274206f6e417070726f766560781b60648201526084016103b7565b600080856001600160a01b03168388888888604051602401610b059493929190611291565b60408051601f198184030181529181526020820180516001600160e01b03166001600160e01b0319909416939093179092529051610b4391906112ce565b6000604051808303816000865af19150503d8060008114610b80576040519150601f19603f3d011682016040523d82523d6000602084013e610b85565b606091505b5091509150818190610baa5760405162461bcd60e51b81526004016103b7919061124e565b506020810151915081610c105760405162461bcd60e51b815260206004820152602860248201527f45524332304f6e417070726f76653a206661696c656420746f2063616c6c206f6044820152676e417070726f766560c01b60648201526084016103b7565b50505050505050565b6001600160a01b038116610c7e5760405162461bcd60e51b815260206004820152602660248201527f4f776e61626c653a206e6577206f776e657220697320746865207a65726f206160448201526564647265737360d01b60648201526084016103b7565b6003546040516001600160a01b038084169216907f8be0079c531659141344cd1fd0a4f28419497f9722a3daafe3b4186f6b6457e090600090a3600380546001600160a01b0319166001600160a01b0392909216919091179055565b6001600160a01b038316610d3e5760405162461bcd60e51b815260206004820152602560248201527f45524332303a207472616e736665722066726f6d20746865207a65726f206164604482015264647265737360d81b60648201526084016103b7565b6001600160a01b038216610da05760405162461bcd60e51b815260206004820152602360248201527f45524332303a207472616e7366657220746f20746865207a65726f206164647260448201526265737360e81b60648201526084016103b7565b610ddd816040518060600160405280602681526020016112eb602691396001600160a01b038616600090815260208190526040902054919061096c565b6001600160a01b038085166000908152602081905260408082209390935590841681522054610e0c9082610906565b6001600160a01b038381166000818152602081815260409182902094909455518481529092918616917fddf252ad1be2c89b69c2b068fc378daa952ba7f163c4a11628f55a4df523b3ef910161089f565b6000610e6883610e79565b801561096557506109658383610eac565b6000610e8c826301ffc9a760e01b610eac565b801561032f5750610ea5826001600160e01b0319610eac565b1592915050565b6000806000610ebb8585610ecf565b9150915081801561099d5750949350505050565b604080516001600160e01b0319831660248083019190915282518083039091018152604490910182526020810180516001600160e01b03166301ffc9a760e01b17905290516000918291829081906001600160a01b0388169061753090610f379086906112ce565b6000604051808303818686fa925050503d8060008114610f73576040519150601f19603f3d011682016040523d82523d6000602084013e610f78565b606091505b5091509150602081511015610f965760008094509450505050610fb3565b8181806020019051810190610fab9190611274565b945094505050505b9250929050565b6001600160a01b038116811461078457600080fd5b60008060408385031215610fe257600080fd5b8235610fed81610fba565b946020939093013593505050565b60008060006060848603121561101057600080fd5b833561101b81610fba565b9250602084013561102b81610fba565b929592945050506040919091013590565b801515811461078457600080fd5b60006020828403121561105c57600080fd5b81356109658161103c565b60006020828403121561107957600080fd5b813561096581610fba565b6000806040838503121561109757600080fd5b82356110a281610fba565b915060208301356110b281610fba565b809150509250929050565b634e487b7160e01b600052604160045260246000fd5b6000806000606084860312156110e857600080fd5b83356110f381610fba565b925060208401359150604084013567ffffffffffffffff8082111561111757600080fd5b818601915086601f83011261112b57600080fd5b81358181111561113d5761113d6110bd565b604051601f8201601f19908116603f01168101908382118183101715611165576111656110bd565b8160405282815289602084870101111561117e57600080fd5b8260208601602083013760006020848301015280955050505050509250925092565b6020808252818101527f4f776e61626c653a2063616c6c6572206973206e6f7420746865206f776e6572604082015260600190565b634e487b7160e01b600052601160045260246000fd5b8082018082111561032f5761032f6111d5565b60005b83811015611219578181015183820152602001611201565b50506000910152565b6000815180845261123a8160208601602086016111fe565b601f01601f19169290920160200192915050565b6020815260006109656020830184611222565b8181038181111561032f5761032f6111d5565b60006020828403121561128657600080fd5b81516109658161103c565b6001600160a01b03858116825284166020820152604081018390526080606082018190526000906112c490830184611222565b9695505050505050565b600082516112e08184602087016111fe565b919091019291505056fe45524332303a207472616e7366657220616d6f756e7420657863656564732062616c616e636545524332303a207472616e7366657220616d6f756e74206578636565647320616c6c6f77616e636545524332303a2064656372656173656420616c6c6f77616e63652062656c6f77207a65726fa264697066735822122046e885620838e5399aa5801eaf645e3ba2da65b70ff9dbdfd67776388b85b72964736f6c63430008120033",
  "linkReferences": {},
  "deployedLinkReferences": {}
}