{
  "_format": "hh-sol-artifact-1",
  "contractName": "TON",
  "sourceName": "contracts/test/TON.sol",
  "abi": [
    {
      "inputs": [],
      "stateMutability": "nonpayable",
      "type": "constructor"
    },
    {
      "anonymous": false,
      "inputs": [
        {
          "indexed": true,
          "internalType": "address",
          "name": "owner",
          "type": "address"
        },
        {
          "indexed": true,
          "internalType": "address",
          "name": "spender",
          "type": "address"
        },
        {
          "indexed": false,
          "internalType": "uint256",
          "name": "value",
          "type": "uint256"
        }
      ],
      "name": "Approval",
      "type": "event"
    },
    {
      "anonymous": false,
      "inputs": [
        {
          "indexed": true,
          "internalType": "address",
          "name": "account",
          "type": "address"
        }
      ],
      "name": "MinterAdded",
      "type": "event"
    },
    {
      "anonymous": false,
      "inputs": [
        {
          "indexed": true,
          "internalType": "address",
          "name": "account",
          "type": "address"
        }
      ],
      "name": "MinterRemoved",
      "type": "event"
    },
    {
      "anonymous": false,
      "inputs": [
        {
          "indexed": true,
          "internalType": "address",
          "name": "previousOwner",
          "type": "address"
        },
        {
          "indexed": true,
          "internalType": "address",
          "name": "newOwner",
          "type": "address"
        }
      ],
      "name": "OwnershipTransferred",
      "type": "event"
    },
    {
      "anonymous": false,
      "inputs": [
        {
          "indexed": true,
          "internalType": "address",
          "name": "from",
          "type": "address"
        },
        {
          "indexed": true,
          "internalType": "address",
          "name": "to",
          "type": "address"
        },
        {
          "indexed": false,
          "internalType": "uint256",
          "name": "value",
          "type": "uint256"
        }
      ],
      "name": "Transfer",
      "type": "event"
    },
    {
      "inputs": [
        {
          "internalType": "address",
          "name": "account",
          "type": "address"
        }
      ],
      "name": "addMinter",
      "outputs": [],
      "stateMutability": "nonpayable",
      "type": "function"
    },
    {
      "inputs": [
        {
          "internalType": "address",
          "name": "owner",
          "type": "address"
        },
        {
          "internalType": "address",
          "name": "spender",
          "type": "address"
        }
      ],
      "name": "allowance",
      "outputs": [
        {
          "internalType": "uint256",
          "name": "",
          "type": "uint256"
        }
      ],
      "stateMutability": "view",
      "type": "function"
    },
    {
      "inputs": [
        {
          "internalType": "address",
          "name": "spender",
          "type": "address"
        },
        {
          "internalType": "uint256",
          "name": "amount",
          "type": "uint256"
        }
      ],
      "name": "approve",
      "outputs": [
        {
          "internalType": "bool",
          "name": "",
          "type": "bool"
        }
      ],
      "stateMutability": "nonpayable",
      "type": "function"
    },
    {
      "inputs": [
        {
          "internalType": "address",
          "name": "spender",
          "type": "address"
        },
        {
          "internalType": "uint256",
          "name": "amount",
          "type": "uint256"
        },
        {
          "internalType": "bytes",
          "name": "data",
          "type": "bytes"
        }
      ],
      "name": "approveAndCall",
      "outputs": [
        {
          "internalType": "bool",
          "name": "",
          "type": "bool"
        }
      ],
      "stateMutability": "nonpayable",
      "type": "function"
    },
    {
      "inputs": [
        {
          "internalType": "address",
          "name": "account",
          "type": "address"
        }
      ],
      "name": "balanceOf",
      "outputs": [
        {
          "internalType": "uint256",
          "name": "",
          "type": "uint256"
        }
      ],
      "stateMutability": "view",
      "type": "function"
    },
    {
      "inputs": [],
      "name": "callbackEnabled",
      "outputs": [
        {
          "internalType": "bool",
          "name": "",
          "type": "bool"
        }
      ],
      "stateMutability": "view",
      "type": "function"
    },
    {
      "inputs": [],
      "name": "decimals",
      "outputs": [
        {
          "internalType": "uint8",
          "name": "",
          "type": "uint8"
        }
      ],
      "stateMutability": "view",
      "type": "function"
    },
    {
      "inputs": [
        {
          "internalType": "address",
          "name": "spender",
          "type": "address"
        },
        {
          "internalType": "uint256",
          "name": "subtractedValue",
          "type": "uint256"
        }
      ],
      "name": "decreaseAllowance",
      "outputs": [
        {
          "internalType": "bool",
          "name": "",
          "type": "bool"
        }
      ],
      "stateMutability": "nonpayable",
      "type": "function"
    },
    {
      "inputs": [
        {
          "internalType": "bool",
          "name": "_callbackEnabled",
          "type": "bool"
        }
      ],
      "name": "enableCallback",
      "outputs": [],
      "stateMutability": "nonpayable",
      "type": "function"
    },
    {
      "inputs": [
        {
          "internalType": "address",
          "name": "spender",
          "type": "address"
        },
        {
          "internalType": "uint256",
          "name": "addedValue",
          "type": "uint256"
        }
      ],
      "name": "increaseAllowance",
      "outputs": [
        {
          "internalType": "bool",
          "name": "",
          "type": "bool"
        }
      ],
      "stateMutability": "nonpayable",
      "type": "function"
    },
    {
      "inputs": [
        {
          "internalType": "address",
          "name": "account",
          "type": "address"
        }
      ],
      "name": "isMinter",
      "outputs": [
        {
          "internalType": "bool",
          "name": "",
          "type": "bool"
        }
      ],
      "stateMutability": "view",
      "type": "function"
    },
    {
      "inputs": [],
      "name": "isOwner",
      "outputs": [
        {
          "internalType": "bool",
          "name": "",
          "type": "bool"
        }
      ],
      "stateMutability": "view",
      "type": "function"
    },
    {
      "inputs": [
        {
          "internalType": "address",
          "name": "account",
          "type": "address"
        },
        {
          "internalType": "uint256",
          "name": "amount",
          "type": "uint256"
        }
      ],
      "name": "mint",
      "outputs": [
        {
          "internalType": "bool",
          "name": "",
          "type": "bool"
        }
      ],
      "stateMutability": "nonpayable",
      "type": "function"
    },
    {
      "inputs": [],
      "name": "name",
      "outputs": [
        {
          "internalType": "string",
          "name": "",
          "type": "string"
        }
      ],
      "stateMutability": "view",
      "type": "function"
    },
    {
      "inputs": [],
      "name": "owner",
      "outputs": [
        {
          "internalType": "address",
          "name": "",
          "type": "address"
        }
      ],
      "stateMutability": "view",
      "type": "function"
    },
    {
      "inputs": [
        {
          "internalType": "address",
          "name": "target",
          "type": "address"
        }
      ],
      "name": "renounceMinter",
      "outputs": [],
      "stateMutability": "nonpayable",
      "type": "function"
    },
    {
      "inputs": [],
      "name": "renounceMinter",
      "outputs": [],
      "stateMutability": "nonpayable",
      "type": "function"
    },
    {
      "inputs": [
        {
          "internalType": "address",
          "name": "target",
          "type": "address"
        }
      ],
      "name": "renounceOwnership",
      "outputs": [],
      "stateMutability": "nonpayable",
      "type": "function"
    },
    {
      "inputs": [],
      "name": "renounceOwnership",
      "outputs": [],
      "stateMutability": "nonpayable",
      "type": "function"
    },
    {
      "inputs": [
        {
          "internalType": "address",
          "name": "target",
          "type": "address"
        }
      ],
      "name": "renouncePauser",
      "outputs": [],
      "stateMutability": "nonpayable",
      "type": "function"
    },
    {
      "inputs": [],
      "name": "seigManager",
      "outputs": [
        {
          "internalType": "contract SeigManagerI",
          "name": "",
          "type": "address"
        }
      ],
      "stateMutability": "view",
      "type": "function"
    },
    {
      "inputs": [
        {
          "internalType": "contract SeigManagerI",
          "name": "_seigManager",
          "type": "address"
        }
      ],
      "name": "setSeigManager",
      "outputs": [],
      "stateMutability": "pure",
      "type": "function"
    },
    {
      "inputs": [],
      "name": "symbol",
      "outputs": [
        {
          "internalType": "string",
          "name": "",
          "type": "string"
        }
      ],
      "stateMutability": "view",
      "type": "function"
    },
    {
      "inputs": [],
      "name": "totalSupply",
      "outputs": [
        {
          "internalType": "uint256",
          "name": "",
          "type": "uint256"
        }
      ],
      "stateMutability": "view",
      "type": "function"
    },
    {
      "inputs": [
        {
          "internalType": "address",
          "name": "recipient",
          "type": "address"
        },
        {
          "internalType": "uint256",
          "name": "amount",
          "type": "uint256"
        }
      ],
      "name": "transfer",
      "outputs": [
        {
          "internalType": "bool",
          "name": "",
          "type": "bool"
        }
      ],
      "stateMutability": "nonpayable",
      "type": "function"
    },
    {
      "inputs": [
        {
          "internalType": "address",
          "name": "sender",
          "type": "address"
        },
        {
          "internalType": "address",
          "name": "recipient",
          "type": "address"
        },
        {
          "internalType": "uint256",
          "name": "amount",
          "type": "uint256"
        }
      ],
      "name": "transferFrom",
      "outputs": [
        {
          "internalType": "bool",
          "name": "",
          "type": "bool"
        }
      ],
      "stateMutability": "nonpayable",
      "type": "function"
    },
    {
      "inputs": [
        {
          "internalType": "address",
          "name": "target",
          "type": "address"
        },
        {
          "internalType": "address",
          "name": "newOwner",
          "type": "address"
        }
      ],
      "name": "transferOwnership",
      "outputs": [],
      "stateMutability": "nonpayable",
      "type": "function"
    },
    {
      "inputs": [
        {
          "internalType": "address",
          "name": "newOwner",
          "type": "address"
        }
      ],
      "name": "transferOwnership",
      "outputs": [],
      "stateMutability": "nonpayable",
      "type": "function"
    }
  ],
  "bytecode": "0x60806040523480156200001157600080fd5b506040518060400160405280601581526020017f546f6b616d616b204e6574776f726b20546f6b656e0000000000000000000000815250604051806040016040528060038152602001622a27a760e91b81525060126000620000786200010860201b60201c565b600080546001600160a01b0319166001600160a01b0383169081178255604051929350917f8be0079c531659141344cd1fd0a4f28419497f9722a3daafe3b4186f6b6457e0908290a350620000cd336200010c565b6005620000db84826200030c565b506006620000ea83826200030c565b506007805460ff191660ff9290921691909117905550620003d89050565b3390565b620001278160046200015e60201b620009781790919060201c565b6040516001600160a01b038216907f6ae172837ea30b801fbfcdd4108aa1d5bf8ff775444fd70256b44e6bf3dfc3f690600090a250565b6200016a8282620001e2565b15620001bd5760405162461bcd60e51b815260206004820152601f60248201527f526f6c65733a206163636f756e7420616c72656164792068617320726f6c650060448201526064015b60405180910390fd5b6001600160a01b0316600090815260209190915260409020805460ff19166001179055565b60006001600160a01b038216620002475760405162461bcd60e51b815260206004820152602260248201527f526f6c65733a206163636f756e7420697320746865207a65726f206164647265604482015261737360f01b6064820152608401620001b4565b506001600160a01b03166000908152602091909152604090205460ff1690565b634e487b7160e01b600052604160045260246000fd5b600181811c908216806200029257607f821691505b602082108103620002b357634e487b7160e01b600052602260045260246000fd5b50919050565b601f8211156200030757600081815260208120601f850160051c81016020861015620002e25750805b601f850160051c820191505b818110156200030357828155600101620002ee565b5050505b505050565b81516001600160401b0381111562000328576200032862000267565b62000340816200033984546200027d565b84620002b9565b602080601f8311600181146200037857600084156200035f5750858301515b600019600386901b1c1916600185901b17855562000303565b600085815260208120601f198616915b82811015620003a95788860151825594840194600190910190840162000388565b5085821015620003c85787850151600019600388901b60f8161c191681555b5050505050600190811b01905550565b6119de80620003e86000396000f3fe608060405234801561001057600080fd5b50600436106101845760003560e01c806370a08231116100d957806398650275116100875780639865027514610347578063a457c2d71461034f578063a9059cbb14610362578063aa271e1a14610375578063cae9ca5114610388578063dd62ed3e1461039b578063f2fde38b146103d457600080fd5b806370a08231146102cf578063715018a6146102f85780637657f20a146103005780638da5cb5b146103135780638f32d59b1461032457806395d89b411461032c578063983b2d561461033457600080fd5b80633950935111610136578063395093511461022c57806340c10f191461023f57806341eb24bb146102525780635f112c681461026557806363380113146102785780636d4354211461028c5780636fb7f5581461029f57600080fd5b806306fdde0314610189578063095ea7b3146101a757806318160ddd146101ca57806323b872dd146101dc5780633113ed5c146101ef578063313ce5671461020457806338bf3cfa14610219575b600080fd5b6101916103e7565b60405161019e91906115a7565b60405180910390f35b6101ba6101b53660046115cf565b610479565b604051901515815260200161019e565b6003545b60405190815260200161019e565b6101ba6101ea3660046115fb565b610490565b6102026101fd36600461164a565b61052e565b005b60075460405160ff909116815260200161019e565b610202610227366004611667565b610570565b6101ba61023a3660046115cf565b6105ea565b6101ba61024d3660046115cf565b610625565b610202610260366004611667565b610656565b610202610273366004611667565b6106b5565b6007546101ba90600160a81b900460ff1681565b61020261029a366004611684565b610714565b6007546102b79061010090046001600160a01b031681565b6040516001600160a01b03909116815260200161019e565b6101ce6102dd366004611667565b6001600160a01b031660009081526001602052604090205490565b610202610797565b61020261030e366004611667565b610805565b6000546001600160a01b03166102b7565b6101ba61085b565b61019161086c565b610202610342366004611667565b61087b565b6102026108ac565b6101ba61035d3660046115cf565b6108b7565b6101ba6103703660046115cf565b610906565b6101ba610383366004611667565b610913565b6101ba6103963660046116d3565b610920565b6101ce6103a9366004611684565b6001600160a01b03918216600090815260026020908152604080832093909416825291909152205490565b6102026103e2366004611667565b61094b565b6060600580546103f6906117a0565b80601f0160208091040260200160405190810160405280929190818152602001828054610422906117a0565b801561046f5780601f106104445761010080835404028352916020019161046f565b820191906000526020600020905b81548152906001019060200180831161045257829003601f168201915b5050505050905090565b60006104863384846109f4565b5060015b92915050565b6000336001600160a01b03851614806104b15750336001600160a01b038416145b61051b5760405162461bcd60e51b815260206004820152603060248201527f53656967546f6b656e3a206f6e6c792073656e646572206f722072656369706960448201526f32b73a1031b0b7103a3930b739b332b960811b60648201526084015b60405180910390fd5b610526848484610b19565b949350505050565b61053661085b565b6105525760405162461bcd60e51b8152600401610512906117da565b60078054911515600160a81b0260ff60a81b19909216919091179055565b61057861085b565b6105945760405162461bcd60e51b8152600401610512906117da565b806001600160a01b031663715018a66040518163ffffffff1660e01b8152600401600060405180830381600087803b1580156105cf57600080fd5b505af11580156105e3573d6000803e3d6000fd5b5050505050565b3360008181526002602090815260408083206001600160a01b038716845290915281205490916104869185906106209086610b73565b6109f4565b600061063033610913565b61064c5760405162461bcd60e51b81526004016105129061180f565b6104868383610bd9565b61065e61085b565b61067a5760405162461bcd60e51b8152600401610512906117da565b806001600160a01b0316636ef8d66d6040518163ffffffff1660e01b8152600401600060405180830381600087803b1580156105cf57600080fd5b6106bd61085b565b6106d95760405162461bcd60e51b8152600401610512906117da565b806001600160a01b031663986502756040518163ffffffff1660e01b8152600401600060405180830381600087803b1580156105cf57600080fd5b61071c61085b565b6107385760405162461bcd60e51b8152600401610512906117da565b60405163f2fde38b60e01b81526001600160a01b03828116600483015283169063f2fde38b90602401600060405180830381600087803b15801561077b57600080fd5b505af115801561078f573d6000803e3d6000fd5b505050505050565b61079f61085b565b6107bb5760405162461bcd60e51b8152600401610512906117da565b600080546040516001600160a01b03909116907f8be0079c531659141344cd1fd0a4f28419497f9722a3daafe3b4186f6b6457e0908390a3600080546001600160a01b0319169055565b60405162461bcd60e51b815260206004820152602560248201527f544f4e3a20544f4e20646f65736e277420616c6c6f7720736574536569674d616044820152643730b3b2b960d91b6064820152608401610512565b6000546001600160a01b0316331490565b6060600680546103f6906117a0565b61088433610913565b6108a05760405162461bcd60e51b81526004016105129061180f565b6108a981610c99565b50565b6108b533610cdb565b565b6000610486338461062085604051806060016040528060258152602001611984602591393360009081526002602090815260408083206001600160a01b038d1684529091529020549190610d1d565b6000610486338484610d57565b600061048a600483610e18565b600061092c8484610479565b61093557600080fd5b61094133858585610e9b565b5060019392505050565b61095361085b565b61096f5760405162461bcd60e51b8152600401610512906117da565b6108a98161104c565b6109828282610e18565b156109cf5760405162461bcd60e51b815260206004820152601f60248201527f526f6c65733a206163636f756e7420616c72656164792068617320726f6c65006044820152606401610512565b6001600160a01b0316600090815260209190915260409020805460ff19166001179055565b6001600160a01b038316610a565760405162461bcd60e51b8152602060048201526024808201527f45524332303a20617070726f76652066726f6d20746865207a65726f206164646044820152637265737360e01b6064820152608401610512565b6001600160a01b038216610ab75760405162461bcd60e51b815260206004820152602260248201527f45524332303a20617070726f766520746f20746865207a65726f206164647265604482015261737360f01b6064820152608401610512565b6001600160a01b0383811660008181526002602090815260408083209487168084529482529182902085905590518481527f8c5be1e5ebec7d5bd14f71427d1e84f3dd0314c0f7b2291e5b200ac8c7c3b92591015b60405180910390a3505050565b6000610b26848484610d57565b61094184336106208560405180606001604052806028815260200161195c602891396001600160a01b038a1660009081526002602090815260408083203384529091529020549190610d1d565b600080610b808385611875565b905083811015610bd25760405162461bcd60e51b815260206004820152601b60248201527f536166654d6174683a206164646974696f6e206f766572666c6f7700000000006044820152606401610512565b9392505050565b610be3828261110c565b600754600160a81b900460ff168015610c0b575060075461010090046001600160a01b031615155b15610c9557600754604051634a39314960e01b81526101009091046001600160a01b031690634a39314990610c499060009086908690600401611888565b6020604051808303816000875af1158015610c68573d6000803e3d6000fd5b505050506040513d601f19601f82011682018060405250810190610c8c91906118ac565b610c9557600080fd5b5050565b610ca4600482610978565b6040516001600160a01b038216907f6ae172837ea30b801fbfcdd4108aa1d5bf8ff775444fd70256b44e6bf3dfc3f690600090a250565b610ce66004826111f2565b6040516001600160a01b038216907fe94479a9f7e1952cc78f2d6baab678adc1b772d936c6583def489e524cb6669290600090a250565b60008184841115610d415760405162461bcd60e51b815260040161051291906115a7565b506000610d4e84866118c9565b95945050505050565b610d62838383611274565b600754600160a81b900460ff168015610d8a575060075461010090046001600160a01b031615155b15610e1357600754604051634a39314960e01b81526101009091046001600160a01b031690634a39314990610dc790869086908690600401611888565b6020604051808303816000875af1158015610de6573d6000803e3d6000fd5b505050506040513d601f19601f82011682018060405250810190610e0a91906118ac565b610e1357600080fd5b505050565b60006001600160a01b038216610e7b5760405162461bcd60e51b815260206004820152602260248201527f526f6c65733a206163636f756e7420697320746865207a65726f206164647265604482015261737360f01b6064820152608401610512565b506001600160a01b03166000908152602091909152604090205460ff1690565b632139e50b60e11b610ead84826113fa565b610f135760405162461bcd60e51b815260206004820152603160248201527f45524332304f6e417070726f76653a207370656e64657220646f65736e277420604482015270737570706f7274206f6e417070726f766560781b6064820152608401610512565b600080856001600160a01b03168388888888604051602401610f3894939291906118dc565b60408051601f198184030181529181526020820180516001600160e01b03166001600160e01b0319909416939093179092529051610f769190611919565b6000604051808303816000865af19150503d8060008114610fb3576040519150601f19603f3d011682016040523d82523d6000602084013e610fb8565b606091505b5091509150818190610fdd5760405162461bcd60e51b815260040161051291906115a7565b5060208101519150816110435760405162461bcd60e51b815260206004820152602860248201527f45524332304f6e417070726f76653a206661696c656420746f2063616c6c206f6044820152676e417070726f766560c01b6064820152608401610512565b50505050505050565b6001600160a01b0381166110b15760405162461bcd60e51b815260206004820152602660248201527f4f776e61626c653a206e6577206f776e657220697320746865207a65726f206160448201526564647265737360d01b6064820152608401610512565b600080546040516001600160a01b03808516939216917f8be0079c531659141344cd1fd0a4f28419497f9722a3daafe3b4186f6b6457e091a3600080546001600160a01b0319166001600160a01b0392909216919091179055565b6001600160a01b0382166111625760405162461bcd60e51b815260206004820152601f60248201527f45524332303a206d696e7420746f20746865207a65726f2061646472657373006044820152606401610512565b60035461116f9082610b73565b6003556001600160a01b0382166000908152600160205260409020546111959082610b73565b6001600160a01b0383166000818152600160205260408082209390935591519091907fddf252ad1be2c89b69c2b068fc378daa952ba7f163c4a11628f55a4df523b3ef906111e69085815260200190565b60405180910390a35050565b6111fc8282610e18565b6112525760405162461bcd60e51b815260206004820152602160248201527f526f6c65733a206163636f756e7420646f6573206e6f74206861766520726f6c6044820152606560f81b6064820152608401610512565b6001600160a01b0316600090815260209190915260409020805460ff19169055565b6001600160a01b0383166112d85760405162461bcd60e51b815260206004820152602560248201527f45524332303a207472616e736665722066726f6d20746865207a65726f206164604482015264647265737360d81b6064820152608401610512565b6001600160a01b03821661133a5760405162461bcd60e51b815260206004820152602360248201527f45524332303a207472616e7366657220746f20746865207a65726f206164647260448201526265737360e81b6064820152608401610512565b61137781604051806060016040528060268152602001611936602691396001600160a01b0386166000908152600160205260409020549190610d1d565b6001600160a01b0380851660009081526001602052604080822093909355908416815220546113a69082610b73565b6001600160a01b0380841660008181526001602052604090819020939093559151908516907fddf252ad1be2c89b69c2b068fc378daa952ba7f163c4a11628f55a4df523b3ef90610b0c9085815260200190565b600061140583611416565b8015610bd25750610bd28383611449565b6000611429826301ffc9a760e01b611449565b801561048a5750611442826001600160e01b0319611449565b1592915050565b6000806000611458858561146c565b91509150818015610d4e5750949350505050565b604080516001600160e01b0319831660248083019190915282518083039091018152604490910182526020810180516001600160e01b03166301ffc9a760e01b17905290516000918291829081906001600160a01b03881690617530906114d4908690611919565b6000604051808303818686fa925050503d8060008114611510576040519150601f19603f3d011682016040523d82523d6000602084013e611515565b606091505b50915091506020815110156115335760008094509450505050611550565b818180602001905181019061154891906118ac565b945094505050505b9250929050565b60005b8381101561157257818101518382015260200161155a565b50506000910152565b60008151808452611593816020860160208601611557565b601f01601f19169290920160200192915050565b602081526000610bd2602083018461157b565b6001600160a01b03811681146108a957600080fd5b600080604083850312156115e257600080fd5b82356115ed816115ba565b946020939093013593505050565b60008060006060848603121561161057600080fd5b833561161b816115ba565b9250602084013561162b816115ba565b929592945050506040919091013590565b80151581146108a957600080fd5b60006020828403121561165c57600080fd5b8135610bd28161163c565b60006020828403121561167957600080fd5b8135610bd2816115ba565b6000806040838503121561169757600080fd5b82356116a2816115ba565b915060208301356116b2816115ba565b809150509250929050565b634e487b7160e01b600052604160045260246000fd5b6000806000606084860312156116e857600080fd5b83356116f3816115ba565b925060208401359150604084013567ffffffffffffffff8082111561171757600080fd5b818601915086601f83011261172b57600080fd5b81358181111561173d5761173d6116bd565b604051601f8201601f19908116603f01168101908382118183101715611765576117656116bd565b8160405282815289602084870101111561177e57600080fd5b8260208601602083013760006020848301015280955050505050509250925092565b600181811c908216806117b457607f821691505b6020821081036117d457634e487b7160e01b600052602260045260246000fd5b50919050565b6020808252818101527f4f776e61626c653a2063616c6c6572206973206e6f7420746865206f776e6572604082015260600190565b60208082526030908201527f4d696e746572526f6c653a2063616c6c657220646f6573206e6f74206861766560408201526f20746865204d696e74657220726f6c6560801b606082015260800190565b634e487b7160e01b600052601160045260246000fd5b8082018082111561048a5761048a61185f565b6001600160a01b039384168152919092166020820152604081019190915260600190565b6000602082840312156118be57600080fd5b8151610bd28161163c565b8181038181111561048a5761048a61185f565b6001600160a01b038581168252841660208201526040810183905260806060820181905260009061190f9083018461157b565b9695505050505050565b6000825161192b818460208701611557565b919091019291505056fe45524332303a207472616e7366657220616d6f756e7420657863656564732062616c616e636545524332303a207472616e7366657220616d6f756e74206578636565647320616c6c6f77616e636545524332303a2064656372656173656420616c6c6f77616e63652062656c6f77207a65726fa2646970667358221220c96a3108a91c834b6520cbc1eeea1a23dd99033809c42b33ae0512f86509beed64736f6c63430008120033",
  "linkReferences": {},
  "deployedLinkReferences": {}
}