{
  "_format": "hh-sol-artifact-1",
  "contractName": "DAOCommitteeProxyV2",
  "sourceName": "contracts/dao/DAOCommitteeProxyV2.sol",
  "abi": [
    {
      "anonymous": false,
      "inputs": [
        {
          "indexed": true,
          "internalType": "bytes32",
          "name": "role",
          "type": "bytes32"
        },
        {
          "indexed": true,
          "internalType": "bytes32",
          "name": "previousAdminRole",
          "type": "bytes32"
        },
        {
          "indexed": true,
          "internalType": "bytes32",
          "name": "newAdminRole",
          "type": "bytes32"
        }
      ],
      "name": "RoleAdminChanged",
      "type": "event"
    },
    {
      "anonymous": false,
      "inputs": [
        {
          "indexed": true,
          "internalType": "bytes32",
          "name": "role",
          "type": "bytes32"
        },
        {
          "indexed": true,
          "internalType": "address",
          "name": "account",
          "type": "address"
        },
        {
          "indexed": true,
          "internalType": "address",
          "name": "sender",
          "type": "address"
        }
      ],
      "name": "RoleGranted",
      "type": "event"
    },
    {
      "anonymous": false,
      "inputs": [
        {
          "indexed": true,
          "internalType": "bytes32",
          "name": "role",
          "type": "bytes32"
        },
        {
          "indexed": true,
          "internalType": "address",
          "name": "account",
          "type": "address"
        },
        {
          "indexed": true,
          "internalType": "address",
          "name": "sender",
          "type": "address"
        }
      ],
      "name": "RoleRevoked",
      "type": "event"
    },
    {
      "anonymous": false,
      "inputs": [
        {
          "indexed": true,
          "internalType": "address",
          "name": "impl",
          "type": "address"
        },
        {
          "indexed": false,
          "internalType": "bool",
          "name": "alive",
          "type": "bool"
        }
      ],
      "name": "SetAliveImplementation",
      "type": "event"
    },
    {
      "anonymous": false,
      "inputs": [
        {
          "indexed": true,
          "internalType": "bytes4",
          "name": "selector",
          "type": "bytes4"
        },
        {
          "indexed": true,
          "internalType": "address",
          "name": "impl",
          "type": "address"
        }
      ],
      "name": "SetSelectorImplementation",
      "type": "event"
    },
    {
      "anonymous": false,
      "inputs": [
        {
          "indexed": true,
          "internalType": "address",
          "name": "implementation",
          "type": "address"
        }
      ],
      "name": "Upgraded",
      "type": "event"
    },
    {
      "stateMutability": "payable",
      "type": "fallback"
    },
    {
      "inputs": [],
      "name": "DEFAULT_ADMIN_ROLE",
      "outputs": [
        {
          "internalType": "bytes32",
          "name": "",
          "type": "bytes32"
        }
      ],
      "stateMutability": "view",
      "type": "function"
    },
    {
      "inputs": [],
      "name": "activityRewardPerSecond",
      "outputs": [
        {
          "internalType": "uint256",
          "name": "",
          "type": "uint256"
        }
      ],
      "stateMutability": "view",
      "type": "function"
    },
    {
      "inputs": [],
      "name": "agendaManager",
      "outputs": [
        {
          "internalType": "contract IDAOAgendaManager",
          "name": "",
          "type": "address"
        }
      ],
      "stateMutability": "view",
      "type": "function"
    },
    {
      "inputs": [
        {
          "internalType": "address",
          "name": "",
          "type": "address"
        }
      ],
      "name": "aliveImplementation",
      "outputs": [
        {
          "internalType": "bool",
          "name": "",
          "type": "bool"
        }
      ],
      "stateMutability": "view",
      "type": "function"
    },
    {
      "inputs": [
        {
          "internalType": "address",
          "name": "_candidate",
          "type": "address"
        }
      ],
      "name": "candidateContract",
      "outputs": [
        {
          "internalType": "address",
          "name": "",
          "type": "address"
        }
      ],
      "stateMutability": "view",
      "type": "function"
    },
    {
      "inputs": [],
      "name": "candidateFactory",
      "outputs": [
        {
          "internalType": "contract ICandidateFactory",
          "name": "",
          "type": "address"
        }
      ],
      "stateMutability": "view",
      "type": "function"
    },
    {
      "inputs": [
        {
          "internalType": "address",
          "name": "_candidate",
          "type": "address"
        }
      ],
      "name": "candidateInfos",
      "outputs": [
        {
          "components": [
            {
              "internalType": "address",
              "name": "candidateContract",
              "type": "address"
            },
            {
              "internalType": "uint256",
              "name": "indexMembers",
              "type": "uint256"
            },
            {
              "internalType": "uint128",
              "name": "memberJoinedTime",
              "type": "uint128"
            },
            {
              "internalType": "uint128",
              "name": "rewardPeriod",
              "type": "uint128"
            },
            {
              "internalType": "uint128",
              "name": "claimedTimestamp",
              "type": "uint128"
            }
          ],
          "internalType": "struct IStorageStateCommittee.CandidateInfo",
          "name": "",
          "type": "tuple"
        }
      ],
      "stateMutability": "nonpayable",
      "type": "function"
    },
    {
      "inputs": [
        {
          "internalType": "uint256",
          "name": "",
          "type": "uint256"
        }
      ],
      "name": "candidates",
      "outputs": [
        {
          "internalType": "address",
          "name": "",
          "type": "address"
        }
      ],
      "stateMutability": "view",
      "type": "function"
    },
    {
      "inputs": [],
      "name": "daoVault",
      "outputs": [
        {
          "internalType": "contract IDAOVault",
          "name": "",
          "type": "address"
        }
      ],
      "stateMutability": "view",
      "type": "function"
    },
    {
      "inputs": [
        {
          "internalType": "bytes32",
          "name": "role",
          "type": "bytes32"
        }
      ],
      "name": "getRoleAdmin",
      "outputs": [
        {
          "internalType": "bytes32",
          "name": "",
          "type": "bytes32"
        }
      ],
      "stateMutability": "view",
      "type": "function"
    },
    {
      "inputs": [
        {
          "internalType": "bytes32",
          "name": "role",
          "type": "bytes32"
        },
        {
          "internalType": "uint256",
          "name": "index",
          "type": "uint256"
        }
      ],
      "name": "getRoleMember",
      "outputs": [
        {
          "internalType": "address",
          "name": "",
          "type": "address"
        }
      ],
      "stateMutability": "view",
      "type": "function"
    },
    {
      "inputs": [
        {
          "internalType": "bytes32",
          "name": "role",
          "type": "bytes32"
        }
      ],
      "name": "getRoleMemberCount",
      "outputs": [
        {
          "internalType": "uint256",
          "name": "",
          "type": "uint256"
        }
      ],
      "stateMutability": "view",
      "type": "function"
    },
    {
      "inputs": [
        {
          "internalType": "bytes4",
          "name": "_selector",
          "type": "bytes4"
        }
      ],
      "name": "getSelectorImplementation2",
      "outputs": [
        {
          "internalType": "address",
          "name": "impl",
          "type": "address"
        }
      ],
      "stateMutability": "view",
      "type": "function"
    },
    {
      "inputs": [
        {
          "internalType": "bytes32",
          "name": "role",
          "type": "bytes32"
        },
        {
          "internalType": "address",
          "name": "account",
          "type": "address"
        }
      ],
      "name": "grantRole",
      "outputs": [],
      "stateMutability": "nonpayable",
      "type": "function"
    },
    {
      "inputs": [
        {
          "internalType": "bytes32",
          "name": "role",
          "type": "bytes32"
        },
        {
          "internalType": "address",
          "name": "account",
          "type": "address"
        }
      ],
      "name": "hasRole",
      "outputs": [
        {
          "internalType": "bool",
          "name": "",
          "type": "bool"
        }
      ],
      "stateMutability": "view",
      "type": "function"
    },
    {
      "inputs": [
        {
          "internalType": "uint256",
          "name": "_index",
          "type": "uint256"
        }
      ],
      "name": "implementation2",
      "outputs": [
        {
          "internalType": "address",
          "name": "",
          "type": "address"
        }
      ],
      "stateMutability": "view",
      "type": "function"
    },
    {
      "inputs": [
        {
          "internalType": "address",
          "name": "_candidate",
          "type": "address"
        }
      ],
      "name": "isMember",
      "outputs": [
        {
          "internalType": "bool",
          "name": "",
          "type": "bool"
        }
      ],
      "stateMutability": "view",
      "type": "function"
    },
    {
      "inputs": [],
      "name": "layer2Registry",
      "outputs": [
        {
          "internalType": "contract ILayer2Registry",
          "name": "",
          "type": "address"
        }
      ],
      "stateMutability": "view",
      "type": "function"
    },
    {
      "inputs": [],
      "name": "maxMember",
      "outputs": [
        {
          "internalType": "uint256",
          "name": "",
          "type": "uint256"
        }
      ],
      "stateMutability": "view",
      "type": "function"
    },
    {
      "inputs": [
        {
          "internalType": "uint256",
          "name": "",
          "type": "uint256"
        }
      ],
      "name": "members",
      "outputs": [
        {
          "internalType": "address",
          "name": "",
          "type": "address"
        }
      ],
      "stateMutability": "view",
      "type": "function"
    },
    {
      "inputs": [],
      "name": "pauseProxy",
      "outputs": [
        {
          "internalType": "bool",
          "name": "",
          "type": "bool"
        }
      ],
      "stateMutability": "view",
      "type": "function"
    },
    {
      "inputs": [
        {
          "internalType": "uint256",
          "name": "",
          "type": "uint256"
        }
      ],
      "name": "proxyImplementation",
      "outputs": [
        {
          "internalType": "address",
          "name": "",
          "type": "address"
        }
      ],
      "stateMutability": "view",
      "type": "function"
    },
    {
      "inputs": [],
      "name": "quorum",
      "outputs": [
        {
          "internalType": "uint256",
          "name": "",
          "type": "uint256"
        }
      ],
      "stateMutability": "view",
      "type": "function"
    },
    {
      "inputs": [
        {
          "internalType": "bytes32",
          "name": "role",
          "type": "bytes32"
        },
        {
          "internalType": "address",
          "name": "account",
          "type": "address"
        }
      ],
      "name": "renounceRole",
      "outputs": [],
      "stateMutability": "nonpayable",
      "type": "function"
    },
    {
      "inputs": [
        {
          "internalType": "bytes32",
          "name": "role",
          "type": "bytes32"
        },
        {
          "internalType": "address",
          "name": "account",
          "type": "address"
        }
      ],
      "name": "revokeRole",
      "outputs": [],
      "stateMutability": "nonpayable",
      "type": "function"
    },
    {
      "inputs": [],
      "name": "seigManager",
      "outputs": [
        {
          "internalType": "contract ISeigManager",
          "name": "",
          "type": "address"
        }
      ],
      "stateMutability": "view",
      "type": "function"
    },
    {
      "inputs": [
        {
          "internalType": "bytes4",
          "name": "",
          "type": "bytes4"
        }
      ],
      "name": "selectorImplementation",
      "outputs": [
        {
          "internalType": "address",
          "name": "",
          "type": "address"
        }
      ],
      "stateMutability": "view",
      "type": "function"
    },
    {
      "inputs": [
        {
          "internalType": "address",
          "name": "newImplementation",
          "type": "address"
        },
        {
          "internalType": "bool",
          "name": "_alive",
          "type": "bool"
        }
      ],
      "name": "setAliveImplementation2",
      "outputs": [],
      "stateMutability": "nonpayable",
      "type": "function"
    },
    {
      "inputs": [
        {
          "internalType": "address",
          "name": "newImplementation",
          "type": "address"
        },
        {
          "internalType": "uint256",
          "name": "_index",
          "type": "uint256"
        },
        {
          "internalType": "bool",
          "name": "_alive",
          "type": "bool"
        }
      ],
      "name": "setImplementation2",
      "outputs": [],
      "stateMutability": "nonpayable",
      "type": "function"
    },
    {
      "inputs": [
        {
          "internalType": "bytes4[]",
          "name": "_selectors",
          "type": "bytes4[]"
        },
        {
          "internalType": "address",
          "name": "_imp",
          "type": "address"
        }
      ],
      "name": "setSelectorImplementations2",
      "outputs": [],
      "stateMutability": "nonpayable",
      "type": "function"
    },
    {
      "inputs": [],
      "name": "ton",
      "outputs": [
        {
          "internalType": "address",
          "name": "",
          "type": "address"
        }
      ],
      "stateMutability": "view",
      "type": "function"
    },
    {
      "stateMutability": "payable",
      "type": "receive"
    }
  ],
  "bytecode": "0x608060405234801561001057600080fd5b506100216301ffc9a760e01b610026565b6100a9565b6001600160e01b031980821690036100845760405162461bcd60e51b815260206004820152601c60248201527f4552433136353a20696e76616c696420696e7465726661636520696400000000604482015260640160405180910390fd5b6001600160e01b0319166000908152600d60205260409020805460ff19166001179055565b61142e806100b86000396000f3fe60806040526004361061019c5760003560e01c8063651d08cd116100e2578063a217fddf11610085578063a217fddf146105d8578063a230c524146105ed578063b5dd115814610631578063b911135f14610651578063ca15c87314610687578063cc48b947146106a7578063cf2a239c146106c7578063d547741f146106e7576101a3565b8063651d08cd146104c95780636fb7f558146105025780637cd5f663146105225780637f331636146105425780638b8f4a65146105585780638d4fdb40146105785780639010d07c1461059857806391d14854146105b8576101a3565b806336568abe1161014a57806336568abe146103925780634a5df50f146103b257806350d2a276146103d2578063550d01a3146104085780635903bd6c146104485780635cc797d8146104685780635daf08ca1461048857806363a8fd89146104a8576101a3565b806303e3c9ac146101ad5780631703a018146101d6578063248a9ca3146101ec57806327fd92fd1461021c5780632e011c1e146102545780632f2ff15d146103525780633477ee2e14610372576101a3565b366101a357005b6101ab610707565b005b3480156101b957600080fd5b506101c360085481565b6040519081526020015b60405180910390f35b3480156101e257600080fd5b506101c3600a5481565b3480156101f857600080fd5b506101c3610207366004611174565b6000908152600c602052604090206002015490565b34801561022857600080fd5b5060025461023c906001600160a01b031681565b6040516001600160a01b0390911681526020016101cd565b34801561026057600080fd5b506102fd61026f3660046111a4565b6040805160a0808201835260008083526020808401829052838501829052606080850183905260809485018390526001600160a01b0396871683526009825291859020855193840186528054909616835260018601549083015260028501546001600160801b0380821695840195909552600160801b90048416908201526003909301549091169082015290565b6040805182516001600160a01b0316815260208084015190820152828201516001600160801b03908116928201929092526060808401518316908201526080928301519091169181019190915260a0016101cd565b34801561035e57600080fd5b506101ab61036d3660046111bf565b6107bc565b34801561037e57600080fd5b5061023c61038d366004611174565b61084a565b34801561039e57600080fd5b506101ab6103ad3660046111bf565b610874565b3480156103be57600080fd5b506101ab6103cd3660046111eb565b6108ee565b3480156103de57600080fd5b5061023c6103ed36600461126f565b6010602052600090815260409020546001600160a01b031681565b34801561041457600080fd5b506104386104233660046111a4565b600f6020526000908152604090205460ff1681565b60405190151581526020016101cd565b34801561045457600080fd5b5060015461023c906001600160a01b031681565b34801561047457600080fd5b506101ab6104833660046112a9565b610b4d565b34801561049457600080fd5b5061023c6104a3366004611174565b610b7e565b3480156104b457600080fd5b5060115461043890600160a01b900460ff1681565b3480156104d557600080fd5b5061023c6104e43660046111a4565b6001600160a01b039081166000908152600960205260409020541690565b34801561050e57600080fd5b5060055461023c906001600160a01b031681565b34801561052e57600080fd5b506101ab61053d3660046112d3565b610b8e565b34801561054e57600080fd5b506101c3600b5481565b34801561056457600080fd5b5061023c610573366004611174565b610bc0565b34801561058457600080fd5b5061023c61059336600461126f565b610bdf565b3480156105a457600080fd5b5061023c6105b3366004611306565b610cdb565b3480156105c457600080fd5b506104386105d33660046111bf565b610cfa565b3480156105e457600080fd5b506101c3600081565b3480156105f957600080fd5b506104386106083660046111a4565b6001600160a01b03166000908152600960205260409020600201546001600160801b0316151590565b34801561063d57600080fd5b5060035461023c906001600160a01b031681565b34801561065d57600080fd5b5061023c61066c366004611174565b600e602052600090815260409020546001600160a01b031681565b34801561069357600080fd5b506101c36106a2366004611174565b610d12565b3480156106b357600080fd5b5060005461023c906001600160a01b031681565b3480156106d357600080fd5b5060045461023c906001600160a01b031681565b3480156106f357600080fd5b506101ab6107023660046111bf565b610d29565b600061071e6000356001600160e01b031916610bdf565b90506001600160a01b038116158015906107425750601154600160a01b900460ff16155b6107935760405162461bcd60e51b815260206004820152601d60248201527f50726f78793a20696d706c204f522070726f78792069732066616c736500000060448201526064015b60405180910390fd5b3660008037600080366000845af43d6000803e8080156107b2573d6000f35b3d6000fd5b505050565b6000828152600c60205260409020600201546107d89033610cfa565b61083c5760405162461bcd60e51b815260206004820152602f60248201527f416363657373436f6e74726f6c3a2073656e646572206d75737420626520616e60448201526e0818591b5a5b881d1bc819dc985b9d608a1b606482015260840161078a565b6108468282610daa565b5050565b6006818154811061085a57600080fd5b6000918252602090912001546001600160a01b0316905081565b6001600160a01b03811633146108e45760405162461bcd60e51b815260206004820152602f60248201527f416363657373436f6e74726f6c3a2063616e206f6e6c792072656e6f756e636560448201526e103937b632b9903337b91039b2b63360891b606482015260840161078a565b6108468282610e03565b6108f9600033610cfa565b6109155760405162461bcd60e51b815260040161078a90611328565b816109625760405162461bcd60e51b815260206004820181905260248201527f50726f78793a205f73656c6563746f727327732073697a65206973207a65726f604482015260640161078a565b6001600160a01b0381166000908152600f602052604090205460ff166109c55760405162461bcd60e51b815260206004820152601860248201527750726f78793a205f696d70206973206e6f7420616c69766560401b604482015260640161078a565b60005b82811015610b4757816001600160a01b0316601060008686858181106109f0576109f0611377565b9050602002016020810190610a05919061126f565b6001600160e01b03191681526020810191909152604001600020546001600160a01b031603610a765760405162461bcd60e51b815260206004820152601d60248201527f4c69717569646974795661756c7450726f78793a2073616d6520696d70000000604482015260640161078a565b8160106000868685818110610a8d57610a8d611377565b9050602002016020810190610aa2919061126f565b6001600160e01b0319168152602081019190915260400160002080546001600160a01b0319166001600160a01b039283161790558216848483818110610aea57610aea611377565b9050602002016020810190610aff919061126f565b6001600160e01b0319167f14ebc1c32aa68f4d766e89f3e546cee249f7df25183fc10ab1568d91c2ce9b7b60405160405180910390a380610b3f816113a3565b9150506109c8565b50505050565b610b58600033610cfa565b610b745760405162461bcd60e51b815260040161078a90611328565b6108468282610e5c565b6007818154811061085a57600080fd5b610b99600033610cfa565b610bb55760405162461bcd60e51b815260040161078a90611328565b6107b7838383610ebb565b6000818152600e60205260408120546001600160a01b03165b92915050565b6001600160e01b031981166000908152601060205260408120546001600160a01b0316610c3f57505060008052600e6020527fe710864318d4a32f37d6ce54cb3fadbef648dd12d8dbdf53973564d56b7f881c546001600160a01b031690565b6001600160e01b031982166000908152601060209081526040808320546001600160a01b03168352600f90915290205460ff1615610c9d57506001600160e01b0319166000908152601060205260409020546001600160a01b031690565b505060008052600e6020527fe710864318d4a32f37d6ce54cb3fadbef648dd12d8dbdf53973564d56b7f881c546001600160a01b031690565b919050565b6000828152600c60205260408120610cf39083610f4a565b9392505050565b6000828152600c60205260408120610cf39083610f56565b6000818152600c60205260408120610bd990610f78565b6000828152600c6020526040902060020154610d459033610cfa565b6108e45760405162461bcd60e51b815260206004820152603060248201527f416363657373436f6e74726f6c3a2073656e646572206d75737420626520616e60448201526f2061646d696e20746f207265766f6b6560801b606482015260840161078a565b6000828152600c60205260409020610dc29082610f82565b156108465760405133906001600160a01b0383169084907f2f8788117e7eff1d82e926ec794901d17c78024a50270940304540a733656f0d90600090a45050565b6000828152600c60205260409020610e1b9082610f97565b156108465760405133906001600160a01b0383169084907ff6391f5c32d9c69d2a47ea670b442974b53935d1edc7fd64eb21e047a839171b90600090a45050565b6001600160a01b0382166000818152600f6020908152604091829020805460ff191685151590811790915591519182527f72558d9bfba4210f9ef095c782589484151f6d90f7a81bb3cb9b33efc695d324910160405180910390a25050565b6001600160a01b0383163b610f125760405162461bcd60e51b815260206004820152601b60248201527f50726f78793a206e6f7420636f6e747261637420616464726573730000000000604482015260640161078a565b8015610f40576000828152600e6020526040902080546001600160a01b0319166001600160a01b0385161790555b6107b78382610e5c565b6000610cf38383610fac565b6001600160a01b03811660009081526001830160205260408120541515610cf3565b6000610bd9825490565b6000610cf3836001600160a01b038416611032565b6000610cf3836001600160a01b038416611081565b8154600090821061100a5760405162461bcd60e51b815260206004820152602260248201527f456e756d657261626c655365743a20696e646578206f7574206f6620626f756e604482015261647360f01b606482015260840161078a565b82600001828154811061101f5761101f611377565b9060005260206000200154905092915050565b600081815260018301602052604081205461107957508154600181810184556000848152602080822090930184905584548482528286019093526040902091909155610bd9565b506000610bd9565b6000818152600183016020526040812054801561116a5760006110a56001836113bc565b85549091506000906110b9906001906113bc565b905060008660000182815481106110d2576110d2611377565b90600052602060002001549050808760000184815481106110f5576110f5611377565b60009182526020909120015561110c8360016113cf565b6000828152600189016020526040902055865487908061112e5761112e6113e2565b60019003818190600052602060002001600090559055866001016000878152602001908152602001600020600090556001945050505050610bd9565b6000915050610bd9565b60006020828403121561118657600080fd5b5035919050565b80356001600160a01b0381168114610cd657600080fd5b6000602082840312156111b657600080fd5b610cf38261118d565b600080604083850312156111d257600080fd5b823591506111e26020840161118d565b90509250929050565b60008060006040848603121561120057600080fd5b833567ffffffffffffffff8082111561121857600080fd5b818601915086601f83011261122c57600080fd5b81358181111561123b57600080fd5b8760208260051b850101111561125057600080fd5b602092830195509350611266918601905061118d565b90509250925092565b60006020828403121561128157600080fd5b81356001600160e01b031981168114610cf357600080fd5b80358015158114610cd657600080fd5b600080604083850312156112bc57600080fd5b6112c58361118d565b91506111e260208401611299565b6000806000606084860312156112e857600080fd5b6112f18461118d565b92506020840135915061126660408501611299565b6000806040838503121561131957600080fd5b50508035926020909101359150565b6020808252602f908201527f44414f436f6d6d697474656550726f787956323a206d73672e73656e6465722060408201526e34b9903737ba1030b71030b236b4b760891b606082015260800190565b634e487b7160e01b600052603260045260246000fd5b634e487b7160e01b600052601160045260246000fd5b6000600182016113b5576113b561138d565b5060010190565b81810381811115610bd957610bd961138d565b80820180821115610bd957610bd961138d565b634e487b7160e01b600052603160045260246000fdfea264697066735822122014017be9e6cf4930a47e56905f1248777abe1c1178d3d096716056fe2fc3f8e564736f6c63430008120033",
  "linkReferences": {},
  "deployedLinkReferences": {}
}